{
  "contractName": "Cagnottes",
  "abi": [
    {
      "constant": true,
      "inputs": [],
      "name": "name",
      "outputs": [
        {
          "name": "",
          "type": "string"
        }
      ],
      "payable": false,
      "stateMutability": "view",
      "type": "function"
    },
    {
      "constant": false,
      "inputs": [
        {
          "name": "spender",
          "type": "address"
        },
        {
          "name": "value",
          "type": "uint256"
        }
      ],
      "name": "approve",
      "outputs": [
        {
          "name": "",
          "type": "bool"
        }
      ],
      "payable": false,
      "stateMutability": "nonpayable",
      "type": "function"
    },
    {
      "constant": true,
      "inputs": [],
      "name": "totalSupply",
      "outputs": [
        {
          "name": "",
          "type": "uint256"
        }
      ],
      "payable": false,
      "stateMutability": "view",
      "type": "function"
    },
    {
      "constant": false,
      "inputs": [
        {
          "name": "from",
          "type": "address"
        },
        {
          "name": "to",
          "type": "address"
        },
        {
          "name": "value",
          "type": "uint256"
        }
      ],
      "name": "transferFrom",
      "outputs": [
        {
          "name": "",
          "type": "bool"
        }
      ],
      "payable": false,
      "stateMutability": "nonpayable",
      "type": "function"
    },
    {
      "constant": true,
      "inputs": [],
      "name": "decimals",
      "outputs": [
        {
          "name": "",
          "type": "uint32"
        }
      ],
      "payable": false,
      "stateMutability": "view",
      "type": "function"
    },
    {
      "constant": false,
      "inputs": [
        {
          "name": "spender",
          "type": "address"
        },
        {
          "name": "addedValue",
          "type": "uint256"
        }
      ],
      "name": "increaseAllowance",
      "outputs": [
        {
          "name": "",
          "type": "bool"
        }
      ],
      "payable": false,
      "stateMutability": "nonpayable",
      "type": "function"
    },
    {
      "constant": true,
      "inputs": [],
      "name": "PRICE_RATIO",
      "outputs": [
        {
          "name": "",
          "type": "uint256"
        }
      ],
      "payable": false,
      "stateMutability": "view",
      "type": "function"
    },
    {
      "constant": true,
      "inputs": [],
      "name": "PRICE_GROUP",
      "outputs": [
        {
          "name": "",
          "type": "uint256"
        }
      ],
      "payable": false,
      "stateMutability": "view",
      "type": "function"
    },
    {
      "constant": true,
      "inputs": [
        {
          "name": "owner",
          "type": "address"
        }
      ],
      "name": "balanceOf",
      "outputs": [
        {
          "name": "",
          "type": "uint256"
        }
      ],
      "payable": false,
      "stateMutability": "view",
      "type": "function"
    },
    {
      "constant": true,
      "inputs": [],
      "name": "owner",
      "outputs": [
        {
          "name": "",
          "type": "address"
        }
      ],
      "payable": false,
      "stateMutability": "view",
      "type": "function"
    },
    {
      "constant": true,
      "inputs": [],
      "name": "symbol",
      "outputs": [
        {
          "name": "",
          "type": "string"
        }
      ],
      "payable": false,
      "stateMutability": "view",
      "type": "function"
    },
    {
      "constant": true,
      "inputs": [],
      "name": "PRICE_CHANEL",
      "outputs": [
        {
          "name": "",
          "type": "uint256"
        }
      ],
      "payable": false,
      "stateMutability": "view",
      "type": "function"
    },
    {
      "constant": false,
      "inputs": [
        {
          "name": "spender",
          "type": "address"
        },
        {
          "name": "subtractedValue",
          "type": "uint256"
        }
      ],
      "name": "decreaseAllowance",
      "outputs": [
        {
          "name": "",
          "type": "bool"
        }
      ],
      "payable": false,
      "stateMutability": "nonpayable",
      "type": "function"
    },
    {
      "constant": false,
      "inputs": [
        {
          "name": "to",
          "type": "address"
        },
        {
          "name": "value",
          "type": "uint256"
        }
      ],
      "name": "transfer",
      "outputs": [
        {
          "name": "",
          "type": "bool"
        }
      ],
      "payable": false,
      "stateMutability": "nonpayable",
      "type": "function"
    },
    {
      "constant": true,
      "inputs": [],
      "name": "PRICE_MEMBRE",
      "outputs": [
        {
          "name": "",
          "type": "uint256"
        }
      ],
      "payable": false,
      "stateMutability": "view",
      "type": "function"
    },
    {
      "constant": true,
      "inputs": [],
      "name": "MAX_AMOUNT",
      "outputs": [
        {
          "name": "",
          "type": "uint256"
        }
      ],
      "payable": false,
      "stateMutability": "view",
      "type": "function"
    },
    {
      "constant": true,
      "inputs": [
        {
          "name": "owner",
          "type": "address"
        },
        {
          "name": "spender",
          "type": "address"
        }
      ],
      "name": "allowance",
      "outputs": [
        {
          "name": "",
          "type": "uint256"
        }
      ],
      "payable": false,
      "stateMutability": "view",
      "type": "function"
    },
    {
      "constant": true,
      "inputs": [],
      "name": "MIN_AMOUNT",
      "outputs": [
        {
          "name": "",
          "type": "uint256"
        }
      ],
      "payable": false,
      "stateMutability": "view",
      "type": "function"
    },
    {
      "constant": false,
      "inputs": [
        {
          "name": "newOwner",
          "type": "address"
        }
      ],
      "name": "transferOwnership",
      "outputs": [],
      "payable": false,
      "stateMutability": "nonpayable",
      "type": "function"
    },
    {
      "inputs": [],
      "payable": false,
      "stateMutability": "nonpayable",
      "type": "constructor"
    },
    {
      "anonymous": false,
      "inputs": [
        {
          "indexed": true,
          "name": "previousOwner",
          "type": "address"
        },
        {
          "indexed": true,
          "name": "newOwner",
          "type": "address"
        }
      ],
      "name": "OwnershipTransferred",
      "type": "event"
    },
    {
      "anonymous": false,
      "inputs": [
        {
          "indexed": true,
          "name": "from",
          "type": "address"
        },
        {
          "indexed": true,
          "name": "to",
          "type": "address"
        },
        {
          "indexed": false,
          "name": "value",
          "type": "uint256"
        }
      ],
      "name": "Transfer",
      "type": "event"
    },
    {
      "anonymous": false,
      "inputs": [
        {
          "indexed": true,
          "name": "owner",
          "type": "address"
        },
        {
          "indexed": true,
          "name": "spender",
          "type": "address"
        },
        {
          "indexed": false,
          "name": "value",
          "type": "uint256"
        }
      ],
      "name": "Approval",
      "type": "event"
    },
    {
      "constant": false,
      "inputs": [
        {
          "name": "_nom",
          "type": "string"
        },
        {
          "name": "_pseudo",
          "type": "string"
        }
      ],
      "name": "creerGroupe",
      "outputs": [],
      "payable": true,
      "stateMutability": "payable",
      "type": "function"
    },
    {
      "constant": false,
      "inputs": [
        {
          "name": "_membre",
          "type": "address"
        },
        {
          "name": "_groupe",
          "type": "string"
        },
        {
          "name": "_pseudo",
          "type": "string"
        }
      ],
      "name": "ajouterMembre",
      "outputs": [],
      "payable": true,
      "stateMutability": "payable",
      "type": "function"
    },
    {
      "constant": false,
      "inputs": [
        {
          "name": "_montant",
          "type": "uint256"
        },
        {
          "name": "_pseudo",
          "type": "string"
        },
        {
          "name": "_contratCible",
          "type": "address"
        },
        {
          "name": "_description",
          "type": "string"
        }
      ],
      "name": "demander",
      "outputs": [],
      "payable": true,
      "stateMutability": "payable",
      "type": "function"
    },
    {
      "constant": false,
      "inputs": [
        {
          "name": "_pseudo",
          "type": "string"
        }
      ],
      "name": "payerCanal",
      "outputs": [],
      "payable": true,
      "stateMutability": "payable",
      "type": "function"
    },
    {
      "constant": false,
      "inputs": [
        {
          "name": "_pseudo",
          "type": "string"
        }
      ],
      "name": "fermetureCanal",
      "outputs": [],
      "payable": false,
      "stateMutability": "nonpayable",
      "type": "function"
    },
    {
      "constant": false,
      "inputs": [
        {
          "name": "_priceChannel",
          "type": "uint256"
        }
      ],
      "name": "modifierPriceChannel",
      "outputs": [],
      "payable": false,
      "stateMutability": "nonpayable",
      "type": "function"
    },
    {
      "constant": false,
      "inputs": [
        {
          "name": "_maxAmount",
          "type": "uint256"
        }
      ],
      "name": "modifierMaxAmount",
      "outputs": [],
      "payable": false,
      "stateMutability": "nonpayable",
      "type": "function"
    },
    {
      "constant": false,
      "inputs": [
        {
          "name": "_minAmount",
          "type": "uint256"
        }
      ],
      "name": "modifierMinAmount",
      "outputs": [],
      "payable": false,
      "stateMutability": "nonpayable",
      "type": "function"
    },
    {
      "constant": false,
      "inputs": [
        {
          "name": "_priceChannel",
          "type": "uint256"
        }
      ],
      "name": "modifierCharges",
      "outputs": [],
      "payable": false,
      "stateMutability": "nonpayable",
      "type": "function"
    },
    {
      "constant": false,
      "inputs": [
        {
          "name": "_priceGroup",
          "type": "uint256"
        }
      ],
      "name": "modifierPriceGroup",
      "outputs": [],
      "payable": false,
      "stateMutability": "nonpayable",
      "type": "function"
    },
    {
      "constant": false,
      "inputs": [
        {
          "name": "_priceMember",
          "type": "uint256"
        }
      ],
      "name": "modifierPriceMember",
      "outputs": [],
      "payable": false,
      "stateMutability": "nonpayable",
      "type": "function"
    },
    {
      "constant": true,
      "inputs": [],
      "name": "getGroupesPerAddress",
      "outputs": [
        {
          "name": "",
          "type": "uint256[]"
        }
      ],
      "payable": false,
      "stateMutability": "view",
      "type": "function"
    },
    {
      "constant": true,
      "inputs": [
        {
          "name": "_groupe",
          "type": "string"
        }
      ],
      "name": "getMembres",
      "outputs": [
        {
          "name": "",
          "type": "uint256[]"
        }
      ],
      "payable": false,
      "stateMutability": "view",
      "type": "function"
    },
    {
      "constant": true,
      "inputs": [
        {
          "name": "_pseudo",
          "type": "string"
        }
      ],
      "name": "getDescription",
      "outputs": [
        {
          "name": "",
          "type": "string"
        }
      ],
      "payable": false,
      "stateMutability": "view",
      "type": "function"
    },
    {
      "constant": true,
      "inputs": [
        {
          "name": "_ID",
          "type": "uint256"
        }
      ],
      "name": "getNomMembre",
      "outputs": [
        {
          "name": "",
          "type": "string"
        }
      ],
      "payable": false,
      "stateMutability": "view",
      "type": "function"
    },
    {
      "constant": true,
      "inputs": [
        {
          "name": "_pseudo",
          "type": "string"
        }
      ],
      "name": "getGroupe",
      "outputs": [
        {
          "name": "",
          "type": "string"
        }
      ],
      "payable": false,
      "stateMutability": "view",
      "type": "function"
    },
    {
      "constant": true,
      "inputs": [
        {
          "name": "_pseudo",
          "type": "string"
        }
      ],
      "name": "getMontant",
      "outputs": [
        {
          "name": "",
          "type": "uint256"
        }
      ],
      "payable": false,
      "stateMutability": "view",
      "type": "function"
    },
    {
      "constant": true,
      "inputs": [
        {
          "name": "_pseudo",
          "type": "string"
        }
      ],
      "name": "getEncours",
      "outputs": [
        {
          "name": "",
          "type": "uint256"
        }
      ],
      "payable": false,
      "stateMutability": "view",
      "type": "function"
    },
    {
      "constant": true,
      "inputs": [
        {
          "name": "_pseudo",
          "type": "string"
        }
      ],
      "name": "getDonnations",
      "outputs": [
        {
          "name": "",
          "type": "uint256"
        }
      ],
      "payable": false,
      "stateMutability": "view",
      "type": "function"
    },
    {
      "constant": true,
      "inputs": [
        {
          "name": "_pseudo",
          "type": "string"
        }
      ],
      "name": "getReceptions",
      "outputs": [
        {
          "name": "",
          "type": "uint256"
        }
      ],
      "payable": false,
      "stateMutability": "view",
      "type": "function"
    },
    {
      "constant": true,
      "inputs": [
        {
          "name": "_pseudo",
          "type": "string"
        }
      ],
      "name": "getContratCible",
      "outputs": [
        {
          "name": "",
          "type": "address"
        }
      ],
      "payable": false,
      "stateMutability": "view",
      "type": "function"
    },
    {
      "constant": true,
      "inputs": [
        {
          "name": "_ID",
          "type": "uint256"
        }
      ],
      "name": "getNomGroupe",
      "outputs": [
        {
          "name": "",
          "type": "string"
        }
      ],
      "payable": false,
      "stateMutability": "view",
      "type": "function"
    },
    {
      "constant": true,
      "inputs": [],
      "name": "getOwnedGroupe",
      "outputs": [
        {
          "name": "",
          "type": "uint256[]"
        }
      ],
      "payable": false,
      "stateMutability": "view",
      "type": "function"
    },
    {
      "constant": true,
      "inputs": [
        {
          "name": "_groupe",
          "type": "string"
        }
      ],
      "name": "getPseudoInGroup",
      "outputs": [
        {
          "name": "",
          "type": "string"
        }
      ],
      "payable": false,
      "stateMutability": "view",
      "type": "function"
    }
  ],
  "bytecode": "0x608060405234801561001057600080fd5b5033600360006101000a81548173ffffffffffffffffffffffffffffffffffffffff021916908373ffffffffffffffffffffffffffffffffffffffff160217905550655af3107a4000600f8190555061271060108190555060646011819055506103e86012819055506064601381905550600a6014819055506141cc806100986000396000f3fe60806040526004361061020f576000357c0100000000000000000000000000000000000000000000000000000000900463ffffffff16806306fdde0314610214578063095ea7b3146102a4578063175032661461031757806318160ddd146103525780631e0afe571461037d5780632055bd08146103e957806323b872dd1461052a578063283a2b46146105bd57806329c77347146107395780632a51becf14610856578063313ce56714610932578063370c29f91461096957806339509351146109a45780633c431d6a14610a175780634152299714610a4257806345de2ca014610af65780634a3f4a5d14610c375780634b7b03cf14610c625780634dc8872914610d165780635126670614610dde5780635743026414610e195780635f09355314610ef5578063639f849914610f3057806370a0823114610feb5780637aede272146110505780638da5cb5b146111915780638f333341146111e857806395d89b411461135a5780639d05e9ab146113ea578063a18b7c11146114c6578063a457c2d7146114f1578063a9059cbb14611564578063beaf3b0d146115d7578063d335c04314611612578063d40dc8701461163d578063d74b10a514611668578063dd62ed3e14611744578063ddbcb5fa146117c9578063e09c8136146117f4578063e7637a7d14611860578063f2fde38b14611968578063f4343df4146119b9578063f483977214611b0b575b600080fd5b34801561022057600080fd5b50610229611b46565b6040518080602001828103825283818151815260200191508051906020019080838360005b8381101561026957808201518184015260208101905061024e565b50505050905090810190601f1680156102965780820380516001836020036101000a031916815260200191505b509250505060405180910390f35b3480156102b057600080fd5b506102fd600480360360408110156102c757600080fd5b81019080803573ffffffffffffffffffffffffffffffffffffffff16906020019092919080359060200190929190505050611b7f565b604051808215151515815260200191505060405180910390f35b34801561032357600080fd5b506103506004803603602081101561033a57600080fd5b8101908080359060200190929190505050611b96565b005b34801561035e57600080fd5b50610367611bfc565b6040518082815260200191505060405180910390f35b34801561038957600080fd5b50610392611c06565b6040518080602001828103825283818151815260200191508051906020019060200280838360005b838110156103d55780820151818401526020810190506103ba565b505050509050019250505060405180910390f35b3480156103f557600080fd5b506104af6004803603602081101561040c57600080fd5b810190808035906020019064010000000081111561042957600080fd5b82018360208201111561043b57600080fd5b8035906020019184600183028401116401000000008311171561045d57600080fd5b91908080601f016020809104026020016040519081016040528093929190818152602001838380828437600081840152601f19601f820116905080830192505050505050509192919290505050611c9b565b6040518080602001828103825283818151815260200191508051906020019080838360005b838110156104ef5780820151818401526020810190506104d4565b50505050905090810190601f16801561051c5780820380516001836020036101000a031916815260200191505b509250505060405180910390f35b34801561053657600080fd5b506105a36004803603606081101561054d57600080fd5b81019080803573ffffffffffffffffffffffffffffffffffffffff169060200190929190803573ffffffffffffffffffffffffffffffffffffffff16906020019092919080359060200190929190505050611db4565b604051808215151515815260200191505060405180910390f35b610737600480360360808110156105d357600080fd5b8101908080359060200190929190803590602001906401000000008111156105fa57600080fd5b82018360208201111561060c57600080fd5b8035906020019184600183028401116401000000008311171561062e57600080fd5b91908080601f016020809104026020016040519081016040528093929190818152602001838380828437600081840152601f19601f820116905080830192505050505050509192919290803573ffffffffffffffffffffffffffffffffffffffff169060200190929190803590602001906401000000008111156106b157600080fd5b8201836020820111156106c357600080fd5b803590602001918460018302840111640100000000831117156106e557600080fd5b91908080601f016020809104026020016040519081016040528093929190818152602001838380828437600081840152601f19601f820116905080830192505050505050509192919290505050611e65565b005b34801561074557600080fd5b506107ff6004803603602081101561075c57600080fd5b810190808035906020019064010000000081111561077957600080fd5b82018360208201111561078b57600080fd5b803590602001918460018302840111640100000000831117156107ad57600080fd5b91908080601f016020809104026020016040519081016040528093929190818152602001838380828437600081840152601f19601f820116905080830192505050505050509192919290505050612011565b6040518080602001828103825283818151815260200191508051906020019060200280838360005b83811015610842578082015181840152602081019050610827565b505050509050019250505060405180910390f35b34801561086257600080fd5b5061091c6004803603602081101561087957600080fd5b810190808035906020019064010000000081111561089657600080fd5b8201836020820111156108a857600080fd5b803590602001918460018302840111640100000000831117156108ca57600080fd5b91908080601f016020809104026020016040519081016040528093929190818152602001838380828437600081840152601f19601f8201169050808301925050505050505091929192905050506120d4565b6040518082815260200191505060405180910390f35b34801561093e57600080fd5b5061094761215f565b604051808263ffffffff1663ffffffff16815260200191505060405180910390f35b34801561097557600080fd5b506109a26004803603602081101561098c57600080fd5b8101908080359060200190929190505050612164565b005b3480156109b057600080fd5b506109fd600480360360408110156109c757600080fd5b81019080803573ffffffffffffffffffffffffffffffffffffffff169060200190929190803590602001909291905050506121ca565b604051808215151515815260200191505060405180910390f35b348015610a2357600080fd5b50610a2c61226f565b6040518082815260200191505060405180910390f35b348015610a4e57600080fd5b50610a7b60048036036020811015610a6557600080fd5b8101908080359060200190929190505050612275565b6040518080602001828103825283818151815260200191508051906020019080838360005b83811015610abb578082015181840152602081019050610aa0565b50505050905090810190601f168015610ae85780820380516001836020036101000a031916815260200191505b509250505060405180910390f35b348015610b0257600080fd5b50610bbc60048036036020811015610b1957600080fd5b8101908080359060200190640100000000811115610b3657600080fd5b820183602082011115610b4857600080fd5b80359060200191846001830284011164010000000083111715610b6a57600080fd5b91908080601f016020809104026020016040519081016040528093929190818152602001838380828437600081840152601f19601f82011690508083019250505050505050919291929050505061232a565b6040518080602001828103825283818151815260200191508051906020019080838360005b83811015610bfc578082015181840152602081019050610be1565b50505050905090810190601f168015610c295780820380516001836020036101000a031916815260200191505b509250505060405180910390f35b348015610c4357600080fd5b50610c4c61244d565b6040518082815260200191505060405180910390f35b348015610c6e57600080fd5b50610c9b60048036036020811015610c8557600080fd5b8101908080359060200190929190505050612453565b6040518080602001828103825283818151815260200191508051906020019080838360005b83811015610cdb578082015181840152602081019050610cc0565b50505050905090810190601f168015610d085780820380516001836020036101000a031916815260200191505b509250505060405180910390f35b348015610d2257600080fd5b50610ddc60048036036020811015610d3957600080fd5b8101908080359060200190640100000000811115610d5657600080fd5b820183602082011115610d6857600080fd5b80359060200191846001830284011164010000000083111715610d8a57600080fd5b91908080601f016020809104026020016040519081016040528093929190818152602001838380828437600081840152601f19601f82011690508083019250505050505050919291929050505061250b565b005b348015610dea57600080fd5b50610e1760048036036020811015610e0157600080fd5b81019080803590602001909291905050506126db565b005b348015610e2557600080fd5b50610edf60048036036020811015610e3c57600080fd5b8101908080359060200190640100000000811115610e5957600080fd5b820183602082011115610e6b57600080fd5b80359060200191846001830284011164010000000083111715610e8d57600080fd5b91908080601f016020809104026020016040519081016040528093929190818152602001838380828437600081840152601f19601f820116905080830192505050505050509192919290505050612741565b6040518082815260200191505060405180910390f35b348015610f0157600080fd5b50610f2e60048036036020811015610f1857600080fd5b81019080803590602001909291905050506127cc565b005b610fe960048036036020811015610f4657600080fd5b8101908080359060200190640100000000811115610f6357600080fd5b820183602082011115610f7557600080fd5b80359060200191846001830284011164010000000083111715610f9757600080fd5b91908080601f016020809104026020016040519081016040528093929190818152602001838380828437600081840152601f19601f820116905080830192505050505050509192919290505050612832565b005b348015610ff757600080fd5b5061103a6004803603602081101561100e57600080fd5b81019080803573ffffffffffffffffffffffffffffffffffffffff169060200190929190505050612916565b6040518082815260200191505060405180910390f35b34801561105c57600080fd5b506111166004803603602081101561107357600080fd5b810190808035906020019064010000000081111561109057600080fd5b8201836020820111156110a257600080fd5b803590602001918460018302840111640100000000831117156110c457600080fd5b91908080601f016020809104026020016040519081016040528093929190818152602001838380828437600081840152601f19601f82011690508083019250505050505050919291929050505061295e565b6040518080602001828103825283818151815260200191508051906020019080838360005b8381101561115657808201518184015260208101905061113b565b50505050905090810190601f1680156111835780820380516001836020036101000a031916815260200191505b509250505060405180910390f35b34801561119d57600080fd5b506111a6612a81565b604051808273ffffffffffffffffffffffffffffffffffffffff1673ffffffffffffffffffffffffffffffffffffffff16815260200191505060405180910390f35b611358600480360360608110156111fe57600080fd5b81019080803573ffffffffffffffffffffffffffffffffffffffff1690602001909291908035906020019064010000000081111561123b57600080fd5b82018360208201111561124d57600080fd5b8035906020019184600183028401116401000000008311171561126f57600080fd5b91908080601f016020809104026020016040519081016040528093929190818152602001838380828437600081840152601f19601f820116905080830192505050505050509192919290803590602001906401000000008111156112d257600080fd5b8201836020820111156112e457600080fd5b8035906020019184600183028401116401000000008311171561130657600080fd5b91908080601f016020809104026020016040519081016040528093929190818152602001838380828437600081840152601f19601f820116905080830192505050505050509192919290505050612aa7565b005b34801561136657600080fd5b5061136f612e45565b6040518080602001828103825283818151815260200191508051906020019080838360005b838110156113af578082015181840152602081019050611394565b50505050905090810190601f1680156113dc5780820380516001836020036101000a031916815260200191505b509250505060405180910390f35b3480156113f657600080fd5b506114b06004803603602081101561140d57600080fd5b810190808035906020019064010000000081111561142a57600080fd5b82018360208201111561143c57600080fd5b8035906020019184600183028401116401000000008311171561145e57600080fd5b91908080601f016020809104026020016040519081016040528093929190818152602001838380828437600081840152601f19601f820116905080830192505050505050509192919290505050612e7e565b6040518082815260200191505060405180910390f35b3480156114d257600080fd5b506114db612f09565b6040518082815260200191505060405180910390f35b3480156114fd57600080fd5b5061154a6004803603604081101561151457600080fd5b81019080803573ffffffffffffffffffffffffffffffffffffffff16906020019092919080359060200190929190505050612f0f565b604051808215151515815260200191505060405180910390f35b34801561157057600080fd5b506115bd6004803603604081101561158757600080fd5b81019080803573ffffffffffffffffffffffffffffffffffffffff16906020019092919080359060200190929190505050612fb4565b604051808215151515815260200191505060405180910390f35b3480156115e357600080fd5b50611610600480360360208110156115fa57600080fd5b8101908080359060200190929190505050612fcb565b005b34801561161e57600080fd5b50611627613031565b6040518082815260200191505060405180910390f35b34801561164957600080fd5b50611652613037565b6040518082815260200191505060405180910390f35b34801561167457600080fd5b5061172e6004803603602081101561168b57600080fd5b81019080803590602001906401000000008111156116a857600080fd5b8201836020820111156116ba57600080fd5b803590602001918460018302840111640100000000831117156116dc57600080fd5b91908080601f016020809104026020016040519081016040528093929190818152602001838380828437600081840152601f19601f82011690508083019250505050505050919291929050505061303d565b6040518082815260200191505060405180910390f35b34801561175057600080fd5b506117b36004803603604081101561176757600080fd5b81019080803573ffffffffffffffffffffffffffffffffffffffff169060200190929190803573ffffffffffffffffffffffffffffffffffffffff1690602001909291905050506130c8565b6040518082815260200191505060405180910390f35b3480156117d557600080fd5b506117de61314f565b6040518082815260200191505060405180910390f35b34801561180057600080fd5b50611809613155565b6040518080602001828103825283818151815260200191508051906020019060200280838360005b8381101561184c578082015181840152602081019050611831565b505050509050019250505060405180910390f35b34801561186c57600080fd5b506119266004803603602081101561188357600080fd5b81019080803590602001906401000000008111156118a057600080fd5b8201836020820111156118b257600080fd5b803590602001918460018302840111640100000000831117156118d457600080fd5b91908080601f016020809104026020016040519081016040528093929190818152602001838380828437600081840152601f19601f8201169050808301925050505050505091929192905050506131ea565b604051808273ffffffffffffffffffffffffffffffffffffffff1673ffffffffffffffffffffffffffffffffffffffff16815260200191505060405180910390f35b34801561197457600080fd5b506119b76004803603602081101561198b57600080fd5b81019080803573ffffffffffffffffffffffffffffffffffffffff169060200190929190505050613295565b005b611b09600480360360408110156119cf57600080fd5b81019080803590602001906401000000008111156119ec57600080fd5b8201836020820111156119fe57600080fd5b80359060200191846001830284011164010000000083111715611a2057600080fd5b91908080601f016020809104026020016040519081016040528093929190818152602001838380828437600081840152601f19601f82011690508083019250505050505050919291929080359060200190640100000000811115611a8357600080fd5b820183602082011115611a9557600080fd5b80359060200191846001830284011164010000000083111715611ab757600080fd5b91908080601f016020809104026020016040519081016040528093929190818152602001838380828437600081840152601f19601f8201169050808301925050505050505091929192905050506133ed565b005b348015611b1757600080fd5b50611b4460048036036020811015611b2e57600080fd5b81019080803590602001909291905050506138ea565b005b6040805190810160405280600881526020017f67696d69636f696e00000000000000000000000000000000000000000000000081525081565b6000611b8c338484613950565b6001905092915050565b600360009054906101000a900473ffffffffffffffffffffffffffffffffffffffff1673ffffffffffffffffffffffffffffffffffffffff163373ffffffffffffffffffffffffffffffffffffffff16141515611bf257600080fd5b8060128190555050565b6000600254905090565b6060600560003373ffffffffffffffffffffffffffffffffffffffff1673ffffffffffffffffffffffffffffffffffffffff168152602001908152602001600020805480602002602001604051908101604052809291908181526020018280548015611c9157602002820191906000526020600020905b815481526020019060010190808311611c7d575b5050505050905090565b60606000828051906020012060019004905060046000600e600084815260200190815260200160002060003373ffffffffffffffffffffffffffffffffffffffff1673ffffffffffffffffffffffffffffffffffffffff1681526020019081526020016000205481526020019081526020016000206001018054600181600116156101000203166002900480601f016020809104026020016040519081016040528092919081815260200182805460018160011615610100020316600290048015611da75780601f10611d7c57610100808354040283529160200191611da7565b820191906000526020600020905b815481529060010190602001808311611d8a57829003601f168201915b5050505050915050919050565b6000611dc1848484613ab3565b611e5a8433611e5585600160008a73ffffffffffffffffffffffffffffffffffffffff1673ffffffffffffffffffffffffffffffffffffffff16815260200190815260200160002060003373ffffffffffffffffffffffffffffffffffffffff1673ffffffffffffffffffffffffffffffffffffffff16815260200190815260200160002054613c7f90919063ffffffff16565b613950565b600190509392505050565b3373ffffffffffffffffffffffffffffffffffffffff16600c846040518082805190602001908083835b602083101515611eb45780518252602082019150602081019050602083039250611e8f565b6001836020036101000a038019825116818451168082178552505050505050905001915050908152602001604051809103902060009054906101000a900473ffffffffffffffffffffffffffffffffffffffff1673ffffffffffffffffffffffffffffffffffffffff16141515611f2a57600080fd5b6000838051906020012060019004905060145434141515611f4a57600080fd5b60006004600083815260200190815260200160002060030154141515611f6f57600080fd5b846004600083815260200190815260200160002060030181905550826004600083815260200190815260200160002060070160006101000a81548173ffffffffffffffffffffffffffffffffffffffff021916908373ffffffffffffffffffffffffffffffffffffffff160217905550816004600083815260200190815260200160002060080190805190602001906120099291906140fb565b505050505050565b60606006826040518082805190602001908083835b60208310151561204b5780518252602082019150602081019050602083039250612026565b6001836020036101000a03801982511681845116808217855250505050505090500191505090815260200160405180910390208054806020026020016040519081016040528092919081815260200182805480156120c857602002820191906000526020600020905b8154815260200190600101908083116120b4575b50505050509050919050565b600060046000600d846040518082805190602001908083835b60208310151561211257805182526020820191506020810190506020830392506120ed565b6001836020036101000a0380198251168184511680821785525050505050509050019150509081526020016040518091039020548152602001908152602001600020600501549050919050565b601281565b600360009054906101000a900473ffffffffffffffffffffffffffffffffffffffff1673ffffffffffffffffffffffffffffffffffffffff163373ffffffffffffffffffffffffffffffffffffffff161415156121c057600080fd5b8060148190555050565b6000612265338461226085600160003373ffffffffffffffffffffffffffffffffffffffff1673ffffffffffffffffffffffffffffffffffffffff16815260200190815260200160002060008973ffffffffffffffffffffffffffffffffffffffff1673ffffffffffffffffffffffffffffffffffffffff16815260200190815260200160002054613c9890919063ffffffff16565b613950565b6001905092915050565b60115481565b6060600760008381526020019081526020016000208054600181600116156101000203166002900480601f01602080910402602001604051908101604052809291908181526020018280546001816001161561010002031660029004801561231e5780601f106122f35761010080835404028352916020019161231e565b820191906000526020600020905b81548152906001019060200180831161230157829003601f168201915b50505050509050919050565b606060046000600d846040518082805190602001908083835b6020831015156123685780518252602082019150602081019050602083039250612343565b6001836020036101000a03801982511681845116808217855250505050505090500191505090815260200160405180910390205481526020019081526020016000206008018054600181600116156101000203166002900480601f0160208091040260200160405190810160405280929190818152602001828054600181600116156101000203166002900480156124415780601f1061241657610100808354040283529160200191612441565b820191906000526020600020905b81548152906001019060200180831161242457829003601f168201915b50505050509050919050565b60125481565b6060600460008381526020019081526020016000206001018054600181600116156101000203166002900480601f0160208091040260200160405190810160405280929190818152602001828054600181600116156101000203166002900480156124ff5780601f106124d4576101008083540402835291602001916124ff565b820191906000526020600020905b8154815290600101906020018083116124e257829003601f168201915b50505050509050919050565b60008180519060200120600190049050600060046000838152602001908152602001600020600401541415151561254157600080fd5b3373ffffffffffffffffffffffffffffffffffffffff166004600083815260200190815260200160002060000160009054906101000a900473ffffffffffffffffffffffffffffffffffffffff1673ffffffffffffffffffffffffffffffffffffffff161415156125b157600080fd5b3373ffffffffffffffffffffffffffffffffffffffff166108fc60046000848152602001908152602001600020600401549081150290604051600060405180830381858888f1935050505015801561260d573d6000803e3d6000fd5b50600060046000838152602001908152602001600020600401819055506000600460008381526020019081526020016000206003018190555060006004600083815260200190815260200160002060070160006101000a81548173ffffffffffffffffffffffffffffffffffffffff021916908373ffffffffffffffffffffffffffffffffffffffff16021790555060206040519081016040528060008152506004600083815260200190815260200160002060080190805190602001906126d69291906140fb565b505050565b600360009054906101000a900473ffffffffffffffffffffffffffffffffffffffff1673ffffffffffffffffffffffffffffffffffffffff163373ffffffffffffffffffffffffffffffffffffffff1614151561273757600080fd5b8060118190555050565b600060046000600d846040518082805190602001908083835b60208310151561277f578051825260208201915060208101905060208303925061275a565b6001836020036101000a0380198251168184511680821785525050505050509050019150509081526020016040518091039020548152602001908152602001600020600601549050919050565b600360009054906101000a900473ffffffffffffffffffffffffffffffffffffffff1673ffffffffffffffffffffffffffffffffffffffff163373ffffffffffffffffffffffffffffffffffffffff1614151561282857600080fd5b8060138190555050565b600081805190602001206001900490506004600082815260200190815260200160002060040154600460008381526020019081526020016000206003015411151561287c57600080fd5b60006011543481151561288b57fe5b04905061289a33823401613cb6565b6000349050806004600085815260200190815260200160002060050160008282540192505081905550818103905080600460008581526020019081526020016000206006016000828254019250508190555080600460008581526020019081526020016000206004016000828254019250508190555050505050565b60008060008373ffffffffffffffffffffffffffffffffffffffff1673ffffffffffffffffffffffffffffffffffffffff168152602001908152602001600020549050919050565b606060046000600d846040518082805190602001908083835b60208310151561299c5780518252602082019150602081019050602083039250612977565b6001836020036101000a03801982511681845116808217855250505050505090500191505090815260200160405180910390205481526020019081526020016000206002018054600181600116156101000203166002900480601f016020809104026020016040519081016040528092919081815260200182805460018160011615610100020316600290048015612a755780601f10612a4a57610100808354040283529160200191612a75565b820191906000526020600020905b815481529060010190602001808311612a5857829003601f168201915b50505050509050919050565b600360009054906101000a900473ffffffffffffffffffffffffffffffffffffffff1681565b34601354141515612ab757600080fd5b600073ffffffffffffffffffffffffffffffffffffffff16600c826040518082805190602001908083835b602083101515612b075780518252602082019150602081019050602083039250612ae2565b6001836020036101000a038019825116818451168082178552505050505050905001915050908152602001604051809103902060009054906101000a900473ffffffffffffffffffffffffffffffffffffffff1673ffffffffffffffffffffffffffffffffffffffff16141515612b7d57600080fd5b3373ffffffffffffffffffffffffffffffffffffffff166009836040518082805190602001908083835b602083101515612bcc5780518252602082019150602081019050602083039250612ba7565b6001836020036101000a038019825116818451168082178552505050505050905001915050908152602001604051809103902060009054906101000a900473ffffffffffffffffffffffffffffffffffffffff1673ffffffffffffffffffffffffffffffffffffffff16141515612c4257600080fd5b82600c826040518082805190602001908083835b602083101515612c7b5780518252602082019150602081019050602083039250612c56565b6001836020036101000a038019825116818451168082178552505050505050905001915050908152602001604051809103902060006101000a81548173ffffffffffffffffffffffffffffffffffffffff021916908373ffffffffffffffffffffffffffffffffffffffff16021790555060008280519060200120600190049050600560008573ffffffffffffffffffffffffffffffffffffffff1673ffffffffffffffffffffffffffffffffffffffff168152602001908152602001600020819080600181540180825580915050906001820390600052602060002001600090919290919091505550600b836040518082805190602001908083835b602083101515612d9d5780518252602082019150602081019050602083039250612d78565b6001836020036101000a03801982511681845116808217855250505050505090500191505090815260200160405180910390208490806001815401808255809150509060018203906000526020600020016000909192909190916101000a81548173ffffffffffffffffffffffffffffffffffffffff021916908373ffffffffffffffffffffffffffffffffffffffff16021790555050612e3f828486613e0a565b50505050565b6040805190810160405280600381526020017f474d43000000000000000000000000000000000000000000000000000000000081525081565b600060046000600d846040518082805190602001908083835b602083101515612ebc5780518252602082019150602081019050602083039250612e97565b6001836020036101000a0380198251168184511680821785525050505050509050019150509081526020016040518091039020548152602001908152602001600020600401549050919050565b60145481565b6000612faa3384612fa585600160003373ffffffffffffffffffffffffffffffffffffffff1673ffffffffffffffffffffffffffffffffffffffff16815260200190815260200160002060008973ffffffffffffffffffffffffffffffffffffffff1673ffffffffffffffffffffffffffffffffffffffff16815260200190815260200160002054613c7f90919063ffffffff16565b613950565b6001905092915050565b6000612fc1338484613ab3565b6001905092915050565b600360009054906101000a900473ffffffffffffffffffffffffffffffffffffffff1673ffffffffffffffffffffffffffffffffffffffff163373ffffffffffffffffffffffffffffffffffffffff1614151561302757600080fd5b80600f8190555050565b60135481565b600f5481565b600060046000600d846040518082805190602001908083835b60208310151561307b5780518252602082019150602081019050602083039250613056565b6001836020036101000a0380198251168184511680821785525050505050509050019150509081526020016040518091039020548152602001908152602001600020600301549050919050565b6000600160008473ffffffffffffffffffffffffffffffffffffffff1673ffffffffffffffffffffffffffffffffffffffff16815260200190815260200160002060008373ffffffffffffffffffffffffffffffffffffffff1673ffffffffffffffffffffffffffffffffffffffff16815260200190815260200160002054905092915050565b60105481565b6060600860003373ffffffffffffffffffffffffffffffffffffffff1673ffffffffffffffffffffffffffffffffffffffff1681526020019081526020016000208054806020026020016040519081016040528092919081815260200182805480156131e057602002820191906000526020600020905b8154815260200190600101908083116131cc575b5050505050905090565b600060046000600d846040518082805190602001908083835b6020831015156132285780518252602082019150602081019050602083039250613203565b6001836020036101000a038019825116818451168082178552505050505050905001915050908152602001604051809103902054815260200190815260200160002060070160009054906101000a900473ffffffffffffffffffffffffffffffffffffffff169050919050565b600360009054906101000a900473ffffffffffffffffffffffffffffffffffffffff1673ffffffffffffffffffffffffffffffffffffffff163373ffffffffffffffffffffffffffffffffffffffff161415156132f157600080fd5b600073ffffffffffffffffffffffffffffffffffffffff168173ffffffffffffffffffffffffffffffffffffffff161415151561332d57600080fd5b8073ffffffffffffffffffffffffffffffffffffffff16600360009054906101000a900473ffffffffffffffffffffffffffffffffffffffff1673ffffffffffffffffffffffffffffffffffffffff167f8be0079c531659141344cd1fd0a4f28419497f9722a3daafe3b4186f6b6457e060405160405180910390a380600360006101000a81548173ffffffffffffffffffffffffffffffffffffffff021916908373ffffffffffffffffffffffffffffffffffffffff16021790555050565b346012541415156133fd57600080fd5b6000600a836040518082805190602001908083835b6020831015156134375780518252602082019150602081019050602083039250613412565b6001836020036101000a03801982511681845116808217855250505050505090500191505090815260200160405180910390205414151561347757600080fd5b600073ffffffffffffffffffffffffffffffffffffffff16600c826040518082805190602001908083835b6020831015156134c757805182526020820191506020810190506020830392506134a2565b6001836020036101000a038019825116818451168082178552505050505050905001915050908152602001604051809103902060009054906101000a900473ffffffffffffffffffffffffffffffffffffffff1673ffffffffffffffffffffffffffffffffffffffff1614151561353d57600080fd5b33600c826040518082805190602001908083835b6020831015156135765780518252602082019150602081019050602083039250613551565b6001836020036101000a038019825116818451168082178552505050505050905001915050908152602001604051809103902060006101000a81548173ffffffffffffffffffffffffffffffffffffffff021916908373ffffffffffffffffffffffffffffffffffffffff1602179055506000828051906020012060019004905080600a846040518082805190602001908083835b602083101515613630578051825260208201915060208101905060208303925061360b565b6001836020036101000a038019825116818451168082178552505050505050905001915050908152602001604051809103902081905550336009846040518082805190602001908083835b6020831015156136a0578051825260208201915060208101905060208303925061367b565b6001836020036101000a038019825116818451168082178552505050505050905001915050908152602001604051809103902060006101000a81548173ffffffffffffffffffffffffffffffffffffffff021916908373ffffffffffffffffffffffffffffffffffffffff160217905550600860003373ffffffffffffffffffffffffffffffffffffffff1673ffffffffffffffffffffffffffffffffffffffff168152602001908152602001600020819080600181540180825580915050906001820390600052602060002001600090919290919091505550826007600083815260200190815260200160002090805190602001906137a19291906140fb565b50600b836040518082805190602001908083835b6020831015156137da57805182526020820191506020810190506020830392506137b5565b6001836020036101000a03801982511681845116808217855250505050505090500191505090815260200160405180910390203390806001815401808255809150509060018203906000526020600020016000909192909190916101000a81548173ffffffffffffffffffffffffffffffffffffffff021916908373ffffffffffffffffffffffffffffffffffffffff16021790555050600560003373ffffffffffffffffffffffffffffffffffffffff1673ffffffffffffffffffffffffffffffffffffffff1681526020019081526020016000208190806001815401808255809150509060018203906000526020600020016000909192909190915055506138e5828433613e0a565b505050565b600360009054906101000a900473ffffffffffffffffffffffffffffffffffffffff1673ffffffffffffffffffffffffffffffffffffffff163373ffffffffffffffffffffffffffffffffffffffff1614151561394657600080fd5b8060108190555050565b600073ffffffffffffffffffffffffffffffffffffffff168273ffffffffffffffffffffffffffffffffffffffff161415151561398c57600080fd5b600073ffffffffffffffffffffffffffffffffffffffff168373ffffffffffffffffffffffffffffffffffffffff16141515156139c857600080fd5b80600160008573ffffffffffffffffffffffffffffffffffffffff1673ffffffffffffffffffffffffffffffffffffffff16815260200190815260200160002060008473ffffffffffffffffffffffffffffffffffffffff1673ffffffffffffffffffffffffffffffffffffffff168152602001908152602001600020819055508173ffffffffffffffffffffffffffffffffffffffff168373ffffffffffffffffffffffffffffffffffffffff167f8c5be1e5ebec7d5bd14f71427d1e84f3dd0314c0f7b2291e5b200ac8c7c3b925836040518082815260200191505060405180910390a3505050565b600073ffffffffffffffffffffffffffffffffffffffff168273ffffffffffffffffffffffffffffffffffffffff1614151515613aef57600080fd5b613b40816000808673ffffffffffffffffffffffffffffffffffffffff1673ffffffffffffffffffffffffffffffffffffffff16815260200190815260200160002054613c7f90919063ffffffff16565b6000808573ffffffffffffffffffffffffffffffffffffffff1673ffffffffffffffffffffffffffffffffffffffff16815260200190815260200160002081905550613bd3816000808573ffffffffffffffffffffffffffffffffffffffff1673ffffffffffffffffffffffffffffffffffffffff16815260200190815260200160002054613c9890919063ffffffff16565b6000808473ffffffffffffffffffffffffffffffffffffffff1673ffffffffffffffffffffffffffffffffffffffff168152602001908152602001600020819055508173ffffffffffffffffffffffffffffffffffffffff168373ffffffffffffffffffffffffffffffffffffffff167fddf252ad1be2c89b69c2b068fc378daa952ba7f163c4a11628f55a4df523b3ef836040518082815260200191505060405180910390a3505050565b6000828211151515613c8d57fe5b818303905092915050565b6000808284019050838110151515613cac57fe5b8091505092915050565b600073ffffffffffffffffffffffffffffffffffffffff168273ffffffffffffffffffffffffffffffffffffffff1614151515613cf257600080fd5b613d0781600254613c9890919063ffffffff16565b600281905550613d5e816000808573ffffffffffffffffffffffffffffffffffffffff1673ffffffffffffffffffffffffffffffffffffffff16815260200190815260200160002054613c9890919063ffffffff16565b6000808473ffffffffffffffffffffffffffffffffffffffff1673ffffffffffffffffffffffffffffffffffffffff168152602001908152602001600020819055508173ffffffffffffffffffffffffffffffffffffffff16600073ffffffffffffffffffffffffffffffffffffffff167fddf252ad1be2c89b69c2b068fc378daa952ba7f163c4a11628f55a4df523b3ef836040518082815260200191505060405180910390a35050565b60008380519060200120600190049050600083805190602001206001900490508273ffffffffffffffffffffffffffffffffffffffff16600c866040518082805190602001908083835b602083101515613e795780518252602082019150602081019050602083039250613e54565b6001836020036101000a038019825116818451168082178552505050505050905001915050908152602001604051809103902060009054906101000a900473ffffffffffffffffffffffffffffffffffffffff1673ffffffffffffffffffffffffffffffffffffffff16141515613eef57600080fd5b84600460008481526020019081526020016000206001019080519060200190613f199291906140fb565b5083600460008481526020019081526020016000206002019080519060200190613f449291906140fb565b50336004600084815260200190815260200160002060000160006101000a81548173ffffffffffffffffffffffffffffffffffffffff021916908373ffffffffffffffffffffffffffffffffffffffff1602179055506006846040518082805190602001908083835b602083101515613fd25780518252602082019150602081019050602083039250613fad565b6001836020036101000a038019825116818451168082178552505050505050905001915050908152602001604051809103902082908060018154018082558091505090600182039060005260206000200160009091929091909150555081600d866040518082805190602001908083835b6020831015156140685780518252602082019150602081019050602083039250614043565b6001836020036101000a03801982511681845116808217855250505050505090500191505090815260200160405180910390208190555081600e600083815260200190815260200160002060003373ffffffffffffffffffffffffffffffffffffffff1673ffffffffffffffffffffffffffffffffffffffff168152602001908152602001600020819055505050505050565b828054600181600116156101000203166002900490600052602060002090601f016020900481019282601f1061413c57805160ff191683800117855561416a565b8280016001018555821561416a579182015b8281111561416957825182559160200191906001019061414e565b5b509050614177919061417b565b5090565b61419d91905b80821115614199576000816000905550600101614181565b5090565b9056fea165627a7a723058207bd09dc10ddce6e83b4bc1dff4f09d78c11cd3bca94ed58f60bc3e550b64e6f90029",
  "source": "pragma solidity ^0.5.0;\n\nimport \"./Gimicoin.sol\";\nimport \"./Ownable.sol\";\n\ncontract Cagnottes is Gimicoin, Ownable{\n\nmapping (uint => channel) private mappChannel;\nmapping (address => uint[]) private mappGroupesForAddress;\nmapping (string => uint[]) private mappGroupeAndChannels;\nmapping (uint => string) private mappIDGroupe;\nmapping (address => uint[]) private mappOwnedGroup;\nmapping (string => address) private mappGroupeOwner;\nmapping (string => uint) private mappNomGroupe;\nmapping (string => address[]) private mappGroupe;\nmapping (string => address) private mappPseudo;\nmapping (string => uint) private mappPseudoToID;\nmapping (uint => mapping (address => uint)) private mappPseudoInGroup;\n\nuint public MAX_AMOUNT;\nuint public MIN_AMOUNT;\nuint public PRICE_RATIO;\nuint public PRICE_GROUP;\nuint public PRICE_MEMBRE;\nuint public PRICE_CHANEL;\n\nstruct channel\n{\n  address demandeur;\n  string pseudo;\n  string groupe;\n  uint montant;\n  uint enCours;\n  uint donnations;\n  uint receptions;\n  address contratCible;\n  string description;\n}\n\nconstructor() public\n{\n  MAX_AMOUNT = 100000000000000;\n  MIN_AMOUNT = 10000;\n  PRICE_RATIO = 100;\n  PRICE_GROUP = 1000;\n  PRICE_MEMBRE = 100;\n  PRICE_CHANEL = 10;\n}\n\nfunction creerGroupe(string memory _nom, string memory _pseudo) payable public\n{\n  require(PRICE_GROUP == msg.value);\n  require(mappNomGroupe[_nom] == 0);\n  require(mappPseudo[_pseudo] == address(0));\n  mappPseudo[_pseudo] = msg.sender;\n  uint IDGroupe = uint(keccak256(bytes(_nom)));\n  mappNomGroupe[_nom] = IDGroupe;\n  mappGroupeOwner[_nom] = msg.sender;\n  mappOwnedGroup[msg.sender].push(IDGroupe);\n  mappIDGroupe[IDGroupe] = _nom;\n  mappGroupe[_nom].push(msg.sender);\n  mappGroupesForAddress[msg.sender].push(IDGroupe);\n  creerCanal(_pseudo, _nom, msg.sender);\n}\n\nfunction ajouterMembre(address _membre, string memory _groupe, string memory _pseudo) payable public\n{\n  require(PRICE_MEMBRE == msg.value);\n  require(mappPseudo[_pseudo] == address(0));\n  require(mappGroupeOwner[_groupe] == msg.sender);\n  mappPseudo[_pseudo] = _membre;\n  uint IDGroupe = uint(keccak256(bytes(_groupe)));\n  mappGroupesForAddress[_membre].push(IDGroupe);\n  mappGroupe[_groupe].push(_membre);\n  creerCanal(_pseudo, _groupe, _membre);\n}\n\nfunction creerCanal(string memory _pseudo, string memory _groupe, address _membre) private\n{\n  uint channelID = uint(keccak256(bytes(_pseudo)));\n  uint groupeID = uint(keccak256(bytes(_groupe)));\n  require(mappPseudo[_pseudo] == _membre);\n  mappChannel[channelID].pseudo = _pseudo;\n  mappChannel[channelID].groupe = _groupe;\n  mappChannel[channelID].demandeur = msg.sender;\n  mappGroupeAndChannels[_groupe].push(channelID);\n  mappPseudoToID[_pseudo] = channelID;\n  mappPseudoInGroup[groupeID][msg.sender] = channelID;\n}\n\nfunction demander(uint _montant, string memory _pseudo, address _contratCible, string memory _description) payable public\n{\n  require(mappPseudo[_pseudo] == msg.sender);\n  uint channelID = uint(keccak256(bytes(_pseudo)));\n  require(msg.value == PRICE_CHANEL);\n  require(mappChannel[channelID].montant == 0);\n  mappChannel[channelID].montant = _montant;\n  mappChannel[channelID].contratCible = _contratCible;\n  mappChannel[channelID].description = _description;\n}\n\nfunction payerCanal(string memory _pseudo) public payable\n{\n  uint _channelID = uint(keccak256(bytes(_pseudo)));\n  require(mappChannel[_channelID].montant > mappChannel[_channelID].enCours);\n  uint fees = uint(msg.value / PRICE_RATIO);\n  _mint(msg.sender,msg.value + fees);\n  uint addValue = msg.value;\n  mappChannel[_channelID].donnations += addValue;\n  addValue -= fees;\n  mappChannel[_channelID].receptions += addValue;\n  mappChannel[_channelID].enCours += addValue;\n}\n\nfunction fermetureCanal(string memory _pseudo) public\n{\n  uint _channelID = uint(keccak256(bytes(_pseudo)));\n  require(mappChannel[_channelID].enCours != 0);\n  require(mappChannel[_channelID].demandeur == msg.sender);\n  msg.sender.transfer(mappChannel[_channelID].enCours);\n  mappChannel[_channelID].enCours = 0;\n  mappChannel[_channelID].montant = 0;\n  mappChannel[_channelID].contratCible = address(0);\n  mappChannel[_channelID].description = \"\";\n}\n\nfunction modifierPriceChannel(uint _priceChannel) public onlyOwner\n{\n  PRICE_CHANEL = _priceChannel;\n}\n\nfunction modifierMaxAmount(uint _maxAmount) public onlyOwner\n{\n  MAX_AMOUNT = _maxAmount;\n}\n\nfunction modifierMinAmount(uint _minAmount) public onlyOwner\n{\n  MIN_AMOUNT = _minAmount;\n}\n\nfunction modifierCharges(uint _priceChannel) public onlyOwner\n{\n  PRICE_RATIO = _priceChannel;\n}\n\nfunction modifierPriceGroup(uint _priceGroup) public onlyOwner\n{\n  PRICE_GROUP = _priceGroup;\n}\n\nfunction modifierPriceMember(uint _priceMember) public onlyOwner\n{\n  PRICE_MEMBRE = _priceMember;\n}\n\nfunction getGroupesPerAddress() public view returns (uint[] memory)\n{\n  return mappGroupesForAddress[msg.sender];\n}\n\nfunction getMembres(string memory _groupe) public view returns (uint[] memory)\n{\n  return mappGroupeAndChannels[_groupe];\n}\n\nfunction getDescription(string memory _pseudo) public view returns (string memory)\n{\n  return mappChannel[mappPseudoToID[_pseudo]].description;\n}\n\nfunction getNomMembre(uint _ID) public view returns (string memory)\n{\n  return mappChannel[_ID].pseudo;\n}\n\nfunction getGroupe(string memory _pseudo) public view returns (string memory)\n{\n  return mappChannel[mappPseudoToID[_pseudo]].groupe;\n}\n\nfunction getMontant(string memory _pseudo) public view returns (uint)\n{\n  return mappChannel[mappPseudoToID[_pseudo]].montant;\n}\n\nfunction getEncours(string memory _pseudo) public view returns (uint)\n{\n  return mappChannel[mappPseudoToID[_pseudo]].enCours;\n}\n\nfunction getDonnations(string memory _pseudo) public view returns (uint)\n{\n  return mappChannel[mappPseudoToID[_pseudo]].donnations;\n}\n\nfunction getReceptions(string memory _pseudo) public view returns (uint)\n{\n  return mappChannel[mappPseudoToID[_pseudo]].receptions;\n}\n\nfunction getContratCible(string memory _pseudo) public view returns (address)\n{\n  return mappChannel[mappPseudoToID[_pseudo]].contratCible;\n}\n\nfunction getNomGroupe(uint _ID) public view returns (string memory)\n{\n  return mappIDGroupe[_ID];\n}\n\nfunction getOwnedGroupe() public view returns (uint[] memory)\n{\n  return mappOwnedGroup[msg.sender];\n}\n\nfunction getPseudoInGroup(string memory _groupe) public view returns (string memory)\n{\n  uint IDGroupe = uint(keccak256(bytes(_groupe)));\n  return mappChannel[mappPseudoInGroup[IDGroupe][msg.sender]].pseudo;\n}\n\n}\n",
  "sourcePath": "/Users/germaindacunha/Desktop/Alyra/project/Ether-Union/contracts/Cagnottes.sol",
  "compiler": {
    "name": "solc",
    "version": "0.5.0+commit.1d4f565a.Emscripten.clang"
  },
  "schemaVersion": "3.0.2",
  "updatedAt": "2019-03-28T01:23:15.277Z",
  "devdoc": {
    "methods": {
      "allowance(address,address)": {
        "details": "Function to check the amount of tokens that an owner allowed to a spender.",
        "params": {
          "owner": "address The address which owns the funds.",
          "spender": "address The address which will spend the funds."
        },
        "return": "A uint256 specifying the amount of tokens still available for the spender."
      },
      "approve(address,uint256)": {
        "details": "Approve the passed address to spend the specified amount of tokens on behalf of msg.sender. Beware that changing an allowance with this method brings the risk that someone may use both the old and the new allowance by unfortunate transaction ordering. One possible solution to mitigate this race condition is to first reduce the spender's allowance to 0 and set the desired value afterwards: https://github.com/ethereum/EIPs/issues/20#issuecomment-263524729",
        "params": {
          "spender": "The address which will spend the funds.",
          "value": "The amount of tokens to be spent."
        }
      },
      "balanceOf(address)": {
        "details": "Gets the balance of the specified address.",
        "params": {
          "owner": "The address to query the balance of."
        },
        "return": "A uint256 representing the amount owned by the passed address."
      },
      "decreaseAllowance(address,uint256)": {
        "details": "Decrease the amount of tokens that an owner allowed to a spender. approve should be called when _allowed[msg.sender][spender] == 0. To decrement allowed value is better to use this function to avoid 2 calls (and wait until the first transaction is mined) From MonolithDAO Token.sol Emits an Approval event.",
        "params": {
          "spender": "The address which will spend the funds.",
          "subtractedValue": "The amount of tokens to decrease the allowance by."
        }
      },
      "increaseAllowance(address,uint256)": {
        "details": "Increase the amount of tokens that an owner allowed to a spender. approve should be called when _allowed[msg.sender][spender] == 0. To increment allowed value is better to use this function to avoid 2 calls (and wait until the first transaction is mined) From MonolithDAO Token.sol Emits an Approval event.",
        "params": {
          "addedValue": "The amount of tokens to increase the allowance by.",
          "spender": "The address which will spend the funds."
        }
      },
      "totalSupply()": {
        "details": "Total number of tokens in existence"
      },
      "transfer(address,uint256)": {
        "details": "Transfer token to a specified address",
        "params": {
          "to": "The address to transfer to.",
          "value": "The amount to be transferred."
        }
      },
      "transferFrom(address,address,uint256)": {
        "details": "Transfer tokens from one address to another. Note that while this function emits an Approval event, this is not required as per the specification, and other compliant implementations may not emit the event.",
        "params": {
          "from": "address The address which you want to send tokens from",
          "to": "address The address which you want to transfer to",
          "value": "uint256 the amount of tokens to be transferred"
        }
      },
      "transferOwnership(address)": {
        "details": "Allows the current owner to transfer control of the contract to a newOwner.",
        "params": {
          "newOwner": "The address to transfer ownership to."
        }
      }
    }
  },
  "userdoc": {
    "methods": {}
  }
}