{
  "contractName": "Cagnottes",
  "abi": [
    {
      "constant": true,
      "inputs": [],
      "name": "name",
      "outputs": [
        {
          "name": "",
          "type": "string"
        }
      ],
      "payable": false,
      "stateMutability": "view",
      "type": "function"
    },
    {
      "constant": false,
      "inputs": [
        {
          "name": "spender",
          "type": "address"
        },
        {
          "name": "value",
          "type": "uint256"
        }
      ],
      "name": "approve",
      "outputs": [
        {
          "name": "",
          "type": "bool"
        }
      ],
      "payable": false,
      "stateMutability": "nonpayable",
      "type": "function"
    },
    {
      "constant": true,
      "inputs": [],
      "name": "totalSupply",
      "outputs": [
        {
          "name": "",
          "type": "uint256"
        }
      ],
      "payable": false,
      "stateMutability": "view",
      "type": "function"
    },
    {
      "constant": false,
      "inputs": [
        {
          "name": "from",
          "type": "address"
        },
        {
          "name": "to",
          "type": "address"
        },
        {
          "name": "value",
          "type": "uint256"
        }
      ],
      "name": "transferFrom",
      "outputs": [
        {
          "name": "",
          "type": "bool"
        }
      ],
      "payable": false,
      "stateMutability": "nonpayable",
      "type": "function"
    },
    {
      "constant": true,
      "inputs": [],
      "name": "decimals",
      "outputs": [
        {
          "name": "",
          "type": "uint32"
        }
      ],
      "payable": false,
      "stateMutability": "view",
      "type": "function"
    },
    {
      "constant": false,
      "inputs": [
        {
          "name": "spender",
          "type": "address"
        },
        {
          "name": "addedValue",
          "type": "uint256"
        }
      ],
      "name": "increaseAllowance",
      "outputs": [
        {
          "name": "",
          "type": "bool"
        }
      ],
      "payable": false,
      "stateMutability": "nonpayable",
      "type": "function"
    },
    {
      "constant": true,
      "inputs": [],
      "name": "PRICE_RATIO",
      "outputs": [
        {
          "name": "",
          "type": "uint256"
        }
      ],
      "payable": false,
      "stateMutability": "view",
      "type": "function"
    },
    {
      "constant": true,
      "inputs": [],
      "name": "PRICE_GROUP",
      "outputs": [
        {
          "name": "",
          "type": "uint256"
        }
      ],
      "payable": false,
      "stateMutability": "view",
      "type": "function"
    },
    {
      "constant": true,
      "inputs": [
        {
          "name": "owner",
          "type": "address"
        }
      ],
      "name": "balanceOf",
      "outputs": [
        {
          "name": "",
          "type": "uint256"
        }
      ],
      "payable": false,
      "stateMutability": "view",
      "type": "function"
    },
    {
      "constant": true,
      "inputs": [],
      "name": "owner",
      "outputs": [
        {
          "name": "",
          "type": "address"
        }
      ],
      "payable": false,
      "stateMutability": "view",
      "type": "function"
    },
    {
      "constant": true,
      "inputs": [],
      "name": "symbol",
      "outputs": [
        {
          "name": "",
          "type": "string"
        }
      ],
      "payable": false,
      "stateMutability": "view",
      "type": "function"
    },
    {
      "constant": true,
      "inputs": [],
      "name": "PRICE_CHANEL",
      "outputs": [
        {
          "name": "",
          "type": "uint256"
        }
      ],
      "payable": false,
      "stateMutability": "view",
      "type": "function"
    },
    {
      "constant": false,
      "inputs": [
        {
          "name": "spender",
          "type": "address"
        },
        {
          "name": "subtractedValue",
          "type": "uint256"
        }
      ],
      "name": "decreaseAllowance",
      "outputs": [
        {
          "name": "",
          "type": "bool"
        }
      ],
      "payable": false,
      "stateMutability": "nonpayable",
      "type": "function"
    },
    {
      "constant": false,
      "inputs": [
        {
          "name": "to",
          "type": "address"
        },
        {
          "name": "value",
          "type": "uint256"
        }
      ],
      "name": "transfer",
      "outputs": [
        {
          "name": "",
          "type": "bool"
        }
      ],
      "payable": false,
      "stateMutability": "nonpayable",
      "type": "function"
    },
    {
      "constant": true,
      "inputs": [],
      "name": "PRICE_MEMBRE",
      "outputs": [
        {
          "name": "",
          "type": "uint256"
        }
      ],
      "payable": false,
      "stateMutability": "view",
      "type": "function"
    },
    {
      "constant": true,
      "inputs": [],
      "name": "MAX_AMOUNT",
      "outputs": [
        {
          "name": "",
          "type": "uint256"
        }
      ],
      "payable": false,
      "stateMutability": "view",
      "type": "function"
    },
    {
      "constant": true,
      "inputs": [
        {
          "name": "owner",
          "type": "address"
        },
        {
          "name": "spender",
          "type": "address"
        }
      ],
      "name": "allowance",
      "outputs": [
        {
          "name": "",
          "type": "uint256"
        }
      ],
      "payable": false,
      "stateMutability": "view",
      "type": "function"
    },
    {
      "constant": true,
      "inputs": [],
      "name": "MIN_AMOUNT",
      "outputs": [
        {
          "name": "",
          "type": "uint256"
        }
      ],
      "payable": false,
      "stateMutability": "view",
      "type": "function"
    },
    {
      "constant": true,
      "inputs": [],
      "name": "LOTTERY_CAGNOTTE",
      "outputs": [
        {
          "name": "",
          "type": "uint256"
        }
      ],
      "payable": false,
      "stateMutability": "view",
      "type": "function"
    },
    {
      "constant": false,
      "inputs": [
        {
          "name": "newOwner",
          "type": "address"
        }
      ],
      "name": "transferOwnership",
      "outputs": [],
      "payable": false,
      "stateMutability": "nonpayable",
      "type": "function"
    },
    {
      "inputs": [],
      "payable": false,
      "stateMutability": "nonpayable",
      "type": "constructor"
    },
    {
      "anonymous": false,
      "inputs": [
        {
          "indexed": true,
          "name": "previousOwner",
          "type": "address"
        },
        {
          "indexed": true,
          "name": "newOwner",
          "type": "address"
        }
      ],
      "name": "OwnershipTransferred",
      "type": "event"
    },
    {
      "anonymous": false,
      "inputs": [
        {
          "indexed": true,
          "name": "from",
          "type": "address"
        },
        {
          "indexed": true,
          "name": "to",
          "type": "address"
        },
        {
          "indexed": false,
          "name": "value",
          "type": "uint256"
        }
      ],
      "name": "Transfer",
      "type": "event"
    },
    {
      "anonymous": false,
      "inputs": [
        {
          "indexed": true,
          "name": "owner",
          "type": "address"
        },
        {
          "indexed": true,
          "name": "spender",
          "type": "address"
        },
        {
          "indexed": false,
          "name": "value",
          "type": "uint256"
        }
      ],
      "name": "Approval",
      "type": "event"
    },
    {
      "constant": false,
      "inputs": [
        {
          "name": "_nom",
          "type": "string"
        },
        {
          "name": "_pseudo",
          "type": "string"
        }
      ],
      "name": "creerGroupe",
      "outputs": [],
      "payable": true,
      "stateMutability": "payable",
      "type": "function"
    },
    {
      "constant": false,
      "inputs": [
        {
          "name": "_membre",
          "type": "address"
        },
        {
          "name": "_groupe",
          "type": "string"
        },
        {
          "name": "_pseudo",
          "type": "string"
        }
      ],
      "name": "ajouterMembre",
      "outputs": [],
      "payable": true,
      "stateMutability": "payable",
      "type": "function"
    },
    {
      "constant": false,
      "inputs": [
        {
          "name": "_montant",
          "type": "uint256"
        },
        {
          "name": "_pseudo",
          "type": "string"
        },
        {
          "name": "_contratCible",
          "type": "address"
        },
        {
          "name": "_description",
          "type": "string"
        }
      ],
      "name": "demander",
      "outputs": [],
      "payable": true,
      "stateMutability": "payable",
      "type": "function"
    },
    {
      "constant": false,
      "inputs": [
        {
          "name": "_pseudo",
          "type": "string"
        }
      ],
      "name": "payerCanal",
      "outputs": [],
      "payable": true,
      "stateMutability": "payable",
      "type": "function"
    },
    {
      "constant": false,
      "inputs": [
        {
          "name": "_pseudo",
          "type": "string"
        }
      ],
      "name": "fermetureCanal",
      "outputs": [],
      "payable": false,
      "stateMutability": "nonpayable",
      "type": "function"
    },
    {
      "constant": false,
      "inputs": [
        {
          "name": "_priceChannel",
          "type": "uint256"
        }
      ],
      "name": "modifierPriceChannel",
      "outputs": [],
      "payable": false,
      "stateMutability": "nonpayable",
      "type": "function"
    },
    {
      "constant": false,
      "inputs": [
        {
          "name": "_maxAmount",
          "type": "uint256"
        }
      ],
      "name": "modifierMaxAmount",
      "outputs": [],
      "payable": false,
      "stateMutability": "nonpayable",
      "type": "function"
    },
    {
      "constant": false,
      "inputs": [
        {
          "name": "_minAmount",
          "type": "uint256"
        }
      ],
      "name": "modifierMinAmount",
      "outputs": [],
      "payable": false,
      "stateMutability": "nonpayable",
      "type": "function"
    },
    {
      "constant": false,
      "inputs": [
        {
          "name": "_priceChannel",
          "type": "uint256"
        }
      ],
      "name": "modifierCharges",
      "outputs": [],
      "payable": false,
      "stateMutability": "nonpayable",
      "type": "function"
    },
    {
      "constant": false,
      "inputs": [
        {
          "name": "_priceGroup",
          "type": "uint256"
        }
      ],
      "name": "modifierPriceGroup",
      "outputs": [],
      "payable": false,
      "stateMutability": "nonpayable",
      "type": "function"
    },
    {
      "constant": false,
      "inputs": [
        {
          "name": "_priceMember",
          "type": "uint256"
        }
      ],
      "name": "modifierPriceMember",
      "outputs": [],
      "payable": false,
      "stateMutability": "nonpayable",
      "type": "function"
    },
    {
      "constant": true,
      "inputs": [],
      "name": "getGroupesPerAddress",
      "outputs": [
        {
          "name": "",
          "type": "uint256[]"
        }
      ],
      "payable": false,
      "stateMutability": "view",
      "type": "function"
    },
    {
      "constant": true,
      "inputs": [
        {
          "name": "_groupe",
          "type": "string"
        }
      ],
      "name": "getMembres",
      "outputs": [
        {
          "name": "",
          "type": "uint256[]"
        }
      ],
      "payable": false,
      "stateMutability": "view",
      "type": "function"
    },
    {
      "constant": true,
      "inputs": [
        {
          "name": "_pseudo",
          "type": "string"
        }
      ],
      "name": "getDescription",
      "outputs": [
        {
          "name": "",
          "type": "string"
        }
      ],
      "payable": false,
      "stateMutability": "view",
      "type": "function"
    },
    {
      "constant": true,
      "inputs": [
        {
          "name": "_ID",
          "type": "uint256"
        }
      ],
      "name": "getNomMembre",
      "outputs": [
        {
          "name": "",
          "type": "string"
        }
      ],
      "payable": false,
      "stateMutability": "view",
      "type": "function"
    },
    {
      "constant": true,
      "inputs": [
        {
          "name": "_pseudo",
          "type": "string"
        }
      ],
      "name": "getGroupe",
      "outputs": [
        {
          "name": "",
          "type": "string"
        }
      ],
      "payable": false,
      "stateMutability": "view",
      "type": "function"
    },
    {
      "constant": true,
      "inputs": [
        {
          "name": "_pseudo",
          "type": "string"
        }
      ],
      "name": "getMontant",
      "outputs": [
        {
          "name": "",
          "type": "uint256"
        }
      ],
      "payable": false,
      "stateMutability": "view",
      "type": "function"
    },
    {
      "constant": true,
      "inputs": [
        {
          "name": "_pseudo",
          "type": "string"
        }
      ],
      "name": "getEncours",
      "outputs": [
        {
          "name": "",
          "type": "uint256"
        }
      ],
      "payable": false,
      "stateMutability": "view",
      "type": "function"
    },
    {
      "constant": true,
      "inputs": [
        {
          "name": "_pseudo",
          "type": "string"
        }
      ],
      "name": "getDonnations",
      "outputs": [
        {
          "name": "",
          "type": "uint256"
        }
      ],
      "payable": false,
      "stateMutability": "view",
      "type": "function"
    },
    {
      "constant": true,
      "inputs": [
        {
          "name": "_pseudo",
          "type": "string"
        }
      ],
      "name": "getReceptions",
      "outputs": [
        {
          "name": "",
          "type": "uint256"
        }
      ],
      "payable": false,
      "stateMutability": "view",
      "type": "function"
    },
    {
      "constant": true,
      "inputs": [
        {
          "name": "_pseudo",
          "type": "string"
        }
      ],
      "name": "getContratCible",
      "outputs": [
        {
          "name": "",
          "type": "address"
        }
      ],
      "payable": false,
      "stateMutability": "view",
      "type": "function"
    },
    {
      "constant": true,
      "inputs": [
        {
          "name": "_ID",
          "type": "uint256"
        }
      ],
      "name": "getNomGroupe",
      "outputs": [
        {
          "name": "",
          "type": "string"
        }
      ],
      "payable": false,
      "stateMutability": "view",
      "type": "function"
    },
    {
      "constant": true,
      "inputs": [],
      "name": "getOwnedGroupe",
      "outputs": [
        {
          "name": "",
          "type": "uint256[]"
        }
      ],
      "payable": false,
      "stateMutability": "view",
      "type": "function"
    },
    {
      "constant": true,
      "inputs": [
        {
          "name": "_groupe",
          "type": "string"
        }
      ],
      "name": "getPseudoInGroup",
      "outputs": [
        {
          "name": "",
          "type": "string"
        }
      ],
      "payable": false,
      "stateMutability": "view",
      "type": "function"
    },
    {
      "constant": false,
      "inputs": [
        {
          "name": "_montant",
          "type": "uint256"
        }
      ],
      "name": "withdrawCash",
      "outputs": [],
      "payable": false,
      "stateMutability": "nonpayable",
      "type": "function"
    }
  ],
  "bytecode": "0x608060405234801561001057600080fd5b5033600360006101000a81548173ffffffffffffffffffffffffffffffffffffffff021916908373ffffffffffffffffffffffffffffffffffffffff160217905550678ac7230489e80000600e8190555062989680600f819055506064601081905550620186a06011819055506127106012819055506103e86013819055506141968061009e6000396000f3fe608060405260043610610225576000357c0100000000000000000000000000000000000000000000000000000000900463ffffffff16806306fdde031461022a578063095ea7b3146102ba578063175032661461032d57806318160ddd146103685780631e0afe57146103935780632055bd08146103ff57806323b872dd14610540578063283a2b46146105d357806329c773471461074f5780632a51becf1461086c578063313ce56714610948578063370c29f91461097f57806339509351146109ba5780633c431d6a14610a2d5780634152299714610a5857806345de2ca014610b0c5780634a3f4a5d14610c4d5780634b7b03cf14610c785780634dc8872914610d2c5780635126670614610df45780635743026414610e2f5780635f09355314610f0b578063639f849914610f4657806370a08231146110015780637aede2721461106657806383e4cccf146111a75780638da5cb5b146111e25780638f3333411461123957806395d89b41146113ab5780639d05e9ab1461143b578063a18b7c1114611517578063a457c2d714611542578063a9059cbb146115b5578063beaf3b0d14611628578063d335c04314611663578063d40dc8701461168e578063d74b10a5146116b9578063dd62ed3e14611795578063ddbcb5fa1461181a578063e09c813614611845578063e7637a7d146118b1578063e7b04b72146119b9578063f2fde38b146119e4578063f4343df414611a35578063f483977214611b87575b600080fd5b34801561023657600080fd5b5061023f611bc2565b6040518080602001828103825283818151815260200191508051906020019080838360005b8381101561027f578082015181840152602081019050610264565b50505050905090810190601f1680156102ac5780820380516001836020036101000a031916815260200191505b509250505060405180910390f35b3480156102c657600080fd5b50610313600480360360408110156102dd57600080fd5b81019080803573ffffffffffffffffffffffffffffffffffffffff16906020019092919080359060200190929190505050611bfb565b604051808215151515815260200191505060405180910390f35b34801561033957600080fd5b506103666004803603602081101561035057600080fd5b8101908080359060200190929190505050611c12565b005b34801561037457600080fd5b5061037d611c78565b6040518082815260200191505060405180910390f35b34801561039f57600080fd5b506103a8611c82565b6040518080602001828103825283818151815260200191508051906020019060200280838360005b838110156103eb5780820151818401526020810190506103d0565b505050509050019250505060405180910390f35b34801561040b57600080fd5b506104c56004803603602081101561042257600080fd5b810190808035906020019064010000000081111561043f57600080fd5b82018360208201111561045157600080fd5b8035906020019184600183028401116401000000008311171561047357600080fd5b91908080601f016020809104026020016040519081016040528093929190818152602001838380828437600081840152601f19601f820116905080830192505050505050509192919290505050611d17565b6040518080602001828103825283818151815260200191508051906020019080838360005b838110156105055780820151818401526020810190506104ea565b50505050905090810190601f1680156105325780820380516001836020036101000a031916815260200191505b509250505060405180910390f35b34801561054c57600080fd5b506105b96004803603606081101561056357600080fd5b81019080803573ffffffffffffffffffffffffffffffffffffffff169060200190929190803573ffffffffffffffffffffffffffffffffffffffff16906020019092919080359060200190929190505050611e30565b604051808215151515815260200191505060405180910390f35b61074d600480360360808110156105e957600080fd5b81019080803590602001909291908035906020019064010000000081111561061057600080fd5b82018360208201111561062257600080fd5b8035906020019184600183028401116401000000008311171561064457600080fd5b91908080601f016020809104026020016040519081016040528093929190818152602001838380828437600081840152601f19601f820116905080830192505050505050509192919290803573ffffffffffffffffffffffffffffffffffffffff169060200190929190803590602001906401000000008111156106c757600080fd5b8201836020820111156106d957600080fd5b803590602001918460018302840111640100000000831117156106fb57600080fd5b91908080601f016020809104026020016040519081016040528093929190818152602001838380828437600081840152601f19601f820116905080830192505050505050509192919290505050611ee1565b005b34801561075b57600080fd5b506108156004803603602081101561077257600080fd5b810190808035906020019064010000000081111561078f57600080fd5b8201836020820111156107a157600080fd5b803590602001918460018302840111640100000000831117156107c357600080fd5b91908080601f016020809104026020016040519081016040528093929190818152602001838380828437600081840152601f19601f820116905080830192505050505050509192919290505050612058565b6040518080602001828103825283818151815260200191508051906020019060200280838360005b8381101561085857808201518184015260208101905061083d565b505050509050019250505060405180910390f35b34801561087857600080fd5b506109326004803603602081101561088f57600080fd5b81019080803590602001906401000000008111156108ac57600080fd5b8201836020820111156108be57600080fd5b803590602001918460018302840111640100000000831117156108e057600080fd5b91908080601f016020809104026020016040519081016040528093929190818152602001838380828437600081840152601f19601f82011690508083019250505050505050919291929050505061211b565b6040518082815260200191505060405180910390f35b34801561095457600080fd5b5061095d6121a6565b604051808263ffffffff1663ffffffff16815260200191505060405180910390f35b34801561098b57600080fd5b506109b8600480360360208110156109a257600080fd5b81019080803590602001909291905050506121ab565b005b3480156109c657600080fd5b50610a13600480360360408110156109dd57600080fd5b81019080803573ffffffffffffffffffffffffffffffffffffffff16906020019092919080359060200190929190505050612211565b604051808215151515815260200191505060405180910390f35b348015610a3957600080fd5b50610a426122b6565b6040518082815260200191505060405180910390f35b348015610a6457600080fd5b50610a9160048036036020811015610a7b57600080fd5b81019080803590602001909291905050506122bc565b6040518080602001828103825283818151815260200191508051906020019080838360005b83811015610ad1578082015181840152602081019050610ab6565b50505050905090810190601f168015610afe5780820380516001836020036101000a031916815260200191505b509250505060405180910390f35b348015610b1857600080fd5b50610bd260048036036020811015610b2f57600080fd5b8101908080359060200190640100000000811115610b4c57600080fd5b820183602082011115610b5e57600080fd5b80359060200191846001830284011164010000000083111715610b8057600080fd5b91908080601f016020809104026020016040519081016040528093929190818152602001838380828437600081840152601f19601f820116905080830192505050505050509192919290505050612371565b6040518080602001828103825283818151815260200191508051906020019080838360005b83811015610c12578082015181840152602081019050610bf7565b50505050905090810190601f168015610c3f5780820380516001836020036101000a031916815260200191505b509250505060405180910390f35b348015610c5957600080fd5b50610c62612494565b6040518082815260200191505060405180910390f35b348015610c8457600080fd5b50610cb160048036036020811015610c9b57600080fd5b810190808035906020019092919050505061249a565b6040518080602001828103825283818151815260200191508051906020019080838360005b83811015610cf1578082015181840152602081019050610cd6565b50505050905090810190601f168015610d1e5780820380516001836020036101000a031916815260200191505b509250505060405180910390f35b348015610d3857600080fd5b50610df260048036036020811015610d4f57600080fd5b8101908080359060200190640100000000811115610d6c57600080fd5b820183602082011115610d7e57600080fd5b80359060200191846001830284011164010000000083111715610da057600080fd5b91908080601f016020809104026020016040519081016040528093929190818152602001838380828437600081840152601f19601f820116905080830192505050505050509192919290505050612552565b005b348015610e0057600080fd5b50610e2d60048036036020811015610e1757600080fd5b8101908080359060200190929190505050612722565b005b348015610e3b57600080fd5b50610ef560048036036020811015610e5257600080fd5b8101908080359060200190640100000000811115610e6f57600080fd5b820183602082011115610e8157600080fd5b80359060200191846001830284011164010000000083111715610ea357600080fd5b91908080601f016020809104026020016040519081016040528093929190818152602001838380828437600081840152601f19601f820116905080830192505050505050509192919290505050612788565b6040518082815260200191505060405180910390f35b348015610f1757600080fd5b50610f4460048036036020811015610f2e57600080fd5b8101908080359060200190929190505050612813565b005b610fff60048036036020811015610f5c57600080fd5b8101908080359060200190640100000000811115610f7957600080fd5b820183602082011115610f8b57600080fd5b80359060200191846001830284011164010000000083111715610fad57600080fd5b91908080601f016020809104026020016040519081016040528093929190818152602001838380828437600081840152601f19601f820116905080830192505050505050509192919290505050612879565b005b34801561100d57600080fd5b506110506004803603602081101561102457600080fd5b81019080803573ffffffffffffffffffffffffffffffffffffffff169060200190929190505050612a40565b6040518082815260200191505060405180910390f35b34801561107257600080fd5b5061112c6004803603602081101561108957600080fd5b81019080803590602001906401000000008111156110a657600080fd5b8201836020820111156110b857600080fd5b803590602001918460018302840111640100000000831117156110da57600080fd5b91908080601f016020809104026020016040519081016040528093929190818152602001838380828437600081840152601f19601f820116905080830192505050505050509192919290505050612a88565b6040518080602001828103825283818151815260200191508051906020019080838360005b8381101561116c578082015181840152602081019050611151565b50505050905090810190601f1680156111995780820380516001836020036101000a031916815260200191505b509250505060405180910390f35b3480156111b357600080fd5b506111e0600480360360208110156111ca57600080fd5b8101908080359060200190929190505050612bab565b005b3480156111ee57600080fd5b506111f7612c51565b604051808273ffffffffffffffffffffffffffffffffffffffff1673ffffffffffffffffffffffffffffffffffffffff16815260200191505060405180910390f35b6113a96004803603606081101561124f57600080fd5b81019080803573ffffffffffffffffffffffffffffffffffffffff1690602001909291908035906020019064010000000081111561128c57600080fd5b82018360208201111561129e57600080fd5b803590602001918460018302840111640100000000831117156112c057600080fd5b91908080601f016020809104026020016040519081016040528093929190818152602001838380828437600081840152601f19601f8201169050808301925050505050505091929192908035906020019064010000000081111561132357600080fd5b82018360208201111561133557600080fd5b8035906020019184600183028401116401000000008311171561135757600080fd5b91908080601f016020809104026020016040519081016040528093929190818152602001838380828437600081840152601f19601f820116905080830192505050505050509192919290505050612c77565b005b3480156113b757600080fd5b506113c0612fdc565b6040518080602001828103825283818151815260200191508051906020019080838360005b838110156114005780820151818401526020810190506113e5565b50505050905090810190601f16801561142d5780820380516001836020036101000a031916815260200191505b509250505060405180910390f35b34801561144757600080fd5b506115016004803603602081101561145e57600080fd5b810190808035906020019064010000000081111561147b57600080fd5b82018360208201111561148d57600080fd5b803590602001918460018302840111640100000000831117156114af57600080fd5b91908080601f016020809104026020016040519081016040528093929190818152602001838380828437600081840152601f19601f820116905080830192505050505050509192919290505050613015565b6040518082815260200191505060405180910390f35b34801561152357600080fd5b5061152c6130a0565b6040518082815260200191505060405180910390f35b34801561154e57600080fd5b5061159b6004803603604081101561156557600080fd5b81019080803573ffffffffffffffffffffffffffffffffffffffff169060200190929190803590602001909291905050506130a6565b604051808215151515815260200191505060405180910390f35b3480156115c157600080fd5b5061160e600480360360408110156115d857600080fd5b81019080803573ffffffffffffffffffffffffffffffffffffffff1690602001909291908035906020019092919050505061314b565b604051808215151515815260200191505060405180910390f35b34801561163457600080fd5b506116616004803603602081101561164b57600080fd5b8101908080359060200190929190505050613162565b005b34801561166f57600080fd5b506116786131c8565b6040518082815260200191505060405180910390f35b34801561169a57600080fd5b506116a36131ce565b6040518082815260200191505060405180910390f35b3480156116c557600080fd5b5061177f600480360360208110156116dc57600080fd5b81019080803590602001906401000000008111156116f957600080fd5b82018360208201111561170b57600080fd5b8035906020019184600183028401116401000000008311171561172d57600080fd5b91908080601f016020809104026020016040519081016040528093929190818152602001838380828437600081840152601f19601f8201169050808301925050505050505091929192905050506131d4565b6040518082815260200191505060405180910390f35b3480156117a157600080fd5b50611804600480360360408110156117b857600080fd5b81019080803573ffffffffffffffffffffffffffffffffffffffff169060200190929190803573ffffffffffffffffffffffffffffffffffffffff16906020019092919050505061325f565b6040518082815260200191505060405180910390f35b34801561182657600080fd5b5061182f6132e6565b6040518082815260200191505060405180910390f35b34801561185157600080fd5b5061185a6132ec565b6040518080602001828103825283818151815260200191508051906020019060200280838360005b8381101561189d578082015181840152602081019050611882565b505050509050019250505060405180910390f35b3480156118bd57600080fd5b50611977600480360360208110156118d457600080fd5b81019080803590602001906401000000008111156118f157600080fd5b82018360208201111561190357600080fd5b8035906020019184600183028401116401000000008311171561192557600080fd5b91908080601f016020809104026020016040519081016040528093929190818152602001838380828437600081840152601f19601f820116905080830192505050505050509192919290505050613381565b604051808273ffffffffffffffffffffffffffffffffffffffff1673ffffffffffffffffffffffffffffffffffffffff16815260200191505060405180910390f35b3480156119c557600080fd5b506119ce61342c565b6040518082815260200191505060405180910390f35b3480156119f057600080fd5b50611a3360048036036020811015611a0757600080fd5b81019080803573ffffffffffffffffffffffffffffffffffffffff169060200190929190505050613432565b005b611b8560048036036040811015611a4b57600080fd5b8101908080359060200190640100000000811115611a6857600080fd5b820183602082011115611a7a57600080fd5b80359060200191846001830284011164010000000083111715611a9c57600080fd5b91908080601f016020809104026020016040519081016040528093929190818152602001838380828437600081840152601f19601f82011690508083019250505050505050919291929080359060200190640100000000811115611aff57600080fd5b820183602082011115611b1157600080fd5b80359060200191846001830284011164010000000083111715611b3357600080fd5b91908080601f016020809104026020016040519081016040528093929190818152602001838380828437600081840152601f19601f82011690508083019250505050505050919291929050505061358a565b005b348015611b9357600080fd5b50611bc060048036036020811015611baa57600080fd5b81019080803590602001909291905050506139ef565b005b6040805190810160405280600981526020017f636f696e756e696f6e000000000000000000000000000000000000000000000081525081565b6000611c08338484613a55565b6001905092915050565b600360009054906101000a900473ffffffffffffffffffffffffffffffffffffffff1673ffffffffffffffffffffffffffffffffffffffff163373ffffffffffffffffffffffffffffffffffffffff16141515611c6e57600080fd5b8060118190555050565b6000600254905090565b6060600560003373ffffffffffffffffffffffffffffffffffffffff1673ffffffffffffffffffffffffffffffffffffffff168152602001908152602001600020805480602002602001604051908101604052809291908181526020018280548015611d0d57602002820191906000526020600020905b815481526020019060010190808311611cf9575b5050505050905090565b60606000828051906020012060019004905060046000600d600084815260200190815260200160002060003373ffffffffffffffffffffffffffffffffffffffff1673ffffffffffffffffffffffffffffffffffffffff1681526020019081526020016000205481526020019081526020016000206001018054600181600116156101000203166002900480601f016020809104026020016040519081016040528092919081815260200182805460018160011615610100020316600290048015611e235780601f10611df857610100808354040283529160200191611e23565b820191906000526020600020905b815481529060010190602001808311611e0657829003601f168201915b5050505050915050919050565b6000611e3d848484613bb8565b611ed68433611ed185600160008a73ffffffffffffffffffffffffffffffffffffffff1673ffffffffffffffffffffffffffffffffffffffff16815260200190815260200160002060003373ffffffffffffffffffffffffffffffffffffffff1673ffffffffffffffffffffffffffffffffffffffff16815260200190815260200160002054613d8490919063ffffffff16565b613a55565b600190509392505050565b60135434141515611ef157600080fd5b600f5484111515611f0157600080fd5b600e5484101515611f1157600080fd5b600083805190602001206001900490503373ffffffffffffffffffffffffffffffffffffffff166004600083815260200190815260200160002060000160009054906101000a900473ffffffffffffffffffffffffffffffffffffffff1673ffffffffffffffffffffffffffffffffffffffff16141515611f9157600080fd5b60006004600083815260200190815260200160002060030154141515611fb657600080fd5b846004600083815260200190815260200160002060030181905550826004600083815260200190815260200160002060070160006101000a81548173ffffffffffffffffffffffffffffffffffffffff021916908373ffffffffffffffffffffffffffffffffffffffff160217905550816004600083815260200190815260200160002060080190805190602001906120509291906140c5565b505050505050565b60606006826040518082805190602001908083835b602083101515612092578051825260208201915060208101905060208303925061206d565b6001836020036101000a038019825116818451168082178552505050505050905001915050908152602001604051809103902080548060200260200160405190810160405280929190818152602001828054801561210f57602002820191906000526020600020905b8154815260200190600101908083116120fb575b50505050509050919050565b600060046000600c846040518082805190602001908083835b6020831015156121595780518252602082019150602081019050602083039250612134565b6001836020036101000a0380198251168184511680821785525050505050509050019150509081526020016040518091039020548152602001908152602001600020600501549050919050565b601281565b600360009054906101000a900473ffffffffffffffffffffffffffffffffffffffff1673ffffffffffffffffffffffffffffffffffffffff163373ffffffffffffffffffffffffffffffffffffffff1614151561220757600080fd5b8060138190555050565b60006122ac33846122a785600160003373ffffffffffffffffffffffffffffffffffffffff1673ffffffffffffffffffffffffffffffffffffffff16815260200190815260200160002060008973ffffffffffffffffffffffffffffffffffffffff1673ffffffffffffffffffffffffffffffffffffffff16815260200190815260200160002054613d9d90919063ffffffff16565b613a55565b6001905092915050565b60105481565b6060600760008381526020019081526020016000208054600181600116156101000203166002900480601f0160208091040260200160405190810160405280929190818152602001828054600181600116156101000203166002900480156123655780601f1061233a57610100808354040283529160200191612365565b820191906000526020600020905b81548152906001019060200180831161234857829003601f168201915b50505050509050919050565b606060046000600c846040518082805190602001908083835b6020831015156123af578051825260208201915060208101905060208303925061238a565b6001836020036101000a03801982511681845116808217855250505050505090500191505090815260200160405180910390205481526020019081526020016000206008018054600181600116156101000203166002900480601f0160208091040260200160405190810160405280929190818152602001828054600181600116156101000203166002900480156124885780601f1061245d57610100808354040283529160200191612488565b820191906000526020600020905b81548152906001019060200180831161246b57829003601f168201915b50505050509050919050565b60115481565b6060600460008381526020019081526020016000206001018054600181600116156101000203166002900480601f0160208091040260200160405190810160405280929190818152602001828054600181600116156101000203166002900480156125465780601f1061251b57610100808354040283529160200191612546565b820191906000526020600020905b81548152906001019060200180831161252957829003601f168201915b50505050509050919050565b60008180519060200120600190049050600060046000838152602001908152602001600020600301541415151561258857600080fd5b3373ffffffffffffffffffffffffffffffffffffffff166004600083815260200190815260200160002060000160009054906101000a900473ffffffffffffffffffffffffffffffffffffffff1673ffffffffffffffffffffffffffffffffffffffff161415156125f857600080fd5b3373ffffffffffffffffffffffffffffffffffffffff166108fc60046000848152602001908152602001600020600401549081150290604051600060405180830381858888f19350505050158015612654573d6000803e3d6000fd5b50600060046000838152602001908152602001600020600401819055506000600460008381526020019081526020016000206003018190555060006004600083815260200190815260200160002060070160006101000a81548173ffffffffffffffffffffffffffffffffffffffff021916908373ffffffffffffffffffffffffffffffffffffffff160217905550602060405190810160405280600081525060046000838152602001908152602001600020600801908051906020019061271d9291906140c5565b505050565b600360009054906101000a900473ffffffffffffffffffffffffffffffffffffffff1673ffffffffffffffffffffffffffffffffffffffff163373ffffffffffffffffffffffffffffffffffffffff1614151561277e57600080fd5b8060108190555050565b600060046000600c846040518082805190602001908083835b6020831015156127c657805182526020820191506020810190506020830392506127a1565b6001836020036101000a0380198251168184511680821785525050505050509050019150509081526020016040518091039020548152602001908152602001600020600601549050919050565b600360009054906101000a900473ffffffffffffffffffffffffffffffffffffffff1673ffffffffffffffffffffffffffffffffffffffff163373ffffffffffffffffffffffffffffffffffffffff1614151561286f57600080fd5b8060128190555050565b60003411151561288857600080fd5b600081805190602001206001900490503373ffffffffffffffffffffffffffffffffffffffff166004600083815260200190815260200160002060000160009054906101000a900473ffffffffffffffffffffffffffffffffffffffff1673ffffffffffffffffffffffffffffffffffffffff161415151561290957600080fd5b60006010543481151561291857fe5b04905061292733823403613dbb565b6000612952346004600086815260200190815260200160002060040154613d9d90919063ffffffff16565b600460008581526020019081526020016000206003015411156129b5576129ae60046000858152602001908152602001600020600401546004600086815260200190815260200160002060030154613d8490919063ffffffff16565b90506129b9565b3490505b80600460008581526020019081526020016000206005016000828254019250508190555081810390508060046000858152602001908152602001600020600601600082825401925050819055508060046000858152602001908152602001600020600401600082825401925050819055508160146000828254019250508190555050505050565b60008060008373ffffffffffffffffffffffffffffffffffffffff1673ffffffffffffffffffffffffffffffffffffffff168152602001908152602001600020549050919050565b606060046000600c846040518082805190602001908083835b602083101515612ac65780518252602082019150602081019050602083039250612aa1565b6001836020036101000a03801982511681845116808217855250505050505090500191505090815260200160405180910390205481526020019081526020016000206002018054600181600116156101000203166002900480601f016020809104026020016040519081016040528092919081815260200182805460018160011615610100020316600290048015612b9f5780601f10612b7457610100808354040283529160200191612b9f565b820191906000526020600020905b815481529060010190602001808311612b8257829003601f168201915b50505050509050919050565b600360009054906101000a900473ffffffffffffffffffffffffffffffffffffffff1673ffffffffffffffffffffffffffffffffffffffff163373ffffffffffffffffffffffffffffffffffffffff16141515612c0757600080fd5b3373ffffffffffffffffffffffffffffffffffffffff166108fc829081150290604051600060405180830381858888f19350505050158015612c4d573d6000803e3d6000fd5b5050565b600360009054906101000a900473ffffffffffffffffffffffffffffffffffffffff1681565b34601254141515612c8757600080fd5b60008180519060200120600190049050600073ffffffffffffffffffffffffffffffffffffffff166004600083815260200190815260200160002060000160009054906101000a900473ffffffffffffffffffffffffffffffffffffffff1673ffffffffffffffffffffffffffffffffffffffff16141515612d0857600080fd5b3373ffffffffffffffffffffffffffffffffffffffff166009846040518082805190602001908083835b602083101515612d575780518252602082019150602081019050602083039250612d32565b6001836020036101000a038019825116818451168082178552505050505050905001915050908152602001604051809103902060009054906101000a900473ffffffffffffffffffffffffffffffffffffffff1673ffffffffffffffffffffffffffffffffffffffff16141515612dcd57600080fd5b600083805190602001206001900490506000600d600083815260200190815260200160002060003373ffffffffffffffffffffffffffffffffffffffff1673ffffffffffffffffffffffffffffffffffffffff16815260200190815260200160002054141515612e3c57600080fd5b336004600084815260200190815260200160002060000160006101000a81548173ffffffffffffffffffffffffffffffffffffffff021916908373ffffffffffffffffffffffffffffffffffffffff160217905550600560008673ffffffffffffffffffffffffffffffffffffffff1673ffffffffffffffffffffffffffffffffffffffff168152602001908152602001600020819080600181540180825580915050906001820390600052602060002001600090919290919091505550600b846040518082805190602001908083835b602083101515612f325780518252602082019150602081019050602083039250612f0d565b6001836020036101000a03801982511681845116808217855250505050505090500191505090815260200160405180910390208590806001815401808255809150509060018203906000526020600020016000909192909190916101000a81548173ffffffffffffffffffffffffffffffffffffffff021916908373ffffffffffffffffffffffffffffffffffffffff16021790555050612fd583858385613f0f565b5050505050565b6040805190810160405280600581526020017f554e494f4e00000000000000000000000000000000000000000000000000000081525081565b600060046000600c846040518082805190602001908083835b602083101515613053578051825260208201915060208101905060208303925061302e565b6001836020036101000a0380198251168184511680821785525050505050509050019150509081526020016040518091039020548152602001908152602001600020600401549050919050565b60135481565b6000613141338461313c85600160003373ffffffffffffffffffffffffffffffffffffffff1673ffffffffffffffffffffffffffffffffffffffff16815260200190815260200160002060008973ffffffffffffffffffffffffffffffffffffffff1673ffffffffffffffffffffffffffffffffffffffff16815260200190815260200160002054613d8490919063ffffffff16565b613a55565b6001905092915050565b6000613158338484613bb8565b6001905092915050565b600360009054906101000a900473ffffffffffffffffffffffffffffffffffffffff1673ffffffffffffffffffffffffffffffffffffffff163373ffffffffffffffffffffffffffffffffffffffff161415156131be57600080fd5b80600e8190555050565b60125481565b600e5481565b600060046000600c846040518082805190602001908083835b60208310151561321257805182526020820191506020810190506020830392506131ed565b6001836020036101000a0380198251168184511680821785525050505050509050019150509081526020016040518091039020548152602001908152602001600020600301549050919050565b6000600160008473ffffffffffffffffffffffffffffffffffffffff1673ffffffffffffffffffffffffffffffffffffffff16815260200190815260200160002060008373ffffffffffffffffffffffffffffffffffffffff1673ffffffffffffffffffffffffffffffffffffffff16815260200190815260200160002054905092915050565b600f5481565b6060600860003373ffffffffffffffffffffffffffffffffffffffff1673ffffffffffffffffffffffffffffffffffffffff16815260200190815260200160002080548060200260200160405190810160405280929190818152602001828054801561337757602002820191906000526020600020905b815481526020019060010190808311613363575b5050505050905090565b600060046000600c846040518082805190602001908083835b6020831015156133bf578051825260208201915060208101905060208303925061339a565b6001836020036101000a038019825116818451168082178552505050505050905001915050908152602001604051809103902054815260200190815260200160002060070160009054906101000a900473ffffffffffffffffffffffffffffffffffffffff169050919050565b60145481565b600360009054906101000a900473ffffffffffffffffffffffffffffffffffffffff1673ffffffffffffffffffffffffffffffffffffffff163373ffffffffffffffffffffffffffffffffffffffff1614151561348e57600080fd5b600073ffffffffffffffffffffffffffffffffffffffff168173ffffffffffffffffffffffffffffffffffffffff16141515156134ca57600080fd5b8073ffffffffffffffffffffffffffffffffffffffff16600360009054906101000a900473ffffffffffffffffffffffffffffffffffffffff1673ffffffffffffffffffffffffffffffffffffffff167f8be0079c531659141344cd1fd0a4f28419497f9722a3daafe3b4186f6b6457e060405160405180910390a380600360006101000a81548173ffffffffffffffffffffffffffffffffffffffff021916908373ffffffffffffffffffffffffffffffffffffffff16021790555050565b3460115414151561359a57600080fd5b6000600a836040518082805190602001908083835b6020831015156135d457805182526020820191506020810190506020830392506135af565b6001836020036101000a03801982511681845116808217855250505050505090500191505090815260200160405180910390205414151561361457600080fd5b60008180519060200120600190049050600073ffffffffffffffffffffffffffffffffffffffff166004600083815260200190815260200160002060000160009054906101000a900473ffffffffffffffffffffffffffffffffffffffff1673ffffffffffffffffffffffffffffffffffffffff1614151561369557600080fd5b60008380519060200120600190049050336004600084815260200190815260200160002060000160006101000a81548173ffffffffffffffffffffffffffffffffffffffff021916908373ffffffffffffffffffffffffffffffffffffffff16021790555080600a856040518082805190602001908083835b602083101515613733578051825260208201915060208101905060208303925061370e565b6001836020036101000a038019825116818451168082178552505050505050905001915050908152602001604051809103902081905550336009856040518082805190602001908083835b6020831015156137a3578051825260208201915060208101905060208303925061377e565b6001836020036101000a038019825116818451168082178552505050505050905001915050908152602001604051809103902060006101000a81548173ffffffffffffffffffffffffffffffffffffffff021916908373ffffffffffffffffffffffffffffffffffffffff160217905550600860003373ffffffffffffffffffffffffffffffffffffffff1673ffffffffffffffffffffffffffffffffffffffff168152602001908152602001600020819080600181540180825580915050906001820390600052602060002001600090919290919091505550836007600083815260200190815260200160002090805190602001906138a49291906140c5565b50600b846040518082805190602001908083835b6020831015156138dd57805182526020820191506020810190506020830392506138b8565b6001836020036101000a03801982511681845116808217855250505050505090500191505090815260200160405180910390203390806001815401808255809150509060018203906000526020600020016000909192909190916101000a81548173ffffffffffffffffffffffffffffffffffffffff021916908373ffffffffffffffffffffffffffffffffffffffff16021790555050600560003373ffffffffffffffffffffffffffffffffffffffff1673ffffffffffffffffffffffffffffffffffffffff1681526020019081526020016000208190806001815401808255809150509060018203906000526020600020016000909192909190915055506139e983858385613f0f565b50505050565b600360009054906101000a900473ffffffffffffffffffffffffffffffffffffffff1673ffffffffffffffffffffffffffffffffffffffff163373ffffffffffffffffffffffffffffffffffffffff16141515613a4b57600080fd5b80600f8190555050565b600073ffffffffffffffffffffffffffffffffffffffff168273ffffffffffffffffffffffffffffffffffffffff1614151515613a9157600080fd5b600073ffffffffffffffffffffffffffffffffffffffff168373ffffffffffffffffffffffffffffffffffffffff1614151515613acd57600080fd5b80600160008573ffffffffffffffffffffffffffffffffffffffff1673ffffffffffffffffffffffffffffffffffffffff16815260200190815260200160002060008473ffffffffffffffffffffffffffffffffffffffff1673ffffffffffffffffffffffffffffffffffffffff168152602001908152602001600020819055508173ffffffffffffffffffffffffffffffffffffffff168373ffffffffffffffffffffffffffffffffffffffff167f8c5be1e5ebec7d5bd14f71427d1e84f3dd0314c0f7b2291e5b200ac8c7c3b925836040518082815260200191505060405180910390a3505050565b600073ffffffffffffffffffffffffffffffffffffffff168273ffffffffffffffffffffffffffffffffffffffff1614151515613bf457600080fd5b613c45816000808673ffffffffffffffffffffffffffffffffffffffff1673ffffffffffffffffffffffffffffffffffffffff16815260200190815260200160002054613d8490919063ffffffff16565b6000808573ffffffffffffffffffffffffffffffffffffffff1673ffffffffffffffffffffffffffffffffffffffff16815260200190815260200160002081905550613cd8816000808573ffffffffffffffffffffffffffffffffffffffff1673ffffffffffffffffffffffffffffffffffffffff16815260200190815260200160002054613d9d90919063ffffffff16565b6000808473ffffffffffffffffffffffffffffffffffffffff1673ffffffffffffffffffffffffffffffffffffffff168152602001908152602001600020819055508173ffffffffffffffffffffffffffffffffffffffff168373ffffffffffffffffffffffffffffffffffffffff167fddf252ad1be2c89b69c2b068fc378daa952ba7f163c4a11628f55a4df523b3ef836040518082815260200191505060405180910390a3505050565b6000828211151515613d9257fe5b818303905092915050565b6000808284019050838110151515613db157fe5b8091505092915050565b600073ffffffffffffffffffffffffffffffffffffffff168273ffffffffffffffffffffffffffffffffffffffff1614151515613df757600080fd5b613e0c81600254613d9d90919063ffffffff16565b600281905550613e63816000808573ffffffffffffffffffffffffffffffffffffffff1673ffffffffffffffffffffffffffffffffffffffff16815260200190815260200160002054613d9d90919063ffffffff16565b6000808473ffffffffffffffffffffffffffffffffffffffff1673ffffffffffffffffffffffffffffffffffffffff168152602001908152602001600020819055508173ffffffffffffffffffffffffffffffffffffffff16600073ffffffffffffffffffffffffffffffffffffffff167fddf252ad1be2c89b69c2b068fc378daa952ba7f163c4a11628f55a4df523b3ef836040518082815260200191505060405180910390a35050565b83600460008381526020019081526020016000206001019080519060200190613f399291906140c5565b5082600460008381526020019081526020016000206002019080519060200190613f649291906140c5565b506006836040518082805190602001908083835b602083101515613f9d5780518252602082019150602081019050602083039250613f78565b6001836020036101000a038019825116818451168082178552505050505050905001915050908152602001604051809103902081908060018154018082558091505090600182039060005260206000200160009091929091909150555080600c856040518082805190602001908083835b602083101515614033578051825260208201915060208101905060208303925061400e565b6001836020036101000a03801982511681845116808217855250505050505090500191505090815260200160405180910390208190555080600d600084815260200190815260200160002060003373ffffffffffffffffffffffffffffffffffffffff1673ffffffffffffffffffffffffffffffffffffffff1681526020019081526020016000208190555050505050565b828054600181600116156101000203166002900490600052602060002090601f016020900481019282601f1061410657805160ff1916838001178555614134565b82800160010185558215614134579182015b82811115614133578251825591602001919060010190614118565b5b5090506141419190614145565b5090565b61416791905b8082111561416357600081600090555060010161414b565b5090565b9056fea165627a7a723058200c769cc32587b644588a563b748b435edc524c66585021d9074da915fc7448f30029",
  "source": "pragma solidity ^0.5.0;\n\nimport \"./Gimicoin.sol\";\nimport \"./Ownable.sol\";\n\ncontract Cagnottes is Gimicoin, Ownable{\n\nmapping (uint => channel) private mappChannel;\nmapping (address => uint[]) private mappGroupesForAddress;\nmapping (string => uint[]) private mappGroupeAndChannels;\nmapping (uint => string) private mappIDGroupe;\nmapping (address => uint[]) private mappOwnedGroup;\nmapping (string => address) private mappGroupeOwner;\nmapping (string => uint) private mappNomGroupe;\nmapping (string => address[]) private mappGroupe;\nmapping (string => uint) private mappPseudoToID;\nmapping (uint => mapping (address => uint)) private mappPseudoInGroup;\n\nuint public MAX_AMOUNT;\nuint public MIN_AMOUNT;\nuint public PRICE_RATIO;\nuint public PRICE_GROUP;\nuint public PRICE_MEMBRE;\nuint public PRICE_CHANEL;\nuint public LOTTERY_CAGNOTTE;\n\nstruct channel\n{\n  address demandeur;\n  string pseudo;\n  string groupe;\n  uint montant;\n  uint enCours;\n  uint donnations;\n  uint receptions;\n  address contratCible;\n  string description;\n  uint prediction;\n}\n\nconstructor() public\n{\n  MAX_AMOUNT = 10000000000000000000;\n  MIN_AMOUNT = 10000000;\n  PRICE_RATIO = 100;\n  PRICE_GROUP = 100000;\n  PRICE_MEMBRE = 10000;\n  PRICE_CHANEL = 1000;\n}\n\nfunction creerGroupe(string memory _nom, string memory _pseudo) payable public\n{\n  require(PRICE_GROUP == msg.value);\n  require(mappNomGroupe[_nom] == 0);\n  uint channelID = uint(keccak256(bytes(_pseudo)));\n  require(mappChannel[channelID].demandeur == address(0));\n  uint IDGroupe = uint(keccak256(bytes(_nom)));\n  mappChannel[channelID].demandeur = msg.sender;\n  mappNomGroupe[_nom] = IDGroupe;\n  mappGroupeOwner[_nom] = msg.sender;\n  mappOwnedGroup[msg.sender].push(IDGroupe);\n  mappIDGroupe[IDGroupe] = _nom;\n  mappGroupe[_nom].push(msg.sender);\n  mappGroupesForAddress[msg.sender].push(IDGroupe);\n  creerCanal(_pseudo, _nom, IDGroupe, channelID);\n}\n\nfunction ajouterMembre(address _membre, string memory _groupe, string memory _pseudo) payable public\n{\n  require(PRICE_MEMBRE == msg.value);\n  uint channelID = uint(keccak256(bytes(_pseudo)));\n  require(mappChannel[channelID].demandeur == address(0));\n  require(mappGroupeOwner[_groupe] == msg.sender);\n  uint IDGroupe = uint(keccak256(bytes(_groupe)));\n  require(mappPseudoInGroup[IDGroupe][msg.sender] == 0);\n  mappChannel[channelID].demandeur = msg.sender;\n  mappGroupesForAddress[_membre].push(IDGroupe);\n  mappGroupe[_groupe].push(_membre);\n  creerCanal(_pseudo, _groupe, IDGroupe, channelID);\n}\n\nfunction creerCanal(string memory _pseudo, string memory _groupe, uint groupeID, uint channelID) private\n{\n  mappChannel[channelID].pseudo = _pseudo;\n  mappChannel[channelID].groupe = _groupe;\n  mappGroupeAndChannels[_groupe].push(channelID);\n  mappPseudoToID[_pseudo] = channelID;\n  mappPseudoInGroup[groupeID][msg.sender] = channelID;\n}\n\nfunction demander(uint _montant, string memory _pseudo, address _contratCible, string memory _description) payable public\n{\n  require(msg.value == PRICE_CHANEL);\n  require(_montant > MIN_AMOUNT);\n  require(_montant < MAX_AMOUNT);\n  uint channelID = uint(keccak256(bytes(_pseudo)));\n  require(mappChannel[channelID].demandeur == msg.sender);\n  require(mappChannel[channelID].montant == 0);\n  mappChannel[channelID].montant = _montant;\n  mappChannel[channelID].contratCible = _contratCible;\n  mappChannel[channelID].description = _description;\n}\n\nfunction payerCanal(string memory _pseudo) public payable\n{\n  require(msg.value > 0);\n  uint _channelID = uint(keccak256(bytes(_pseudo)));\n  require(mappChannel[_channelID].demandeur != msg.sender);\n  uint fees = uint(msg.value / PRICE_RATIO);\n  _mint(msg.sender,msg.value - fees);\n  uint addValue;\n  if (mappChannel[_channelID].montant > mappChannel[_channelID].enCours.add(msg.value))\n  {\n    addValue = mappChannel[_channelID].montant.sub(mappChannel[_channelID].enCours);\n  }\n  else addValue = msg.value;\n  mappChannel[_channelID].donnations += addValue;\n  addValue -= fees;\n  mappChannel[_channelID].receptions += addValue;\n  mappChannel[_channelID].enCours += addValue;\n  LOTTERY_CAGNOTTE += fees;\n}\n\nfunction fermetureCanal(string memory _pseudo) public\n{\n  uint _channelID = uint(keccak256(bytes(_pseudo)));\n  require(mappChannel[_channelID].montant != 0);\n  require(mappChannel[_channelID].demandeur == msg.sender);\n  msg.sender.transfer(mappChannel[_channelID].enCours);\n  mappChannel[_channelID].enCours = 0;\n  mappChannel[_channelID].montant = 0;\n  mappChannel[_channelID].contratCible = address(0);\n  mappChannel[_channelID].description = \"\";\n}\n\nfunction modifierPriceChannel(uint _priceChannel) public onlyOwner\n{\n  PRICE_CHANEL = _priceChannel;\n}\n\nfunction modifierMaxAmount(uint _maxAmount) public onlyOwner\n{\n  MAX_AMOUNT = _maxAmount;\n}\n\nfunction modifierMinAmount(uint _minAmount) public onlyOwner\n{\n  MIN_AMOUNT = _minAmount;\n}\n\nfunction modifierCharges(uint _priceChannel) public onlyOwner\n{\n  PRICE_RATIO = _priceChannel;\n}\n\nfunction modifierPriceGroup(uint _priceGroup) public onlyOwner\n{\n  PRICE_GROUP = _priceGroup;\n}\n\nfunction modifierPriceMember(uint _priceMember) public onlyOwner\n{\n  PRICE_MEMBRE = _priceMember;\n}\n\nfunction getGroupesPerAddress() public view returns (uint[] memory)\n{\n  return mappGroupesForAddress[msg.sender];\n}\n\nfunction getMembres(string memory _groupe) public view returns (uint[] memory)\n{\n  return mappGroupeAndChannels[_groupe];\n}\n\nfunction getDescription(string memory _pseudo) public view returns (string memory)\n{\n  return mappChannel[mappPseudoToID[_pseudo]].description;\n}\n\nfunction getNomMembre(uint _ID) public view returns (string memory)\n{\n  return mappChannel[_ID].pseudo;\n}\n\nfunction getGroupe(string memory _pseudo) public view returns (string memory)\n{\n  return mappChannel[mappPseudoToID[_pseudo]].groupe;\n}\n\nfunction getMontant(string memory _pseudo) public view returns (uint)\n{\n  return mappChannel[mappPseudoToID[_pseudo]].montant;\n}\n\nfunction getEncours(string memory _pseudo) public view returns (uint)\n{\n  return mappChannel[mappPseudoToID[_pseudo]].enCours;\n}\n\nfunction getDonnations(string memory _pseudo) public view returns (uint)\n{\n  return mappChannel[mappPseudoToID[_pseudo]].donnations;\n}\n\nfunction getReceptions(string memory _pseudo) public view returns (uint)\n{\n  return mappChannel[mappPseudoToID[_pseudo]].receptions;\n}\n\nfunction getContratCible(string memory _pseudo) public view returns (address)\n{\n  return mappChannel[mappPseudoToID[_pseudo]].contratCible;\n}\n\nfunction getNomGroupe(uint _ID) public view returns (string memory)\n{\n  return mappIDGroupe[_ID];\n}\n\nfunction getOwnedGroupe() public view returns (uint[] memory)\n{\n  return mappOwnedGroup[msg.sender];\n}\n\nfunction getPseudoInGroup(string memory _groupe) public view returns (string memory)\n{\n  uint IDGroupe = uint(keccak256(bytes(_groupe)));\n  return mappChannel[mappPseudoInGroup[IDGroupe][msg.sender]].pseudo;\n}\n\nfunction withdrawCash(uint _montant) public onlyOwner\n{\n  msg.sender.transfer(_montant);\n}\n\n}\n",
  "sourcePath": "/Users/germaindacunha/Desktop/Alyra/project/Ether-Union/contracts/Cagnottes.sol",
  "compiler": {
    "name": "solc",
    "version": "0.5.0+commit.1d4f565a.Emscripten.clang"
  },
  "schemaVersion": "3.0.2",
  "updatedAt": "2019-03-29T18:10:29.147Z",
  "devdoc": {
    "methods": {
      "allowance(address,address)": {
        "details": "Function to check the amount of tokens that an owner allowed to a spender.",
        "params": {
          "owner": "address The address which owns the funds.",
          "spender": "address The address which will spend the funds."
        },
        "return": "A uint256 specifying the amount of tokens still available for the spender."
      },
      "approve(address,uint256)": {
        "details": "Approve the passed address to spend the specified amount of tokens on behalf of msg.sender. Beware that changing an allowance with this method brings the risk that someone may use both the old and the new allowance by unfortunate transaction ordering. One possible solution to mitigate this race condition is to first reduce the spender's allowance to 0 and set the desired value afterwards: https://github.com/ethereum/EIPs/issues/20#issuecomment-263524729",
        "params": {
          "spender": "The address which will spend the funds.",
          "value": "The amount of tokens to be spent."
        }
      },
      "balanceOf(address)": {
        "details": "Gets the balance of the specified address.",
        "params": {
          "owner": "The address to query the balance of."
        },
        "return": "A uint256 representing the amount owned by the passed address."
      },
      "decreaseAllowance(address,uint256)": {
        "details": "Decrease the amount of tokens that an owner allowed to a spender. approve should be called when _allowed[msg.sender][spender] == 0. To decrement allowed value is better to use this function to avoid 2 calls (and wait until the first transaction is mined) From MonolithDAO Token.sol Emits an Approval event.",
        "params": {
          "spender": "The address which will spend the funds.",
          "subtractedValue": "The amount of tokens to decrease the allowance by."
        }
      },
      "increaseAllowance(address,uint256)": {
        "details": "Increase the amount of tokens that an owner allowed to a spender. approve should be called when _allowed[msg.sender][spender] == 0. To increment allowed value is better to use this function to avoid 2 calls (and wait until the first transaction is mined) From MonolithDAO Token.sol Emits an Approval event.",
        "params": {
          "addedValue": "The amount of tokens to increase the allowance by.",
          "spender": "The address which will spend the funds."
        }
      },
      "totalSupply()": {
        "details": "Total number of tokens in existence"
      },
      "transfer(address,uint256)": {
        "details": "Transfer token to a specified address",
        "params": {
          "to": "The address to transfer to.",
          "value": "The amount to be transferred."
        }
      },
      "transferFrom(address,address,uint256)": {
        "details": "Transfer tokens from one address to another. Note that while this function emits an Approval event, this is not required as per the specification, and other compliant implementations may not emit the event.",
        "params": {
          "from": "address The address which you want to send tokens from",
          "to": "address The address which you want to transfer to",
          "value": "uint256 the amount of tokens to be transferred"
        }
      },
      "transferOwnership(address)": {
        "details": "Allows the current owner to transfer control of the contract to a newOwner.",
        "params": {
          "newOwner": "The address to transfer ownership to."
        }
      }
    }
  },
  "userdoc": {
    "methods": {}
  }
}