{
  "contractName": "Cagnottes",
  "abi": [
    {
      "constant": true,
      "inputs": [],
      "name": "name",
      "outputs": [
        {
          "name": "",
          "type": "string"
        }
      ],
      "payable": false,
      "stateMutability": "view",
      "type": "function"
    },
    {
      "constant": true,
      "inputs": [],
      "name": "TOKEN_BONUS",
      "outputs": [
        {
          "name": "",
          "type": "uint256"
        }
      ],
      "payable": false,
      "stateMutability": "view",
      "type": "function"
    },
    {
      "constant": false,
      "inputs": [
        {
          "name": "spender",
          "type": "address"
        },
        {
          "name": "value",
          "type": "uint256"
        }
      ],
      "name": "approve",
      "outputs": [
        {
          "name": "",
          "type": "bool"
        }
      ],
      "payable": false,
      "stateMutability": "nonpayable",
      "type": "function"
    },
    {
      "constant": true,
      "inputs": [],
      "name": "totalSupply",
      "outputs": [
        {
          "name": "",
          "type": "uint256"
        }
      ],
      "payable": false,
      "stateMutability": "view",
      "type": "function"
    },
    {
      "constant": false,
      "inputs": [
        {
          "name": "from",
          "type": "address"
        },
        {
          "name": "to",
          "type": "address"
        },
        {
          "name": "value",
          "type": "uint256"
        }
      ],
      "name": "transferFrom",
      "outputs": [
        {
          "name": "",
          "type": "bool"
        }
      ],
      "payable": false,
      "stateMutability": "nonpayable",
      "type": "function"
    },
    {
      "constant": true,
      "inputs": [],
      "name": "decimals",
      "outputs": [
        {
          "name": "",
          "type": "uint32"
        }
      ],
      "payable": false,
      "stateMutability": "view",
      "type": "function"
    },
    {
      "constant": false,
      "inputs": [
        {
          "name": "spender",
          "type": "address"
        },
        {
          "name": "addedValue",
          "type": "uint256"
        }
      ],
      "name": "increaseAllowance",
      "outputs": [
        {
          "name": "",
          "type": "bool"
        }
      ],
      "payable": false,
      "stateMutability": "nonpayable",
      "type": "function"
    },
    {
      "constant": true,
      "inputs": [],
      "name": "LAPS_TIME_TOKEN_WITHDRAW",
      "outputs": [
        {
          "name": "",
          "type": "uint256"
        }
      ],
      "payable": false,
      "stateMutability": "view",
      "type": "function"
    },
    {
      "constant": true,
      "inputs": [],
      "name": "PRICE_RATIO",
      "outputs": [
        {
          "name": "",
          "type": "uint256"
        }
      ],
      "payable": false,
      "stateMutability": "view",
      "type": "function"
    },
    {
      "constant": true,
      "inputs": [],
      "name": "PRICE_GROUP",
      "outputs": [
        {
          "name": "",
          "type": "uint256"
        }
      ],
      "payable": false,
      "stateMutability": "view",
      "type": "function"
    },
    {
      "constant": true,
      "inputs": [],
      "name": "TIME_TOKEN_WITHDRAW",
      "outputs": [
        {
          "name": "",
          "type": "uint256"
        }
      ],
      "payable": false,
      "stateMutability": "view",
      "type": "function"
    },
    {
      "constant": true,
      "inputs": [
        {
          "name": "owner",
          "type": "address"
        }
      ],
      "name": "balanceOf",
      "outputs": [
        {
          "name": "",
          "type": "uint256"
        }
      ],
      "payable": false,
      "stateMutability": "view",
      "type": "function"
    },
    {
      "constant": true,
      "inputs": [],
      "name": "DESERVE_BONUS",
      "outputs": [
        {
          "name": "",
          "type": "uint256"
        }
      ],
      "payable": false,
      "stateMutability": "view",
      "type": "function"
    },
    {
      "constant": true,
      "inputs": [],
      "name": "owner",
      "outputs": [
        {
          "name": "",
          "type": "address"
        }
      ],
      "payable": false,
      "stateMutability": "view",
      "type": "function"
    },
    {
      "constant": true,
      "inputs": [],
      "name": "symbol",
      "outputs": [
        {
          "name": "",
          "type": "string"
        }
      ],
      "payable": false,
      "stateMutability": "view",
      "type": "function"
    },
    {
      "constant": true,
      "inputs": [],
      "name": "PRICE_CHANEL",
      "outputs": [
        {
          "name": "",
          "type": "uint256"
        }
      ],
      "payable": false,
      "stateMutability": "view",
      "type": "function"
    },
    {
      "constant": false,
      "inputs": [
        {
          "name": "spender",
          "type": "address"
        },
        {
          "name": "subtractedValue",
          "type": "uint256"
        }
      ],
      "name": "decreaseAllowance",
      "outputs": [
        {
          "name": "",
          "type": "bool"
        }
      ],
      "payable": false,
      "stateMutability": "nonpayable",
      "type": "function"
    },
    {
      "constant": false,
      "inputs": [
        {
          "name": "to",
          "type": "address"
        },
        {
          "name": "value",
          "type": "uint256"
        }
      ],
      "name": "transfer",
      "outputs": [
        {
          "name": "",
          "type": "bool"
        }
      ],
      "payable": false,
      "stateMutability": "nonpayable",
      "type": "function"
    },
    {
      "constant": true,
      "inputs": [],
      "name": "PRICE_MEMBRE",
      "outputs": [
        {
          "name": "",
          "type": "uint256"
        }
      ],
      "payable": false,
      "stateMutability": "view",
      "type": "function"
    },
    {
      "constant": true,
      "inputs": [],
      "name": "MAX_AMOUNT",
      "outputs": [
        {
          "name": "",
          "type": "uint256"
        }
      ],
      "payable": false,
      "stateMutability": "view",
      "type": "function"
    },
    {
      "constant": true,
      "inputs": [
        {
          "name": "owner",
          "type": "address"
        },
        {
          "name": "spender",
          "type": "address"
        }
      ],
      "name": "allowance",
      "outputs": [
        {
          "name": "",
          "type": "uint256"
        }
      ],
      "payable": false,
      "stateMutability": "view",
      "type": "function"
    },
    {
      "constant": true,
      "inputs": [],
      "name": "MIN_AMOUNT",
      "outputs": [
        {
          "name": "",
          "type": "uint256"
        }
      ],
      "payable": false,
      "stateMutability": "view",
      "type": "function"
    },
    {
      "constant": false,
      "inputs": [
        {
          "name": "newOwner",
          "type": "address"
        }
      ],
      "name": "transferOwnership",
      "outputs": [],
      "payable": false,
      "stateMutability": "nonpayable",
      "type": "function"
    },
    {
      "inputs": [],
      "payable": false,
      "stateMutability": "nonpayable",
      "type": "constructor"
    },
    {
      "anonymous": false,
      "inputs": [
        {
          "indexed": true,
          "name": "previousOwner",
          "type": "address"
        },
        {
          "indexed": true,
          "name": "newOwner",
          "type": "address"
        }
      ],
      "name": "OwnershipTransferred",
      "type": "event"
    },
    {
      "anonymous": false,
      "inputs": [
        {
          "indexed": true,
          "name": "from",
          "type": "address"
        },
        {
          "indexed": true,
          "name": "to",
          "type": "address"
        },
        {
          "indexed": false,
          "name": "value",
          "type": "uint256"
        }
      ],
      "name": "Transfer",
      "type": "event"
    },
    {
      "anonymous": false,
      "inputs": [
        {
          "indexed": true,
          "name": "owner",
          "type": "address"
        },
        {
          "indexed": true,
          "name": "spender",
          "type": "address"
        },
        {
          "indexed": false,
          "name": "value",
          "type": "uint256"
        }
      ],
      "name": "Approval",
      "type": "event"
    },
    {
      "constant": false,
      "inputs": [
        {
          "name": "_nom",
          "type": "string"
        },
        {
          "name": "_pseudo",
          "type": "string"
        }
      ],
      "name": "creerGroupe",
      "outputs": [],
      "payable": true,
      "stateMutability": "payable",
      "type": "function"
    },
    {
      "constant": false,
      "inputs": [
        {
          "name": "_membre",
          "type": "address"
        },
        {
          "name": "_groupe",
          "type": "string"
        },
        {
          "name": "_pseudo",
          "type": "string"
        }
      ],
      "name": "ajouterMembre",
      "outputs": [],
      "payable": true,
      "stateMutability": "payable",
      "type": "function"
    },
    {
      "constant": false,
      "inputs": [
        {
          "name": "_montant",
          "type": "uint256"
        },
        {
          "name": "_pseudo",
          "type": "string"
        },
        {
          "name": "_contratCible",
          "type": "address"
        },
        {
          "name": "_description",
          "type": "string"
        }
      ],
      "name": "demander",
      "outputs": [],
      "payable": true,
      "stateMutability": "payable",
      "type": "function"
    },
    {
      "constant": false,
      "inputs": [
        {
          "name": "_pseudo",
          "type": "string"
        },
        {
          "name": "_address",
          "type": "address"
        }
      ],
      "name": "payerCanal",
      "outputs": [],
      "payable": true,
      "stateMutability": "payable",
      "type": "function"
    },
    {
      "constant": false,
      "inputs": [
        {
          "name": "_pseudo",
          "type": "string"
        }
      ],
      "name": "fermetureCanal",
      "outputs": [],
      "payable": false,
      "stateMutability": "nonpayable",
      "type": "function"
    },
    {
      "constant": false,
      "inputs": [
        {
          "name": "_amount",
          "type": "uint256"
        }
      ],
      "name": "withdrawEther",
      "outputs": [],
      "payable": false,
      "stateMutability": "nonpayable",
      "type": "function"
    },
    {
      "constant": false,
      "inputs": [],
      "name": "tokenToEther",
      "outputs": [],
      "payable": false,
      "stateMutability": "nonpayable",
      "type": "function"
    },
    {
      "constant": false,
      "inputs": [
        {
          "name": "_priceChannel",
          "type": "uint256"
        }
      ],
      "name": "modifierPriceChannel",
      "outputs": [],
      "payable": false,
      "stateMutability": "nonpayable",
      "type": "function"
    },
    {
      "constant": false,
      "inputs": [
        {
          "name": "_seuil",
          "type": "uint256"
        }
      ],
      "name": "modifierMeriteBonus",
      "outputs": [],
      "payable": false,
      "stateMutability": "nonpayable",
      "type": "function"
    },
    {
      "constant": false,
      "inputs": [
        {
          "name": "_tokenBonus",
          "type": "uint256"
        }
      ],
      "name": "modifierTokenBonus",
      "outputs": [],
      "payable": false,
      "stateMutability": "nonpayable",
      "type": "function"
    },
    {
      "constant": false,
      "inputs": [
        {
          "name": "_laspsTime",
          "type": "uint256"
        }
      ],
      "name": "modifierLapsTimeToWithdraw",
      "outputs": [],
      "payable": false,
      "stateMutability": "nonpayable",
      "type": "function"
    },
    {
      "constant": false,
      "inputs": [
        {
          "name": "_TimeToWithdraw",
          "type": "uint256"
        }
      ],
      "name": "modifierTimeToWithdraw",
      "outputs": [],
      "payable": false,
      "stateMutability": "nonpayable",
      "type": "function"
    },
    {
      "constant": false,
      "inputs": [
        {
          "name": "_maxAmount",
          "type": "uint256"
        }
      ],
      "name": "modifierMaxAmount",
      "outputs": [],
      "payable": false,
      "stateMutability": "nonpayable",
      "type": "function"
    },
    {
      "constant": false,
      "inputs": [
        {
          "name": "_minAmount",
          "type": "uint256"
        }
      ],
      "name": "modifierMinAmount",
      "outputs": [],
      "payable": false,
      "stateMutability": "nonpayable",
      "type": "function"
    },
    {
      "constant": false,
      "inputs": [
        {
          "name": "_priceChannel",
          "type": "uint256"
        }
      ],
      "name": "modifierCharges",
      "outputs": [],
      "payable": false,
      "stateMutability": "nonpayable",
      "type": "function"
    },
    {
      "constant": false,
      "inputs": [
        {
          "name": "_priceGroup",
          "type": "uint256"
        }
      ],
      "name": "modifierPriceGroup",
      "outputs": [],
      "payable": false,
      "stateMutability": "nonpayable",
      "type": "function"
    },
    {
      "constant": false,
      "inputs": [
        {
          "name": "_priceMember",
          "type": "uint256"
        }
      ],
      "name": "modifierPriceMember",
      "outputs": [],
      "payable": false,
      "stateMutability": "nonpayable",
      "type": "function"
    },
    {
      "constant": true,
      "inputs": [],
      "name": "getGroupesPerAddress",
      "outputs": [
        {
          "name": "",
          "type": "uint256[]"
        }
      ],
      "payable": false,
      "stateMutability": "view",
      "type": "function"
    },
    {
      "constant": true,
      "inputs": [
        {
          "name": "_groupe",
          "type": "string"
        }
      ],
      "name": "getMembres",
      "outputs": [
        {
          "name": "",
          "type": "uint256[]"
        }
      ],
      "payable": false,
      "stateMutability": "view",
      "type": "function"
    },
    {
      "constant": true,
      "inputs": [
        {
          "name": "_pseudo",
          "type": "string"
        }
      ],
      "name": "getDescription",
      "outputs": [
        {
          "name": "",
          "type": "string"
        }
      ],
      "payable": false,
      "stateMutability": "view",
      "type": "function"
    },
    {
      "constant": true,
      "inputs": [
        {
          "name": "_ID",
          "type": "uint256"
        }
      ],
      "name": "getNomMembre",
      "outputs": [
        {
          "name": "",
          "type": "string"
        }
      ],
      "payable": false,
      "stateMutability": "view",
      "type": "function"
    },
    {
      "constant": true,
      "inputs": [
        {
          "name": "_pseudo",
          "type": "string"
        }
      ],
      "name": "getGroupe",
      "outputs": [
        {
          "name": "",
          "type": "string"
        }
      ],
      "payable": false,
      "stateMutability": "view",
      "type": "function"
    },
    {
      "constant": true,
      "inputs": [
        {
          "name": "_pseudo",
          "type": "string"
        }
      ],
      "name": "getMontant",
      "outputs": [
        {
          "name": "",
          "type": "uint256"
        }
      ],
      "payable": false,
      "stateMutability": "view",
      "type": "function"
    },
    {
      "constant": true,
      "inputs": [
        {
          "name": "_pseudo",
          "type": "string"
        }
      ],
      "name": "getEncours",
      "outputs": [
        {
          "name": "",
          "type": "uint256"
        }
      ],
      "payable": false,
      "stateMutability": "view",
      "type": "function"
    },
    {
      "constant": true,
      "inputs": [
        {
          "name": "_pseudo",
          "type": "string"
        }
      ],
      "name": "getDonnations",
      "outputs": [
        {
          "name": "",
          "type": "uint256"
        }
      ],
      "payable": false,
      "stateMutability": "view",
      "type": "function"
    },
    {
      "constant": true,
      "inputs": [
        {
          "name": "_pseudo",
          "type": "string"
        }
      ],
      "name": "getDemandeur",
      "outputs": [
        {
          "name": "",
          "type": "address"
        }
      ],
      "payable": false,
      "stateMutability": "view",
      "type": "function"
    },
    {
      "constant": true,
      "inputs": [
        {
          "name": "_pseudo",
          "type": "string"
        }
      ],
      "name": "getReceptions",
      "outputs": [
        {
          "name": "",
          "type": "uint256"
        }
      ],
      "payable": false,
      "stateMutability": "view",
      "type": "function"
    },
    {
      "constant": true,
      "inputs": [
        {
          "name": "_pseudo",
          "type": "string"
        }
      ],
      "name": "getContratCible",
      "outputs": [
        {
          "name": "",
          "type": "address"
        }
      ],
      "payable": false,
      "stateMutability": "view",
      "type": "function"
    },
    {
      "constant": true,
      "inputs": [
        {
          "name": "_ID",
          "type": "uint256"
        }
      ],
      "name": "getNomGroupe",
      "outputs": [
        {
          "name": "",
          "type": "string"
        }
      ],
      "payable": false,
      "stateMutability": "view",
      "type": "function"
    },
    {
      "constant": true,
      "inputs": [],
      "name": "getOwnedGroupe",
      "outputs": [
        {
          "name": "",
          "type": "uint256[]"
        }
      ],
      "payable": false,
      "stateMutability": "view",
      "type": "function"
    },
    {
      "constant": true,
      "inputs": [
        {
          "name": "_groupe",
          "type": "string"
        }
      ],
      "name": "getPseudoInGroup",
      "outputs": [
        {
          "name": "",
          "type": "string"
        }
      ],
      "payable": false,
      "stateMutability": "view",
      "type": "function"
    }
  ],
  "bytecode": "0x608060405234801561001057600080fd5b5033600360006101000a81548173ffffffffffffffffffffffffffffffffffffffff021916908373ffffffffffffffffffffffffffffffffffffffff160217905550655af3107a4000600f8190555061271060108190555060646011819055506402540be400601281905550620186a06013819055506000601481905550620f42406015819055506103e86016819055506064601781905550600a601881905550614bf7806100c06000396000f3fe608060405260043610610288576000357c0100000000000000000000000000000000000000000000000000000000900463ffffffff16806303864bda1461028d57806306fdde031461039557806307ef533714610425578063095ea7b31461045057806317503266146104c357806318160ddd146104fe5780631e0afe57146105295780632055bd081461059557806323b872dd146106d6578063283a2b461461076957806329c77347146108e55780632a51becf14610a02578063313ce56714610ade578063370c29f914610b155780633950935114610b50578063397ef76914610bc35780633bed33ce14610bee5780633c431d6a14610c295780634152299714610c5457806345de2ca014610d085780634a3f4a5d14610e495780634b7b03cf14610e745780634dc8872914610f285780635126670614610ff057806354a434fc1461102b57806357430264146110565780635f0935531461113257806370a082311461116d5780637aede272146111d25780637ff774d8146113135780638d41865f1461134e5780638da5cb5b146113795780638f333341146113d057806395d89b41146115425780639acdb25b146115d25780639d05e9ab1461160d578063a18b7c11146116e9578063a457c2d714611714578063a9059cbb14611787578063beaf3b0d146117fa578063d335c04314611835578063d40dc87014611860578063d74b10a51461188b578063da28be7514611967578063db56926d1461197e578063dd62ed3e14611a59578063ddbcb5fa14611ade578063e09c813614611b09578063e7637a7d14611b75578063f2fde38b14611c7d578063f4343df414611cce578063f462966514611e20578063f483977214611e5b578063f8efcf4f14611e96575b600080fd5b34801561029957600080fd5b50610353600480360360208110156102b057600080fd5b81019080803590602001906401000000008111156102cd57600080fd5b8201836020820111156102df57600080fd5b8035906020019184600183028401116401000000008311171561030157600080fd5b91908080601f016020809104026020016040519081016040528093929190818152602001838380828437600081840152601f19601f820116905080830192505050505050509192919290505050611ed1565b604051808273ffffffffffffffffffffffffffffffffffffffff1673ffffffffffffffffffffffffffffffffffffffff16815260200191505060405180910390f35b3480156103a157600080fd5b506103aa611f7c565b6040518080602001828103825283818151815260200191508051906020019080838360005b838110156103ea5780820151818401526020810190506103cf565b50505050905090810190601f1680156104175780820380516001836020036101000a031916815260200191505b509250505060405180910390f35b34801561043157600080fd5b5061043a611fb5565b6040518082815260200191505060405180910390f35b34801561045c57600080fd5b506104a96004803603604081101561047357600080fd5b81019080803573ffffffffffffffffffffffffffffffffffffffff16906020019092919080359060200190929190505050611fbb565b604051808215151515815260200191505060405180910390f35b3480156104cf57600080fd5b506104fc600480360360208110156104e657600080fd5b8101908080359060200190929190505050611fd2565b005b34801561050a57600080fd5b50610513612038565b6040518082815260200191505060405180910390f35b34801561053557600080fd5b5061053e612042565b6040518080602001828103825283818151815260200191508051906020019060200280838360005b83811015610581578082015181840152602081019050610566565b505050509050019250505060405180910390f35b3480156105a157600080fd5b5061065b600480360360208110156105b857600080fd5b81019080803590602001906401000000008111156105d557600080fd5b8201836020820111156105e757600080fd5b8035906020019184600183028401116401000000008311171561060957600080fd5b91908080601f016020809104026020016040519081016040528093929190818152602001838380828437600081840152601f19601f8201169050808301925050505050505091929192905050506120d7565b6040518080602001828103825283818151815260200191508051906020019080838360005b8381101561069b578082015181840152602081019050610680565b50505050905090810190601f1680156106c85780820380516001836020036101000a031916815260200191505b509250505060405180910390f35b3480156106e257600080fd5b5061074f600480360360608110156106f957600080fd5b81019080803573ffffffffffffffffffffffffffffffffffffffff169060200190929190803573ffffffffffffffffffffffffffffffffffffffff169060200190929190803590602001909291905050506121f0565b604051808215151515815260200191505060405180910390f35b6108e36004803603608081101561077f57600080fd5b8101908080359060200190929190803590602001906401000000008111156107a657600080fd5b8201836020820111156107b857600080fd5b803590602001918460018302840111640100000000831117156107da57600080fd5b91908080601f016020809104026020016040519081016040528093929190818152602001838380828437600081840152601f19601f820116905080830192505050505050509192919290803573ffffffffffffffffffffffffffffffffffffffff1690602001909291908035906020019064010000000081111561085d57600080fd5b82018360208201111561086f57600080fd5b8035906020019184600183028401116401000000008311171561089157600080fd5b91908080601f016020809104026020016040519081016040528093929190818152602001838380828437600081840152601f19601f8201169050808301925050505050505091929192905050506122a1565b005b3480156108f157600080fd5b506109ab6004803603602081101561090857600080fd5b810190808035906020019064010000000081111561092557600080fd5b82018360208201111561093757600080fd5b8035906020019184600183028401116401000000008311171561095957600080fd5b91908080601f016020809104026020016040519081016040528093929190818152602001838380828437600081840152601f19601f82011690508083019250505050505050919291929050505061244d565b6040518080602001828103825283818151815260200191508051906020019060200280838360005b838110156109ee5780820151818401526020810190506109d3565b505050509050019250505060405180910390f35b348015610a0e57600080fd5b50610ac860048036036020811015610a2557600080fd5b8101908080359060200190640100000000811115610a4257600080fd5b820183602082011115610a5457600080fd5b80359060200191846001830284011164010000000083111715610a7657600080fd5b91908080601f016020809104026020016040519081016040528093929190818152602001838380828437600081840152601f19601f820116905080830192505050505050509192919290505050612510565b6040518082815260200191505060405180910390f35b348015610aea57600080fd5b50610af361259b565b604051808263ffffffff1663ffffffff16815260200191505060405180910390f35b348015610b2157600080fd5b50610b4e60048036036020811015610b3857600080fd5b81019080803590602001909291905050506125a0565b005b348015610b5c57600080fd5b50610ba960048036036040811015610b7357600080fd5b81019080803573ffffffffffffffffffffffffffffffffffffffff16906020019092919080359060200190929190505050612606565b604051808215151515815260200191505060405180910390f35b348015610bcf57600080fd5b50610bd86126ab565b6040518082815260200191505060405180910390f35b348015610bfa57600080fd5b50610c2760048036036020811015610c1157600080fd5b81019080803590602001909291905050506126b1565b005b348015610c3557600080fd5b50610c3e612757565b6040518082815260200191505060405180910390f35b348015610c6057600080fd5b50610c8d60048036036020811015610c7757600080fd5b810190808035906020019092919050505061275d565b6040518080602001828103825283818151815260200191508051906020019080838360005b83811015610ccd578082015181840152602081019050610cb2565b50505050905090810190601f168015610cfa5780820380516001836020036101000a031916815260200191505b509250505060405180910390f35b348015610d1457600080fd5b50610dce60048036036020811015610d2b57600080fd5b8101908080359060200190640100000000811115610d4857600080fd5b820183602082011115610d5a57600080fd5b80359060200191846001830284011164010000000083111715610d7c57600080fd5b91908080601f016020809104026020016040519081016040528093929190818152602001838380828437600081840152601f19601f820116905080830192505050505050509192919290505050612812565b6040518080602001828103825283818151815260200191508051906020019080838360005b83811015610e0e578082015181840152602081019050610df3565b50505050905090810190601f168015610e3b5780820380516001836020036101000a031916815260200191505b509250505060405180910390f35b348015610e5557600080fd5b50610e5e612935565b6040518082815260200191505060405180910390f35b348015610e8057600080fd5b50610ead60048036036020811015610e9757600080fd5b810190808035906020019092919050505061293b565b6040518080602001828103825283818151815260200191508051906020019080838360005b83811015610eed578082015181840152602081019050610ed2565b50505050905090810190601f168015610f1a5780820380516001836020036101000a031916815260200191505b509250505060405180910390f35b348015610f3457600080fd5b50610fee60048036036020811015610f4b57600080fd5b8101908080359060200190640100000000811115610f6857600080fd5b820183602082011115610f7a57600080fd5b80359060200191846001830284011164010000000083111715610f9c57600080fd5b91908080601f016020809104026020016040519081016040528093929190818152602001838380828437600081840152601f19601f8201169050808301925050505050505091929192905050506129f3565b005b348015610ffc57600080fd5b506110296004803603602081101561101357600080fd5b8101908080359060200190929190505050612bc3565b005b34801561103757600080fd5b50611040612c29565b6040518082815260200191505060405180910390f35b34801561106257600080fd5b5061111c6004803603602081101561107957600080fd5b810190808035906020019064010000000081111561109657600080fd5b8201836020820111156110a857600080fd5b803590602001918460018302840111640100000000831117156110ca57600080fd5b91908080601f016020809104026020016040519081016040528093929190818152602001838380828437600081840152601f19601f820116905080830192505050505050509192919290505050612c2f565b6040518082815260200191505060405180910390f35b34801561113e57600080fd5b5061116b6004803603602081101561115557600080fd5b8101908080359060200190929190505050612cba565b005b34801561117957600080fd5b506111bc6004803603602081101561119057600080fd5b81019080803573ffffffffffffffffffffffffffffffffffffffff169060200190929190505050612d20565b6040518082815260200191505060405180910390f35b3480156111de57600080fd5b50611298600480360360208110156111f557600080fd5b810190808035906020019064010000000081111561121257600080fd5b82018360208201111561122457600080fd5b8035906020019184600183028401116401000000008311171561124657600080fd5b91908080601f016020809104026020016040519081016040528093929190818152602001838380828437600081840152601f19601f820116905080830192505050505050509192919290505050612d68565b6040518080602001828103825283818151815260200191508051906020019080838360005b838110156112d85780820151818401526020810190506112bd565b50505050905090810190601f1680156113055780820380516001836020036101000a031916815260200191505b509250505060405180910390f35b34801561131f57600080fd5b5061134c6004803603602081101561133657600080fd5b8101908080359060200190929190505050612e8b565b005b34801561135a57600080fd5b50611363612ef1565b6040518082815260200191505060405180910390f35b34801561138557600080fd5b5061138e612ef7565b604051808273ffffffffffffffffffffffffffffffffffffffff1673ffffffffffffffffffffffffffffffffffffffff16815260200191505060405180910390f35b611540600480360360608110156113e657600080fd5b81019080803573ffffffffffffffffffffffffffffffffffffffff1690602001909291908035906020019064010000000081111561142357600080fd5b82018360208201111561143557600080fd5b8035906020019184600183028401116401000000008311171561145757600080fd5b91908080601f016020809104026020016040519081016040528093929190818152602001838380828437600081840152601f19601f820116905080830192505050505050509192919290803590602001906401000000008111156114ba57600080fd5b8201836020820111156114cc57600080fd5b803590602001918460018302840111640100000000831117156114ee57600080fd5b91908080601f016020809104026020016040519081016040528093929190818152602001838380828437600081840152601f19601f820116905080830192505050505050509192919290505050612f1d565b005b34801561154e57600080fd5b506115576132bb565b6040518080602001828103825283818151815260200191508051906020019080838360005b8381101561159757808201518184015260208101905061157c565b50505050905090810190601f1680156115c45780820380516001836020036101000a031916815260200191505b509250505060405180910390f35b3480156115de57600080fd5b5061160b600480360360208110156115f557600080fd5b81019080803590602001909291905050506132f4565b005b34801561161957600080fd5b506116d36004803603602081101561163057600080fd5b810190808035906020019064010000000081111561164d57600080fd5b82018360208201111561165f57600080fd5b8035906020019184600183028401116401000000008311171561168157600080fd5b91908080601f016020809104026020016040519081016040528093929190818152602001838380828437600081840152601f19601f82011690508083019250505050505050919291929050505061335a565b6040518082815260200191505060405180910390f35b3480156116f557600080fd5b506116fe6133e5565b6040518082815260200191505060405180910390f35b34801561172057600080fd5b5061176d6004803603604081101561173757600080fd5b81019080803573ffffffffffffffffffffffffffffffffffffffff169060200190929190803590602001909291905050506133eb565b604051808215151515815260200191505060405180910390f35b34801561179357600080fd5b506117e0600480360360408110156117aa57600080fd5b81019080803573ffffffffffffffffffffffffffffffffffffffff16906020019092919080359060200190929190505050613490565b604051808215151515815260200191505060405180910390f35b34801561180657600080fd5b506118336004803603602081101561181d57600080fd5b81019080803590602001909291905050506134a7565b005b34801561184157600080fd5b5061184a61350d565b6040518082815260200191505060405180910390f35b34801561186c57600080fd5b50611875613513565b6040518082815260200191505060405180910390f35b34801561189757600080fd5b50611951600480360360208110156118ae57600080fd5b81019080803590602001906401000000008111156118cb57600080fd5b8201836020820111156118dd57600080fd5b803590602001918460018302840111640100000000831117156118ff57600080fd5b91908080601f016020809104026020016040519081016040528093929190818152602001838380828437600081840152601f19601f820116905080830192505050505050509192919290505050613519565b6040518082815260200191505060405180910390f35b34801561197357600080fd5b5061197c6135a4565b005b611a576004803603604081101561199457600080fd5b81019080803590602001906401000000008111156119b157600080fd5b8201836020820111156119c357600080fd5b803590602001918460018302840111640100000000831117156119e557600080fd5b91908080601f016020809104026020016040519081016040528093929190818152602001838380828437600081840152601f19601f820116905080830192505050505050509192919290803573ffffffffffffffffffffffffffffffffffffffff169060200190929190505050613689565b005b348015611a6557600080fd5b50611ac860048036036040811015611a7c57600080fd5b81019080803573ffffffffffffffffffffffffffffffffffffffff169060200190929190803573ffffffffffffffffffffffffffffffffffffffff1690602001909291905050506137de565b6040518082815260200191505060405180910390f35b348015611aea57600080fd5b50611af3613865565b6040518082815260200191505060405180910390f35b348015611b1557600080fd5b50611b1e61386b565b6040518080602001828103825283818151815260200191508051906020019060200280838360005b83811015611b61578082015181840152602081019050611b46565b505050509050019250505060405180910390f35b348015611b8157600080fd5b50611c3b60048036036020811015611b9857600080fd5b8101908080359060200190640100000000811115611bb557600080fd5b820183602082011115611bc757600080fd5b80359060200191846001830284011164010000000083111715611be957600080fd5b91908080601f016020809104026020016040519081016040528093929190818152602001838380828437600081840152601f19601f820116905080830192505050505050509192919290505050613900565b604051808273ffffffffffffffffffffffffffffffffffffffff1673ffffffffffffffffffffffffffffffffffffffff16815260200191505060405180910390f35b348015611c8957600080fd5b50611ccc60048036036020811015611ca057600080fd5b81019080803573ffffffffffffffffffffffffffffffffffffffff1690602001909291905050506139ab565b005b611e1e60048036036040811015611ce457600080fd5b8101908080359060200190640100000000811115611d0157600080fd5b820183602082011115611d1357600080fd5b80359060200191846001830284011164010000000083111715611d3557600080fd5b91908080601f016020809104026020016040519081016040528093929190818152602001838380828437600081840152601f19601f82011690508083019250505050505050919291929080359060200190640100000000811115611d9857600080fd5b820183602082011115611daa57600080fd5b80359060200191846001830284011164010000000083111715611dcc57600080fd5b91908080601f016020809104026020016040519081016040528093929190818152602001838380828437600081840152601f19601f820116905080830192505050505050509192919290505050613b03565b005b348015611e2c57600080fd5b50611e5960048036036020811015611e4357600080fd5b8101908080359060200190929190505050614000565b005b348015611e6757600080fd5b50611e9460048036036020811015611e7e57600080fd5b8101908080359060200190929190505050614066565b005b348015611ea257600080fd5b50611ecf60048036036020811015611eb957600080fd5b81019080803590602001909291905050506140cc565b005b600060046000600d846040518082805190602001908083835b602083101515611f0f5780518252602082019150602081019050602083039250611eea565b6001836020036101000a038019825116818451168082178552505050505050905001915050908152602001604051809103902054815260200190815260200160002060000160009054906101000a900473ffffffffffffffffffffffffffffffffffffffff169050919050565b6040805190810160405280600881526020017f67696d69636f696e00000000000000000000000000000000000000000000000081525081565b60145481565b6000611fc8338484614132565b6001905092915050565b600360009054906101000a900473ffffffffffffffffffffffffffffffffffffffff1673ffffffffffffffffffffffffffffffffffffffff163373ffffffffffffffffffffffffffffffffffffffff1614151561202e57600080fd5b8060168190555050565b6000600254905090565b6060600560003373ffffffffffffffffffffffffffffffffffffffff1673ffffffffffffffffffffffffffffffffffffffff1681526020019081526020016000208054806020026020016040519081016040528092919081815260200182805480156120cd57602002820191906000526020600020905b8154815260200190600101908083116120b9575b5050505050905090565b60606000828051906020012060019004905060046000600e600084815260200190815260200160002060003373ffffffffffffffffffffffffffffffffffffffff1673ffffffffffffffffffffffffffffffffffffffff1681526020019081526020016000205481526020019081526020016000206001018054600181600116156101000203166002900480601f0160208091040260200160405190810160405280929190818152602001828054600181600116156101000203166002900480156121e35780601f106121b8576101008083540402835291602001916121e3565b820191906000526020600020905b8154815290600101906020018083116121c657829003601f168201915b5050505050915050919050565b60006121fd848484614295565b612296843361229185600160008a73ffffffffffffffffffffffffffffffffffffffff1673ffffffffffffffffffffffffffffffffffffffff16815260200190815260200160002060003373ffffffffffffffffffffffffffffffffffffffff1673ffffffffffffffffffffffffffffffffffffffff1681526020019081526020016000205461446190919063ffffffff16565b614132565b600190509392505050565b3373ffffffffffffffffffffffffffffffffffffffff16600c846040518082805190602001908083835b6020831015156122f057805182526020820191506020810190506020830392506122cb565b6001836020036101000a038019825116818451168082178552505050505050905001915050908152602001604051809103902060009054906101000a900473ffffffffffffffffffffffffffffffffffffffff1673ffffffffffffffffffffffffffffffffffffffff1614151561236657600080fd5b600083805190602001206001900490506018543414151561238657600080fd5b600060046000838152602001908152602001600020600301541415156123ab57600080fd5b846004600083815260200190815260200160002060030181905550826004600083815260200190815260200160002060070160006101000a81548173ffffffffffffffffffffffffffffffffffffffff021916908373ffffffffffffffffffffffffffffffffffffffff16021790555081600460008381526020019081526020016000206008019080519060200190612445929190614b26565b505050505050565b60606006826040518082805190602001908083835b6020831015156124875780518252602082019150602081019050602083039250612462565b6001836020036101000a038019825116818451168082178552505050505050905001915050908152602001604051809103902080548060200260200160405190810160405280929190818152602001828054801561250457602002820191906000526020600020905b8154815260200190600101908083116124f0575b50505050509050919050565b600060046000600d846040518082805190602001908083835b60208310151561254e5780518252602082019150602081019050602083039250612529565b6001836020036101000a0380198251168184511680821785525050505050509050019150509081526020016040518091039020548152602001908152602001600020600501549050919050565b601281565b600360009054906101000a900473ffffffffffffffffffffffffffffffffffffffff1673ffffffffffffffffffffffffffffffffffffffff163373ffffffffffffffffffffffffffffffffffffffff161415156125fc57600080fd5b8060188190555050565b60006126a1338461269c85600160003373ffffffffffffffffffffffffffffffffffffffff1673ffffffffffffffffffffffffffffffffffffffff16815260200190815260200160002060008973ffffffffffffffffffffffffffffffffffffffff1673ffffffffffffffffffffffffffffffffffffffff1681526020019081526020016000205461447a90919063ffffffff16565b614132565b6001905092915050565b60135481565b600360009054906101000a900473ffffffffffffffffffffffffffffffffffffffff1673ffffffffffffffffffffffffffffffffffffffff163373ffffffffffffffffffffffffffffffffffffffff1614151561270d57600080fd5b3373ffffffffffffffffffffffffffffffffffffffff166108fc829081150290604051600060405180830381858888f19350505050158015612753573d6000803e3d6000fd5b5050565b60115481565b6060600760008381526020019081526020016000208054600181600116156101000203166002900480601f0160208091040260200160405190810160405280929190818152602001828054600181600116156101000203166002900480156128065780601f106127db57610100808354040283529160200191612806565b820191906000526020600020905b8154815290600101906020018083116127e957829003601f168201915b50505050509050919050565b606060046000600d846040518082805190602001908083835b602083101515612850578051825260208201915060208101905060208303925061282b565b6001836020036101000a03801982511681845116808217855250505050505090500191505090815260200160405180910390205481526020019081526020016000206008018054600181600116156101000203166002900480601f0160208091040260200160405190810160405280929190818152602001828054600181600116156101000203166002900480156129295780601f106128fe57610100808354040283529160200191612929565b820191906000526020600020905b81548152906001019060200180831161290c57829003601f168201915b50505050509050919050565b60165481565b6060600460008381526020019081526020016000206001018054600181600116156101000203166002900480601f0160208091040260200160405190810160405280929190818152602001828054600181600116156101000203166002900480156129e75780601f106129bc576101008083540402835291602001916129e7565b820191906000526020600020905b8154815290600101906020018083116129ca57829003601f168201915b50505050509050919050565b600081805190602001206001900490506000600460008381526020019081526020016000206004015414151515612a2957600080fd5b3373ffffffffffffffffffffffffffffffffffffffff166004600083815260200190815260200160002060000160009054906101000a900473ffffffffffffffffffffffffffffffffffffffff1673ffffffffffffffffffffffffffffffffffffffff16141515612a9957600080fd5b3373ffffffffffffffffffffffffffffffffffffffff166108fc60046000848152602001908152602001600020600401549081150290604051600060405180830381858888f19350505050158015612af5573d6000803e3d6000fd5b50600060046000838152602001908152602001600020600401819055506000600460008381526020019081526020016000206003018190555060006004600083815260200190815260200160002060070160006101000a81548173ffffffffffffffffffffffffffffffffffffffff021916908373ffffffffffffffffffffffffffffffffffffffff1602179055506020604051908101604052806000815250600460008381526020019081526020016000206008019080519060200190612bbe929190614b26565b505050565b600360009054906101000a900473ffffffffffffffffffffffffffffffffffffffff1673ffffffffffffffffffffffffffffffffffffffff163373ffffffffffffffffffffffffffffffffffffffff16141515612c1f57600080fd5b8060118190555050565b60125481565b600060046000600d846040518082805190602001908083835b602083101515612c6d5780518252602082019150602081019050602083039250612c48565b6001836020036101000a0380198251168184511680821785525050505050509050019150509081526020016040518091039020548152602001908152602001600020600601549050919050565b600360009054906101000a900473ffffffffffffffffffffffffffffffffffffffff1673ffffffffffffffffffffffffffffffffffffffff163373ffffffffffffffffffffffffffffffffffffffff16141515612d1657600080fd5b8060178190555050565b60008060008373ffffffffffffffffffffffffffffffffffffffff1673ffffffffffffffffffffffffffffffffffffffff168152602001908152602001600020549050919050565b606060046000600d846040518082805190602001908083835b602083101515612da65780518252602082019150602081019050602083039250612d81565b6001836020036101000a03801982511681845116808217855250505050505090500191505090815260200160405180910390205481526020019081526020016000206002018054600181600116156101000203166002900480601f016020809104026020016040519081016040528092919081815260200182805460018160011615610100020316600290048015612e7f5780601f10612e5457610100808354040283529160200191612e7f565b820191906000526020600020905b815481529060010190602001808311612e6257829003601f168201915b50505050509050919050565b600360009054906101000a900473ffffffffffffffffffffffffffffffffffffffff1673ffffffffffffffffffffffffffffffffffffffff163373ffffffffffffffffffffffffffffffffffffffff16141515612ee757600080fd5b8060138190555050565b60155481565b600360009054906101000a900473ffffffffffffffffffffffffffffffffffffffff1681565b34601754141515612f2d57600080fd5b600073ffffffffffffffffffffffffffffffffffffffff16600c826040518082805190602001908083835b602083101515612f7d5780518252602082019150602081019050602083039250612f58565b6001836020036101000a038019825116818451168082178552505050505050905001915050908152602001604051809103902060009054906101000a900473ffffffffffffffffffffffffffffffffffffffff1673ffffffffffffffffffffffffffffffffffffffff16141515612ff357600080fd5b3373ffffffffffffffffffffffffffffffffffffffff166009836040518082805190602001908083835b602083101515613042578051825260208201915060208101905060208303925061301d565b6001836020036101000a038019825116818451168082178552505050505050905001915050908152602001604051809103902060009054906101000a900473ffffffffffffffffffffffffffffffffffffffff1673ffffffffffffffffffffffffffffffffffffffff161415156130b857600080fd5b82600c826040518082805190602001908083835b6020831015156130f157805182526020820191506020810190506020830392506130cc565b6001836020036101000a038019825116818451168082178552505050505050905001915050908152602001604051809103902060006101000a81548173ffffffffffffffffffffffffffffffffffffffff021916908373ffffffffffffffffffffffffffffffffffffffff16021790555060008280519060200120600190049050600560008573ffffffffffffffffffffffffffffffffffffffff1673ffffffffffffffffffffffffffffffffffffffff168152602001908152602001600020819080600181540180825580915050906001820390600052602060002001600090919290919091505550600b836040518082805190602001908083835b60208310151561321357805182526020820191506020810190506020830392506131ee565b6001836020036101000a03801982511681845116808217855250505050505090500191505090815260200160405180910390208490806001815401808255809150509060018203906000526020600020016000909192909190916101000a81548173ffffffffffffffffffffffffffffffffffffffff021916908373ffffffffffffffffffffffffffffffffffffffff160217905550506132b5828486614498565b50505050565b6040805190810160405280600381526020017f474d43000000000000000000000000000000000000000000000000000000000081525081565b600360009054906101000a900473ffffffffffffffffffffffffffffffffffffffff1673ffffffffffffffffffffffffffffffffffffffff163373ffffffffffffffffffffffffffffffffffffffff1614151561335057600080fd5b8060158190555050565b600060046000600d846040518082805190602001908083835b6020831015156133985780518252602082019150602081019050602083039250613373565b6001836020036101000a0380198251168184511680821785525050505050509050019150509081526020016040518091039020548152602001908152602001600020600401549050919050565b60185481565b6000613486338461348185600160003373ffffffffffffffffffffffffffffffffffffffff1673ffffffffffffffffffffffffffffffffffffffff16815260200190815260200160002060008973ffffffffffffffffffffffffffffffffffffffff1673ffffffffffffffffffffffffffffffffffffffff1681526020019081526020016000205461446190919063ffffffff16565b614132565b6001905092915050565b600061349d338484614295565b6001905092915050565b600360009054906101000a900473ffffffffffffffffffffffffffffffffffffffff1673ffffffffffffffffffffffffffffffffffffffff163373ffffffffffffffffffffffffffffffffffffffff1614151561350357600080fd5b80600f8190555050565b60175481565b600f5481565b600060046000600d846040518082805190602001908083835b6020831015156135575780518252602082019150602081019050602083039250613532565b6001836020036101000a0380198251168184511680821785525050505050509050019150509081526020016040518091039020548152602001908152602001600020600301549050919050565b6000601254438115156135b357fe5b06101580156135d15750601354601254438115156135cd57fe5b0611155b15156135dc57600080fd5b60006135fb6015546135ed33612d20565b61478990919063ffffffff16565b9050613612601454826147a490919063ffffffff16565b503373ffffffffffffffffffffffffffffffffffffffff166108fc6136488361363a33612d20565b61447a90919063ffffffff16565b9081150290604051600060405180830381858888f19350505050158015613673573d6000803e3d6000fd5b506136863361368133612d20565b6147d7565b50565b600082805190602001206001900490508173ffffffffffffffffffffffffffffffffffffffff166004600083815260200190815260200160002060000160009054906101000a900473ffffffffffffffffffffffffffffffffffffffff1673ffffffffffffffffffffffffffffffffffffffff1614151561370957600080fd5b6004600082815260200190815260200160002060040154600460008381526020019081526020016000206003015411151561374357600080fd5b60006011543481151561375257fe5b0490506137613382340161487e565b600034905080600460008581526020019081526020016000206005016000828254019250508190555081810390508060046000858152602001908152602001600020600601600082825401925050819055508060046000858152602001908152602001600020600401600082825401925050819055505050505050565b6000600160008473ffffffffffffffffffffffffffffffffffffffff1673ffffffffffffffffffffffffffffffffffffffff16815260200190815260200160002060008373ffffffffffffffffffffffffffffffffffffffff1673ffffffffffffffffffffffffffffffffffffffff16815260200190815260200160002054905092915050565b60105481565b6060600860003373ffffffffffffffffffffffffffffffffffffffff1673ffffffffffffffffffffffffffffffffffffffff1681526020019081526020016000208054806020026020016040519081016040528092919081815260200182805480156138f657602002820191906000526020600020905b8154815260200190600101908083116138e2575b5050505050905090565b600060046000600d846040518082805190602001908083835b60208310151561393e5780518252602082019150602081019050602083039250613919565b6001836020036101000a038019825116818451168082178552505050505050905001915050908152602001604051809103902054815260200190815260200160002060070160009054906101000a900473ffffffffffffffffffffffffffffffffffffffff169050919050565b600360009054906101000a900473ffffffffffffffffffffffffffffffffffffffff1673ffffffffffffffffffffffffffffffffffffffff163373ffffffffffffffffffffffffffffffffffffffff16141515613a0757600080fd5b600073ffffffffffffffffffffffffffffffffffffffff168173ffffffffffffffffffffffffffffffffffffffff1614151515613a4357600080fd5b8073ffffffffffffffffffffffffffffffffffffffff16600360009054906101000a900473ffffffffffffffffffffffffffffffffffffffff1673ffffffffffffffffffffffffffffffffffffffff167f8be0079c531659141344cd1fd0a4f28419497f9722a3daafe3b4186f6b6457e060405160405180910390a380600360006101000a81548173ffffffffffffffffffffffffffffffffffffffff021916908373ffffffffffffffffffffffffffffffffffffffff16021790555050565b34601654141515613b1357600080fd5b6000600a836040518082805190602001908083835b602083101515613b4d5780518252602082019150602081019050602083039250613b28565b6001836020036101000a038019825116818451168082178552505050505050905001915050908152602001604051809103902054141515613b8d57600080fd5b600073ffffffffffffffffffffffffffffffffffffffff16600c826040518082805190602001908083835b602083101515613bdd5780518252602082019150602081019050602083039250613bb8565b6001836020036101000a038019825116818451168082178552505050505050905001915050908152602001604051809103902060009054906101000a900473ffffffffffffffffffffffffffffffffffffffff1673ffffffffffffffffffffffffffffffffffffffff16141515613c5357600080fd5b33600c826040518082805190602001908083835b602083101515613c8c5780518252602082019150602081019050602083039250613c67565b6001836020036101000a038019825116818451168082178552505050505050905001915050908152602001604051809103902060006101000a81548173ffffffffffffffffffffffffffffffffffffffff021916908373ffffffffffffffffffffffffffffffffffffffff1602179055506000828051906020012060019004905080600a846040518082805190602001908083835b602083101515613d465780518252602082019150602081019050602083039250613d21565b6001836020036101000a038019825116818451168082178552505050505050905001915050908152602001604051809103902081905550336009846040518082805190602001908083835b602083101515613db65780518252602082019150602081019050602083039250613d91565b6001836020036101000a038019825116818451168082178552505050505050905001915050908152602001604051809103902060006101000a81548173ffffffffffffffffffffffffffffffffffffffff021916908373ffffffffffffffffffffffffffffffffffffffff160217905550600860003373ffffffffffffffffffffffffffffffffffffffff1673ffffffffffffffffffffffffffffffffffffffff16815260200190815260200160002081908060018154018082558091505090600182039060005260206000200160009091929091909150555082600760008381526020019081526020016000209080519060200190613eb7929190614b26565b50600b836040518082805190602001908083835b602083101515613ef05780518252602082019150602081019050602083039250613ecb565b6001836020036101000a03801982511681845116808217855250505050505090500191505090815260200160405180910390203390806001815401808255809150509060018203906000526020600020016000909192909190916101000a81548173ffffffffffffffffffffffffffffffffffffffff021916908373ffffffffffffffffffffffffffffffffffffffff16021790555050600560003373ffffffffffffffffffffffffffffffffffffffff1673ffffffffffffffffffffffffffffffffffffffff168152602001908152602001600020819080600181540180825580915050906001820390600052602060002001600090919290919091505550613ffb828433614498565b505050565b600360009054906101000a900473ffffffffffffffffffffffffffffffffffffffff1673ffffffffffffffffffffffffffffffffffffffff163373ffffffffffffffffffffffffffffffffffffffff1614151561405c57600080fd5b8060148190555050565b600360009054906101000a900473ffffffffffffffffffffffffffffffffffffffff1673ffffffffffffffffffffffffffffffffffffffff163373ffffffffffffffffffffffffffffffffffffffff161415156140c257600080fd5b8060108190555050565b600360009054906101000a900473ffffffffffffffffffffffffffffffffffffffff1673ffffffffffffffffffffffffffffffffffffffff163373ffffffffffffffffffffffffffffffffffffffff1614151561412857600080fd5b8060128190555050565b600073ffffffffffffffffffffffffffffffffffffffff168273ffffffffffffffffffffffffffffffffffffffff161415151561416e57600080fd5b600073ffffffffffffffffffffffffffffffffffffffff168373ffffffffffffffffffffffffffffffffffffffff16141515156141aa57600080fd5b80600160008573ffffffffffffffffffffffffffffffffffffffff1673ffffffffffffffffffffffffffffffffffffffff16815260200190815260200160002060008473ffffffffffffffffffffffffffffffffffffffff1673ffffffffffffffffffffffffffffffffffffffff168152602001908152602001600020819055508173ffffffffffffffffffffffffffffffffffffffff168373ffffffffffffffffffffffffffffffffffffffff167f8c5be1e5ebec7d5bd14f71427d1e84f3dd0314c0f7b2291e5b200ac8c7c3b925836040518082815260200191505060405180910390a3505050565b600073ffffffffffffffffffffffffffffffffffffffff168273ffffffffffffffffffffffffffffffffffffffff16141515156142d157600080fd5b614322816000808673ffffffffffffffffffffffffffffffffffffffff1673ffffffffffffffffffffffffffffffffffffffff1681526020019081526020016000205461446190919063ffffffff16565b6000808573ffffffffffffffffffffffffffffffffffffffff1673ffffffffffffffffffffffffffffffffffffffff168152602001908152602001600020819055506143b5816000808573ffffffffffffffffffffffffffffffffffffffff1673ffffffffffffffffffffffffffffffffffffffff1681526020019081526020016000205461447a90919063ffffffff16565b6000808473ffffffffffffffffffffffffffffffffffffffff1673ffffffffffffffffffffffffffffffffffffffff168152602001908152602001600020819055508173ffffffffffffffffffffffffffffffffffffffff168373ffffffffffffffffffffffffffffffffffffffff167fddf252ad1be2c89b69c2b068fc378daa952ba7f163c4a11628f55a4df523b3ef836040518082815260200191505060405180910390a3505050565b600082821115151561446f57fe5b818303905092915050565b600080828401905083811015151561448e57fe5b8091505092915050565b60008380519060200120600190049050600083805190602001206001900490508273ffffffffffffffffffffffffffffffffffffffff16600c866040518082805190602001908083835b60208310151561450757805182526020820191506020810190506020830392506144e2565b6001836020036101000a038019825116818451168082178552505050505050905001915050908152602001604051809103902060009054906101000a900473ffffffffffffffffffffffffffffffffffffffff1673ffffffffffffffffffffffffffffffffffffffff1614151561457d57600080fd5b846004600084815260200190815260200160002060010190805190602001906145a7929190614b26565b50836004600084815260200190815260200160002060020190805190602001906145d2929190614b26565b50336004600084815260200190815260200160002060000160006101000a81548173ffffffffffffffffffffffffffffffffffffffff021916908373ffffffffffffffffffffffffffffffffffffffff1602179055506006846040518082805190602001908083835b602083101515614660578051825260208201915060208101905060208303925061463b565b6001836020036101000a038019825116818451168082178552505050505050905001915050908152602001604051809103902082908060018154018082558091505090600182039060005260206000200160009091929091909150555081600d866040518082805190602001908083835b6020831015156146f657805182526020820191506020810190506020830392506146d1565b6001836020036101000a03801982511681845116808217855250505050505090500191505090815260200160405180910390208190555081600e600083815260200190815260200160002060003373ffffffffffffffffffffffffffffffffffffffff1673ffffffffffffffffffffffffffffffffffffffff168152602001908152602001600020819055505050505050565b600080828481151561479757fe5b0490508091505092915050565b600080828402905060008414806147c557508284828115156147c257fe5b04145b15156147cd57fe5b8091505092915050565b6147e182826149d2565b61487a823361487584600160008873ffffffffffffffffffffffffffffffffffffffff1673ffffffffffffffffffffffffffffffffffffffff16815260200190815260200160002060003373ffffffffffffffffffffffffffffffffffffffff1673ffffffffffffffffffffffffffffffffffffffff1681526020019081526020016000205461446190919063ffffffff16565b614132565b5050565b600073ffffffffffffffffffffffffffffffffffffffff168273ffffffffffffffffffffffffffffffffffffffff16141515156148ba57600080fd5b6148cf8160025461447a90919063ffffffff16565b600281905550614926816000808573ffffffffffffffffffffffffffffffffffffffff1673ffffffffffffffffffffffffffffffffffffffff1681526020019081526020016000205461447a90919063ffffffff16565b6000808473ffffffffffffffffffffffffffffffffffffffff1673ffffffffffffffffffffffffffffffffffffffff168152602001908152602001600020819055508173ffffffffffffffffffffffffffffffffffffffff16600073ffffffffffffffffffffffffffffffffffffffff167fddf252ad1be2c89b69c2b068fc378daa952ba7f163c4a11628f55a4df523b3ef836040518082815260200191505060405180910390a35050565b600073ffffffffffffffffffffffffffffffffffffffff168273ffffffffffffffffffffffffffffffffffffffff1614151515614a0e57600080fd5b614a238160025461446190919063ffffffff16565b600281905550614a7a816000808573ffffffffffffffffffffffffffffffffffffffff1673ffffffffffffffffffffffffffffffffffffffff1681526020019081526020016000205461446190919063ffffffff16565b6000808473ffffffffffffffffffffffffffffffffffffffff1673ffffffffffffffffffffffffffffffffffffffff16815260200190815260200160002081905550600073ffffffffffffffffffffffffffffffffffffffff168273ffffffffffffffffffffffffffffffffffffffff167fddf252ad1be2c89b69c2b068fc378daa952ba7f163c4a11628f55a4df523b3ef836040518082815260200191505060405180910390a35050565b828054600181600116156101000203166002900490600052602060002090601f016020900481019282601f10614b6757805160ff1916838001178555614b95565b82800160010185558215614b95579182015b82811115614b94578251825591602001919060010190614b79565b5b509050614ba29190614ba6565b5090565b614bc891905b80821115614bc4576000816000905550600101614bac565b5090565b9056fea165627a7a72305820b6d4398fa597a74bffb4d15b0d4c1cf932d98af94d662d3f1f3cab67af22a9420029",
  "source": "pragma solidity ^0.5.0;\n\nimport \"./Gimicoin.sol\";\nimport \"./Ownable.sol\";\n\ncontract Cagnottes is Gimicoin, Ownable{\n\nmapping (uint => channel) private mappChannel;\nmapping (address => uint[]) private mappGroupesForAddress;\nmapping (string => uint[]) private mappGroupeAndChannels;\nmapping (uint => string) private mappIDGroupe;\nmapping (address => uint[]) private mappOwnedGroup;\nmapping (string => address) private mappGroupeOwner;\nmapping (string => uint) private mappNomGroupe;\nmapping (string => address[]) private mappGroupe;\nmapping (string => address) private mappPseudo;\nmapping (string => uint) private mappPseudoToID;\nmapping (uint => mapping (address => uint)) private mappPseudoInGroup;\n\nuint public MAX_AMOUNT;\nuint public MIN_AMOUNT;\nuint public PRICE_RATIO;\nuint public TIME_TOKEN_WITHDRAW;\nuint public LAPS_TIME_TOKEN_WITHDRAW;\nuint public TOKEN_BONUS;\nuint public DESERVE_BONUS;\nuint public PRICE_GROUP;\nuint public PRICE_MEMBRE;\nuint public PRICE_CHANEL;\n\nstruct channel\n{\n  address demandeur;\n  string pseudo;\n  string groupe;\n  uint montant;\n  uint enCours;\n  uint donnations;\n  uint receptions;\n  address contratCible;\n  string description;\n}\n\nconstructor() public\n{\n  MAX_AMOUNT = 100000000000000;\n  MIN_AMOUNT = 10000;\n  PRICE_RATIO = 100;\n  TIME_TOKEN_WITHDRAW = 10000000000;\n  LAPS_TIME_TOKEN_WITHDRAW = 100000;\n  TOKEN_BONUS = 0;\n  DESERVE_BONUS = 1000000;\n  PRICE_GROUP = 1000;\n  PRICE_MEMBRE = 100;\n  PRICE_CHANEL = 10;\n}\n\nfunction creerGroupe(string memory _nom, string memory _pseudo) payable public\n{\n  require(PRICE_GROUP == msg.value);\n  require(mappNomGroupe[_nom] == 0);\n  require(mappPseudo[_pseudo] == address(0));\n  mappPseudo[_pseudo] = msg.sender;\n  uint IDGroupe = uint(keccak256(bytes(_nom)));\n  mappNomGroupe[_nom] = IDGroupe;\n  mappGroupeOwner[_nom] = msg.sender;\n  mappOwnedGroup[msg.sender].push(IDGroupe);\n  mappIDGroupe[IDGroupe] = _nom;\n  mappGroupe[_nom].push(msg.sender);\n  mappGroupesForAddress[msg.sender].push(IDGroupe);\n  creerCanal(_pseudo, _nom, msg.sender);\n}\n\nfunction ajouterMembre(address _membre, string memory _groupe, string memory _pseudo) payable public\n{\n  require(PRICE_MEMBRE == msg.value);\n  require(mappPseudo[_pseudo] == address(0));\n  require(mappGroupeOwner[_groupe] == msg.sender);\n  mappPseudo[_pseudo] = _membre;\n  uint IDGroupe = uint(keccak256(bytes(_groupe)));\n  mappGroupesForAddress[_membre].push(IDGroupe);\n  mappGroupe[_groupe].push(_membre);\n  creerCanal(_pseudo, _groupe, _membre);\n}\n\nfunction creerCanal(string memory _pseudo, string memory _groupe, address _membre) private\n{\n  uint channelID = uint(keccak256(bytes(_pseudo)));\n  uint groupeID = uint(keccak256(bytes(_groupe)));\n  require(mappPseudo[_pseudo] == _membre);\n  mappChannel[channelID].pseudo = _pseudo;\n  mappChannel[channelID].groupe = _groupe;\n  mappChannel[channelID].demandeur = msg.sender;\n  mappGroupeAndChannels[_groupe].push(channelID);\n  mappPseudoToID[_pseudo] = channelID;\n  mappPseudoInGroup[groupeID][msg.sender] = channelID;\n}\n\nfunction demander(uint _montant, string memory _pseudo, address _contratCible, string memory _description) payable public\n{\n  require(mappPseudo[_pseudo] == msg.sender);\n  uint channelID = uint(keccak256(bytes(_pseudo)));\n  require(msg.value == PRICE_CHANEL);\n  require(mappChannel[channelID].montant == 0);\n  mappChannel[channelID].montant = _montant;\n  mappChannel[channelID].contratCible = _contratCible;\n  mappChannel[channelID].description = _description;\n}\n\nfunction payerCanal(string memory _pseudo, address _address) public payable\n{\n  uint _channelID = uint(keccak256(bytes(_pseudo)));\n  require(mappChannel[_channelID].demandeur == _address);\n  require(mappChannel[_channelID].montant > mappChannel[_channelID].enCours);\n  uint fees = uint(msg.value / PRICE_RATIO);\n  _mint(msg.sender,msg.value + fees);\n  uint addValue = msg.value;\n  mappChannel[_channelID].donnations += addValue;\n  addValue -= fees;\n  mappChannel[_channelID].receptions += addValue;\n  mappChannel[_channelID].enCours += addValue;\n}\n\nfunction fermetureCanal(string memory _pseudo) public\n{\n  uint _channelID = uint(keccak256(bytes(_pseudo)));\n  require(mappChannel[_channelID].enCours != 0);\n  require(mappChannel[_channelID].demandeur == msg.sender);\n  msg.sender.transfer(mappChannel[_channelID].enCours);\n  mappChannel[_channelID].enCours = 0;\n  mappChannel[_channelID].montant = 0;\n  mappChannel[_channelID].contratCible = address(0);\n  mappChannel[_channelID].description = \"\";\n}\n\nfunction withdrawEther(uint _amount) public onlyOwner\n{\n  msg.sender.transfer(_amount);\n}\n\nfunction tokenToEther() public\n{\n  require(block.number % TIME_TOKEN_WITHDRAW  >= 0 && block.number % TIME_TOKEN_WITHDRAW <= LAPS_TIME_TOKEN_WITHDRAW);\n  uint monBonus = uint(balanceOf(msg.sender).div(DESERVE_BONUS));\n  monBonus.mul(TOKEN_BONUS);\n  msg.sender.transfer(balanceOf(msg.sender).add(monBonus));\n  _burnFrom(msg.sender,balanceOf(msg.sender));\n}\n\nfunction modifierPriceChannel(uint _priceChannel) public onlyOwner\n{\n  PRICE_CHANEL = _priceChannel;\n}\n\nfunction modifierMeriteBonus(uint _seuil) public onlyOwner\n{\n  DESERVE_BONUS = _seuil;\n}\n\nfunction modifierTokenBonus(uint _tokenBonus) public onlyOwner\n{\n  TOKEN_BONUS = _tokenBonus;\n}\n\nfunction modifierLapsTimeToWithdraw(uint _laspsTime) public onlyOwner\n{\n  LAPS_TIME_TOKEN_WITHDRAW = _laspsTime;\n}\n\nfunction modifierTimeToWithdraw(uint _TimeToWithdraw) public onlyOwner\n{\n  TIME_TOKEN_WITHDRAW = _TimeToWithdraw;\n}\n\nfunction modifierMaxAmount(uint _maxAmount) public onlyOwner\n{\n  MAX_AMOUNT = _maxAmount;\n}\n\nfunction modifierMinAmount(uint _minAmount) public onlyOwner\n{\n  MIN_AMOUNT = _minAmount;\n}\n\nfunction modifierCharges(uint _priceChannel) public onlyOwner\n{\n  PRICE_RATIO = _priceChannel;\n}\n\nfunction modifierPriceGroup(uint _priceGroup) public onlyOwner\n{\n  PRICE_GROUP = _priceGroup;\n}\n\nfunction modifierPriceMember(uint _priceMember) public onlyOwner\n{\n  PRICE_MEMBRE = _priceMember;\n}\n\nfunction getGroupesPerAddress() public view returns (uint[] memory)\n{\n  return mappGroupesForAddress[msg.sender];\n}\n\nfunction getMembres(string memory _groupe) public view returns (uint[] memory)\n{\n  return mappGroupeAndChannels[_groupe];\n}\n\nfunction getDescription(string memory _pseudo) public view returns (string memory)\n{\n  return mappChannel[mappPseudoToID[_pseudo]].description;\n}\n\nfunction getNomMembre(uint _ID) public view returns (string memory)\n{\n  return mappChannel[_ID].pseudo;\n}\n\nfunction getGroupe(string memory _pseudo) public view returns (string memory)\n{\n  return mappChannel[mappPseudoToID[_pseudo]].groupe;\n}\n\nfunction getMontant(string memory _pseudo) public view returns (uint)\n{\n  return mappChannel[mappPseudoToID[_pseudo]].montant;\n}\n\nfunction getEncours(string memory _pseudo) public view returns (uint)\n{\n  return mappChannel[mappPseudoToID[_pseudo]].enCours;\n}\n\nfunction getDonnations(string memory _pseudo) public view returns (uint)\n{\n  return mappChannel[mappPseudoToID[_pseudo]].donnations;\n}\n\nfunction getDemandeur(string memory _pseudo) public view returns (address)\n{\n  return mappChannel[mappPseudoToID[_pseudo]].demandeur;\n}\n\nfunction getReceptions(string memory _pseudo) public view returns (uint)\n{\n  return mappChannel[mappPseudoToID[_pseudo]].receptions;\n}\n\nfunction getContratCible(string memory _pseudo) public view returns (address)\n{\n  return mappChannel[mappPseudoToID[_pseudo]].contratCible;\n}\n\nfunction getNomGroupe(uint _ID) public view returns (string memory)\n{\n  return mappIDGroupe[_ID];\n}\n\nfunction getOwnedGroupe() public view returns (uint[] memory)\n{\n  return mappOwnedGroup[msg.sender];\n}\n\nfunction getPseudoInGroup(string memory _groupe) public view returns (string memory)\n{\n  uint IDGroupe = uint(keccak256(bytes(_groupe)));\n  return mappChannel[mappPseudoInGroup[IDGroupe][msg.sender]].pseudo;\n}\n\n}\n",
  "sourcePath": "/Users/germaindacunha/Desktop/Alyra/project/Ether-Union/contracts/Cagnottes.sol",
  "compiler": {
    "name": "solc",
    "version": "0.5.0+commit.1d4f565a.Emscripten.clang"
  },
  "schemaVersion": "3.0.2",
  "updatedAt": "2019-03-27T23:34:23.681Z",
  "devdoc": {
    "methods": {
      "allowance(address,address)": {
        "details": "Function to check the amount of tokens that an owner allowed to a spender.",
        "params": {
          "owner": "address The address which owns the funds.",
          "spender": "address The address which will spend the funds."
        },
        "return": "A uint256 specifying the amount of tokens still available for the spender."
      },
      "approve(address,uint256)": {
        "details": "Approve the passed address to spend the specified amount of tokens on behalf of msg.sender. Beware that changing an allowance with this method brings the risk that someone may use both the old and the new allowance by unfortunate transaction ordering. One possible solution to mitigate this race condition is to first reduce the spender's allowance to 0 and set the desired value afterwards: https://github.com/ethereum/EIPs/issues/20#issuecomment-263524729",
        "params": {
          "spender": "The address which will spend the funds.",
          "value": "The amount of tokens to be spent."
        }
      },
      "balanceOf(address)": {
        "details": "Gets the balance of the specified address.",
        "params": {
          "owner": "The address to query the balance of."
        },
        "return": "A uint256 representing the amount owned by the passed address."
      },
      "decreaseAllowance(address,uint256)": {
        "details": "Decrease the amount of tokens that an owner allowed to a spender. approve should be called when _allowed[msg.sender][spender] == 0. To decrement allowed value is better to use this function to avoid 2 calls (and wait until the first transaction is mined) From MonolithDAO Token.sol Emits an Approval event.",
        "params": {
          "spender": "The address which will spend the funds.",
          "subtractedValue": "The amount of tokens to decrease the allowance by."
        }
      },
      "increaseAllowance(address,uint256)": {
        "details": "Increase the amount of tokens that an owner allowed to a spender. approve should be called when _allowed[msg.sender][spender] == 0. To increment allowed value is better to use this function to avoid 2 calls (and wait until the first transaction is mined) From MonolithDAO Token.sol Emits an Approval event.",
        "params": {
          "addedValue": "The amount of tokens to increase the allowance by.",
          "spender": "The address which will spend the funds."
        }
      },
      "totalSupply()": {
        "details": "Total number of tokens in existence"
      },
      "transfer(address,uint256)": {
        "details": "Transfer token to a specified address",
        "params": {
          "to": "The address to transfer to.",
          "value": "The amount to be transferred."
        }
      },
      "transferFrom(address,address,uint256)": {
        "details": "Transfer tokens from one address to another. Note that while this function emits an Approval event, this is not required as per the specification, and other compliant implementations may not emit the event.",
        "params": {
          "from": "address The address which you want to send tokens from",
          "to": "address The address which you want to transfer to",
          "value": "uint256 the amount of tokens to be transferred"
        }
      },
      "transferOwnership(address)": {
        "details": "Allows the current owner to transfer control of the contract to a newOwner.",
        "params": {
          "newOwner": "The address to transfer ownership to."
        }
      }
    }
  },
  "userdoc": {
    "methods": {}
  }
}