{
  "contractName": "Cagnottes",
  "abi": [
    {
      "constant": true,
      "inputs": [],
      "name": "name",
      "outputs": [
        {
          "name": "",
          "type": "string"
        }
      ],
      "payable": false,
      "stateMutability": "view",
      "type": "function"
    },
    {
      "constant": true,
      "inputs": [],
      "name": "TOKEN_BONUS",
      "outputs": [
        {
          "name": "",
          "type": "uint256"
        }
      ],
      "payable": false,
      "stateMutability": "view",
      "type": "function"
    },
    {
      "constant": false,
      "inputs": [
        {
          "name": "spender",
          "type": "address"
        },
        {
          "name": "value",
          "type": "uint256"
        }
      ],
      "name": "approve",
      "outputs": [
        {
          "name": "",
          "type": "bool"
        }
      ],
      "payable": false,
      "stateMutability": "nonpayable",
      "type": "function"
    },
    {
      "constant": true,
      "inputs": [],
      "name": "totalSupply",
      "outputs": [
        {
          "name": "",
          "type": "uint256"
        }
      ],
      "payable": false,
      "stateMutability": "view",
      "type": "function"
    },
    {
      "constant": false,
      "inputs": [
        {
          "name": "from",
          "type": "address"
        },
        {
          "name": "to",
          "type": "address"
        },
        {
          "name": "value",
          "type": "uint256"
        }
      ],
      "name": "transferFrom",
      "outputs": [
        {
          "name": "",
          "type": "bool"
        }
      ],
      "payable": false,
      "stateMutability": "nonpayable",
      "type": "function"
    },
    {
      "constant": true,
      "inputs": [],
      "name": "decimals",
      "outputs": [
        {
          "name": "",
          "type": "uint32"
        }
      ],
      "payable": false,
      "stateMutability": "view",
      "type": "function"
    },
    {
      "constant": false,
      "inputs": [
        {
          "name": "spender",
          "type": "address"
        },
        {
          "name": "addedValue",
          "type": "uint256"
        }
      ],
      "name": "increaseAllowance",
      "outputs": [
        {
          "name": "",
          "type": "bool"
        }
      ],
      "payable": false,
      "stateMutability": "nonpayable",
      "type": "function"
    },
    {
      "constant": true,
      "inputs": [],
      "name": "LAPS_TIME_TOKEN_WITHDRAW",
      "outputs": [
        {
          "name": "",
          "type": "uint256"
        }
      ],
      "payable": false,
      "stateMutability": "view",
      "type": "function"
    },
    {
      "constant": true,
      "inputs": [],
      "name": "PRICE_RATIO",
      "outputs": [
        {
          "name": "",
          "type": "uint256"
        }
      ],
      "payable": false,
      "stateMutability": "view",
      "type": "function"
    },
    {
      "constant": true,
      "inputs": [],
      "name": "PRICE_GROUP",
      "outputs": [
        {
          "name": "",
          "type": "uint256"
        }
      ],
      "payable": false,
      "stateMutability": "view",
      "type": "function"
    },
    {
      "constant": true,
      "inputs": [],
      "name": "TIME_TOKEN_WITHDRAW",
      "outputs": [
        {
          "name": "",
          "type": "uint256"
        }
      ],
      "payable": false,
      "stateMutability": "view",
      "type": "function"
    },
    {
      "constant": true,
      "inputs": [
        {
          "name": "owner",
          "type": "address"
        }
      ],
      "name": "balanceOf",
      "outputs": [
        {
          "name": "",
          "type": "uint256"
        }
      ],
      "payable": false,
      "stateMutability": "view",
      "type": "function"
    },
    {
      "constant": true,
      "inputs": [],
      "name": "owner",
      "outputs": [
        {
          "name": "",
          "type": "address"
        }
      ],
      "payable": false,
      "stateMutability": "view",
      "type": "function"
    },
    {
      "constant": true,
      "inputs": [],
      "name": "DESERVERVE_BONUS",
      "outputs": [
        {
          "name": "",
          "type": "uint256"
        }
      ],
      "payable": false,
      "stateMutability": "view",
      "type": "function"
    },
    {
      "constant": true,
      "inputs": [],
      "name": "symbol",
      "outputs": [
        {
          "name": "",
          "type": "string"
        }
      ],
      "payable": false,
      "stateMutability": "view",
      "type": "function"
    },
    {
      "constant": false,
      "inputs": [
        {
          "name": "spender",
          "type": "address"
        },
        {
          "name": "subtractedValue",
          "type": "uint256"
        }
      ],
      "name": "decreaseAllowance",
      "outputs": [
        {
          "name": "",
          "type": "bool"
        }
      ],
      "payable": false,
      "stateMutability": "nonpayable",
      "type": "function"
    },
    {
      "constant": false,
      "inputs": [
        {
          "name": "to",
          "type": "address"
        },
        {
          "name": "value",
          "type": "uint256"
        }
      ],
      "name": "transfer",
      "outputs": [
        {
          "name": "",
          "type": "bool"
        }
      ],
      "payable": false,
      "stateMutability": "nonpayable",
      "type": "function"
    },
    {
      "constant": true,
      "inputs": [],
      "name": "PRICE_MEMBRE",
      "outputs": [
        {
          "name": "",
          "type": "uint256"
        }
      ],
      "payable": false,
      "stateMutability": "view",
      "type": "function"
    },
    {
      "constant": true,
      "inputs": [],
      "name": "MAX_AMOUNT",
      "outputs": [
        {
          "name": "",
          "type": "uint256"
        }
      ],
      "payable": false,
      "stateMutability": "view",
      "type": "function"
    },
    {
      "constant": true,
      "inputs": [
        {
          "name": "owner",
          "type": "address"
        },
        {
          "name": "spender",
          "type": "address"
        }
      ],
      "name": "allowance",
      "outputs": [
        {
          "name": "",
          "type": "uint256"
        }
      ],
      "payable": false,
      "stateMutability": "view",
      "type": "function"
    },
    {
      "constant": true,
      "inputs": [],
      "name": "MIN_AMOUNT",
      "outputs": [
        {
          "name": "",
          "type": "uint256"
        }
      ],
      "payable": false,
      "stateMutability": "view",
      "type": "function"
    },
    {
      "constant": false,
      "inputs": [
        {
          "name": "newOwner",
          "type": "address"
        }
      ],
      "name": "transferOwnership",
      "outputs": [],
      "payable": false,
      "stateMutability": "nonpayable",
      "type": "function"
    },
    {
      "inputs": [],
      "payable": false,
      "stateMutability": "nonpayable",
      "type": "constructor"
    },
    {
      "anonymous": false,
      "inputs": [
        {
          "indexed": true,
          "name": "previousOwner",
          "type": "address"
        },
        {
          "indexed": true,
          "name": "newOwner",
          "type": "address"
        }
      ],
      "name": "OwnershipTransferred",
      "type": "event"
    },
    {
      "anonymous": false,
      "inputs": [
        {
          "indexed": true,
          "name": "from",
          "type": "address"
        },
        {
          "indexed": true,
          "name": "to",
          "type": "address"
        },
        {
          "indexed": false,
          "name": "value",
          "type": "uint256"
        }
      ],
      "name": "Transfer",
      "type": "event"
    },
    {
      "anonymous": false,
      "inputs": [
        {
          "indexed": true,
          "name": "owner",
          "type": "address"
        },
        {
          "indexed": true,
          "name": "spender",
          "type": "address"
        },
        {
          "indexed": false,
          "name": "value",
          "type": "uint256"
        }
      ],
      "name": "Approval",
      "type": "event"
    },
    {
      "constant": false,
      "inputs": [
        {
          "name": "_nom",
          "type": "string"
        },
        {
          "name": "_pseudo",
          "type": "string"
        }
      ],
      "name": "creerGroupe",
      "outputs": [],
      "payable": true,
      "stateMutability": "payable",
      "type": "function"
    },
    {
      "constant": false,
      "inputs": [
        {
          "name": "_membre",
          "type": "address"
        },
        {
          "name": "_groupe",
          "type": "string"
        },
        {
          "name": "_pseudo",
          "type": "string"
        }
      ],
      "name": "ajouterMembre",
      "outputs": [],
      "payable": true,
      "stateMutability": "payable",
      "type": "function"
    },
    {
      "constant": false,
      "inputs": [
        {
          "name": "_montant",
          "type": "uint256"
        },
        {
          "name": "_pseudo",
          "type": "string"
        },
        {
          "name": "_contratCible",
          "type": "address"
        }
      ],
      "name": "demander",
      "outputs": [],
      "payable": false,
      "stateMutability": "nonpayable",
      "type": "function"
    },
    {
      "constant": false,
      "inputs": [
        {
          "name": "_pseudo",
          "type": "string"
        },
        {
          "name": "_address",
          "type": "address"
        }
      ],
      "name": "payerCanal",
      "outputs": [],
      "payable": true,
      "stateMutability": "payable",
      "type": "function"
    },
    {
      "constant": false,
      "inputs": [
        {
          "name": "_pseudo",
          "type": "string"
        }
      ],
      "name": "fermetureCanal",
      "outputs": [],
      "payable": false,
      "stateMutability": "nonpayable",
      "type": "function"
    },
    {
      "constant": false,
      "inputs": [
        {
          "name": "_amount",
          "type": "uint256"
        }
      ],
      "name": "withdrawEther",
      "outputs": [],
      "payable": false,
      "stateMutability": "nonpayable",
      "type": "function"
    },
    {
      "constant": false,
      "inputs": [],
      "name": "tokenToEther",
      "outputs": [],
      "payable": false,
      "stateMutability": "nonpayable",
      "type": "function"
    },
    {
      "constant": false,
      "inputs": [
        {
          "name": "_seuil",
          "type": "uint256"
        }
      ],
      "name": "modifierMeriteBonus",
      "outputs": [],
      "payable": false,
      "stateMutability": "nonpayable",
      "type": "function"
    },
    {
      "constant": false,
      "inputs": [
        {
          "name": "_tokenBonus",
          "type": "uint256"
        }
      ],
      "name": "modifierTokenBonus",
      "outputs": [],
      "payable": false,
      "stateMutability": "nonpayable",
      "type": "function"
    },
    {
      "constant": false,
      "inputs": [
        {
          "name": "_laspsTime",
          "type": "uint256"
        }
      ],
      "name": "modifierLapsTimeToWithdraw",
      "outputs": [],
      "payable": false,
      "stateMutability": "nonpayable",
      "type": "function"
    },
    {
      "constant": false,
      "inputs": [
        {
          "name": "_TimeToWithdraw",
          "type": "uint256"
        }
      ],
      "name": "modifierTimeToWithdraw",
      "outputs": [],
      "payable": false,
      "stateMutability": "nonpayable",
      "type": "function"
    },
    {
      "constant": false,
      "inputs": [
        {
          "name": "_maxAmount",
          "type": "uint256"
        }
      ],
      "name": "modifierMaxAmount",
      "outputs": [],
      "payable": false,
      "stateMutability": "nonpayable",
      "type": "function"
    },
    {
      "constant": false,
      "inputs": [
        {
          "name": "_minAmount",
          "type": "uint256"
        }
      ],
      "name": "modifierMinAmount",
      "outputs": [],
      "payable": false,
      "stateMutability": "nonpayable",
      "type": "function"
    },
    {
      "constant": false,
      "inputs": [
        {
          "name": "_priceChannel",
          "type": "uint256"
        }
      ],
      "name": "modifierCharges",
      "outputs": [],
      "payable": false,
      "stateMutability": "nonpayable",
      "type": "function"
    },
    {
      "constant": false,
      "inputs": [
        {
          "name": "_priceGroup",
          "type": "uint256"
        }
      ],
      "name": "modifierPriceGroup",
      "outputs": [],
      "payable": false,
      "stateMutability": "nonpayable",
      "type": "function"
    },
    {
      "constant": false,
      "inputs": [
        {
          "name": "_priceMember",
          "type": "uint256"
        }
      ],
      "name": "modifierPriceMember",
      "outputs": [],
      "payable": false,
      "stateMutability": "nonpayable",
      "type": "function"
    },
    {
      "constant": true,
      "inputs": [],
      "name": "getGroupesPerAddress",
      "outputs": [
        {
          "name": "",
          "type": "uint256[]"
        }
      ],
      "payable": false,
      "stateMutability": "view",
      "type": "function"
    },
    {
      "constant": true,
      "inputs": [
        {
          "name": "_groupe",
          "type": "string"
        }
      ],
      "name": "getMembres",
      "outputs": [
        {
          "name": "",
          "type": "uint256[]"
        }
      ],
      "payable": false,
      "stateMutability": "view",
      "type": "function"
    },
    {
      "constant": true,
      "inputs": [
        {
          "name": "_ID",
          "type": "uint256"
        }
      ],
      "name": "getNomMembre",
      "outputs": [
        {
          "name": "",
          "type": "string"
        }
      ],
      "payable": false,
      "stateMutability": "view",
      "type": "function"
    },
    {
      "constant": true,
      "inputs": [
        {
          "name": "_pseudo",
          "type": "string"
        }
      ],
      "name": "getGroupe",
      "outputs": [
        {
          "name": "",
          "type": "string"
        }
      ],
      "payable": false,
      "stateMutability": "view",
      "type": "function"
    },
    {
      "constant": true,
      "inputs": [
        {
          "name": "_pseudo",
          "type": "string"
        }
      ],
      "name": "getMontant",
      "outputs": [
        {
          "name": "",
          "type": "uint256"
        }
      ],
      "payable": false,
      "stateMutability": "view",
      "type": "function"
    },
    {
      "constant": true,
      "inputs": [
        {
          "name": "_pseudo",
          "type": "string"
        }
      ],
      "name": "getEncours",
      "outputs": [
        {
          "name": "",
          "type": "uint256"
        }
      ],
      "payable": false,
      "stateMutability": "view",
      "type": "function"
    },
    {
      "constant": true,
      "inputs": [
        {
          "name": "_pseudo",
          "type": "string"
        }
      ],
      "name": "getDonnations",
      "outputs": [
        {
          "name": "",
          "type": "uint256"
        }
      ],
      "payable": false,
      "stateMutability": "view",
      "type": "function"
    },
    {
      "constant": true,
      "inputs": [
        {
          "name": "_pseudo",
          "type": "string"
        }
      ],
      "name": "getDemandeur",
      "outputs": [
        {
          "name": "",
          "type": "address"
        }
      ],
      "payable": false,
      "stateMutability": "view",
      "type": "function"
    },
    {
      "constant": true,
      "inputs": [
        {
          "name": "_pseudo",
          "type": "string"
        }
      ],
      "name": "getReceptions",
      "outputs": [
        {
          "name": "",
          "type": "uint256"
        }
      ],
      "payable": false,
      "stateMutability": "view",
      "type": "function"
    },
    {
      "constant": true,
      "inputs": [
        {
          "name": "_pseudo",
          "type": "string"
        }
      ],
      "name": "getContratCible",
      "outputs": [
        {
          "name": "",
          "type": "address"
        }
      ],
      "payable": false,
      "stateMutability": "view",
      "type": "function"
    },
    {
      "constant": true,
      "inputs": [
        {
          "name": "_ID",
          "type": "uint256"
        }
      ],
      "name": "getNomGroupe",
      "outputs": [
        {
          "name": "",
          "type": "string"
        }
      ],
      "payable": false,
      "stateMutability": "view",
      "type": "function"
    },
    {
      "constant": true,
      "inputs": [],
      "name": "getOwnedGroupe",
      "outputs": [
        {
          "name": "",
          "type": "uint256[]"
        }
      ],
      "payable": false,
      "stateMutability": "view",
      "type": "function"
    },
    {
      "constant": true,
      "inputs": [
        {
          "name": "_groupe",
          "type": "string"
        }
      ],
      "name": "getPseudoInGroup",
      "outputs": [
        {
          "name": "",
          "type": "string"
        }
      ],
      "payable": false,
      "stateMutability": "view",
      "type": "function"
    }
  ],
  "bytecode": "0x608060405234801561001057600080fd5b5033600360006101000a81548173ffffffffffffffffffffffffffffffffffffffff021916908373ffffffffffffffffffffffffffffffffffffffff1602179055506509184e72a000600f8190555061271060108190555060646011819055506402540be400601281905550620186a06013819055506000601481905550620f42406015819055506103e86016819055506064601781905550614883806100b86000396000f3fe608060405260043610610267576000357c0100000000000000000000000000000000000000000000000000000000900463ffffffff16806303864bda1461026c57806306fdde031461037457806307ef533714610404578063095ea7b31461042f57806317503266146104a257806318160ddd146104dd5780631e0afe57146105085780632055bd081461057457806323b872dd146106b557806329c77347146107485780632a51becf14610865578063313ce567146109415780633950935114610978578063397ef769146109eb5780633bed33ce14610a165780633c431d6a14610a515780634152299714610a7c5780634a3f4a5d14610b305780634b7b03cf14610b5b5780634dc8872914610c0f5780635126670614610cd757806354a434fc14610d125780635743026414610d3d5780635f09355314610e1957806370a0823114610e545780637a0b3b1214610eb95780637aede27214610fab5780637ff774d8146110ec5780638da5cb5b146111275780638f3333411461117e578063911f444e146112f057806395d89b411461131b5780639acdb25b146113ab5780639d05e9ab146113e6578063a457c2d7146114c2578063a9059cbb14611535578063beaf3b0d146115a8578063d335c043146115e3578063d40dc8701461160e578063d74b10a514611639578063da28be7514611715578063db56926d1461172c578063dd62ed3e14611807578063ddbcb5fa1461188c578063e09c8136146118b7578063e7637a7d14611923578063f2fde38b14611a2b578063f4343df414611a7c578063f462966514611bce578063f483977214611c09578063f8efcf4f14611c44575b600080fd5b34801561027857600080fd5b506103326004803603602081101561028f57600080fd5b81019080803590602001906401000000008111156102ac57600080fd5b8201836020820111156102be57600080fd5b803590602001918460018302840111640100000000831117156102e057600080fd5b91908080601f016020809104026020016040519081016040528093929190818152602001838380828437600081840152601f19601f820116905080830192505050505050509192919290505050611c7f565b604051808273ffffffffffffffffffffffffffffffffffffffff1673ffffffffffffffffffffffffffffffffffffffff16815260200191505060405180910390f35b34801561038057600080fd5b50610389611d2a565b6040518080602001828103825283818151815260200191508051906020019080838360005b838110156103c95780820151818401526020810190506103ae565b50505050905090810190601f1680156103f65780820380516001836020036101000a031916815260200191505b509250505060405180910390f35b34801561041057600080fd5b50610419611d63565b6040518082815260200191505060405180910390f35b34801561043b57600080fd5b506104886004803603604081101561045257600080fd5b81019080803573ffffffffffffffffffffffffffffffffffffffff16906020019092919080359060200190929190505050611d69565b604051808215151515815260200191505060405180910390f35b3480156104ae57600080fd5b506104db600480360360208110156104c557600080fd5b8101908080359060200190929190505050611d80565b005b3480156104e957600080fd5b506104f2611de6565b6040518082815260200191505060405180910390f35b34801561051457600080fd5b5061051d611df0565b6040518080602001828103825283818151815260200191508051906020019060200280838360005b83811015610560578082015181840152602081019050610545565b505050509050019250505060405180910390f35b34801561058057600080fd5b5061063a6004803603602081101561059757600080fd5b81019080803590602001906401000000008111156105b457600080fd5b8201836020820111156105c657600080fd5b803590602001918460018302840111640100000000831117156105e857600080fd5b91908080601f016020809104026020016040519081016040528093929190818152602001838380828437600081840152601f19601f820116905080830192505050505050509192919290505050611e85565b6040518080602001828103825283818151815260200191508051906020019080838360005b8381101561067a57808201518184015260208101905061065f565b50505050905090810190601f1680156106a75780820380516001836020036101000a031916815260200191505b509250505060405180910390f35b3480156106c157600080fd5b5061072e600480360360608110156106d857600080fd5b81019080803573ffffffffffffffffffffffffffffffffffffffff169060200190929190803573ffffffffffffffffffffffffffffffffffffffff16906020019092919080359060200190929190505050611f9e565b604051808215151515815260200191505060405180910390f35b34801561075457600080fd5b5061080e6004803603602081101561076b57600080fd5b810190808035906020019064010000000081111561078857600080fd5b82018360208201111561079a57600080fd5b803590602001918460018302840111640100000000831117156107bc57600080fd5b91908080601f016020809104026020016040519081016040528093929190818152602001838380828437600081840152601f19601f82011690508083019250505050505050919291929050505061204f565b6040518080602001828103825283818151815260200191508051906020019060200280838360005b83811015610851578082015181840152602081019050610836565b505050509050019250505060405180910390f35b34801561087157600080fd5b5061092b6004803603602081101561088857600080fd5b81019080803590602001906401000000008111156108a557600080fd5b8201836020820111156108b757600080fd5b803590602001918460018302840111640100000000831117156108d957600080fd5b91908080601f016020809104026020016040519081016040528093929190818152602001838380828437600081840152601f19601f820116905080830192505050505050509192919290505050612112565b6040518082815260200191505060405180910390f35b34801561094d57600080fd5b5061095661219d565b604051808263ffffffff1663ffffffff16815260200191505060405180910390f35b34801561098457600080fd5b506109d16004803603604081101561099b57600080fd5b81019080803573ffffffffffffffffffffffffffffffffffffffff169060200190929190803590602001909291905050506121a2565b604051808215151515815260200191505060405180910390f35b3480156109f757600080fd5b50610a00612247565b6040518082815260200191505060405180910390f35b348015610a2257600080fd5b50610a4f60048036036020811015610a3957600080fd5b810190808035906020019092919050505061224d565b005b348015610a5d57600080fd5b50610a666122f3565b6040518082815260200191505060405180910390f35b348015610a8857600080fd5b50610ab560048036036020811015610a9f57600080fd5b81019080803590602001909291905050506122f9565b6040518080602001828103825283818151815260200191508051906020019080838360005b83811015610af5578082015181840152602081019050610ada565b50505050905090810190601f168015610b225780820380516001836020036101000a031916815260200191505b509250505060405180910390f35b348015610b3c57600080fd5b50610b456123ae565b6040518082815260200191505060405180910390f35b348015610b6757600080fd5b50610b9460048036036020811015610b7e57600080fd5b81019080803590602001909291905050506123b4565b6040518080602001828103825283818151815260200191508051906020019080838360005b83811015610bd4578082015181840152602081019050610bb9565b50505050905090810190601f168015610c015780820380516001836020036101000a031916815260200191505b509250505060405180910390f35b348015610c1b57600080fd5b50610cd560048036036020811015610c3257600080fd5b8101908080359060200190640100000000811115610c4f57600080fd5b820183602082011115610c6157600080fd5b80359060200191846001830284011164010000000083111715610c8357600080fd5b91908080601f016020809104026020016040519081016040528093929190818152602001838380828437600081840152601f19601f82011690508083019250505050505050919291929050505061246c565b005b348015610ce357600080fd5b50610d1060048036036020811015610cfa57600080fd5b8101908080359060200190929190505050612640565b005b348015610d1e57600080fd5b50610d276126a6565b6040518082815260200191505060405180910390f35b348015610d4957600080fd5b50610e0360048036036020811015610d6057600080fd5b8101908080359060200190640100000000811115610d7d57600080fd5b820183602082011115610d8f57600080fd5b80359060200191846001830284011164010000000083111715610db157600080fd5b91908080601f016020809104026020016040519081016040528093929190818152602001838380828437600081840152601f19601f8201169050808301925050505050505091929192905050506126ac565b6040518082815260200191505060405180910390f35b348015610e2557600080fd5b50610e5260048036036020811015610e3c57600080fd5b8101908080359060200190929190505050612737565b005b348015610e6057600080fd5b50610ea360048036036020811015610e7757600080fd5b81019080803573ffffffffffffffffffffffffffffffffffffffff16906020019092919050505061279d565b6040518082815260200191505060405180910390f35b348015610ec557600080fd5b50610fa960048036036060811015610edc57600080fd5b810190808035906020019092919080359060200190640100000000811115610f0357600080fd5b820183602082011115610f1557600080fd5b80359060200191846001830284011164010000000083111715610f3757600080fd5b91908080601f016020809104026020016040519081016040528093929190818152602001838380828437600081840152601f19601f820116905080830192505050505050509192919290803573ffffffffffffffffffffffffffffffffffffffff1690602001909291905050506127e5565b005b348015610fb757600080fd5b5061107160048036036020811015610fce57600080fd5b8101908080359060200190640100000000811115610feb57600080fd5b820183602082011115610ffd57600080fd5b8035906020019184600183028401116401000000008311171561101f57600080fd5b91908080601f016020809104026020016040519081016040528093929190818152602001838380828437600081840152601f19601f820116905080830192505050505050509192919290505050612995565b6040518080602001828103825283818151815260200191508051906020019080838360005b838110156110b1578082015181840152602081019050611096565b50505050905090810190601f1680156110de5780820380516001836020036101000a031916815260200191505b509250505060405180910390f35b3480156110f857600080fd5b506111256004803603602081101561110f57600080fd5b8101908080359060200190929190505050612ab8565b005b34801561113357600080fd5b5061113c612b1e565b604051808273ffffffffffffffffffffffffffffffffffffffff1673ffffffffffffffffffffffffffffffffffffffff16815260200191505060405180910390f35b6112ee6004803603606081101561119457600080fd5b81019080803573ffffffffffffffffffffffffffffffffffffffff169060200190929190803590602001906401000000008111156111d157600080fd5b8201836020820111156111e357600080fd5b8035906020019184600183028401116401000000008311171561120557600080fd5b91908080601f016020809104026020016040519081016040528093929190818152602001838380828437600081840152601f19601f8201169050808301925050505050505091929192908035906020019064010000000081111561126857600080fd5b82018360208201111561127a57600080fd5b8035906020019184600183028401116401000000008311171561129c57600080fd5b91908080601f016020809104026020016040519081016040528093929190818152602001838380828437600081840152601f19601f820116905080830192505050505050509192919290505050612b44565b005b3480156112fc57600080fd5b50611305612ee2565b6040518082815260200191505060405180910390f35b34801561132757600080fd5b50611330612ee8565b6040518080602001828103825283818151815260200191508051906020019080838360005b83811015611370578082015181840152602081019050611355565b50505050905090810190601f16801561139d5780820380516001836020036101000a031916815260200191505b509250505060405180910390f35b3480156113b757600080fd5b506113e4600480360360208110156113ce57600080fd5b8101908080359060200190929190505050612f21565b005b3480156113f257600080fd5b506114ac6004803603602081101561140957600080fd5b810190808035906020019064010000000081111561142657600080fd5b82018360208201111561143857600080fd5b8035906020019184600183028401116401000000008311171561145a57600080fd5b91908080601f016020809104026020016040519081016040528093929190818152602001838380828437600081840152601f19601f820116905080830192505050505050509192919290505050612f87565b6040518082815260200191505060405180910390f35b3480156114ce57600080fd5b5061151b600480360360408110156114e557600080fd5b81019080803573ffffffffffffffffffffffffffffffffffffffff16906020019092919080359060200190929190505050613012565b604051808215151515815260200191505060405180910390f35b34801561154157600080fd5b5061158e6004803603604081101561155857600080fd5b81019080803573ffffffffffffffffffffffffffffffffffffffff169060200190929190803590602001909291905050506130b7565b604051808215151515815260200191505060405180910390f35b3480156115b457600080fd5b506115e1600480360360208110156115cb57600080fd5b81019080803590602001909291905050506130ce565b005b3480156115ef57600080fd5b506115f8613134565b6040518082815260200191505060405180910390f35b34801561161a57600080fd5b5061162361313a565b6040518082815260200191505060405180910390f35b34801561164557600080fd5b506116ff6004803603602081101561165c57600080fd5b810190808035906020019064010000000081111561167957600080fd5b82018360208201111561168b57600080fd5b803590602001918460018302840111640100000000831117156116ad57600080fd5b91908080601f016020809104026020016040519081016040528093929190818152602001838380828437600081840152601f19601f820116905080830192505050505050509192919290505050613140565b6040518082815260200191505060405180910390f35b34801561172157600080fd5b5061172a6131cb565b005b6118056004803603604081101561174257600080fd5b810190808035906020019064010000000081111561175f57600080fd5b82018360208201111561177157600080fd5b8035906020019184600183028401116401000000008311171561179357600080fd5b91908080601f016020809104026020016040519081016040528093929190818152602001838380828437600081840152601f19601f820116905080830192505050505050509192919290803573ffffffffffffffffffffffffffffffffffffffff1690602001909291905050506132b0565b005b34801561181357600080fd5b506118766004803603604081101561182a57600080fd5b81019080803573ffffffffffffffffffffffffffffffffffffffff169060200190929190803573ffffffffffffffffffffffffffffffffffffffff16906020019092919050505061343b565b6040518082815260200191505060405180910390f35b34801561189857600080fd5b506118a16134c2565b6040518082815260200191505060405180910390f35b3480156118c357600080fd5b506118cc6134c8565b6040518080602001828103825283818151815260200191508051906020019060200280838360005b8381101561190f5780820151818401526020810190506118f4565b505050509050019250505060405180910390f35b34801561192f57600080fd5b506119e96004803603602081101561194657600080fd5b810190808035906020019064010000000081111561196357600080fd5b82018360208201111561197557600080fd5b8035906020019184600183028401116401000000008311171561199757600080fd5b91908080601f016020809104026020016040519081016040528093929190818152602001838380828437600081840152601f19601f82011690508083019250505050505050919291929050505061355d565b604051808273ffffffffffffffffffffffffffffffffffffffff1673ffffffffffffffffffffffffffffffffffffffff16815260200191505060405180910390f35b348015611a3757600080fd5b50611a7a60048036036020811015611a4e57600080fd5b81019080803573ffffffffffffffffffffffffffffffffffffffff169060200190929190505050613608565b005b611bcc60048036036040811015611a9257600080fd5b8101908080359060200190640100000000811115611aaf57600080fd5b820183602082011115611ac157600080fd5b80359060200191846001830284011164010000000083111715611ae357600080fd5b91908080601f016020809104026020016040519081016040528093929190818152602001838380828437600081840152601f19601f82011690508083019250505050505050919291929080359060200190640100000000811115611b4657600080fd5b820183602082011115611b5857600080fd5b80359060200191846001830284011164010000000083111715611b7a57600080fd5b91908080601f016020809104026020016040519081016040528093929190818152602001838380828437600081840152601f19601f820116905080830192505050505050509192919290505050613760565b005b348015611bda57600080fd5b50611c0760048036036020811015611bf157600080fd5b8101908080359060200190929190505050613c5d565b005b348015611c1557600080fd5b50611c4260048036036020811015611c2c57600080fd5b8101908080359060200190929190505050613cc3565b005b348015611c5057600080fd5b50611c7d60048036036020811015611c6757600080fd5b8101908080359060200190929190505050613d29565b005b600060046000600d846040518082805190602001908083835b602083101515611cbd5780518252602082019150602081019050602083039250611c98565b6001836020036101000a038019825116818451168082178552505050505050905001915050908152602001604051809103902054815260200190815260200160002060000160009054906101000a900473ffffffffffffffffffffffffffffffffffffffff169050919050565b6040805190810160405280600881526020017f67696d69636f696e00000000000000000000000000000000000000000000000081525081565b60145481565b6000611d76338484613d8f565b6001905092915050565b600360009054906101000a900473ffffffffffffffffffffffffffffffffffffffff1673ffffffffffffffffffffffffffffffffffffffff163373ffffffffffffffffffffffffffffffffffffffff16141515611ddc57600080fd5b8060168190555050565b6000600254905090565b6060600560003373ffffffffffffffffffffffffffffffffffffffff1673ffffffffffffffffffffffffffffffffffffffff168152602001908152602001600020805480602002602001604051908101604052809291908181526020018280548015611e7b57602002820191906000526020600020905b815481526020019060010190808311611e67575b5050505050905090565b60606000828051906020012060019004905060046000600e600084815260200190815260200160002060003373ffffffffffffffffffffffffffffffffffffffff1673ffffffffffffffffffffffffffffffffffffffff1681526020019081526020016000205481526020019081526020016000206001018054600181600116156101000203166002900480601f016020809104026020016040519081016040528092919081815260200182805460018160011615610100020316600290048015611f915780601f10611f6657610100808354040283529160200191611f91565b820191906000526020600020905b815481529060010190602001808311611f7457829003601f168201915b5050505050915050919050565b6000611fab848484613ef2565b612044843361203f85600160008a73ffffffffffffffffffffffffffffffffffffffff1673ffffffffffffffffffffffffffffffffffffffff16815260200190815260200160002060003373ffffffffffffffffffffffffffffffffffffffff1673ffffffffffffffffffffffffffffffffffffffff168152602001908152602001600020546140be90919063ffffffff16565b613d8f565b600190509392505050565b60606006826040518082805190602001908083835b6020831015156120895780518252602082019150602081019050602083039250612064565b6001836020036101000a038019825116818451168082178552505050505050905001915050908152602001604051809103902080548060200260200160405190810160405280929190818152602001828054801561210657602002820191906000526020600020905b8154815260200190600101908083116120f2575b50505050509050919050565b600060046000600d846040518082805190602001908083835b602083101515612150578051825260208201915060208101905060208303925061212b565b6001836020036101000a0380198251168184511680821785525050505050509050019150509081526020016040518091039020548152602001908152602001600020600601549050919050565b601281565b600061223d338461223885600160003373ffffffffffffffffffffffffffffffffffffffff1673ffffffffffffffffffffffffffffffffffffffff16815260200190815260200160002060008973ffffffffffffffffffffffffffffffffffffffff1673ffffffffffffffffffffffffffffffffffffffff168152602001908152602001600020546140d790919063ffffffff16565b613d8f565b6001905092915050565b60135481565b600360009054906101000a900473ffffffffffffffffffffffffffffffffffffffff1673ffffffffffffffffffffffffffffffffffffffff163373ffffffffffffffffffffffffffffffffffffffff161415156122a957600080fd5b3373ffffffffffffffffffffffffffffffffffffffff166108fc829081150290604051600060405180830381858888f193505050501580156122ef573d6000803e3d6000fd5b5050565b60115481565b6060600760008381526020019081526020016000208054600181600116156101000203166002900480601f0160208091040260200160405190810160405280929190818152602001828054600181600116156101000203166002900480156123a25780601f10612377576101008083540402835291602001916123a2565b820191906000526020600020905b81548152906001019060200180831161238557829003601f168201915b50505050509050919050565b60165481565b6060600460008381526020019081526020016000206001018054600181600116156101000203166002900480601f0160208091040260200160405190810160405280929190818152602001828054600181600116156101000203166002900480156124605780601f1061243557610100808354040283529160200191612460565b820191906000526020600020905b81548152906001019060200180831161244357829003601f168201915b50505050509050919050565b60008180519060200120600190049050600115156004600083815260200190815260200160002060040160009054906101000a900460ff1615151415156124b257600080fd5b3373ffffffffffffffffffffffffffffffffffffffff166004600083815260200190815260200160002060000160009054906101000a900473ffffffffffffffffffffffffffffffffffffffff1673ffffffffffffffffffffffffffffffffffffffff1614151561252257600080fd5b3373ffffffffffffffffffffffffffffffffffffffff166108fc60046000848152602001908152602001600020600501549081150290604051600060405180830381858888f1935050505015801561257e573d6000803e3d6000fd5b50600060046000838152602001908152602001600020600501819055506000600460008381526020019081526020016000206003018190555060006004600083815260200190815260200160002060040160006101000a81548160ff02191690831515021790555060006004600083815260200190815260200160002060080160006101000a81548173ffffffffffffffffffffffffffffffffffffffff021916908373ffffffffffffffffffffffffffffffffffffffff1602179055505050565b600360009054906101000a900473ffffffffffffffffffffffffffffffffffffffff1673ffffffffffffffffffffffffffffffffffffffff163373ffffffffffffffffffffffffffffffffffffffff1614151561269c57600080fd5b8060118190555050565b60125481565b600060046000600d846040518082805190602001908083835b6020831015156126ea57805182526020820191506020810190506020830392506126c5565b6001836020036101000a0380198251168184511680821785525050505050509050019150509081526020016040518091039020548152602001908152602001600020600701549050919050565b600360009054906101000a900473ffffffffffffffffffffffffffffffffffffffff1673ffffffffffffffffffffffffffffffffffffffff163373ffffffffffffffffffffffffffffffffffffffff1614151561279357600080fd5b8060178190555050565b60008060008373ffffffffffffffffffffffffffffffffffffffff1673ffffffffffffffffffffffffffffffffffffffff168152602001908152602001600020549050919050565b3373ffffffffffffffffffffffffffffffffffffffff16600c836040518082805190602001908083835b602083101515612834578051825260208201915060208101905060208303925061280f565b6001836020036101000a038019825116818451168082178552505050505050905001915050908152602001604051809103902060009054906101000a900473ffffffffffffffffffffffffffffffffffffffff1673ffffffffffffffffffffffffffffffffffffffff161415156128aa57600080fd5b60008280519060200120600190049050600015156004600083815260200190815260200160002060040160009054906101000a900460ff1615151415156128f057600080fd5b83600460008381526020019081526020016000206003018190555060016004600083815260200190815260200160002060040160006101000a81548160ff021916908315150217905550816004600083815260200190815260200160002060080160006101000a81548173ffffffffffffffffffffffffffffffffffffffff021916908373ffffffffffffffffffffffffffffffffffffffff16021790555050505050565b606060046000600d846040518082805190602001908083835b6020831015156129d357805182526020820191506020810190506020830392506129ae565b6001836020036101000a03801982511681845116808217855250505050505090500191505090815260200160405180910390205481526020019081526020016000206002018054600181600116156101000203166002900480601f016020809104026020016040519081016040528092919081815260200182805460018160011615610100020316600290048015612aac5780601f10612a8157610100808354040283529160200191612aac565b820191906000526020600020905b815481529060010190602001808311612a8f57829003601f168201915b50505050509050919050565b600360009054906101000a900473ffffffffffffffffffffffffffffffffffffffff1673ffffffffffffffffffffffffffffffffffffffff163373ffffffffffffffffffffffffffffffffffffffff16141515612b1457600080fd5b8060138190555050565b600360009054906101000a900473ffffffffffffffffffffffffffffffffffffffff1681565b34601754141515612b5457600080fd5b600073ffffffffffffffffffffffffffffffffffffffff16600c826040518082805190602001908083835b602083101515612ba45780518252602082019150602081019050602083039250612b7f565b6001836020036101000a038019825116818451168082178552505050505050905001915050908152602001604051809103902060009054906101000a900473ffffffffffffffffffffffffffffffffffffffff1673ffffffffffffffffffffffffffffffffffffffff16141515612c1a57600080fd5b3373ffffffffffffffffffffffffffffffffffffffff166009836040518082805190602001908083835b602083101515612c695780518252602082019150602081019050602083039250612c44565b6001836020036101000a038019825116818451168082178552505050505050905001915050908152602001604051809103902060009054906101000a900473ffffffffffffffffffffffffffffffffffffffff1673ffffffffffffffffffffffffffffffffffffffff16141515612cdf57600080fd5b82600c826040518082805190602001908083835b602083101515612d185780518252602082019150602081019050602083039250612cf3565b6001836020036101000a038019825116818451168082178552505050505050905001915050908152602001604051809103902060006101000a81548173ffffffffffffffffffffffffffffffffffffffff021916908373ffffffffffffffffffffffffffffffffffffffff16021790555060008280519060200120600190049050600560008573ffffffffffffffffffffffffffffffffffffffff1673ffffffffffffffffffffffffffffffffffffffff168152602001908152602001600020819080600181540180825580915050906001820390600052602060002001600090919290919091505550600b836040518082805190602001908083835b602083101515612e3a5780518252602082019150602081019050602083039250612e15565b6001836020036101000a03801982511681845116808217855250505050505090500191505090815260200160405180910390208490806001815401808255809150509060018203906000526020600020016000909192909190916101000a81548173ffffffffffffffffffffffffffffffffffffffff021916908373ffffffffffffffffffffffffffffffffffffffff16021790555050612edc8284866140f5565b50505050565b60155481565b6040805190810160405280600381526020017f474d43000000000000000000000000000000000000000000000000000000000081525081565b600360009054906101000a900473ffffffffffffffffffffffffffffffffffffffff1673ffffffffffffffffffffffffffffffffffffffff163373ffffffffffffffffffffffffffffffffffffffff16141515612f7d57600080fd5b8060158190555050565b600060046000600d846040518082805190602001908083835b602083101515612fc55780518252602082019150602081019050602083039250612fa0565b6001836020036101000a0380198251168184511680821785525050505050509050019150509081526020016040518091039020548152602001908152602001600020600501549050919050565b60006130ad33846130a885600160003373ffffffffffffffffffffffffffffffffffffffff1673ffffffffffffffffffffffffffffffffffffffff16815260200190815260200160002060008973ffffffffffffffffffffffffffffffffffffffff1673ffffffffffffffffffffffffffffffffffffffff168152602001908152602001600020546140be90919063ffffffff16565b613d8f565b6001905092915050565b60006130c4338484613ef2565b6001905092915050565b600360009054906101000a900473ffffffffffffffffffffffffffffffffffffffff1673ffffffffffffffffffffffffffffffffffffffff163373ffffffffffffffffffffffffffffffffffffffff1614151561312a57600080fd5b80600f8190555050565b60175481565b600f5481565b600060046000600d846040518082805190602001908083835b60208310151561317e5780518252602082019150602081019050602083039250613159565b6001836020036101000a0380198251168184511680821785525050505050509050019150509081526020016040518091039020548152602001908152602001600020600301549050919050565b6000601254438115156131da57fe5b06101580156131f85750601354601254438115156131f457fe5b0611155b151561320357600080fd5b60006132226015546132143361279d565b61441590919063ffffffff16565b90506132396014548261443090919063ffffffff16565b503373ffffffffffffffffffffffffffffffffffffffff166108fc61326f836132613361279d565b6140d790919063ffffffff16565b9081150290604051600060405180830381858888f1935050505015801561329a573d6000803e3d6000fd5b506132ad336132a83361279d565b614463565b50565b600082805190602001206001900490508173ffffffffffffffffffffffffffffffffffffffff166004600083815260200190815260200160002060000160009054906101000a900473ffffffffffffffffffffffffffffffffffffffff1673ffffffffffffffffffffffffffffffffffffffff1614151561333057600080fd5b6004600082815260200190815260200160002060050154600460008381526020019081526020016000206003015411151561336a57600080fd5b600115156004600083815260200190815260200160002060040160009054906101000a900460ff1615151415156133a057600080fd5b6000601154348115156133af57fe5b0490506133be3382340161450a565b600034905080600460008581526020019081526020016000206006016000828254019250508190555081810390508060046000858152602001908152602001600020600701600082825401925050819055508060046000858152602001908152602001600020600501600082825401925050819055505050505050565b6000600160008473ffffffffffffffffffffffffffffffffffffffff1673ffffffffffffffffffffffffffffffffffffffff16815260200190815260200160002060008373ffffffffffffffffffffffffffffffffffffffff1673ffffffffffffffffffffffffffffffffffffffff16815260200190815260200160002054905092915050565b60105481565b6060600860003373ffffffffffffffffffffffffffffffffffffffff1673ffffffffffffffffffffffffffffffffffffffff16815260200190815260200160002080548060200260200160405190810160405280929190818152602001828054801561355357602002820191906000526020600020905b81548152602001906001019080831161353f575b5050505050905090565b600060046000600d846040518082805190602001908083835b60208310151561359b5780518252602082019150602081019050602083039250613576565b6001836020036101000a038019825116818451168082178552505050505050905001915050908152602001604051809103902054815260200190815260200160002060080160009054906101000a900473ffffffffffffffffffffffffffffffffffffffff169050919050565b600360009054906101000a900473ffffffffffffffffffffffffffffffffffffffff1673ffffffffffffffffffffffffffffffffffffffff163373ffffffffffffffffffffffffffffffffffffffff1614151561366457600080fd5b600073ffffffffffffffffffffffffffffffffffffffff168173ffffffffffffffffffffffffffffffffffffffff16141515156136a057600080fd5b8073ffffffffffffffffffffffffffffffffffffffff16600360009054906101000a900473ffffffffffffffffffffffffffffffffffffffff1673ffffffffffffffffffffffffffffffffffffffff167f8be0079c531659141344cd1fd0a4f28419497f9722a3daafe3b4186f6b6457e060405160405180910390a380600360006101000a81548173ffffffffffffffffffffffffffffffffffffffff021916908373ffffffffffffffffffffffffffffffffffffffff16021790555050565b3460165414151561377057600080fd5b6000600a836040518082805190602001908083835b6020831015156137aa5780518252602082019150602081019050602083039250613785565b6001836020036101000a0380198251168184511680821785525050505050509050019150509081526020016040518091039020541415156137ea57600080fd5b600073ffffffffffffffffffffffffffffffffffffffff16600c826040518082805190602001908083835b60208310151561383a5780518252602082019150602081019050602083039250613815565b6001836020036101000a038019825116818451168082178552505050505050905001915050908152602001604051809103902060009054906101000a900473ffffffffffffffffffffffffffffffffffffffff1673ffffffffffffffffffffffffffffffffffffffff161415156138b057600080fd5b33600c826040518082805190602001908083835b6020831015156138e957805182526020820191506020810190506020830392506138c4565b6001836020036101000a038019825116818451168082178552505050505050905001915050908152602001604051809103902060006101000a81548173ffffffffffffffffffffffffffffffffffffffff021916908373ffffffffffffffffffffffffffffffffffffffff1602179055506000828051906020012060019004905080600a846040518082805190602001908083835b6020831015156139a3578051825260208201915060208101905060208303925061397e565b6001836020036101000a038019825116818451168082178552505050505050905001915050908152602001604051809103902081905550336009846040518082805190602001908083835b602083101515613a1357805182526020820191506020810190506020830392506139ee565b6001836020036101000a038019825116818451168082178552505050505050905001915050908152602001604051809103902060006101000a81548173ffffffffffffffffffffffffffffffffffffffff021916908373ffffffffffffffffffffffffffffffffffffffff160217905550600860003373ffffffffffffffffffffffffffffffffffffffff1673ffffffffffffffffffffffffffffffffffffffff16815260200190815260200160002081908060018154018082558091505090600182039060005260206000200160009091929091909150555082600760008381526020019081526020016000209080519060200190613b149291906147b2565b50600b836040518082805190602001908083835b602083101515613b4d5780518252602082019150602081019050602083039250613b28565b6001836020036101000a03801982511681845116808217855250505050505090500191505090815260200160405180910390203390806001815401808255809150509060018203906000526020600020016000909192909190916101000a81548173ffffffffffffffffffffffffffffffffffffffff021916908373ffffffffffffffffffffffffffffffffffffffff16021790555050600560003373ffffffffffffffffffffffffffffffffffffffff1673ffffffffffffffffffffffffffffffffffffffff168152602001908152602001600020819080600181540180825580915050906001820390600052602060002001600090919290919091505550613c588284336140f5565b505050565b600360009054906101000a900473ffffffffffffffffffffffffffffffffffffffff1673ffffffffffffffffffffffffffffffffffffffff163373ffffffffffffffffffffffffffffffffffffffff16141515613cb957600080fd5b8060148190555050565b600360009054906101000a900473ffffffffffffffffffffffffffffffffffffffff1673ffffffffffffffffffffffffffffffffffffffff163373ffffffffffffffffffffffffffffffffffffffff16141515613d1f57600080fd5b8060108190555050565b600360009054906101000a900473ffffffffffffffffffffffffffffffffffffffff1673ffffffffffffffffffffffffffffffffffffffff163373ffffffffffffffffffffffffffffffffffffffff16141515613d8557600080fd5b8060128190555050565b600073ffffffffffffffffffffffffffffffffffffffff168273ffffffffffffffffffffffffffffffffffffffff1614151515613dcb57600080fd5b600073ffffffffffffffffffffffffffffffffffffffff168373ffffffffffffffffffffffffffffffffffffffff1614151515613e0757600080fd5b80600160008573ffffffffffffffffffffffffffffffffffffffff1673ffffffffffffffffffffffffffffffffffffffff16815260200190815260200160002060008473ffffffffffffffffffffffffffffffffffffffff1673ffffffffffffffffffffffffffffffffffffffff168152602001908152602001600020819055508173ffffffffffffffffffffffffffffffffffffffff168373ffffffffffffffffffffffffffffffffffffffff167f8c5be1e5ebec7d5bd14f71427d1e84f3dd0314c0f7b2291e5b200ac8c7c3b925836040518082815260200191505060405180910390a3505050565b600073ffffffffffffffffffffffffffffffffffffffff168273ffffffffffffffffffffffffffffffffffffffff1614151515613f2e57600080fd5b613f7f816000808673ffffffffffffffffffffffffffffffffffffffff1673ffffffffffffffffffffffffffffffffffffffff168152602001908152602001600020546140be90919063ffffffff16565b6000808573ffffffffffffffffffffffffffffffffffffffff1673ffffffffffffffffffffffffffffffffffffffff16815260200190815260200160002081905550614012816000808573ffffffffffffffffffffffffffffffffffffffff1673ffffffffffffffffffffffffffffffffffffffff168152602001908152602001600020546140d790919063ffffffff16565b6000808473ffffffffffffffffffffffffffffffffffffffff1673ffffffffffffffffffffffffffffffffffffffff168152602001908152602001600020819055508173ffffffffffffffffffffffffffffffffffffffff168373ffffffffffffffffffffffffffffffffffffffff167fddf252ad1be2c89b69c2b068fc378daa952ba7f163c4a11628f55a4df523b3ef836040518082815260200191505060405180910390a3505050565b60008282111515156140cc57fe5b818303905092915050565b60008082840190508381101515156140eb57fe5b8091505092915050565b60008380519060200120600190049050600083805190602001206001900490508273ffffffffffffffffffffffffffffffffffffffff16600c866040518082805190602001908083835b602083101515614164578051825260208201915060208101905060208303925061413f565b6001836020036101000a038019825116818451168082178552505050505050905001915050908152602001604051809103902060009054906101000a900473ffffffffffffffffffffffffffffffffffffffff1673ffffffffffffffffffffffffffffffffffffffff161415156141da57600080fd5b60006004600084815260200190815260200160002060040160006101000a81548160ff021916908315150217905550846004600084815260200190815260200160002060010190805190602001906142339291906147b2565b508360046000848152602001908152602001600020600201908051906020019061425e9291906147b2565b50336004600084815260200190815260200160002060000160006101000a81548173ffffffffffffffffffffffffffffffffffffffff021916908373ffffffffffffffffffffffffffffffffffffffff1602179055506006846040518082805190602001908083835b6020831015156142ec57805182526020820191506020810190506020830392506142c7565b6001836020036101000a038019825116818451168082178552505050505050905001915050908152602001604051809103902082908060018154018082558091505090600182039060005260206000200160009091929091909150555081600d866040518082805190602001908083835b602083101515614382578051825260208201915060208101905060208303925061435d565b6001836020036101000a03801982511681845116808217855250505050505090500191505090815260200160405180910390208190555081600e600083815260200190815260200160002060003373ffffffffffffffffffffffffffffffffffffffff1673ffffffffffffffffffffffffffffffffffffffff168152602001908152602001600020819055505050505050565b600080828481151561442357fe5b0490508091505092915050565b60008082840290506000841480614451575082848281151561444e57fe5b04145b151561445957fe5b8091505092915050565b61446d828261465e565b614506823361450184600160008873ffffffffffffffffffffffffffffffffffffffff1673ffffffffffffffffffffffffffffffffffffffff16815260200190815260200160002060003373ffffffffffffffffffffffffffffffffffffffff1673ffffffffffffffffffffffffffffffffffffffff168152602001908152602001600020546140be90919063ffffffff16565b613d8f565b5050565b600073ffffffffffffffffffffffffffffffffffffffff168273ffffffffffffffffffffffffffffffffffffffff161415151561454657600080fd5b61455b816002546140d790919063ffffffff16565b6002819055506145b2816000808573ffffffffffffffffffffffffffffffffffffffff1673ffffffffffffffffffffffffffffffffffffffff168152602001908152602001600020546140d790919063ffffffff16565b6000808473ffffffffffffffffffffffffffffffffffffffff1673ffffffffffffffffffffffffffffffffffffffff168152602001908152602001600020819055508173ffffffffffffffffffffffffffffffffffffffff16600073ffffffffffffffffffffffffffffffffffffffff167fddf252ad1be2c89b69c2b068fc378daa952ba7f163c4a11628f55a4df523b3ef836040518082815260200191505060405180910390a35050565b600073ffffffffffffffffffffffffffffffffffffffff168273ffffffffffffffffffffffffffffffffffffffff161415151561469a57600080fd5b6146af816002546140be90919063ffffffff16565b600281905550614706816000808573ffffffffffffffffffffffffffffffffffffffff1673ffffffffffffffffffffffffffffffffffffffff168152602001908152602001600020546140be90919063ffffffff16565b6000808473ffffffffffffffffffffffffffffffffffffffff1673ffffffffffffffffffffffffffffffffffffffff16815260200190815260200160002081905550600073ffffffffffffffffffffffffffffffffffffffff168273ffffffffffffffffffffffffffffffffffffffff167fddf252ad1be2c89b69c2b068fc378daa952ba7f163c4a11628f55a4df523b3ef836040518082815260200191505060405180910390a35050565b828054600181600116156101000203166002900490600052602060002090601f016020900481019282601f106147f357805160ff1916838001178555614821565b82800160010185558215614821579182015b82811115614820578251825591602001919060010190614805565b5b50905061482e9190614832565b5090565b61485491905b80821115614850576000816000905550600101614838565b5090565b9056fea165627a7a723058203b981fbb62cc92b867e07cd01ec28c0a15bf2e727784e5e89476b853e124e0270029",
  "source": "pragma solidity ^0.5.0;\n\nimport \"./Gimicoin.sol\";\nimport \"./Ownable.sol\";\n\ncontract Cagnottes is Gimicoin, Ownable{\n\nmapping (uint => channel) private mappChannel;\nmapping (address => uint[]) private mappGroupesForAddress;\nmapping (string => uint[]) private mappGroupeAndChannels;\nmapping (uint => string) private mappIDGroupe;\nmapping (address => uint[]) private mappOwnedGroup;\nmapping (string => address) private mappGroupeOwner;\nmapping (string => uint) private mappNomGroupe;\nmapping (string => address[]) private mappGroupe;\nmapping (string => address) private mappPseudo;\nmapping (string => uint) private mappPseudoToID;\nmapping (uint => mapping (address => uint)) private mappPseudoInGroup;\n\nuint public MAX_AMOUNT;\nuint public MIN_AMOUNT;\nuint public PRICE_RATIO;\nuint public TIME_TOKEN_WITHDRAW;\nuint public LAPS_TIME_TOKEN_WITHDRAW;\nuint public TOKEN_BONUS;\nuint public DESERVERVE_BONUS;\nuint public PRICE_GROUP;\nuint public PRICE_MEMBRE;\n\nstruct channel\n{\n  address demandeur;\n  string pseudo;\n  string groupe;\n  uint montant;\n  bool actif;\n  uint enCours;\n  uint donnations;\n  uint receptions;\n  address contratCible;\n}\n\nconstructor() public\n{\n  MAX_AMOUNT = 10000000000000;\n  MIN_AMOUNT = 10000;\n  PRICE_RATIO = 100;\n  TIME_TOKEN_WITHDRAW = 10000000000;\n  LAPS_TIME_TOKEN_WITHDRAW = 100000;\n  TOKEN_BONUS = 0;\n  DESERVERVE_BONUS = 1000000;\n  PRICE_GROUP = 1000;\n  PRICE_MEMBRE = 100;\n}\n\nfunction creerGroupe(string memory _nom, string memory _pseudo) payable public\n{\n  require(PRICE_GROUP == msg.value);\n  require(mappNomGroupe[_nom] == 0);\n  require(mappPseudo[_pseudo] == address(0));\n  mappPseudo[_pseudo] = msg.sender;\n  uint IDGroupe = uint(keccak256(bytes(_nom)));\n  mappNomGroupe[_nom] = IDGroupe;\n  mappGroupeOwner[_nom] = msg.sender;\n  mappOwnedGroup[msg.sender].push(IDGroupe);\n  mappIDGroupe[IDGroupe] = _nom;\n  mappGroupe[_nom].push(msg.sender);\n  mappGroupesForAddress[msg.sender].push(IDGroupe);\n  creerCanal(_pseudo, _nom, msg.sender);\n}\n\nfunction ajouterMembre(address _membre, string memory _groupe, string memory _pseudo) payable public\n{\n  require(PRICE_MEMBRE == msg.value);\n  require(mappPseudo[_pseudo] == address(0));\n  require(mappGroupeOwner[_groupe] == msg.sender);\n  mappPseudo[_pseudo] = _membre;\n  uint IDGroupe = uint(keccak256(bytes(_groupe)));\n  mappGroupesForAddress[_membre].push(IDGroupe);\n  mappGroupe[_groupe].push(_membre);\n  creerCanal(_pseudo, _groupe, _membre);\n}\n\nfunction creerCanal(string memory _pseudo, string memory _groupe, address _membre) private\n{\n  uint channelID = uint(keccak256(bytes(_pseudo)));\n  uint groupeID = uint(keccak256(bytes(_groupe)));\n  require(mappPseudo[_pseudo] == _membre);\n  mappChannel[channelID].actif = false;\n  mappChannel[channelID].pseudo = _pseudo;\n  mappChannel[channelID].groupe = _groupe;\n  mappChannel[channelID].demandeur = msg.sender;\n  mappGroupeAndChannels[_groupe].push(channelID);\n  mappPseudoToID[_pseudo] = channelID;\n  mappPseudoInGroup[groupeID][msg.sender] = channelID;\n}\n\nfunction demander(uint _montant, string memory _pseudo, address _contratCible) public\n{\n  require(mappPseudo[_pseudo] == msg.sender);\n  uint channelID = uint(keccak256(bytes(_pseudo)));\n  require(mappChannel[channelID].actif == false);\n  mappChannel[channelID].montant = _montant;\n  mappChannel[channelID].actif = true;\n  mappChannel[channelID].contratCible = _contratCible;\n}\n\nfunction payerCanal(string memory _pseudo, address _address) public payable\n{\n  uint _channelID = uint(keccak256(bytes(_pseudo)));\n  require(mappChannel[_channelID].demandeur == _address);\n  require(mappChannel[_channelID].montant > mappChannel[_channelID].enCours);\n  require(mappChannel[_channelID].actif == true);\n  uint fees = uint(msg.value / PRICE_RATIO);\n  _mint(msg.sender,msg.value + fees);\n  uint addValue = msg.value;\n  mappChannel[_channelID].donnations += addValue;\n  addValue -= fees;\n  mappChannel[_channelID].receptions += addValue;\n  mappChannel[_channelID].enCours += addValue;\n}\n\nfunction fermetureCanal(string memory _pseudo) public\n{\n  uint _channelID = uint(keccak256(bytes(_pseudo)));\n  require(mappChannel[_channelID].actif == true);\n  require(mappChannel[_channelID].demandeur == msg.sender);\n  msg.sender.transfer(mappChannel[_channelID].enCours);\n  mappChannel[_channelID].enCours = 0;\n  mappChannel[_channelID].montant = 0;\n  mappChannel[_channelID].actif = false;\n  mappChannel[_channelID].contratCible = address(0);\n}\n\nfunction withdrawEther(uint _amount) public onlyOwner\n{\n  msg.sender.transfer(_amount);\n}\n\nfunction tokenToEther() public\n{\n  require(block.number % TIME_TOKEN_WITHDRAW  >= 0 && block.number % TIME_TOKEN_WITHDRAW <= LAPS_TIME_TOKEN_WITHDRAW);\n  uint monBonus = uint(balanceOf(msg.sender).div(DESERVERVE_BONUS));\n  monBonus.mul(TOKEN_BONUS);\n  msg.sender.transfer(balanceOf(msg.sender).add(monBonus));\n  _burnFrom(msg.sender,balanceOf(msg.sender));\n}\n\nfunction modifierMeriteBonus(uint _seuil) public onlyOwner\n{\n  DESERVERVE_BONUS = _seuil;\n}\n\nfunction modifierTokenBonus(uint _tokenBonus) public onlyOwner\n{\n  TOKEN_BONUS = _tokenBonus;\n}\n\nfunction modifierLapsTimeToWithdraw(uint _laspsTime) public onlyOwner\n{\n  LAPS_TIME_TOKEN_WITHDRAW = _laspsTime;\n}\n\nfunction modifierTimeToWithdraw(uint _TimeToWithdraw) public onlyOwner\n{\n  TIME_TOKEN_WITHDRAW = _TimeToWithdraw;\n}\n\nfunction modifierMaxAmount(uint _maxAmount) public onlyOwner\n{\n  MAX_AMOUNT = _maxAmount;\n}\n\nfunction modifierMinAmount(uint _minAmount) public onlyOwner\n{\n  MIN_AMOUNT = _minAmount;\n}\n\nfunction modifierCharges(uint _priceChannel) public onlyOwner\n{\n  PRICE_RATIO = _priceChannel;\n}\n\nfunction modifierPriceGroup(uint _priceGroup) public onlyOwner\n{\n  PRICE_GROUP = _priceGroup;\n}\n\nfunction modifierPriceMember(uint _priceMember) public onlyOwner\n{\n  PRICE_MEMBRE = _priceMember;\n}\n\nfunction getGroupesPerAddress() public view returns (uint[] memory)\n{\n  return mappGroupesForAddress[msg.sender];\n}\n\nfunction getMembres(string memory _groupe) public view returns (uint[] memory)\n{\n  return mappGroupeAndChannels[_groupe];\n}\n\nfunction getNomMembre(uint _ID) public view returns (string memory)\n{\n  return mappChannel[_ID].pseudo;\n}\n\nfunction getGroupe(string memory _pseudo) public view returns (string memory)\n{\n  return mappChannel[mappPseudoToID[_pseudo]].groupe;\n}\n\nfunction getMontant(string memory _pseudo) public view returns (uint)\n{\n  return mappChannel[mappPseudoToID[_pseudo]].montant;\n}\n\nfunction getEncours(string memory _pseudo) public view returns (uint)\n{\n  return mappChannel[mappPseudoToID[_pseudo]].enCours;\n}\n\nfunction getDonnations(string memory _pseudo) public view returns (uint)\n{\n  return mappChannel[mappPseudoToID[_pseudo]].donnations;\n}\n\nfunction getDemandeur(string memory _pseudo) public view returns (address)\n{\n  return mappChannel[mappPseudoToID[_pseudo]].demandeur;\n}\n\nfunction getReceptions(string memory _pseudo) public view returns (uint)\n{\n  return mappChannel[mappPseudoToID[_pseudo]].receptions;\n}\n\nfunction getContratCible(string memory _pseudo) public view returns (address)\n{\n  return mappChannel[mappPseudoToID[_pseudo]].contratCible;\n}\n\nfunction getNomGroupe(uint _ID) public view returns (string memory)\n{\n  return mappIDGroupe[_ID];\n}\n\nfunction getOwnedGroupe() public view returns (uint[] memory)\n{\n  return mappOwnedGroup[msg.sender];\n}\n\nfunction getPseudoInGroup(string memory _groupe) public view returns (string memory)\n{\n  uint IDGroupe = uint(keccak256(bytes(_groupe)));\n  return mappChannel[mappPseudoInGroup[IDGroupe][msg.sender]].pseudo;\n}\n\n}\n",
  "sourcePath": "/Users/germaindacunha/Desktop/Alyra/project/Ether-Union/contracts/Cagnottes.sol",
  "compiler": {
    "name": "solc",
    "version": "0.5.0+commit.1d4f565a.Emscripten.clang"
  },
  "schemaVersion": "3.0.2",
  "updatedAt": "2019-03-27T22:41:25.349Z",
  "devdoc": {
    "methods": {
      "allowance(address,address)": {
        "details": "Function to check the amount of tokens that an owner allowed to a spender.",
        "params": {
          "owner": "address The address which owns the funds.",
          "spender": "address The address which will spend the funds."
        },
        "return": "A uint256 specifying the amount of tokens still available for the spender."
      },
      "approve(address,uint256)": {
        "details": "Approve the passed address to spend the specified amount of tokens on behalf of msg.sender. Beware that changing an allowance with this method brings the risk that someone may use both the old and the new allowance by unfortunate transaction ordering. One possible solution to mitigate this race condition is to first reduce the spender's allowance to 0 and set the desired value afterwards: https://github.com/ethereum/EIPs/issues/20#issuecomment-263524729",
        "params": {
          "spender": "The address which will spend the funds.",
          "value": "The amount of tokens to be spent."
        }
      },
      "balanceOf(address)": {
        "details": "Gets the balance of the specified address.",
        "params": {
          "owner": "The address to query the balance of."
        },
        "return": "A uint256 representing the amount owned by the passed address."
      },
      "decreaseAllowance(address,uint256)": {
        "details": "Decrease the amount of tokens that an owner allowed to a spender. approve should be called when _allowed[msg.sender][spender] == 0. To decrement allowed value is better to use this function to avoid 2 calls (and wait until the first transaction is mined) From MonolithDAO Token.sol Emits an Approval event.",
        "params": {
          "spender": "The address which will spend the funds.",
          "subtractedValue": "The amount of tokens to decrease the allowance by."
        }
      },
      "increaseAllowance(address,uint256)": {
        "details": "Increase the amount of tokens that an owner allowed to a spender. approve should be called when _allowed[msg.sender][spender] == 0. To increment allowed value is better to use this function to avoid 2 calls (and wait until the first transaction is mined) From MonolithDAO Token.sol Emits an Approval event.",
        "params": {
          "addedValue": "The amount of tokens to increase the allowance by.",
          "spender": "The address which will spend the funds."
        }
      },
      "totalSupply()": {
        "details": "Total number of tokens in existence"
      },
      "transfer(address,uint256)": {
        "details": "Transfer token to a specified address",
        "params": {
          "to": "The address to transfer to.",
          "value": "The amount to be transferred."
        }
      },
      "transferFrom(address,address,uint256)": {
        "details": "Transfer tokens from one address to another. Note that while this function emits an Approval event, this is not required as per the specification, and other compliant implementations may not emit the event.",
        "params": {
          "from": "address The address which you want to send tokens from",
          "to": "address The address which you want to transfer to",
          "value": "uint256 the amount of tokens to be transferred"
        }
      },
      "transferOwnership(address)": {
        "details": "Allows the current owner to transfer control of the contract to a newOwner.",
        "params": {
          "newOwner": "The address to transfer ownership to."
        }
      }
    }
  },
  "userdoc": {
    "methods": {}
  }
}