{
  "contractName": "Lottery",
  "abi": [
    {
      "constant": true,
      "inputs": [],
      "name": "name",
      "outputs": [
        {
          "name": "",
          "type": "string"
        }
      ],
      "payable": false,
      "stateMutability": "view",
      "type": "function"
    },
    {
      "constant": false,
      "inputs": [
        {
          "name": "spender",
          "type": "address"
        },
        {
          "name": "value",
          "type": "uint256"
        }
      ],
      "name": "approve",
      "outputs": [
        {
          "name": "",
          "type": "bool"
        }
      ],
      "payable": false,
      "stateMutability": "nonpayable",
      "type": "function"
    },
    {
      "constant": false,
      "inputs": [
        {
          "name": "_priceGroup",
          "type": "uint256"
        }
      ],
      "name": "modifierPriceGroup",
      "outputs": [],
      "payable": false,
      "stateMutability": "nonpayable",
      "type": "function"
    },
    {
      "constant": true,
      "inputs": [],
      "name": "totalSupply",
      "outputs": [
        {
          "name": "",
          "type": "uint256"
        }
      ],
      "payable": false,
      "stateMutability": "view",
      "type": "function"
    },
    {
      "constant": true,
      "inputs": [],
      "name": "getGroupesPerAddress",
      "outputs": [
        {
          "name": "",
          "type": "uint256[]"
        }
      ],
      "payable": false,
      "stateMutability": "view",
      "type": "function"
    },
    {
      "constant": true,
      "inputs": [
        {
          "name": "_groupe",
          "type": "string"
        }
      ],
      "name": "getPseudoInGroup",
      "outputs": [
        {
          "name": "",
          "type": "string"
        }
      ],
      "payable": false,
      "stateMutability": "view",
      "type": "function"
    },
    {
      "constant": false,
      "inputs": [
        {
          "name": "from",
          "type": "address"
        },
        {
          "name": "to",
          "type": "address"
        },
        {
          "name": "value",
          "type": "uint256"
        }
      ],
      "name": "transferFrom",
      "outputs": [
        {
          "name": "",
          "type": "bool"
        }
      ],
      "payable": false,
      "stateMutability": "nonpayable",
      "type": "function"
    },
    {
      "constant": false,
      "inputs": [
        {
          "name": "_montant",
          "type": "uint256"
        },
        {
          "name": "_pseudo",
          "type": "string"
        },
        {
          "name": "_contratCible",
          "type": "address"
        },
        {
          "name": "_description",
          "type": "string"
        }
      ],
      "name": "demander",
      "outputs": [],
      "payable": true,
      "stateMutability": "payable",
      "type": "function"
    },
    {
      "constant": true,
      "inputs": [
        {
          "name": "_groupe",
          "type": "string"
        }
      ],
      "name": "getMembres",
      "outputs": [
        {
          "name": "",
          "type": "uint256[]"
        }
      ],
      "payable": false,
      "stateMutability": "view",
      "type": "function"
    },
    {
      "constant": true,
      "inputs": [],
      "name": "decimals",
      "outputs": [
        {
          "name": "",
          "type": "uint32"
        }
      ],
      "payable": false,
      "stateMutability": "view",
      "type": "function"
    },
    {
      "constant": false,
      "inputs": [
        {
          "name": "_priceChannel",
          "type": "uint256"
        }
      ],
      "name": "modifierPriceChannel",
      "outputs": [],
      "payable": false,
      "stateMutability": "nonpayable",
      "type": "function"
    },
    {
      "constant": false,
      "inputs": [
        {
          "name": "spender",
          "type": "address"
        },
        {
          "name": "addedValue",
          "type": "uint256"
        }
      ],
      "name": "increaseAllowance",
      "outputs": [
        {
          "name": "",
          "type": "bool"
        }
      ],
      "payable": false,
      "stateMutability": "nonpayable",
      "type": "function"
    },
    {
      "constant": true,
      "inputs": [],
      "name": "PRICE_RATIO",
      "outputs": [
        {
          "name": "",
          "type": "uint256"
        }
      ],
      "payable": false,
      "stateMutability": "view",
      "type": "function"
    },
    {
      "constant": true,
      "inputs": [
        {
          "name": "_ID",
          "type": "uint256"
        }
      ],
      "name": "getNomGroupe",
      "outputs": [
        {
          "name": "",
          "type": "string"
        }
      ],
      "payable": false,
      "stateMutability": "view",
      "type": "function"
    },
    {
      "constant": true,
      "inputs": [
        {
          "name": "_pseudo",
          "type": "string"
        }
      ],
      "name": "getDescription",
      "outputs": [
        {
          "name": "",
          "type": "string"
        }
      ],
      "payable": false,
      "stateMutability": "view",
      "type": "function"
    },
    {
      "constant": true,
      "inputs": [],
      "name": "PRICE_GROUP",
      "outputs": [
        {
          "name": "",
          "type": "uint256"
        }
      ],
      "payable": false,
      "stateMutability": "view",
      "type": "function"
    },
    {
      "constant": true,
      "inputs": [
        {
          "name": "_ID",
          "type": "uint256"
        }
      ],
      "name": "getNomMembre",
      "outputs": [
        {
          "name": "",
          "type": "string"
        }
      ],
      "payable": false,
      "stateMutability": "view",
      "type": "function"
    },
    {
      "constant": false,
      "inputs": [
        {
          "name": "_pseudo",
          "type": "string"
        }
      ],
      "name": "fermetureCanal",
      "outputs": [],
      "payable": false,
      "stateMutability": "nonpayable",
      "type": "function"
    },
    {
      "constant": false,
      "inputs": [
        {
          "name": "_priceChannel",
          "type": "uint256"
        }
      ],
      "name": "modifierCharges",
      "outputs": [],
      "payable": false,
      "stateMutability": "nonpayable",
      "type": "function"
    },
    {
      "constant": true,
      "inputs": [
        {
          "name": "_pseudo",
          "type": "string"
        }
      ],
      "name": "getReceptions",
      "outputs": [
        {
          "name": "",
          "type": "uint256"
        }
      ],
      "payable": false,
      "stateMutability": "view",
      "type": "function"
    },
    {
      "constant": false,
      "inputs": [
        {
          "name": "_priceMember",
          "type": "uint256"
        }
      ],
      "name": "modifierPriceMember",
      "outputs": [],
      "payable": false,
      "stateMutability": "nonpayable",
      "type": "function"
    },
    {
      "constant": false,
      "inputs": [
        {
          "name": "_pseudo",
          "type": "string"
        }
      ],
      "name": "payerCanal",
      "outputs": [],
      "payable": true,
      "stateMutability": "payable",
      "type": "function"
    },
    {
      "constant": true,
      "inputs": [
        {
          "name": "owner",
          "type": "address"
        }
      ],
      "name": "balanceOf",
      "outputs": [
        {
          "name": "",
          "type": "uint256"
        }
      ],
      "payable": false,
      "stateMutability": "view",
      "type": "function"
    },
    {
      "constant": true,
      "inputs": [
        {
          "name": "_pseudo",
          "type": "string"
        }
      ],
      "name": "getGroupe",
      "outputs": [
        {
          "name": "",
          "type": "string"
        }
      ],
      "payable": false,
      "stateMutability": "view",
      "type": "function"
    },
    {
      "constant": false,
      "inputs": [
        {
          "name": "_montant",
          "type": "uint256"
        }
      ],
      "name": "withdrawCash",
      "outputs": [],
      "payable": false,
      "stateMutability": "nonpayable",
      "type": "function"
    },
    {
      "constant": true,
      "inputs": [],
      "name": "owner",
      "outputs": [
        {
          "name": "",
          "type": "address"
        }
      ],
      "payable": false,
      "stateMutability": "view",
      "type": "function"
    },
    {
      "constant": false,
      "inputs": [
        {
          "name": "_membre",
          "type": "address"
        },
        {
          "name": "_groupe",
          "type": "string"
        },
        {
          "name": "_pseudo",
          "type": "string"
        }
      ],
      "name": "ajouterMembre",
      "outputs": [],
      "payable": true,
      "stateMutability": "payable",
      "type": "function"
    },
    {
      "constant": true,
      "inputs": [],
      "name": "symbol",
      "outputs": [
        {
          "name": "",
          "type": "string"
        }
      ],
      "payable": false,
      "stateMutability": "view",
      "type": "function"
    },
    {
      "constant": true,
      "inputs": [
        {
          "name": "_pseudo",
          "type": "string"
        }
      ],
      "name": "getEncours",
      "outputs": [
        {
          "name": "",
          "type": "uint256"
        }
      ],
      "payable": false,
      "stateMutability": "view",
      "type": "function"
    },
    {
      "constant": true,
      "inputs": [],
      "name": "PRICE_CHANEL",
      "outputs": [
        {
          "name": "",
          "type": "uint256"
        }
      ],
      "payable": false,
      "stateMutability": "view",
      "type": "function"
    },
    {
      "constant": false,
      "inputs": [
        {
          "name": "spender",
          "type": "address"
        },
        {
          "name": "subtractedValue",
          "type": "uint256"
        }
      ],
      "name": "decreaseAllowance",
      "outputs": [
        {
          "name": "",
          "type": "bool"
        }
      ],
      "payable": false,
      "stateMutability": "nonpayable",
      "type": "function"
    },
    {
      "constant": false,
      "inputs": [
        {
          "name": "to",
          "type": "address"
        },
        {
          "name": "value",
          "type": "uint256"
        }
      ],
      "name": "transfer",
      "outputs": [
        {
          "name": "",
          "type": "bool"
        }
      ],
      "payable": false,
      "stateMutability": "nonpayable",
      "type": "function"
    },
    {
      "constant": false,
      "inputs": [
        {
          "name": "_maxAmount",
          "type": "uint256"
        }
      ],
      "name": "modifierMaxAmount",
      "outputs": [],
      "payable": false,
      "stateMutability": "nonpayable",
      "type": "function"
    },
    {
      "constant": true,
      "inputs": [],
      "name": "PRICE_MEMBRE",
      "outputs": [
        {
          "name": "",
          "type": "uint256"
        }
      ],
      "payable": false,
      "stateMutability": "view",
      "type": "function"
    },
    {
      "constant": true,
      "inputs": [],
      "name": "MAX_AMOUNT",
      "outputs": [
        {
          "name": "",
          "type": "uint256"
        }
      ],
      "payable": false,
      "stateMutability": "view",
      "type": "function"
    },
    {
      "constant": true,
      "inputs": [
        {
          "name": "_pseudo",
          "type": "string"
        }
      ],
      "name": "getMontant",
      "outputs": [
        {
          "name": "",
          "type": "uint256"
        }
      ],
      "payable": false,
      "stateMutability": "view",
      "type": "function"
    },
    {
      "constant": true,
      "inputs": [
        {
          "name": "owner",
          "type": "address"
        },
        {
          "name": "spender",
          "type": "address"
        }
      ],
      "name": "allowance",
      "outputs": [
        {
          "name": "",
          "type": "uint256"
        }
      ],
      "payable": false,
      "stateMutability": "view",
      "type": "function"
    },
    {
      "constant": true,
      "inputs": [],
      "name": "MIN_AMOUNT",
      "outputs": [
        {
          "name": "",
          "type": "uint256"
        }
      ],
      "payable": false,
      "stateMutability": "view",
      "type": "function"
    },
    {
      "constant": true,
      "inputs": [],
      "name": "getOwnedGroupe",
      "outputs": [
        {
          "name": "",
          "type": "uint256[]"
        }
      ],
      "payable": false,
      "stateMutability": "view",
      "type": "function"
    },
    {
      "constant": true,
      "inputs": [
        {
          "name": "_pseudo",
          "type": "string"
        }
      ],
      "name": "getContratCible",
      "outputs": [
        {
          "name": "",
          "type": "address"
        }
      ],
      "payable": false,
      "stateMutability": "view",
      "type": "function"
    },
    {
      "constant": true,
      "inputs": [],
      "name": "LOTTERY_CAGNOTTE",
      "outputs": [
        {
          "name": "",
          "type": "uint256"
        }
      ],
      "payable": false,
      "stateMutability": "view",
      "type": "function"
    },
    {
      "constant": false,
      "inputs": [
        {
          "name": "newOwner",
          "type": "address"
        }
      ],
      "name": "transferOwnership",
      "outputs": [],
      "payable": false,
      "stateMutability": "nonpayable",
      "type": "function"
    },
    {
      "constant": false,
      "inputs": [
        {
          "name": "_nom",
          "type": "string"
        },
        {
          "name": "_pseudo",
          "type": "string"
        }
      ],
      "name": "creerGroupe",
      "outputs": [],
      "payable": true,
      "stateMutability": "payable",
      "type": "function"
    },
    {
      "constant": false,
      "inputs": [
        {
          "name": "_minAmount",
          "type": "uint256"
        }
      ],
      "name": "modifierMinAmount",
      "outputs": [],
      "payable": false,
      "stateMutability": "nonpayable",
      "type": "function"
    },
    {
      "inputs": [],
      "payable": false,
      "stateMutability": "nonpayable",
      "type": "constructor"
    },
    {
      "anonymous": false,
      "inputs": [
        {
          "indexed": true,
          "name": "previousOwner",
          "type": "address"
        },
        {
          "indexed": true,
          "name": "newOwner",
          "type": "address"
        }
      ],
      "name": "OwnershipTransferred",
      "type": "event"
    },
    {
      "anonymous": false,
      "inputs": [
        {
          "indexed": true,
          "name": "owner",
          "type": "address"
        },
        {
          "indexed": false,
          "name": "_montant",
          "type": "uint256"
        }
      ],
      "name": "fundsTransferred",
      "type": "event"
    },
    {
      "anonymous": false,
      "inputs": [
        {
          "indexed": true,
          "name": "from",
          "type": "address"
        },
        {
          "indexed": true,
          "name": "to",
          "type": "address"
        },
        {
          "indexed": false,
          "name": "value",
          "type": "uint256"
        }
      ],
      "name": "Transfer",
      "type": "event"
    },
    {
      "anonymous": false,
      "inputs": [
        {
          "indexed": true,
          "name": "owner",
          "type": "address"
        },
        {
          "indexed": true,
          "name": "spender",
          "type": "address"
        },
        {
          "indexed": false,
          "name": "value",
          "type": "uint256"
        }
      ],
      "name": "Approval",
      "type": "event"
    },
    {
      "constant": false,
      "inputs": [
        {
          "name": "_price",
          "type": "uint256"
        },
        {
          "name": "_tickets",
          "type": "uint256"
        },
        {
          "name": "_blockEnd",
          "type": "uint256"
        }
      ],
      "name": "initierLottery",
      "outputs": [],
      "payable": false,
      "stateMutability": "nonpayable",
      "type": "function"
    },
    {
      "constant": false,
      "inputs": [
        {
          "name": "_prediction",
          "type": "uint256"
        }
      ],
      "name": "play",
      "outputs": [],
      "payable": false,
      "stateMutability": "nonpayable",
      "type": "function"
    },
    {
      "constant": false,
      "inputs": [],
      "name": "endGame",
      "outputs": [],
      "payable": false,
      "stateMutability": "nonpayable",
      "type": "function"
    },
    {
      "constant": false,
      "inputs": [],
      "name": "soldeGame",
      "outputs": [],
      "payable": false,
      "stateMutability": "nonpayable",
      "type": "function"
    },
    {
      "constant": false,
      "inputs": [],
      "name": "withdrawGains",
      "outputs": [],
      "payable": false,
      "stateMutability": "nonpayable",
      "type": "function"
    },
    {
      "constant": true,
      "inputs": [],
      "name": "getPrixLottery",
      "outputs": [
        {
          "name": "",
          "type": "uint256"
        }
      ],
      "payable": false,
      "stateMutability": "view",
      "type": "function"
    },
    {
      "constant": true,
      "inputs": [],
      "name": "getTicketsLeft",
      "outputs": [
        {
          "name": "",
          "type": "uint256"
        }
      ],
      "payable": false,
      "stateMutability": "view",
      "type": "function"
    },
    {
      "constant": true,
      "inputs": [],
      "name": "getEndGame",
      "outputs": [
        {
          "name": "",
          "type": "uint256"
        }
      ],
      "payable": false,
      "stateMutability": "view",
      "type": "function"
    },
    {
      "constant": true,
      "inputs": [],
      "name": "getSuperCagnotte",
      "outputs": [
        {
          "name": "",
          "type": "uint256"
        }
      ],
      "payable": false,
      "stateMutability": "view",
      "type": "function"
    }
  ],
  "bytecode": "0x608060405234801561001057600080fd5b5033600360006101000a81548173ffffffffffffffffffffffffffffffffffffffff021916908373ffffffffffffffffffffffffffffffffffffffff160217905550678ac7230489e80000600c8190555062989680600d819055506064600e81905550620186a0600f819055506127106010819055506103e86011819055506002601a60006101000a81548160ff021916908360028111156100ae57fe5b02179055506149f880620000c36000396000f3fe60806040526004361061027d576000357c0100000000000000000000000000000000000000000000000000000000900463ffffffff16806306fdde0314610282578063095ea7b3146103125780630bcb257f146103855780630bfc2f5b146103b057806317503266146103ff57806318160ddd1461043a5780631e0afe57146104655780631e63f293146104d15780632055bd08146104fc57806323b872dd1461063d578063283a2b46146106d057806329c773471461084c578063313ce56714610969578063370c29f9146109a057806339509351146109db5780633c431d6a14610a4e5780634152299714610a7957806345de2ca014610b2d578063483f021914610c6e5780634a3f4a5d14610c855780634b7b03cf14610cb05780634dc8872914610d645780635126670614610e2c5780635743026414610e675780635f09355314610f43578063639f849914610f7e578063646f22c5146110395780636898f82b146110645780636cbc2ded1461109f57806370a08231146110b65780637aede2721461111b57806383e4cccf1461125c57806389760011146112975780638da5cb5b146112ae5780638f3333411461130557806395d89b41146114775780639d05e9ab14611507578063a18b7c11146115e3578063a457c2d71461160e578063a9059cbb14611681578063b6e91ae4146116f4578063beaf3b0d1461171f578063d335c0431461175a578063d40dc87014611785578063d74b10a5146117b0578063dd62ed3e1461188c578063ddbcb5fa14611911578063e09c81361461193c578063e7637a7d146119a8578063e7b04b7214611ab0578063f2fde38b14611adb578063f4343df414611b2c578063f483977214611c7e575b600080fd5b34801561028e57600080fd5b50610297611cb9565b6040518080602001828103825283818151815260200191508051906020019080838360005b838110156102d75780820151818401526020810190506102bc565b50505050905090810190601f1680156103045780820380516001836020036101000a031916815260200191505b509250505060405180910390f35b34801561031e57600080fd5b5061036b6004803603604081101561033557600080fd5b81019080803573ffffffffffffffffffffffffffffffffffffffff16906020019092919080359060200190929190505050611cf2565b604051808215151515815260200191505060405180910390f35b34801561039157600080fd5b5061039a611d09565b6040518082815260200191505060405180910390f35b3480156103bc57600080fd5b506103fd600480360360608110156103d357600080fd5b81019080803590602001909291908035906020019092919080359060200190929190505050611d13565b005b34801561040b57600080fd5b506104386004803603602081101561042257600080fd5b8101908080359060200190929190505050611dee565b005b34801561044657600080fd5b5061044f611e54565b6040518082815260200191505060405180910390f35b34801561047157600080fd5b5061047a611e5e565b6040518080602001828103825283818151815260200191508051906020019060200280838360005b838110156104bd5780820151818401526020810190506104a2565b505050509050019250505060405180910390f35b3480156104dd57600080fd5b506104e6611ef3565b6040518082815260200191505060405180910390f35b34801561050857600080fd5b506105c26004803603602081101561051f57600080fd5b810190808035906020019064010000000081111561053c57600080fd5b82018360208201111561054e57600080fd5b8035906020019184600183028401116401000000008311171561057057600080fd5b91908080601f016020809104026020016040519081016040528093929190818152602001838380828437600081840152601f19601f820116905080830192505050505050509192919290505050611efd565b6040518080602001828103825283818151815260200191508051906020019080838360005b838110156106025780820151818401526020810190506105e7565b50505050905090810190601f16801561062f5780820380516001836020036101000a031916815260200191505b509250505060405180910390f35b34801561064957600080fd5b506106b66004803603606081101561066057600080fd5b81019080803573ffffffffffffffffffffffffffffffffffffffff169060200190929190803573ffffffffffffffffffffffffffffffffffffffff16906020019092919080359060200190929190505050612016565b604051808215151515815260200191505060405180910390f35b61084a600480360360808110156106e657600080fd5b81019080803590602001909291908035906020019064010000000081111561070d57600080fd5b82018360208201111561071f57600080fd5b8035906020019184600183028401116401000000008311171561074157600080fd5b91908080601f016020809104026020016040519081016040528093929190818152602001838380828437600081840152601f19601f820116905080830192505050505050509192919290803573ffffffffffffffffffffffffffffffffffffffff169060200190929190803590602001906401000000008111156107c457600080fd5b8201836020820111156107d657600080fd5b803590602001918460018302840111640100000000831117156107f857600080fd5b91908080601f016020809104026020016040519081016040528093929190818152602001838380828437600081840152601f19601f8201169050808301925050505050505091929192905050506120c7565b005b34801561085857600080fd5b506109126004803603602081101561086f57600080fd5b810190808035906020019064010000000081111561088c57600080fd5b82018360208201111561089e57600080fd5b803590602001918460018302840111640100000000831117156108c057600080fd5b91908080601f016020809104026020016040519081016040528093929190818152602001838380828437600081840152601f19601f82011690508083019250505050505050919291929050505061223e565b6040518080602001828103825283818151815260200191508051906020019060200280838360005b8381101561095557808201518184015260208101905061093a565b505050509050019250505060405180910390f35b34801561097557600080fd5b5061097e612301565b604051808263ffffffff1663ffffffff16815260200191505060405180910390f35b3480156109ac57600080fd5b506109d9600480360360208110156109c357600080fd5b8101908080359060200190929190505050612306565b005b3480156109e757600080fd5b50610a34600480360360408110156109fe57600080fd5b81019080803573ffffffffffffffffffffffffffffffffffffffff1690602001909291908035906020019092919050505061236c565b604051808215151515815260200191505060405180910390f35b348015610a5a57600080fd5b50610a63612411565b6040518082815260200191505060405180910390f35b348015610a8557600080fd5b50610ab260048036036020811015610a9c57600080fd5b8101908080359060200190929190505050612417565b6040518080602001828103825283818151815260200191508051906020019080838360005b83811015610af2578082015181840152602081019050610ad7565b50505050905090810190601f168015610b1f5780820380516001836020036101000a031916815260200191505b509250505060405180910390f35b348015610b3957600080fd5b50610bf360048036036020811015610b5057600080fd5b8101908080359060200190640100000000811115610b6d57600080fd5b820183602082011115610b7f57600080fd5b80359060200191846001830284011164010000000083111715610ba157600080fd5b91908080601f016020809104026020016040519081016040528093929190818152602001838380828437600081840152601f19601f8201169050808301925050505050505091929192905050506124cc565b6040518080602001828103825283818151815260200191508051906020019080838360005b83811015610c33578082015181840152602081019050610c18565b50505050905090810190601f168015610c605780820380516001836020036101000a031916815260200191505b509250505060405180910390f35b348015610c7a57600080fd5b50610c836125ef565b005b348015610c9157600080fd5b50610c9a6126c2565b6040518082815260200191505060405180910390f35b348015610cbc57600080fd5b50610ce960048036036020811015610cd357600080fd5b81019080803590602001909291905050506126c8565b6040518080602001828103825283818151815260200191508051906020019080838360005b83811015610d29578082015181840152602081019050610d0e565b50505050905090810190601f168015610d565780820380516001836020036101000a031916815260200191505b509250505060405180910390f35b348015610d7057600080fd5b50610e2a60048036036020811015610d8757600080fd5b8101908080359060200190640100000000811115610da457600080fd5b820183602082011115610db657600080fd5b80359060200191846001830284011164010000000083111715610dd857600080fd5b91908080601f016020809104026020016040519081016040528093929190818152602001838380828437600081840152601f19601f820116905080830192505050505050509192919290505050612780565b005b348015610e3857600080fd5b50610e6560048036036020811015610e4f57600080fd5b8101908080359060200190929190505050612950565b005b348015610e7357600080fd5b50610f2d60048036036020811015610e8a57600080fd5b8101908080359060200190640100000000811115610ea757600080fd5b820183602082011115610eb957600080fd5b80359060200191846001830284011164010000000083111715610edb57600080fd5b91908080601f016020809104026020016040519081016040528093929190818152602001838380828437600081840152601f19601f8201169050808301925050505050505091929192905050506129b6565b6040518082815260200191505060405180910390f35b348015610f4f57600080fd5b50610f7c60048036036020811015610f6657600080fd5b8101908080359060200190929190505050612a41565b005b61103760048036036020811015610f9457600080fd5b8101908080359060200190640100000000811115610fb157600080fd5b820183602082011115610fc357600080fd5b80359060200191846001830284011164010000000083111715610fe557600080fd5b91908080601f016020809104026020016040519081016040528093929190818152602001838380828437600081840152601f19601f820116905080830192505050505050509192919290505050612aa7565b005b34801561104557600080fd5b5061104e612b86565b6040518082815260200191505060405180910390f35b34801561107057600080fd5b5061109d6004803603602081101561108757600080fd5b8101908080359060200190929190505050612b90565b005b3480156110ab57600080fd5b506110b4612cc4565b005b3480156110c257600080fd5b50611105600480360360208110156110d957600080fd5b81019080803573ffffffffffffffffffffffffffffffffffffffff1690602001909291905050506130c4565b6040518082815260200191505060405180910390f35b34801561112757600080fd5b506111e16004803603602081101561113e57600080fd5b810190808035906020019064010000000081111561115b57600080fd5b82018360208201111561116d57600080fd5b8035906020019184600183028401116401000000008311171561118f57600080fd5b91908080601f016020809104026020016040519081016040528093929190818152602001838380828437600081840152601f19601f82011690508083019250505050505050919291929050505061310c565b6040518080602001828103825283818151815260200191508051906020019080838360005b83811015611221578082015181840152602081019050611206565b50505050905090810190601f16801561124e5780820380516001836020036101000a031916815260200191505b509250505060405180910390f35b34801561126857600080fd5b506112956004803603602081101561127f57600080fd5b810190808035906020019092919050505061322f565b005b3480156112a357600080fd5b506112ac613345565b005b3480156112ba57600080fd5b506112c361351d565b604051808273ffffffffffffffffffffffffffffffffffffffff1673ffffffffffffffffffffffffffffffffffffffff16815260200191505060405180910390f35b6114756004803603606081101561131b57600080fd5b81019080803573ffffffffffffffffffffffffffffffffffffffff1690602001909291908035906020019064010000000081111561135857600080fd5b82018360208201111561136a57600080fd5b8035906020019184600183028401116401000000008311171561138c57600080fd5b91908080601f016020809104026020016040519081016040528093929190818152602001838380828437600081840152601f19601f820116905080830192505050505050509192919290803590602001906401000000008111156113ef57600080fd5b82018360208201111561140157600080fd5b8035906020019184600183028401116401000000008311171561142357600080fd5b91908080601f016020809104026020016040519081016040528093929190818152602001838380828437600081840152601f19601f820116905080830192505050505050509192919290505050613543565b005b34801561148357600080fd5b5061148c61377a565b6040518080602001828103825283818151815260200191508051906020019080838360005b838110156114cc5780820151818401526020810190506114b1565b50505050905090810190601f1680156114f95780820380516001836020036101000a031916815260200191505b509250505060405180910390f35b34801561151357600080fd5b506115cd6004803603602081101561152a57600080fd5b810190808035906020019064010000000081111561154757600080fd5b82018360208201111561155957600080fd5b8035906020019184600183028401116401000000008311171561157b57600080fd5b91908080601f016020809104026020016040519081016040528093929190818152602001838380828437600081840152601f19601f8201169050808301925050505050505091929192905050506137b3565b6040518082815260200191505060405180910390f35b3480156115ef57600080fd5b506115f861383e565b6040518082815260200191505060405180910390f35b34801561161a57600080fd5b506116676004803603604081101561163157600080fd5b81019080803573ffffffffffffffffffffffffffffffffffffffff16906020019092919080359060200190929190505050613844565b604051808215151515815260200191505060405180910390f35b34801561168d57600080fd5b506116da600480360360408110156116a457600080fd5b81019080803573ffffffffffffffffffffffffffffffffffffffff169060200190929190803590602001909291905050506138e9565b604051808215151515815260200191505060405180910390f35b34801561170057600080fd5b50611709613900565b6040518082815260200191505060405180910390f35b34801561172b57600080fd5b506117586004803603602081101561174257600080fd5b810190808035906020019092919050505061390a565b005b34801561176657600080fd5b5061176f613970565b6040518082815260200191505060405180910390f35b34801561179157600080fd5b5061179a613976565b6040518082815260200191505060405180910390f35b3480156117bc57600080fd5b50611876600480360360208110156117d357600080fd5b81019080803590602001906401000000008111156117f057600080fd5b82018360208201111561180257600080fd5b8035906020019184600183028401116401000000008311171561182457600080fd5b91908080601f016020809104026020016040519081016040528093929190818152602001838380828437600081840152601f19601f82011690508083019250505050505050919291929050505061397c565b6040518082815260200191505060405180910390f35b34801561189857600080fd5b506118fb600480360360408110156118af57600080fd5b81019080803573ffffffffffffffffffffffffffffffffffffffff169060200190929190803573ffffffffffffffffffffffffffffffffffffffff169060200190929190505050613a07565b6040518082815260200191505060405180910390f35b34801561191d57600080fd5b50611926613a8e565b6040518082815260200191505060405180910390f35b34801561194857600080fd5b50611951613a94565b6040518080602001828103825283818151815260200191508051906020019060200280838360005b83811015611994578082015181840152602081019050611979565b505050509050019250505060405180910390f35b3480156119b457600080fd5b50611a6e600480360360208110156119cb57600080fd5b81019080803590602001906401000000008111156119e857600080fd5b8201836020820111156119fa57600080fd5b80359060200191846001830284011164010000000083111715611a1c57600080fd5b91908080601f016020809104026020016040519081016040528093929190818152602001838380828437600081840152601f19601f820116905080830192505050505050509192919290505050613b29565b604051808273ffffffffffffffffffffffffffffffffffffffff1673ffffffffffffffffffffffffffffffffffffffff16815260200191505060405180910390f35b348015611abc57600080fd5b50611ac5613bd4565b6040518082815260200191505060405180910390f35b348015611ae757600080fd5b50611b2a60048036036020811015611afe57600080fd5b81019080803573ffffffffffffffffffffffffffffffffffffffff169060200190929190505050613bda565b005b611c7c60048036036040811015611b4257600080fd5b8101908080359060200190640100000000811115611b5f57600080fd5b820183602082011115611b7157600080fd5b80359060200191846001830284011164010000000083111715611b9357600080fd5b91908080601f016020809104026020016040519081016040528093929190818152602001838380828437600081840152601f19601f82011690508083019250505050505050919291929080359060200190640100000000811115611bf657600080fd5b820183602082011115611c0857600080fd5b80359060200191846001830284011164010000000083111715611c2a57600080fd5b91908080601f016020809104026020016040519081016040528093929190818152602001838380828437600081840152601f19601f820116905080830192505050505050509192919290505050613d32565b005b348015611c8a57600080fd5b50611cb760048036036020811015611ca157600080fd5b810190808035906020019092919050505061403b565b005b6040805190810160405280600981526020017f636f696e756e696f6e000000000000000000000000000000000000000000000081525081565b6000611cff3384846140a1565b6001905092915050565b6000601754905090565b600360009054906101000a900473ffffffffffffffffffffffffffffffffffffffff1673ffffffffffffffffffffffffffffffffffffffff163373ffffffffffffffffffffffffffffffffffffffff16141515611d6f57600080fd5b600280811115611d7b57fe5b601a60009054906101000a900460ff166002811115611d9657fe5b141515611da257600080fd5b8043101515611db057600080fd5b8060178190555081601981905550826018819055506000601a60006101000a81548160ff02191690836002811115611de457fe5b0217905550505050565b600360009054906101000a900473ffffffffffffffffffffffffffffffffffffffff1673ffffffffffffffffffffffffffffffffffffffff163373ffffffffffffffffffffffffffffffffffffffff16141515611e4a57600080fd5b80600f8190555050565b6000600254905090565b6060600560003373ffffffffffffffffffffffffffffffffffffffff1673ffffffffffffffffffffffffffffffffffffffff168152602001908152602001600020805480602002602001604051908101604052809291908181526020018280548015611ee957602002820191906000526020600020905b815481526020019060010190808311611ed5575b5050505050905090565b6000601254905090565b60606000828051906020012060019004905060046000600b600084815260200190815260200160002060003373ffffffffffffffffffffffffffffffffffffffff1673ffffffffffffffffffffffffffffffffffffffff1681526020019081526020016000205481526020019081526020016000206001018054600181600116156101000203166002900480601f0160208091040260200160405190810160405280929190818152602001828054600181600116156101000203166002900480156120095780601f10611fde57610100808354040283529160200191612009565b820191906000526020600020905b815481529060010190602001808311611fec57829003601f168201915b5050505050915050919050565b6000612023848484614204565b6120bc84336120b785600160008a73ffffffffffffffffffffffffffffffffffffffff1673ffffffffffffffffffffffffffffffffffffffff16815260200190815260200160002060003373ffffffffffffffffffffffffffffffffffffffff1673ffffffffffffffffffffffffffffffffffffffff168152602001908152602001600020546143d090919063ffffffff16565b6140a1565b600190509392505050565b601154341415156120d757600080fd5b600d54841115156120e757600080fd5b600c54841015156120f757600080fd5b600083805190602001206001900490503373ffffffffffffffffffffffffffffffffffffffff166004600083815260200190815260200160002060000160009054906101000a900473ffffffffffffffffffffffffffffffffffffffff1673ffffffffffffffffffffffffffffffffffffffff1614151561217757600080fd5b6000600460008381526020019081526020016000206003015414151561219c57600080fd5b846004600083815260200190815260200160002060030181905550826004600083815260200190815260200160002060060160006101000a81548173ffffffffffffffffffffffffffffffffffffffff021916908373ffffffffffffffffffffffffffffffffffffffff16021790555081600460008381526020019081526020016000206007019080519060200190612236929190614927565b505050505050565b60606006826040518082805190602001908083835b6020831015156122785780518252602082019150602081019050602083039250612253565b6001836020036101000a03801982511681845116808217855250505050505090500191505090815260200160405180910390208054806020026020016040519081016040528092919081815260200182805480156122f557602002820191906000526020600020905b8154815260200190600101908083116122e1575b50505050509050919050565b601281565b600360009054906101000a900473ffffffffffffffffffffffffffffffffffffffff1673ffffffffffffffffffffffffffffffffffffffff163373ffffffffffffffffffffffffffffffffffffffff1614151561236257600080fd5b8060118190555050565b6000612407338461240285600160003373ffffffffffffffffffffffffffffffffffffffff1673ffffffffffffffffffffffffffffffffffffffff16815260200190815260200160002060008973ffffffffffffffffffffffffffffffffffffffff1673ffffffffffffffffffffffffffffffffffffffff168152602001908152602001600020546143e990919063ffffffff16565b6140a1565b6001905092915050565b600e5481565b6060600760008381526020019081526020016000208054600181600116156101000203166002900480601f0160208091040260200160405190810160405280929190818152602001828054600181600116156101000203166002900480156124c05780601f10612495576101008083540402835291602001916124c0565b820191906000526020600020905b8154815290600101906020018083116124a357829003601f168201915b50505050509050919050565b606060046000600a846040518082805190602001908083835b60208310151561250a57805182526020820191506020810190506020830392506124e5565b6001836020036101000a03801982511681845116808217855250505050505090500191505090815260200160405180910390205481526020019081526020016000206007018054600181600116156101000203166002900480601f0160208091040260200160405190810160405280929190818152602001828054600181600116156101000203166002900480156125e35780601f106125b8576101008083540402835291602001916125e3565b820191906000526020600020905b8154815290600101906020018083116125c657829003601f168201915b50505050509050919050565b6000601460003373ffffffffffffffffffffffffffffffffffffffff1673ffffffffffffffffffffffffffffffffffffffff1681526020019081526020016000205490506000601460003373ffffffffffffffffffffffffffffffffffffffff1673ffffffffffffffffffffffffffffffffffffffff168152602001908152602001600020819055503373ffffffffffffffffffffffffffffffffffffffff166108fc829081150290604051600060405180830381858888f193505050501580156126be573d6000803e3d6000fd5b5050565b600f5481565b6060600460008381526020019081526020016000206001018054600181600116156101000203166002900480601f0160208091040260200160405190810160405280929190818152602001828054600181600116156101000203166002900480156127745780601f1061274957610100808354040283529160200191612774565b820191906000526020600020905b81548152906001019060200180831161275757829003601f168201915b50505050509050919050565b6000818051906020012060019004905060006004600083815260200190815260200160002060030154141515156127b657600080fd5b3373ffffffffffffffffffffffffffffffffffffffff166004600083815260200190815260200160002060000160009054906101000a900473ffffffffffffffffffffffffffffffffffffffff1673ffffffffffffffffffffffffffffffffffffffff1614151561282657600080fd5b3373ffffffffffffffffffffffffffffffffffffffff166108fc60046000848152602001908152602001600020600401549081150290604051600060405180830381858888f19350505050158015612882573d6000803e3d6000fd5b50600060046000838152602001908152602001600020600401819055506000600460008381526020019081526020016000206003018190555060006004600083815260200190815260200160002060060160006101000a81548173ffffffffffffffffffffffffffffffffffffffff021916908373ffffffffffffffffffffffffffffffffffffffff160217905550602060405190810160405280600081525060046000838152602001908152602001600020600701908051906020019061294b929190614927565b505050565b600360009054906101000a900473ffffffffffffffffffffffffffffffffffffffff1673ffffffffffffffffffffffffffffffffffffffff163373ffffffffffffffffffffffffffffffffffffffff161415156129ac57600080fd5b80600e8190555050565b600060046000600a846040518082805190602001908083835b6020831015156129f457805182526020820191506020810190506020830392506129cf565b6001836020036101000a0380198251168184511680821785525050505050509050019150509081526020016040518091039020548152602001908152602001600020600501549050919050565b600360009054906101000a900473ffffffffffffffffffffffffffffffffffffffff1673ffffffffffffffffffffffffffffffffffffffff163373ffffffffffffffffffffffffffffffffffffffff16141515612a9d57600080fd5b8060108190555050565b600034111515612ab657600080fd5b60008180519060200120600190049050346004600083815260200190815260200160002060040154600460008481526020019081526020016000206003015403111515612b0257600080fd5b6000600e5434811515612b1157fe5b0490506000349050818103905080600460008581526020019081526020016000206005016000828254019250508190555080600460008581526020019081526020016000206004016000828254019250508190555081601260008282540192505081905550612b803383614407565b50505050565b6000601954905090565b60006002811115612b9d57fe5b601a60009054906101000a900460ff166002811115612bb857fe5b141515612bc457600080fd5b6000601954111515612bd557600080fd5b6001601960008282540392505081905550612bf23360185461455b565b601360003373ffffffffffffffffffffffffffffffffffffffff1673ffffffffffffffffffffffffffffffffffffffff16815260200190815260200160002081908060018154018082558091505090600182039060005260206000200160009091929091909150555060153390806001815401808255809150509060018203906000526020600020016000909192909190916101000a81548173ffffffffffffffffffffffffffffffffffffffff021916908373ffffffffffffffffffffffffffffffffffffffff1602179055505050565b600360009054906101000a900473ffffffffffffffffffffffffffffffffffffffff1673ffffffffffffffffffffffffffffffffffffffff163373ffffffffffffffffffffffffffffffffffffffff16141515612d2057600080fd5b60006002811115612d2d57fe5b601a60009054906101000a900460ff166002811115612d4857fe5b141515612d5457600080fd5b60175443111515612d6457600080fd5b60008090505b6015805490508110156130c15760008090505b60136000601584815481101515612d9057fe5b9060005260206000200160009054906101000a900473ffffffffffffffffffffffffffffffffffffffff1673ffffffffffffffffffffffffffffffffffffffff1673ffffffffffffffffffffffffffffffffffffffff168152602001908152602001600020805490508110156130b35760125460136000601585815481101515612e1657fe5b9060005260206000200160009054906101000a900473ffffffffffffffffffffffffffffffffffffffff1673ffffffffffffffffffffffffffffffffffffffff1673ffffffffffffffffffffffffffffffffffffffff16815260200190815260200160002082815481101515612e8857fe5b9060005260206000200154148015612f305750600060136000601585815481101515612eb057fe5b9060005260206000200160009054906101000a900473ffffffffffffffffffffffffffffffffffffffff1673ffffffffffffffffffffffffffffffffffffffff1673ffffffffffffffffffffffffffffffffffffffff16815260200190815260200160002082815481101515612f2257fe5b906000526020600020015414155b1561306a57600060136000601585815481101515612f4a57fe5b9060005260206000200160009054906101000a900473ffffffffffffffffffffffffffffffffffffffff1673ffffffffffffffffffffffffffffffffffffffff1673ffffffffffffffffffffffffffffffffffffffff16815260200190815260200160002082815481101515612fbc57fe5b90600052602060002001819055506016601583815481101515612fdb57fe5b9060005260206000200160009054906101000a900473ffffffffffffffffffffffffffffffffffffffff1690806001815401808255809150509060018203906000526020600020016000909192909190916101000a81548173ffffffffffffffffffffffffffffffffffffffff021916908373ffffffffffffffffffffffffffffffffffffffff160217905550505b60158281548110151561307957fe5b9060005260206000200160006101000a81549073ffffffffffffffffffffffffffffffffffffffff02191690558080600101915050612d7d565b508080600101915050612d6a565b50565b60008060008373ffffffffffffffffffffffffffffffffffffffff1673ffffffffffffffffffffffffffffffffffffffff168152602001908152602001600020549050919050565b606060046000600a846040518082805190602001908083835b60208310151561314a5780518252602082019150602081019050602083039250613125565b6001836020036101000a03801982511681845116808217855250505050505090500191505090815260200160405180910390205481526020019081526020016000206002018054600181600116156101000203166002900480601f0160208091040260200160405190810160405280929190818152602001828054600181600116156101000203166002900480156132235780601f106131f857610100808354040283529160200191613223565b820191906000526020600020905b81548152906001019060200180831161320657829003601f168201915b50505050509050919050565b600360009054906101000a900473ffffffffffffffffffffffffffffffffffffffff1673ffffffffffffffffffffffffffffffffffffffff163373ffffffffffffffffffffffffffffffffffffffff1614151561328b57600080fd5b3373ffffffffffffffffffffffffffffffffffffffff166108fc829081150290604051600060405180830381858888f193505050501580156132d1573d6000803e3d6000fd5b50600360009054906101000a900473ffffffffffffffffffffffffffffffffffffffff1673ffffffffffffffffffffffffffffffffffffffff167f46e42263de2a03e19f181780084dd6deb763df852236860d81f0b435344c792b826040518082815260200191505060405180910390a250565b600360009054906101000a900473ffffffffffffffffffffffffffffffffffffffff1673ffffffffffffffffffffffffffffffffffffffff163373ffffffffffffffffffffffffffffffffffffffff161415156133a157600080fd5b600160028111156133ae57fe5b601a60009054906101000a900460ff1660028111156133c957fe5b1415156133d557600080fd5b60006016805490501115613404576133fd60168054905060125461460290919063ffffffff16565b6012819055505b60008090505b6016805490508110156134ee576134a46012546014600060168581548110151561343057fe5b9060005260206000200160009054906101000a900473ffffffffffffffffffffffffffffffffffffffff1673ffffffffffffffffffffffffffffffffffffffff1673ffffffffffffffffffffffffffffffffffffffff168152602001908152602001600020546143e990919063ffffffff16565b506016818154811015156134b457fe5b9060005260206000200160006101000a81549073ffffffffffffffffffffffffffffffffffffffff0219169055808060010191505061340a565b5060006012819055506002601a60006101000a81548160ff0219169083600281111561351657fe5b0217905550565b600360009054906101000a900473ffffffffffffffffffffffffffffffffffffffff1681565b3460105414151561355357600080fd5b60008180519060200120600190049050600073ffffffffffffffffffffffffffffffffffffffff166004600083815260200190815260200160002060000160009054906101000a900473ffffffffffffffffffffffffffffffffffffffff1673ffffffffffffffffffffffffffffffffffffffff161415156135d457600080fd5b3373ffffffffffffffffffffffffffffffffffffffff166009846040518082805190602001908083835b60208310151561362357805182526020820191506020810190506020830392506135fe565b6001836020036101000a038019825116818451168082178552505050505050905001915050908152602001604051809103902060009054906101000a900473ffffffffffffffffffffffffffffffffffffffff1673ffffffffffffffffffffffffffffffffffffffff1614151561369957600080fd5b60008380519060200120600190049050600560008673ffffffffffffffffffffffffffffffffffffffff1673ffffffffffffffffffffffffffffffffffffffff168152602001908152602001600020819080600181540180825580915050906001820390600052602060002001600090919290919091505550336004600084815260200190815260200160002060000160006101000a81548173ffffffffffffffffffffffffffffffffffffffff021916908373ffffffffffffffffffffffffffffffffffffffff1602179055506137738385838561461d565b5050505050565b6040805190810160405280600581526020017f554e494f4e00000000000000000000000000000000000000000000000000000081525081565b600060046000600a846040518082805190602001908083835b6020831015156137f157805182526020820191506020810190506020830392506137cc565b6001836020036101000a0380198251168184511680821785525050505050509050019150509081526020016040518091039020548152602001908152602001600020600401549050919050565b60115481565b60006138df33846138da85600160003373ffffffffffffffffffffffffffffffffffffffff1673ffffffffffffffffffffffffffffffffffffffff16815260200190815260200160002060008973ffffffffffffffffffffffffffffffffffffffff1673ffffffffffffffffffffffffffffffffffffffff168152602001908152602001600020546143d090919063ffffffff16565b6140a1565b6001905092915050565b60006138f6338484614204565b6001905092915050565b6000601854905090565b600360009054906101000a900473ffffffffffffffffffffffffffffffffffffffff1673ffffffffffffffffffffffffffffffffffffffff163373ffffffffffffffffffffffffffffffffffffffff1614151561396657600080fd5b80600c8190555050565b60105481565b600c5481565b600060046000600a846040518082805190602001908083835b6020831015156139ba5780518252602082019150602081019050602083039250613995565b6001836020036101000a0380198251168184511680821785525050505050509050019150509081526020016040518091039020548152602001908152602001600020600301549050919050565b6000600160008473ffffffffffffffffffffffffffffffffffffffff1673ffffffffffffffffffffffffffffffffffffffff16815260200190815260200160002060008373ffffffffffffffffffffffffffffffffffffffff1673ffffffffffffffffffffffffffffffffffffffff16815260200190815260200160002054905092915050565b600d5481565b6060600860003373ffffffffffffffffffffffffffffffffffffffff1673ffffffffffffffffffffffffffffffffffffffff168152602001908152602001600020805480602002602001604051908101604052809291908181526020018280548015613b1f57602002820191906000526020600020905b815481526020019060010190808311613b0b575b5050505050905090565b600060046000600a846040518082805190602001908083835b602083101515613b675780518252602082019150602081019050602083039250613b42565b6001836020036101000a038019825116818451168082178552505050505050905001915050908152602001604051809103902054815260200190815260200160002060060160009054906101000a900473ffffffffffffffffffffffffffffffffffffffff169050919050565b60125481565b600360009054906101000a900473ffffffffffffffffffffffffffffffffffffffff1673ffffffffffffffffffffffffffffffffffffffff163373ffffffffffffffffffffffffffffffffffffffff16141515613c3657600080fd5b600073ffffffffffffffffffffffffffffffffffffffff168173ffffffffffffffffffffffffffffffffffffffff1614151515613c7257600080fd5b8073ffffffffffffffffffffffffffffffffffffffff16600360009054906101000a900473ffffffffffffffffffffffffffffffffffffffff1673ffffffffffffffffffffffffffffffffffffffff167f8be0079c531659141344cd1fd0a4f28419497f9722a3daafe3b4186f6b6457e060405160405180910390a380600360006101000a81548173ffffffffffffffffffffffffffffffffffffffff021916908373ffffffffffffffffffffffffffffffffffffffff16021790555050565b34600f54141515613d4257600080fd5b60008280519060200120600190049050600073ffffffffffffffffffffffffffffffffffffffff166009846040518082805190602001908083835b602083101515613da25780518252602082019150602081019050602083039250613d7d565b6001836020036101000a038019825116818451168082178552505050505050905001915050908152602001604051809103902060009054906101000a900473ffffffffffffffffffffffffffffffffffffffff1673ffffffffffffffffffffffffffffffffffffffff16141515613e1857600080fd5b60008280519060200120600190049050600073ffffffffffffffffffffffffffffffffffffffff166004600083815260200190815260200160002060000160009054906101000a900473ffffffffffffffffffffffffffffffffffffffff1673ffffffffffffffffffffffffffffffffffffffff16141515613e9957600080fd5b336004600083815260200190815260200160002060000160006101000a81548173ffffffffffffffffffffffffffffffffffffffff021916908373ffffffffffffffffffffffffffffffffffffffff16021790555083600760008481526020019081526020016000209080519060200190613f15929190614927565b50336009856040518082805190602001908083835b602083101515613f4f5780518252602082019150602081019050602083039250613f2a565b6001836020036101000a038019825116818451168082178552505050505050905001915050908152602001604051809103902060006101000a81548173ffffffffffffffffffffffffffffffffffffffff021916908373ffffffffffffffffffffffffffffffffffffffff160217905550600860003373ffffffffffffffffffffffffffffffffffffffff1673ffffffffffffffffffffffffffffffffffffffff1681526020019081526020016000208290806001815401808255809150509060018203906000526020600020016000909192909190915055506140358385848461461d565b50505050565b600360009054906101000a900473ffffffffffffffffffffffffffffffffffffffff1673ffffffffffffffffffffffffffffffffffffffff163373ffffffffffffffffffffffffffffffffffffffff1614151561409757600080fd5b80600d8190555050565b600073ffffffffffffffffffffffffffffffffffffffff168273ffffffffffffffffffffffffffffffffffffffff16141515156140dd57600080fd5b600073ffffffffffffffffffffffffffffffffffffffff168373ffffffffffffffffffffffffffffffffffffffff161415151561411957600080fd5b80600160008573ffffffffffffffffffffffffffffffffffffffff1673ffffffffffffffffffffffffffffffffffffffff16815260200190815260200160002060008473ffffffffffffffffffffffffffffffffffffffff1673ffffffffffffffffffffffffffffffffffffffff168152602001908152602001600020819055508173ffffffffffffffffffffffffffffffffffffffff168373ffffffffffffffffffffffffffffffffffffffff167f8c5be1e5ebec7d5bd14f71427d1e84f3dd0314c0f7b2291e5b200ac8c7c3b925836040518082815260200191505060405180910390a3505050565b600073ffffffffffffffffffffffffffffffffffffffff168273ffffffffffffffffffffffffffffffffffffffff161415151561424057600080fd5b614291816000808673ffffffffffffffffffffffffffffffffffffffff1673ffffffffffffffffffffffffffffffffffffffff168152602001908152602001600020546143d090919063ffffffff16565b6000808573ffffffffffffffffffffffffffffffffffffffff1673ffffffffffffffffffffffffffffffffffffffff16815260200190815260200160002081905550614324816000808573ffffffffffffffffffffffffffffffffffffffff1673ffffffffffffffffffffffffffffffffffffffff168152602001908152602001600020546143e990919063ffffffff16565b6000808473ffffffffffffffffffffffffffffffffffffffff1673ffffffffffffffffffffffffffffffffffffffff168152602001908152602001600020819055508173ffffffffffffffffffffffffffffffffffffffff168373ffffffffffffffffffffffffffffffffffffffff167fddf252ad1be2c89b69c2b068fc378daa952ba7f163c4a11628f55a4df523b3ef836040518082815260200191505060405180910390a3505050565b60008282111515156143de57fe5b818303905092915050565b60008082840190508381101515156143fd57fe5b8091505092915050565b600073ffffffffffffffffffffffffffffffffffffffff168273ffffffffffffffffffffffffffffffffffffffff161415151561444357600080fd5b614458816002546143e990919063ffffffff16565b6002819055506144af816000808573ffffffffffffffffffffffffffffffffffffffff1673ffffffffffffffffffffffffffffffffffffffff168152602001908152602001600020546143e990919063ffffffff16565b6000808473ffffffffffffffffffffffffffffffffffffffff1673ffffffffffffffffffffffffffffffffffffffff168152602001908152602001600020819055508173ffffffffffffffffffffffffffffffffffffffff16600073ffffffffffffffffffffffffffffffffffffffff167fddf252ad1be2c89b69c2b068fc378daa952ba7f163c4a11628f55a4df523b3ef836040518082815260200191505060405180910390a35050565b61456582826147d3565b6145fe82336145f984600160008873ffffffffffffffffffffffffffffffffffffffff1673ffffffffffffffffffffffffffffffffffffffff16815260200190815260200160002060003373ffffffffffffffffffffffffffffffffffffffff1673ffffffffffffffffffffffffffffffffffffffff168152602001908152602001600020546143d090919063ffffffff16565b6140a1565b5050565b600080828481151561461057fe5b0490508091505092915050565b83600460008381526020019081526020016000206001019080519060200190614647929190614927565b5082600460008381526020019081526020016000206002019080519060200190614672929190614927565b506006836040518082805190602001908083835b6020831015156146ab5780518252602082019150602081019050602083039250614686565b6001836020036101000a038019825116818451168082178552505050505050905001915050908152602001604051809103902081908060018154018082558091505090600182039060005260206000200160009091929091909150555080600a856040518082805190602001908083835b602083101515614741578051825260208201915060208101905060208303925061471c565b6001836020036101000a03801982511681845116808217855250505050505090500191505090815260200160405180910390208190555080600b600084815260200190815260200160002060003373ffffffffffffffffffffffffffffffffffffffff1673ffffffffffffffffffffffffffffffffffffffff1681526020019081526020016000208190555050505050565b600073ffffffffffffffffffffffffffffffffffffffff168273ffffffffffffffffffffffffffffffffffffffff161415151561480f57600080fd5b614824816002546143d090919063ffffffff16565b60028190555061487b816000808573ffffffffffffffffffffffffffffffffffffffff1673ffffffffffffffffffffffffffffffffffffffff168152602001908152602001600020546143d090919063ffffffff16565b6000808473ffffffffffffffffffffffffffffffffffffffff1673ffffffffffffffffffffffffffffffffffffffff16815260200190815260200160002081905550600073ffffffffffffffffffffffffffffffffffffffff168273ffffffffffffffffffffffffffffffffffffffff167fddf252ad1be2c89b69c2b068fc378daa952ba7f163c4a11628f55a4df523b3ef836040518082815260200191505060405180910390a35050565b828054600181600116156101000203166002900490600052602060002090601f016020900481019282601f1061496857805160ff1916838001178555614996565b82800160010185558215614996579182015b8281111561499557825182559160200191906001019061497a565b5b5090506149a391906149a7565b5090565b6149c991905b808211156149c55760008160009055506001016149ad565b5090565b9056fea165627a7a72305820f5e4fc47eab1005eece810e3ce4bfbb1d0fa43aee1557386da07b4ff21c10efa0029",
  "source": "pragma solidity ^0.5.0;\n\nimport \"./Cagnottes.sol\";\n\ncontract Lottery is Cagnottes{\n\nmapping (address => uint[]) private prediction ;\nmapping (address => uint) private gains ;\n\nenum LotteryState { Started, Finished, Pending }\n\naddress[] private players;\naddress[] private winners;\n\nuint private blockEnd;\nuint private PRICE_LOTTERY_TOKEN;\nuint private NB_TICKETS;\n\nLotteryState private state;\n\nconstructor() public\n{\n  state = LotteryState.Pending;\n}\n\nfunction initierLottery(uint _price, uint _tickets, uint _blockEnd) public onlyOwner\n{\n  require(state == LotteryState.Pending);\n  require(block.number < _blockEnd);\n  blockEnd = _blockEnd;\n  NB_TICKETS = _tickets;\n  PRICE_LOTTERY_TOKEN = _price;\n  state = LotteryState.Started;\n}\n\nfunction play(uint _prediction) public\n{\n  require(state == LotteryState.Started);\n  require(NB_TICKETS > 0);\n  NB_TICKETS -= 1;\n  _burnFrom(msg.sender,PRICE_LOTTERY_TOKEN);\n  prediction[msg.sender].push(_prediction);\n  players.push(msg.sender);\n}\n\nfunction endGame() public onlyOwner\n{\n  require(state == LotteryState.Started);\n  require(block.number > blockEnd);\n  for (uint i=0; i< players.length; i++)\n  {\n    for (uint j=0; j< prediction[players[i]].length; j++)\n    {\n      if (prediction[players[i]][j] == LOTTERY_CAGNOTTE && prediction[players[i]][j] != 0)\n      {\n        prediction[players[i]][j] = 0;\n        winners.push(players[i]);\n      }\n      delete players[i];\n    }\n  }\n}\n\nfunction soldeGame() public onlyOwner\n{\n  require(state == LotteryState.Finished);\n  if (winners.length>0)\n  LOTTERY_CAGNOTTE = uint(LOTTERY_CAGNOTTE.div(winners.length));\n  {\n    for (uint i=0; i< winners.length; i++)\n    {\n      gains[winners[i]].add(LOTTERY_CAGNOTTE);\n      delete winners[i];\n    }\n  LOTTERY_CAGNOTTE = 0;\n  }\n  state = LotteryState.Pending;\n}\n\nfunction withdrawGains() public\n{\n  uint MyGains = gains[msg.sender];\n  gains[msg.sender] = 0;\n  msg.sender.transfer(MyGains);\n}\n\nfunction getPrixLottery() public view returns (uint)\n{\n  return PRICE_LOTTERY_TOKEN;\n}\n\nfunction getTicketsLeft() public view returns (uint)\n{\n  return NB_TICKETS;\n}\n\nfunction getEndGame() public view returns (uint)\n{\n  return blockEnd;\n}\n\nfunction getSuperCagnotte() public view returns (uint)\n{\n  return LOTTERY_CAGNOTTE;\n}\n\n}\n",
  "sourcePath": "/Users/germaindacunha/Desktop/Alyra/project/Ether-Union/contracts/Lottery.sol",
  "compiler": {
    "name": "solc",
    "version": "0.5.0+commit.1d4f565a.Emscripten.clang"
  },
  "schemaVersion": "3.0.2",
  "updatedAt": "2019-04-08T15:55:07.641Z",
  "devdoc": {
    "methods": {
      "allowance(address,address)": {
        "details": "Function to check the amount of tokens that an owner allowed to a spender.",
        "params": {
          "owner": "address The address which owns the funds.",
          "spender": "address The address which will spend the funds."
        },
        "return": "A uint256 specifying the amount of tokens still available for the spender."
      },
      "approve(address,uint256)": {
        "details": "Approve the passed address to spend the specified amount of tokens on behalf of msg.sender. Beware that changing an allowance with this method brings the risk that someone may use both the old and the new allowance by unfortunate transaction ordering. One possible solution to mitigate this race condition is to first reduce the spender's allowance to 0 and set the desired value afterwards: https://github.com/ethereum/EIPs/issues/20#issuecomment-263524729",
        "params": {
          "spender": "The address which will spend the funds.",
          "value": "The amount of tokens to be spent."
        }
      },
      "balanceOf(address)": {
        "details": "Gets the balance of the specified address.",
        "params": {
          "owner": "The address to query the balance of."
        },
        "return": "A uint256 representing the amount owned by the passed address."
      },
      "decreaseAllowance(address,uint256)": {
        "details": "Decrease the amount of tokens that an owner allowed to a spender. approve should be called when _allowed[msg.sender][spender] == 0. To decrement allowed value is better to use this function to avoid 2 calls (and wait until the first transaction is mined) From MonolithDAO Token.sol Emits an Approval event.",
        "params": {
          "spender": "The address which will spend the funds.",
          "subtractedValue": "The amount of tokens to decrease the allowance by."
        }
      },
      "increaseAllowance(address,uint256)": {
        "details": "Increase the amount of tokens that an owner allowed to a spender. approve should be called when _allowed[msg.sender][spender] == 0. To increment allowed value is better to use this function to avoid 2 calls (and wait until the first transaction is mined) From MonolithDAO Token.sol Emits an Approval event.",
        "params": {
          "addedValue": "The amount of tokens to increase the allowance by.",
          "spender": "The address which will spend the funds."
        }
      },
      "totalSupply()": {
        "details": "Total number of tokens in existence"
      },
      "transfer(address,uint256)": {
        "details": "Transfer token to a specified address",
        "params": {
          "to": "The address to transfer to.",
          "value": "The amount to be transferred."
        }
      },
      "transferFrom(address,address,uint256)": {
        "details": "Transfer tokens from one address to another. Note that while this function emits an Approval event, this is not required as per the specification, and other compliant implementations may not emit the event.",
        "params": {
          "from": "address The address which you want to send tokens from",
          "to": "address The address which you want to transfer to",
          "value": "uint256 the amount of tokens to be transferred"
        }
      },
      "transferOwnership(address)": {
        "details": "Allows the current owner to transfer control of the contract to a newOwner.",
        "params": {
          "newOwner": "The address to transfer ownership to."
        }
      }
    }
  },
  "userdoc": {
    "methods": {}
  }
}