{
  "contractName": "Lottery",
  "abi": [
    {
      "constant": true,
      "inputs": [],
      "name": "name",
      "outputs": [
        {
          "name": "",
          "type": "string"
        }
      ],
      "payable": false,
      "stateMutability": "view",
      "type": "function"
    },
    {
      "constant": false,
      "inputs": [
        {
          "name": "spender",
          "type": "address"
        },
        {
          "name": "value",
          "type": "uint256"
        }
      ],
      "name": "approve",
      "outputs": [
        {
          "name": "",
          "type": "bool"
        }
      ],
      "payable": false,
      "stateMutability": "nonpayable",
      "type": "function"
    },
    {
      "constant": false,
      "inputs": [
        {
          "name": "_priceGroup",
          "type": "uint256"
        }
      ],
      "name": "modifierPriceGroup",
      "outputs": [],
      "payable": false,
      "stateMutability": "nonpayable",
      "type": "function"
    },
    {
      "constant": true,
      "inputs": [],
      "name": "totalSupply",
      "outputs": [
        {
          "name": "",
          "type": "uint256"
        }
      ],
      "payable": false,
      "stateMutability": "view",
      "type": "function"
    },
    {
      "constant": true,
      "inputs": [],
      "name": "getGroupesPerAddress",
      "outputs": [
        {
          "name": "",
          "type": "uint256[]"
        }
      ],
      "payable": false,
      "stateMutability": "view",
      "type": "function"
    },
    {
      "constant": true,
      "inputs": [
        {
          "name": "_groupe",
          "type": "string"
        }
      ],
      "name": "getPseudoInGroup",
      "outputs": [
        {
          "name": "",
          "type": "string"
        }
      ],
      "payable": false,
      "stateMutability": "view",
      "type": "function"
    },
    {
      "constant": false,
      "inputs": [
        {
          "name": "from",
          "type": "address"
        },
        {
          "name": "to",
          "type": "address"
        },
        {
          "name": "value",
          "type": "uint256"
        }
      ],
      "name": "transferFrom",
      "outputs": [
        {
          "name": "",
          "type": "bool"
        }
      ],
      "payable": false,
      "stateMutability": "nonpayable",
      "type": "function"
    },
    {
      "constant": true,
      "inputs": [],
      "name": "PRICE_LOTTERY_TOKEN",
      "outputs": [
        {
          "name": "",
          "type": "uint256"
        }
      ],
      "payable": false,
      "stateMutability": "view",
      "type": "function"
    },
    {
      "constant": false,
      "inputs": [
        {
          "name": "_montant",
          "type": "uint256"
        },
        {
          "name": "_pseudo",
          "type": "string"
        },
        {
          "name": "_contratCible",
          "type": "address"
        },
        {
          "name": "_description",
          "type": "string"
        }
      ],
      "name": "demander",
      "outputs": [],
      "payable": true,
      "stateMutability": "payable",
      "type": "function"
    },
    {
      "constant": true,
      "inputs": [
        {
          "name": "_groupe",
          "type": "string"
        }
      ],
      "name": "getMembres",
      "outputs": [
        {
          "name": "",
          "type": "uint256[]"
        }
      ],
      "payable": false,
      "stateMutability": "view",
      "type": "function"
    },
    {
      "constant": true,
      "inputs": [
        {
          "name": "_pseudo",
          "type": "string"
        }
      ],
      "name": "getDonnations",
      "outputs": [
        {
          "name": "",
          "type": "uint256"
        }
      ],
      "payable": false,
      "stateMutability": "view",
      "type": "function"
    },
    {
      "constant": true,
      "inputs": [],
      "name": "decimals",
      "outputs": [
        {
          "name": "",
          "type": "uint32"
        }
      ],
      "payable": false,
      "stateMutability": "view",
      "type": "function"
    },
    {
      "constant": false,
      "inputs": [
        {
          "name": "_priceChannel",
          "type": "uint256"
        }
      ],
      "name": "modifierPriceChannel",
      "outputs": [],
      "payable": false,
      "stateMutability": "nonpayable",
      "type": "function"
    },
    {
      "constant": false,
      "inputs": [
        {
          "name": "spender",
          "type": "address"
        },
        {
          "name": "addedValue",
          "type": "uint256"
        }
      ],
      "name": "increaseAllowance",
      "outputs": [
        {
          "name": "",
          "type": "bool"
        }
      ],
      "payable": false,
      "stateMutability": "nonpayable",
      "type": "function"
    },
    {
      "constant": true,
      "inputs": [],
      "name": "PRICE_RATIO",
      "outputs": [
        {
          "name": "",
          "type": "uint256"
        }
      ],
      "payable": false,
      "stateMutability": "view",
      "type": "function"
    },
    {
      "constant": true,
      "inputs": [
        {
          "name": "_ID",
          "type": "uint256"
        }
      ],
      "name": "getNomGroupe",
      "outputs": [
        {
          "name": "",
          "type": "string"
        }
      ],
      "payable": false,
      "stateMutability": "view",
      "type": "function"
    },
    {
      "constant": true,
      "inputs": [
        {
          "name": "_pseudo",
          "type": "string"
        }
      ],
      "name": "getDescription",
      "outputs": [
        {
          "name": "",
          "type": "string"
        }
      ],
      "payable": false,
      "stateMutability": "view",
      "type": "function"
    },
    {
      "constant": true,
      "inputs": [],
      "name": "PRICE_GROUP",
      "outputs": [
        {
          "name": "",
          "type": "uint256"
        }
      ],
      "payable": false,
      "stateMutability": "view",
      "type": "function"
    },
    {
      "constant": true,
      "inputs": [
        {
          "name": "_ID",
          "type": "uint256"
        }
      ],
      "name": "getNomMembre",
      "outputs": [
        {
          "name": "",
          "type": "string"
        }
      ],
      "payable": false,
      "stateMutability": "view",
      "type": "function"
    },
    {
      "constant": false,
      "inputs": [
        {
          "name": "_pseudo",
          "type": "string"
        }
      ],
      "name": "fermetureCanal",
      "outputs": [],
      "payable": false,
      "stateMutability": "nonpayable",
      "type": "function"
    },
    {
      "constant": false,
      "inputs": [
        {
          "name": "_priceChannel",
          "type": "uint256"
        }
      ],
      "name": "modifierCharges",
      "outputs": [],
      "payable": false,
      "stateMutability": "nonpayable",
      "type": "function"
    },
    {
      "constant": true,
      "inputs": [
        {
          "name": "_pseudo",
          "type": "string"
        }
      ],
      "name": "getReceptions",
      "outputs": [
        {
          "name": "",
          "type": "uint256"
        }
      ],
      "payable": false,
      "stateMutability": "view",
      "type": "function"
    },
    {
      "constant": false,
      "inputs": [
        {
          "name": "_priceMember",
          "type": "uint256"
        }
      ],
      "name": "modifierPriceMember",
      "outputs": [],
      "payable": false,
      "stateMutability": "nonpayable",
      "type": "function"
    },
    {
      "constant": false,
      "inputs": [
        {
          "name": "_pseudo",
          "type": "string"
        }
      ],
      "name": "payerCanal",
      "outputs": [],
      "payable": true,
      "stateMutability": "payable",
      "type": "function"
    },
    {
      "constant": true,
      "inputs": [
        {
          "name": "owner",
          "type": "address"
        }
      ],
      "name": "balanceOf",
      "outputs": [
        {
          "name": "",
          "type": "uint256"
        }
      ],
      "payable": false,
      "stateMutability": "view",
      "type": "function"
    },
    {
      "constant": true,
      "inputs": [
        {
          "name": "_pseudo",
          "type": "string"
        }
      ],
      "name": "getGroupe",
      "outputs": [
        {
          "name": "",
          "type": "string"
        }
      ],
      "payable": false,
      "stateMutability": "view",
      "type": "function"
    },
    {
      "constant": false,
      "inputs": [
        {
          "name": "_montant",
          "type": "uint256"
        }
      ],
      "name": "withdrawCash",
      "outputs": [],
      "payable": false,
      "stateMutability": "nonpayable",
      "type": "function"
    },
    {
      "constant": true,
      "inputs": [],
      "name": "owner",
      "outputs": [
        {
          "name": "",
          "type": "address"
        }
      ],
      "payable": false,
      "stateMutability": "view",
      "type": "function"
    },
    {
      "constant": false,
      "inputs": [
        {
          "name": "_membre",
          "type": "address"
        },
        {
          "name": "_groupe",
          "type": "string"
        },
        {
          "name": "_pseudo",
          "type": "string"
        }
      ],
      "name": "ajouterMembre",
      "outputs": [],
      "payable": true,
      "stateMutability": "payable",
      "type": "function"
    },
    {
      "constant": true,
      "inputs": [],
      "name": "symbol",
      "outputs": [
        {
          "name": "",
          "type": "string"
        }
      ],
      "payable": false,
      "stateMutability": "view",
      "type": "function"
    },
    {
      "constant": true,
      "inputs": [
        {
          "name": "_pseudo",
          "type": "string"
        }
      ],
      "name": "getEncours",
      "outputs": [
        {
          "name": "",
          "type": "uint256"
        }
      ],
      "payable": false,
      "stateMutability": "view",
      "type": "function"
    },
    {
      "constant": true,
      "inputs": [],
      "name": "PRICE_CHANEL",
      "outputs": [
        {
          "name": "",
          "type": "uint256"
        }
      ],
      "payable": false,
      "stateMutability": "view",
      "type": "function"
    },
    {
      "constant": false,
      "inputs": [
        {
          "name": "spender",
          "type": "address"
        },
        {
          "name": "subtractedValue",
          "type": "uint256"
        }
      ],
      "name": "decreaseAllowance",
      "outputs": [
        {
          "name": "",
          "type": "bool"
        }
      ],
      "payable": false,
      "stateMutability": "nonpayable",
      "type": "function"
    },
    {
      "constant": false,
      "inputs": [
        {
          "name": "to",
          "type": "address"
        },
        {
          "name": "value",
          "type": "uint256"
        }
      ],
      "name": "transfer",
      "outputs": [
        {
          "name": "",
          "type": "bool"
        }
      ],
      "payable": false,
      "stateMutability": "nonpayable",
      "type": "function"
    },
    {
      "constant": false,
      "inputs": [
        {
          "name": "_maxAmount",
          "type": "uint256"
        }
      ],
      "name": "modifierMaxAmount",
      "outputs": [],
      "payable": false,
      "stateMutability": "nonpayable",
      "type": "function"
    },
    {
      "constant": true,
      "inputs": [],
      "name": "PRICE_MEMBRE",
      "outputs": [
        {
          "name": "",
          "type": "uint256"
        }
      ],
      "payable": false,
      "stateMutability": "view",
      "type": "function"
    },
    {
      "constant": true,
      "inputs": [],
      "name": "MAX_AMOUNT",
      "outputs": [
        {
          "name": "",
          "type": "uint256"
        }
      ],
      "payable": false,
      "stateMutability": "view",
      "type": "function"
    },
    {
      "constant": true,
      "inputs": [
        {
          "name": "_pseudo",
          "type": "string"
        }
      ],
      "name": "getMontant",
      "outputs": [
        {
          "name": "",
          "type": "uint256"
        }
      ],
      "payable": false,
      "stateMutability": "view",
      "type": "function"
    },
    {
      "constant": true,
      "inputs": [
        {
          "name": "owner",
          "type": "address"
        },
        {
          "name": "spender",
          "type": "address"
        }
      ],
      "name": "allowance",
      "outputs": [
        {
          "name": "",
          "type": "uint256"
        }
      ],
      "payable": false,
      "stateMutability": "view",
      "type": "function"
    },
    {
      "constant": true,
      "inputs": [],
      "name": "MIN_AMOUNT",
      "outputs": [
        {
          "name": "",
          "type": "uint256"
        }
      ],
      "payable": false,
      "stateMutability": "view",
      "type": "function"
    },
    {
      "constant": true,
      "inputs": [],
      "name": "getOwnedGroupe",
      "outputs": [
        {
          "name": "",
          "type": "uint256[]"
        }
      ],
      "payable": false,
      "stateMutability": "view",
      "type": "function"
    },
    {
      "constant": true,
      "inputs": [
        {
          "name": "_pseudo",
          "type": "string"
        }
      ],
      "name": "getContratCible",
      "outputs": [
        {
          "name": "",
          "type": "address"
        }
      ],
      "payable": false,
      "stateMutability": "view",
      "type": "function"
    },
    {
      "constant": true,
      "inputs": [],
      "name": "LOTTERY_CAGNOTTE",
      "outputs": [
        {
          "name": "",
          "type": "uint256"
        }
      ],
      "payable": false,
      "stateMutability": "view",
      "type": "function"
    },
    {
      "constant": false,
      "inputs": [
        {
          "name": "newOwner",
          "type": "address"
        }
      ],
      "name": "transferOwnership",
      "outputs": [],
      "payable": false,
      "stateMutability": "nonpayable",
      "type": "function"
    },
    {
      "constant": false,
      "inputs": [
        {
          "name": "_nom",
          "type": "string"
        },
        {
          "name": "_pseudo",
          "type": "string"
        }
      ],
      "name": "creerGroupe",
      "outputs": [],
      "payable": true,
      "stateMutability": "payable",
      "type": "function"
    },
    {
      "constant": false,
      "inputs": [
        {
          "name": "_minAmount",
          "type": "uint256"
        }
      ],
      "name": "modifierMinAmount",
      "outputs": [],
      "payable": false,
      "stateMutability": "nonpayable",
      "type": "function"
    },
    {
      "inputs": [],
      "payable": false,
      "stateMutability": "nonpayable",
      "type": "constructor"
    },
    {
      "anonymous": false,
      "inputs": [
        {
          "indexed": true,
          "name": "previousOwner",
          "type": "address"
        },
        {
          "indexed": true,
          "name": "newOwner",
          "type": "address"
        }
      ],
      "name": "OwnershipTransferred",
      "type": "event"
    },
    {
      "anonymous": false,
      "inputs": [
        {
          "indexed": true,
          "name": "from",
          "type": "address"
        },
        {
          "indexed": true,
          "name": "to",
          "type": "address"
        },
        {
          "indexed": false,
          "name": "value",
          "type": "uint256"
        }
      ],
      "name": "Transfer",
      "type": "event"
    },
    {
      "anonymous": false,
      "inputs": [
        {
          "indexed": true,
          "name": "owner",
          "type": "address"
        },
        {
          "indexed": true,
          "name": "spender",
          "type": "address"
        },
        {
          "indexed": false,
          "name": "value",
          "type": "uint256"
        }
      ],
      "name": "Approval",
      "type": "event"
    },
    {
      "constant": false,
      "inputs": [],
      "name": "initierLottery",
      "outputs": [],
      "payable": false,
      "stateMutability": "nonpayable",
      "type": "function"
    },
    {
      "constant": false,
      "inputs": [
        {
          "name": "_prediction",
          "type": "uint256"
        }
      ],
      "name": "play",
      "outputs": [],
      "payable": false,
      "stateMutability": "nonpayable",
      "type": "function"
    },
    {
      "constant": false,
      "inputs": [],
      "name": "endGame",
      "outputs": [],
      "payable": false,
      "stateMutability": "nonpayable",
      "type": "function"
    },
    {
      "constant": false,
      "inputs": [],
      "name": "soldeGame",
      "outputs": [],
      "payable": false,
      "stateMutability": "nonpayable",
      "type": "function"
    },
    {
      "constant": false,
      "inputs": [],
      "name": "withdrawGains",
      "outputs": [],
      "payable": false,
      "stateMutability": "nonpayable",
      "type": "function"
    },
    {
      "constant": true,
      "inputs": [],
      "name": "getPrixLottery",
      "outputs": [
        {
          "name": "",
          "type": "uint256"
        }
      ],
      "payable": false,
      "stateMutability": "view",
      "type": "function"
    },
    {
      "constant": false,
      "inputs": [
        {
          "name": "_price",
          "type": "uint256"
        }
      ],
      "name": "modifierPrixLottery",
      "outputs": [],
      "payable": false,
      "stateMutability": "nonpayable",
      "type": "function"
    },
    {
      "constant": false,
      "inputs": [
        {
          "name": "_interval",
          "type": "uint256"
        }
      ],
      "name": "modifierBlockInterval",
      "outputs": [],
      "payable": false,
      "stateMutability": "nonpayable",
      "type": "function"
    },
    {
      "constant": true,
      "inputs": [],
      "name": "getSuperCagnotte",
      "outputs": [
        {
          "name": "",
          "type": "uint256"
        }
      ],
      "payable": false,
      "stateMutability": "view",
      "type": "function"
    }
  ],
  "bytecode": "0x60806040523480156200001157600080fd5b5033600360006101000a81548173ffffffffffffffffffffffffffffffffffffffff021916908373ffffffffffffffffffffffffffffffffffffffff160217905550678ac7230489e80000600e8190555062989680600f819055506064601081905550620186a06011819055506127106012819055506103e86013819055506305f5e100601b81905550620f4240601981905550600280811115620000b257fe5b601c60009054906101000a900460ff166002811115620000ce57fe5b5050614f0e80620000e06000396000f3fe608060405260043610610293576000357c0100000000000000000000000000000000000000000000000000000000900463ffffffff16806306fdde031461029857806307d54aeb14610328578063095ea7b31461036357806317503266146103d657806318160ddd146104115780631e0afe571461043c5780631e63f293146104a85780632055bd08146104d357806323b872dd1461061457806324c8254b146106a7578063283a2b46146106d257806329c773471461084e5780632a51becf1461096b5780632e2ee9d714610a47578063313ce56714610a82578063370c29f914610ab95780633950935114610af45780633c431d6a14610b675780634152299714610b9257806345de2ca014610c46578063483f021914610d875780634a3f4a5d14610d9e5780634b7b03cf14610dc95780634dc8872914610e7d5780635126670614610f455780635743026414610f805780635f0935531461105c578063639f8499146110975780636898f82b146111525780636cbc2ded1461118d5780636e5e19e0146111a457806370a08231146111bb5780637aede2721461122057806383e4cccf14611361578063897600111461139c5780638da5cb5b146113b35780638f3333411461140a57806395d89b411461157c5780639d05e9ab1461160c578063a18b7c11146116e8578063a457c2d714611713578063a9059cbb14611786578063b6e91ae4146117f9578063beaf3b0d14611824578063d335c0431461185f578063d40dc8701461188a578063d74b10a5146118b5578063dd62ed3e14611991578063ddbcb5fa14611a16578063e09c813614611a41578063e7637a7d14611aad578063e7b04b7214611bb5578063f2fde38b14611be0578063f4343df414611c31578063f483977214611d83575b600080fd5b3480156102a457600080fd5b506102ad611dbe565b6040518080602001828103825283818151815260200191508051906020019080838360005b838110156102ed5780820151818401526020810190506102d2565b50505050905090810190601f16801561031a5780820380516001836020036101000a031916815260200191505b509250505060405180910390f35b34801561033457600080fd5b506103616004803603602081101561034b57600080fd5b8101908080359060200190929190505050611df7565b005b34801561036f57600080fd5b506103bc6004803603604081101561038657600080fd5b81019080803573ffffffffffffffffffffffffffffffffffffffff16906020019092919080359060200190929190505050611e5d565b604051808215151515815260200191505060405180910390f35b3480156103e257600080fd5b5061040f600480360360208110156103f957600080fd5b8101908080359060200190929190505050611e74565b005b34801561041d57600080fd5b50610426611eda565b6040518082815260200191505060405180910390f35b34801561044857600080fd5b50610451611ee4565b6040518080602001828103825283818151815260200191508051906020019060200280838360005b83811015610494578082015181840152602081019050610479565b505050509050019250505060405180910390f35b3480156104b457600080fd5b506104bd611f79565b6040518082815260200191505060405180910390f35b3480156104df57600080fd5b50610599600480360360208110156104f657600080fd5b810190808035906020019064010000000081111561051357600080fd5b82018360208201111561052557600080fd5b8035906020019184600183028401116401000000008311171561054757600080fd5b91908080601f016020809104026020016040519081016040528093929190818152602001838380828437600081840152601f19601f820116905080830192505050505050509192919290505050611f83565b6040518080602001828103825283818151815260200191508051906020019080838360005b838110156105d95780820151818401526020810190506105be565b50505050905090810190601f1680156106065780820380516001836020036101000a031916815260200191505b509250505060405180910390f35b34801561062057600080fd5b5061068d6004803603606081101561063757600080fd5b81019080803573ffffffffffffffffffffffffffffffffffffffff169060200190929190803573ffffffffffffffffffffffffffffffffffffffff1690602001909291908035906020019092919050505061209c565b604051808215151515815260200191505060405180910390f35b3480156106b357600080fd5b506106bc61214d565b6040518082815260200191505060405180910390f35b61084c600480360360808110156106e857600080fd5b81019080803590602001909291908035906020019064010000000081111561070f57600080fd5b82018360208201111561072157600080fd5b8035906020019184600183028401116401000000008311171561074357600080fd5b91908080601f016020809104026020016040519081016040528093929190818152602001838380828437600081840152601f19601f820116905080830192505050505050509192919290803573ffffffffffffffffffffffffffffffffffffffff169060200190929190803590602001906401000000008111156107c657600080fd5b8201836020820111156107d857600080fd5b803590602001918460018302840111640100000000831117156107fa57600080fd5b91908080601f016020809104026020016040519081016040528093929190818152602001838380828437600081840152601f19601f820116905080830192505050505050509192919290505050612153565b005b34801561085a57600080fd5b506109146004803603602081101561087157600080fd5b810190808035906020019064010000000081111561088e57600080fd5b8201836020820111156108a057600080fd5b803590602001918460018302840111640100000000831117156108c257600080fd5b91908080601f016020809104026020016040519081016040528093929190818152602001838380828437600081840152601f19601f8201169050808301925050505050505091929192905050506122ca565b6040518080602001828103825283818151815260200191508051906020019060200280838360005b8381101561095757808201518184015260208101905061093c565b505050509050019250505060405180910390f35b34801561097757600080fd5b50610a316004803603602081101561098e57600080fd5b81019080803590602001906401000000008111156109ab57600080fd5b8201836020820111156109bd57600080fd5b803590602001918460018302840111640100000000831117156109df57600080fd5b91908080601f016020809104026020016040519081016040528093929190818152602001838380828437600081840152601f19601f82011690508083019250505050505050919291929050505061238d565b6040518082815260200191505060405180910390f35b348015610a5357600080fd5b50610a8060048036036020811015610a6a57600080fd5b8101908080359060200190929190505050612418565b005b348015610a8e57600080fd5b50610a9761247e565b604051808263ffffffff1663ffffffff16815260200191505060405180910390f35b348015610ac557600080fd5b50610af260048036036020811015610adc57600080fd5b8101908080359060200190929190505050612483565b005b348015610b0057600080fd5b50610b4d60048036036040811015610b1757600080fd5b81019080803573ffffffffffffffffffffffffffffffffffffffff169060200190929190803590602001909291905050506124e9565b604051808215151515815260200191505060405180910390f35b348015610b7357600080fd5b50610b7c61258e565b6040518082815260200191505060405180910390f35b348015610b9e57600080fd5b50610bcb60048036036020811015610bb557600080fd5b8101908080359060200190929190505050612594565b6040518080602001828103825283818151815260200191508051906020019080838360005b83811015610c0b578082015181840152602081019050610bf0565b50505050905090810190601f168015610c385780820380516001836020036101000a031916815260200191505b509250505060405180910390f35b348015610c5257600080fd5b50610d0c60048036036020811015610c6957600080fd5b8101908080359060200190640100000000811115610c8657600080fd5b820183602082011115610c9857600080fd5b80359060200191846001830284011164010000000083111715610cba57600080fd5b91908080601f016020809104026020016040519081016040528093929190818152602001838380828437600081840152601f19601f820116905080830192505050505050509192919290505050612649565b6040518080602001828103825283818151815260200191508051906020019080838360005b83811015610d4c578082015181840152602081019050610d31565b50505050905090810190601f168015610d795780820380516001836020036101000a031916815260200191505b509250505060405180910390f35b348015610d9357600080fd5b50610d9c61276c565b005b348015610daa57600080fd5b50610db361283f565b6040518082815260200191505060405180910390f35b348015610dd557600080fd5b50610e0260048036036020811015610dec57600080fd5b8101908080359060200190929190505050612845565b6040518080602001828103825283818151815260200191508051906020019080838360005b83811015610e42578082015181840152602081019050610e27565b50505050905090810190601f168015610e6f5780820380516001836020036101000a031916815260200191505b509250505060405180910390f35b348015610e8957600080fd5b50610f4360048036036020811015610ea057600080fd5b8101908080359060200190640100000000811115610ebd57600080fd5b820183602082011115610ecf57600080fd5b80359060200191846001830284011164010000000083111715610ef157600080fd5b91908080601f016020809104026020016040519081016040528093929190818152602001838380828437600081840152601f19601f8201169050808301925050505050505091929192905050506128fd565b005b348015610f5157600080fd5b50610f7e60048036036020811015610f6857600080fd5b8101908080359060200190929190505050612acd565b005b348015610f8c57600080fd5b5061104660048036036020811015610fa357600080fd5b8101908080359060200190640100000000811115610fc057600080fd5b820183602082011115610fd257600080fd5b80359060200191846001830284011164010000000083111715610ff457600080fd5b91908080601f016020809104026020016040519081016040528093929190818152602001838380828437600081840152601f19601f820116905080830192505050505050509192919290505050612b33565b6040518082815260200191505060405180910390f35b34801561106857600080fd5b506110956004803603602081101561107f57600080fd5b8101908080359060200190929190505050612bbe565b005b611150600480360360208110156110ad57600080fd5b81019080803590602001906401000000008111156110ca57600080fd5b8201836020820111156110dc57600080fd5b803590602001918460018302840111640100000000831117156110fe57600080fd5b91908080601f016020809104026020016040519081016040528093929190818152602001838380828437600081840152601f19601f820116905080830192505050505050509192919290505050612c24565b005b34801561115e57600080fd5b5061118b6004803603602081101561117557600080fd5b8101908080359060200190929190505050612deb565b005b34801561119957600080fd5b506111a2612efd565b005b3480156111b057600080fd5b506111b9613301565b005b3480156111c757600080fd5b5061120a600480360360208110156111de57600080fd5b81019080803573ffffffffffffffffffffffffffffffffffffffff1690602001909291905050506133cf565b6040518082815260200191505060405180910390f35b34801561122c57600080fd5b506112e66004803603602081101561124357600080fd5b810190808035906020019064010000000081111561126057600080fd5b82018360208201111561127257600080fd5b8035906020019184600183028401116401000000008311171561129457600080fd5b91908080601f016020809104026020016040519081016040528093929190818152602001838380828437600081840152601f19601f820116905080830192505050505050509192919290505050613417565b6040518080602001828103825283818151815260200191508051906020019080838360005b8381101561132657808201518184015260208101905061130b565b50505050905090810190601f1680156113535780820380516001836020036101000a031916815260200191505b509250505060405180910390f35b34801561136d57600080fd5b5061139a6004803603602081101561138457600080fd5b810190808035906020019092919050505061353a565b005b3480156113a857600080fd5b506113b16135e0565b005b3480156113bf57600080fd5b506113c86137a9565b604051808273ffffffffffffffffffffffffffffffffffffffff1673ffffffffffffffffffffffffffffffffffffffff16815260200191505060405180910390f35b61157a6004803603606081101561142057600080fd5b81019080803573ffffffffffffffffffffffffffffffffffffffff1690602001909291908035906020019064010000000081111561145d57600080fd5b82018360208201111561146f57600080fd5b8035906020019184600183028401116401000000008311171561149157600080fd5b91908080601f016020809104026020016040519081016040528093929190818152602001838380828437600081840152601f19601f820116905080830192505050505050509192919290803590602001906401000000008111156114f457600080fd5b82018360208201111561150657600080fd5b8035906020019184600183028401116401000000008311171561152857600080fd5b91908080601f016020809104026020016040519081016040528093929190818152602001838380828437600081840152601f19601f8201169050808301925050505050505091929192905050506137cf565b005b34801561158857600080fd5b50611591613b34565b6040518080602001828103825283818151815260200191508051906020019080838360005b838110156115d15780820151818401526020810190506115b6565b50505050905090810190601f1680156115fe5780820380516001836020036101000a031916815260200191505b509250505060405180910390f35b34801561161857600080fd5b506116d26004803603602081101561162f57600080fd5b810190808035906020019064010000000081111561164c57600080fd5b82018360208201111561165e57600080fd5b8035906020019184600183028401116401000000008311171561168057600080fd5b91908080601f016020809104026020016040519081016040528093929190818152602001838380828437600081840152601f19601f820116905080830192505050505050509192919290505050613b6d565b6040518082815260200191505060405180910390f35b3480156116f457600080fd5b506116fd613bf8565b6040518082815260200191505060405180910390f35b34801561171f57600080fd5b5061176c6004803603604081101561173657600080fd5b81019080803573ffffffffffffffffffffffffffffffffffffffff16906020019092919080359060200190929190505050613bfe565b604051808215151515815260200191505060405180910390f35b34801561179257600080fd5b506117df600480360360408110156117a957600080fd5b81019080803573ffffffffffffffffffffffffffffffffffffffff16906020019092919080359060200190929190505050613ca3565b604051808215151515815260200191505060405180910390f35b34801561180557600080fd5b5061180e613cba565b6040518082815260200191505060405180910390f35b34801561183057600080fd5b5061185d6004803603602081101561184757600080fd5b8101908080359060200190929190505050613cc4565b005b34801561186b57600080fd5b50611874613d2a565b6040518082815260200191505060405180910390f35b34801561189657600080fd5b5061189f613d30565b6040518082815260200191505060405180910390f35b3480156118c157600080fd5b5061197b600480360360208110156118d857600080fd5b81019080803590602001906401000000008111156118f557600080fd5b82018360208201111561190757600080fd5b8035906020019184600183028401116401000000008311171561192957600080fd5b91908080601f016020809104026020016040519081016040528093929190818152602001838380828437600081840152601f19601f820116905080830192505050505050509192919290505050613d36565b6040518082815260200191505060405180910390f35b34801561199d57600080fd5b50611a00600480360360408110156119b457600080fd5b81019080803573ffffffffffffffffffffffffffffffffffffffff169060200190929190803573ffffffffffffffffffffffffffffffffffffffff169060200190929190505050613dc1565b6040518082815260200191505060405180910390f35b348015611a2257600080fd5b50611a2b613e48565b6040518082815260200191505060405180910390f35b348015611a4d57600080fd5b50611a56613e4e565b6040518080602001828103825283818151815260200191508051906020019060200280838360005b83811015611a99578082015181840152602081019050611a7e565b505050509050019250505060405180910390f35b348015611ab957600080fd5b50611b7360048036036020811015611ad057600080fd5b8101908080359060200190640100000000811115611aed57600080fd5b820183602082011115611aff57600080fd5b80359060200191846001830284011164010000000083111715611b2157600080fd5b91908080601f016020809104026020016040519081016040528093929190818152602001838380828437600081840152601f19601f820116905080830192505050505050509192919290505050613ee3565b604051808273ffffffffffffffffffffffffffffffffffffffff1673ffffffffffffffffffffffffffffffffffffffff16815260200191505060405180910390f35b348015611bc157600080fd5b50611bca613f8e565b6040518082815260200191505060405180910390f35b348015611bec57600080fd5b50611c2f60048036036020811015611c0357600080fd5b81019080803573ffffffffffffffffffffffffffffffffffffffff169060200190929190505050613f94565b005b611d8160048036036040811015611c4757600080fd5b8101908080359060200190640100000000811115611c6457600080fd5b820183602082011115611c7657600080fd5b80359060200191846001830284011164010000000083111715611c9857600080fd5b91908080601f016020809104026020016040519081016040528093929190818152602001838380828437600081840152601f19601f82011690508083019250505050505050919291929080359060200190640100000000811115611cfb57600080fd5b820183602082011115611d0d57600080fd5b80359060200191846001830284011164010000000083111715611d2f57600080fd5b91908080601f016020809104026020016040519081016040528093929190818152602001838380828437600081840152601f19601f8201169050808301925050505050505091929192905050506140ec565b005b348015611d8f57600080fd5b50611dbc60048036036020811015611da657600080fd5b8101908080359060200190929190505050614551565b005b6040805190810160405280600981526020017f636f696e756e696f6e000000000000000000000000000000000000000000000081525081565b600360009054906101000a900473ffffffffffffffffffffffffffffffffffffffff1673ffffffffffffffffffffffffffffffffffffffff163373ffffffffffffffffffffffffffffffffffffffff16141515611e5357600080fd5b80601b8190555050565b6000611e6a3384846145b7565b6001905092915050565b600360009054906101000a900473ffffffffffffffffffffffffffffffffffffffff1673ffffffffffffffffffffffffffffffffffffffff163373ffffffffffffffffffffffffffffffffffffffff16141515611ed057600080fd5b8060118190555050565b6000600254905090565b6060600560003373ffffffffffffffffffffffffffffffffffffffff1673ffffffffffffffffffffffffffffffffffffffff168152602001908152602001600020805480602002602001604051908101604052809291908181526020018280548015611f6f57602002820191906000526020600020905b815481526020019060010190808311611f5b575b5050505050905090565b6000601454905090565b60606000828051906020012060019004905060046000600d600084815260200190815260200160002060003373ffffffffffffffffffffffffffffffffffffffff1673ffffffffffffffffffffffffffffffffffffffff1681526020019081526020016000205481526020019081526020016000206001018054600181600116156101000203166002900480601f01602080910402602001604051908101604052809291908181526020018280546001816001161561010002031660029004801561208f5780601f106120645761010080835404028352916020019161208f565b820191906000526020600020905b81548152906001019060200180831161207257829003601f168201915b5050505050915050919050565b60006120a984848461471a565b612142843361213d85600160008a73ffffffffffffffffffffffffffffffffffffffff1673ffffffffffffffffffffffffffffffffffffffff16815260200190815260200160002060003373ffffffffffffffffffffffffffffffffffffffff1673ffffffffffffffffffffffffffffffffffffffff168152602001908152602001600020546148e690919063ffffffff16565b6145b7565b600190509392505050565b601b5481565b6013543414151561216357600080fd5b600f548411151561217357600080fd5b600e548410151561218357600080fd5b600083805190602001206001900490503373ffffffffffffffffffffffffffffffffffffffff166004600083815260200190815260200160002060000160009054906101000a900473ffffffffffffffffffffffffffffffffffffffff1673ffffffffffffffffffffffffffffffffffffffff1614151561220357600080fd5b6000600460008381526020019081526020016000206003015414151561222857600080fd5b846004600083815260200190815260200160002060030181905550826004600083815260200190815260200160002060070160006101000a81548173ffffffffffffffffffffffffffffffffffffffff021916908373ffffffffffffffffffffffffffffffffffffffff160217905550816004600083815260200190815260200160002060080190805190602001906122c2929190614e3d565b505050505050565b60606006826040518082805190602001908083835b60208310151561230457805182526020820191506020810190506020830392506122df565b6001836020036101000a038019825116818451168082178552505050505050905001915050908152602001604051809103902080548060200260200160405190810160405280929190818152602001828054801561238157602002820191906000526020600020905b81548152602001906001019080831161236d575b50505050509050919050565b600060046000600c846040518082805190602001908083835b6020831015156123cb57805182526020820191506020810190506020830392506123a6565b6001836020036101000a0380198251168184511680821785525050505050509050019150509081526020016040518091039020548152602001908152602001600020600501549050919050565b600360009054906101000a900473ffffffffffffffffffffffffffffffffffffffff1673ffffffffffffffffffffffffffffffffffffffff163373ffffffffffffffffffffffffffffffffffffffff1614151561247457600080fd5b8060198190555050565b601281565b600360009054906101000a900473ffffffffffffffffffffffffffffffffffffffff1673ffffffffffffffffffffffffffffffffffffffff163373ffffffffffffffffffffffffffffffffffffffff161415156124df57600080fd5b8060138190555050565b6000612584338461257f85600160003373ffffffffffffffffffffffffffffffffffffffff1673ffffffffffffffffffffffffffffffffffffffff16815260200190815260200160002060008973ffffffffffffffffffffffffffffffffffffffff1673ffffffffffffffffffffffffffffffffffffffff168152602001908152602001600020546148ff90919063ffffffff16565b6145b7565b6001905092915050565b60105481565b6060600760008381526020019081526020016000208054600181600116156101000203166002900480601f01602080910402602001604051908101604052809291908181526020018280546001816001161561010002031660029004801561263d5780601f106126125761010080835404028352916020019161263d565b820191906000526020600020905b81548152906001019060200180831161262057829003601f168201915b50505050509050919050565b606060046000600c846040518082805190602001908083835b6020831015156126875780518252602082019150602081019050602083039250612662565b6001836020036101000a03801982511681845116808217855250505050505090500191505090815260200160405180910390205481526020019081526020016000206008018054600181600116156101000203166002900480601f0160208091040260200160405190810160405280929190818152602001828054600181600116156101000203166002900480156127605780601f1061273557610100808354040283529160200191612760565b820191906000526020600020905b81548152906001019060200180831161274357829003601f168201915b50505050509050919050565b6000601660003373ffffffffffffffffffffffffffffffffffffffff1673ffffffffffffffffffffffffffffffffffffffff1681526020019081526020016000205490506000601660003373ffffffffffffffffffffffffffffffffffffffff1673ffffffffffffffffffffffffffffffffffffffff168152602001908152602001600020819055503373ffffffffffffffffffffffffffffffffffffffff166108fc829081150290604051600060405180830381858888f1935050505015801561283b573d6000803e3d6000fd5b5050565b60115481565b6060600460008381526020019081526020016000206001018054600181600116156101000203166002900480601f0160208091040260200160405190810160405280929190818152602001828054600181600116156101000203166002900480156128f15780601f106128c6576101008083540402835291602001916128f1565b820191906000526020600020905b8154815290600101906020018083116128d457829003601f168201915b50505050509050919050565b60008180519060200120600190049050600060046000838152602001908152602001600020600301541415151561293357600080fd5b3373ffffffffffffffffffffffffffffffffffffffff166004600083815260200190815260200160002060000160009054906101000a900473ffffffffffffffffffffffffffffffffffffffff1673ffffffffffffffffffffffffffffffffffffffff161415156129a357600080fd5b3373ffffffffffffffffffffffffffffffffffffffff166108fc60046000848152602001908152602001600020600401549081150290604051600060405180830381858888f193505050501580156129ff573d6000803e3d6000fd5b50600060046000838152602001908152602001600020600401819055506000600460008381526020019081526020016000206003018190555060006004600083815260200190815260200160002060070160006101000a81548173ffffffffffffffffffffffffffffffffffffffff021916908373ffffffffffffffffffffffffffffffffffffffff1602179055506020604051908101604052806000815250600460008381526020019081526020016000206008019080519060200190612ac8929190614e3d565b505050565b600360009054906101000a900473ffffffffffffffffffffffffffffffffffffffff1673ffffffffffffffffffffffffffffffffffffffff163373ffffffffffffffffffffffffffffffffffffffff16141515612b2957600080fd5b8060108190555050565b600060046000600c846040518082805190602001908083835b602083101515612b715780518252602082019150602081019050602083039250612b4c565b6001836020036101000a0380198251168184511680821785525050505050509050019150509081526020016040518091039020548152602001908152602001600020600601549050919050565b600360009054906101000a900473ffffffffffffffffffffffffffffffffffffffff1673ffffffffffffffffffffffffffffffffffffffff163373ffffffffffffffffffffffffffffffffffffffff16141515612c1a57600080fd5b8060128190555050565b600034111515612c3357600080fd5b600081805190602001206001900490503373ffffffffffffffffffffffffffffffffffffffff166004600083815260200190815260200160002060000160009054906101000a900473ffffffffffffffffffffffffffffffffffffffff1673ffffffffffffffffffffffffffffffffffffffff1614151515612cb457600080fd5b600060105434811515612cc357fe5b049050612cd23382340361491d565b6000612cfd3460046000868152602001908152602001600020600401546148ff90919063ffffffff16565b60046000858152602001908152602001600020600301541115612d6057612d59600460008581526020019081526020016000206004015460046000868152602001908152602001600020600301546148e690919063ffffffff16565b9050612d64565b3490505b80600460008581526020019081526020016000206005016000828254019250508190555081810390508060046000858152602001908152602001600020600601600082825401925050819055508060046000858152602001908152602001600020600401600082825401925050819055508160146000828254019250508190555050505050565b60006002811115612df857fe5b601c60009054906101000a900460ff166002811115612e1357fe5b141515612e1f57600080fd5b612e2b33601b54614a71565b601560003373ffffffffffffffffffffffffffffffffffffffff1673ffffffffffffffffffffffffffffffffffffffff16815260200190815260200160002081908060018154018082558091505090600182039060005260206000200160009091929091909150555060173390806001815401808255809150509060018203906000526020600020016000909192909190916101000a81548173ffffffffffffffffffffffffffffffffffffffff021916908373ffffffffffffffffffffffffffffffffffffffff1602179055505050565b600360009054906101000a900473ffffffffffffffffffffffffffffffffffffffff1673ffffffffffffffffffffffffffffffffffffffff163373ffffffffffffffffffffffffffffffffffffffff16141515612f5957600080fd5b60006002811115612f6657fe5b601c60009054906101000a900460ff166002811115612f8157fe5b141515612f8d57600080fd5b601954601a544303111515612fa157600080fd5b60008090505b6017805490508110156132fe5760008090505b60156000601784815481101515612fcd57fe5b9060005260206000200160009054906101000a900473ffffffffffffffffffffffffffffffffffffffff1673ffffffffffffffffffffffffffffffffffffffff1673ffffffffffffffffffffffffffffffffffffffff168152602001908152602001600020805490508110156132f0576014546015600060178581548110151561305357fe5b9060005260206000200160009054906101000a900473ffffffffffffffffffffffffffffffffffffffff1673ffffffffffffffffffffffffffffffffffffffff1673ffffffffffffffffffffffffffffffffffffffff168152602001908152602001600020828154811015156130c557fe5b906000526020600020015414801561316d57506000601560006017858154811015156130ed57fe5b9060005260206000200160009054906101000a900473ffffffffffffffffffffffffffffffffffffffff1673ffffffffffffffffffffffffffffffffffffffff1673ffffffffffffffffffffffffffffffffffffffff1681526020019081526020016000208281548110151561315f57fe5b906000526020600020015414155b156132a75760006015600060178581548110151561318757fe5b9060005260206000200160009054906101000a900473ffffffffffffffffffffffffffffffffffffffff1673ffffffffffffffffffffffffffffffffffffffff1673ffffffffffffffffffffffffffffffffffffffff168152602001908152602001600020828154811015156131f957fe5b9060005260206000200181905550601860178381548110151561321857fe5b9060005260206000200160009054906101000a900473ffffffffffffffffffffffffffffffffffffffff1690806001815401808255809150509060018203906000526020600020016000909192909190916101000a81548173ffffffffffffffffffffffffffffffffffffffff021916908373ffffffffffffffffffffffffffffffffffffffff160217905550505b6017828154811015156132b657fe5b9060005260206000200160006101000a81549073ffffffffffffffffffffffffffffffffffffffff02191690558080600101915050612fba565b508080600101915050612fa7565b50565b600360009054906101000a900473ffffffffffffffffffffffffffffffffffffffff1673ffffffffffffffffffffffffffffffffffffffff163373ffffffffffffffffffffffffffffffffffffffff1614151561335d57600080fd5b60028081111561336957fe5b601c60009054906101000a900460ff16600281111561338457fe5b14151561339057600080fd5b601b546014541115156133a257600080fd5b6000601c60006101000a81548160ff021916908360028111156133c157fe5b021790555043601a81905550565b60008060008373ffffffffffffffffffffffffffffffffffffffff1673ffffffffffffffffffffffffffffffffffffffff168152602001908152602001600020549050919050565b606060046000600c846040518082805190602001908083835b6020831015156134555780518252602082019150602081019050602083039250613430565b6001836020036101000a03801982511681845116808217855250505050505090500191505090815260200160405180910390205481526020019081526020016000206002018054600181600116156101000203166002900480601f01602080910402602001604051908101604052809291908181526020018280546001816001161561010002031660029004801561352e5780601f106135035761010080835404028352916020019161352e565b820191906000526020600020905b81548152906001019060200180831161351157829003601f168201915b50505050509050919050565b600360009054906101000a900473ffffffffffffffffffffffffffffffffffffffff1673ffffffffffffffffffffffffffffffffffffffff163373ffffffffffffffffffffffffffffffffffffffff1614151561359657600080fd5b3373ffffffffffffffffffffffffffffffffffffffff166108fc829081150290604051600060405180830381858888f193505050501580156135dc573d6000803e3d6000fd5b5050565b600360009054906101000a900473ffffffffffffffffffffffffffffffffffffffff1673ffffffffffffffffffffffffffffffffffffffff163373ffffffffffffffffffffffffffffffffffffffff1614151561363c57600080fd5b6001600281111561364957fe5b601c60009054906101000a900460ff16600281111561366457fe5b14151561367057600080fd5b61368a601880549050601454614b1890919063ffffffff16565b60148190555060008090505b60188054905081101561377a57613730601454601660006018858154811015156136bc57fe5b9060005260206000200160009054906101000a900473ffffffffffffffffffffffffffffffffffffffff1673ffffffffffffffffffffffffffffffffffffffff1673ffffffffffffffffffffffffffffffffffffffff168152602001908152602001600020546148ff90919063ffffffff16565b5060188181548110151561374057fe5b9060005260206000200160006101000a81549073ffffffffffffffffffffffffffffffffffffffff02191690558080600101915050613696565b5060006014819055506002601c60006101000a81548160ff021916908360028111156137a257fe5b0217905550565b600360009054906101000a900473ffffffffffffffffffffffffffffffffffffffff1681565b346012541415156137df57600080fd5b60008180519060200120600190049050600073ffffffffffffffffffffffffffffffffffffffff166004600083815260200190815260200160002060000160009054906101000a900473ffffffffffffffffffffffffffffffffffffffff1673ffffffffffffffffffffffffffffffffffffffff1614151561386057600080fd5b3373ffffffffffffffffffffffffffffffffffffffff166009846040518082805190602001908083835b6020831015156138af578051825260208201915060208101905060208303925061388a565b6001836020036101000a038019825116818451168082178552505050505050905001915050908152602001604051809103902060009054906101000a900473ffffffffffffffffffffffffffffffffffffffff1673ffffffffffffffffffffffffffffffffffffffff1614151561392557600080fd5b600083805190602001206001900490506000600d600083815260200190815260200160002060003373ffffffffffffffffffffffffffffffffffffffff1673ffffffffffffffffffffffffffffffffffffffff1681526020019081526020016000205414151561399457600080fd5b336004600084815260200190815260200160002060000160006101000a81548173ffffffffffffffffffffffffffffffffffffffff021916908373ffffffffffffffffffffffffffffffffffffffff160217905550600560008673ffffffffffffffffffffffffffffffffffffffff1673ffffffffffffffffffffffffffffffffffffffff168152602001908152602001600020819080600181540180825580915050906001820390600052602060002001600090919290919091505550600b846040518082805190602001908083835b602083101515613a8a5780518252602082019150602081019050602083039250613a65565b6001836020036101000a03801982511681845116808217855250505050505090500191505090815260200160405180910390208590806001815401808255809150509060018203906000526020600020016000909192909190916101000a81548173ffffffffffffffffffffffffffffffffffffffff021916908373ffffffffffffffffffffffffffffffffffffffff16021790555050613b2d83858385614b33565b5050505050565b6040805190810160405280600581526020017f554e494f4e00000000000000000000000000000000000000000000000000000081525081565b600060046000600c846040518082805190602001908083835b602083101515613bab5780518252602082019150602081019050602083039250613b86565b6001836020036101000a0380198251168184511680821785525050505050509050019150509081526020016040518091039020548152602001908152602001600020600401549050919050565b60135481565b6000613c993384613c9485600160003373ffffffffffffffffffffffffffffffffffffffff1673ffffffffffffffffffffffffffffffffffffffff16815260200190815260200160002060008973ffffffffffffffffffffffffffffffffffffffff1673ffffffffffffffffffffffffffffffffffffffff168152602001908152602001600020546148e690919063ffffffff16565b6145b7565b6001905092915050565b6000613cb033848461471a565b6001905092915050565b6000601b54905090565b600360009054906101000a900473ffffffffffffffffffffffffffffffffffffffff1673ffffffffffffffffffffffffffffffffffffffff163373ffffffffffffffffffffffffffffffffffffffff16141515613d2057600080fd5b80600e8190555050565b60125481565b600e5481565b600060046000600c846040518082805190602001908083835b602083101515613d745780518252602082019150602081019050602083039250613d4f565b6001836020036101000a0380198251168184511680821785525050505050509050019150509081526020016040518091039020548152602001908152602001600020600301549050919050565b6000600160008473ffffffffffffffffffffffffffffffffffffffff1673ffffffffffffffffffffffffffffffffffffffff16815260200190815260200160002060008373ffffffffffffffffffffffffffffffffffffffff1673ffffffffffffffffffffffffffffffffffffffff16815260200190815260200160002054905092915050565b600f5481565b6060600860003373ffffffffffffffffffffffffffffffffffffffff1673ffffffffffffffffffffffffffffffffffffffff168152602001908152602001600020805480602002602001604051908101604052809291908181526020018280548015613ed957602002820191906000526020600020905b815481526020019060010190808311613ec5575b5050505050905090565b600060046000600c846040518082805190602001908083835b602083101515613f215780518252602082019150602081019050602083039250613efc565b6001836020036101000a038019825116818451168082178552505050505050905001915050908152602001604051809103902054815260200190815260200160002060070160009054906101000a900473ffffffffffffffffffffffffffffffffffffffff169050919050565b60145481565b600360009054906101000a900473ffffffffffffffffffffffffffffffffffffffff1673ffffffffffffffffffffffffffffffffffffffff163373ffffffffffffffffffffffffffffffffffffffff16141515613ff057600080fd5b600073ffffffffffffffffffffffffffffffffffffffff168173ffffffffffffffffffffffffffffffffffffffff161415151561402c57600080fd5b8073ffffffffffffffffffffffffffffffffffffffff16600360009054906101000a900473ffffffffffffffffffffffffffffffffffffffff1673ffffffffffffffffffffffffffffffffffffffff167f8be0079c531659141344cd1fd0a4f28419497f9722a3daafe3b4186f6b6457e060405160405180910390a380600360006101000a81548173ffffffffffffffffffffffffffffffffffffffff021916908373ffffffffffffffffffffffffffffffffffffffff16021790555050565b346011541415156140fc57600080fd5b6000600a836040518082805190602001908083835b6020831015156141365780518252602082019150602081019050602083039250614111565b6001836020036101000a03801982511681845116808217855250505050505090500191505090815260200160405180910390205414151561417657600080fd5b60008180519060200120600190049050600073ffffffffffffffffffffffffffffffffffffffff166004600083815260200190815260200160002060000160009054906101000a900473ffffffffffffffffffffffffffffffffffffffff1673ffffffffffffffffffffffffffffffffffffffff161415156141f757600080fd5b60008380519060200120600190049050336004600084815260200190815260200160002060000160006101000a81548173ffffffffffffffffffffffffffffffffffffffff021916908373ffffffffffffffffffffffffffffffffffffffff16021790555080600a856040518082805190602001908083835b6020831015156142955780518252602082019150602081019050602083039250614270565b6001836020036101000a038019825116818451168082178552505050505050905001915050908152602001604051809103902081905550336009856040518082805190602001908083835b60208310151561430557805182526020820191506020810190506020830392506142e0565b6001836020036101000a038019825116818451168082178552505050505050905001915050908152602001604051809103902060006101000a81548173ffffffffffffffffffffffffffffffffffffffff021916908373ffffffffffffffffffffffffffffffffffffffff160217905550600860003373ffffffffffffffffffffffffffffffffffffffff1673ffffffffffffffffffffffffffffffffffffffff16815260200190815260200160002081908060018154018082558091505090600182039060005260206000200160009091929091909150555083600760008381526020019081526020016000209080519060200190614406929190614e3d565b50600b846040518082805190602001908083835b60208310151561443f578051825260208201915060208101905060208303925061441a565b6001836020036101000a03801982511681845116808217855250505050505090500191505090815260200160405180910390203390806001815401808255809150509060018203906000526020600020016000909192909190916101000a81548173ffffffffffffffffffffffffffffffffffffffff021916908373ffffffffffffffffffffffffffffffffffffffff16021790555050600560003373ffffffffffffffffffffffffffffffffffffffff1673ffffffffffffffffffffffffffffffffffffffff16815260200190815260200160002081908060018154018082558091505090600182039060005260206000200160009091929091909150555061454b83858385614b33565b50505050565b600360009054906101000a900473ffffffffffffffffffffffffffffffffffffffff1673ffffffffffffffffffffffffffffffffffffffff163373ffffffffffffffffffffffffffffffffffffffff161415156145ad57600080fd5b80600f8190555050565b600073ffffffffffffffffffffffffffffffffffffffff168273ffffffffffffffffffffffffffffffffffffffff16141515156145f357600080fd5b600073ffffffffffffffffffffffffffffffffffffffff168373ffffffffffffffffffffffffffffffffffffffff161415151561462f57600080fd5b80600160008573ffffffffffffffffffffffffffffffffffffffff1673ffffffffffffffffffffffffffffffffffffffff16815260200190815260200160002060008473ffffffffffffffffffffffffffffffffffffffff1673ffffffffffffffffffffffffffffffffffffffff168152602001908152602001600020819055508173ffffffffffffffffffffffffffffffffffffffff168373ffffffffffffffffffffffffffffffffffffffff167f8c5be1e5ebec7d5bd14f71427d1e84f3dd0314c0f7b2291e5b200ac8c7c3b925836040518082815260200191505060405180910390a3505050565b600073ffffffffffffffffffffffffffffffffffffffff168273ffffffffffffffffffffffffffffffffffffffff161415151561475657600080fd5b6147a7816000808673ffffffffffffffffffffffffffffffffffffffff1673ffffffffffffffffffffffffffffffffffffffff168152602001908152602001600020546148e690919063ffffffff16565b6000808573ffffffffffffffffffffffffffffffffffffffff1673ffffffffffffffffffffffffffffffffffffffff1681526020019081526020016000208190555061483a816000808573ffffffffffffffffffffffffffffffffffffffff1673ffffffffffffffffffffffffffffffffffffffff168152602001908152602001600020546148ff90919063ffffffff16565b6000808473ffffffffffffffffffffffffffffffffffffffff1673ffffffffffffffffffffffffffffffffffffffff168152602001908152602001600020819055508173ffffffffffffffffffffffffffffffffffffffff168373ffffffffffffffffffffffffffffffffffffffff167fddf252ad1be2c89b69c2b068fc378daa952ba7f163c4a11628f55a4df523b3ef836040518082815260200191505060405180910390a3505050565b60008282111515156148f457fe5b818303905092915050565b600080828401905083811015151561491357fe5b8091505092915050565b600073ffffffffffffffffffffffffffffffffffffffff168273ffffffffffffffffffffffffffffffffffffffff161415151561495957600080fd5b61496e816002546148ff90919063ffffffff16565b6002819055506149c5816000808573ffffffffffffffffffffffffffffffffffffffff1673ffffffffffffffffffffffffffffffffffffffff168152602001908152602001600020546148ff90919063ffffffff16565b6000808473ffffffffffffffffffffffffffffffffffffffff1673ffffffffffffffffffffffffffffffffffffffff168152602001908152602001600020819055508173ffffffffffffffffffffffffffffffffffffffff16600073ffffffffffffffffffffffffffffffffffffffff167fddf252ad1be2c89b69c2b068fc378daa952ba7f163c4a11628f55a4df523b3ef836040518082815260200191505060405180910390a35050565b614a7b8282614ce9565b614b148233614b0f84600160008873ffffffffffffffffffffffffffffffffffffffff1673ffffffffffffffffffffffffffffffffffffffff16815260200190815260200160002060003373ffffffffffffffffffffffffffffffffffffffff1673ffffffffffffffffffffffffffffffffffffffff168152602001908152602001600020546148e690919063ffffffff16565b6145b7565b5050565b6000808284811515614b2657fe5b0490508091505092915050565b83600460008381526020019081526020016000206001019080519060200190614b5d929190614e3d565b5082600460008381526020019081526020016000206002019080519060200190614b88929190614e3d565b506006836040518082805190602001908083835b602083101515614bc15780518252602082019150602081019050602083039250614b9c565b6001836020036101000a038019825116818451168082178552505050505050905001915050908152602001604051809103902081908060018154018082558091505090600182039060005260206000200160009091929091909150555080600c856040518082805190602001908083835b602083101515614c575780518252602082019150602081019050602083039250614c32565b6001836020036101000a03801982511681845116808217855250505050505090500191505090815260200160405180910390208190555080600d600084815260200190815260200160002060003373ffffffffffffffffffffffffffffffffffffffff1673ffffffffffffffffffffffffffffffffffffffff1681526020019081526020016000208190555050505050565b600073ffffffffffffffffffffffffffffffffffffffff168273ffffffffffffffffffffffffffffffffffffffff1614151515614d2557600080fd5b614d3a816002546148e690919063ffffffff16565b600281905550614d91816000808573ffffffffffffffffffffffffffffffffffffffff1673ffffffffffffffffffffffffffffffffffffffff168152602001908152602001600020546148e690919063ffffffff16565b6000808473ffffffffffffffffffffffffffffffffffffffff1673ffffffffffffffffffffffffffffffffffffffff16815260200190815260200160002081905550600073ffffffffffffffffffffffffffffffffffffffff168273ffffffffffffffffffffffffffffffffffffffff167fddf252ad1be2c89b69c2b068fc378daa952ba7f163c4a11628f55a4df523b3ef836040518082815260200191505060405180910390a35050565b828054600181600116156101000203166002900490600052602060002090601f016020900481019282601f10614e7e57805160ff1916838001178555614eac565b82800160010185558215614eac579182015b82811115614eab578251825591602001919060010190614e90565b5b509050614eb99190614ebd565b5090565b614edf91905b80821115614edb576000816000905550600101614ec3565b5090565b9056fea165627a7a723058203890856b6fe048cd20b747603ac1c59ce5858870bd720dfc68cacd8ad1a446e00029",
  "source": "pragma solidity ^0.5.0;\n\nimport \"./Cagnottes.sol\";\n\ncontract Lottery is Cagnottes{\n\nmapping (address => uint[]) private prediction ;\nmapping (address => uint) private gains ;\n\nenum LotteryState { Started, Finished, Pending }\n\naddress[] private players;\naddress[] private winners;\n\nuint private blockInterval;\nuint private blockStart;\n\nuint public PRICE_LOTTERY_TOKEN;\n\nLotteryState state;\n\nconstructor() public\n{\n  PRICE_LOTTERY_TOKEN = 100000000;\n  blockInterval = 1000000;\n  state == LotteryState.Pending;\n}\n\nfunction initierLottery() public onlyOwner\n{\n  require(state == LotteryState.Pending);\n  require(LOTTERY_CAGNOTTE > PRICE_LOTTERY_TOKEN);\n  state = LotteryState.Started;\n  blockStart = block.number;\n}\n\nfunction play(uint _prediction) public\n{\n  require(state == LotteryState.Started);\n  _burnFrom(msg.sender,PRICE_LOTTERY_TOKEN);\n  prediction[msg.sender].push(_prediction);\n  players.push(msg.sender);\n}\n\nfunction endGame() public onlyOwner\n{\n  require(state == LotteryState.Started);\n  require(block.number - blockStart > blockInterval);\n  for (uint i=0; i< players.length; i++)\n  {\n    for (uint j=0; j< prediction[players[i]].length; j++)\n    {\n      if (prediction[players[i]][j] == LOTTERY_CAGNOTTE && prediction[players[i]][j] != 0)\n      {\n        prediction[players[i]][j] = 0;\n        winners.push(players[i]);\n      }\n      delete players[i];\n    }\n  }\n}\n\nfunction soldeGame() public onlyOwner\n{\n  require(state == LotteryState.Finished);\n  LOTTERY_CAGNOTTE = uint(LOTTERY_CAGNOTTE.div(winners.length));\n  for (uint i=0; i< winners.length; i++)\n  {\n    gains[winners[i]].add(LOTTERY_CAGNOTTE);\n    delete winners[i];\n  }\n  LOTTERY_CAGNOTTE = 0;\n  state = LotteryState.Pending;\n}\n\nfunction withdrawGains() public\n{\n  uint MyGains = gains[msg.sender];\n  gains[msg.sender] = 0;\n  msg.sender.transfer(MyGains);\n}\n\nfunction getPrixLottery() public view returns (uint)\n{\n  return PRICE_LOTTERY_TOKEN;\n}\n\nfunction modifierPrixLottery(uint _price) public onlyOwner\n{\n  PRICE_LOTTERY_TOKEN = _price;\n}\n\nfunction modifierBlockInterval(uint _interval) public onlyOwner\n{\n  blockInterval = _interval;\n}\n\nfunction getSuperCagnotte() public view returns (uint)\n{\n  return LOTTERY_CAGNOTTE;\n}\n\n}\n",
  "sourcePath": "/Users/germaindacunha/Desktop/Alyra/project/Ether-Union/contracts/Lottery.sol",
  "compiler": {
    "name": "solc",
    "version": "0.5.0+commit.1d4f565a.Emscripten.clang"
  },
  "schemaVersion": "3.0.2",
  "updatedAt": "2019-03-29T18:10:29.133Z",
  "devdoc": {
    "methods": {
      "allowance(address,address)": {
        "details": "Function to check the amount of tokens that an owner allowed to a spender.",
        "params": {
          "owner": "address The address which owns the funds.",
          "spender": "address The address which will spend the funds."
        },
        "return": "A uint256 specifying the amount of tokens still available for the spender."
      },
      "approve(address,uint256)": {
        "details": "Approve the passed address to spend the specified amount of tokens on behalf of msg.sender. Beware that changing an allowance with this method brings the risk that someone may use both the old and the new allowance by unfortunate transaction ordering. One possible solution to mitigate this race condition is to first reduce the spender's allowance to 0 and set the desired value afterwards: https://github.com/ethereum/EIPs/issues/20#issuecomment-263524729",
        "params": {
          "spender": "The address which will spend the funds.",
          "value": "The amount of tokens to be spent."
        }
      },
      "balanceOf(address)": {
        "details": "Gets the balance of the specified address.",
        "params": {
          "owner": "The address to query the balance of."
        },
        "return": "A uint256 representing the amount owned by the passed address."
      },
      "decreaseAllowance(address,uint256)": {
        "details": "Decrease the amount of tokens that an owner allowed to a spender. approve should be called when _allowed[msg.sender][spender] == 0. To decrement allowed value is better to use this function to avoid 2 calls (and wait until the first transaction is mined) From MonolithDAO Token.sol Emits an Approval event.",
        "params": {
          "spender": "The address which will spend the funds.",
          "subtractedValue": "The amount of tokens to decrease the allowance by."
        }
      },
      "increaseAllowance(address,uint256)": {
        "details": "Increase the amount of tokens that an owner allowed to a spender. approve should be called when _allowed[msg.sender][spender] == 0. To increment allowed value is better to use this function to avoid 2 calls (and wait until the first transaction is mined) From MonolithDAO Token.sol Emits an Approval event.",
        "params": {
          "addedValue": "The amount of tokens to increase the allowance by.",
          "spender": "The address which will spend the funds."
        }
      },
      "totalSupply()": {
        "details": "Total number of tokens in existence"
      },
      "transfer(address,uint256)": {
        "details": "Transfer token to a specified address",
        "params": {
          "to": "The address to transfer to.",
          "value": "The amount to be transferred."
        }
      },
      "transferFrom(address,address,uint256)": {
        "details": "Transfer tokens from one address to another. Note that while this function emits an Approval event, this is not required as per the specification, and other compliant implementations may not emit the event.",
        "params": {
          "from": "address The address which you want to send tokens from",
          "to": "address The address which you want to transfer to",
          "value": "uint256 the amount of tokens to be transferred"
        }
      },
      "transferOwnership(address)": {
        "details": "Allows the current owner to transfer control of the contract to a newOwner.",
        "params": {
          "newOwner": "The address to transfer ownership to."
        }
      }
    }
  },
  "userdoc": {
    "methods": {}
  }
}