{
  "contractName": "Lottery",
  "abi": [
    {
      "constant": true,
      "inputs": [],
      "name": "name",
      "outputs": [
        {
          "name": "",
          "type": "string"
        }
      ],
      "payable": false,
      "stateMutability": "view",
      "type": "function"
    },
    {
      "constant": false,
      "inputs": [
        {
          "name": "spender",
          "type": "address"
        },
        {
          "name": "value",
          "type": "uint256"
        }
      ],
      "name": "approve",
      "outputs": [
        {
          "name": "",
          "type": "bool"
        }
      ],
      "payable": false,
      "stateMutability": "nonpayable",
      "type": "function"
    },
    {
      "constant": false,
      "inputs": [
        {
          "name": "_priceGroup",
          "type": "uint256"
        }
      ],
      "name": "modifierPriceGroup",
      "outputs": [],
      "payable": false,
      "stateMutability": "nonpayable",
      "type": "function"
    },
    {
      "constant": true,
      "inputs": [],
      "name": "totalSupply",
      "outputs": [
        {
          "name": "",
          "type": "uint256"
        }
      ],
      "payable": false,
      "stateMutability": "view",
      "type": "function"
    },
    {
      "constant": true,
      "inputs": [],
      "name": "getGroupesPerAddress",
      "outputs": [
        {
          "name": "",
          "type": "uint256[]"
        }
      ],
      "payable": false,
      "stateMutability": "view",
      "type": "function"
    },
    {
      "constant": true,
      "inputs": [
        {
          "name": "_groupe",
          "type": "string"
        }
      ],
      "name": "getPseudoInGroup",
      "outputs": [
        {
          "name": "",
          "type": "string"
        }
      ],
      "payable": false,
      "stateMutability": "view",
      "type": "function"
    },
    {
      "constant": false,
      "inputs": [
        {
          "name": "from",
          "type": "address"
        },
        {
          "name": "to",
          "type": "address"
        },
        {
          "name": "value",
          "type": "uint256"
        }
      ],
      "name": "transferFrom",
      "outputs": [
        {
          "name": "",
          "type": "bool"
        }
      ],
      "payable": false,
      "stateMutability": "nonpayable",
      "type": "function"
    },
    {
      "constant": true,
      "inputs": [],
      "name": "PRICE_LOTTERY_TOKEN",
      "outputs": [
        {
          "name": "",
          "type": "uint256"
        }
      ],
      "payable": false,
      "stateMutability": "view",
      "type": "function"
    },
    {
      "constant": false,
      "inputs": [
        {
          "name": "_montant",
          "type": "uint256"
        },
        {
          "name": "_pseudo",
          "type": "string"
        },
        {
          "name": "_contratCible",
          "type": "address"
        },
        {
          "name": "_description",
          "type": "string"
        }
      ],
      "name": "demander",
      "outputs": [],
      "payable": true,
      "stateMutability": "payable",
      "type": "function"
    },
    {
      "constant": true,
      "inputs": [
        {
          "name": "_groupe",
          "type": "string"
        }
      ],
      "name": "getMembres",
      "outputs": [
        {
          "name": "",
          "type": "uint256[]"
        }
      ],
      "payable": false,
      "stateMutability": "view",
      "type": "function"
    },
    {
      "constant": true,
      "inputs": [],
      "name": "decimals",
      "outputs": [
        {
          "name": "",
          "type": "uint32"
        }
      ],
      "payable": false,
      "stateMutability": "view",
      "type": "function"
    },
    {
      "constant": false,
      "inputs": [
        {
          "name": "_priceChannel",
          "type": "uint256"
        }
      ],
      "name": "modifierPriceChannel",
      "outputs": [],
      "payable": false,
      "stateMutability": "nonpayable",
      "type": "function"
    },
    {
      "constant": false,
      "inputs": [
        {
          "name": "spender",
          "type": "address"
        },
        {
          "name": "addedValue",
          "type": "uint256"
        }
      ],
      "name": "increaseAllowance",
      "outputs": [
        {
          "name": "",
          "type": "bool"
        }
      ],
      "payable": false,
      "stateMutability": "nonpayable",
      "type": "function"
    },
    {
      "constant": true,
      "inputs": [],
      "name": "PRICE_RATIO",
      "outputs": [
        {
          "name": "",
          "type": "uint256"
        }
      ],
      "payable": false,
      "stateMutability": "view",
      "type": "function"
    },
    {
      "constant": true,
      "inputs": [
        {
          "name": "_ID",
          "type": "uint256"
        }
      ],
      "name": "getNomGroupe",
      "outputs": [
        {
          "name": "",
          "type": "string"
        }
      ],
      "payable": false,
      "stateMutability": "view",
      "type": "function"
    },
    {
      "constant": true,
      "inputs": [
        {
          "name": "_pseudo",
          "type": "string"
        }
      ],
      "name": "getDescription",
      "outputs": [
        {
          "name": "",
          "type": "string"
        }
      ],
      "payable": false,
      "stateMutability": "view",
      "type": "function"
    },
    {
      "constant": true,
      "inputs": [],
      "name": "PRICE_GROUP",
      "outputs": [
        {
          "name": "",
          "type": "uint256"
        }
      ],
      "payable": false,
      "stateMutability": "view",
      "type": "function"
    },
    {
      "constant": true,
      "inputs": [
        {
          "name": "_ID",
          "type": "uint256"
        }
      ],
      "name": "getNomMembre",
      "outputs": [
        {
          "name": "",
          "type": "string"
        }
      ],
      "payable": false,
      "stateMutability": "view",
      "type": "function"
    },
    {
      "constant": false,
      "inputs": [
        {
          "name": "_pseudo",
          "type": "string"
        }
      ],
      "name": "fermetureCanal",
      "outputs": [],
      "payable": false,
      "stateMutability": "nonpayable",
      "type": "function"
    },
    {
      "constant": false,
      "inputs": [
        {
          "name": "_priceChannel",
          "type": "uint256"
        }
      ],
      "name": "modifierCharges",
      "outputs": [],
      "payable": false,
      "stateMutability": "nonpayable",
      "type": "function"
    },
    {
      "constant": true,
      "inputs": [
        {
          "name": "_pseudo",
          "type": "string"
        }
      ],
      "name": "getReceptions",
      "outputs": [
        {
          "name": "",
          "type": "uint256"
        }
      ],
      "payable": false,
      "stateMutability": "view",
      "type": "function"
    },
    {
      "constant": false,
      "inputs": [
        {
          "name": "_priceMember",
          "type": "uint256"
        }
      ],
      "name": "modifierPriceMember",
      "outputs": [],
      "payable": false,
      "stateMutability": "nonpayable",
      "type": "function"
    },
    {
      "constant": false,
      "inputs": [
        {
          "name": "_pseudo",
          "type": "string"
        }
      ],
      "name": "payerCanal",
      "outputs": [],
      "payable": true,
      "stateMutability": "payable",
      "type": "function"
    },
    {
      "constant": true,
      "inputs": [],
      "name": "MAX_PLAY",
      "outputs": [
        {
          "name": "",
          "type": "uint256"
        }
      ],
      "payable": false,
      "stateMutability": "view",
      "type": "function"
    },
    {
      "constant": true,
      "inputs": [
        {
          "name": "owner",
          "type": "address"
        }
      ],
      "name": "balanceOf",
      "outputs": [
        {
          "name": "",
          "type": "uint256"
        }
      ],
      "payable": false,
      "stateMutability": "view",
      "type": "function"
    },
    {
      "constant": true,
      "inputs": [
        {
          "name": "_pseudo",
          "type": "string"
        }
      ],
      "name": "getGroupe",
      "outputs": [
        {
          "name": "",
          "type": "string"
        }
      ],
      "payable": false,
      "stateMutability": "view",
      "type": "function"
    },
    {
      "constant": false,
      "inputs": [
        {
          "name": "_montant",
          "type": "uint256"
        }
      ],
      "name": "withdrawCash",
      "outputs": [],
      "payable": false,
      "stateMutability": "nonpayable",
      "type": "function"
    },
    {
      "constant": true,
      "inputs": [],
      "name": "owner",
      "outputs": [
        {
          "name": "",
          "type": "address"
        }
      ],
      "payable": false,
      "stateMutability": "view",
      "type": "function"
    },
    {
      "constant": false,
      "inputs": [
        {
          "name": "_membre",
          "type": "address"
        },
        {
          "name": "_groupe",
          "type": "string"
        },
        {
          "name": "_pseudo",
          "type": "string"
        }
      ],
      "name": "ajouterMembre",
      "outputs": [],
      "payable": true,
      "stateMutability": "payable",
      "type": "function"
    },
    {
      "constant": true,
      "inputs": [],
      "name": "symbol",
      "outputs": [
        {
          "name": "",
          "type": "string"
        }
      ],
      "payable": false,
      "stateMutability": "view",
      "type": "function"
    },
    {
      "constant": true,
      "inputs": [
        {
          "name": "_pseudo",
          "type": "string"
        }
      ],
      "name": "getEncours",
      "outputs": [
        {
          "name": "",
          "type": "uint256"
        }
      ],
      "payable": false,
      "stateMutability": "view",
      "type": "function"
    },
    {
      "constant": true,
      "inputs": [],
      "name": "PRICE_CHANEL",
      "outputs": [
        {
          "name": "",
          "type": "uint256"
        }
      ],
      "payable": false,
      "stateMutability": "view",
      "type": "function"
    },
    {
      "constant": false,
      "inputs": [
        {
          "name": "spender",
          "type": "address"
        },
        {
          "name": "subtractedValue",
          "type": "uint256"
        }
      ],
      "name": "decreaseAllowance",
      "outputs": [
        {
          "name": "",
          "type": "bool"
        }
      ],
      "payable": false,
      "stateMutability": "nonpayable",
      "type": "function"
    },
    {
      "constant": false,
      "inputs": [
        {
          "name": "to",
          "type": "address"
        },
        {
          "name": "value",
          "type": "uint256"
        }
      ],
      "name": "transfer",
      "outputs": [
        {
          "name": "",
          "type": "bool"
        }
      ],
      "payable": false,
      "stateMutability": "nonpayable",
      "type": "function"
    },
    {
      "constant": false,
      "inputs": [
        {
          "name": "_maxAmount",
          "type": "uint256"
        }
      ],
      "name": "modifierMaxAmount",
      "outputs": [],
      "payable": false,
      "stateMutability": "nonpayable",
      "type": "function"
    },
    {
      "constant": true,
      "inputs": [],
      "name": "PRICE_MEMBRE",
      "outputs": [
        {
          "name": "",
          "type": "uint256"
        }
      ],
      "payable": false,
      "stateMutability": "view",
      "type": "function"
    },
    {
      "constant": true,
      "inputs": [],
      "name": "MAX_AMOUNT",
      "outputs": [
        {
          "name": "",
          "type": "uint256"
        }
      ],
      "payable": false,
      "stateMutability": "view",
      "type": "function"
    },
    {
      "constant": true,
      "inputs": [
        {
          "name": "_pseudo",
          "type": "string"
        }
      ],
      "name": "getMontant",
      "outputs": [
        {
          "name": "",
          "type": "uint256"
        }
      ],
      "payable": false,
      "stateMutability": "view",
      "type": "function"
    },
    {
      "constant": true,
      "inputs": [
        {
          "name": "owner",
          "type": "address"
        },
        {
          "name": "spender",
          "type": "address"
        }
      ],
      "name": "allowance",
      "outputs": [
        {
          "name": "",
          "type": "uint256"
        }
      ],
      "payable": false,
      "stateMutability": "view",
      "type": "function"
    },
    {
      "constant": true,
      "inputs": [],
      "name": "MIN_AMOUNT",
      "outputs": [
        {
          "name": "",
          "type": "uint256"
        }
      ],
      "payable": false,
      "stateMutability": "view",
      "type": "function"
    },
    {
      "constant": true,
      "inputs": [],
      "name": "getOwnedGroupe",
      "outputs": [
        {
          "name": "",
          "type": "uint256[]"
        }
      ],
      "payable": false,
      "stateMutability": "view",
      "type": "function"
    },
    {
      "constant": true,
      "inputs": [
        {
          "name": "_pseudo",
          "type": "string"
        }
      ],
      "name": "getContratCible",
      "outputs": [
        {
          "name": "",
          "type": "address"
        }
      ],
      "payable": false,
      "stateMutability": "view",
      "type": "function"
    },
    {
      "constant": true,
      "inputs": [],
      "name": "LOTTERY_CAGNOTTE",
      "outputs": [
        {
          "name": "",
          "type": "uint256"
        }
      ],
      "payable": false,
      "stateMutability": "view",
      "type": "function"
    },
    {
      "constant": false,
      "inputs": [
        {
          "name": "newOwner",
          "type": "address"
        }
      ],
      "name": "transferOwnership",
      "outputs": [],
      "payable": false,
      "stateMutability": "nonpayable",
      "type": "function"
    },
    {
      "constant": false,
      "inputs": [
        {
          "name": "_nom",
          "type": "string"
        },
        {
          "name": "_pseudo",
          "type": "string"
        }
      ],
      "name": "creerGroupe",
      "outputs": [],
      "payable": true,
      "stateMutability": "payable",
      "type": "function"
    },
    {
      "constant": false,
      "inputs": [
        {
          "name": "_minAmount",
          "type": "uint256"
        }
      ],
      "name": "modifierMinAmount",
      "outputs": [],
      "payable": false,
      "stateMutability": "nonpayable",
      "type": "function"
    },
    {
      "inputs": [],
      "payable": false,
      "stateMutability": "nonpayable",
      "type": "constructor"
    },
    {
      "anonymous": false,
      "inputs": [
        {
          "indexed": true,
          "name": "previousOwner",
          "type": "address"
        },
        {
          "indexed": true,
          "name": "newOwner",
          "type": "address"
        }
      ],
      "name": "OwnershipTransferred",
      "type": "event"
    },
    {
      "anonymous": false,
      "inputs": [
        {
          "indexed": true,
          "name": "owner",
          "type": "address"
        },
        {
          "indexed": false,
          "name": "_montant",
          "type": "uint256"
        }
      ],
      "name": "fundsTransferred",
      "type": "event"
    },
    {
      "anonymous": false,
      "inputs": [
        {
          "indexed": true,
          "name": "from",
          "type": "address"
        },
        {
          "indexed": true,
          "name": "to",
          "type": "address"
        },
        {
          "indexed": false,
          "name": "value",
          "type": "uint256"
        }
      ],
      "name": "Transfer",
      "type": "event"
    },
    {
      "anonymous": false,
      "inputs": [
        {
          "indexed": true,
          "name": "owner",
          "type": "address"
        },
        {
          "indexed": true,
          "name": "spender",
          "type": "address"
        },
        {
          "indexed": false,
          "name": "value",
          "type": "uint256"
        }
      ],
      "name": "Approval",
      "type": "event"
    },
    {
      "constant": false,
      "inputs": [],
      "name": "initierLottery",
      "outputs": [],
      "payable": false,
      "stateMutability": "nonpayable",
      "type": "function"
    },
    {
      "constant": false,
      "inputs": [
        {
          "name": "_prediction",
          "type": "uint256"
        }
      ],
      "name": "play",
      "outputs": [],
      "payable": false,
      "stateMutability": "nonpayable",
      "type": "function"
    },
    {
      "constant": false,
      "inputs": [],
      "name": "endGame",
      "outputs": [],
      "payable": false,
      "stateMutability": "nonpayable",
      "type": "function"
    },
    {
      "constant": false,
      "inputs": [],
      "name": "soldeGame",
      "outputs": [],
      "payable": false,
      "stateMutability": "nonpayable",
      "type": "function"
    },
    {
      "constant": false,
      "inputs": [],
      "name": "withdrawGains",
      "outputs": [],
      "payable": false,
      "stateMutability": "nonpayable",
      "type": "function"
    },
    {
      "constant": true,
      "inputs": [],
      "name": "getPrixLottery",
      "outputs": [
        {
          "name": "",
          "type": "uint256"
        }
      ],
      "payable": false,
      "stateMutability": "view",
      "type": "function"
    },
    {
      "constant": false,
      "inputs": [
        {
          "name": "_price",
          "type": "uint256"
        }
      ],
      "name": "modifierPrixLottery",
      "outputs": [],
      "payable": false,
      "stateMutability": "nonpayable",
      "type": "function"
    },
    {
      "constant": false,
      "inputs": [
        {
          "name": "_maxPlay",
          "type": "uint256"
        }
      ],
      "name": "modifierMaxPlay",
      "outputs": [],
      "payable": false,
      "stateMutability": "nonpayable",
      "type": "function"
    },
    {
      "constant": false,
      "inputs": [
        {
          "name": "_interval",
          "type": "uint256"
        }
      ],
      "name": "modifierBlockInterval",
      "outputs": [],
      "payable": false,
      "stateMutability": "nonpayable",
      "type": "function"
    },
    {
      "constant": true,
      "inputs": [],
      "name": "getSuperCagnotte",
      "outputs": [
        {
          "name": "",
          "type": "uint256"
        }
      ],
      "payable": false,
      "stateMutability": "view",
      "type": "function"
    }
  ],
  "bytecode": "0x60806040523480156200001157600080fd5b5033600360006101000a81548173ffffffffffffffffffffffffffffffffffffffff021916908373ffffffffffffffffffffffffffffffffffffffff160217905550678ac7230489e80000600c8190555062989680600d819055506064600e81905550620186a0600f819055506127106010819055506103e86011819055506305f5e100601981905550620f4240601781905550600280811115620000b257fe5b601b60009054906101000a900460ff166002811115620000ce57fe5b5050600a601a81905550614be380620000e86000396000f3fe60806040526004361061029e576000357c0100000000000000000000000000000000000000000000000000000000900463ffffffff16806306fdde03146102a357806307d54aeb14610333578063095ea7b31461036e57806317503266146103e157806318160ddd1461041c5780631e0afe57146104475780631e63f293146104b35780632055bd08146104de57806323b872dd1461061f57806324c8254b146106b2578063283a2b46146106dd57806329c77347146108595780632e2ee9d714610976578063313ce567146109b1578063370c29f9146109e85780633950935114610a235780633c431d6a14610a965780634152299714610ac157806345de2ca014610b75578063462710c514610cb6578063483f021914610cf15780634a3f4a5d14610d085780634b7b03cf14610d335780634dc8872914610de75780635126670614610eaf5780635743026414610eea5780635f09355314610fc6578063639f8499146110015780636898f82b146110bc5780636bb7f7d6146110f75780636cbc2ded146111225780636e5e19e01461113957806370a08231146111505780637aede272146111b557806383e4cccf146112f657806389760011146113315780638da5cb5b146113485780638f3333411461139f57806395d89b41146115115780639d05e9ab146115a1578063a18b7c111461167d578063a457c2d7146116a8578063a9059cbb1461171b578063b6e91ae41461178e578063beaf3b0d146117b9578063d335c043146117f4578063d40dc8701461181f578063d74b10a51461184a578063dd62ed3e14611926578063ddbcb5fa146119ab578063e09c8136146119d6578063e7637a7d14611a42578063e7b04b7214611b4a578063f2fde38b14611b75578063f4343df414611bc6578063f483977214611d18575b600080fd5b3480156102af57600080fd5b506102b8611d53565b6040518080602001828103825283818151815260200191508051906020019080838360005b838110156102f85780820151818401526020810190506102dd565b50505050905090810190601f1680156103255780820380516001836020036101000a031916815260200191505b509250505060405180910390f35b34801561033f57600080fd5b5061036c6004803603602081101561035657600080fd5b8101908080359060200190929190505050611d8c565b005b34801561037a57600080fd5b506103c76004803603604081101561039157600080fd5b81019080803573ffffffffffffffffffffffffffffffffffffffff16906020019092919080359060200190929190505050611df2565b604051808215151515815260200191505060405180910390f35b3480156103ed57600080fd5b5061041a6004803603602081101561040457600080fd5b8101908080359060200190929190505050611e09565b005b34801561042857600080fd5b50610431611e6f565b6040518082815260200191505060405180910390f35b34801561045357600080fd5b5061045c611e79565b6040518080602001828103825283818151815260200191508051906020019060200280838360005b8381101561049f578082015181840152602081019050610484565b505050509050019250505060405180910390f35b3480156104bf57600080fd5b506104c8611f0e565b6040518082815260200191505060405180910390f35b3480156104ea57600080fd5b506105a46004803603602081101561050157600080fd5b810190808035906020019064010000000081111561051e57600080fd5b82018360208201111561053057600080fd5b8035906020019184600183028401116401000000008311171561055257600080fd5b91908080601f016020809104026020016040519081016040528093929190818152602001838380828437600081840152601f19601f820116905080830192505050505050509192919290505050611f18565b6040518080602001828103825283818151815260200191508051906020019080838360005b838110156105e45780820151818401526020810190506105c9565b50505050905090810190601f1680156106115780820380516001836020036101000a031916815260200191505b509250505060405180910390f35b34801561062b57600080fd5b506106986004803603606081101561064257600080fd5b81019080803573ffffffffffffffffffffffffffffffffffffffff169060200190929190803573ffffffffffffffffffffffffffffffffffffffff16906020019092919080359060200190929190505050612031565b604051808215151515815260200191505060405180910390f35b3480156106be57600080fd5b506106c76120e2565b6040518082815260200191505060405180910390f35b610857600480360360808110156106f357600080fd5b81019080803590602001909291908035906020019064010000000081111561071a57600080fd5b82018360208201111561072c57600080fd5b8035906020019184600183028401116401000000008311171561074e57600080fd5b91908080601f016020809104026020016040519081016040528093929190818152602001838380828437600081840152601f19601f820116905080830192505050505050509192919290803573ffffffffffffffffffffffffffffffffffffffff169060200190929190803590602001906401000000008111156107d157600080fd5b8201836020820111156107e357600080fd5b8035906020019184600183028401116401000000008311171561080557600080fd5b91908080601f016020809104026020016040519081016040528093929190818152602001838380828437600081840152601f19601f8201169050808301925050505050505091929192905050506120e8565b005b34801561086557600080fd5b5061091f6004803603602081101561087c57600080fd5b810190808035906020019064010000000081111561089957600080fd5b8201836020820111156108ab57600080fd5b803590602001918460018302840111640100000000831117156108cd57600080fd5b91908080601f016020809104026020016040519081016040528093929190818152602001838380828437600081840152601f19601f82011690508083019250505050505050919291929050505061225f565b6040518080602001828103825283818151815260200191508051906020019060200280838360005b83811015610962578082015181840152602081019050610947565b505050509050019250505060405180910390f35b34801561098257600080fd5b506109af6004803603602081101561099957600080fd5b8101908080359060200190929190505050612322565b005b3480156109bd57600080fd5b506109c6612388565b604051808263ffffffff1663ffffffff16815260200191505060405180910390f35b3480156109f457600080fd5b50610a2160048036036020811015610a0b57600080fd5b810190808035906020019092919050505061238d565b005b348015610a2f57600080fd5b50610a7c60048036036040811015610a4657600080fd5b81019080803573ffffffffffffffffffffffffffffffffffffffff169060200190929190803590602001909291905050506123f3565b604051808215151515815260200191505060405180910390f35b348015610aa257600080fd5b50610aab612498565b6040518082815260200191505060405180910390f35b348015610acd57600080fd5b50610afa60048036036020811015610ae457600080fd5b810190808035906020019092919050505061249e565b6040518080602001828103825283818151815260200191508051906020019080838360005b83811015610b3a578082015181840152602081019050610b1f565b50505050905090810190601f168015610b675780820380516001836020036101000a031916815260200191505b509250505060405180910390f35b348015610b8157600080fd5b50610c3b60048036036020811015610b9857600080fd5b8101908080359060200190640100000000811115610bb557600080fd5b820183602082011115610bc757600080fd5b80359060200191846001830284011164010000000083111715610be957600080fd5b91908080601f016020809104026020016040519081016040528093929190818152602001838380828437600081840152601f19601f820116905080830192505050505050509192919290505050612553565b6040518080602001828103825283818151815260200191508051906020019080838360005b83811015610c7b578082015181840152602081019050610c60565b50505050905090810190601f168015610ca85780820380516001836020036101000a031916815260200191505b509250505060405180910390f35b348015610cc257600080fd5b50610cef60048036036020811015610cd957600080fd5b8101908080359060200190929190505050612676565b005b348015610cfd57600080fd5b50610d066126dc565b005b348015610d1457600080fd5b50610d1d6127af565b6040518082815260200191505060405180910390f35b348015610d3f57600080fd5b50610d6c60048036036020811015610d5657600080fd5b81019080803590602001909291905050506127b5565b6040518080602001828103825283818151815260200191508051906020019080838360005b83811015610dac578082015181840152602081019050610d91565b50505050905090810190601f168015610dd95780820380516001836020036101000a031916815260200191505b509250505060405180910390f35b348015610df357600080fd5b50610ead60048036036020811015610e0a57600080fd5b8101908080359060200190640100000000811115610e2757600080fd5b820183602082011115610e3957600080fd5b80359060200191846001830284011164010000000083111715610e5b57600080fd5b91908080601f016020809104026020016040519081016040528093929190818152602001838380828437600081840152601f19601f82011690508083019250505050505050919291929050505061286d565b005b348015610ebb57600080fd5b50610ee860048036036020811015610ed257600080fd5b8101908080359060200190929190505050612a3d565b005b348015610ef657600080fd5b50610fb060048036036020811015610f0d57600080fd5b8101908080359060200190640100000000811115610f2a57600080fd5b820183602082011115610f3c57600080fd5b80359060200191846001830284011164010000000083111715610f5e57600080fd5b91908080601f016020809104026020016040519081016040528093929190818152602001838380828437600081840152601f19601f820116905080830192505050505050509192919290505050612aa3565b6040518082815260200191505060405180910390f35b348015610fd257600080fd5b50610fff60048036036020811015610fe957600080fd5b8101908080359060200190929190505050612b2e565b005b6110ba6004803603602081101561101757600080fd5b810190808035906020019064010000000081111561103457600080fd5b82018360208201111561104657600080fd5b8035906020019184600183028401116401000000008311171561106857600080fd5b91908080601f016020809104026020016040519081016040528093929190818152602001838380828437600081840152601f19601f820116905080830192505050505050509192919290505050612b94565b005b3480156110c857600080fd5b506110f5600480360360208110156110df57600080fd5b8101908080359060200190929190505050612c73565b005b34801561110357600080fd5b5061110c612dd7565b6040518082815260200191505060405180910390f35b34801561112e57600080fd5b50611137612ddd565b005b34801561114557600080fd5b5061114e6131e1565b005b34801561115c57600080fd5b5061119f6004803603602081101561117357600080fd5b81019080803573ffffffffffffffffffffffffffffffffffffffff1690602001909291905050506132af565b6040518082815260200191505060405180910390f35b3480156111c157600080fd5b5061127b600480360360208110156111d857600080fd5b81019080803590602001906401000000008111156111f557600080fd5b82018360208201111561120757600080fd5b8035906020019184600183028401116401000000008311171561122957600080fd5b91908080601f016020809104026020016040519081016040528093929190818152602001838380828437600081840152601f19601f8201169050808301925050505050505091929192905050506132f7565b6040518080602001828103825283818151815260200191508051906020019080838360005b838110156112bb5780820151818401526020810190506112a0565b50505050905090810190601f1680156112e85780820380516001836020036101000a031916815260200191505b509250505060405180910390f35b34801561130257600080fd5b5061132f6004803603602081101561131957600080fd5b810190808035906020019092919050505061341a565b005b34801561133d57600080fd5b50611346613530565b005b34801561135457600080fd5b5061135d613708565b604051808273ffffffffffffffffffffffffffffffffffffffff1673ffffffffffffffffffffffffffffffffffffffff16815260200191505060405180910390f35b61150f600480360360608110156113b557600080fd5b81019080803573ffffffffffffffffffffffffffffffffffffffff169060200190929190803590602001906401000000008111156113f257600080fd5b82018360208201111561140457600080fd5b8035906020019184600183028401116401000000008311171561142657600080fd5b91908080601f016020809104026020016040519081016040528093929190818152602001838380828437600081840152601f19601f8201169050808301925050505050505091929192908035906020019064010000000081111561148957600080fd5b82018360208201111561149b57600080fd5b803590602001918460018302840111640100000000831117156114bd57600080fd5b91908080601f016020809104026020016040519081016040528093929190818152602001838380828437600081840152601f19601f82011690508083019250505050505050919291929050505061372e565b005b34801561151d57600080fd5b50611526613965565b6040518080602001828103825283818151815260200191508051906020019080838360005b8381101561156657808201518184015260208101905061154b565b50505050905090810190601f1680156115935780820380516001836020036101000a031916815260200191505b509250505060405180910390f35b3480156115ad57600080fd5b50611667600480360360208110156115c457600080fd5b81019080803590602001906401000000008111156115e157600080fd5b8201836020820111156115f357600080fd5b8035906020019184600183028401116401000000008311171561161557600080fd5b91908080601f016020809104026020016040519081016040528093929190818152602001838380828437600081840152601f19601f82011690508083019250505050505050919291929050505061399e565b6040518082815260200191505060405180910390f35b34801561168957600080fd5b50611692613a29565b6040518082815260200191505060405180910390f35b3480156116b457600080fd5b50611701600480360360408110156116cb57600080fd5b81019080803573ffffffffffffffffffffffffffffffffffffffff16906020019092919080359060200190929190505050613a2f565b604051808215151515815260200191505060405180910390f35b34801561172757600080fd5b506117746004803603604081101561173e57600080fd5b81019080803573ffffffffffffffffffffffffffffffffffffffff16906020019092919080359060200190929190505050613ad4565b604051808215151515815260200191505060405180910390f35b34801561179a57600080fd5b506117a3613aeb565b6040518082815260200191505060405180910390f35b3480156117c557600080fd5b506117f2600480360360208110156117dc57600080fd5b8101908080359060200190929190505050613af5565b005b34801561180057600080fd5b50611809613b5b565b6040518082815260200191505060405180910390f35b34801561182b57600080fd5b50611834613b61565b6040518082815260200191505060405180910390f35b34801561185657600080fd5b506119106004803603602081101561186d57600080fd5b810190808035906020019064010000000081111561188a57600080fd5b82018360208201111561189c57600080fd5b803590602001918460018302840111640100000000831117156118be57600080fd5b91908080601f016020809104026020016040519081016040528093929190818152602001838380828437600081840152601f19601f820116905080830192505050505050509192919290505050613b67565b6040518082815260200191505060405180910390f35b34801561193257600080fd5b506119956004803603604081101561194957600080fd5b81019080803573ffffffffffffffffffffffffffffffffffffffff169060200190929190803573ffffffffffffffffffffffffffffffffffffffff169060200190929190505050613bf2565b6040518082815260200191505060405180910390f35b3480156119b757600080fd5b506119c0613c79565b6040518082815260200191505060405180910390f35b3480156119e257600080fd5b506119eb613c7f565b6040518080602001828103825283818151815260200191508051906020019060200280838360005b83811015611a2e578082015181840152602081019050611a13565b505050509050019250505060405180910390f35b348015611a4e57600080fd5b50611b0860048036036020811015611a6557600080fd5b8101908080359060200190640100000000811115611a8257600080fd5b820183602082011115611a9457600080fd5b80359060200191846001830284011164010000000083111715611ab657600080fd5b91908080601f016020809104026020016040519081016040528093929190818152602001838380828437600081840152601f19601f820116905080830192505050505050509192919290505050613d14565b604051808273ffffffffffffffffffffffffffffffffffffffff1673ffffffffffffffffffffffffffffffffffffffff16815260200191505060405180910390f35b348015611b5657600080fd5b50611b5f613dbf565b6040518082815260200191505060405180910390f35b348015611b8157600080fd5b50611bc460048036036020811015611b9857600080fd5b81019080803573ffffffffffffffffffffffffffffffffffffffff169060200190929190505050613dc5565b005b611d1660048036036040811015611bdc57600080fd5b8101908080359060200190640100000000811115611bf957600080fd5b820183602082011115611c0b57600080fd5b80359060200191846001830284011164010000000083111715611c2d57600080fd5b91908080601f016020809104026020016040519081016040528093929190818152602001838380828437600081840152601f19601f82011690508083019250505050505050919291929080359060200190640100000000811115611c9057600080fd5b820183602082011115611ca257600080fd5b80359060200191846001830284011164010000000083111715611cc457600080fd5b91908080601f016020809104026020016040519081016040528093929190818152602001838380828437600081840152601f19601f820116905080830192505050505050509192919290505050613f1d565b005b348015611d2457600080fd5b50611d5160048036036020811015611d3b57600080fd5b8101908080359060200190929190505050614226565b005b6040805190810160405280600981526020017f636f696e756e696f6e000000000000000000000000000000000000000000000081525081565b600360009054906101000a900473ffffffffffffffffffffffffffffffffffffffff1673ffffffffffffffffffffffffffffffffffffffff163373ffffffffffffffffffffffffffffffffffffffff16141515611de857600080fd5b8060198190555050565b6000611dff33848461428c565b6001905092915050565b600360009054906101000a900473ffffffffffffffffffffffffffffffffffffffff1673ffffffffffffffffffffffffffffffffffffffff163373ffffffffffffffffffffffffffffffffffffffff16141515611e6557600080fd5b80600f8190555050565b6000600254905090565b6060600560003373ffffffffffffffffffffffffffffffffffffffff1673ffffffffffffffffffffffffffffffffffffffff168152602001908152602001600020805480602002602001604051908101604052809291908181526020018280548015611f0457602002820191906000526020600020905b815481526020019060010190808311611ef0575b5050505050905090565b6000601254905090565b60606000828051906020012060019004905060046000600b600084815260200190815260200160002060003373ffffffffffffffffffffffffffffffffffffffff1673ffffffffffffffffffffffffffffffffffffffff1681526020019081526020016000205481526020019081526020016000206001018054600181600116156101000203166002900480601f0160208091040260200160405190810160405280929190818152602001828054600181600116156101000203166002900480156120245780601f10611ff957610100808354040283529160200191612024565b820191906000526020600020905b81548152906001019060200180831161200757829003601f168201915b5050505050915050919050565b600061203e8484846143ef565b6120d784336120d285600160008a73ffffffffffffffffffffffffffffffffffffffff1673ffffffffffffffffffffffffffffffffffffffff16815260200190815260200160002060003373ffffffffffffffffffffffffffffffffffffffff1673ffffffffffffffffffffffffffffffffffffffff168152602001908152602001600020546145bb90919063ffffffff16565b61428c565b600190509392505050565b60195481565b601154341415156120f857600080fd5b600d548411151561210857600080fd5b600c548410151561211857600080fd5b600083805190602001206001900490503373ffffffffffffffffffffffffffffffffffffffff166004600083815260200190815260200160002060000160009054906101000a900473ffffffffffffffffffffffffffffffffffffffff1673ffffffffffffffffffffffffffffffffffffffff1614151561219857600080fd5b600060046000838152602001908152602001600020600301541415156121bd57600080fd5b846004600083815260200190815260200160002060030181905550826004600083815260200190815260200160002060060160006101000a81548173ffffffffffffffffffffffffffffffffffffffff021916908373ffffffffffffffffffffffffffffffffffffffff16021790555081600460008381526020019081526020016000206007019080519060200190612257929190614b12565b505050505050565b60606006826040518082805190602001908083835b6020831015156122995780518252602082019150602081019050602083039250612274565b6001836020036101000a038019825116818451168082178552505050505050905001915050908152602001604051809103902080548060200260200160405190810160405280929190818152602001828054801561231657602002820191906000526020600020905b815481526020019060010190808311612302575b50505050509050919050565b600360009054906101000a900473ffffffffffffffffffffffffffffffffffffffff1673ffffffffffffffffffffffffffffffffffffffff163373ffffffffffffffffffffffffffffffffffffffff1614151561237e57600080fd5b8060178190555050565b601281565b600360009054906101000a900473ffffffffffffffffffffffffffffffffffffffff1673ffffffffffffffffffffffffffffffffffffffff163373ffffffffffffffffffffffffffffffffffffffff161415156123e957600080fd5b8060118190555050565b600061248e338461248985600160003373ffffffffffffffffffffffffffffffffffffffff1673ffffffffffffffffffffffffffffffffffffffff16815260200190815260200160002060008973ffffffffffffffffffffffffffffffffffffffff1673ffffffffffffffffffffffffffffffffffffffff168152602001908152602001600020546145d490919063ffffffff16565b61428c565b6001905092915050565b600e5481565b6060600760008381526020019081526020016000208054600181600116156101000203166002900480601f0160208091040260200160405190810160405280929190818152602001828054600181600116156101000203166002900480156125475780601f1061251c57610100808354040283529160200191612547565b820191906000526020600020905b81548152906001019060200180831161252a57829003601f168201915b50505050509050919050565b606060046000600a846040518082805190602001908083835b602083101515612591578051825260208201915060208101905060208303925061256c565b6001836020036101000a03801982511681845116808217855250505050505090500191505090815260200160405180910390205481526020019081526020016000206007018054600181600116156101000203166002900480601f01602080910402602001604051908101604052809291908181526020018280546001816001161561010002031660029004801561266a5780601f1061263f5761010080835404028352916020019161266a565b820191906000526020600020905b81548152906001019060200180831161264d57829003601f168201915b50505050509050919050565b600360009054906101000a900473ffffffffffffffffffffffffffffffffffffffff1673ffffffffffffffffffffffffffffffffffffffff163373ffffffffffffffffffffffffffffffffffffffff161415156126d257600080fd5b80601a8190555050565b6000601460003373ffffffffffffffffffffffffffffffffffffffff1673ffffffffffffffffffffffffffffffffffffffff1681526020019081526020016000205490506000601460003373ffffffffffffffffffffffffffffffffffffffff1673ffffffffffffffffffffffffffffffffffffffff168152602001908152602001600020819055503373ffffffffffffffffffffffffffffffffffffffff166108fc829081150290604051600060405180830381858888f193505050501580156127ab573d6000803e3d6000fd5b5050565b600f5481565b6060600460008381526020019081526020016000206001018054600181600116156101000203166002900480601f0160208091040260200160405190810160405280929190818152602001828054600181600116156101000203166002900480156128615780601f1061283657610100808354040283529160200191612861565b820191906000526020600020905b81548152906001019060200180831161284457829003601f168201915b50505050509050919050565b6000818051906020012060019004905060006004600083815260200190815260200160002060030154141515156128a357600080fd5b3373ffffffffffffffffffffffffffffffffffffffff166004600083815260200190815260200160002060000160009054906101000a900473ffffffffffffffffffffffffffffffffffffffff1673ffffffffffffffffffffffffffffffffffffffff1614151561291357600080fd5b3373ffffffffffffffffffffffffffffffffffffffff166108fc60046000848152602001908152602001600020600401549081150290604051600060405180830381858888f1935050505015801561296f573d6000803e3d6000fd5b50600060046000838152602001908152602001600020600401819055506000600460008381526020019081526020016000206003018190555060006004600083815260200190815260200160002060060160006101000a81548173ffffffffffffffffffffffffffffffffffffffff021916908373ffffffffffffffffffffffffffffffffffffffff1602179055506020604051908101604052806000815250600460008381526020019081526020016000206007019080519060200190612a38929190614b12565b505050565b600360009054906101000a900473ffffffffffffffffffffffffffffffffffffffff1673ffffffffffffffffffffffffffffffffffffffff163373ffffffffffffffffffffffffffffffffffffffff16141515612a9957600080fd5b80600e8190555050565b600060046000600a846040518082805190602001908083835b602083101515612ae15780518252602082019150602081019050602083039250612abc565b6001836020036101000a0380198251168184511680821785525050505050509050019150509081526020016040518091039020548152602001908152602001600020600501549050919050565b600360009054906101000a900473ffffffffffffffffffffffffffffffffffffffff1673ffffffffffffffffffffffffffffffffffffffff163373ffffffffffffffffffffffffffffffffffffffff16141515612b8a57600080fd5b8060108190555050565b600034111515612ba357600080fd5b60008180519060200120600190049050346004600083815260200190815260200160002060040154600460008481526020019081526020016000206003015403111515612bef57600080fd5b6000600e5434811515612bfe57fe5b0490506000349050818103905080600460008581526020019081526020016000206005016000828254019250508190555080600460008581526020019081526020016000206004016000828254019250508190555081601260008282540192505081905550612c6d33836145f2565b50505050565b60006002811115612c8057fe5b601b60009054906101000a900460ff166002811115612c9b57fe5b141515612ca757600080fd5b601a54601360003373ffffffffffffffffffffffffffffffffffffffff1673ffffffffffffffffffffffffffffffffffffffff16815260200190815260200160002080549050101515612cf957600080fd5b612d0533601954614746565b601360003373ffffffffffffffffffffffffffffffffffffffff1673ffffffffffffffffffffffffffffffffffffffff16815260200190815260200160002081908060018154018082558091505090600182039060005260206000200160009091929091909150555060153390806001815401808255809150509060018203906000526020600020016000909192909190916101000a81548173ffffffffffffffffffffffffffffffffffffffff021916908373ffffffffffffffffffffffffffffffffffffffff1602179055505050565b601a5481565b600360009054906101000a900473ffffffffffffffffffffffffffffffffffffffff1673ffffffffffffffffffffffffffffffffffffffff163373ffffffffffffffffffffffffffffffffffffffff16141515612e3957600080fd5b60006002811115612e4657fe5b601b60009054906101000a900460ff166002811115612e6157fe5b141515612e6d57600080fd5b6017546018544303111515612e8157600080fd5b60008090505b6015805490508110156131de5760008090505b60136000601584815481101515612ead57fe5b9060005260206000200160009054906101000a900473ffffffffffffffffffffffffffffffffffffffff1673ffffffffffffffffffffffffffffffffffffffff1673ffffffffffffffffffffffffffffffffffffffff168152602001908152602001600020805490508110156131d05760125460136000601585815481101515612f3357fe5b9060005260206000200160009054906101000a900473ffffffffffffffffffffffffffffffffffffffff1673ffffffffffffffffffffffffffffffffffffffff1673ffffffffffffffffffffffffffffffffffffffff16815260200190815260200160002082815481101515612fa557fe5b906000526020600020015414801561304d5750600060136000601585815481101515612fcd57fe5b9060005260206000200160009054906101000a900473ffffffffffffffffffffffffffffffffffffffff1673ffffffffffffffffffffffffffffffffffffffff1673ffffffffffffffffffffffffffffffffffffffff1681526020019081526020016000208281548110151561303f57fe5b906000526020600020015414155b156131875760006013600060158581548110151561306757fe5b9060005260206000200160009054906101000a900473ffffffffffffffffffffffffffffffffffffffff1673ffffffffffffffffffffffffffffffffffffffff1673ffffffffffffffffffffffffffffffffffffffff168152602001908152602001600020828154811015156130d957fe5b906000526020600020018190555060166015838154811015156130f857fe5b9060005260206000200160009054906101000a900473ffffffffffffffffffffffffffffffffffffffff1690806001815401808255809150509060018203906000526020600020016000909192909190916101000a81548173ffffffffffffffffffffffffffffffffffffffff021916908373ffffffffffffffffffffffffffffffffffffffff160217905550505b60158281548110151561319657fe5b9060005260206000200160006101000a81549073ffffffffffffffffffffffffffffffffffffffff02191690558080600101915050612e9a565b508080600101915050612e87565b50565b600360009054906101000a900473ffffffffffffffffffffffffffffffffffffffff1673ffffffffffffffffffffffffffffffffffffffff163373ffffffffffffffffffffffffffffffffffffffff1614151561323d57600080fd5b60028081111561324957fe5b601b60009054906101000a900460ff16600281111561326457fe5b14151561327057600080fd5b60195460125411151561328257600080fd5b6000601b60006101000a81548160ff021916908360028111156132a157fe5b021790555043601881905550565b60008060008373ffffffffffffffffffffffffffffffffffffffff1673ffffffffffffffffffffffffffffffffffffffff168152602001908152602001600020549050919050565b606060046000600a846040518082805190602001908083835b6020831015156133355780518252602082019150602081019050602083039250613310565b6001836020036101000a03801982511681845116808217855250505050505090500191505090815260200160405180910390205481526020019081526020016000206002018054600181600116156101000203166002900480601f01602080910402602001604051908101604052809291908181526020018280546001816001161561010002031660029004801561340e5780601f106133e35761010080835404028352916020019161340e565b820191906000526020600020905b8154815290600101906020018083116133f157829003601f168201915b50505050509050919050565b600360009054906101000a900473ffffffffffffffffffffffffffffffffffffffff1673ffffffffffffffffffffffffffffffffffffffff163373ffffffffffffffffffffffffffffffffffffffff1614151561347657600080fd5b3373ffffffffffffffffffffffffffffffffffffffff166108fc829081150290604051600060405180830381858888f193505050501580156134bc573d6000803e3d6000fd5b50600360009054906101000a900473ffffffffffffffffffffffffffffffffffffffff1673ffffffffffffffffffffffffffffffffffffffff167f46e42263de2a03e19f181780084dd6deb763df852236860d81f0b435344c792b826040518082815260200191505060405180910390a250565b600360009054906101000a900473ffffffffffffffffffffffffffffffffffffffff1673ffffffffffffffffffffffffffffffffffffffff163373ffffffffffffffffffffffffffffffffffffffff1614151561358c57600080fd5b6001600281111561359957fe5b601b60009054906101000a900460ff1660028111156135b457fe5b1415156135c057600080fd5b600060168054905011156135ef576135e86016805490506012546147ed90919063ffffffff16565b6012819055505b60008090505b6016805490508110156136d95761368f6012546014600060168581548110151561361b57fe5b9060005260206000200160009054906101000a900473ffffffffffffffffffffffffffffffffffffffff1673ffffffffffffffffffffffffffffffffffffffff1673ffffffffffffffffffffffffffffffffffffffff168152602001908152602001600020546145d490919063ffffffff16565b5060168181548110151561369f57fe5b9060005260206000200160006101000a81549073ffffffffffffffffffffffffffffffffffffffff021916905580806001019150506135f5565b5060006012819055506002601b60006101000a81548160ff0219169083600281111561370157fe5b0217905550565b600360009054906101000a900473ffffffffffffffffffffffffffffffffffffffff1681565b3460105414151561373e57600080fd5b60008180519060200120600190049050600073ffffffffffffffffffffffffffffffffffffffff166004600083815260200190815260200160002060000160009054906101000a900473ffffffffffffffffffffffffffffffffffffffff1673ffffffffffffffffffffffffffffffffffffffff161415156137bf57600080fd5b3373ffffffffffffffffffffffffffffffffffffffff166009846040518082805190602001908083835b60208310151561380e57805182526020820191506020810190506020830392506137e9565b6001836020036101000a038019825116818451168082178552505050505050905001915050908152602001604051809103902060009054906101000a900473ffffffffffffffffffffffffffffffffffffffff1673ffffffffffffffffffffffffffffffffffffffff1614151561388457600080fd5b60008380519060200120600190049050600560008673ffffffffffffffffffffffffffffffffffffffff1673ffffffffffffffffffffffffffffffffffffffff168152602001908152602001600020819080600181540180825580915050906001820390600052602060002001600090919290919091505550336004600084815260200190815260200160002060000160006101000a81548173ffffffffffffffffffffffffffffffffffffffff021916908373ffffffffffffffffffffffffffffffffffffffff16021790555061395e83858385614808565b5050505050565b6040805190810160405280600581526020017f554e494f4e00000000000000000000000000000000000000000000000000000081525081565b600060046000600a846040518082805190602001908083835b6020831015156139dc57805182526020820191506020810190506020830392506139b7565b6001836020036101000a0380198251168184511680821785525050505050509050019150509081526020016040518091039020548152602001908152602001600020600401549050919050565b60115481565b6000613aca3384613ac585600160003373ffffffffffffffffffffffffffffffffffffffff1673ffffffffffffffffffffffffffffffffffffffff16815260200190815260200160002060008973ffffffffffffffffffffffffffffffffffffffff1673ffffffffffffffffffffffffffffffffffffffff168152602001908152602001600020546145bb90919063ffffffff16565b61428c565b6001905092915050565b6000613ae13384846143ef565b6001905092915050565b6000601954905090565b600360009054906101000a900473ffffffffffffffffffffffffffffffffffffffff1673ffffffffffffffffffffffffffffffffffffffff163373ffffffffffffffffffffffffffffffffffffffff16141515613b5157600080fd5b80600c8190555050565b60105481565b600c5481565b600060046000600a846040518082805190602001908083835b602083101515613ba55780518252602082019150602081019050602083039250613b80565b6001836020036101000a0380198251168184511680821785525050505050509050019150509081526020016040518091039020548152602001908152602001600020600301549050919050565b6000600160008473ffffffffffffffffffffffffffffffffffffffff1673ffffffffffffffffffffffffffffffffffffffff16815260200190815260200160002060008373ffffffffffffffffffffffffffffffffffffffff1673ffffffffffffffffffffffffffffffffffffffff16815260200190815260200160002054905092915050565b600d5481565b6060600860003373ffffffffffffffffffffffffffffffffffffffff1673ffffffffffffffffffffffffffffffffffffffff168152602001908152602001600020805480602002602001604051908101604052809291908181526020018280548015613d0a57602002820191906000526020600020905b815481526020019060010190808311613cf6575b5050505050905090565b600060046000600a846040518082805190602001908083835b602083101515613d525780518252602082019150602081019050602083039250613d2d565b6001836020036101000a038019825116818451168082178552505050505050905001915050908152602001604051809103902054815260200190815260200160002060060160009054906101000a900473ffffffffffffffffffffffffffffffffffffffff169050919050565b60125481565b600360009054906101000a900473ffffffffffffffffffffffffffffffffffffffff1673ffffffffffffffffffffffffffffffffffffffff163373ffffffffffffffffffffffffffffffffffffffff16141515613e2157600080fd5b600073ffffffffffffffffffffffffffffffffffffffff168173ffffffffffffffffffffffffffffffffffffffff1614151515613e5d57600080fd5b8073ffffffffffffffffffffffffffffffffffffffff16600360009054906101000a900473ffffffffffffffffffffffffffffffffffffffff1673ffffffffffffffffffffffffffffffffffffffff167f8be0079c531659141344cd1fd0a4f28419497f9722a3daafe3b4186f6b6457e060405160405180910390a380600360006101000a81548173ffffffffffffffffffffffffffffffffffffffff021916908373ffffffffffffffffffffffffffffffffffffffff16021790555050565b34600f54141515613f2d57600080fd5b60008280519060200120600190049050600073ffffffffffffffffffffffffffffffffffffffff166009846040518082805190602001908083835b602083101515613f8d5780518252602082019150602081019050602083039250613f68565b6001836020036101000a038019825116818451168082178552505050505050905001915050908152602001604051809103902060009054906101000a900473ffffffffffffffffffffffffffffffffffffffff1673ffffffffffffffffffffffffffffffffffffffff1614151561400357600080fd5b60008280519060200120600190049050600073ffffffffffffffffffffffffffffffffffffffff166004600083815260200190815260200160002060000160009054906101000a900473ffffffffffffffffffffffffffffffffffffffff1673ffffffffffffffffffffffffffffffffffffffff1614151561408457600080fd5b336004600083815260200190815260200160002060000160006101000a81548173ffffffffffffffffffffffffffffffffffffffff021916908373ffffffffffffffffffffffffffffffffffffffff16021790555083600760008481526020019081526020016000209080519060200190614100929190614b12565b50336009856040518082805190602001908083835b60208310151561413a5780518252602082019150602081019050602083039250614115565b6001836020036101000a038019825116818451168082178552505050505050905001915050908152602001604051809103902060006101000a81548173ffffffffffffffffffffffffffffffffffffffff021916908373ffffffffffffffffffffffffffffffffffffffff160217905550600860003373ffffffffffffffffffffffffffffffffffffffff1673ffffffffffffffffffffffffffffffffffffffff16815260200190815260200160002082908060018154018082558091505090600182039060005260206000200160009091929091909150555061422083858484614808565b50505050565b600360009054906101000a900473ffffffffffffffffffffffffffffffffffffffff1673ffffffffffffffffffffffffffffffffffffffff163373ffffffffffffffffffffffffffffffffffffffff1614151561428257600080fd5b80600d8190555050565b600073ffffffffffffffffffffffffffffffffffffffff168273ffffffffffffffffffffffffffffffffffffffff16141515156142c857600080fd5b600073ffffffffffffffffffffffffffffffffffffffff168373ffffffffffffffffffffffffffffffffffffffff161415151561430457600080fd5b80600160008573ffffffffffffffffffffffffffffffffffffffff1673ffffffffffffffffffffffffffffffffffffffff16815260200190815260200160002060008473ffffffffffffffffffffffffffffffffffffffff1673ffffffffffffffffffffffffffffffffffffffff168152602001908152602001600020819055508173ffffffffffffffffffffffffffffffffffffffff168373ffffffffffffffffffffffffffffffffffffffff167f8c5be1e5ebec7d5bd14f71427d1e84f3dd0314c0f7b2291e5b200ac8c7c3b925836040518082815260200191505060405180910390a3505050565b600073ffffffffffffffffffffffffffffffffffffffff168273ffffffffffffffffffffffffffffffffffffffff161415151561442b57600080fd5b61447c816000808673ffffffffffffffffffffffffffffffffffffffff1673ffffffffffffffffffffffffffffffffffffffff168152602001908152602001600020546145bb90919063ffffffff16565b6000808573ffffffffffffffffffffffffffffffffffffffff1673ffffffffffffffffffffffffffffffffffffffff1681526020019081526020016000208190555061450f816000808573ffffffffffffffffffffffffffffffffffffffff1673ffffffffffffffffffffffffffffffffffffffff168152602001908152602001600020546145d490919063ffffffff16565b6000808473ffffffffffffffffffffffffffffffffffffffff1673ffffffffffffffffffffffffffffffffffffffff168152602001908152602001600020819055508173ffffffffffffffffffffffffffffffffffffffff168373ffffffffffffffffffffffffffffffffffffffff167fddf252ad1be2c89b69c2b068fc378daa952ba7f163c4a11628f55a4df523b3ef836040518082815260200191505060405180910390a3505050565b60008282111515156145c957fe5b818303905092915050565b60008082840190508381101515156145e857fe5b8091505092915050565b600073ffffffffffffffffffffffffffffffffffffffff168273ffffffffffffffffffffffffffffffffffffffff161415151561462e57600080fd5b614643816002546145d490919063ffffffff16565b60028190555061469a816000808573ffffffffffffffffffffffffffffffffffffffff1673ffffffffffffffffffffffffffffffffffffffff168152602001908152602001600020546145d490919063ffffffff16565b6000808473ffffffffffffffffffffffffffffffffffffffff1673ffffffffffffffffffffffffffffffffffffffff168152602001908152602001600020819055508173ffffffffffffffffffffffffffffffffffffffff16600073ffffffffffffffffffffffffffffffffffffffff167fddf252ad1be2c89b69c2b068fc378daa952ba7f163c4a11628f55a4df523b3ef836040518082815260200191505060405180910390a35050565b61475082826149be565b6147e982336147e484600160008873ffffffffffffffffffffffffffffffffffffffff1673ffffffffffffffffffffffffffffffffffffffff16815260200190815260200160002060003373ffffffffffffffffffffffffffffffffffffffff1673ffffffffffffffffffffffffffffffffffffffff168152602001908152602001600020546145bb90919063ffffffff16565b61428c565b5050565b60008082848115156147fb57fe5b0490508091505092915050565b83600460008381526020019081526020016000206001019080519060200190614832929190614b12565b508260046000838152602001908152602001600020600201908051906020019061485d929190614b12565b506006836040518082805190602001908083835b6020831015156148965780518252602082019150602081019050602083039250614871565b6001836020036101000a038019825116818451168082178552505050505050905001915050908152602001604051809103902081908060018154018082558091505090600182039060005260206000200160009091929091909150555080600a856040518082805190602001908083835b60208310151561492c5780518252602082019150602081019050602083039250614907565b6001836020036101000a03801982511681845116808217855250505050505090500191505090815260200160405180910390208190555080600b600084815260200190815260200160002060003373ffffffffffffffffffffffffffffffffffffffff1673ffffffffffffffffffffffffffffffffffffffff1681526020019081526020016000208190555050505050565b600073ffffffffffffffffffffffffffffffffffffffff168273ffffffffffffffffffffffffffffffffffffffff16141515156149fa57600080fd5b614a0f816002546145bb90919063ffffffff16565b600281905550614a66816000808573ffffffffffffffffffffffffffffffffffffffff1673ffffffffffffffffffffffffffffffffffffffff168152602001908152602001600020546145bb90919063ffffffff16565b6000808473ffffffffffffffffffffffffffffffffffffffff1673ffffffffffffffffffffffffffffffffffffffff16815260200190815260200160002081905550600073ffffffffffffffffffffffffffffffffffffffff168273ffffffffffffffffffffffffffffffffffffffff167fddf252ad1be2c89b69c2b068fc378daa952ba7f163c4a11628f55a4df523b3ef836040518082815260200191505060405180910390a35050565b828054600181600116156101000203166002900490600052602060002090601f016020900481019282601f10614b5357805160ff1916838001178555614b81565b82800160010185558215614b81579182015b82811115614b80578251825591602001919060010190614b65565b5b509050614b8e9190614b92565b5090565b614bb491905b80821115614bb0576000816000905550600101614b98565b5090565b9056fea165627a7a7230582055a30f66cbc8df005b82d54299646f20ed77bd307dd647bdc6e7cf508491a6620029",
  "source": "pragma solidity ^0.5.0;\n\nimport \"./Cagnottes.sol\";\n\ncontract Lottery is Cagnottes{\n\nmapping (address => uint[]) private prediction ;\nmapping (address => uint) private gains ;\n\nenum LotteryState { Started, Finished, Pending }\n\naddress[] private players;\naddress[] private winners;\n\nuint private blockInterval;\nuint private blockStart;\n\nuint public PRICE_LOTTERY_TOKEN;\nuint public MAX_PLAY;\n\nLotteryState state;\n\nconstructor() public\n{\n  PRICE_LOTTERY_TOKEN = 100000000;\n  blockInterval = 1000000;\n  state == LotteryState.Pending;\n  MAX_PLAY = 10;\n}\n\nfunction initierLottery() public onlyOwner\n{\n  require(state == LotteryState.Pending);\n  require(LOTTERY_CAGNOTTE > PRICE_LOTTERY_TOKEN);\n  state = LotteryState.Started;\n  blockStart = block.number;\n}\n\nfunction play(uint _prediction) public\n{\n  require(state == LotteryState.Started);\n  require(prediction[msg.sender].length < MAX_PLAY);\n  _burnFrom(msg.sender,PRICE_LOTTERY_TOKEN);\n  prediction[msg.sender].push(_prediction);\n  players.push(msg.sender);\n}\n\nfunction endGame() public onlyOwner\n{\n  require(state == LotteryState.Started);\n  require(block.number - blockStart > blockInterval);\n  for (uint i=0; i< players.length; i++)\n  {\n    for (uint j=0; j< prediction[players[i]].length; j++)\n    {\n      if (prediction[players[i]][j] == LOTTERY_CAGNOTTE && prediction[players[i]][j] != 0)\n      {\n        prediction[players[i]][j] = 0;\n        winners.push(players[i]);\n      }\n      delete players[i];\n    }\n  }\n}\n\nfunction soldeGame() public onlyOwner\n{\n  require(state == LotteryState.Finished);\n  if (winners.length>0)\n  LOTTERY_CAGNOTTE = uint(LOTTERY_CAGNOTTE.div(winners.length));\n  {\n    for (uint i=0; i< winners.length; i++)\n    {\n      gains[winners[i]].add(LOTTERY_CAGNOTTE);\n      delete winners[i];\n    }\n  LOTTERY_CAGNOTTE = 0;\n  }\n  state = LotteryState.Pending;\n}\n\nfunction withdrawGains() public\n{\n  uint MyGains = gains[msg.sender];\n  gains[msg.sender] = 0;\n  msg.sender.transfer(MyGains);\n}\n\nfunction getPrixLottery() public view returns (uint)\n{\n  return PRICE_LOTTERY_TOKEN;\n}\n\nfunction modifierPrixLottery(uint _price) public onlyOwner\n{\n  PRICE_LOTTERY_TOKEN = _price;\n}\n\nfunction modifierMaxPlay(uint _maxPlay) public onlyOwner\n{\n  MAX_PLAY = _maxPlay;\n}\n\nfunction modifierBlockInterval(uint _interval) public onlyOwner\n{\n  blockInterval = _interval;\n}\n\nfunction getSuperCagnotte() public view returns (uint)\n{\n  return LOTTERY_CAGNOTTE;\n}\n\n}\n",
  "sourcePath": "/Users/germaindacunha/Desktop/Alyra/project/Ether-Union/contracts/Lottery.sol",
  "compiler": {
    "name": "solc",
    "version": "0.5.0+commit.1d4f565a.Emscripten.clang"
  },
  "schemaVersion": "3.0.2",
  "updatedAt": "2019-04-03T14:37:27.341Z",
  "devdoc": {
    "methods": {
      "allowance(address,address)": {
        "details": "Function to check the amount of tokens that an owner allowed to a spender.",
        "params": {
          "owner": "address The address which owns the funds.",
          "spender": "address The address which will spend the funds."
        },
        "return": "A uint256 specifying the amount of tokens still available for the spender."
      },
      "approve(address,uint256)": {
        "details": "Approve the passed address to spend the specified amount of tokens on behalf of msg.sender. Beware that changing an allowance with this method brings the risk that someone may use both the old and the new allowance by unfortunate transaction ordering. One possible solution to mitigate this race condition is to first reduce the spender's allowance to 0 and set the desired value afterwards: https://github.com/ethereum/EIPs/issues/20#issuecomment-263524729",
        "params": {
          "spender": "The address which will spend the funds.",
          "value": "The amount of tokens to be spent."
        }
      },
      "balanceOf(address)": {
        "details": "Gets the balance of the specified address.",
        "params": {
          "owner": "The address to query the balance of."
        },
        "return": "A uint256 representing the amount owned by the passed address."
      },
      "decreaseAllowance(address,uint256)": {
        "details": "Decrease the amount of tokens that an owner allowed to a spender. approve should be called when _allowed[msg.sender][spender] == 0. To decrement allowed value is better to use this function to avoid 2 calls (and wait until the first transaction is mined) From MonolithDAO Token.sol Emits an Approval event.",
        "params": {
          "spender": "The address which will spend the funds.",
          "subtractedValue": "The amount of tokens to decrease the allowance by."
        }
      },
      "increaseAllowance(address,uint256)": {
        "details": "Increase the amount of tokens that an owner allowed to a spender. approve should be called when _allowed[msg.sender][spender] == 0. To increment allowed value is better to use this function to avoid 2 calls (and wait until the first transaction is mined) From MonolithDAO Token.sol Emits an Approval event.",
        "params": {
          "addedValue": "The amount of tokens to increase the allowance by.",
          "spender": "The address which will spend the funds."
        }
      },
      "totalSupply()": {
        "details": "Total number of tokens in existence"
      },
      "transfer(address,uint256)": {
        "details": "Transfer token to a specified address",
        "params": {
          "to": "The address to transfer to.",
          "value": "The amount to be transferred."
        }
      },
      "transferFrom(address,address,uint256)": {
        "details": "Transfer tokens from one address to another. Note that while this function emits an Approval event, this is not required as per the specification, and other compliant implementations may not emit the event.",
        "params": {
          "from": "address The address which you want to send tokens from",
          "to": "address The address which you want to transfer to",
          "value": "uint256 the amount of tokens to be transferred"
        }
      },
      "transferOwnership(address)": {
        "details": "Allows the current owner to transfer control of the contract to a newOwner.",
        "params": {
          "newOwner": "The address to transfer ownership to."
        }
      }
    }
  },
  "userdoc": {
    "methods": {}
  }
}