{
  "contractName": "Cagnottes",
  "abi": [
    {
      "constant": true,
      "inputs": [],
      "name": "name",
      "outputs": [
        {
          "name": "",
          "type": "string"
        }
      ],
      "payable": false,
      "stateMutability": "view",
      "type": "function"
    },
    {
      "constant": true,
      "inputs": [],
      "name": "TOKEN_BONUS",
      "outputs": [
        {
          "name": "",
          "type": "uint256"
        }
      ],
      "payable": false,
      "stateMutability": "view",
      "type": "function"
    },
    {
      "constant": false,
      "inputs": [
        {
          "name": "spender",
          "type": "address"
        },
        {
          "name": "value",
          "type": "uint256"
        }
      ],
      "name": "approve",
      "outputs": [
        {
          "name": "",
          "type": "bool"
        }
      ],
      "payable": false,
      "stateMutability": "nonpayable",
      "type": "function"
    },
    {
      "constant": true,
      "inputs": [],
      "name": "totalSupply",
      "outputs": [
        {
          "name": "",
          "type": "uint256"
        }
      ],
      "payable": false,
      "stateMutability": "view",
      "type": "function"
    },
    {
      "constant": false,
      "inputs": [
        {
          "name": "from",
          "type": "address"
        },
        {
          "name": "to",
          "type": "address"
        },
        {
          "name": "value",
          "type": "uint256"
        }
      ],
      "name": "transferFrom",
      "outputs": [
        {
          "name": "",
          "type": "bool"
        }
      ],
      "payable": false,
      "stateMutability": "nonpayable",
      "type": "function"
    },
    {
      "constant": true,
      "inputs": [],
      "name": "decimals",
      "outputs": [
        {
          "name": "",
          "type": "uint32"
        }
      ],
      "payable": false,
      "stateMutability": "view",
      "type": "function"
    },
    {
      "constant": false,
      "inputs": [
        {
          "name": "spender",
          "type": "address"
        },
        {
          "name": "addedValue",
          "type": "uint256"
        }
      ],
      "name": "increaseAllowance",
      "outputs": [
        {
          "name": "",
          "type": "bool"
        }
      ],
      "payable": false,
      "stateMutability": "nonpayable",
      "type": "function"
    },
    {
      "constant": true,
      "inputs": [],
      "name": "LAPS_TIME_TOKEN_WITHDRAW",
      "outputs": [
        {
          "name": "",
          "type": "uint256"
        }
      ],
      "payable": false,
      "stateMutability": "view",
      "type": "function"
    },
    {
      "constant": true,
      "inputs": [],
      "name": "PRICE_RATIO",
      "outputs": [
        {
          "name": "",
          "type": "uint256"
        }
      ],
      "payable": false,
      "stateMutability": "view",
      "type": "function"
    },
    {
      "constant": true,
      "inputs": [],
      "name": "PRICE_GROUP",
      "outputs": [
        {
          "name": "",
          "type": "uint256"
        }
      ],
      "payable": false,
      "stateMutability": "view",
      "type": "function"
    },
    {
      "constant": true,
      "inputs": [],
      "name": "TIME_TOKEN_WITHDRAW",
      "outputs": [
        {
          "name": "",
          "type": "uint256"
        }
      ],
      "payable": false,
      "stateMutability": "view",
      "type": "function"
    },
    {
      "constant": true,
      "inputs": [
        {
          "name": "owner",
          "type": "address"
        }
      ],
      "name": "balanceOf",
      "outputs": [
        {
          "name": "",
          "type": "uint256"
        }
      ],
      "payable": false,
      "stateMutability": "view",
      "type": "function"
    },
    {
      "constant": true,
      "inputs": [],
      "name": "owner",
      "outputs": [
        {
          "name": "",
          "type": "address"
        }
      ],
      "payable": false,
      "stateMutability": "view",
      "type": "function"
    },
    {
      "constant": true,
      "inputs": [],
      "name": "DESERVERVE_BONUS",
      "outputs": [
        {
          "name": "",
          "type": "uint256"
        }
      ],
      "payable": false,
      "stateMutability": "view",
      "type": "function"
    },
    {
      "constant": true,
      "inputs": [],
      "name": "symbol",
      "outputs": [
        {
          "name": "",
          "type": "string"
        }
      ],
      "payable": false,
      "stateMutability": "view",
      "type": "function"
    },
    {
      "constant": false,
      "inputs": [
        {
          "name": "spender",
          "type": "address"
        },
        {
          "name": "subtractedValue",
          "type": "uint256"
        }
      ],
      "name": "decreaseAllowance",
      "outputs": [
        {
          "name": "",
          "type": "bool"
        }
      ],
      "payable": false,
      "stateMutability": "nonpayable",
      "type": "function"
    },
    {
      "constant": false,
      "inputs": [
        {
          "name": "to",
          "type": "address"
        },
        {
          "name": "value",
          "type": "uint256"
        }
      ],
      "name": "transfer",
      "outputs": [
        {
          "name": "",
          "type": "bool"
        }
      ],
      "payable": false,
      "stateMutability": "nonpayable",
      "type": "function"
    },
    {
      "constant": true,
      "inputs": [],
      "name": "PRICE_MEMBRE",
      "outputs": [
        {
          "name": "",
          "type": "uint256"
        }
      ],
      "payable": false,
      "stateMutability": "view",
      "type": "function"
    },
    {
      "constant": true,
      "inputs": [],
      "name": "MAX_AMOUNT",
      "outputs": [
        {
          "name": "",
          "type": "uint256"
        }
      ],
      "payable": false,
      "stateMutability": "view",
      "type": "function"
    },
    {
      "constant": true,
      "inputs": [
        {
          "name": "owner",
          "type": "address"
        },
        {
          "name": "spender",
          "type": "address"
        }
      ],
      "name": "allowance",
      "outputs": [
        {
          "name": "",
          "type": "uint256"
        }
      ],
      "payable": false,
      "stateMutability": "view",
      "type": "function"
    },
    {
      "constant": true,
      "inputs": [],
      "name": "MIN_AMOUNT",
      "outputs": [
        {
          "name": "",
          "type": "uint256"
        }
      ],
      "payable": false,
      "stateMutability": "view",
      "type": "function"
    },
    {
      "constant": true,
      "inputs": [],
      "name": "PRICE_CHANNEL",
      "outputs": [
        {
          "name": "",
          "type": "uint256"
        }
      ],
      "payable": false,
      "stateMutability": "view",
      "type": "function"
    },
    {
      "constant": false,
      "inputs": [
        {
          "name": "newOwner",
          "type": "address"
        }
      ],
      "name": "transferOwnership",
      "outputs": [],
      "payable": false,
      "stateMutability": "nonpayable",
      "type": "function"
    },
    {
      "inputs": [],
      "payable": false,
      "stateMutability": "nonpayable",
      "type": "constructor"
    },
    {
      "anonymous": false,
      "inputs": [
        {
          "indexed": true,
          "name": "previousOwner",
          "type": "address"
        },
        {
          "indexed": true,
          "name": "newOwner",
          "type": "address"
        }
      ],
      "name": "OwnershipTransferred",
      "type": "event"
    },
    {
      "anonymous": false,
      "inputs": [
        {
          "indexed": true,
          "name": "from",
          "type": "address"
        },
        {
          "indexed": true,
          "name": "to",
          "type": "address"
        },
        {
          "indexed": false,
          "name": "value",
          "type": "uint256"
        }
      ],
      "name": "Transfer",
      "type": "event"
    },
    {
      "anonymous": false,
      "inputs": [
        {
          "indexed": true,
          "name": "owner",
          "type": "address"
        },
        {
          "indexed": true,
          "name": "spender",
          "type": "address"
        },
        {
          "indexed": false,
          "name": "value",
          "type": "uint256"
        }
      ],
      "name": "Approval",
      "type": "event"
    },
    {
      "constant": false,
      "inputs": [
        {
          "name": "_nom",
          "type": "string"
        },
        {
          "name": "_pseudo",
          "type": "string"
        }
      ],
      "name": "creerGroupe",
      "outputs": [],
      "payable": true,
      "stateMutability": "payable",
      "type": "function"
    },
    {
      "constant": false,
      "inputs": [
        {
          "name": "_membre",
          "type": "address"
        },
        {
          "name": "_groupe",
          "type": "string"
        },
        {
          "name": "_pseudo",
          "type": "string"
        }
      ],
      "name": "ajouterMembre",
      "outputs": [],
      "payable": true,
      "stateMutability": "payable",
      "type": "function"
    },
    {
      "constant": false,
      "inputs": [
        {
          "name": "_montant",
          "type": "uint256"
        },
        {
          "name": "_delai",
          "type": "uint256"
        },
        {
          "name": "_pseudo",
          "type": "string"
        },
        {
          "name": "_description",
          "type": "string"
        }
      ],
      "name": "demander",
      "outputs": [],
      "payable": false,
      "stateMutability": "nonpayable",
      "type": "function"
    },
    {
      "constant": false,
      "inputs": [
        {
          "name": "_pseudo",
          "type": "string"
        },
        {
          "name": "_address",
          "type": "address"
        }
      ],
      "name": "payerCanal",
      "outputs": [],
      "payable": true,
      "stateMutability": "payable",
      "type": "function"
    },
    {
      "constant": false,
      "inputs": [
        {
          "name": "_pseudo",
          "type": "string"
        }
      ],
      "name": "fermetureCanal",
      "outputs": [],
      "payable": false,
      "stateMutability": "nonpayable",
      "type": "function"
    },
    {
      "constant": false,
      "inputs": [
        {
          "name": "_amount",
          "type": "uint256"
        }
      ],
      "name": "withdrawEther",
      "outputs": [],
      "payable": false,
      "stateMutability": "nonpayable",
      "type": "function"
    },
    {
      "constant": false,
      "inputs": [],
      "name": "tokenToEther",
      "outputs": [],
      "payable": false,
      "stateMutability": "nonpayable",
      "type": "function"
    },
    {
      "constant": false,
      "inputs": [
        {
          "name": "_seuil",
          "type": "uint256"
        }
      ],
      "name": "modifierMeriteBonus",
      "outputs": [],
      "payable": false,
      "stateMutability": "nonpayable",
      "type": "function"
    },
    {
      "constant": false,
      "inputs": [
        {
          "name": "_tokenBonus",
          "type": "uint256"
        }
      ],
      "name": "modifierTokenBonus",
      "outputs": [],
      "payable": false,
      "stateMutability": "nonpayable",
      "type": "function"
    },
    {
      "constant": false,
      "inputs": [
        {
          "name": "_laspsTime",
          "type": "uint256"
        }
      ],
      "name": "modifierLapsTimeToWithdraw",
      "outputs": [],
      "payable": false,
      "stateMutability": "nonpayable",
      "type": "function"
    },
    {
      "constant": false,
      "inputs": [
        {
          "name": "_TimeToWithdraw",
          "type": "uint256"
        }
      ],
      "name": "modifierTimeToWithdraw",
      "outputs": [],
      "payable": false,
      "stateMutability": "nonpayable",
      "type": "function"
    },
    {
      "constant": false,
      "inputs": [
        {
          "name": "_maxAmount",
          "type": "uint256"
        }
      ],
      "name": "modifierMaxAmount",
      "outputs": [],
      "payable": false,
      "stateMutability": "nonpayable",
      "type": "function"
    },
    {
      "constant": false,
      "inputs": [
        {
          "name": "_minAmount",
          "type": "uint256"
        }
      ],
      "name": "modifierMinAmount",
      "outputs": [],
      "payable": false,
      "stateMutability": "nonpayable",
      "type": "function"
    },
    {
      "constant": false,
      "inputs": [
        {
          "name": "_priceChannel",
          "type": "uint256"
        }
      ],
      "name": "modifierCharges",
      "outputs": [],
      "payable": false,
      "stateMutability": "nonpayable",
      "type": "function"
    },
    {
      "constant": false,
      "inputs": [
        {
          "name": "_priceGroup",
          "type": "uint256"
        }
      ],
      "name": "modifierPriceGroup",
      "outputs": [],
      "payable": false,
      "stateMutability": "nonpayable",
      "type": "function"
    },
    {
      "constant": false,
      "inputs": [
        {
          "name": "_priceMember",
          "type": "uint256"
        }
      ],
      "name": "modifierPriceMember",
      "outputs": [],
      "payable": false,
      "stateMutability": "nonpayable",
      "type": "function"
    },
    {
      "constant": false,
      "inputs": [
        {
          "name": "_priceDemand",
          "type": "uint256"
        }
      ],
      "name": "modifierPriceDemand",
      "outputs": [],
      "payable": false,
      "stateMutability": "nonpayable",
      "type": "function"
    },
    {
      "constant": true,
      "inputs": [],
      "name": "getGroupesPerAddress",
      "outputs": [
        {
          "name": "",
          "type": "uint256[]"
        }
      ],
      "payable": false,
      "stateMutability": "view",
      "type": "function"
    },
    {
      "constant": true,
      "inputs": [
        {
          "name": "_groupe",
          "type": "string"
        }
      ],
      "name": "getMembres",
      "outputs": [
        {
          "name": "",
          "type": "uint256[]"
        }
      ],
      "payable": false,
      "stateMutability": "view",
      "type": "function"
    },
    {
      "constant": true,
      "inputs": [
        {
          "name": "_ID",
          "type": "uint256"
        }
      ],
      "name": "getNomMembre",
      "outputs": [
        {
          "name": "",
          "type": "string"
        }
      ],
      "payable": false,
      "stateMutability": "view",
      "type": "function"
    },
    {
      "constant": true,
      "inputs": [
        {
          "name": "_pseudo",
          "type": "string"
        }
      ],
      "name": "getGroupe",
      "outputs": [
        {
          "name": "",
          "type": "string"
        }
      ],
      "payable": false,
      "stateMutability": "view",
      "type": "function"
    },
    {
      "constant": true,
      "inputs": [
        {
          "name": "_pseudo",
          "type": "string"
        }
      ],
      "name": "getMontant",
      "outputs": [
        {
          "name": "",
          "type": "uint256"
        }
      ],
      "payable": false,
      "stateMutability": "view",
      "type": "function"
    },
    {
      "constant": true,
      "inputs": [
        {
          "name": "_pseudo",
          "type": "string"
        }
      ],
      "name": "getBlockFermeture",
      "outputs": [
        {
          "name": "",
          "type": "uint256"
        }
      ],
      "payable": false,
      "stateMutability": "view",
      "type": "function"
    },
    {
      "constant": true,
      "inputs": [
        {
          "name": "_pseudo",
          "type": "string"
        }
      ],
      "name": "getEncours",
      "outputs": [
        {
          "name": "",
          "type": "uint256"
        }
      ],
      "payable": false,
      "stateMutability": "view",
      "type": "function"
    },
    {
      "constant": true,
      "inputs": [
        {
          "name": "_pseudo",
          "type": "string"
        }
      ],
      "name": "getDonnations",
      "outputs": [
        {
          "name": "",
          "type": "uint256"
        }
      ],
      "payable": false,
      "stateMutability": "view",
      "type": "function"
    },
    {
      "constant": true,
      "inputs": [
        {
          "name": "_pseudo",
          "type": "string"
        }
      ],
      "name": "getDemandeur",
      "outputs": [
        {
          "name": "",
          "type": "address"
        }
      ],
      "payable": false,
      "stateMutability": "view",
      "type": "function"
    },
    {
      "constant": true,
      "inputs": [
        {
          "name": "_pseudo",
          "type": "string"
        }
      ],
      "name": "getReceptions",
      "outputs": [
        {
          "name": "",
          "type": "uint256"
        }
      ],
      "payable": false,
      "stateMutability": "view",
      "type": "function"
    },
    {
      "constant": true,
      "inputs": [
        {
          "name": "_pseudo",
          "type": "string"
        }
      ],
      "name": "getDescription",
      "outputs": [
        {
          "name": "",
          "type": "string"
        }
      ],
      "payable": false,
      "stateMutability": "view",
      "type": "function"
    },
    {
      "constant": true,
      "inputs": [
        {
          "name": "_pseudo",
          "type": "string"
        }
      ],
      "name": "getTime",
      "outputs": [
        {
          "name": "",
          "type": "uint256"
        }
      ],
      "payable": false,
      "stateMutability": "view",
      "type": "function"
    },
    {
      "constant": true,
      "inputs": [
        {
          "name": "_ID",
          "type": "uint256"
        }
      ],
      "name": "getNomGroupe",
      "outputs": [
        {
          "name": "",
          "type": "string"
        }
      ],
      "payable": false,
      "stateMutability": "view",
      "type": "function"
    },
    {
      "constant": true,
      "inputs": [],
      "name": "getOwnedGroupe",
      "outputs": [
        {
          "name": "",
          "type": "uint256[]"
        }
      ],
      "payable": false,
      "stateMutability": "view",
      "type": "function"
    },
    {
      "constant": true,
      "inputs": [
        {
          "name": "_groupe",
          "type": "string"
        }
      ],
      "name": "getPseudoInGroup",
      "outputs": [
        {
          "name": "",
          "type": "string"
        }
      ],
      "payable": false,
      "stateMutability": "view",
      "type": "function"
    }
  ],
  "bytecode": "0x608060405234801561001057600080fd5b5033600360006101000a81548173ffffffffffffffffffffffffffffffffffffffff021916908373ffffffffffffffffffffffffffffffffffffffff1602179055506509184e72a000600f8190555061271060108190555060646011819055506402540be400601281905550620186a06013819055506000601481905550620f42406015819055506064601681905550600a6017819055506001601881905550614e6d806100bf6000396000f3fe608060405260043610610293576000357c0100000000000000000000000000000000000000000000000000000000900463ffffffff16806303864bda1461029857806306fdde03146103a057806307ef533714610430578063095ea7b31461045b5780630e5857c1146104ce578063175032661461050957806318160ddd146105445780631e0afe571461056f5780632055bd08146105db57806323b872dd1461071c57806329c77347146107af5780632a51becf146108cc578063313ce567146109a857806339509351146109df578063397ef76914610a525780633bed33ce14610a7d5780633c431d6a14610ab85780634152299714610ae357806345de2ca014610b975780634a3f4a5d14610cd85780634b7b03cf14610d035780634dc8872914610db75780635126670614610e7f57806354a434fc14610eba5780635743026414610ee55780635f09355314610fc157806370a0823114610ffc5780637aede272146110615780637ff774d8146111a25780638da5cb5b146111dd5780638f33334114611234578063911f444e146113a657806395d89b41146113d15780639acdb25b146114615780639d05e9ab1461149c578063a2e3783d14611578578063a457c2d714611654578063a9059cbb146116c7578063b359cedd1461173a578063beaf3b0d14611816578063d335c04314611851578063d40dc8701461187c578063d74b10a5146118a7578063da28be7514611983578063db56926d1461199a578063dd62ed3e14611a75578063ddbcb5fa14611afa578063e09c813614611b25578063f1df52c514611b91578063f2fde38b14611bbc578063f4343df414611c0d578063f462966514611d5f578063f483977214611d9a578063f8efcf4f14611dd5578063fa8622f914611e10575b600080fd5b3480156102a457600080fd5b5061035e600480360360208110156102bb57600080fd5b81019080803590602001906401000000008111156102d857600080fd5b8201836020820111156102ea57600080fd5b8035906020019184600183028401116401000000008311171561030c57600080fd5b91908080601f016020809104026020016040519081016040528093929190818152602001838380828437600081840152601f19601f820116905080830192505050505050509192919290505050611f83565b604051808273ffffffffffffffffffffffffffffffffffffffff1673ffffffffffffffffffffffffffffffffffffffff16815260200191505060405180910390f35b3480156103ac57600080fd5b506103b561202e565b6040518080602001828103825283818151815260200191508051906020019080838360005b838110156103f55780820151818401526020810190506103da565b50505050905090810190601f1680156104225780820380516001836020036101000a031916815260200191505b509250505060405180910390f35b34801561043c57600080fd5b50610445612067565b6040518082815260200191505060405180910390f35b34801561046757600080fd5b506104b46004803603604081101561047e57600080fd5b81019080803573ffffffffffffffffffffffffffffffffffffffff1690602001909291908035906020019092919050505061206d565b604051808215151515815260200191505060405180910390f35b3480156104da57600080fd5b50610507600480360360208110156104f157600080fd5b8101908080359060200190929190505050612084565b005b34801561051557600080fd5b506105426004803603602081101561052c57600080fd5b81019080803590602001909291905050506120ea565b005b34801561055057600080fd5b50610559612150565b6040518082815260200191505060405180910390f35b34801561057b57600080fd5b5061058461215a565b6040518080602001828103825283818151815260200191508051906020019060200280838360005b838110156105c75780820151818401526020810190506105ac565b505050509050019250505060405180910390f35b3480156105e757600080fd5b506106a1600480360360208110156105fe57600080fd5b810190808035906020019064010000000081111561061b57600080fd5b82018360208201111561062d57600080fd5b8035906020019184600183028401116401000000008311171561064f57600080fd5b91908080601f016020809104026020016040519081016040528093929190818152602001838380828437600081840152601f19601f8201169050808301925050505050505091929192905050506121ef565b6040518080602001828103825283818151815260200191508051906020019080838360005b838110156106e15780820151818401526020810190506106c6565b50505050905090810190601f16801561070e5780820380516001836020036101000a031916815260200191505b509250505060405180910390f35b34801561072857600080fd5b506107956004803603606081101561073f57600080fd5b81019080803573ffffffffffffffffffffffffffffffffffffffff169060200190929190803573ffffffffffffffffffffffffffffffffffffffff16906020019092919080359060200190929190505050612308565b604051808215151515815260200191505060405180910390f35b3480156107bb57600080fd5b50610875600480360360208110156107d257600080fd5b81019080803590602001906401000000008111156107ef57600080fd5b82018360208201111561080157600080fd5b8035906020019184600183028401116401000000008311171561082357600080fd5b91908080601f016020809104026020016040519081016040528093929190818152602001838380828437600081840152601f19601f8201169050808301925050505050505091929192905050506123b9565b6040518080602001828103825283818151815260200191508051906020019060200280838360005b838110156108b857808201518184015260208101905061089d565b505050509050019250505060405180910390f35b3480156108d857600080fd5b50610992600480360360208110156108ef57600080fd5b810190808035906020019064010000000081111561090c57600080fd5b82018360208201111561091e57600080fd5b8035906020019184600183028401116401000000008311171561094057600080fd5b91908080601f016020809104026020016040519081016040528093929190818152602001838380828437600081840152601f19601f82011690508083019250505050505050919291929050505061247c565b6040518082815260200191505060405180910390f35b3480156109b457600080fd5b506109bd612507565b604051808263ffffffff1663ffffffff16815260200191505060405180910390f35b3480156109eb57600080fd5b50610a3860048036036040811015610a0257600080fd5b81019080803573ffffffffffffffffffffffffffffffffffffffff1690602001909291908035906020019092919050505061250c565b604051808215151515815260200191505060405180910390f35b348015610a5e57600080fd5b50610a676125b1565b6040518082815260200191505060405180910390f35b348015610a8957600080fd5b50610ab660048036036020811015610aa057600080fd5b81019080803590602001909291905050506125b7565b005b348015610ac457600080fd5b50610acd61265d565b6040518082815260200191505060405180910390f35b348015610aef57600080fd5b50610b1c60048036036020811015610b0657600080fd5b8101908080359060200190929190505050612663565b6040518080602001828103825283818151815260200191508051906020019080838360005b83811015610b5c578082015181840152602081019050610b41565b50505050905090810190601f168015610b895780820380516001836020036101000a031916815260200191505b509250505060405180910390f35b348015610ba357600080fd5b50610c5d60048036036020811015610bba57600080fd5b8101908080359060200190640100000000811115610bd757600080fd5b820183602082011115610be957600080fd5b80359060200191846001830284011164010000000083111715610c0b57600080fd5b91908080601f016020809104026020016040519081016040528093929190818152602001838380828437600081840152601f19601f820116905080830192505050505050509192919290505050612718565b6040518080602001828103825283818151815260200191508051906020019080838360005b83811015610c9d578082015181840152602081019050610c82565b50505050905090810190601f168015610cca5780820380516001836020036101000a031916815260200191505b509250505060405180910390f35b348015610ce457600080fd5b50610ced61283b565b6040518082815260200191505060405180910390f35b348015610d0f57600080fd5b50610d3c60048036036020811015610d2657600080fd5b8101908080359060200190929190505050612841565b6040518080602001828103825283818151815260200191508051906020019080838360005b83811015610d7c578082015181840152602081019050610d61565b50505050905090810190601f168015610da95780820380516001836020036101000a031916815260200191505b509250505060405180910390f35b348015610dc357600080fd5b50610e7d60048036036020811015610dda57600080fd5b8101908080359060200190640100000000811115610df757600080fd5b820183602082011115610e0957600080fd5b80359060200191846001830284011164010000000083111715610e2b57600080fd5b91908080601f016020809104026020016040519081016040528093929190818152602001838380828437600081840152601f19601f8201169050808301925050505050505091929192905050506128f9565b005b348015610e8b57600080fd5b50610eb860048036036020811015610ea257600080fd5b8101908080359060200190929190505050612ace565b005b348015610ec657600080fd5b50610ecf612b34565b6040518082815260200191505060405180910390f35b348015610ef157600080fd5b50610fab60048036036020811015610f0857600080fd5b8101908080359060200190640100000000811115610f2557600080fd5b820183602082011115610f3757600080fd5b80359060200191846001830284011164010000000083111715610f5957600080fd5b91908080601f016020809104026020016040519081016040528093929190818152602001838380828437600081840152601f19601f820116905080830192505050505050509192919290505050612b3a565b6040518082815260200191505060405180910390f35b348015610fcd57600080fd5b50610ffa60048036036020811015610fe457600080fd5b8101908080359060200190929190505050612bc5565b005b34801561100857600080fd5b5061104b6004803603602081101561101f57600080fd5b81019080803573ffffffffffffffffffffffffffffffffffffffff169060200190929190505050612c2b565b6040518082815260200191505060405180910390f35b34801561106d57600080fd5b506111276004803603602081101561108457600080fd5b81019080803590602001906401000000008111156110a157600080fd5b8201836020820111156110b357600080fd5b803590602001918460018302840111640100000000831117156110d557600080fd5b91908080601f016020809104026020016040519081016040528093929190818152602001838380828437600081840152601f19601f820116905080830192505050505050509192919290505050612c73565b6040518080602001828103825283818151815260200191508051906020019080838360005b8381101561116757808201518184015260208101905061114c565b50505050905090810190601f1680156111945780820380516001836020036101000a031916815260200191505b509250505060405180910390f35b3480156111ae57600080fd5b506111db600480360360208110156111c557600080fd5b8101908080359060200190929190505050612d96565b005b3480156111e957600080fd5b506111f2612dfc565b604051808273ffffffffffffffffffffffffffffffffffffffff1673ffffffffffffffffffffffffffffffffffffffff16815260200191505060405180910390f35b6113a46004803603606081101561124a57600080fd5b81019080803573ffffffffffffffffffffffffffffffffffffffff1690602001909291908035906020019064010000000081111561128757600080fd5b82018360208201111561129957600080fd5b803590602001918460018302840111640100000000831117156112bb57600080fd5b91908080601f016020809104026020016040519081016040528093929190818152602001838380828437600081840152601f19601f8201169050808301925050505050505091929192908035906020019064010000000081111561131e57600080fd5b82018360208201111561133057600080fd5b8035906020019184600183028401116401000000008311171561135257600080fd5b91908080601f016020809104026020016040519081016040528093929190818152602001838380828437600081840152601f19601f820116905080830192505050505050509192919290505050612e22565b005b3480156113b257600080fd5b506113bb6131c0565b6040518082815260200191505060405180910390f35b3480156113dd57600080fd5b506113e66131c6565b6040518080602001828103825283818151815260200191508051906020019080838360005b8381101561142657808201518184015260208101905061140b565b50505050905090810190601f1680156114535780820380516001836020036101000a031916815260200191505b509250505060405180910390f35b34801561146d57600080fd5b5061149a6004803603602081101561148457600080fd5b81019080803590602001909291905050506131ff565b005b3480156114a857600080fd5b50611562600480360360208110156114bf57600080fd5b81019080803590602001906401000000008111156114dc57600080fd5b8201836020820111156114ee57600080fd5b8035906020019184600183028401116401000000008311171561151057600080fd5b91908080601f016020809104026020016040519081016040528093929190818152602001838380828437600081840152601f19601f820116905080830192505050505050509192919290505050613265565b6040518082815260200191505060405180910390f35b34801561158457600080fd5b5061163e6004803603602081101561159b57600080fd5b81019080803590602001906401000000008111156115b857600080fd5b8201836020820111156115ca57600080fd5b803590602001918460018302840111640100000000831117156115ec57600080fd5b91908080601f016020809104026020016040519081016040528093929190818152602001838380828437600081840152601f19601f8201169050808301925050505050505091929192905050506132f0565b6040518082815260200191505060405180910390f35b34801561166057600080fd5b506116ad6004803603604081101561167757600080fd5b81019080803573ffffffffffffffffffffffffffffffffffffffff1690602001909291908035906020019092919050505061337b565b604051808215151515815260200191505060405180910390f35b3480156116d357600080fd5b50611720600480360360408110156116ea57600080fd5b81019080803573ffffffffffffffffffffffffffffffffffffffff16906020019092919080359060200190929190505050613420565b604051808215151515815260200191505060405180910390f35b34801561174657600080fd5b506118006004803603602081101561175d57600080fd5b810190808035906020019064010000000081111561177a57600080fd5b82018360208201111561178c57600080fd5b803590602001918460018302840111640100000000831117156117ae57600080fd5b91908080601f016020809104026020016040519081016040528093929190818152602001838380828437600081840152601f19601f820116905080830192505050505050509192919290505050613437565b6040518082815260200191505060405180910390f35b34801561182257600080fd5b5061184f6004803603602081101561183957600080fd5b8101908080359060200190929190505050613558565b005b34801561185d57600080fd5b506118666135be565b6040518082815260200191505060405180910390f35b34801561188857600080fd5b506118916135c4565b6040518082815260200191505060405180910390f35b3480156118b357600080fd5b5061196d600480360360208110156118ca57600080fd5b81019080803590602001906401000000008111156118e757600080fd5b8201836020820111156118f957600080fd5b8035906020019184600183028401116401000000008311171561191b57600080fd5b91908080601f016020809104026020016040519081016040528093929190818152602001838380828437600081840152601f19601f8201169050808301925050505050505091929192905050506135ca565b6040518082815260200191505060405180910390f35b34801561198f57600080fd5b50611998613655565b005b611a73600480360360408110156119b057600080fd5b81019080803590602001906401000000008111156119cd57600080fd5b8201836020820111156119df57600080fd5b80359060200191846001830284011164010000000083111715611a0157600080fd5b91908080601f016020809104026020016040519081016040528093929190818152602001838380828437600081840152601f19601f820116905080830192505050505050509192919290803573ffffffffffffffffffffffffffffffffffffffff16906020019092919050505061373a565b005b348015611a8157600080fd5b50611ae460048036036040811015611a9857600080fd5b81019080803573ffffffffffffffffffffffffffffffffffffffff169060200190929190803573ffffffffffffffffffffffffffffffffffffffff169060200190929190505050613926565b6040518082815260200191505060405180910390f35b348015611b0657600080fd5b50611b0f6139ad565b6040518082815260200191505060405180910390f35b348015611b3157600080fd5b50611b3a6139b3565b6040518080602001828103825283818151815260200191508051906020019060200280838360005b83811015611b7d578082015181840152602081019050611b62565b505050509050019250505060405180910390f35b348015611b9d57600080fd5b50611ba6613a48565b6040518082815260200191505060405180910390f35b348015611bc857600080fd5b50611c0b60048036036020811015611bdf57600080fd5b81019080803573ffffffffffffffffffffffffffffffffffffffff169060200190929190505050613a4e565b005b611d5d60048036036040811015611c2357600080fd5b8101908080359060200190640100000000811115611c4057600080fd5b820183602082011115611c5257600080fd5b80359060200191846001830284011164010000000083111715611c7457600080fd5b91908080601f016020809104026020016040519081016040528093929190818152602001838380828437600081840152601f19601f82011690508083019250505050505050919291929080359060200190640100000000811115611cd757600080fd5b820183602082011115611ce957600080fd5b80359060200191846001830284011164010000000083111715611d0b57600080fd5b91908080601f016020809104026020016040519081016040528093929190818152602001838380828437600081840152601f19601f820116905080830192505050505050509192919290505050613ba6565b005b348015611d6b57600080fd5b50611d9860048036036020811015611d8257600080fd5b81019080803590602001909291905050506140a3565b005b348015611da657600080fd5b50611dd360048036036020811015611dbd57600080fd5b8101908080359060200190929190505050614109565b005b348015611de157600080fd5b50611e0e60048036036020811015611df857600080fd5b810190808035906020019092919050505061416f565b005b348015611e1c57600080fd5b50611f8160048036036080811015611e3357600080fd5b81019080803590602001909291908035906020019092919080359060200190640100000000811115611e6457600080fd5b820183602082011115611e7657600080fd5b80359060200191846001830284011164010000000083111715611e9857600080fd5b91908080601f016020809104026020016040519081016040528093929190818152602001838380828437600081840152601f19601f82011690508083019250505050505050919291929080359060200190640100000000811115611efb57600080fd5b820183602082011115611f0d57600080fd5b80359060200191846001830284011164010000000083111715611f2f57600080fd5b91908080601f016020809104026020016040519081016040528093929190818152602001838380828437600081840152601f19601f8201169050808301925050505050505091929192905050506141d5565b005b600060046000600d846040518082805190602001908083835b602083101515611fc15780518252602082019150602081019050602083039250611f9c565b6001836020036101000a038019825116818451168082178552505050505050905001915050908152602001604051809103902054815260200190815260200160002060000160009054906101000a900473ffffffffffffffffffffffffffffffffffffffff169050919050565b6040805190810160405280600881526020017f67696d69636f696e00000000000000000000000000000000000000000000000081525081565b60145481565b600061207a338484614379565b6001905092915050565b600360009054906101000a900473ffffffffffffffffffffffffffffffffffffffff1673ffffffffffffffffffffffffffffffffffffffff163373ffffffffffffffffffffffffffffffffffffffff161415156120e057600080fd5b8060188190555050565b600360009054906101000a900473ffffffffffffffffffffffffffffffffffffffff1673ffffffffffffffffffffffffffffffffffffffff163373ffffffffffffffffffffffffffffffffffffffff1614151561214657600080fd5b8060168190555050565b6000600254905090565b6060600560003373ffffffffffffffffffffffffffffffffffffffff1673ffffffffffffffffffffffffffffffffffffffff1681526020019081526020016000208054806020026020016040519081016040528092919081815260200182805480156121e557602002820191906000526020600020905b8154815260200190600101908083116121d1575b5050505050905090565b60606000828051906020012060019004905060046000600e600084815260200190815260200160002060003373ffffffffffffffffffffffffffffffffffffffff1673ffffffffffffffffffffffffffffffffffffffff1681526020019081526020016000205481526020019081526020016000206001018054600181600116156101000203166002900480601f0160208091040260200160405190810160405280929190818152602001828054600181600116156101000203166002900480156122fb5780601f106122d0576101008083540402835291602001916122fb565b820191906000526020600020905b8154815290600101906020018083116122de57829003601f168201915b5050505050915050919050565b60006123158484846144dc565b6123ae84336123a985600160008a73ffffffffffffffffffffffffffffffffffffffff1673ffffffffffffffffffffffffffffffffffffffff16815260200190815260200160002060003373ffffffffffffffffffffffffffffffffffffffff1673ffffffffffffffffffffffffffffffffffffffff168152602001908152602001600020546146a890919063ffffffff16565b614379565b600190509392505050565b60606006826040518082805190602001908083835b6020831015156123f357805182526020820191506020810190506020830392506123ce565b6001836020036101000a038019825116818451168082178552505050505050905001915050908152602001604051809103902080548060200260200160405190810160405280929190818152602001828054801561247057602002820191906000526020600020905b81548152602001906001019080831161245c575b50505050509050919050565b600060046000600d846040518082805190602001908083835b6020831015156124ba5780518252602082019150602081019050602083039250612495565b6001836020036101000a0380198251168184511680821785525050505050509050019150509081526020016040518091039020548152602001908152602001600020600701549050919050565b601281565b60006125a733846125a285600160003373ffffffffffffffffffffffffffffffffffffffff1673ffffffffffffffffffffffffffffffffffffffff16815260200190815260200160002060008973ffffffffffffffffffffffffffffffffffffffff1673ffffffffffffffffffffffffffffffffffffffff168152602001908152602001600020546146c190919063ffffffff16565b614379565b6001905092915050565b60135481565b600360009054906101000a900473ffffffffffffffffffffffffffffffffffffffff1673ffffffffffffffffffffffffffffffffffffffff163373ffffffffffffffffffffffffffffffffffffffff1614151561261357600080fd5b3373ffffffffffffffffffffffffffffffffffffffff166108fc829081150290604051600060405180830381858888f19350505050158015612659573d6000803e3d6000fd5b5050565b60115481565b6060600760008381526020019081526020016000208054600181600116156101000203166002900480601f01602080910402602001604051908101604052809291908181526020018280546001816001161561010002031660029004801561270c5780601f106126e15761010080835404028352916020019161270c565b820191906000526020600020905b8154815290600101906020018083116126ef57829003601f168201915b50505050509050919050565b606060046000600d846040518082805190602001908083835b6020831015156127565780518252602082019150602081019050602083039250612731565b6001836020036101000a03801982511681845116808217855250505050505090500191505090815260200160405180910390205481526020019081526020016000206009018054600181600116156101000203166002900480601f01602080910402602001604051908101604052809291908181526020018280546001816001161561010002031660029004801561282f5780601f106128045761010080835404028352916020019161282f565b820191906000526020600020905b81548152906001019060200180831161281257829003601f168201915b50505050509050919050565b60165481565b6060600460008381526020019081526020016000206001018054600181600116156101000203166002900480601f0160208091040260200160405190810160405280929190818152602001828054600181600116156101000203166002900480156128ed5780601f106128c2576101008083540402835291602001916128ed565b820191906000526020600020905b8154815290600101906020018083116128d057829003601f168201915b50505050509050919050565b60008180519060200120600190049050600115156004600083815260200190815260200160002060050160009054906101000a900460ff16151514151561293f57600080fd5b3373ffffffffffffffffffffffffffffffffffffffff166004600083815260200190815260200160002060000160009054906101000a900473ffffffffffffffffffffffffffffffffffffffff1673ffffffffffffffffffffffffffffffffffffffff161415156129af57600080fd5b3373ffffffffffffffffffffffffffffffffffffffff166108fc60046000848152602001908152602001600020600601549081150290604051600060405180830381858888f19350505050158015612a0b573d6000803e3d6000fd5b5060006004600083815260200190815260200160002060060181905550600060046000838152602001908152602001600020600301819055506000600460008381526020019081526020016000206004018190555060006004600083815260200190815260200160002060050160006101000a81548160ff0219169083151502179055506020604051908101604052806000815250600460008381526020019081526020016000206009019080519060200190612ac9929190614d9c565b505050565b600360009054906101000a900473ffffffffffffffffffffffffffffffffffffffff1673ffffffffffffffffffffffffffffffffffffffff163373ffffffffffffffffffffffffffffffffffffffff16141515612b2a57600080fd5b8060118190555050565b60125481565b600060046000600d846040518082805190602001908083835b602083101515612b785780518252602082019150602081019050602083039250612b53565b6001836020036101000a0380198251168184511680821785525050505050509050019150509081526020016040518091039020548152602001908152602001600020600801549050919050565b600360009054906101000a900473ffffffffffffffffffffffffffffffffffffffff1673ffffffffffffffffffffffffffffffffffffffff163373ffffffffffffffffffffffffffffffffffffffff16141515612c2157600080fd5b8060178190555050565b60008060008373ffffffffffffffffffffffffffffffffffffffff1673ffffffffffffffffffffffffffffffffffffffff168152602001908152602001600020549050919050565b606060046000600d846040518082805190602001908083835b602083101515612cb15780518252602082019150602081019050602083039250612c8c565b6001836020036101000a03801982511681845116808217855250505050505090500191505090815260200160405180910390205481526020019081526020016000206002018054600181600116156101000203166002900480601f016020809104026020016040519081016040528092919081815260200182805460018160011615610100020316600290048015612d8a5780601f10612d5f57610100808354040283529160200191612d8a565b820191906000526020600020905b815481529060010190602001808311612d6d57829003601f168201915b50505050509050919050565b600360009054906101000a900473ffffffffffffffffffffffffffffffffffffffff1673ffffffffffffffffffffffffffffffffffffffff163373ffffffffffffffffffffffffffffffffffffffff16141515612df257600080fd5b8060138190555050565b600360009054906101000a900473ffffffffffffffffffffffffffffffffffffffff1681565b34601754141515612e3257600080fd5b600073ffffffffffffffffffffffffffffffffffffffff16600c826040518082805190602001908083835b602083101515612e825780518252602082019150602081019050602083039250612e5d565b6001836020036101000a038019825116818451168082178552505050505050905001915050908152602001604051809103902060009054906101000a900473ffffffffffffffffffffffffffffffffffffffff1673ffffffffffffffffffffffffffffffffffffffff16141515612ef857600080fd5b3373ffffffffffffffffffffffffffffffffffffffff166009836040518082805190602001908083835b602083101515612f475780518252602082019150602081019050602083039250612f22565b6001836020036101000a038019825116818451168082178552505050505050905001915050908152602001604051809103902060009054906101000a900473ffffffffffffffffffffffffffffffffffffffff1673ffffffffffffffffffffffffffffffffffffffff16141515612fbd57600080fd5b82600c826040518082805190602001908083835b602083101515612ff65780518252602082019150602081019050602083039250612fd1565b6001836020036101000a038019825116818451168082178552505050505050905001915050908152602001604051809103902060006101000a81548173ffffffffffffffffffffffffffffffffffffffff021916908373ffffffffffffffffffffffffffffffffffffffff16021790555060008280519060200120600190049050600560008573ffffffffffffffffffffffffffffffffffffffff1673ffffffffffffffffffffffffffffffffffffffff168152602001908152602001600020819080600181540180825580915050906001820390600052602060002001600090919290919091505550600b836040518082805190602001908083835b60208310151561311857805182526020820191506020810190506020830392506130f3565b6001836020036101000a03801982511681845116808217855250505050505090500191505090815260200160405180910390208490806001815401808255809150509060018203906000526020600020016000909192909190916101000a81548173ffffffffffffffffffffffffffffffffffffffff021916908373ffffffffffffffffffffffffffffffffffffffff160217905550506131ba8284866146df565b50505050565b60155481565b6040805190810160405280600381526020017f474d43000000000000000000000000000000000000000000000000000000000081525081565b600360009054906101000a900473ffffffffffffffffffffffffffffffffffffffff1673ffffffffffffffffffffffffffffffffffffffff163373ffffffffffffffffffffffffffffffffffffffff1614151561325b57600080fd5b8060158190555050565b600060046000600d846040518082805190602001908083835b6020831015156132a3578051825260208201915060208101905060208303925061327e565b6001836020036101000a0380198251168184511680821785525050505050509050019150509081526020016040518091039020548152602001908152602001600020600601549050919050565b600060046000600d846040518082805190602001908083835b60208310151561332e5780518252602082019150602081019050602083039250613309565b6001836020036101000a0380198251168184511680821785525050505050509050019150509081526020016040518091039020548152602001908152602001600020600401549050919050565b6000613416338461341185600160003373ffffffffffffffffffffffffffffffffffffffff1673ffffffffffffffffffffffffffffffffffffffff16815260200190815260200160002060008973ffffffffffffffffffffffffffffffffffffffff1673ffffffffffffffffffffffffffffffffffffffff168152602001908152602001600020546146a890919063ffffffff16565b614379565b6001905092915050565b600061342d3384846144dc565b6001905092915050565b60004360046000600d856040518082805190602001908083835b6020831015156134765780518252602082019150602081019050602083039250613451565b6001836020036101000a0380198251168184511680821785525050505050509050019150509081526020016040518091039020548152602001908152602001600020600401541115156134cc5760009050613553565b4360046000600d856040518082805190602001908083835b60208310151561350957805182526020820191506020810190506020830392506134e4565b6001836020036101000a0380198251168184511680821785525050505050509050019150509081526020016040518091039020548152602001908152602001600020600401540390505b919050565b600360009054906101000a900473ffffffffffffffffffffffffffffffffffffffff1673ffffffffffffffffffffffffffffffffffffffff163373ffffffffffffffffffffffffffffffffffffffff161415156135b457600080fd5b80600f8190555050565b60175481565b600f5481565b600060046000600d846040518082805190602001908083835b60208310151561360857805182526020820191506020810190506020830392506135e3565b6001836020036101000a0380198251168184511680821785525050505050509050019150509081526020016040518091039020548152602001908152602001600020600301549050919050565b60006012544381151561366457fe5b061015801561368257506013546012544381151561367e57fe5b0611155b151561368d57600080fd5b60006136ac60155461369e33612c2b565b6149ff90919063ffffffff16565b90506136c360145482614a1a90919063ffffffff16565b503373ffffffffffffffffffffffffffffffffffffffff166108fc6136f9836136eb33612c2b565b6146c190919063ffffffff16565b9081150290604051600060405180830381858888f19350505050158015613724573d6000803e3d6000fd5b506137373361373233612c2b565b614a4d565b50565b600082805190602001206001900490508173ffffffffffffffffffffffffffffffffffffffff166004600083815260200190815260200160002060000160009054906101000a900473ffffffffffffffffffffffffffffffffffffffff1673ffffffffffffffffffffffffffffffffffffffff161415156137ba57600080fd5b600460008281526020019081526020016000206006015460046000838152602001908152602001600020600301541115156137f457600080fd5b600115156004600083815260200190815260200160002060050160009054906101000a900460ff16151514151561382a57600080fd5b4360046000838152602001908152602001600020600401541015151561384f57600080fd5b60006011543481151561385e57fe5b04905061387d3361387883346146a890919063ffffffff16565b614af4565b60003490506138b681600460008880519060200120600190048152602001908152602001600020600701546146c190919063ffffffff16565b506138ca82826146a890919063ffffffff16565b506138f48160046000868152602001908152602001600020600801546146c190919063ffffffff16565b5061391e8160046000868152602001908152602001600020600601546146c190919063ffffffff16565b505050505050565b6000600160008473ffffffffffffffffffffffffffffffffffffffff1673ffffffffffffffffffffffffffffffffffffffff16815260200190815260200160002060008373ffffffffffffffffffffffffffffffffffffffff1673ffffffffffffffffffffffffffffffffffffffff16815260200190815260200160002054905092915050565b60105481565b6060600860003373ffffffffffffffffffffffffffffffffffffffff1673ffffffffffffffffffffffffffffffffffffffff168152602001908152602001600020805480602002602001604051908101604052809291908181526020018280548015613a3e57602002820191906000526020600020905b815481526020019060010190808311613a2a575b5050505050905090565b60185481565b600360009054906101000a900473ffffffffffffffffffffffffffffffffffffffff1673ffffffffffffffffffffffffffffffffffffffff163373ffffffffffffffffffffffffffffffffffffffff16141515613aaa57600080fd5b600073ffffffffffffffffffffffffffffffffffffffff168173ffffffffffffffffffffffffffffffffffffffff1614151515613ae657600080fd5b8073ffffffffffffffffffffffffffffffffffffffff16600360009054906101000a900473ffffffffffffffffffffffffffffffffffffffff1673ffffffffffffffffffffffffffffffffffffffff167f8be0079c531659141344cd1fd0a4f28419497f9722a3daafe3b4186f6b6457e060405160405180910390a380600360006101000a81548173ffffffffffffffffffffffffffffffffffffffff021916908373ffffffffffffffffffffffffffffffffffffffff16021790555050565b34601654141515613bb657600080fd5b6000600a836040518082805190602001908083835b602083101515613bf05780518252602082019150602081019050602083039250613bcb565b6001836020036101000a038019825116818451168082178552505050505050905001915050908152602001604051809103902054141515613c3057600080fd5b600073ffffffffffffffffffffffffffffffffffffffff16600c826040518082805190602001908083835b602083101515613c805780518252602082019150602081019050602083039250613c5b565b6001836020036101000a038019825116818451168082178552505050505050905001915050908152602001604051809103902060009054906101000a900473ffffffffffffffffffffffffffffffffffffffff1673ffffffffffffffffffffffffffffffffffffffff16141515613cf657600080fd5b33600c826040518082805190602001908083835b602083101515613d2f5780518252602082019150602081019050602083039250613d0a565b6001836020036101000a038019825116818451168082178552505050505050905001915050908152602001604051809103902060006101000a81548173ffffffffffffffffffffffffffffffffffffffff021916908373ffffffffffffffffffffffffffffffffffffffff1602179055506000828051906020012060019004905080600a846040518082805190602001908083835b602083101515613de95780518252602082019150602081019050602083039250613dc4565b6001836020036101000a038019825116818451168082178552505050505050905001915050908152602001604051809103902081905550336009846040518082805190602001908083835b602083101515613e595780518252602082019150602081019050602083039250613e34565b6001836020036101000a038019825116818451168082178552505050505050905001915050908152602001604051809103902060006101000a81548173ffffffffffffffffffffffffffffffffffffffff021916908373ffffffffffffffffffffffffffffffffffffffff160217905550600860003373ffffffffffffffffffffffffffffffffffffffff1673ffffffffffffffffffffffffffffffffffffffff16815260200190815260200160002081908060018154018082558091505090600182039060005260206000200160009091929091909150555082600760008381526020019081526020016000209080519060200190613f5a929190614d9c565b50600b836040518082805190602001908083835b602083101515613f935780518252602082019150602081019050602083039250613f6e565b6001836020036101000a03801982511681845116808217855250505050505090500191505090815260200160405180910390203390806001815401808255809150509060018203906000526020600020016000909192909190916101000a81548173ffffffffffffffffffffffffffffffffffffffff021916908373ffffffffffffffffffffffffffffffffffffffff16021790555050600560003373ffffffffffffffffffffffffffffffffffffffff1673ffffffffffffffffffffffffffffffffffffffff16815260200190815260200160002081908060018154018082558091505090600182039060005260206000200160009091929091909150555061409e8284336146df565b505050565b600360009054906101000a900473ffffffffffffffffffffffffffffffffffffffff1673ffffffffffffffffffffffffffffffffffffffff163373ffffffffffffffffffffffffffffffffffffffff161415156140ff57600080fd5b8060148190555050565b600360009054906101000a900473ffffffffffffffffffffffffffffffffffffffff1673ffffffffffffffffffffffffffffffffffffffff163373ffffffffffffffffffffffffffffffffffffffff1614151561416557600080fd5b8060108190555050565b600360009054906101000a900473ffffffffffffffffffffffffffffffffffffffff1673ffffffffffffffffffffffffffffffffffffffff163373ffffffffffffffffffffffffffffffffffffffff161415156141cb57600080fd5b8060128190555050565b3373ffffffffffffffffffffffffffffffffffffffff16600c836040518082805190602001908083835b60208310151561422457805182526020820191506020810190506020830392506141ff565b6001836020036101000a038019825116818451168082178552505050505050905001915050908152602001604051809103902060009054906101000a900473ffffffffffffffffffffffffffffffffffffffff1673ffffffffffffffffffffffffffffffffffffffff1614151561429a57600080fd5b60008280519060200120600190049050600015156004600083815260200190815260200160002060050160009054906101000a900460ff1615151415156142e057600080fd5b84600460008381526020019081526020016000206003018190555060016004600083815260200190815260200160002060050160006101000a81548160ff021916908315150217905550834301600460008381526020019081526020016000206004018190555081600460008381526020019081526020016000206009019080519060200190614371929190614d9c565b505050505050565b600073ffffffffffffffffffffffffffffffffffffffff168273ffffffffffffffffffffffffffffffffffffffff16141515156143b557600080fd5b600073ffffffffffffffffffffffffffffffffffffffff168373ffffffffffffffffffffffffffffffffffffffff16141515156143f157600080fd5b80600160008573ffffffffffffffffffffffffffffffffffffffff1673ffffffffffffffffffffffffffffffffffffffff16815260200190815260200160002060008473ffffffffffffffffffffffffffffffffffffffff1673ffffffffffffffffffffffffffffffffffffffff168152602001908152602001600020819055508173ffffffffffffffffffffffffffffffffffffffff168373ffffffffffffffffffffffffffffffffffffffff167f8c5be1e5ebec7d5bd14f71427d1e84f3dd0314c0f7b2291e5b200ac8c7c3b925836040518082815260200191505060405180910390a3505050565b600073ffffffffffffffffffffffffffffffffffffffff168273ffffffffffffffffffffffffffffffffffffffff161415151561451857600080fd5b614569816000808673ffffffffffffffffffffffffffffffffffffffff1673ffffffffffffffffffffffffffffffffffffffff168152602001908152602001600020546146a890919063ffffffff16565b6000808573ffffffffffffffffffffffffffffffffffffffff1673ffffffffffffffffffffffffffffffffffffffff168152602001908152602001600020819055506145fc816000808573ffffffffffffffffffffffffffffffffffffffff1673ffffffffffffffffffffffffffffffffffffffff168152602001908152602001600020546146c190919063ffffffff16565b6000808473ffffffffffffffffffffffffffffffffffffffff1673ffffffffffffffffffffffffffffffffffffffff168152602001908152602001600020819055508173ffffffffffffffffffffffffffffffffffffffff168373ffffffffffffffffffffffffffffffffffffffff167fddf252ad1be2c89b69c2b068fc378daa952ba7f163c4a11628f55a4df523b3ef836040518082815260200191505060405180910390a3505050565b60008282111515156146b657fe5b818303905092915050565b60008082840190508381101515156146d557fe5b8091505092915050565b60008380519060200120600190049050600083805190602001206001900490508273ffffffffffffffffffffffffffffffffffffffff16600c866040518082805190602001908083835b60208310151561474e5780518252602082019150602081019050602083039250614729565b6001836020036101000a038019825116818451168082178552505050505050905001915050908152602001604051809103902060009054906101000a900473ffffffffffffffffffffffffffffffffffffffff1673ffffffffffffffffffffffffffffffffffffffff161415156147c457600080fd5b60006004600084815260200190815260200160002060050160006101000a81548160ff0219169083151502179055508460046000848152602001908152602001600020600101908051906020019061481d929190614d9c565b5083600460008481526020019081526020016000206002019080519060200190614848929190614d9c565b50336004600084815260200190815260200160002060000160006101000a81548173ffffffffffffffffffffffffffffffffffffffff021916908373ffffffffffffffffffffffffffffffffffffffff1602179055506006846040518082805190602001908083835b6020831015156148d657805182526020820191506020810190506020830392506148b1565b6001836020036101000a038019825116818451168082178552505050505050905001915050908152602001604051809103902082908060018154018082558091505090600182039060005260206000200160009091929091909150555081600d866040518082805190602001908083835b60208310151561496c5780518252602082019150602081019050602083039250614947565b6001836020036101000a03801982511681845116808217855250505050505090500191505090815260200160405180910390208190555081600e600083815260200190815260200160002060003373ffffffffffffffffffffffffffffffffffffffff1673ffffffffffffffffffffffffffffffffffffffff168152602001908152602001600020819055505050505050565b6000808284811515614a0d57fe5b0490508091505092915050565b60008082840290506000841480614a3b5750828482811515614a3857fe5b04145b1515614a4357fe5b8091505092915050565b614a578282614c48565b614af08233614aeb84600160008873ffffffffffffffffffffffffffffffffffffffff1673ffffffffffffffffffffffffffffffffffffffff16815260200190815260200160002060003373ffffffffffffffffffffffffffffffffffffffff1673ffffffffffffffffffffffffffffffffffffffff168152602001908152602001600020546146a890919063ffffffff16565b614379565b5050565b600073ffffffffffffffffffffffffffffffffffffffff168273ffffffffffffffffffffffffffffffffffffffff1614151515614b3057600080fd5b614b45816002546146c190919063ffffffff16565b600281905550614b9c816000808573ffffffffffffffffffffffffffffffffffffffff1673ffffffffffffffffffffffffffffffffffffffff168152602001908152602001600020546146c190919063ffffffff16565b6000808473ffffffffffffffffffffffffffffffffffffffff1673ffffffffffffffffffffffffffffffffffffffff168152602001908152602001600020819055508173ffffffffffffffffffffffffffffffffffffffff16600073ffffffffffffffffffffffffffffffffffffffff167fddf252ad1be2c89b69c2b068fc378daa952ba7f163c4a11628f55a4df523b3ef836040518082815260200191505060405180910390a35050565b600073ffffffffffffffffffffffffffffffffffffffff168273ffffffffffffffffffffffffffffffffffffffff1614151515614c8457600080fd5b614c99816002546146a890919063ffffffff16565b600281905550614cf0816000808573ffffffffffffffffffffffffffffffffffffffff1673ffffffffffffffffffffffffffffffffffffffff168152602001908152602001600020546146a890919063ffffffff16565b6000808473ffffffffffffffffffffffffffffffffffffffff1673ffffffffffffffffffffffffffffffffffffffff16815260200190815260200160002081905550600073ffffffffffffffffffffffffffffffffffffffff168273ffffffffffffffffffffffffffffffffffffffff167fddf252ad1be2c89b69c2b068fc378daa952ba7f163c4a11628f55a4df523b3ef836040518082815260200191505060405180910390a35050565b828054600181600116156101000203166002900490600052602060002090601f016020900481019282601f10614ddd57805160ff1916838001178555614e0b565b82800160010185558215614e0b579182015b82811115614e0a578251825591602001919060010190614def565b5b509050614e189190614e1c565b5090565b614e3e91905b80821115614e3a576000816000905550600101614e22565b5090565b9056fea165627a7a72305820343c90c883fc8fa39ea559a94ab879027d1df2e776061d5d000b52f5928962ed0029",
  "source": "pragma solidity ^0.5.0;\n\nimport \"./Gimicoin.sol\";\nimport \"./Ownable.sol\";\n\ncontract Cagnottes is Gimicoin, Ownable{\n\nmapping (uint => channel) private mappChannel;\nmapping (address => uint[]) private mappGroupesForAddress;\nmapping (string => uint[]) private mappGroupeAndChannels;\nmapping (uint => string) private mappIDGroupe;\nmapping (address => uint[]) private mappOwnedGroup;\nmapping (string => address) private mappGroupeOwner;\nmapping (string => uint) private mappNomGroupe;\nmapping (string => address[]) private mappGroupe;\nmapping (string => address) private mappPseudo;\nmapping (string => uint) private mappPseudoToID;\nmapping (uint => mapping (address => uint)) private mappPseudoInGroup;\n\nuint public MAX_AMOUNT;\nuint public MIN_AMOUNT;\nuint public PRICE_RATIO;\nuint public TIME_TOKEN_WITHDRAW;\nuint public LAPS_TIME_TOKEN_WITHDRAW;\nuint public TOKEN_BONUS;\nuint public DESERVERVE_BONUS;\nuint public PRICE_GROUP;\nuint public PRICE_MEMBRE;\nuint public PRICE_CHANNEL;\n\nstruct channel\n{\n  address demandeur;\n  string pseudo;\n  string groupe;\n  uint montant;\n  uint blocFermeture;\n  bool actif;\n  uint enCours;\n  uint donnations;\n  uint receptions;\n  string description;\n}\n\nconstructor() public\n{\n  MAX_AMOUNT = 10000000000000;\n  MIN_AMOUNT = 10000;\n  PRICE_RATIO = 100;\n  TIME_TOKEN_WITHDRAW = 10000000000;\n  LAPS_TIME_TOKEN_WITHDRAW = 100000;\n  TOKEN_BONUS = 0;\n  DESERVERVE_BONUS = 1000000;\n  PRICE_GROUP = 100;\n  PRICE_MEMBRE = 10;\n  PRICE_CHANNEL = 1;\n}\n\nfunction creerGroupe(string memory _nom, string memory _pseudo) payable public\n{\n  require(PRICE_GROUP == msg.value);\n  require(mappNomGroupe[_nom] == 0);\n  require(mappPseudo[_pseudo] == address(0));\n  mappPseudo[_pseudo] = msg.sender;\n  uint IDGroupe = uint(keccak256(bytes(_nom)));\n  mappNomGroupe[_nom] = IDGroupe;\n  mappGroupeOwner[_nom] = msg.sender;\n  mappOwnedGroup[msg.sender].push(IDGroupe);\n  mappIDGroupe[IDGroupe] = _nom;\n  mappGroupe[_nom].push(msg.sender);\n  mappGroupesForAddress[msg.sender].push(IDGroupe);\n  creerCanal(_pseudo, _nom, msg.sender);\n}\n\nfunction ajouterMembre(address _membre, string memory _groupe, string memory _pseudo) payable public\n{\n  require(PRICE_MEMBRE == msg.value);\n  require(mappPseudo[_pseudo] == address(0));\n  require(mappGroupeOwner[_groupe] == msg.sender);\n  mappPseudo[_pseudo] = _membre;\n  uint IDGroupe = uint(keccak256(bytes(_groupe)));\n  mappGroupesForAddress[_membre].push(IDGroupe);\n  mappGroupe[_groupe].push(_membre);\n  creerCanal(_pseudo, _groupe, _membre);\n}\n\nfunction creerCanal(string memory _pseudo, string memory _groupe, address _membre) private\n{\n  uint channelID = uint(keccak256(bytes(_pseudo)));\n  uint groupeID = uint(keccak256(bytes(_groupe)));\n  require(mappPseudo[_pseudo] == _membre);\n  mappChannel[channelID].actif = false;\n  mappChannel[channelID].pseudo = _pseudo;\n  mappChannel[channelID].groupe = _groupe;\n  mappChannel[channelID].demandeur = msg.sender;\n  mappGroupeAndChannels[_groupe].push(channelID);\n  mappPseudoToID[_pseudo] = channelID;\n  mappPseudoInGroup[groupeID][msg.sender] = channelID;\n}\n\nfunction demander(uint _montant, uint _delai, string memory _pseudo, string memory _description) public\n{\n  require(mappPseudo[_pseudo] == msg.sender);\n  uint channelID = uint(keccak256(bytes(_pseudo)));\n  require(mappChannel[channelID].actif == false);\n  mappChannel[channelID].montant = _montant;\n  mappChannel[channelID].actif = true;\n  mappChannel[channelID].blocFermeture = block.number+_delai;\n  mappChannel[channelID].description = _description;\n}\n\nfunction payerCanal(string memory _pseudo, address _address) public payable\n{\n  uint _channelID = uint(keccak256(bytes(_pseudo)));\n  require(mappChannel[_channelID].demandeur == _address);\n  require(mappChannel[_channelID].montant > mappChannel[_channelID].enCours);\n  require(mappChannel[_channelID].actif == true);\n  require(mappChannel[_channelID].blocFermeture >= block.number);\n  uint fees = uint(msg.value / PRICE_RATIO);\n  _mint(msg.sender,msg.value.sub(fees));\n  uint addValue = msg.value;\n  mappChannel[uint(keccak256(bytes(_pseudo)))].donnations.add(addValue);\n  addValue.sub(fees);\n  mappChannel[_channelID].receptions.add(addValue);\n  mappChannel[_channelID].enCours.add(addValue);\n}\n\nfunction fermetureCanal(string memory _pseudo) public\n{\n  uint _channelID = uint(keccak256(bytes(_pseudo)));\n  require(mappChannel[_channelID].actif == true);\n  require(mappChannel[_channelID].demandeur == msg.sender);\n  msg.sender.transfer(mappChannel[_channelID].enCours);\n  mappChannel[_channelID].enCours = 0;\n  mappChannel[_channelID].montant = 0;\n  mappChannel[_channelID].blocFermeture = 0;\n  mappChannel[_channelID].actif = false;\n  mappChannel[_channelID].description = \"\";\n}\n\nfunction withdrawEther(uint _amount) public onlyOwner\n{\n  msg.sender.transfer(_amount);\n}\n\nfunction tokenToEther() public\n{\n  require(block.number % TIME_TOKEN_WITHDRAW  >= 0 && block.number % TIME_TOKEN_WITHDRAW <= LAPS_TIME_TOKEN_WITHDRAW);\n  uint monBonus = uint(balanceOf(msg.sender).div(DESERVERVE_BONUS));\n  monBonus.mul(TOKEN_BONUS);\n  msg.sender.transfer(balanceOf(msg.sender).add(monBonus));\n  _burnFrom(msg.sender,balanceOf(msg.sender));\n}\n\nfunction modifierMeriteBonus(uint _seuil) public onlyOwner\n{\n  DESERVERVE_BONUS = _seuil;\n}\n\nfunction modifierTokenBonus(uint _tokenBonus) public onlyOwner\n{\n  TOKEN_BONUS = _tokenBonus;\n}\n\nfunction modifierLapsTimeToWithdraw(uint _laspsTime) public onlyOwner\n{\n  LAPS_TIME_TOKEN_WITHDRAW = _laspsTime;\n}\n\nfunction modifierTimeToWithdraw(uint _TimeToWithdraw) public onlyOwner\n{\n  TIME_TOKEN_WITHDRAW = _TimeToWithdraw;\n}\n\nfunction modifierMaxAmount(uint _maxAmount) public onlyOwner\n{\n  MAX_AMOUNT = _maxAmount;\n}\n\nfunction modifierMinAmount(uint _minAmount) public onlyOwner\n{\n  MIN_AMOUNT = _minAmount;\n}\n\nfunction modifierCharges(uint _priceChannel) public onlyOwner\n{\n  PRICE_RATIO = _priceChannel;\n}\n\nfunction modifierPriceGroup(uint _priceGroup) public onlyOwner\n{\n  PRICE_GROUP = _priceGroup;\n}\n\nfunction modifierPriceMember(uint _priceMember) public onlyOwner\n{\n  PRICE_MEMBRE = _priceMember;\n}\n\nfunction modifierPriceDemand(uint _priceDemand) public onlyOwner\n{\n  PRICE_CHANNEL = _priceDemand;\n}\n\nfunction getGroupesPerAddress() public view returns (uint[] memory)\n{\n  return mappGroupesForAddress[msg.sender];\n}\n\nfunction getMembres(string memory _groupe) public view returns (uint[] memory)\n{\n  return mappGroupeAndChannels[_groupe];\n}\n\nfunction getNomMembre(uint _ID) public view returns (string memory)\n{\n  return mappChannel[_ID].pseudo;\n}\n\nfunction getGroupe(string memory _pseudo) public view returns (string memory)\n{\n  return mappChannel[mappPseudoToID[_pseudo]].groupe;\n}\n\nfunction getMontant(string memory _pseudo) public view returns (uint)\n{\n  return mappChannel[mappPseudoToID[_pseudo]].montant;\n}\n\nfunction getBlockFermeture(string memory _pseudo) public view returns (uint)\n{\n  return mappChannel[mappPseudoToID[_pseudo]].blocFermeture;\n}\n\nfunction getEncours(string memory _pseudo) public view returns (uint)\n{\n  return mappChannel[mappPseudoToID[_pseudo]].enCours;\n}\n\nfunction getDonnations(string memory _pseudo) public view returns (uint)\n{\n  return mappChannel[mappPseudoToID[_pseudo]].donnations;\n}\n\nfunction getDemandeur(string memory _pseudo) public view returns (address)\n{\n  return mappChannel[mappPseudoToID[_pseudo]].demandeur;\n}\n\nfunction getReceptions(string memory _pseudo) public view returns (uint)\n{\n  return mappChannel[mappPseudoToID[_pseudo]].receptions;\n}\n\nfunction getDescription(string memory _pseudo) public view returns (string memory)\n{\n  return mappChannel[mappPseudoToID[_pseudo]].description;\n}\n\nfunction getTime(string memory _pseudo) public view returns (uint)\n{\n  if (mappChannel[mappPseudoToID[_pseudo]].blocFermeture <= block.number)\n  {\n    return 0;\n  }\n  else return mappChannel[mappPseudoToID[_pseudo]].blocFermeture - block.number;\n}\n\nfunction getNomGroupe(uint _ID) public view returns (string memory)\n{\n  return mappIDGroupe[_ID];\n}\n\nfunction getOwnedGroupe() public view returns (uint[] memory)\n{\n  return mappOwnedGroup[msg.sender];\n}\n\nfunction getPseudoInGroup(string memory _groupe) public view returns (string memory)\n{\n  uint IDGroupe = uint(keccak256(bytes(_groupe)));\n  return mappChannel[mappPseudoInGroup[IDGroupe][msg.sender]].pseudo;\n}\n\n}\n",
  "sourcePath": "/Users/germaindacunha/Desktop/Alyra/project/src/contracts/Cagnottes.sol",
  "compiler": {
    "name": "solc",
    "version": "0.5.0+commit.1d4f565a.Emscripten.clang"
  },
  "schemaVersion": "3.0.2",
  "updatedAt": "2019-03-27T16:49:04.679Z",
  "devdoc": {
    "methods": {
      "allowance(address,address)": {
        "details": "Function to check the amount of tokens that an owner allowed to a spender.",
        "params": {
          "owner": "address The address which owns the funds.",
          "spender": "address The address which will spend the funds."
        },
        "return": "A uint256 specifying the amount of tokens still available for the spender."
      },
      "approve(address,uint256)": {
        "details": "Approve the passed address to spend the specified amount of tokens on behalf of msg.sender. Beware that changing an allowance with this method brings the risk that someone may use both the old and the new allowance by unfortunate transaction ordering. One possible solution to mitigate this race condition is to first reduce the spender's allowance to 0 and set the desired value afterwards: https://github.com/ethereum/EIPs/issues/20#issuecomment-263524729",
        "params": {
          "spender": "The address which will spend the funds.",
          "value": "The amount of tokens to be spent."
        }
      },
      "balanceOf(address)": {
        "details": "Gets the balance of the specified address.",
        "params": {
          "owner": "The address to query the balance of."
        },
        "return": "A uint256 representing the amount owned by the passed address."
      },
      "decreaseAllowance(address,uint256)": {
        "details": "Decrease the amount of tokens that an owner allowed to a spender. approve should be called when _allowed[msg.sender][spender] == 0. To decrement allowed value is better to use this function to avoid 2 calls (and wait until the first transaction is mined) From MonolithDAO Token.sol Emits an Approval event.",
        "params": {
          "spender": "The address which will spend the funds.",
          "subtractedValue": "The amount of tokens to decrease the allowance by."
        }
      },
      "increaseAllowance(address,uint256)": {
        "details": "Increase the amount of tokens that an owner allowed to a spender. approve should be called when _allowed[msg.sender][spender] == 0. To increment allowed value is better to use this function to avoid 2 calls (and wait until the first transaction is mined) From MonolithDAO Token.sol Emits an Approval event.",
        "params": {
          "addedValue": "The amount of tokens to increase the allowance by.",
          "spender": "The address which will spend the funds."
        }
      },
      "totalSupply()": {
        "details": "Total number of tokens in existence"
      },
      "transfer(address,uint256)": {
        "details": "Transfer token to a specified address",
        "params": {
          "to": "The address to transfer to.",
          "value": "The amount to be transferred."
        }
      },
      "transferFrom(address,address,uint256)": {
        "details": "Transfer tokens from one address to another. Note that while this function emits an Approval event, this is not required as per the specification, and other compliant implementations may not emit the event.",
        "params": {
          "from": "address The address which you want to send tokens from",
          "to": "address The address which you want to transfer to",
          "value": "uint256 the amount of tokens to be transferred"
        }
      },
      "transferOwnership(address)": {
        "details": "Allows the current owner to transfer control of the contract to a newOwner.",
        "params": {
          "newOwner": "The address to transfer ownership to."
        }
      }
    }
  },
  "userdoc": {
    "methods": {}
  }
}