{
  "contractName": "Cagnottes",
  "abi": [
    {
      "constant": true,
      "inputs": [],
      "name": "name",
      "outputs": [
        {
          "name": "",
          "type": "string"
        }
      ],
      "payable": false,
      "stateMutability": "view",
      "type": "function"
    },
    {
      "constant": false,
      "inputs": [
        {
          "name": "spender",
          "type": "address"
        },
        {
          "name": "value",
          "type": "uint256"
        }
      ],
      "name": "approve",
      "outputs": [
        {
          "name": "",
          "type": "bool"
        }
      ],
      "payable": false,
      "stateMutability": "nonpayable",
      "type": "function"
    },
    {
      "constant": true,
      "inputs": [],
      "name": "totalSupply",
      "outputs": [
        {
          "name": "",
          "type": "uint256"
        }
      ],
      "payable": false,
      "stateMutability": "view",
      "type": "function"
    },
    {
      "constant": false,
      "inputs": [
        {
          "name": "from",
          "type": "address"
        },
        {
          "name": "to",
          "type": "address"
        },
        {
          "name": "value",
          "type": "uint256"
        }
      ],
      "name": "transferFrom",
      "outputs": [
        {
          "name": "",
          "type": "bool"
        }
      ],
      "payable": false,
      "stateMutability": "nonpayable",
      "type": "function"
    },
    {
      "constant": true,
      "inputs": [],
      "name": "myGimicoin",
      "outputs": [
        {
          "name": "",
          "type": "address"
        }
      ],
      "payable": false,
      "stateMutability": "view",
      "type": "function"
    },
    {
      "constant": true,
      "inputs": [],
      "name": "decimals",
      "outputs": [
        {
          "name": "",
          "type": "uint32"
        }
      ],
      "payable": false,
      "stateMutability": "view",
      "type": "function"
    },
    {
      "constant": false,
      "inputs": [
        {
          "name": "spender",
          "type": "address"
        },
        {
          "name": "addedValue",
          "type": "uint256"
        }
      ],
      "name": "increaseAllowance",
      "outputs": [
        {
          "name": "",
          "type": "bool"
        }
      ],
      "payable": false,
      "stateMutability": "nonpayable",
      "type": "function"
    },
    {
      "constant": true,
      "inputs": [
        {
          "name": "owner",
          "type": "address"
        }
      ],
      "name": "balanceOf",
      "outputs": [
        {
          "name": "",
          "type": "uint256"
        }
      ],
      "payable": false,
      "stateMutability": "view",
      "type": "function"
    },
    {
      "constant": true,
      "inputs": [],
      "name": "owner",
      "outputs": [
        {
          "name": "",
          "type": "address"
        }
      ],
      "payable": false,
      "stateMutability": "view",
      "type": "function"
    },
    {
      "constant": true,
      "inputs": [],
      "name": "symbol",
      "outputs": [
        {
          "name": "",
          "type": "string"
        }
      ],
      "payable": false,
      "stateMutability": "view",
      "type": "function"
    },
    {
      "constant": false,
      "inputs": [
        {
          "name": "account",
          "type": "address"
        },
        {
          "name": "value",
          "type": "uint256"
        }
      ],
      "name": "_burnFrom",
      "outputs": [],
      "payable": false,
      "stateMutability": "nonpayable",
      "type": "function"
    },
    {
      "constant": false,
      "inputs": [
        {
          "name": "spender",
          "type": "address"
        },
        {
          "name": "subtractedValue",
          "type": "uint256"
        }
      ],
      "name": "decreaseAllowance",
      "outputs": [
        {
          "name": "",
          "type": "bool"
        }
      ],
      "payable": false,
      "stateMutability": "nonpayable",
      "type": "function"
    },
    {
      "constant": false,
      "inputs": [
        {
          "name": "to",
          "type": "address"
        },
        {
          "name": "value",
          "type": "uint256"
        }
      ],
      "name": "transfer",
      "outputs": [
        {
          "name": "",
          "type": "bool"
        }
      ],
      "payable": false,
      "stateMutability": "nonpayable",
      "type": "function"
    },
    {
      "constant": true,
      "inputs": [
        {
          "name": "owner",
          "type": "address"
        },
        {
          "name": "spender",
          "type": "address"
        }
      ],
      "name": "allowance",
      "outputs": [
        {
          "name": "",
          "type": "uint256"
        }
      ],
      "payable": false,
      "stateMutability": "view",
      "type": "function"
    },
    {
      "constant": false,
      "inputs": [
        {
          "name": "newOwner",
          "type": "address"
        }
      ],
      "name": "transferOwnership",
      "outputs": [],
      "payable": false,
      "stateMutability": "nonpayable",
      "type": "function"
    },
    {
      "inputs": [
        {
          "name": "_maxMembre",
          "type": "uint256"
        },
        {
          "name": "_maxDelai",
          "type": "uint256"
        },
        {
          "name": "_maxAmount",
          "type": "uint256"
        },
        {
          "name": "_priceChannel",
          "type": "uint256"
        }
      ],
      "payable": false,
      "stateMutability": "nonpayable",
      "type": "constructor"
    },
    {
      "anonymous": false,
      "inputs": [
        {
          "indexed": true,
          "name": "previousOwner",
          "type": "address"
        },
        {
          "indexed": true,
          "name": "newOwner",
          "type": "address"
        }
      ],
      "name": "OwnershipTransferred",
      "type": "event"
    },
    {
      "anonymous": false,
      "inputs": [
        {
          "indexed": true,
          "name": "from",
          "type": "address"
        },
        {
          "indexed": true,
          "name": "to",
          "type": "address"
        },
        {
          "indexed": false,
          "name": "value",
          "type": "uint256"
        }
      ],
      "name": "Transfer",
      "type": "event"
    },
    {
      "anonymous": false,
      "inputs": [
        {
          "indexed": true,
          "name": "owner",
          "type": "address"
        },
        {
          "indexed": true,
          "name": "spender",
          "type": "address"
        },
        {
          "indexed": false,
          "name": "value",
          "type": "uint256"
        }
      ],
      "name": "Approval",
      "type": "event"
    },
    {
      "constant": false,
      "inputs": [
        {
          "name": "_maxDelai",
          "type": "uint256"
        }
      ],
      "name": "modifierDelai",
      "outputs": [],
      "payable": false,
      "stateMutability": "nonpayable",
      "type": "function"
    },
    {
      "constant": false,
      "inputs": [
        {
          "name": "_maxMembre",
          "type": "uint256"
        }
      ],
      "name": "modifierMaxMembre",
      "outputs": [],
      "payable": false,
      "stateMutability": "nonpayable",
      "type": "function"
    },
    {
      "constant": false,
      "inputs": [
        {
          "name": "_priceChannel",
          "type": "uint256"
        }
      ],
      "name": "modifierMaxAmount",
      "outputs": [],
      "payable": false,
      "stateMutability": "nonpayable",
      "type": "function"
    },
    {
      "constant": false,
      "inputs": [
        {
          "name": "_priceChannel",
          "type": "uint256"
        }
      ],
      "name": "modifierPriceChannel",
      "outputs": [],
      "payable": false,
      "stateMutability": "nonpayable",
      "type": "function"
    },
    {
      "constant": false,
      "inputs": [],
      "name": "creerGroupe",
      "outputs": [],
      "payable": false,
      "stateMutability": "nonpayable",
      "type": "function"
    },
    {
      "constant": false,
      "inputs": [
        {
          "name": "_groupe",
          "type": "uint256"
        },
        {
          "name": "_montant",
          "type": "uint256"
        },
        {
          "name": "_delai",
          "type": "uint256"
        },
        {
          "name": "_pseudo",
          "type": "string"
        },
        {
          "name": "contratCible",
          "type": "address"
        }
      ],
      "name": "creerCanal",
      "outputs": [],
      "payable": true,
      "stateMutability": "payable",
      "type": "function"
    },
    {
      "constant": false,
      "inputs": [
        {
          "name": "_groupe",
          "type": "uint256"
        },
        {
          "name": "_channelID",
          "type": "uint256"
        },
        {
          "name": "_pseudo",
          "type": "string"
        },
        {
          "name": "_token",
          "type": "uint256"
        }
      ],
      "name": "payerCanal",
      "outputs": [],
      "payable": true,
      "stateMutability": "payable",
      "type": "function"
    },
    {
      "constant": false,
      "inputs": [
        {
          "name": "_channelID",
          "type": "uint256"
        },
        {
          "name": "_groupe",
          "type": "uint256"
        }
      ],
      "name": "fermetureCanal",
      "outputs": [],
      "payable": false,
      "stateMutability": "nonpayable",
      "type": "function"
    },
    {
      "constant": false,
      "inputs": [
        {
          "name": "_membre",
          "type": "address"
        },
        {
          "name": "_groupe",
          "type": "uint256"
        },
        {
          "name": "_pseudo",
          "type": "string"
        }
      ],
      "name": "ajouterMembre",
      "outputs": [],
      "payable": false,
      "stateMutability": "nonpayable",
      "type": "function"
    },
    {
      "constant": false,
      "inputs": [
        {
          "name": "_membre",
          "type": "address"
        },
        {
          "name": "_groupe",
          "type": "uint256"
        }
      ],
      "name": "ajouterAdmin",
      "outputs": [],
      "payable": false,
      "stateMutability": "nonpayable",
      "type": "function"
    },
    {
      "constant": false,
      "inputs": [
        {
          "name": "_address",
          "type": "address"
        }
      ],
      "name": "getGroupesPerAddress",
      "outputs": [],
      "payable": false,
      "stateMutability": "nonpayable",
      "type": "function"
    },
    {
      "constant": false,
      "inputs": [
        {
          "name": "groupe",
          "type": "uint256"
        }
      ],
      "name": "getMembresAndStat",
      "outputs": [],
      "payable": false,
      "stateMutability": "nonpayable",
      "type": "function"
    }
  ],
  "bytecode": "0x60806040526040805190810160405280600881526020017f67696d69636f696e000000000000000000000000000000000000000000000000815250600a908051906020019062000051929190620001b4565b503480156200005f57600080fd5b5060405160808062002be1833981018060405262000081919081019062000279565b33600360006101000a81548173ffffffffffffffffffffffffffffffffffffffff021916908373ffffffffffffffffffffffffffffffffffffffff160217905550600360009054906101000a900473ffffffffffffffffffffffffffffffffffffffff1673ffffffffffffffffffffffffffffffffffffffff163373ffffffffffffffffffffffffffffffffffffffff161415156200011f57600080fd5b6005841180156200013157506103e884105b15156200013d57600080fd5b83600c81905550600a83118015620001585750633b9aca0083105b15156200016457600080fd5b82600d8190555060008211801562000180575064e8d4a5100082105b15156200018c57600080fd5b81600e81905550600181111515620001a357600080fd5b80600f8190555050505050620002ef565b828054600181600116156101000203166002900490600052602060002090601f016020900481019282601f10620001f757805160ff191683800117855562000228565b8280016001018555821562000228579182015b82811115620002275782518255916020019190600101906200020a565b5b5090506200023791906200023b565b5090565b6200026091905b808211156200025c57600081600090555060010162000242565b5090565b90565b6000620002718251620002e5565b905092915050565b600080600080608085870312156200029057600080fd5b6000620002a08782880162000263565b9450506020620002b38782880162000263565b9350506040620002c68782880162000263565b9250506060620002d98782880162000263565b91505092959194509250565b6000819050919050565b6128e280620002ff6000396000f3fe60806040526004361061015f576000357c0100000000000000000000000000000000000000000000000000000000900463ffffffff16806306fdde0314610164578063095ea7b31461018f57806318160ddd146101cc5780631c064aa7146101f757806323b872dd14610220578063247e00f81461025d5780632c92f225146102885780632ea8ee04146102b1578063313ce567146102cd57806332fd19c6146102f8578063370c29f914610321578063395093511461034a5780633a53cf2e146103875780634957fa261461039e57806353732c98146103ba57806370a08231146103e35780638da5cb5b1461042057806395d89b411461044b5780639eab8f7214610476578063a22b35ce1461049f578063a457c2d7146104c8578063a9059cbb14610505578063beaf3b0d14610542578063d8bce6931461056b578063dd62ed3e14610594578063e0c989c2146105d1578063f2fde38b146105fa575b600080fd5b34801561017057600080fd5b50610179610623565b6040516101869190612701565b60405180910390f35b34801561019b57600080fd5b506101b660048036036101b1919081019061241d565b61065c565b6040516101c391906126cb565b60405180910390f35b3480156101d857600080fd5b506101e1610673565b6040516101ee9190612723565b60405180910390f35b34801561020357600080fd5b5061021e600480360361021991908101906124c0565b61067d565b005b34801561022c57600080fd5b50610247600480360361024291908101906123ce565b6106ff565b60405161025491906126cb565b60405180910390f35b34801561026957600080fd5b506102726107b0565b60405161027f91906126e6565b60405180910390f35b34801561029457600080fd5b506102af60048036036102aa9190810190612459565b6107d6565b005b6102cb60048036036102c69190810190612525565b610b08565b005b3480156102d957600080fd5b506102e2610d96565b6040516102ef919061273e565b60405180910390f35b34801561030457600080fd5b5061031f600480360361031a91908101906124e9565b610d9b565b005b34801561032d57600080fd5b50610348600480360361034391908101906124c0565b610fa7565b005b34801561035657600080fd5b50610371600480360361036c919081019061241d565b61101c565b60405161037e91906126cb565b60405180910390f35b34801561039357600080fd5b5061039c6110c1565b005b6103b860048036036103b391908101906125a0565b611231565b005b3480156103c657600080fd5b506103e160048036036103dc9190810190612369565b61160e565b005b3480156103ef57600080fd5b5061040a60048036036104059190810190612369565b611611565b6040516104179190612723565b60405180910390f35b34801561042c57600080fd5b50610435611659565b60405161044291906126b0565b60405180910390f35b34801561045757600080fd5b5061046061167f565b60405161046d9190612701565b60405180910390f35b34801561048257600080fd5b5061049d600480360361049891908101906124c0565b6116b8565b005b3480156104ab57600080fd5b506104c660048036036104c1919081019061241d565b6116bb565b005b3480156104d457600080fd5b506104ef60048036036104ea919081019061241d565b611762565b6040516104fc91906126cb565b60405180910390f35b34801561051157600080fd5b5061052c6004803603610527919081019061241d565b611807565b60405161053991906126cb565b60405180910390f35b34801561054e57600080fd5b50610569600480360361056491908101906124c0565b61181e565b005b34801561057757600080fd5b50610592600480360361058d919081019061241d565b611893565b005b3480156105a057600080fd5b506105bb60048036036105b69190810190612392565b611a7a565b6040516105c89190612723565b60405180910390f35b3480156105dd57600080fd5b506105f860048036036105f391908101906124c0565b611b01565b005b34801561060657600080fd5b50610621600480360361061c9190810190612369565b611b85565b005b6040805190810160405280600881526020017f67696d69636f696e00000000000000000000000000000000000000000000000081525081565b6000610669338484611cdd565b6001905092915050565b6000600254905090565b600360009054906101000a900473ffffffffffffffffffffffffffffffffffffffff1673ffffffffffffffffffffffffffffffffffffffff163373ffffffffffffffffffffffffffffffffffffffff161415156106d957600080fd5b6005811180156106ea57506103e881105b15156106f557600080fd5b80600c8190555050565b600061070c848484611e40565b6107a584336107a085600160008a73ffffffffffffffffffffffffffffffffffffffff1673ffffffffffffffffffffffffffffffffffffffff16815260200190815260200160002060003373ffffffffffffffffffffffffffffffffffffffff1673ffffffffffffffffffffffffffffffffffffffff1681526020019081526020016000205461200c90919063ffffffff16565b611cdd565b600190509392505050565b600460009054906101000a900473ffffffffffffffffffffffffffffffffffffffff1681565b600c5460066000848152602001908152602001600020805490501015156107fc57600080fd5b600073ffffffffffffffffffffffffffffffffffffffff166008826040518082805190602001908083835b60208310151561084c5780518252602082019150602081019050602083039250610827565b6001836020036101000a038019825116818451168082178552505050505050905001915050908152602001604051809103902060009054906101000a900473ffffffffffffffffffffffffffffffffffffffff1673ffffffffffffffffffffffffffffffffffffffff161415156108c257600080fd5b60008090505b6007600084815260200190815260200160002080549050811015610b02573373ffffffffffffffffffffffffffffffffffffffff16600760008581526020019081526020016000208281548110151561091d57fe5b9060005260206000200160009054906101000a900473ffffffffffffffffffffffffffffffffffffffff1673ffffffffffffffffffffffffffffffffffffffff161415610af557836008836040518082805190602001908083835b60208310151561099d5780518252602082019150602081019050602083039250610978565b6001836020036101000a038019825116818451168082178552505050505050905001915050908152602001604051809103902060006101000a81548173ffffffffffffffffffffffffffffffffffffffff021916908373ffffffffffffffffffffffffffffffffffffffff160217905550600960008573ffffffffffffffffffffffffffffffffffffffff1673ffffffffffffffffffffffffffffffffffffffff16815260200190815260200160002083908060018154018082558091505090600182039060005260206000200160009091929091909150555060066000600b5481526020019081526020016000208490806001815401808255809150509060018203906000526020600020016000909192909190916101000a81548173ffffffffffffffffffffffffffffffffffffffff021916908373ffffffffffffffffffffffffffffffffffffffff16021790555050610b02565b80806001019150506108c8565b50505050565b836005600085815260200190815260200160002060040154141515610b2c57600080fd5b60006001811115610b3957fe5b6005600085815260200190815260200160002060030160009054906101000a900460ff166001811115610b6857fe5b141515610b7457600080fd5b43600560008581526020019081526020016000206002015410151515610b9957600080fd5b3373ffffffffffffffffffffffffffffffffffffffff166008836040518082805190602001908083835b602083101515610be85780518252602082019150602081019050602083039250610bc3565b6001836020036101000a038019825116818451168082178552505050505050905001915050908152602001604051809103902060009054906101000a900473ffffffffffffffffffffffffffffffffffffffff1673ffffffffffffffffffffffffffffffffffffffff16141515610c5e57600080fd5b60008090505b6006600086815260200190815260200160002080549050811015610d8f573373ffffffffffffffffffffffffffffffffffffffff166006600087815260200190815260200160002082815481101515610cb957fe5b9060005260206000200160009054906101000a900473ffffffffffffffffffffffffffffffffffffffff1673ffffffffffffffffffffffffffffffffffffffff161415610d82576000600f5434811515610d0f57fe5b049050610d1c3382612025565b60003490508381019050610d3033856116bb565b8060056000878051906020012060019004815260200190815260200160002060060181905550818103905080600560008881526020019081526020016000206005016000828254019250508190555050505b8080600101915050610c64565b5050505050565b601281565b806005600084815260200190815260200160002060040154141515610dbf57600080fd5b43600560008481526020019081526020016000206002015411151515610de457600080fd5b60006001811115610df157fe5b6005600084815260200190815260200160002060030160009054906101000a900460ff166001811115610e2057fe5b141515610e2c57600080fd5b3373ffffffffffffffffffffffffffffffffffffffff166005600084815260200190815260200160002060000160009054906101000a900473ffffffffffffffffffffffffffffffffffffffff1673ffffffffffffffffffffffffffffffffffffffff16141515610e9c57600080fd5b3373ffffffffffffffffffffffffffffffffffffffff166108fc60056000858152602001908152602001600020600501549081150290604051600060405180830381858888f19350505050158015610ef8573d6000803e3d6000fd5b506000600560008481526020019081526020016000206005018190555060016005600084815260200190815260200160002060030160006101000a81548160ff02191690836001811115610f4857fe5b021790555060006005600084815260200190815260200160002060070160006101000a81548173ffffffffffffffffffffffffffffffffffffffff021916908373ffffffffffffffffffffffffffffffffffffffff1602179055505050565b600360009054906101000a900473ffffffffffffffffffffffffffffffffffffffff1673ffffffffffffffffffffffffffffffffffffffff163373ffffffffffffffffffffffffffffffffffffffff1614151561100357600080fd5b60018111151561101257600080fd5b80600f8190555050565b60006110b733846110b285600160003373ffffffffffffffffffffffffffffffffffffffff1673ffffffffffffffffffffffffffffffffffffffff16815260200190815260200160002060008973ffffffffffffffffffffffffffffffffffffffff1673ffffffffffffffffffffffffffffffffffffffff1681526020019081526020016000205461217990919063ffffffff16565b611cdd565b6001905092915050565b6001600b6000828254019250508190555060066000600b5481526020019081526020016000203390806001815401808255809150509060018203906000526020600020016000909192909190916101000a81548173ffffffffffffffffffffffffffffffffffffffff021916908373ffffffffffffffffffffffffffffffffffffffff1602179055505060076000600b5481526020019081526020016000203390806001815401808255809150509060018203906000526020600020016000909192909190916101000a81548173ffffffffffffffffffffffffffffffffffffffff021916908373ffffffffffffffffffffffffffffffffffffffff16021790555050600960003373ffffffffffffffffffffffffffffffffffffffff1673ffffffffffffffffffffffffffffffffffffffff168152602001908152602001600020600b549080600181540180825580915050906001820390600052602060002001600090919290919091505550565b3373ffffffffffffffffffffffffffffffffffffffff166008836040518082805190602001908083835b602083101515611280578051825260208201915060208101905060208303925061125b565b6001836020036101000a038019825116818451168082178552505050505050905001915050908152602001604051809103902060009054906101000a900473ffffffffffffffffffffffffffffffffffffffff1673ffffffffffffffffffffffffffffffffffffffff161415156112f657600080fd5b6000600f548581151561130557fe5b04905080341015151561131757600080fd5b60008090505b6006600088815260200190815260200160002080549050811015611605573373ffffffffffffffffffffffffffffffffffffffff16600660008981526020019081526020016000208281548110151561137257fe5b9060005260206000200160009054906101000a900473ffffffffffffffffffffffffffffffffffffffff1673ffffffffffffffffffffffffffffffffffffffff1614156115f85760008480519060200120600190049050600060018111156113d657fe5b6005600083815260200190815260200160002060030160009054906101000a900460ff16600181111561140557fe5b1415151561141257600080fd5b600073ffffffffffffffffffffffffffffffffffffffff166005600083815260200190815260200160002060070160009054906101000a900473ffffffffffffffffffffffffffffffffffffffff1673ffffffffffffffffffffffffffffffffffffffff161415151561148457600080fd5b866005600083815260200190815260200160002060010181905550823403600560008381526020019081526020016000206005018190555060006005600083815260200190815260200160002060030160006101000a81548160ff021916908360018111156114ef57fe5b02179055508543016005600083815260200190815260200160002060020181905550876005600083815260200190815260200160002060040181905550336005600083815260200190815260200160002060000160006101000a81548173ffffffffffffffffffffffffffffffffffffffff021916908373ffffffffffffffffffffffffffffffffffffffff160217905550836005600083815260200190815260200160002060070160006101000a81548173ffffffffffffffffffffffffffffffffffffffff021916908373ffffffffffffffffffffffffffffffffffffffff1602179055506000600560008381526020019081526020016000206006018190555050611605565b808060010191505061131d565b50505050505050565b50565b60008060008373ffffffffffffffffffffffffffffffffffffffff1673ffffffffffffffffffffffffffffffffffffffff168152602001908152602001600020549050919050565b600360009054906101000a900473ffffffffffffffffffffffffffffffffffffffff1681565b6040805190810160405280600381526020017f474d43000000000000000000000000000000000000000000000000000000000081525081565b50565b6116c58282612197565b61175e823361175984600160008873ffffffffffffffffffffffffffffffffffffffff1673ffffffffffffffffffffffffffffffffffffffff16815260200190815260200160002060003373ffffffffffffffffffffffffffffffffffffffff1673ffffffffffffffffffffffffffffffffffffffff1681526020019081526020016000205461200c90919063ffffffff16565b611cdd565b5050565b60006117fd33846117f885600160003373ffffffffffffffffffffffffffffffffffffffff1673ffffffffffffffffffffffffffffffffffffffff16815260200190815260200160002060008973ffffffffffffffffffffffffffffffffffffffff1673ffffffffffffffffffffffffffffffffffffffff1681526020019081526020016000205461200c90919063ffffffff16565b611cdd565b6001905092915050565b6000611814338484611e40565b6001905092915050565b600360009054906101000a900473ffffffffffffffffffffffffffffffffffffffff1673ffffffffffffffffffffffffffffffffffffffff163373ffffffffffffffffffffffffffffffffffffffff1614151561187a57600080fd5b60018111151561188957600080fd5b80600e8190555050565b60008090505b6007600083815260200190815260200160002080549050811015611a75573373ffffffffffffffffffffffffffffffffffffffff1660076000848152602001908152602001600020828154811015156118ee57fe5b9060005260206000200160009054906101000a900473ffffffffffffffffffffffffffffffffffffffff1673ffffffffffffffffffffffffffffffffffffffff161415611a685760008090505b6006600084815260200190815260200160002080549050811015611a62578373ffffffffffffffffffffffffffffffffffffffff16600660008581526020019081526020016000208281548110151561199057fe5b9060005260206000200160009054906101000a900473ffffffffffffffffffffffffffffffffffffffff1673ffffffffffffffffffffffffffffffffffffffff161415611a555760076000600b5481526020019081526020016000208490806001815401808255809150509060018203906000526020600020016000909192909190916101000a81548173ffffffffffffffffffffffffffffffffffffffff021916908373ffffffffffffffffffffffffffffffffffffffff16021790555050611a62565b808060010191505061193b565b50611a75565b8080600101915050611899565b505050565b6000600160008473ffffffffffffffffffffffffffffffffffffffff1673ffffffffffffffffffffffffffffffffffffffff16815260200190815260200160002060008373ffffffffffffffffffffffffffffffffffffffff1673ffffffffffffffffffffffffffffffffffffffff16815260200190815260200160002054905092915050565b600360009054906101000a900473ffffffffffffffffffffffffffffffffffffffff1673ffffffffffffffffffffffffffffffffffffffff163373ffffffffffffffffffffffffffffffffffffffff16141515611b5d57600080fd5b600a81118015611b705750633b9aca0081105b1515611b7b57600080fd5b80600d8190555050565b600360009054906101000a900473ffffffffffffffffffffffffffffffffffffffff1673ffffffffffffffffffffffffffffffffffffffff163373ffffffffffffffffffffffffffffffffffffffff16141515611be157600080fd5b600073ffffffffffffffffffffffffffffffffffffffff168173ffffffffffffffffffffffffffffffffffffffff1614151515611c1d57600080fd5b8073ffffffffffffffffffffffffffffffffffffffff16600360009054906101000a900473ffffffffffffffffffffffffffffffffffffffff1673ffffffffffffffffffffffffffffffffffffffff167f8be0079c531659141344cd1fd0a4f28419497f9722a3daafe3b4186f6b6457e060405160405180910390a380600360006101000a81548173ffffffffffffffffffffffffffffffffffffffff021916908373ffffffffffffffffffffffffffffffffffffffff16021790555050565b600073ffffffffffffffffffffffffffffffffffffffff168273ffffffffffffffffffffffffffffffffffffffff1614151515611d1957600080fd5b600073ffffffffffffffffffffffffffffffffffffffff168373ffffffffffffffffffffffffffffffffffffffff1614151515611d5557600080fd5b80600160008573ffffffffffffffffffffffffffffffffffffffff1673ffffffffffffffffffffffffffffffffffffffff16815260200190815260200160002060008473ffffffffffffffffffffffffffffffffffffffff1673ffffffffffffffffffffffffffffffffffffffff168152602001908152602001600020819055508173ffffffffffffffffffffffffffffffffffffffff168373ffffffffffffffffffffffffffffffffffffffff167f8c5be1e5ebec7d5bd14f71427d1e84f3dd0314c0f7b2291e5b200ac8c7c3b92583604051611e339190612723565b60405180910390a3505050565b600073ffffffffffffffffffffffffffffffffffffffff168273ffffffffffffffffffffffffffffffffffffffff1614151515611e7c57600080fd5b611ecd816000808673ffffffffffffffffffffffffffffffffffffffff1673ffffffffffffffffffffffffffffffffffffffff1681526020019081526020016000205461200c90919063ffffffff16565b6000808573ffffffffffffffffffffffffffffffffffffffff1673ffffffffffffffffffffffffffffffffffffffff16815260200190815260200160002081905550611f60816000808573ffffffffffffffffffffffffffffffffffffffff1673ffffffffffffffffffffffffffffffffffffffff1681526020019081526020016000205461217990919063ffffffff16565b6000808473ffffffffffffffffffffffffffffffffffffffff1673ffffffffffffffffffffffffffffffffffffffff168152602001908152602001600020819055508173ffffffffffffffffffffffffffffffffffffffff168373ffffffffffffffffffffffffffffffffffffffff167fddf252ad1be2c89b69c2b068fc378daa952ba7f163c4a11628f55a4df523b3ef83604051611fff9190612723565b60405180910390a3505050565b600082821115151561201a57fe5b818303905092915050565b600073ffffffffffffffffffffffffffffffffffffffff168273ffffffffffffffffffffffffffffffffffffffff161415151561206157600080fd5b6120768160025461217990919063ffffffff16565b6002819055506120cd816000808573ffffffffffffffffffffffffffffffffffffffff1673ffffffffffffffffffffffffffffffffffffffff1681526020019081526020016000205461217990919063ffffffff16565b6000808473ffffffffffffffffffffffffffffffffffffffff1673ffffffffffffffffffffffffffffffffffffffff168152602001908152602001600020819055508173ffffffffffffffffffffffffffffffffffffffff16600073ffffffffffffffffffffffffffffffffffffffff167fddf252ad1be2c89b69c2b068fc378daa952ba7f163c4a11628f55a4df523b3ef8360405161216d9190612723565b60405180910390a35050565b600080828401905083811015151561218d57fe5b8091505092915050565b600073ffffffffffffffffffffffffffffffffffffffff168273ffffffffffffffffffffffffffffffffffffffff16141515156121d357600080fd5b6121e88160025461200c90919063ffffffff16565b60028190555061223f816000808573ffffffffffffffffffffffffffffffffffffffff1673ffffffffffffffffffffffffffffffffffffffff1681526020019081526020016000205461200c90919063ffffffff16565b6000808473ffffffffffffffffffffffffffffffffffffffff1673ffffffffffffffffffffffffffffffffffffffff16815260200190815260200160002081905550600073ffffffffffffffffffffffffffffffffffffffff168273ffffffffffffffffffffffffffffffffffffffff167fddf252ad1be2c89b69c2b068fc378daa952ba7f163c4a11628f55a4df523b3ef836040516122df9190612723565b60405180910390a35050565b60006122f78235612815565b905092915050565b600082601f830112151561231257600080fd5b813561232561232082612786565b612759565b9150808252602083016020830185838301111561234157600080fd5b61234c838284612855565b50505092915050565b60006123618235612827565b905092915050565b60006020828403121561237b57600080fd5b6000612389848285016122eb565b91505092915050565b600080604083850312156123a557600080fd5b60006123b3858286016122eb565b92505060206123c4858286016122eb565b9150509250929050565b6000806000606084860312156123e357600080fd5b60006123f1868287016122eb565b9350506020612402868287016122eb565b925050604061241386828701612355565b9150509250925092565b6000806040838503121561243057600080fd5b600061243e858286016122eb565b925050602061244f85828601612355565b9150509250929050565b60008060006060848603121561246e57600080fd5b600061247c868287016122eb565b935050602061248d86828701612355565b925050604084013567ffffffffffffffff8111156124aa57600080fd5b6124b6868287016122ff565b9150509250925092565b6000602082840312156124d257600080fd5b60006124e084828501612355565b91505092915050565b600080604083850312156124fc57600080fd5b600061250a85828601612355565b925050602061251b85828601612355565b9150509250929050565b6000806000806080858703121561253b57600080fd5b600061254987828801612355565b945050602061255a87828801612355565b935050604085013567ffffffffffffffff81111561257757600080fd5b612583878288016122ff565b925050606061259487828801612355565b91505092959194509250565b600080600080600060a086880312156125b857600080fd5b60006125c688828901612355565b95505060206125d788828901612355565b94505060406125e888828901612355565b935050606086013567ffffffffffffffff81111561260557600080fd5b612611888289016122ff565b9250506080612622888289016122eb565b9150509295509295909350565b612638816127bd565b82525050565b612647816127cf565b82525050565b61265681612831565b82525050565b6000612667826127b2565b80845261267b816020860160208601612864565b61268481612897565b602085010191505092915050565b61269b816127fb565b82525050565b6126aa81612805565b82525050565b60006020820190506126c5600083018461262f565b92915050565b60006020820190506126e0600083018461263e565b92915050565b60006020820190506126fb600083018461264d565b92915050565b6000602082019050818103600083015261271b818461265c565b905092915050565b60006020820190506127386000830184612692565b92915050565b600060208201905061275360008301846126a1565b92915050565b6000604051905081810181811067ffffffffffffffff8211171561277c57600080fd5b8060405250919050565b600067ffffffffffffffff82111561279d57600080fd5b601f19601f8301169050602081019050919050565b600081519050919050565b60006127c8826127db565b9050919050565b60008115159050919050565b600073ffffffffffffffffffffffffffffffffffffffff82169050919050565b6000819050919050565b600063ffffffff82169050919050565b6000612820826127db565b9050919050565b6000819050919050565b600061283c82612843565b9050919050565b600061284e826127db565b9050919050565b82818337600083830152505050565b60005b83811015612882578082015181840152602081019050612867565b83811115612891576000848401525b50505050565b6000601f19601f830116905091905056fea265627a7a72305820ce5f723453663b0449202b5e0c7d76c8afc40dd45e12a002cfa6aca07eaf13406c6578706572696d656e74616cf50037",
  "source": "pragma solidity ^0.5.0;\npragma experimental ABIEncoderV2;\n\nimport \"./Gimicoin.sol\";\nimport \"./Ownable.sol\";\n\ncontract Cagnottes is Gimicoin, Ownable {\n\nGimicoin public myGimicoin;\n\nmapping (uint => channel) private mappChannel;\nmapping (uint => address[]) private mappGroupe;\nmapping (uint => address[]) private mappGroupeAdmin;\nmapping (string => address) private mappPseudo;\nmapping (address => uint[]) private mappGroupesForAddress;\n\nenum EtatCanal {ACTIF, FERME}\n\nstring monName = name;\nuint IDGroupe;\nuint MAX_MEMBRE;\nuint MAX_DELAI;\nuint MAX_AMOUNT;\nuint PRICE_RATIO;\n\nstruct channel\n{\n  address demandeur;\n  uint montant;\n  uint blocFermeture;\n  EtatCanal etat;\n  uint groupe;\n  uint enCours;\n  uint donnations;\n  address cible;\n}\n\nconstructor(uint _maxMembre, uint _maxDelai, uint _maxAmount, uint _priceChannel) public onlyOwner\n{\nrequire(_maxMembre > 5 && _maxMembre < 1000);\nMAX_MEMBRE = _maxMembre;\nrequire(_maxDelai > 10 && _maxDelai < 1000000000);\nMAX_DELAI = _maxDelai;\nrequire(_maxAmount > 0 && _maxAmount < 1000000000000);\nMAX_AMOUNT = _maxAmount;\nrequire(_priceChannel > 1);\nPRICE_RATIO = _priceChannel;\n}\n\nfunction modifierDelai(uint _maxDelai) public onlyOwner\n{\nrequire(_maxDelai > 10 && _maxDelai < 1000000000);\nMAX_DELAI = _maxDelai;\n}\n\nfunction modifierMaxMembre(uint _maxMembre) public onlyOwner\n{\nrequire(_maxMembre > 5 && _maxMembre < 1000);\nMAX_MEMBRE = _maxMembre;\n}\n\nfunction modifierMaxAmount(uint _priceChannel) public onlyOwner\n{\nrequire(_priceChannel > 1);\nMAX_AMOUNT = _priceChannel;\n}\n\nfunction modifierPriceChannel(uint _priceChannel) public onlyOwner\n{\nrequire(_priceChannel > 1);\nPRICE_RATIO = _priceChannel;\n}\n\nfunction creerGroupe() public\n{\n  IDGroupe += 1;\n  mappGroupe[IDGroupe].push(msg.sender);\n  mappGroupeAdmin[IDGroupe].push(msg.sender);\n  mappGroupesForAddress[msg.sender].push(IDGroupe);\n}\n\nfunction creerCanal(uint _groupe, uint _montant, uint _delai, string memory _pseudo, address contratCible) payable public\n{\n    require(mappPseudo[_pseudo]==msg.sender);\n    uint min = _montant / PRICE_RATIO;\n    require(msg.value >= min);\n    for (uint i=0;i<mappGroupe[_groupe].length;i++){\n      if (mappGroupe[_groupe][i] == msg.sender)\n      {\n        uint channelID = uint(keccak256(bytes(_pseudo)));\n        require(mappChannel[channelID].etat!=EtatCanal.ACTIF);\n        require(mappChannel[channelID].cible!=address(0));\n        mappChannel[channelID].montant=_montant;\n        mappChannel[channelID].enCours=msg.value - min;\n        mappChannel[channelID].etat=EtatCanal.ACTIF;\n        mappChannel[channelID].blocFermeture=block.number+_delai;\n        mappChannel[channelID].groupe = _groupe;\n        mappChannel[channelID].demandeur = msg.sender;\n        mappChannel[channelID].cible = contratCible;\n        mappChannel[channelID].donnations = 0;\n        break;\n      }\n  }\n}\n\nfunction payerCanal(uint _groupe, uint _channelID, string memory _pseudo, uint _token) payable public\n{\n  require(mappChannel[_channelID].groupe == _groupe);\n  require(mappChannel[_channelID].etat==EtatCanal.ACTIF);\n  require(mappChannel[_channelID].blocFermeture>=block.number);\n  require(mappPseudo[_pseudo]==msg.sender);\n  for (uint i=0;i<mappGroupe[_groupe].length;i++){\n      if (mappGroupe[_groupe][i] == msg.sender)\n      {\n      uint fees = msg.value / PRICE_RATIO;\n      _mint(msg.sender,uint(fees));\n      uint addValue = msg.value;\n      addValue += _token;\n      _burnFrom(msg.sender,_token);\n      mappChannel[uint(keccak256(bytes(_pseudo)))].donnations = addValue;\n      addValue -= fees;\n      mappChannel[_channelID].enCours+=addValue;\n      }\n  }\n}\n\nfunction fermetureCanal(uint _channelID, uint _groupe) public\n{\n  require(mappChannel[_channelID].groupe==_groupe);\n  require(mappChannel[_channelID].blocFermeture<=block.number);\n  require(mappChannel[_channelID].etat==EtatCanal.ACTIF);\n  require(mappChannel[_channelID].demandeur==msg.sender);\n  msg.sender.transfer(mappChannel[_channelID].enCours);\n  mappChannel[_channelID].enCours = 0;\n  mappChannel[_channelID].etat=EtatCanal.FERME;\n  mappChannel[_channelID].cible=address(0);\n}\n\nfunction ajouterMembre(address _membre, uint _groupe, string memory _pseudo) public\n{\nrequire(mappGroupe[_groupe].length<MAX_MEMBRE);\nrequire(mappPseudo[_pseudo]==address(0));\n  for (uint i=0;i<mappGroupeAdmin[_groupe].length;i++){\n      if (mappGroupeAdmin[_groupe][i] == msg.sender)\n      {\n        mappPseudo[_pseudo]=_membre;\n        mappGroupesForAddress[_membre].push(_groupe);\n        mappGroupe[IDGroupe].push(_membre);\n        break;\n      }\n  }\n}\n\nfunction ajouterAdmin(address _membre, uint _groupe) public\n{\n  for (uint j=0;j<mappGroupeAdmin[_groupe].length;j++){\n      if (mappGroupeAdmin[_groupe][j] == msg.sender)\n      {\n        for (uint i=0;i<mappGroupe[_groupe].length;i++){\n            if (mappGroupe[_groupe][i] == _membre)\n            {\n              mappGroupeAdmin[IDGroupe].push(_membre);\n              break;\n            }\n        }\n        break;\n      }\n  }\n}\n\nfunction getGroupesPerAddress(address _address) public\n{\n\n}\n\nfunction getMembresAndStat(uint groupe) public\n{\n\n}\n\n}\n",
  "sourcePath": "/Users/germaindacunha/Desktop/Alyra/project/src/contracts/Cagnottes.sol",
  "compiler": {
    "name": "solc",
    "version": "0.5.0+commit.1d4f565a.Emscripten.clang"
  },
  "schemaVersion": "3.0.2",
  "updatedAt": "2019-03-24T17:18:42.975Z",
  "devdoc": {
    "methods": {
      "_burnFrom(address,uint256)": {
        "details": "Internal function that burns an amount of the token of a given account, deducting from the sender's allowance for said account. Uses the internal burn function. Emits an Approval event (reflecting the reduced allowance).",
        "params": {
          "account": "The account whose tokens will be burnt.",
          "value": "The amount that will be burnt."
        }
      },
      "allowance(address,address)": {
        "details": "Function to check the amount of tokens that an owner allowed to a spender.",
        "params": {
          "owner": "address The address which owns the funds.",
          "spender": "address The address which will spend the funds."
        },
        "return": "A uint256 specifying the amount of tokens still available for the spender."
      },
      "approve(address,uint256)": {
        "details": "Approve the passed address to spend the specified amount of tokens on behalf of msg.sender. Beware that changing an allowance with this method brings the risk that someone may use both the old and the new allowance by unfortunate transaction ordering. One possible solution to mitigate this race condition is to first reduce the spender's allowance to 0 and set the desired value afterwards: https://github.com/ethereum/EIPs/issues/20#issuecomment-263524729",
        "params": {
          "spender": "The address which will spend the funds.",
          "value": "The amount of tokens to be spent."
        }
      },
      "balanceOf(address)": {
        "details": "Gets the balance of the specified address.",
        "params": {
          "owner": "The address to query the balance of."
        },
        "return": "A uint256 representing the amount owned by the passed address."
      },
      "decreaseAllowance(address,uint256)": {
        "details": "Decrease the amount of tokens that an owner allowed to a spender. approve should be called when _allowed[msg.sender][spender] == 0. To decrement allowed value is better to use this function to avoid 2 calls (and wait until the first transaction is mined) From MonolithDAO Token.sol Emits an Approval event.",
        "params": {
          "spender": "The address which will spend the funds.",
          "subtractedValue": "The amount of tokens to decrease the allowance by."
        }
      },
      "increaseAllowance(address,uint256)": {
        "details": "Increase the amount of tokens that an owner allowed to a spender. approve should be called when _allowed[msg.sender][spender] == 0. To increment allowed value is better to use this function to avoid 2 calls (and wait until the first transaction is mined) From MonolithDAO Token.sol Emits an Approval event.",
        "params": {
          "addedValue": "The amount of tokens to increase the allowance by.",
          "spender": "The address which will spend the funds."
        }
      },
      "totalSupply()": {
        "details": "Total number of tokens in existence"
      },
      "transfer(address,uint256)": {
        "details": "Transfer token to a specified address",
        "params": {
          "to": "The address to transfer to.",
          "value": "The amount to be transferred."
        }
      },
      "transferFrom(address,address,uint256)": {
        "details": "Transfer tokens from one address to another. Note that while this function emits an Approval event, this is not required as per the specification, and other compliant implementations may not emit the event.",
        "params": {
          "from": "address The address which you want to send tokens from",
          "to": "address The address which you want to transfer to",
          "value": "uint256 the amount of tokens to be transferred"
        }
      },
      "transferOwnership(address)": {
        "details": "Allows the current owner to transfer control of the contract to a newOwner.",
        "params": {
          "newOwner": "The address to transfer ownership to."
        }
      }
    }
  },
  "userdoc": {
    "methods": {}
  }
}