{
  "contractName": "Cagnottes",
  "abi": [
    {
      "constant": true,
      "inputs": [],
      "name": "name",
      "outputs": [
        {
          "name": "",
          "type": "string"
        }
      ],
      "payable": false,
      "stateMutability": "view",
      "type": "function"
    },
    {
      "constant": false,
      "inputs": [
        {
          "name": "spender",
          "type": "address"
        },
        {
          "name": "value",
          "type": "uint256"
        }
      ],
      "name": "approve",
      "outputs": [
        {
          "name": "",
          "type": "bool"
        }
      ],
      "payable": false,
      "stateMutability": "nonpayable",
      "type": "function"
    },
    {
      "constant": true,
      "inputs": [],
      "name": "totalSupply",
      "outputs": [
        {
          "name": "",
          "type": "uint256"
        }
      ],
      "payable": false,
      "stateMutability": "view",
      "type": "function"
    },
    {
      "constant": false,
      "inputs": [
        {
          "name": "from",
          "type": "address"
        },
        {
          "name": "to",
          "type": "address"
        },
        {
          "name": "value",
          "type": "uint256"
        }
      ],
      "name": "transferFrom",
      "outputs": [
        {
          "name": "",
          "type": "bool"
        }
      ],
      "payable": false,
      "stateMutability": "nonpayable",
      "type": "function"
    },
    {
      "constant": true,
      "inputs": [],
      "name": "myGimicoin",
      "outputs": [
        {
          "name": "",
          "type": "address"
        }
      ],
      "payable": false,
      "stateMutability": "view",
      "type": "function"
    },
    {
      "constant": true,
      "inputs": [],
      "name": "decimals",
      "outputs": [
        {
          "name": "",
          "type": "uint32"
        }
      ],
      "payable": false,
      "stateMutability": "view",
      "type": "function"
    },
    {
      "constant": false,
      "inputs": [
        {
          "name": "spender",
          "type": "address"
        },
        {
          "name": "addedValue",
          "type": "uint256"
        }
      ],
      "name": "increaseAllowance",
      "outputs": [
        {
          "name": "",
          "type": "bool"
        }
      ],
      "payable": false,
      "stateMutability": "nonpayable",
      "type": "function"
    },
    {
      "constant": true,
      "inputs": [
        {
          "name": "owner",
          "type": "address"
        }
      ],
      "name": "balanceOf",
      "outputs": [
        {
          "name": "",
          "type": "uint256"
        }
      ],
      "payable": false,
      "stateMutability": "view",
      "type": "function"
    },
    {
      "constant": true,
      "inputs": [],
      "name": "owner",
      "outputs": [
        {
          "name": "",
          "type": "address"
        }
      ],
      "payable": false,
      "stateMutability": "view",
      "type": "function"
    },
    {
      "constant": true,
      "inputs": [],
      "name": "symbol",
      "outputs": [
        {
          "name": "",
          "type": "string"
        }
      ],
      "payable": false,
      "stateMutability": "view",
      "type": "function"
    },
    {
      "constant": false,
      "inputs": [
        {
          "name": "account",
          "type": "address"
        },
        {
          "name": "value",
          "type": "uint256"
        }
      ],
      "name": "_burnFrom",
      "outputs": [],
      "payable": false,
      "stateMutability": "nonpayable",
      "type": "function"
    },
    {
      "constant": false,
      "inputs": [
        {
          "name": "spender",
          "type": "address"
        },
        {
          "name": "subtractedValue",
          "type": "uint256"
        }
      ],
      "name": "decreaseAllowance",
      "outputs": [
        {
          "name": "",
          "type": "bool"
        }
      ],
      "payable": false,
      "stateMutability": "nonpayable",
      "type": "function"
    },
    {
      "constant": false,
      "inputs": [
        {
          "name": "to",
          "type": "address"
        },
        {
          "name": "value",
          "type": "uint256"
        }
      ],
      "name": "transfer",
      "outputs": [
        {
          "name": "",
          "type": "bool"
        }
      ],
      "payable": false,
      "stateMutability": "nonpayable",
      "type": "function"
    },
    {
      "constant": true,
      "inputs": [
        {
          "name": "owner",
          "type": "address"
        },
        {
          "name": "spender",
          "type": "address"
        }
      ],
      "name": "allowance",
      "outputs": [
        {
          "name": "",
          "type": "uint256"
        }
      ],
      "payable": false,
      "stateMutability": "view",
      "type": "function"
    },
    {
      "constant": false,
      "inputs": [
        {
          "name": "newOwner",
          "type": "address"
        }
      ],
      "name": "transferOwnership",
      "outputs": [],
      "payable": false,
      "stateMutability": "nonpayable",
      "type": "function"
    },
    {
      "inputs": [],
      "payable": false,
      "stateMutability": "nonpayable",
      "type": "constructor"
    },
    {
      "anonymous": false,
      "inputs": [
        {
          "indexed": true,
          "name": "previousOwner",
          "type": "address"
        },
        {
          "indexed": true,
          "name": "newOwner",
          "type": "address"
        }
      ],
      "name": "OwnershipTransferred",
      "type": "event"
    },
    {
      "anonymous": false,
      "inputs": [
        {
          "indexed": true,
          "name": "from",
          "type": "address"
        },
        {
          "indexed": true,
          "name": "to",
          "type": "address"
        },
        {
          "indexed": false,
          "name": "value",
          "type": "uint256"
        }
      ],
      "name": "Transfer",
      "type": "event"
    },
    {
      "anonymous": false,
      "inputs": [
        {
          "indexed": true,
          "name": "owner",
          "type": "address"
        },
        {
          "indexed": true,
          "name": "spender",
          "type": "address"
        },
        {
          "indexed": false,
          "name": "value",
          "type": "uint256"
        }
      ],
      "name": "Approval",
      "type": "event"
    },
    {
      "constant": false,
      "inputs": [
        {
          "name": "_nom",
          "type": "string"
        },
        {
          "name": "_pseudo",
          "type": "string"
        }
      ],
      "name": "creerGroupe",
      "outputs": [],
      "payable": true,
      "stateMutability": "payable",
      "type": "function"
    },
    {
      "constant": false,
      "inputs": [
        {
          "name": "_membre",
          "type": "address"
        },
        {
          "name": "_groupe",
          "type": "string"
        },
        {
          "name": "_pseudo",
          "type": "string"
        }
      ],
      "name": "ajouterMembre",
      "outputs": [],
      "payable": false,
      "stateMutability": "nonpayable",
      "type": "function"
    },
    {
      "constant": false,
      "inputs": [
        {
          "name": "_membre",
          "type": "address"
        },
        {
          "name": "_groupe",
          "type": "string"
        }
      ],
      "name": "ajouterAdmin",
      "outputs": [],
      "payable": false,
      "stateMutability": "nonpayable",
      "type": "function"
    },
    {
      "constant": false,
      "inputs": [
        {
          "name": "_montant",
          "type": "uint256"
        },
        {
          "name": "_delai",
          "type": "uint256"
        },
        {
          "name": "_pseudo",
          "type": "string"
        },
        {
          "name": "_description",
          "type": "string"
        }
      ],
      "name": "demander",
      "outputs": [],
      "payable": true,
      "stateMutability": "payable",
      "type": "function"
    },
    {
      "constant": false,
      "inputs": [
        {
          "name": "_groupe",
          "type": "string"
        },
        {
          "name": "_pseudo",
          "type": "string"
        },
        {
          "name": "_token",
          "type": "uint256"
        }
      ],
      "name": "payerCanal",
      "outputs": [],
      "payable": true,
      "stateMutability": "payable",
      "type": "function"
    },
    {
      "constant": false,
      "inputs": [
        {
          "name": "_pseudo",
          "type": "string"
        }
      ],
      "name": "fermetureCanal",
      "outputs": [],
      "payable": false,
      "stateMutability": "nonpayable",
      "type": "function"
    },
    {
      "constant": false,
      "inputs": [
        {
          "name": "_token",
          "type": "uint256"
        }
      ],
      "name": "consommerTokens",
      "outputs": [],
      "payable": false,
      "stateMutability": "nonpayable",
      "type": "function"
    }
  ],
  "bytecode": "0x608060405234801561001057600080fd5b5033600360006101000a81548173ffffffffffffffffffffffffffffffffffffffff021916908373ffffffffffffffffffffffffffffffffffffffff1602179055506032601281905550600a600d81905550600a600e819055506509184e72a000600f81905550620186a0601081905550600a6011819055506130d1806100986000396000f3fe608060405260043610610128576000357c0100000000000000000000000000000000000000000000000000000000900463ffffffff16806306fdde031461012d578063095ea7b3146101bd57806316f1df231461023057806318160ddd14610318578063203ac3ce1461034357806323b872dd1461037e578063247e00f814610411578063313ce56714610468578063395093511461049f5780634dc887291461051257806370a08231146105da57806370d519181461063f5780638da5cb5b1461079b5780638f333341146107f257806395d89b4114610971578063a22b35ce14610a01578063a457c2d714610a5c578063a9059cbb14610acf578063dd62ed3e14610b42578063f2fde38b14610bc7578063f4343df414610c18578063fa8622f914610d6a575b600080fd5b34801561013957600080fd5b50610142610ed0565b6040518080602001828103825283818151815260200191508051906020019080838360005b83811015610182578082015181840152602081019050610167565b50505050905090810190601f1680156101af5780820380516001836020036101000a031916815260200191505b509250505060405180910390f35b3480156101c957600080fd5b50610216600480360360408110156101e057600080fd5b81019080803573ffffffffffffffffffffffffffffffffffffffff16906020019092919080359060200190929190505050610f09565b604051808215151515815260200191505060405180910390f35b34801561023c57600080fd5b506103166004803603604081101561025357600080fd5b81019080803573ffffffffffffffffffffffffffffffffffffffff1690602001909291908035906020019064010000000081111561029057600080fd5b8201836020820111156102a257600080fd5b803590602001918460018302840111640100000000831117156102c457600080fd5b91908080601f016020809104026020016040519081016040528093929190818152602001838380828437600081840152601f19601f820116905080830192505050505050509192919290505050610f20565b005b34801561032457600080fd5b5061032d6112bd565b6040518082815260200191505060405180910390f35b34801561034f57600080fd5b5061037c6004803603602081101561036657600080fd5b81019080803590602001909291905050506112c7565b005b34801561038a57600080fd5b506103f7600480360360608110156103a157600080fd5b81019080803573ffffffffffffffffffffffffffffffffffffffff169060200190929190803573ffffffffffffffffffffffffffffffffffffffff16906020019092919080359060200190929190505050611332565b604051808215151515815260200191505060405180910390f35b34801561041d57600080fd5b506104266113e3565b604051808273ffffffffffffffffffffffffffffffffffffffff1673ffffffffffffffffffffffffffffffffffffffff16815260200191505060405180910390f35b34801561047457600080fd5b5061047d611409565b604051808263ffffffff1663ffffffff16815260200191505060405180910390f35b3480156104ab57600080fd5b506104f8600480360360408110156104c257600080fd5b81019080803573ffffffffffffffffffffffffffffffffffffffff1690602001909291908035906020019092919050505061140e565b604051808215151515815260200191505060405180910390f35b34801561051e57600080fd5b506105d86004803603602081101561053557600080fd5b810190808035906020019064010000000081111561055257600080fd5b82018360208201111561056457600080fd5b8035906020019184600183028401116401000000008311171561058657600080fd5b91908080601f016020809104026020016040519081016040528093929190818152602001838380828437600081840152601f19601f8201169050808301925050505050505091929192905050506114b3565b005b3480156105e657600080fd5b50610629600480360360208110156105fd57600080fd5b81019080803573ffffffffffffffffffffffffffffffffffffffff1690602001909291905050506116ad565b6040518082815260200191505060405180910390f35b6107996004803603606081101561065557600080fd5b810190808035906020019064010000000081111561067257600080fd5b82018360208201111561068457600080fd5b803590602001918460018302840111640100000000831117156106a657600080fd5b91908080601f016020809104026020016040519081016040528093929190818152602001838380828437600081840152601f19601f8201169050808301925050505050505091929192908035906020019064010000000081111561070957600080fd5b82018360208201111561071b57600080fd5b8035906020019184600183028401116401000000008311171561073d57600080fd5b91908080601f016020809104026020016040519081016040528093929190818152602001838380828437600081840152601f19601f820116905080830192505050505050509192919290803590602001909291905050506116f5565b005b3480156107a757600080fd5b506107b06119e2565b604051808273ffffffffffffffffffffffffffffffffffffffff1673ffffffffffffffffffffffffffffffffffffffff16815260200191505060405180910390f35b3480156107fe57600080fd5b5061096f6004803603606081101561081557600080fd5b81019080803573ffffffffffffffffffffffffffffffffffffffff1690602001909291908035906020019064010000000081111561085257600080fd5b82018360208201111561086457600080fd5b8035906020019184600183028401116401000000008311171561088657600080fd5b91908080601f016020809104026020016040519081016040528093929190818152602001838380828437600081840152601f19601f820116905080830192505050505050509192919290803590602001906401000000008111156108e957600080fd5b8201836020820111156108fb57600080fd5b8035906020019184600183028401116401000000008311171561091d57600080fd5b91908080601f016020809104026020016040519081016040528093929190818152602001838380828437600081840152601f19601f820116905080830192505050505050509192919290505050611a08565b005b34801561097d57600080fd5b50610986611e09565b6040518080602001828103825283818151815260200191508051906020019080838360005b838110156109c65780820151818401526020810190506109ab565b50505050905090810190601f1680156109f35780820380516001836020036101000a031916815260200191505b509250505060405180910390f35b348015610a0d57600080fd5b50610a5a60048036036040811015610a2457600080fd5b81019080803573ffffffffffffffffffffffffffffffffffffffff16906020019092919080359060200190929190505050611e42565b005b348015610a6857600080fd5b50610ab560048036036040811015610a7f57600080fd5b81019080803573ffffffffffffffffffffffffffffffffffffffff16906020019092919080359060200190929190505050611ee9565b604051808215151515815260200191505060405180910390f35b348015610adb57600080fd5b50610b2860048036036040811015610af257600080fd5b81019080803573ffffffffffffffffffffffffffffffffffffffff16906020019092919080359060200190929190505050611f8e565b604051808215151515815260200191505060405180910390f35b348015610b4e57600080fd5b50610bb160048036036040811015610b6557600080fd5b81019080803573ffffffffffffffffffffffffffffffffffffffff169060200190929190803573ffffffffffffffffffffffffffffffffffffffff169060200190929190505050611fa5565b6040518082815260200191505060405180910390f35b348015610bd357600080fd5b50610c1660048036036020811015610bea57600080fd5b81019080803573ffffffffffffffffffffffffffffffffffffffff16906020019092919050505061202c565b005b610d6860048036036040811015610c2e57600080fd5b8101908080359060200190640100000000811115610c4b57600080fd5b820183602082011115610c5d57600080fd5b80359060200191846001830284011164010000000083111715610c7f57600080fd5b91908080601f016020809104026020016040519081016040528093929190818152602001838380828437600081840152601f19601f82011690508083019250505050505050919291929080359060200190640100000000811115610ce257600080fd5b820183602082011115610cf457600080fd5b80359060200191846001830284011164010000000083111715610d1657600080fd5b91908080601f016020809104026020016040519081016040528093929190818152602001838380828437600081840152601f19601f820116905080830192505050505050509192919290505050612184565b005b610ece60048036036080811015610d8057600080fd5b81019080803590602001909291908035906020019092919080359060200190640100000000811115610db157600080fd5b820183602082011115610dc357600080fd5b80359060200191846001830284011164010000000083111715610de557600080fd5b91908080601f016020809104026020016040519081016040528093929190818152602001838380828437600081840152601f19601f82011690508083019250505050505050919291929080359060200190640100000000811115610e4857600080fd5b820183602082011115610e5a57600080fd5b80359060200191846001830284011164010000000083111715610e7c57600080fd5b91908080601f016020809104026020016040519081016040528093929190818152602001838380828437600081840152601f19601f8201169050808301925050505050505091929192905050506125d4565b005b6040805190810160405280600881526020017f67696d69636f696e00000000000000000000000000000000000000000000000081525081565b6000610f163384846127d4565b6001905092915050565b60008090505b600b826040518082805190602001908083835b602083101515610f5e5780518252602082019150602081019050602083039250610f39565b6001836020036101000a0380198251168184511680821785525050505050509050019150509081526020016040518091039020805490508110156112b8573373ffffffffffffffffffffffffffffffffffffffff16600b836040518082805190602001908083835b602083101515610feb5780518252602082019150602081019050602083039250610fc6565b6001836020036101000a03801982511681845116808217855250505050505090500191505090815260200160405180910390208281548110151561102b57fe5b9060005260206000200160009054906101000a900473ffffffffffffffffffffffffffffffffffffffff1673ffffffffffffffffffffffffffffffffffffffff1614156112ab5760008090505b600a836040518082805190602001908083835b6020831015156110b0578051825260208201915060208101905060208303925061108b565b6001836020036101000a0380198251168184511680821785525050505050509050019150509081526020016040518091039020805490508110156112a5578373ffffffffffffffffffffffffffffffffffffffff16600a846040518082805190602001908083835b60208310151561113d5780518252602082019150602081019050602083039250611118565b6001836020036101000a03801982511681845116808217855250505050505090500191505090815260200160405180910390208281548110151561117d57fe5b9060005260206000200160009054906101000a900473ffffffffffffffffffffffffffffffffffffffff1673ffffffffffffffffffffffffffffffffffffffff16141561129857600b836040518082805190602001908083835b6020831015156111fc57805182526020820191506020810190506020830392506111d7565b6001836020036101000a03801982511681845116808217855250505050505090500191505090815260200160405180910390208490806001815401808255809150509060018203906000526020600020016000909192909190916101000a81548173ffffffffffffffffffffffffffffffffffffffff021916908373ffffffffffffffffffffffffffffffffffffffff160217905550506112a5565b8080600101915050611078565b506112b8565b8080600101915050610f26565b505050565b6000600254905090565b806112d1336116ad565b101515156112de57600080fd5b3373ffffffffffffffffffffffffffffffffffffffff166108fc829081150290604051600060405180830381858888f19350505050158015611324573d6000803e3d6000fd5b5061132f3382611e42565b50565b600061133f848484612937565b6113d884336113d385600160008a73ffffffffffffffffffffffffffffffffffffffff1673ffffffffffffffffffffffffffffffffffffffff16815260200190815260200160002060003373ffffffffffffffffffffffffffffffffffffffff1673ffffffffffffffffffffffffffffffffffffffff16815260200190815260200160002054612b0390919063ffffffff16565b6127d4565b600190509392505050565b600460009054906101000a900473ffffffffffffffffffffffffffffffffffffffff1681565b601281565b60006114a933846114a485600160003373ffffffffffffffffffffffffffffffffffffffff1673ffffffffffffffffffffffffffffffffffffffff16815260200190815260200160002060008973ffffffffffffffffffffffffffffffffffffffff1673ffffffffffffffffffffffffffffffffffffffff16815260200190815260200160002054612b1c90919063ffffffff16565b6127d4565b6001905092915050565b60008180519060200120600190049050436005600083815260200190815260200160002060030154111515156114e857600080fd5b600115156005600083815260200190815260200160002060040160009054906101000a900460ff16151514151561151e57600080fd5b3373ffffffffffffffffffffffffffffffffffffffff166005600083815260200190815260200160002060000160009054906101000a900473ffffffffffffffffffffffffffffffffffffffff1673ffffffffffffffffffffffffffffffffffffffff1614151561158e57600080fd5b3373ffffffffffffffffffffffffffffffffffffffff166108fc60056000848152602001908152602001600020600501549081150290604051600060405180830381858888f193505050501580156115ea573d6000803e3d6000fd5b5060006005600083815260200190815260200160002060050181905550600060056000838152602001908152602001600020600201819055506000600560008381526020019081526020016000206003018190555060006005600083815260200190815260200160002060040160006101000a81548160ff02191690831515021790555060206040519081016040528060008152506005600083815260200190815260200160002060070190805190602001906116a8929190613000565b505050565b60008060008373ffffffffffffffffffffffffffffffffffffffff1673ffffffffffffffffffffffffffffffffffffffff168152602001908152602001600020549050919050565b60008280519060200120600190049050600115156005600083815260200190815260200160002060040160009054906101000a900460ff16151514151561173b57600080fd5b4360056000838152602001908152602001600020600301541015151561176057600080fd5b3373ffffffffffffffffffffffffffffffffffffffff166005600083815260200190815260200160002060000160009054906101000a900473ffffffffffffffffffffffffffffffffffffffff1673ffffffffffffffffffffffffffffffffffffffff161415156117d057600080fd5b816117da336116ad565b101515156117e757600080fd5b60008090505b600a856040518082805190602001908083835b6020831015156118255780518252602082019150602081019050602083039250611800565b6001836020036101000a0380198251168184511680821785525050505050509050019150509081526020016040518091039020805490508110156119db573373ffffffffffffffffffffffffffffffffffffffff16600a866040518082805190602001908083835b6020831015156118b2578051825260208201915060208101905060208303925061188d565b6001836020036101000a0380198251168184511680821785525050505050509050019150509081526020016040518091039020828154811015156118f257fe5b9060005260206000200160009054906101000a900473ffffffffffffffffffffffffffffffffffffffff1673ffffffffffffffffffffffffffffffffffffffff1614156119ce5760006011543481151561194857fe5b0490506119553382612b3a565b600034905060008511156119735784810190506119723386611e42565b5b8060056000888051906020012060019004815260200190815260200160002060060160008282540192505081905550818103905080600560008681526020019081526020016000206005016000828254019250508190555050505b80806001019150506117ed565b5050505050565b600360009054906101000a900473ffffffffffffffffffffffffffffffffffffffff1681565b600d54600a836040518082805190602001908083835b602083101515611a435780518252602082019150602081019050602083039250611a1e565b6001836020036101000a038019825116818451168082178552505050505050905001915050908152602001604051809103902080549050101515611a8657600080fd5b600073ffffffffffffffffffffffffffffffffffffffff16600c826040518082805190602001908083835b602083101515611ad65780518252602082019150602081019050602083039250611ab1565b6001836020036101000a038019825116818451168082178552505050505050905001915050908152602001604051809103902060009054906101000a900473ffffffffffffffffffffffffffffffffffffffff1673ffffffffffffffffffffffffffffffffffffffff16141515611b4c57600080fd5b60008090505b600b836040518082805190602001908083835b602083101515611b8a5780518252602082019150602081019050602083039250611b65565b6001836020036101000a038019825116818451168082178552505050505050905001915050908152602001604051809103902080549050811015611e03573373ffffffffffffffffffffffffffffffffffffffff16600b846040518082805190602001908083835b602083101515611c175780518252602082019150602081019050602083039250611bf2565b6001836020036101000a038019825116818451168082178552505050505050905001915050908152602001604051809103902082815481101515611c5757fe5b9060005260206000200160009054906101000a900473ffffffffffffffffffffffffffffffffffffffff1673ffffffffffffffffffffffffffffffffffffffff161415611df65760008380519060200120600190049050600660008673ffffffffffffffffffffffffffffffffffffffff1673ffffffffffffffffffffffffffffffffffffffff168152602001908152602001600020819080600181540180825580915050906001820390600052602060002001600090919290919091505550600a846040518082805190602001908083835b602083101515611d4f5780518252602082019150602081019050602083039250611d2a565b6001836020036101000a03801982511681845116808217855250505050505090500191505090815260200160405180910390208590806001815401808255809150509060018203906000526020600020016000909192909190916101000a81548173ffffffffffffffffffffffffffffffffffffffff021916908373ffffffffffffffffffffffffffffffffffffffff16021790555050611df08385612c8e565b50611e03565b8080600101915050611b52565b50505050565b6040805190810160405280600381526020017f474d43000000000000000000000000000000000000000000000000000000000081525081565b611e4c8282612eac565b611ee58233611ee084600160008873ffffffffffffffffffffffffffffffffffffffff1673ffffffffffffffffffffffffffffffffffffffff16815260200190815260200160002060003373ffffffffffffffffffffffffffffffffffffffff1673ffffffffffffffffffffffffffffffffffffffff16815260200190815260200160002054612b0390919063ffffffff16565b6127d4565b5050565b6000611f843384611f7f85600160003373ffffffffffffffffffffffffffffffffffffffff1673ffffffffffffffffffffffffffffffffffffffff16815260200190815260200160002060008973ffffffffffffffffffffffffffffffffffffffff1673ffffffffffffffffffffffffffffffffffffffff16815260200190815260200160002054612b0390919063ffffffff16565b6127d4565b6001905092915050565b6000611f9b338484612937565b6001905092915050565b6000600160008473ffffffffffffffffffffffffffffffffffffffff1673ffffffffffffffffffffffffffffffffffffffff16815260200190815260200160002060008373ffffffffffffffffffffffffffffffffffffffff1673ffffffffffffffffffffffffffffffffffffffff16815260200190815260200160002054905092915050565b600360009054906101000a900473ffffffffffffffffffffffffffffffffffffffff1673ffffffffffffffffffffffffffffffffffffffff163373ffffffffffffffffffffffffffffffffffffffff1614151561208857600080fd5b600073ffffffffffffffffffffffffffffffffffffffff168173ffffffffffffffffffffffffffffffffffffffff16141515156120c457600080fd5b8073ffffffffffffffffffffffffffffffffffffffff16600360009054906101000a900473ffffffffffffffffffffffffffffffffffffffff1673ffffffffffffffffffffffffffffffffffffffff167f8be0079c531659141344cd1fd0a4f28419497f9722a3daafe3b4186f6b6457e060405160405180910390a380600360006101000a81548173ffffffffffffffffffffffffffffffffffffffff021916908373ffffffffffffffffffffffffffffffffffffffff16021790555050565b60006009836040518082805190602001908083835b6020831015156121be5780518252602082019150602081019050602083039250612199565b6001836020036101000a0380198251168184511680821785525050505050509050019150509081526020016040518091039020541415156121fe57600080fd5b601254600660003373ffffffffffffffffffffffffffffffffffffffff1673ffffffffffffffffffffffffffffffffffffffff1681526020019081526020016000208054905010151561225057600080fd5b600073ffffffffffffffffffffffffffffffffffffffff16600c826040518082805190602001908083835b6020831015156122a0578051825260208201915060208101905060208303925061227b565b6001836020036101000a038019825116818451168082178552505050505050905001915050908152602001604051809103902060009054906101000a900473ffffffffffffffffffffffffffffffffffffffff1673ffffffffffffffffffffffffffffffffffffffff1614151561231657600080fd5b60008280519060200120600190049050806009846040518082805190602001908083835b60208310151561235f578051825260208201915060208101905060208303925061233a565b6001836020036101000a038019825116818451168082178552505050505050905001915050908152602001604051809103902081905550826008600083815260200190815260200160002090805190602001906123bd929190613000565b50600a836040518082805190602001908083835b6020831015156123f657805182526020820191506020810190506020830392506123d1565b6001836020036101000a03801982511681845116808217855250505050505090500191505090815260200160405180910390203390806001815401808255809150509060018203906000526020600020016000909192909190916101000a81548173ffffffffffffffffffffffffffffffffffffffff021916908373ffffffffffffffffffffffffffffffffffffffff16021790555050600b836040518082805190602001908083835b6020831015156124c557805182526020820191506020810190506020830392506124a0565b6001836020036101000a03801982511681845116808217855250505050505090500191505090815260200160405180910390203390806001815401808255809150509060018203906000526020600020016000909192909190916101000a81548173ffffffffffffffffffffffffffffffffffffffff021916908373ffffffffffffffffffffffffffffffffffffffff16021790555050600660003373ffffffffffffffffffffffffffffffffffffffff1673ffffffffffffffffffffffffffffffffffffffff1681526020019081526020016000208190806001815401808255809150509060018203906000526020600020016000909192909190915055506125cf8284612c8e565b505050565b601054841180156125e65750600f5484105b15156125f157600080fd5b3373ffffffffffffffffffffffffffffffffffffffff16600c836040518082805190602001908083835b602083101515612640578051825260208201915060208101905060208303925061261b565b6001836020036101000a038019825116818451168082178552505050505050905001915050908152602001604051809103902060009054906101000a900473ffffffffffffffffffffffffffffffffffffffff1673ffffffffffffffffffffffffffffffffffffffff161415156126b657600080fd5b6000601154858115156126c557fe5b0490508034101515156126d757600080fd5b60008380519060200120600190049050600015156005600083815260200190815260200160002060040160009054906101000a900460ff16151514151561271d57600080fd5b856005600083815260200190815260200160002060020181905550813403600560008381526020019081526020016000206005018190555060016005600083815260200190815260200160002060040160006101000a81548160ff0219169083151502179055508443016005600083815260200190815260200160002060030181905550826005600083815260200190815260200160002060070190805190602001906127cb929190613000565b50505050505050565b600073ffffffffffffffffffffffffffffffffffffffff168273ffffffffffffffffffffffffffffffffffffffff161415151561281057600080fd5b600073ffffffffffffffffffffffffffffffffffffffff168373ffffffffffffffffffffffffffffffffffffffff161415151561284c57600080fd5b80600160008573ffffffffffffffffffffffffffffffffffffffff1673ffffffffffffffffffffffffffffffffffffffff16815260200190815260200160002060008473ffffffffffffffffffffffffffffffffffffffff1673ffffffffffffffffffffffffffffffffffffffff168152602001908152602001600020819055508173ffffffffffffffffffffffffffffffffffffffff168373ffffffffffffffffffffffffffffffffffffffff167f8c5be1e5ebec7d5bd14f71427d1e84f3dd0314c0f7b2291e5b200ac8c7c3b925836040518082815260200191505060405180910390a3505050565b600073ffffffffffffffffffffffffffffffffffffffff168273ffffffffffffffffffffffffffffffffffffffff161415151561297357600080fd5b6129c4816000808673ffffffffffffffffffffffffffffffffffffffff1673ffffffffffffffffffffffffffffffffffffffff16815260200190815260200160002054612b0390919063ffffffff16565b6000808573ffffffffffffffffffffffffffffffffffffffff1673ffffffffffffffffffffffffffffffffffffffff16815260200190815260200160002081905550612a57816000808573ffffffffffffffffffffffffffffffffffffffff1673ffffffffffffffffffffffffffffffffffffffff16815260200190815260200160002054612b1c90919063ffffffff16565b6000808473ffffffffffffffffffffffffffffffffffffffff1673ffffffffffffffffffffffffffffffffffffffff168152602001908152602001600020819055508173ffffffffffffffffffffffffffffffffffffffff168373ffffffffffffffffffffffffffffffffffffffff167fddf252ad1be2c89b69c2b068fc378daa952ba7f163c4a11628f55a4df523b3ef836040518082815260200191505060405180910390a3505050565b6000828211151515612b1157fe5b818303905092915050565b6000808284019050838110151515612b3057fe5b8091505092915050565b600073ffffffffffffffffffffffffffffffffffffffff168273ffffffffffffffffffffffffffffffffffffffff1614151515612b7657600080fd5b612b8b81600254612b1c90919063ffffffff16565b600281905550612be2816000808573ffffffffffffffffffffffffffffffffffffffff1673ffffffffffffffffffffffffffffffffffffffff16815260200190815260200160002054612b1c90919063ffffffff16565b6000808473ffffffffffffffffffffffffffffffffffffffff1673ffffffffffffffffffffffffffffffffffffffff168152602001908152602001600020819055508173ffffffffffffffffffffffffffffffffffffffff16600073ffffffffffffffffffffffffffffffffffffffff167fddf252ad1be2c89b69c2b068fc378daa952ba7f163c4a11628f55a4df523b3ef836040518082815260200191505060405180910390a35050565b600082805190602001206001900490503373ffffffffffffffffffffffffffffffffffffffff16600c846040518082805190602001908083835b602083101515612ced5780518252602082019150602081019050602083039250612cc8565b6001836020036101000a038019825116818451168082178552505050505050905001915050908152602001604051809103902060009054906101000a900473ffffffffffffffffffffffffffffffffffffffff1673ffffffffffffffffffffffffffffffffffffffff16141515612d6357600080fd5b60006005600083815260200190815260200160002060040160006101000a81548160ff02191690831515021790555082600560008381526020019081526020016000206001019080519060200190612dbc929190613000565b50336005600083815260200190815260200160002060000160006101000a81548173ffffffffffffffffffffffffffffffffffffffff021916908373ffffffffffffffffffffffffffffffffffffffff1602179055506007826040518082805190602001908083835b602083101515612e4a5780518252602082019150602081019050602083039250612e25565b6001836020036101000a0380198251168184511680821785525050505050509050019150509081526020016040518091039020819080600181540180825580915050906001820390600052602060002001600090919290919091505550505050565b600073ffffffffffffffffffffffffffffffffffffffff168273ffffffffffffffffffffffffffffffffffffffff1614151515612ee857600080fd5b612efd81600254612b0390919063ffffffff16565b600281905550612f54816000808573ffffffffffffffffffffffffffffffffffffffff1673ffffffffffffffffffffffffffffffffffffffff16815260200190815260200160002054612b0390919063ffffffff16565b6000808473ffffffffffffffffffffffffffffffffffffffff1673ffffffffffffffffffffffffffffffffffffffff16815260200190815260200160002081905550600073ffffffffffffffffffffffffffffffffffffffff168273ffffffffffffffffffffffffffffffffffffffff167fddf252ad1be2c89b69c2b068fc378daa952ba7f163c4a11628f55a4df523b3ef836040518082815260200191505060405180910390a35050565b828054600181600116156101000203166002900490600052602060002090601f016020900481019282601f1061304157805160ff191683800117855561306f565b8280016001018555821561306f579182015b8281111561306e578251825591602001919060010190613053565b5b50905061307c9190613080565b5090565b6130a291905b8082111561309e576000816000905550600101613086565b5090565b9056fea165627a7a72305820eb79adf8c09d6ba1785e80f3812b22eb8527430e080a179864d3c171a27d683a0029",
  "source": "pragma solidity ^0.5.0;\n\nimport \"./Gimicoin.sol\";\nimport \"./Ownable.sol\";\n\ncontract Cagnottes is Gimicoin, Ownable {\n\nGimicoin public myGimicoin;\n\nmapping (uint => channel) internal mappChannel;\nmapping (address => uint[]) internal mappGroupesForAddress;\nmapping (string => uint[]) internal mappGroupeAndChannels;\nmapping (uint => string) internal mappIDGroupe;\n\nmapping (string => uint) private mappNomGroupe;\nmapping (string => address[]) private mappGroupe;\nmapping (string => address[]) private mappGroupeAdmin;\nmapping (string => address) private mappPseudo;\n\nuint MAX_MEMBRE;\nuint MAX_DELAI;\nuint MAX_AMOUNT;\nuint MIN_AMOUNT;\nuint PRICE_RATIO;\nuint MAX_GROUPS;\n\nstruct channel\n{\n  address demandeur;\n  string pseudo;\n  uint montant;\n  uint blocFermeture;\n  bool actif;\n  uint enCours;\n  uint donnations;\n  string description;\n}\n\nconstructor() public\n{\n  MAX_GROUPS=50;\n  MAX_MEMBRE = 10;\n  MAX_DELAI = 10;\n  MAX_AMOUNT = 10000000000000;\n  MIN_AMOUNT = 100000;\n  PRICE_RATIO = 10;\n}\n\nfunction creerGroupe(string memory _nom, string memory _pseudo) payable public\n{\n  require(mappNomGroupe[_nom]==0);\n  require(mappGroupesForAddress[msg.sender].length<MAX_GROUPS);\n  require(mappPseudo[_pseudo]==address(0));\n  uint IDGroupe = uint(keccak256(bytes(_nom)));\n  mappNomGroupe[_nom] = IDGroupe;\n  mappIDGroupe[IDGroupe] = _nom;\n  mappGroupe[_nom].push(msg.sender);\n  mappGroupeAdmin[_nom].push(msg.sender);\n  mappGroupesForAddress[msg.sender].push(IDGroupe);\n  creerCanal(_pseudo, _nom);\n}\n\nfunction ajouterMembre(address _membre, string memory _groupe, string memory _pseudo) public\n{\n  require(mappGroupe[_groupe].length<MAX_MEMBRE);\n  require(mappPseudo[_pseudo]==address(0));\n  for (uint i=0;i<mappGroupeAdmin[_groupe].length;i++)\n  {\n      if (mappGroupeAdmin[_groupe][i] == msg.sender)\n      {\n        uint IDGroupe = uint(keccak256(bytes(_groupe)));\n        mappGroupesForAddress[_membre].push(IDGroupe);\n        mappGroupe[_groupe].push(_membre);\n        creerCanal(_pseudo, _groupe);\n        break;\n      }\n  }\n}\n\nfunction ajouterAdmin(address _membre, string memory _groupe) public\n{\n  for (uint j=0;j<mappGroupeAdmin[_groupe].length;j++)\n  {\n      if (mappGroupeAdmin[_groupe][j] == msg.sender)\n      {\n        for (uint i=0;i<mappGroupe[_groupe].length;i++)\n        {\n            if (mappGroupe[_groupe][i] == _membre)\n            {\n              mappGroupeAdmin[_groupe].push(_membre);\n              break;\n            }\n        }\n        break;\n      }\n  }\n}\n\nfunction creerCanal(string memory _pseudo, string memory _groupe) private\n{\n    uint channelID = uint(keccak256(bytes(_pseudo)));\n    require(mappPseudo[_pseudo]==msg.sender);\n    mappChannel[channelID].actif=false;\n    mappChannel[channelID].pseudo=_pseudo;\n    mappChannel[channelID].demandeur = msg.sender;\n    mappGroupeAndChannels[_groupe].push(channelID);\n}\n\nfunction demander(uint _montant, uint _delai, string memory _pseudo, string memory _description) payable public\n{\n    require(_montant > MIN_AMOUNT && _montant < MAX_AMOUNT);\n    require(mappPseudo[_pseudo]==msg.sender);\n    uint min = uint(_montant / PRICE_RATIO);\n    require(msg.value >= min);\n    uint channelID = uint(keccak256(bytes(_pseudo)));\n    require(mappChannel[channelID].actif==false);\n    mappChannel[channelID].montant=_montant;\n    mappChannel[channelID].enCours=msg.value - min;\n    mappChannel[channelID].actif=true;\n    mappChannel[channelID].blocFermeture=block.number+_delai;\n    mappChannel[channelID].description = _description;\n}\n\nfunction payerCanal(string memory _groupe, string memory _pseudo, uint _token) payable public\n{\n  uint _channelID = uint(keccak256(bytes(_pseudo)));\n  require(mappChannel[_channelID].actif==true);\n  require(mappChannel[_channelID].blocFermeture>=block.number);\n  require(mappChannel[_channelID].demandeur==msg.sender);\n  require(balanceOf(msg.sender) >= _token);\n  for (uint i=0;i<mappGroupe[_groupe].length;i++)\n  {\n      if (mappGroupe[_groupe][i] == msg.sender)\n      {\n        uint fees = uint(msg.value / PRICE_RATIO);\n        _mint(msg.sender,fees);\n        uint addValue = msg.value;\n        if (_token > 0)\n        {\n          addValue += _token;\n          _burnFrom(msg.sender,_token);\n        }\n        mappChannel[uint(keccak256(bytes(_pseudo)))].donnations += addValue;\n        addValue -= fees;\n        mappChannel[_channelID].enCours+=addValue;\n      }\n  }\n}\n\nfunction fermetureCanal(string memory _pseudo) public\n{\n  uint _channelID = uint(keccak256(bytes(_pseudo)));\n  require(mappChannel[_channelID].blocFermeture<=block.number);\n  require(mappChannel[_channelID].actif==true);\n  require(mappChannel[_channelID].demandeur==msg.sender);\n  msg.sender.transfer(mappChannel[_channelID].enCours);\n  mappChannel[_channelID].enCours = 0;\n  mappChannel[_channelID].montant = 0;\n  mappChannel[_channelID].blocFermeture = 0;\n  mappChannel[_channelID].actif=false;\n  mappChannel[_channelID].description=\"\";\n}\n\nfunction consommerTokens(uint _token) public\n{\n  require(balanceOf(msg.sender) >= _token);\n  msg.sender.transfer(_token);\n  _burnFrom(msg.sender,_token);\n}\n\n}\n",
  "sourcePath": "/Users/germaindacunha/Desktop/Alyra/project/src/contracts/Cagnottes.sol",
  "compiler": {
    "name": "solc",
    "version": "0.5.0+commit.1d4f565a.Emscripten.clang"
  },
  "schemaVersion": "3.0.2",
  "updatedAt": "2019-03-25T01:17:07.130Z",
  "devdoc": {
    "methods": {
      "_burnFrom(address,uint256)": {
        "details": "Internal function that burns an amount of the token of a given account, deducting from the sender's allowance for said account. Uses the internal burn function. Emits an Approval event (reflecting the reduced allowance).",
        "params": {
          "account": "The account whose tokens will be burnt.",
          "value": "The amount that will be burnt."
        }
      },
      "allowance(address,address)": {
        "details": "Function to check the amount of tokens that an owner allowed to a spender.",
        "params": {
          "owner": "address The address which owns the funds.",
          "spender": "address The address which will spend the funds."
        },
        "return": "A uint256 specifying the amount of tokens still available for the spender."
      },
      "approve(address,uint256)": {
        "details": "Approve the passed address to spend the specified amount of tokens on behalf of msg.sender. Beware that changing an allowance with this method brings the risk that someone may use both the old and the new allowance by unfortunate transaction ordering. One possible solution to mitigate this race condition is to first reduce the spender's allowance to 0 and set the desired value afterwards: https://github.com/ethereum/EIPs/issues/20#issuecomment-263524729",
        "params": {
          "spender": "The address which will spend the funds.",
          "value": "The amount of tokens to be spent."
        }
      },
      "balanceOf(address)": {
        "details": "Gets the balance of the specified address.",
        "params": {
          "owner": "The address to query the balance of."
        },
        "return": "A uint256 representing the amount owned by the passed address."
      },
      "decreaseAllowance(address,uint256)": {
        "details": "Decrease the amount of tokens that an owner allowed to a spender. approve should be called when _allowed[msg.sender][spender] == 0. To decrement allowed value is better to use this function to avoid 2 calls (and wait until the first transaction is mined) From MonolithDAO Token.sol Emits an Approval event.",
        "params": {
          "spender": "The address which will spend the funds.",
          "subtractedValue": "The amount of tokens to decrease the allowance by."
        }
      },
      "increaseAllowance(address,uint256)": {
        "details": "Increase the amount of tokens that an owner allowed to a spender. approve should be called when _allowed[msg.sender][spender] == 0. To increment allowed value is better to use this function to avoid 2 calls (and wait until the first transaction is mined) From MonolithDAO Token.sol Emits an Approval event.",
        "params": {
          "addedValue": "The amount of tokens to increase the allowance by.",
          "spender": "The address which will spend the funds."
        }
      },
      "totalSupply()": {
        "details": "Total number of tokens in existence"
      },
      "transfer(address,uint256)": {
        "details": "Transfer token to a specified address",
        "params": {
          "to": "The address to transfer to.",
          "value": "The amount to be transferred."
        }
      },
      "transferFrom(address,address,uint256)": {
        "details": "Transfer tokens from one address to another. Note that while this function emits an Approval event, this is not required as per the specification, and other compliant implementations may not emit the event.",
        "params": {
          "from": "address The address which you want to send tokens from",
          "to": "address The address which you want to transfer to",
          "value": "uint256 the amount of tokens to be transferred"
        }
      },
      "transferOwnership(address)": {
        "details": "Allows the current owner to transfer control of the contract to a newOwner.",
        "params": {
          "newOwner": "The address to transfer ownership to."
        }
      }
    }
  },
  "userdoc": {
    "methods": {}
  }
}