{
  "contractName": "Cagnottes",
  "abi": [
    {
      "constant": true,
      "inputs": [],
      "name": "name",
      "outputs": [
        {
          "name": "",
          "type": "string"
        }
      ],
      "payable": false,
      "stateMutability": "view",
      "type": "function"
    },
    {
      "constant": true,
      "inputs": [],
      "name": "TOKEN_BONUS",
      "outputs": [
        {
          "name": "",
          "type": "uint256"
        }
      ],
      "payable": false,
      "stateMutability": "view",
      "type": "function"
    },
    {
      "constant": false,
      "inputs": [
        {
          "name": "spender",
          "type": "address"
        },
        {
          "name": "value",
          "type": "uint256"
        }
      ],
      "name": "approve",
      "outputs": [
        {
          "name": "",
          "type": "bool"
        }
      ],
      "payable": false,
      "stateMutability": "nonpayable",
      "type": "function"
    },
    {
      "constant": true,
      "inputs": [],
      "name": "totalSupply",
      "outputs": [
        {
          "name": "",
          "type": "uint256"
        }
      ],
      "payable": false,
      "stateMutability": "view",
      "type": "function"
    },
    {
      "constant": false,
      "inputs": [
        {
          "name": "from",
          "type": "address"
        },
        {
          "name": "to",
          "type": "address"
        },
        {
          "name": "value",
          "type": "uint256"
        }
      ],
      "name": "transferFrom",
      "outputs": [
        {
          "name": "",
          "type": "bool"
        }
      ],
      "payable": false,
      "stateMutability": "nonpayable",
      "type": "function"
    },
    {
      "constant": true,
      "inputs": [],
      "name": "decimals",
      "outputs": [
        {
          "name": "",
          "type": "uint32"
        }
      ],
      "payable": false,
      "stateMutability": "view",
      "type": "function"
    },
    {
      "constant": false,
      "inputs": [
        {
          "name": "spender",
          "type": "address"
        },
        {
          "name": "addedValue",
          "type": "uint256"
        }
      ],
      "name": "increaseAllowance",
      "outputs": [
        {
          "name": "",
          "type": "bool"
        }
      ],
      "payable": false,
      "stateMutability": "nonpayable",
      "type": "function"
    },
    {
      "constant": true,
      "inputs": [],
      "name": "LAPS_TIME_TOKEN_WITHDRAW",
      "outputs": [
        {
          "name": "",
          "type": "uint256"
        }
      ],
      "payable": false,
      "stateMutability": "view",
      "type": "function"
    },
    {
      "constant": true,
      "inputs": [],
      "name": "PRICE_RATIO",
      "outputs": [
        {
          "name": "",
          "type": "uint256"
        }
      ],
      "payable": false,
      "stateMutability": "view",
      "type": "function"
    },
    {
      "constant": true,
      "inputs": [],
      "name": "PRICE_GROUP",
      "outputs": [
        {
          "name": "",
          "type": "uint256"
        }
      ],
      "payable": false,
      "stateMutability": "view",
      "type": "function"
    },
    {
      "constant": true,
      "inputs": [],
      "name": "TIME_TOKEN_WITHDRAW",
      "outputs": [
        {
          "name": "",
          "type": "uint256"
        }
      ],
      "payable": false,
      "stateMutability": "view",
      "type": "function"
    },
    {
      "constant": true,
      "inputs": [
        {
          "name": "owner",
          "type": "address"
        }
      ],
      "name": "balanceOf",
      "outputs": [
        {
          "name": "",
          "type": "uint256"
        }
      ],
      "payable": false,
      "stateMutability": "view",
      "type": "function"
    },
    {
      "constant": true,
      "inputs": [],
      "name": "owner",
      "outputs": [
        {
          "name": "",
          "type": "address"
        }
      ],
      "payable": false,
      "stateMutability": "view",
      "type": "function"
    },
    {
      "constant": true,
      "inputs": [],
      "name": "DESERVERVE_BONUS",
      "outputs": [
        {
          "name": "",
          "type": "uint256"
        }
      ],
      "payable": false,
      "stateMutability": "view",
      "type": "function"
    },
    {
      "constant": true,
      "inputs": [],
      "name": "symbol",
      "outputs": [
        {
          "name": "",
          "type": "string"
        }
      ],
      "payable": false,
      "stateMutability": "view",
      "type": "function"
    },
    {
      "constant": false,
      "inputs": [
        {
          "name": "spender",
          "type": "address"
        },
        {
          "name": "subtractedValue",
          "type": "uint256"
        }
      ],
      "name": "decreaseAllowance",
      "outputs": [
        {
          "name": "",
          "type": "bool"
        }
      ],
      "payable": false,
      "stateMutability": "nonpayable",
      "type": "function"
    },
    {
      "constant": false,
      "inputs": [
        {
          "name": "to",
          "type": "address"
        },
        {
          "name": "value",
          "type": "uint256"
        }
      ],
      "name": "transfer",
      "outputs": [
        {
          "name": "",
          "type": "bool"
        }
      ],
      "payable": false,
      "stateMutability": "nonpayable",
      "type": "function"
    },
    {
      "constant": true,
      "inputs": [],
      "name": "PRICE_MEMBRE",
      "outputs": [
        {
          "name": "",
          "type": "uint256"
        }
      ],
      "payable": false,
      "stateMutability": "view",
      "type": "function"
    },
    {
      "constant": true,
      "inputs": [],
      "name": "MAX_AMOUNT",
      "outputs": [
        {
          "name": "",
          "type": "uint256"
        }
      ],
      "payable": false,
      "stateMutability": "view",
      "type": "function"
    },
    {
      "constant": true,
      "inputs": [
        {
          "name": "owner",
          "type": "address"
        },
        {
          "name": "spender",
          "type": "address"
        }
      ],
      "name": "allowance",
      "outputs": [
        {
          "name": "",
          "type": "uint256"
        }
      ],
      "payable": false,
      "stateMutability": "view",
      "type": "function"
    },
    {
      "constant": true,
      "inputs": [],
      "name": "MIN_AMOUNT",
      "outputs": [
        {
          "name": "",
          "type": "uint256"
        }
      ],
      "payable": false,
      "stateMutability": "view",
      "type": "function"
    },
    {
      "constant": true,
      "inputs": [],
      "name": "MAX_DELAI",
      "outputs": [
        {
          "name": "",
          "type": "uint256"
        }
      ],
      "payable": false,
      "stateMutability": "view",
      "type": "function"
    },
    {
      "constant": true,
      "inputs": [],
      "name": "PRICE_CHANNEL",
      "outputs": [
        {
          "name": "",
          "type": "uint256"
        }
      ],
      "payable": false,
      "stateMutability": "view",
      "type": "function"
    },
    {
      "constant": false,
      "inputs": [
        {
          "name": "newOwner",
          "type": "address"
        }
      ],
      "name": "transferOwnership",
      "outputs": [],
      "payable": false,
      "stateMutability": "nonpayable",
      "type": "function"
    },
    {
      "inputs": [],
      "payable": false,
      "stateMutability": "nonpayable",
      "type": "constructor"
    },
    {
      "anonymous": false,
      "inputs": [
        {
          "indexed": true,
          "name": "previousOwner",
          "type": "address"
        },
        {
          "indexed": true,
          "name": "newOwner",
          "type": "address"
        }
      ],
      "name": "OwnershipTransferred",
      "type": "event"
    },
    {
      "anonymous": false,
      "inputs": [
        {
          "indexed": true,
          "name": "from",
          "type": "address"
        },
        {
          "indexed": true,
          "name": "to",
          "type": "address"
        },
        {
          "indexed": false,
          "name": "value",
          "type": "uint256"
        }
      ],
      "name": "Transfer",
      "type": "event"
    },
    {
      "anonymous": false,
      "inputs": [
        {
          "indexed": true,
          "name": "owner",
          "type": "address"
        },
        {
          "indexed": true,
          "name": "spender",
          "type": "address"
        },
        {
          "indexed": false,
          "name": "value",
          "type": "uint256"
        }
      ],
      "name": "Approval",
      "type": "event"
    },
    {
      "constant": false,
      "inputs": [
        {
          "name": "_nom",
          "type": "string"
        },
        {
          "name": "_pseudo",
          "type": "string"
        }
      ],
      "name": "creerGroupe",
      "outputs": [],
      "payable": true,
      "stateMutability": "payable",
      "type": "function"
    },
    {
      "constant": false,
      "inputs": [
        {
          "name": "_membre",
          "type": "address"
        },
        {
          "name": "_groupe",
          "type": "string"
        },
        {
          "name": "_pseudo",
          "type": "string"
        }
      ],
      "name": "ajouterMembre",
      "outputs": [],
      "payable": true,
      "stateMutability": "payable",
      "type": "function"
    },
    {
      "constant": false,
      "inputs": [
        {
          "name": "_montant",
          "type": "uint256"
        },
        {
          "name": "_delai",
          "type": "uint256"
        },
        {
          "name": "_pseudo",
          "type": "string"
        },
        {
          "name": "_description",
          "type": "string"
        },
        {
          "name": "_contrat",
          "type": "address"
        }
      ],
      "name": "demander",
      "outputs": [],
      "payable": true,
      "stateMutability": "payable",
      "type": "function"
    },
    {
      "constant": false,
      "inputs": [
        {
          "name": "_pseudo",
          "type": "string"
        },
        {
          "name": "_address",
          "type": "address"
        }
      ],
      "name": "payerCanal",
      "outputs": [],
      "payable": true,
      "stateMutability": "payable",
      "type": "function"
    },
    {
      "constant": false,
      "inputs": [
        {
          "name": "_pseudo",
          "type": "string"
        }
      ],
      "name": "fermetureCanal",
      "outputs": [],
      "payable": false,
      "stateMutability": "nonpayable",
      "type": "function"
    },
    {
      "constant": false,
      "inputs": [
        {
          "name": "_amount",
          "type": "uint256"
        }
      ],
      "name": "withdrawEther",
      "outputs": [],
      "payable": false,
      "stateMutability": "nonpayable",
      "type": "function"
    },
    {
      "constant": false,
      "inputs": [],
      "name": "tokenToEther",
      "outputs": [],
      "payable": false,
      "stateMutability": "nonpayable",
      "type": "function"
    },
    {
      "constant": false,
      "inputs": [
        {
          "name": "_seuil",
          "type": "uint256"
        }
      ],
      "name": "modifierMeriteBonus",
      "outputs": [],
      "payable": false,
      "stateMutability": "nonpayable",
      "type": "function"
    },
    {
      "constant": false,
      "inputs": [
        {
          "name": "_tokenBonus",
          "type": "uint256"
        }
      ],
      "name": "modifierTokenBonus",
      "outputs": [],
      "payable": false,
      "stateMutability": "nonpayable",
      "type": "function"
    },
    {
      "constant": false,
      "inputs": [
        {
          "name": "_laspsTime",
          "type": "uint256"
        }
      ],
      "name": "modifierLapsTimeToWithdraw",
      "outputs": [],
      "payable": false,
      "stateMutability": "nonpayable",
      "type": "function"
    },
    {
      "constant": false,
      "inputs": [
        {
          "name": "_TimeToWithdraw",
          "type": "uint256"
        }
      ],
      "name": "modifierTimeToWithdraw",
      "outputs": [],
      "payable": false,
      "stateMutability": "nonpayable",
      "type": "function"
    },
    {
      "constant": false,
      "inputs": [
        {
          "name": "_maxDelai",
          "type": "uint256"
        }
      ],
      "name": "modifierDelai",
      "outputs": [],
      "payable": false,
      "stateMutability": "nonpayable",
      "type": "function"
    },
    {
      "constant": false,
      "inputs": [
        {
          "name": "_maxAmount",
          "type": "uint256"
        }
      ],
      "name": "modifierMaxAmount",
      "outputs": [],
      "payable": false,
      "stateMutability": "nonpayable",
      "type": "function"
    },
    {
      "constant": false,
      "inputs": [
        {
          "name": "_minAmount",
          "type": "uint256"
        }
      ],
      "name": "modifierMinAmount",
      "outputs": [],
      "payable": false,
      "stateMutability": "nonpayable",
      "type": "function"
    },
    {
      "constant": false,
      "inputs": [
        {
          "name": "_priceChannel",
          "type": "uint256"
        }
      ],
      "name": "modifierCharges",
      "outputs": [],
      "payable": false,
      "stateMutability": "nonpayable",
      "type": "function"
    },
    {
      "constant": false,
      "inputs": [
        {
          "name": "_priceGroup",
          "type": "uint256"
        }
      ],
      "name": "modifierPriceGroup",
      "outputs": [],
      "payable": false,
      "stateMutability": "nonpayable",
      "type": "function"
    },
    {
      "constant": false,
      "inputs": [
        {
          "name": "_priceMember",
          "type": "uint256"
        }
      ],
      "name": "modifierPriceMember",
      "outputs": [],
      "payable": false,
      "stateMutability": "nonpayable",
      "type": "function"
    },
    {
      "constant": false,
      "inputs": [
        {
          "name": "_priceDemand",
          "type": "uint256"
        }
      ],
      "name": "modifierPriceDemand",
      "outputs": [],
      "payable": false,
      "stateMutability": "nonpayable",
      "type": "function"
    },
    {
      "constant": true,
      "inputs": [],
      "name": "getGroupesPerAddress",
      "outputs": [
        {
          "name": "",
          "type": "uint256[]"
        }
      ],
      "payable": false,
      "stateMutability": "view",
      "type": "function"
    },
    {
      "constant": true,
      "inputs": [
        {
          "name": "_groupe",
          "type": "string"
        }
      ],
      "name": "getMembres",
      "outputs": [
        {
          "name": "",
          "type": "uint256[]"
        }
      ],
      "payable": false,
      "stateMutability": "view",
      "type": "function"
    },
    {
      "constant": true,
      "inputs": [
        {
          "name": "_ID",
          "type": "uint256"
        }
      ],
      "name": "getNomMembre",
      "outputs": [
        {
          "name": "",
          "type": "string"
        }
      ],
      "payable": false,
      "stateMutability": "view",
      "type": "function"
    },
    {
      "constant": true,
      "inputs": [
        {
          "name": "_ID",
          "type": "uint256"
        }
      ],
      "name": "getContratCible",
      "outputs": [
        {
          "name": "",
          "type": "address"
        }
      ],
      "payable": false,
      "stateMutability": "view",
      "type": "function"
    },
    {
      "constant": true,
      "inputs": [
        {
          "name": "_ID",
          "type": "uint256"
        }
      ],
      "name": "getMontant",
      "outputs": [
        {
          "name": "",
          "type": "uint256"
        }
      ],
      "payable": false,
      "stateMutability": "view",
      "type": "function"
    },
    {
      "constant": true,
      "inputs": [
        {
          "name": "_ID",
          "type": "uint256"
        }
      ],
      "name": "getBlockFermeture",
      "outputs": [
        {
          "name": "",
          "type": "uint256"
        }
      ],
      "payable": false,
      "stateMutability": "view",
      "type": "function"
    },
    {
      "constant": true,
      "inputs": [
        {
          "name": "_ID",
          "type": "uint256"
        }
      ],
      "name": "getEncours",
      "outputs": [
        {
          "name": "",
          "type": "uint256"
        }
      ],
      "payable": false,
      "stateMutability": "view",
      "type": "function"
    },
    {
      "constant": true,
      "inputs": [
        {
          "name": "_ID",
          "type": "uint256"
        }
      ],
      "name": "getDonnations",
      "outputs": [
        {
          "name": "",
          "type": "uint256"
        }
      ],
      "payable": false,
      "stateMutability": "view",
      "type": "function"
    },
    {
      "constant": true,
      "inputs": [
        {
          "name": "_ID",
          "type": "uint256"
        }
      ],
      "name": "getDemandeur",
      "outputs": [
        {
          "name": "",
          "type": "address"
        }
      ],
      "payable": false,
      "stateMutability": "view",
      "type": "function"
    },
    {
      "constant": true,
      "inputs": [
        {
          "name": "_ID",
          "type": "uint256"
        }
      ],
      "name": "getReceptions",
      "outputs": [
        {
          "name": "",
          "type": "uint256"
        }
      ],
      "payable": false,
      "stateMutability": "view",
      "type": "function"
    },
    {
      "constant": true,
      "inputs": [
        {
          "name": "_ID",
          "type": "uint256"
        }
      ],
      "name": "getTime",
      "outputs": [
        {
          "name": "",
          "type": "uint256"
        }
      ],
      "payable": false,
      "stateMutability": "view",
      "type": "function"
    },
    {
      "constant": true,
      "inputs": [
        {
          "name": "_ID",
          "type": "uint256"
        }
      ],
      "name": "getNomGroupe",
      "outputs": [
        {
          "name": "",
          "type": "string"
        }
      ],
      "payable": false,
      "stateMutability": "view",
      "type": "function"
    },
    {
      "constant": true,
      "inputs": [],
      "name": "getOwnedGroupe",
      "outputs": [
        {
          "name": "",
          "type": "uint256[]"
        }
      ],
      "payable": false,
      "stateMutability": "view",
      "type": "function"
    },
    {
      "constant": true,
      "inputs": [
        {
          "name": "_groupe",
          "type": "string"
        },
        {
          "name": "_address",
          "type": "address"
        }
      ],
      "name": "getPseudoInGroup",
      "outputs": [
        {
          "name": "",
          "type": "string"
        }
      ],
      "payable": false,
      "stateMutability": "view",
      "type": "function"
    }
  ],
  "bytecode": "0x608060405234801561001057600080fd5b5060038054600160a060020a0319163317905560c8600e556509184e72a000600f55612710601055606460118190556402540be400601255620186a06013556000601455620f4240601555601655600a60175560016018556128eb806100776000396000f3fe60806040526004361061029d5763ffffffff7c010000000000000000000000000000000000000000000000000000000060003504166306fdde0381146102a257806307ef53371461032c578063095ea7b3146103535780630e5857c1146103a057806317503266146103cc57806318160ddd146103f65780631e0afe571461040b57806323b872dd1461047057806327f128b3146104b357806329c77347146104dd578063313ce5671461059057806339509351146105be578063397ef769146105f757806339f88c151461060c5780633bed33ce146106525780633c431d6a1461067c57806341522997146106915780634a3f4a5d146106bb5780634b7b03cf146106d05780634c9a9850146106fa5780634dc887291461072457806351266706146107d757806354a434fc146108015780635f0935531461081657806370a082311461084057806373343f1a1461087357806373627826146109b7578063750fa0a3146109e15780637ff774d814610a0b5780638da5cb5b14610a355780638f33334114610a4a578063911f444e14610b8757806395d89b4114610b9c5780639acdb25b14610bb1578063a457c2d714610bdb578063a9059cbb14610c14578063beaf3b0d14610c4d578063cc43eb0b14610c77578063ce329d0014610d35578063d335c04314610d5f578063d40dc87014610d74578063da28be7514610d89578063db56926d14610d9e578063db65139414610e4f578063dd62ed3e14610e79578063ddbcb5fa14610eb4578063df40e32914610ec9578063e09c813614610ef3578063e0c989c214610f08578063e6e4484114610f32578063f1df52c514610f47578063f2fde38b14610f5c578063f4343df414610f8f578063f4629665146110bc578063f4839772146110e6578063f8efcf4f14611110575b600080fd5b3480156102ae57600080fd5b506102b761113a565b6040805160208082528351818301528351919283929083019185019080838360005b838110156102f15781810151838201526020016102d9565b50505050905090810190601f16801561031e5780820380516001836020036101000a031916815260200191505b509250505060405180910390f35b34801561033857600080fd5b50610341611171565b60408051918252519081900360200190f35b34801561035f57600080fd5b5061038c6004803603604081101561037657600080fd5b50600160a060020a038135169060200135611177565b604080519115158252519081900360200190f35b3480156103ac57600080fd5b506103ca600480360360208110156103c357600080fd5b503561118d565b005b3480156103d857600080fd5b506103ca600480360360208110156103ef57600080fd5b50356111a9565b34801561040257600080fd5b506103416111c5565b34801561041757600080fd5b506104206111cc565b60408051602080825283518183015283519192839290830191858101910280838360005b8381101561045c578181015183820152602001610444565b505050509050019250505060405180910390f35b34801561047c57600080fd5b5061038c6004803603606081101561049357600080fd5b50600160a060020a0381358116916020810135909116906040013561122d565b3480156104bf57600080fd5b50610341600480360360208110156104d657600080fd5b5035611284565b3480156104e957600080fd5b506104206004803603602081101561050057600080fd5b81019060208101813564010000000081111561051b57600080fd5b82018360208201111561052d57600080fd5b8035906020019184600183028401116401000000008311171561054f57600080fd5b91908080601f01602080910402602001604051908101604052809392919081815260200183838082843760009201919091525092955061129c945050505050565b34801561059c57600080fd5b506105a561134a565b6040805163ffffffff9092168252519081900360200190f35b3480156105ca57600080fd5b5061038c600480360360408110156105e157600080fd5b50600160a060020a03813516906020013561134f565b34801561060357600080fd5b5061034161138b565b34801561061857600080fd5b506106366004803603602081101561062f57600080fd5b5035611391565b60408051600160a060020a039092168252519081900360200190f35b34801561065e57600080fd5b506103ca6004803603602081101561067557600080fd5b50356113af565b34801561068857600080fd5b506103416113f7565b34801561069d57600080fd5b506102b7600480360360208110156106b457600080fd5b50356113fd565b3480156106c757600080fd5b50610341611494565b3480156106dc57600080fd5b506102b7600480360360208110156106f357600080fd5b503561149a565b34801561070657600080fd5b506103416004803603602081101561071d57600080fd5b503561151b565b34801561073057600080fd5b506103ca6004803603602081101561074757600080fd5b81019060208101813564010000000081111561076257600080fd5b82018360208201111561077457600080fd5b8035906020019184600183028401116401000000008311171561079657600080fd5b91908080601f016020809104026020016040519081016040528093929190818152602001838380828437600092019190915250929550611530945050505050565b3480156107e357600080fd5b506103ca600480360360208110156107fa57600080fd5b503561163a565b34801561080d57600080fd5b50610341611656565b34801561082257600080fd5b506103ca6004803603602081101561083957600080fd5b503561165c565b34801561084c57600080fd5b506103416004803603602081101561086357600080fd5b5035600160a060020a0316611678565b6103ca600480360360a081101561088957600080fd5b8135916020810135918101906060810160408201356401000000008111156108b057600080fd5b8201836020820111156108c257600080fd5b803590602001918460018302840111640100000000831117156108e457600080fd5b91908080601f016020809104026020016040519081016040528093929190818152602001838380828437600092019190915250929594936020810193503591505064010000000081111561093757600080fd5b82018360208201111561094957600080fd5b8035906020019184600183028401116401000000008311171561096b57600080fd5b91908080601f01602080910402602001604051908101604052809392919081815260200183838082843760009201919091525092955050509035600160a060020a031691506116939050565b3480156109c357600080fd5b50610341600480360360208110156109da57600080fd5b50356117d5565b3480156109ed57600080fd5b5061034160048036036020811015610a0457600080fd5b5035611810565b348015610a1757600080fd5b506103ca60048036036020811015610a2e57600080fd5b5035611825565b348015610a4157600080fd5b50610636611841565b6103ca60048036036060811015610a6057600080fd5b600160a060020a038235169190810190604081016020820135640100000000811115610a8b57600080fd5b820183602082011115610a9d57600080fd5b80359060200191846001830284011164010000000083111715610abf57600080fd5b91908080601f0160208091040260200160405190810160405280939291908181526020018383808284376000920191909152509295949360208101935035915050640100000000811115610b1257600080fd5b820183602082011115610b2457600080fd5b80359060200191846001830284011164010000000083111715610b4657600080fd5b91908080601f016020809104026020016040519081016040528093929190818152602001838380828437600092019190915250929550611850945050505050565b348015610b9357600080fd5b50610341611aa4565b348015610ba857600080fd5b506102b7611aaa565b348015610bbd57600080fd5b506103ca60048036036020811015610bd457600080fd5b5035611ae1565b348015610be757600080fd5b5061038c60048036036040811015610bfe57600080fd5b50600160a060020a038135169060200135611afd565b348015610c2057600080fd5b5061038c60048036036040811015610c3757600080fd5b50600160a060020a038135169060200135611b39565b348015610c5957600080fd5b506103ca60048036036020811015610c7057600080fd5b5035611b46565b348015610c8357600080fd5b506102b760048036036040811015610c9a57600080fd5b810190602081018135640100000000811115610cb557600080fd5b820183602082011115610cc757600080fd5b80359060200191846001830284011164010000000083111715610ce957600080fd5b91908080601f01602080910402602001604051908101604052809392919081815260200183838082843760009201919091525092955050509035600160a060020a03169150611b629050565b348015610d4157600080fd5b5061034160048036036020811015610d5857600080fd5b5035611c2e565b348015610d6b57600080fd5b50610341611c43565b348015610d8057600080fd5b50610341611c49565b348015610d9557600080fd5b506103ca611c4f565b6103ca60048036036040811015610db457600080fd5b810190602081018135640100000000811115610dcf57600080fd5b820183602082011115610de157600080fd5b80359060200191846001830284011164010000000083111715610e0357600080fd5b91908080601f01602080910402602001604051908101604052809392919081815260200183838082843760009201919091525092955050509035600160a060020a03169150611d179050565b348015610e5b57600080fd5b5061063660048036036020811015610e7257600080fd5b5035611e67565b348015610e8557600080fd5b5061034160048036036040811015610e9c57600080fd5b50600160a060020a0381358116916020013516611e82565b348015610ec057600080fd5b50610341611ead565b348015610ed557600080fd5b5061034160048036036020811015610eec57600080fd5b5035611eb3565b348015610eff57600080fd5b50610420611ec8565b348015610f1457600080fd5b506103ca60048036036020811015610f2b57600080fd5b5035611f27565b348015610f3e57600080fd5b50610341611f43565b348015610f5357600080fd5b50610341611f49565b348015610f6857600080fd5b506103ca60048036036020811015610f7f57600080fd5b5035600160a060020a0316611f4f565b6103ca60048036036040811015610fa557600080fd5b810190602081018135640100000000811115610fc057600080fd5b820183602082011115610fd257600080fd5b80359060200191846001830284011164010000000083111715610ff457600080fd5b91908080601f016020809104026020016040519081016040528093929190818152602001838380828437600092019190915250929594936020810193503591505064010000000081111561104757600080fd5b82018360208201111561105957600080fd5b8035906020019184600183028401116401000000008311171561107b57600080fd5b91908080601f016020809104026020016040519081016040528093929190818152602001838380828437600092019190915250929550611fd7945050505050565b3480156110c857600080fd5b506103ca600480360360208110156110df57600080fd5b503561230a565b3480156110f257600080fd5b506103ca6004803603602081101561110957600080fd5b5035612326565b34801561111c57600080fd5b506103ca6004803603602081101561113357600080fd5b5035612342565b60408051808201909152600881527f67696d69636f696e000000000000000000000000000000000000000000000000602082015281565b60145481565b600061118433848461235e565b50600192915050565b600354600160a060020a031633146111a457600080fd5b601855565b600354600160a060020a031633146111c057600080fd5b601655565b6002545b90565b3360009081526005602090815260409182902080548351818402810184019094528084526060939283018282801561122357602002820191906000526020600020905b81548152602001906001019080831161120f575b5050505050905090565b600061123a8484846123ea565b600160a060020a03841660009081526001602090815260408083203380855292529091205461127a918691611275908663ffffffff6124b716565b61235e565b5060019392505050565b6000818152600460205260409020600601545b919050565b60606006826040518082805190602001908083835b602083106112d05780518252601f1990920191602091820191016112b1565b51815160209384036101000a60001901801990921691161790529201948552506040805194859003820185208054808402870184019092528186529350915083018282801561133e57602002820191906000526020600020905b81548152602001906001019080831161132a575b50505050509050919050565b601281565b336000818152600160209081526040808320600160a060020a03871684529091528120549091611184918590611275908663ffffffff6124c916565b60135481565b600090815260046020526040902060090154600160a060020a031690565b600354600160a060020a031633146113c657600080fd5b604051339082156108fc029083906000818181858888f193505050501580156113f3573d6000803e3d6000fd5b5050565b60115481565b60008181526007602090815260409182902080548351601f600260001961010060018616150201909316929092049182018490048402810184019094528084526060939283018282801561133e5780601f106114675761010080835404028352916020019161133e565b820191906000526020600020905b8154815290600101906020018083116114755750939695505050505050565b60165481565b6060600460008381526020019081526020016000206001018054600181600116156101000203166002900480601f01602080910402602001604051908101604052809291908181526020018280546001816001161561010002031660029004801561133e5780601f106114675761010080835404028352916020019161133e565b60009081526004602052604090206005015490565b80516020808301919091206000818152600492839052604090209091015460ff16151560011461155f57600080fd5b600081815260046020526040902054600160a060020a0316331461158257600080fd5b600081815260046020526040808220600501549051339282156108fc02929190818181858888f193505050501580156115bf573d6000803e3d6000fd5b506000818152600460208181526040808420600581018590556002810185905560038101859055808401805460ff19169055815180840192839052858152948690529290915291516116179260089092019190612827565b5060009081526004602052604090206009018054600160a060020a031916905550565b600354600160a060020a0316331461165157600080fd5b601155565b60125481565b600354600160a060020a0316331461167357600080fd5b601755565b600160a060020a031660009081526020819052604090205490565b60185434146116a157600080fd5b33600160a060020a0316600c846040518082805190602001908083835b602083106116dd5780518252601f1990920191602091820191016116be565b51815160209384036101000a6000190180199092169116179052920194855250604051938490030190922054600160a060020a0316929092149150611723905057600080fd5b600e5484111561173257600080fd5b82516020808501919091206000818152600492839052604090209091015460ff161561175d57600080fd5b600081815260046020818152604090922060028101899055908101805460ff191660011790554387016003820155845161179f92600890920191860190612827565b5060009081526004602052604090206009018054600160a060020a031916600160a060020a039290921691909117905550505050565b60008181526004602052604081206003015443106117f557506000611297565b50600081815260046020526040902060030154439003611297565b60009081526004602052604090206002015490565b600354600160a060020a0316331461183c57600080fd5b601355565b600354600160a060020a031681565b601754341461185e57600080fd5b6000600160a060020a0316600c826040518082805190602001908083835b6020831061189b5780518252601f19909201916020918201910161187c565b51815160209384036101000a6000190180199092169116179052920194855250604051938490030190922054600160a060020a03169290921491506118e1905057600080fd5b33600160a060020a03166009836040518082805190602001908083835b6020831061191d5780518252601f1990920191602091820191016118fe565b51815160209384036101000a6000190180199092169116179052920194855250604051938490030190922054600160a060020a0316929092149150611963905057600080fd5b82600c826040518082805190602001908083835b602083106119965780518252601f199092019160209182019101611977565b51815160209384036101000a60001901801990921691161790529201948552506040805194859003820185208054600160a060020a031916600160a060020a039788161790558751888301908120968a166000908152600584529182208054600181018255908352929091209091018590558651600b9488945092508291908083835b60208310611a385780518252601f199092019160209182019101611a19565b51815160209384036101000a6000190180199092169116179052920194855250604051938490038101909320805460018101825560009182529390209092018054600160a060020a031916600160a060020a03881617905550611a9e90508284866124df565b50505050565b60155481565b60408051808201909152600381527f474d430000000000000000000000000000000000000000000000000000000000602082015281565b600354600160a060020a03163314611af857600080fd5b601555565b336000818152600160209081526040808320600160a060020a03871684529091528120549091611184918590611275908663ffffffff6124b716565b60006111843384846123ea565b600354600160a060020a03163314611b5d57600080fd5b600f55565b81516020808401919091206000818152600d83526040808220600160a060020a038616835284528082205482526004845290819020600190810180548351600293821615610100026000190190911692909204601f810186900486028301860190935282825260609491929091830182828015611c205780601f10611bf557610100808354040283529160200191611c20565b820191906000526020600020905b815481529060010190602001808311611c0357829003601f168201915b505050505091505092915050565b60009081526004602052604090206007015490565b60175481565b600f5481565b600060125443811515611c5e57fe5b0610158015611c7c575060135460125443811515611c7857fe5b0611155b1515611c8757600080fd5b6000611ca4601554611c9833611678565b9063ffffffff61265416565b9050611cbb6014548261266b90919063ffffffff16565b50336108fc611cd983611ccd84611678565b9063ffffffff6124c916565b6040518115909202916000818181858888f19350505050158015611d01573d6000803e3d6000fd5b50611d1433611d0f33611678565b61268f565b50565b815160208084019190912060008181526004909252604090912054600160a060020a03838116911614611d4957600080fd5b6000818152600460205260409020600581015460029091015411611d6c57600080fd5b6000818152600460208190526040909120015460ff161515600114611d9057600080fd5b600081815260046020526040902060030154431115611dae57600080fd5b600060115434811515611dbd57fe5b049050611dd933611dd4348463ffffffff6124b716565b6126d4565b83516020808601919091206000908152600490915260409020600601543490611e08908263ffffffff6124c916565b50611e19818363ffffffff6124b716565b50600083815260046020526040902060070154611e3c908263ffffffff6124c916565b50600083815260046020526040902060050154611e5f908263ffffffff6124c916565b505050505050565b600090815260046020526040902054600160a060020a031690565b600160a060020a03918216600090815260016020908152604080832093909416825291909152205490565b60105481565b60009081526004602052604090206003015490565b33600090815260086020908152604091829020805483518184028101840190945280845260609392830182828015611223576020028201919060005260206000209081548152602001906001019080831161120f575050505050905090565b600354600160a060020a03163314611f3e57600080fd5b600e55565b600e5481565b60185481565b600354600160a060020a03163314611f6657600080fd5b600160a060020a0381161515611f7b57600080fd5b600354604051600160a060020a038084169216907f8be0079c531659141344cd1fd0a4f28419497f9722a3daafe3b4186f6b6457e090600090a360038054600160a060020a031916600160a060020a0392909216919091179055565b6016543414611fe557600080fd5b600a826040518082805190602001908083835b602083106120175780518252601f199092019160209182019101611ff8565b51815160209384036101000a6000190180199092169116179052920194855250604051938490030190922054159150612051905057600080fd5b6000600160a060020a0316600c826040518082805190602001908083835b6020831061208e5780518252601f19909201916020918201910161206f565b51815160209384036101000a6000190180199092169116179052920194855250604051938490030190922054600160a060020a03169290921491506120d4905057600080fd5b33600c826040518082805190602001908083835b602083106121075780518252601f1990920191602091820191016120e8565b51815160209384036101000a600019018019909216911617905292019485525060405193849003810184208054600160a060020a031916600160a060020a03969096169590951790945550508351918401828120928392600a9287928291908083835b602083106121895780518252601f19909201916020918201910161216a565b51815160209384036101000a6000190180199092169116179052920194855250604051938490038101842094909455505084513392600992879290918291908401908083835b602083106121ee5780518252601f1990920191602091820191016121cf565b51815160209384036101000a6000190180199092169116179052920194855250604080519485900382019094208054600160a060020a031916600160a060020a039690961695909517909455505060008381526007835220845161225492860190612827565b50600b836040518082805190602001908083835b602083106122875780518252601f199092019160209182019101612268565b51815160209384036101000a6000190180199092169116179052920194855250604080519485900382019094208054600180820183556000928352838320909101805433600160a060020a031990911681179091558083526005845295822080549182018155825291902001849055506123059184915085906124df565b505050565b600354600160a060020a0316331461232157600080fd5b601455565b600354600160a060020a0316331461233d57600080fd5b601055565b600354600160a060020a0316331461235957600080fd5b601255565b600160a060020a038216151561237357600080fd5b600160a060020a038316151561238857600080fd5b600160a060020a03808416600081815260016020908152604080832094871680845294825291829020859055815185815291517f8c5be1e5ebec7d5bd14f71427d1e84f3dd0314c0f7b2291e5b200ac8c7c3b9259281900390910190a3505050565b600160a060020a03821615156123ff57600080fd5b600160a060020a038316600090815260208190526040902054612428908263ffffffff6124b716565b600160a060020a03808516600090815260208190526040808220939093559084168152205461245d908263ffffffff6124c916565b600160a060020a038084166000818152602081815260409182902094909455805185815290519193928716927fddf252ad1be2c89b69c2b068fc378daa952ba7f163c4a11628f55a4df523b3ef92918290030190a3505050565b6000828211156124c357fe5b50900390565b6000828201838110156124d857fe5b9392505050565b8251602080850182812085519286019290922060405192939092600160a060020a03861692600c9289929182918083835b6020831061252f5780518252601f199092019160209182019101612510565b51815160209384036101000a6000190180199092169116179052920194855250604051938490030190922054600160a060020a0316929092149150612575905057600080fd5b6000828152600460208181526040909220908101805460ff1916905586516125a592600190920191880190612827565b506000828152600460209081526040918290208054600160a060020a031916331790559051855160069287929182918401908083835b602083106125fa5780518252601f1990920191602091820191016125db565b51815160209384036101000a6000190180199092169116179052920194855250604080519485900382019094208054600181018255600091825282822001879055948552600d815283852033865290525050902055505050565b600080828481151561266257fe5b04949350505050565b6000828202831580612687575082848281151561268457fe5b04145b15156124d857fe5b612699828261277e565b600160a060020a0382166000908152600160209081526040808320338085529252909120546113f3918491611275908563ffffffff6124b716565b600160a060020a03821615156126e957600080fd5b6002546126fc908263ffffffff6124c916565b600255600160a060020a038216600090815260208190526040902054612728908263ffffffff6124c916565b600160a060020a0383166000818152602081815260408083209490945583518581529351929391927fddf252ad1be2c89b69c2b068fc378daa952ba7f163c4a11628f55a4df523b3ef9281900390910190a35050565b600160a060020a038216151561279357600080fd5b6002546127a6908263ffffffff6124b716565b600255600160a060020a0382166000908152602081905260409020546127d2908263ffffffff6124b716565b600160a060020a038316600081815260208181526040808320949094558351858152935191937fddf252ad1be2c89b69c2b068fc378daa952ba7f163c4a11628f55a4df523b3ef929081900390910190a35050565b828054600181600116156101000203166002900490600052602060002090601f016020900481019282601f1061286857805160ff1916838001178555612895565b82800160010185558215612895579182015b8281111561289557825182559160200191906001019061287a565b506128a19291506128a5565b5090565b6111c991905b808211156128a157600081556001016128ab56fea165627a7a723058205cd96760dd9f6515ddc65c91755338614baa01bc7a0177714a6168d05da457ca0029",
  "source": "pragma solidity ^0.5.0;\n\nimport \"./Gimicoin.sol\";\nimport \"./Ownable.sol\";\n\ncontract Cagnottes is Gimicoin, Ownable{\n\nmapping (uint => channel) private mappChannel;\nmapping (address => uint[]) private mappGroupesForAddress;\nmapping (string => uint[]) private mappGroupeAndChannels;\nmapping (uint => string) private mappIDGroupe;\nmapping (address => uint[]) private mappOwnedGroup;\nmapping (string => address) private mappGroupeOwner;\nmapping (string => uint) private mappNomGroupe;\nmapping (string => address[]) private mappGroupe;\nmapping (string => address) private mappPseudo;\n\nmapping (uint => mapping (address => uint)) private mappPseudoInGroup;\n\nuint public MAX_DELAI;\nuint public MAX_AMOUNT;\nuint public MIN_AMOUNT;\nuint public PRICE_RATIO;\nuint public TIME_TOKEN_WITHDRAW;\nuint public LAPS_TIME_TOKEN_WITHDRAW;\nuint public TOKEN_BONUS;\nuint public DESERVERVE_BONUS;\nuint public PRICE_GROUP;\nuint public PRICE_MEMBRE;\nuint public PRICE_CHANNEL;\n\nstruct channel\n{\n  address demandeur;\n  string pseudo;\n  uint montant;\n  uint blocFermeture;\n  bool actif;\n  uint enCours;\n  uint donnations;\n  uint receptions;\n  string description;\n  address contratCible;\n}\n\nconstructor() public\n{\n  MAX_DELAI = 200;\n  MAX_AMOUNT = 10000000000000;\n  MIN_AMOUNT = 10000;\n  PRICE_RATIO = 100;\n  TIME_TOKEN_WITHDRAW = 10000000000;\n  LAPS_TIME_TOKEN_WITHDRAW = 100000;\n  TOKEN_BONUS = 0;\n  DESERVERVE_BONUS = 1000000;\n  PRICE_GROUP = 100;\n  PRICE_MEMBRE = 10;\n  PRICE_CHANNEL = 1;\n}\n\nfunction creerGroupe(string memory _nom, string memory _pseudo) payable public\n{\n  require(PRICE_GROUP == msg.value);\n  require(mappNomGroupe[_nom] == 0);\n  require(mappPseudo[_pseudo] == address(0));\n  mappPseudo[_pseudo] = msg.sender;\n  uint IDGroupe = uint(keccak256(bytes(_nom)));\n  mappNomGroupe[_nom] = IDGroupe;\n  mappGroupeOwner[_nom] = msg.sender;\n  mappIDGroupe[IDGroupe] = _nom;\n  mappGroupe[_nom].push(msg.sender);\n  mappGroupesForAddress[msg.sender].push(IDGroupe);\n  creerCanal(_pseudo, _nom, msg.sender);\n}\n\nfunction ajouterMembre(address _membre, string memory _groupe, string memory _pseudo) payable public\n{\n  require(PRICE_MEMBRE == msg.value);\n  require(mappPseudo[_pseudo] == address(0));\n  require(mappGroupeOwner[_groupe] == msg.sender);\n  mappPseudo[_pseudo] = _membre;\n  uint IDGroupe = uint(keccak256(bytes(_groupe)));\n  mappGroupesForAddress[_membre].push(IDGroupe);\n  mappGroupe[_groupe].push(_membre);\n  creerCanal(_pseudo, _groupe, _membre);\n}\n\nfunction creerCanal(string memory _pseudo, string memory _groupe, address _membre) private\n{\n  uint channelID = uint(keccak256(bytes(_pseudo)));\n  uint groupeID = uint(keccak256(bytes(_groupe)));\n  require(mappPseudo[_pseudo] == _membre);\n  mappChannel[channelID].actif = false;\n  mappChannel[channelID].pseudo = _pseudo;\n  mappChannel[channelID].demandeur = msg.sender;\n  mappGroupeAndChannels[_groupe].push(channelID);\n  mappPseudoInGroup[groupeID][msg.sender] = channelID;\n}\n\nfunction demander(uint _montant, uint _delai, string memory _pseudo, string memory _description, address _contrat) payable public\n{\n  require(PRICE_CHANNEL == msg.value);\n  require(mappPseudo[_pseudo] == msg.sender);\n  require(_delai <= MAX_DELAI);\n  uint channelID = uint(keccak256(bytes(_pseudo)));\n  require(mappChannel[channelID].actif == false);\n  mappChannel[channelID].montant = _montant;\n  mappChannel[channelID].actif = true;\n  mappChannel[channelID].blocFermeture = block.number+_delai;\n  mappChannel[channelID].description = _description;\n  mappChannel[channelID].contratCible = _contrat;\n}\n\nfunction payerCanal(string memory _pseudo, address _address) public payable\n{\n  uint _channelID = uint(keccak256(bytes(_pseudo)));\n  require(mappChannel[_channelID].demandeur == _address);\n  require(mappChannel[_channelID].montant > mappChannel[_channelID].enCours);\n  require(mappChannel[_channelID].actif == true);\n  require(mappChannel[_channelID].blocFermeture >= block.number);\n  uint fees = uint(msg.value / PRICE_RATIO);\n  _mint(msg.sender,msg.value.sub(fees));\n  uint addValue = msg.value;\n  mappChannel[uint(keccak256(bytes(_pseudo)))].donnations.add(addValue);\n  addValue.sub(fees);\n  mappChannel[_channelID].receptions.add(addValue);\n  mappChannel[_channelID].enCours.add(addValue);\n}\n\nfunction fermetureCanal(string memory _pseudo) public\n{\n  uint _channelID = uint(keccak256(bytes(_pseudo)));\n  require(mappChannel[_channelID].actif == true);\n  require(mappChannel[_channelID].demandeur == msg.sender);\n  msg.sender.transfer(mappChannel[_channelID].enCours);\n  mappChannel[_channelID].enCours = 0;\n  mappChannel[_channelID].montant = 0;\n  mappChannel[_channelID].blocFermeture = 0;\n  mappChannel[_channelID].actif = false;\n  mappChannel[_channelID].description = \"\";\n  mappChannel[_channelID].contratCible = address(0);\n}\n\nfunction withdrawEther(uint _amount) public onlyOwner\n{\n  msg.sender.transfer(_amount);\n}\n\nfunction tokenToEther() public\n{\n  require(block.number % TIME_TOKEN_WITHDRAW  >= 0 && block.number % TIME_TOKEN_WITHDRAW <= LAPS_TIME_TOKEN_WITHDRAW);\n  uint monBonus = uint(balanceOf(msg.sender).div(DESERVERVE_BONUS));\n  monBonus.mul(TOKEN_BONUS);\n  msg.sender.transfer(balanceOf(msg.sender).add(monBonus));\n  _burnFrom(msg.sender,balanceOf(msg.sender));\n}\n\nfunction modifierMeriteBonus(uint _seuil) public onlyOwner\n{\n  DESERVERVE_BONUS = _seuil;\n}\n\nfunction modifierTokenBonus(uint _tokenBonus) public onlyOwner\n{\n  TOKEN_BONUS = _tokenBonus;\n}\n\nfunction modifierLapsTimeToWithdraw(uint _laspsTime) public onlyOwner\n{\n  LAPS_TIME_TOKEN_WITHDRAW = _laspsTime;\n}\n\nfunction modifierTimeToWithdraw(uint _TimeToWithdraw) public onlyOwner\n{\n  TIME_TOKEN_WITHDRAW = _TimeToWithdraw;\n}\n\nfunction modifierDelai(uint _maxDelai) public onlyOwner\n{\n  MAX_DELAI = _maxDelai;\n}\n\nfunction modifierMaxAmount(uint _maxAmount) public onlyOwner\n{\n  MAX_AMOUNT = _maxAmount;\n}\n\nfunction modifierMinAmount(uint _minAmount) public onlyOwner\n{\n  MIN_AMOUNT = _minAmount;\n}\n\nfunction modifierCharges(uint _priceChannel) public onlyOwner\n{\n  PRICE_RATIO = _priceChannel;\n}\n\nfunction modifierPriceGroup(uint _priceGroup) public onlyOwner\n{\n  PRICE_GROUP = _priceGroup;\n}\n\nfunction modifierPriceMember(uint _priceMember) public onlyOwner\n{\n  PRICE_MEMBRE = _priceMember;\n}\n\nfunction modifierPriceDemand(uint _priceDemand) public onlyOwner\n{\n  PRICE_CHANNEL = _priceDemand;\n}\n\nfunction getGroupesPerAddress() public view returns (uint[] memory)\n{\n  return mappGroupesForAddress[msg.sender];\n}\n\nfunction getMembres(string memory _groupe) public view returns (uint[] memory)\n{\n  return mappGroupeAndChannels[_groupe];\n}\n\nfunction getNomMembre(uint _ID) public view returns (string memory)\n{\n  return mappChannel[_ID].pseudo;\n}\n\nfunction getContratCible(uint _ID) public view returns (address)\n{\n  return mappChannel[_ID].contratCible;\n}\n\nfunction getMontant(uint _ID) public view returns (uint)\n{\n  return mappChannel[_ID].montant;\n}\n\nfunction getBlockFermeture(uint _ID) public view returns (uint)\n{\n  return mappChannel[_ID].blocFermeture;\n}\n\nfunction getEncours(uint _ID) public view returns (uint)\n{\n  return mappChannel[_ID].enCours;\n}\n\nfunction getDonnations(uint _ID) public view returns (uint)\n{\n  return mappChannel[_ID].donnations;\n}\n\nfunction getDemandeur(uint _ID) public view returns (address)\n{\n  return mappChannel[_ID].demandeur;\n}\n\nfunction getReceptions(uint _ID) public view returns (uint)\n{\n  return mappChannel[_ID].receptions;\n}\n\nfunction getTime(uint _ID) public view returns (uint)\n{\n  if (mappChannel[_ID].blocFermeture <= block.number)\n  {\n    return 0;\n  }\n  else return mappChannel[_ID].blocFermeture - block.number;\n}\n\nfunction getNomGroupe(uint _ID) public view returns (string memory)\n{\n  return mappIDGroupe[_ID];\n}\n\nfunction getOwnedGroupe() public view returns (uint[] memory)\n{\n  return mappOwnedGroup[msg.sender];\n}\n\nfunction getPseudoInGroup(string memory _groupe, address _address) public view returns (string memory)\n{\n  uint IDGroupe = uint(keccak256(bytes(_groupe)));\n  return mappChannel[mappPseudoInGroup[IDGroupe][_address]].pseudo;\n}\n\n}\n",
  "sourcePath": "/Users/germaindacunha/Desktop/Alyra/project/src/contracts/Cagnottes.sol",
  "compiler": {
    "name": "solc",
    "version": "0.5.0+commit.1d4f565a.Emscripten.clang"
  },
  "schemaVersion": "3.0.2",
  "updatedAt": "2019-03-27T13:38:50.070Z",
  "devdoc": {
    "methods": {
      "allowance(address,address)": {
        "details": "Function to check the amount of tokens that an owner allowed to a spender.",
        "params": {
          "owner": "address The address which owns the funds.",
          "spender": "address The address which will spend the funds."
        },
        "return": "A uint256 specifying the amount of tokens still available for the spender."
      },
      "approve(address,uint256)": {
        "details": "Approve the passed address to spend the specified amount of tokens on behalf of msg.sender. Beware that changing an allowance with this method brings the risk that someone may use both the old and the new allowance by unfortunate transaction ordering. One possible solution to mitigate this race condition is to first reduce the spender's allowance to 0 and set the desired value afterwards: https://github.com/ethereum/EIPs/issues/20#issuecomment-263524729",
        "params": {
          "spender": "The address which will spend the funds.",
          "value": "The amount of tokens to be spent."
        }
      },
      "balanceOf(address)": {
        "details": "Gets the balance of the specified address.",
        "params": {
          "owner": "The address to query the balance of."
        },
        "return": "A uint256 representing the amount owned by the passed address."
      },
      "decreaseAllowance(address,uint256)": {
        "details": "Decrease the amount of tokens that an owner allowed to a spender. approve should be called when _allowed[msg.sender][spender] == 0. To decrement allowed value is better to use this function to avoid 2 calls (and wait until the first transaction is mined) From MonolithDAO Token.sol Emits an Approval event.",
        "params": {
          "spender": "The address which will spend the funds.",
          "subtractedValue": "The amount of tokens to decrease the allowance by."
        }
      },
      "increaseAllowance(address,uint256)": {
        "details": "Increase the amount of tokens that an owner allowed to a spender. approve should be called when _allowed[msg.sender][spender] == 0. To increment allowed value is better to use this function to avoid 2 calls (and wait until the first transaction is mined) From MonolithDAO Token.sol Emits an Approval event.",
        "params": {
          "addedValue": "The amount of tokens to increase the allowance by.",
          "spender": "The address which will spend the funds."
        }
      },
      "totalSupply()": {
        "details": "Total number of tokens in existence"
      },
      "transfer(address,uint256)": {
        "details": "Transfer token to a specified address",
        "params": {
          "to": "The address to transfer to.",
          "value": "The amount to be transferred."
        }
      },
      "transferFrom(address,address,uint256)": {
        "details": "Transfer tokens from one address to another. Note that while this function emits an Approval event, this is not required as per the specification, and other compliant implementations may not emit the event.",
        "params": {
          "from": "address The address which you want to send tokens from",
          "to": "address The address which you want to transfer to",
          "value": "uint256 the amount of tokens to be transferred"
        }
      },
      "transferOwnership(address)": {
        "details": "Allows the current owner to transfer control of the contract to a newOwner.",
        "params": {
          "newOwner": "The address to transfer ownership to."
        }
      }
    }
  },
  "userdoc": {
    "methods": {}
  }
}