{
  "contractName": "Cagnottes",
  "abi": [
    {
      "constant": true,
      "inputs": [],
      "name": "name",
      "outputs": [
        {
          "name": "",
          "type": "string"
        }
      ],
      "payable": false,
      "stateMutability": "view",
      "type": "function"
    },
    {
      "constant": false,
      "inputs": [
        {
          "name": "spender",
          "type": "address"
        },
        {
          "name": "value",
          "type": "uint256"
        }
      ],
      "name": "approve",
      "outputs": [
        {
          "name": "",
          "type": "bool"
        }
      ],
      "payable": false,
      "stateMutability": "nonpayable",
      "type": "function"
    },
    {
      "constant": true,
      "inputs": [],
      "name": "totalSupply",
      "outputs": [
        {
          "name": "",
          "type": "uint256"
        }
      ],
      "payable": false,
      "stateMutability": "view",
      "type": "function"
    },
    {
      "constant": false,
      "inputs": [
        {
          "name": "from",
          "type": "address"
        },
        {
          "name": "to",
          "type": "address"
        },
        {
          "name": "value",
          "type": "uint256"
        }
      ],
      "name": "transferFrom",
      "outputs": [
        {
          "name": "",
          "type": "bool"
        }
      ],
      "payable": false,
      "stateMutability": "nonpayable",
      "type": "function"
    },
    {
      "constant": true,
      "inputs": [],
      "name": "myGimicoin",
      "outputs": [
        {
          "name": "",
          "type": "address"
        }
      ],
      "payable": false,
      "stateMutability": "view",
      "type": "function"
    },
    {
      "constant": true,
      "inputs": [],
      "name": "decimals",
      "outputs": [
        {
          "name": "",
          "type": "uint32"
        }
      ],
      "payable": false,
      "stateMutability": "view",
      "type": "function"
    },
    {
      "constant": false,
      "inputs": [
        {
          "name": "spender",
          "type": "address"
        },
        {
          "name": "addedValue",
          "type": "uint256"
        }
      ],
      "name": "increaseAllowance",
      "outputs": [
        {
          "name": "",
          "type": "bool"
        }
      ],
      "payable": false,
      "stateMutability": "nonpayable",
      "type": "function"
    },
    {
      "constant": true,
      "inputs": [
        {
          "name": "owner",
          "type": "address"
        }
      ],
      "name": "balanceOf",
      "outputs": [
        {
          "name": "",
          "type": "uint256"
        }
      ],
      "payable": false,
      "stateMutability": "view",
      "type": "function"
    },
    {
      "constant": true,
      "inputs": [],
      "name": "owner",
      "outputs": [
        {
          "name": "",
          "type": "address"
        }
      ],
      "payable": false,
      "stateMutability": "view",
      "type": "function"
    },
    {
      "constant": true,
      "inputs": [],
      "name": "symbol",
      "outputs": [
        {
          "name": "",
          "type": "string"
        }
      ],
      "payable": false,
      "stateMutability": "view",
      "type": "function"
    },
    {
      "constant": false,
      "inputs": [
        {
          "name": "spender",
          "type": "address"
        },
        {
          "name": "subtractedValue",
          "type": "uint256"
        }
      ],
      "name": "decreaseAllowance",
      "outputs": [
        {
          "name": "",
          "type": "bool"
        }
      ],
      "payable": false,
      "stateMutability": "nonpayable",
      "type": "function"
    },
    {
      "constant": false,
      "inputs": [
        {
          "name": "to",
          "type": "address"
        },
        {
          "name": "value",
          "type": "uint256"
        }
      ],
      "name": "transfer",
      "outputs": [
        {
          "name": "",
          "type": "bool"
        }
      ],
      "payable": false,
      "stateMutability": "nonpayable",
      "type": "function"
    },
    {
      "constant": true,
      "inputs": [
        {
          "name": "owner",
          "type": "address"
        },
        {
          "name": "spender",
          "type": "address"
        }
      ],
      "name": "allowance",
      "outputs": [
        {
          "name": "",
          "type": "uint256"
        }
      ],
      "payable": false,
      "stateMutability": "view",
      "type": "function"
    },
    {
      "constant": false,
      "inputs": [
        {
          "name": "newOwner",
          "type": "address"
        }
      ],
      "name": "transferOwnership",
      "outputs": [],
      "payable": false,
      "stateMutability": "nonpayable",
      "type": "function"
    },
    {
      "inputs": [],
      "payable": false,
      "stateMutability": "nonpayable",
      "type": "constructor"
    },
    {
      "anonymous": false,
      "inputs": [
        {
          "indexed": true,
          "name": "previousOwner",
          "type": "address"
        },
        {
          "indexed": true,
          "name": "newOwner",
          "type": "address"
        }
      ],
      "name": "OwnershipTransferred",
      "type": "event"
    },
    {
      "anonymous": false,
      "inputs": [
        {
          "indexed": true,
          "name": "from",
          "type": "address"
        },
        {
          "indexed": true,
          "name": "to",
          "type": "address"
        },
        {
          "indexed": false,
          "name": "value",
          "type": "uint256"
        }
      ],
      "name": "Transfer",
      "type": "event"
    },
    {
      "anonymous": false,
      "inputs": [
        {
          "indexed": true,
          "name": "owner",
          "type": "address"
        },
        {
          "indexed": true,
          "name": "spender",
          "type": "address"
        },
        {
          "indexed": false,
          "name": "value",
          "type": "uint256"
        }
      ],
      "name": "Approval",
      "type": "event"
    },
    {
      "constant": false,
      "inputs": [
        {
          "name": "_nom",
          "type": "string"
        },
        {
          "name": "_pseudo",
          "type": "string"
        }
      ],
      "name": "creerGroupe",
      "outputs": [],
      "payable": true,
      "stateMutability": "payable",
      "type": "function"
    },
    {
      "constant": false,
      "inputs": [
        {
          "name": "_membre",
          "type": "address"
        },
        {
          "name": "_groupe",
          "type": "string"
        },
        {
          "name": "_pseudo",
          "type": "string"
        }
      ],
      "name": "ajouterMembre",
      "outputs": [],
      "payable": false,
      "stateMutability": "nonpayable",
      "type": "function"
    },
    {
      "constant": false,
      "inputs": [
        {
          "name": "_membre",
          "type": "address"
        },
        {
          "name": "_groupe",
          "type": "string"
        }
      ],
      "name": "ajouterAdmin",
      "outputs": [],
      "payable": false,
      "stateMutability": "nonpayable",
      "type": "function"
    },
    {
      "constant": false,
      "inputs": [
        {
          "name": "_montant",
          "type": "uint256"
        },
        {
          "name": "_delai",
          "type": "uint256"
        },
        {
          "name": "_pseudo",
          "type": "string"
        },
        {
          "name": "_description",
          "type": "string"
        }
      ],
      "name": "demander",
      "outputs": [],
      "payable": true,
      "stateMutability": "payable",
      "type": "function"
    },
    {
      "constant": false,
      "inputs": [
        {
          "name": "_groupe",
          "type": "string"
        },
        {
          "name": "_pseudo",
          "type": "string"
        },
        {
          "name": "_token",
          "type": "uint256"
        }
      ],
      "name": "payerCanal",
      "outputs": [],
      "payable": true,
      "stateMutability": "payable",
      "type": "function"
    },
    {
      "constant": false,
      "inputs": [
        {
          "name": "_pseudo",
          "type": "string"
        }
      ],
      "name": "fermetureCanal",
      "outputs": [],
      "payable": false,
      "stateMutability": "nonpayable",
      "type": "function"
    },
    {
      "constant": false,
      "inputs": [
        {
          "name": "_token",
          "type": "uint256"
        }
      ],
      "name": "consommerTokens",
      "outputs": [],
      "payable": false,
      "stateMutability": "nonpayable",
      "type": "function"
    }
  ],
  "bytecode": "0x608060405234801561001057600080fd5b5033600360006101000a81548173ffffffffffffffffffffffffffffffffffffffff021916908373ffffffffffffffffffffffffffffffffffffffff1602179055506032601281905550600a600d819055506014600e819055506509184e72a000600f81905550620186a06010819055506064601181905550613112806100986000396000f3fe60806040526004361061011d576000357c0100000000000000000000000000000000000000000000000000000000900463ffffffff16806306fdde0314610122578063095ea7b3146101b257806316f1df231461022557806318160ddd1461030d578063203ac3ce1461033857806323b872dd14610373578063247e00f814610406578063313ce5671461045d57806339509351146104945780634dc887291461050757806370a08231146105cf57806370d51918146106345780638da5cb5b146107905780638f333341146107e757806395d89b4114610966578063a457c2d7146109f6578063a9059cbb14610a69578063dd62ed3e14610adc578063f2fde38b14610b61578063f4343df414610bb2578063fa8622f914610d04575b600080fd5b34801561012e57600080fd5b50610137610e6a565b6040518080602001828103825283818151815260200191508051906020019080838360005b8381101561017757808201518184015260208101905061015c565b50505050905090810190601f1680156101a45780820380516001836020036101000a031916815260200191505b509250505060405180910390f35b3480156101be57600080fd5b5061020b600480360360408110156101d557600080fd5b81019080803573ffffffffffffffffffffffffffffffffffffffff16906020019092919080359060200190929190505050610ea3565b604051808215151515815260200191505060405180910390f35b34801561023157600080fd5b5061030b6004803603604081101561024857600080fd5b81019080803573ffffffffffffffffffffffffffffffffffffffff1690602001909291908035906020019064010000000081111561028557600080fd5b82018360208201111561029757600080fd5b803590602001918460018302840111640100000000831117156102b957600080fd5b91908080601f016020809104026020016040519081016040528093929190818152602001838380828437600081840152601f19601f820116905080830192505050505050509192919290505050610eba565b005b34801561031957600080fd5b50610322611257565b6040518082815260200191505060405180910390f35b34801561034457600080fd5b506103716004803603602081101561035b57600080fd5b8101908080359060200190929190505050611261565b005b34801561037f57600080fd5b506103ec6004803603606081101561039657600080fd5b81019080803573ffffffffffffffffffffffffffffffffffffffff169060200190929190803573ffffffffffffffffffffffffffffffffffffffff169060200190929190803590602001909291905050506112cc565b604051808215151515815260200191505060405180910390f35b34801561041257600080fd5b5061041b61137d565b604051808273ffffffffffffffffffffffffffffffffffffffff1673ffffffffffffffffffffffffffffffffffffffff16815260200191505060405180910390f35b34801561046957600080fd5b506104726113a3565b604051808263ffffffff1663ffffffff16815260200191505060405180910390f35b3480156104a057600080fd5b506104ed600480360360408110156104b757600080fd5b81019080803573ffffffffffffffffffffffffffffffffffffffff169060200190929190803590602001909291905050506113a8565b604051808215151515815260200191505060405180910390f35b34801561051357600080fd5b506105cd6004803603602081101561052a57600080fd5b810190808035906020019064010000000081111561054757600080fd5b82018360208201111561055957600080fd5b8035906020019184600183028401116401000000008311171561057b57600080fd5b91908080601f016020809104026020016040519081016040528093929190818152602001838380828437600081840152601f19601f82011690508083019250505050505050919291929050505061144d565b005b3480156105db57600080fd5b5061061e600480360360208110156105f257600080fd5b81019080803573ffffffffffffffffffffffffffffffffffffffff169060200190929190505050611647565b6040518082815260200191505060405180910390f35b61078e6004803603606081101561064a57600080fd5b810190808035906020019064010000000081111561066757600080fd5b82018360208201111561067957600080fd5b8035906020019184600183028401116401000000008311171561069b57600080fd5b91908080601f016020809104026020016040519081016040528093929190818152602001838380828437600081840152601f19601f820116905080830192505050505050509192919290803590602001906401000000008111156106fe57600080fd5b82018360208201111561071057600080fd5b8035906020019184600183028401116401000000008311171561073257600080fd5b91908080601f016020809104026020016040519081016040528093929190818152602001838380828437600081840152601f19601f8201169050808301925050505050505091929192908035906020019092919050505061168f565b005b34801561079c57600080fd5b506107a5611a21565b604051808273ffffffffffffffffffffffffffffffffffffffff1673ffffffffffffffffffffffffffffffffffffffff16815260200191505060405180910390f35b3480156107f357600080fd5b506109646004803603606081101561080a57600080fd5b81019080803573ffffffffffffffffffffffffffffffffffffffff1690602001909291908035906020019064010000000081111561084757600080fd5b82018360208201111561085957600080fd5b8035906020019184600183028401116401000000008311171561087b57600080fd5b91908080601f016020809104026020016040519081016040528093929190818152602001838380828437600081840152601f19601f820116905080830192505050505050509192919290803590602001906401000000008111156108de57600080fd5b8201836020820111156108f057600080fd5b8035906020019184600183028401116401000000008311171561091257600080fd5b91908080601f016020809104026020016040519081016040528093929190818152602001838380828437600081840152601f19601f820116905080830192505050505050509192919290505050611a47565b005b34801561097257600080fd5b5061097b611e48565b6040518080602001828103825283818151815260200191508051906020019080838360005b838110156109bb5780820151818401526020810190506109a0565b50505050905090810190601f1680156109e85780820380516001836020036101000a031916815260200191505b509250505060405180910390f35b348015610a0257600080fd5b50610a4f60048036036040811015610a1957600080fd5b81019080803573ffffffffffffffffffffffffffffffffffffffff16906020019092919080359060200190929190505050611e81565b604051808215151515815260200191505060405180910390f35b348015610a7557600080fd5b50610ac260048036036040811015610a8c57600080fd5b81019080803573ffffffffffffffffffffffffffffffffffffffff16906020019092919080359060200190929190505050611f26565b604051808215151515815260200191505060405180910390f35b348015610ae857600080fd5b50610b4b60048036036040811015610aff57600080fd5b81019080803573ffffffffffffffffffffffffffffffffffffffff169060200190929190803573ffffffffffffffffffffffffffffffffffffffff169060200190929190505050611f3d565b6040518082815260200191505060405180910390f35b348015610b6d57600080fd5b50610bb060048036036020811015610b8457600080fd5b81019080803573ffffffffffffffffffffffffffffffffffffffff169060200190929190505050611fc4565b005b610d0260048036036040811015610bc857600080fd5b8101908080359060200190640100000000811115610be557600080fd5b820183602082011115610bf757600080fd5b80359060200191846001830284011164010000000083111715610c1957600080fd5b91908080601f016020809104026020016040519081016040528093929190818152602001838380828437600081840152601f19601f82011690508083019250505050505050919291929080359060200190640100000000811115610c7c57600080fd5b820183602082011115610c8e57600080fd5b80359060200191846001830284011164010000000083111715610cb057600080fd5b91908080601f016020809104026020016040519081016040528093929190818152602001838380828437600081840152601f19601f82011690508083019250505050505050919291929050505061211c565b005b610e6860048036036080811015610d1a57600080fd5b81019080803590602001909291908035906020019092919080359060200190640100000000811115610d4b57600080fd5b820183602082011115610d5d57600080fd5b80359060200191846001830284011164010000000083111715610d7f57600080fd5b91908080601f016020809104026020016040519081016040528093929190818152602001838380828437600081840152601f19601f82011690508083019250505050505050919291929080359060200190640100000000811115610de257600080fd5b820183602082011115610df457600080fd5b80359060200191846001830284011164010000000083111715610e1657600080fd5b91908080601f016020809104026020016040519081016040528093929190818152602001838380828437600081840152601f19601f82011690508083019250505050505050919291929050505061256c565b005b6040805190810160405280600881526020017f67696d69636f696e00000000000000000000000000000000000000000000000081525081565b6000610eb033848461276e565b6001905092915050565b60008090505b600b826040518082805190602001908083835b602083101515610ef85780518252602082019150602081019050602083039250610ed3565b6001836020036101000a038019825116818451168082178552505050505050905001915050908152602001604051809103902080549050811015611252573373ffffffffffffffffffffffffffffffffffffffff16600b836040518082805190602001908083835b602083101515610f855780518252602082019150602081019050602083039250610f60565b6001836020036101000a038019825116818451168082178552505050505050905001915050908152602001604051809103902082815481101515610fc557fe5b9060005260206000200160009054906101000a900473ffffffffffffffffffffffffffffffffffffffff1673ffffffffffffffffffffffffffffffffffffffff1614156112455760008090505b600a836040518082805190602001908083835b60208310151561104a5780518252602082019150602081019050602083039250611025565b6001836020036101000a03801982511681845116808217855250505050505090500191505090815260200160405180910390208054905081101561123f578373ffffffffffffffffffffffffffffffffffffffff16600a846040518082805190602001908083835b6020831015156110d757805182526020820191506020810190506020830392506110b2565b6001836020036101000a03801982511681845116808217855250505050505090500191505090815260200160405180910390208281548110151561111757fe5b9060005260206000200160009054906101000a900473ffffffffffffffffffffffffffffffffffffffff1673ffffffffffffffffffffffffffffffffffffffff16141561123257600b836040518082805190602001908083835b6020831015156111965780518252602082019150602081019050602083039250611171565b6001836020036101000a03801982511681845116808217855250505050505090500191505090815260200160405180910390208490806001815401808255809150509060018203906000526020600020016000909192909190916101000a81548173ffffffffffffffffffffffffffffffffffffffff021916908373ffffffffffffffffffffffffffffffffffffffff1602179055505061123f565b8080600101915050611012565b50611252565b8080600101915050610ec0565b505050565b6000600254905090565b8061126b33611647565b1015151561127857600080fd5b3373ffffffffffffffffffffffffffffffffffffffff166108fc829081150290604051600060405180830381858888f193505050501580156112be573d6000803e3d6000fd5b506112c933826128d1565b50565b60006112d9848484612978565b611372843361136d85600160008a73ffffffffffffffffffffffffffffffffffffffff1673ffffffffffffffffffffffffffffffffffffffff16815260200190815260200160002060003373ffffffffffffffffffffffffffffffffffffffff1673ffffffffffffffffffffffffffffffffffffffff16815260200190815260200160002054612b4490919063ffffffff16565b61276e565b600190509392505050565b600460009054906101000a900473ffffffffffffffffffffffffffffffffffffffff1681565b601281565b6000611443338461143e85600160003373ffffffffffffffffffffffffffffffffffffffff1673ffffffffffffffffffffffffffffffffffffffff16815260200190815260200160002060008973ffffffffffffffffffffffffffffffffffffffff1673ffffffffffffffffffffffffffffffffffffffff16815260200190815260200160002054612b5d90919063ffffffff16565b61276e565b6001905092915050565b600081805190602001206001900490504360056000838152602001908152602001600020600301541115151561148257600080fd5b600115156005600083815260200190815260200160002060040160009054906101000a900460ff1615151415156114b857600080fd5b3373ffffffffffffffffffffffffffffffffffffffff166005600083815260200190815260200160002060000160009054906101000a900473ffffffffffffffffffffffffffffffffffffffff1673ffffffffffffffffffffffffffffffffffffffff1614151561152857600080fd5b3373ffffffffffffffffffffffffffffffffffffffff166108fc60056000848152602001908152602001600020600501549081150290604051600060405180830381858888f19350505050158015611584573d6000803e3d6000fd5b5060006005600083815260200190815260200160002060050181905550600060056000838152602001908152602001600020600201819055506000600560008381526020019081526020016000206003018190555060006005600083815260200190815260200160002060040160006101000a81548160ff0219169083151502179055506020604051908101604052806000815250600560008381526020019081526020016000206007019080519060200190611642929190613041565b505050565b60008060008373ffffffffffffffffffffffffffffffffffffffff1673ffffffffffffffffffffffffffffffffffffffff168152602001908152602001600020549050919050565b6000828051906020012060019004905060056000828152602001908152602001600020600501546005600083815260200190815260200160002060020154101515156116da57600080fd5b600115156005600083815260200190815260200160002060040160009054906101000a900460ff16151514151561171057600080fd5b4360056000838152602001908152602001600020600301541015151561173557600080fd5b3373ffffffffffffffffffffffffffffffffffffffff166005600083815260200190815260200160002060000160009054906101000a900473ffffffffffffffffffffffffffffffffffffffff1673ffffffffffffffffffffffffffffffffffffffff161415156117a557600080fd5b60008090505b600a856040518082805190602001908083835b6020831015156117e357805182526020820191506020810190506020830392506117be565b6001836020036101000a038019825116818451168082178552505050505050905001915050908152602001604051809103902080549050811015611a1a573373ffffffffffffffffffffffffffffffffffffffff16600a866040518082805190602001908083835b602083101515611870578051825260208201915060208101905060208303925061184b565b6001836020036101000a0380198251168184511680821785525050505050509050019150509081526020016040518091039020828154811015156118b057fe5b9060005260206000200160009054906101000a900473ffffffffffffffffffffffffffffffffffffffff1673ffffffffffffffffffffffffffffffffffffffff161415611a0d5760006011543481151561190657fe5b04905061191533823403612b7b565b600034905060008511156119b2578461192d33611647565b1015151561193a57600080fd5b60056000858152602001908152602001600020600201546005600086815260200190815260200160002060050154860111156119a257600560008581526020019081526020016000206005015460056000868152602001908152602001600020600201540394505b84810190506119b133866128d1565b5b8060056000888051906020012060019004815260200190815260200160002060060160008282540192505081905550818103905080600560008681526020019081526020016000206005016000828254019250508190555050505b80806001019150506117ab565b5050505050565b600360009054906101000a900473ffffffffffffffffffffffffffffffffffffffff1681565b600d54600a836040518082805190602001908083835b602083101515611a825780518252602082019150602081019050602083039250611a5d565b6001836020036101000a038019825116818451168082178552505050505050905001915050908152602001604051809103902080549050101515611ac557600080fd5b600073ffffffffffffffffffffffffffffffffffffffff16600c826040518082805190602001908083835b602083101515611b155780518252602082019150602081019050602083039250611af0565b6001836020036101000a038019825116818451168082178552505050505050905001915050908152602001604051809103902060009054906101000a900473ffffffffffffffffffffffffffffffffffffffff1673ffffffffffffffffffffffffffffffffffffffff16141515611b8b57600080fd5b60008090505b600b836040518082805190602001908083835b602083101515611bc95780518252602082019150602081019050602083039250611ba4565b6001836020036101000a038019825116818451168082178552505050505050905001915050908152602001604051809103902080549050811015611e42573373ffffffffffffffffffffffffffffffffffffffff16600b846040518082805190602001908083835b602083101515611c565780518252602082019150602081019050602083039250611c31565b6001836020036101000a038019825116818451168082178552505050505050905001915050908152602001604051809103902082815481101515611c9657fe5b9060005260206000200160009054906101000a900473ffffffffffffffffffffffffffffffffffffffff1673ffffffffffffffffffffffffffffffffffffffff161415611e355760008380519060200120600190049050600660008673ffffffffffffffffffffffffffffffffffffffff1673ffffffffffffffffffffffffffffffffffffffff168152602001908152602001600020819080600181540180825580915050906001820390600052602060002001600090919290919091505550600a846040518082805190602001908083835b602083101515611d8e5780518252602082019150602081019050602083039250611d69565b6001836020036101000a03801982511681845116808217855250505050505090500191505090815260200160405180910390208590806001815401808255809150509060018203906000526020600020016000909192909190916101000a81548173ffffffffffffffffffffffffffffffffffffffff021916908373ffffffffffffffffffffffffffffffffffffffff16021790555050611e2f8385612ccf565b50611e42565b8080600101915050611b91565b50505050565b6040805190810160405280600381526020017f474d43000000000000000000000000000000000000000000000000000000000081525081565b6000611f1c3384611f1785600160003373ffffffffffffffffffffffffffffffffffffffff1673ffffffffffffffffffffffffffffffffffffffff16815260200190815260200160002060008973ffffffffffffffffffffffffffffffffffffffff1673ffffffffffffffffffffffffffffffffffffffff16815260200190815260200160002054612b4490919063ffffffff16565b61276e565b6001905092915050565b6000611f33338484612978565b6001905092915050565b6000600160008473ffffffffffffffffffffffffffffffffffffffff1673ffffffffffffffffffffffffffffffffffffffff16815260200190815260200160002060008373ffffffffffffffffffffffffffffffffffffffff1673ffffffffffffffffffffffffffffffffffffffff16815260200190815260200160002054905092915050565b600360009054906101000a900473ffffffffffffffffffffffffffffffffffffffff1673ffffffffffffffffffffffffffffffffffffffff163373ffffffffffffffffffffffffffffffffffffffff1614151561202057600080fd5b600073ffffffffffffffffffffffffffffffffffffffff168173ffffffffffffffffffffffffffffffffffffffff161415151561205c57600080fd5b8073ffffffffffffffffffffffffffffffffffffffff16600360009054906101000a900473ffffffffffffffffffffffffffffffffffffffff1673ffffffffffffffffffffffffffffffffffffffff167f8be0079c531659141344cd1fd0a4f28419497f9722a3daafe3b4186f6b6457e060405160405180910390a380600360006101000a81548173ffffffffffffffffffffffffffffffffffffffff021916908373ffffffffffffffffffffffffffffffffffffffff16021790555050565b60006009836040518082805190602001908083835b6020831015156121565780518252602082019150602081019050602083039250612131565b6001836020036101000a03801982511681845116808217855250505050505090500191505090815260200160405180910390205414151561219657600080fd5b601254600660003373ffffffffffffffffffffffffffffffffffffffff1673ffffffffffffffffffffffffffffffffffffffff168152602001908152602001600020805490501015156121e857600080fd5b600073ffffffffffffffffffffffffffffffffffffffff16600c826040518082805190602001908083835b6020831015156122385780518252602082019150602081019050602083039250612213565b6001836020036101000a038019825116818451168082178552505050505050905001915050908152602001604051809103902060009054906101000a900473ffffffffffffffffffffffffffffffffffffffff1673ffffffffffffffffffffffffffffffffffffffff161415156122ae57600080fd5b60008280519060200120600190049050806009846040518082805190602001908083835b6020831015156122f757805182526020820191506020810190506020830392506122d2565b6001836020036101000a03801982511681845116808217855250505050505090500191505090815260200160405180910390208190555082600860008381526020019081526020016000209080519060200190612355929190613041565b50600a836040518082805190602001908083835b60208310151561238e5780518252602082019150602081019050602083039250612369565b6001836020036101000a03801982511681845116808217855250505050505090500191505090815260200160405180910390203390806001815401808255809150509060018203906000526020600020016000909192909190916101000a81548173ffffffffffffffffffffffffffffffffffffffff021916908373ffffffffffffffffffffffffffffffffffffffff16021790555050600b836040518082805190602001908083835b60208310151561245d5780518252602082019150602081019050602083039250612438565b6001836020036101000a03801982511681845116808217855250505050505090500191505090815260200160405180910390203390806001815401808255809150509060018203906000526020600020016000909192909190916101000a81548173ffffffffffffffffffffffffffffffffffffffff021916908373ffffffffffffffffffffffffffffffffffffffff16021790555050600660003373ffffffffffffffffffffffffffffffffffffffff1673ffffffffffffffffffffffffffffffffffffffff1681526020019081526020016000208190806001815401808255809150509060018203906000526020600020016000909192909190915055506125678284612ccf565b505050565b60105484101580156125805750600f548411155b151561258b57600080fd5b3373ffffffffffffffffffffffffffffffffffffffff16600c836040518082805190602001908083835b6020831015156125da57805182526020820191506020810190506020830392506125b5565b6001836020036101000a038019825116818451168082178552505050505050905001915050908152602001604051809103902060009054906101000a900473ffffffffffffffffffffffffffffffffffffffff1673ffffffffffffffffffffffffffffffffffffffff1614151561265057600080fd5b60006011548581151561265f57fe5b04905080341015151561267157600080fd5b60008380519060200120600190049050600015156005600083815260200190815260200160002060040160009054906101000a900460ff1615151415156126b757600080fd5b856005600083815260200190815260200160002060020181905550813403600560008381526020019081526020016000206005018190555060016005600083815260200190815260200160002060040160006101000a81548160ff021916908315150217905550844301600560008381526020019081526020016000206003018190555082600560008381526020019081526020016000206007019080519060200190612765929190613041565b50505050505050565b600073ffffffffffffffffffffffffffffffffffffffff168273ffffffffffffffffffffffffffffffffffffffff16141515156127aa57600080fd5b600073ffffffffffffffffffffffffffffffffffffffff168373ffffffffffffffffffffffffffffffffffffffff16141515156127e657600080fd5b80600160008573ffffffffffffffffffffffffffffffffffffffff1673ffffffffffffffffffffffffffffffffffffffff16815260200190815260200160002060008473ffffffffffffffffffffffffffffffffffffffff1673ffffffffffffffffffffffffffffffffffffffff168152602001908152602001600020819055508173ffffffffffffffffffffffffffffffffffffffff168373ffffffffffffffffffffffffffffffffffffffff167f8c5be1e5ebec7d5bd14f71427d1e84f3dd0314c0f7b2291e5b200ac8c7c3b925836040518082815260200191505060405180910390a3505050565b6128db8282612eed565b612974823361296f84600160008873ffffffffffffffffffffffffffffffffffffffff1673ffffffffffffffffffffffffffffffffffffffff16815260200190815260200160002060003373ffffffffffffffffffffffffffffffffffffffff1673ffffffffffffffffffffffffffffffffffffffff16815260200190815260200160002054612b4490919063ffffffff16565b61276e565b5050565b600073ffffffffffffffffffffffffffffffffffffffff168273ffffffffffffffffffffffffffffffffffffffff16141515156129b457600080fd5b612a05816000808673ffffffffffffffffffffffffffffffffffffffff1673ffffffffffffffffffffffffffffffffffffffff16815260200190815260200160002054612b4490919063ffffffff16565b6000808573ffffffffffffffffffffffffffffffffffffffff1673ffffffffffffffffffffffffffffffffffffffff16815260200190815260200160002081905550612a98816000808573ffffffffffffffffffffffffffffffffffffffff1673ffffffffffffffffffffffffffffffffffffffff16815260200190815260200160002054612b5d90919063ffffffff16565b6000808473ffffffffffffffffffffffffffffffffffffffff1673ffffffffffffffffffffffffffffffffffffffff168152602001908152602001600020819055508173ffffffffffffffffffffffffffffffffffffffff168373ffffffffffffffffffffffffffffffffffffffff167fddf252ad1be2c89b69c2b068fc378daa952ba7f163c4a11628f55a4df523b3ef836040518082815260200191505060405180910390a3505050565b6000828211151515612b5257fe5b818303905092915050565b6000808284019050838110151515612b7157fe5b8091505092915050565b600073ffffffffffffffffffffffffffffffffffffffff168273ffffffffffffffffffffffffffffffffffffffff1614151515612bb757600080fd5b612bcc81600254612b5d90919063ffffffff16565b600281905550612c23816000808573ffffffffffffffffffffffffffffffffffffffff1673ffffffffffffffffffffffffffffffffffffffff16815260200190815260200160002054612b5d90919063ffffffff16565b6000808473ffffffffffffffffffffffffffffffffffffffff1673ffffffffffffffffffffffffffffffffffffffff168152602001908152602001600020819055508173ffffffffffffffffffffffffffffffffffffffff16600073ffffffffffffffffffffffffffffffffffffffff167fddf252ad1be2c89b69c2b068fc378daa952ba7f163c4a11628f55a4df523b3ef836040518082815260200191505060405180910390a35050565b600082805190602001206001900490503373ffffffffffffffffffffffffffffffffffffffff16600c846040518082805190602001908083835b602083101515612d2e5780518252602082019150602081019050602083039250612d09565b6001836020036101000a038019825116818451168082178552505050505050905001915050908152602001604051809103902060009054906101000a900473ffffffffffffffffffffffffffffffffffffffff1673ffffffffffffffffffffffffffffffffffffffff16141515612da457600080fd5b60006005600083815260200190815260200160002060040160006101000a81548160ff02191690831515021790555082600560008381526020019081526020016000206001019080519060200190612dfd929190613041565b50336005600083815260200190815260200160002060000160006101000a81548173ffffffffffffffffffffffffffffffffffffffff021916908373ffffffffffffffffffffffffffffffffffffffff1602179055506007826040518082805190602001908083835b602083101515612e8b5780518252602082019150602081019050602083039250612e66565b6001836020036101000a0380198251168184511680821785525050505050509050019150509081526020016040518091039020819080600181540180825580915050906001820390600052602060002001600090919290919091505550505050565b600073ffffffffffffffffffffffffffffffffffffffff168273ffffffffffffffffffffffffffffffffffffffff1614151515612f2957600080fd5b612f3e81600254612b4490919063ffffffff16565b600281905550612f95816000808573ffffffffffffffffffffffffffffffffffffffff1673ffffffffffffffffffffffffffffffffffffffff16815260200190815260200160002054612b4490919063ffffffff16565b6000808473ffffffffffffffffffffffffffffffffffffffff1673ffffffffffffffffffffffffffffffffffffffff16815260200190815260200160002081905550600073ffffffffffffffffffffffffffffffffffffffff168273ffffffffffffffffffffffffffffffffffffffff167fddf252ad1be2c89b69c2b068fc378daa952ba7f163c4a11628f55a4df523b3ef836040518082815260200191505060405180910390a35050565b828054600181600116156101000203166002900490600052602060002090601f016020900481019282601f1061308257805160ff19168380011785556130b0565b828001600101855582156130b0579182015b828111156130af578251825591602001919060010190613094565b5b5090506130bd91906130c1565b5090565b6130e391905b808211156130df5760008160009055506001016130c7565b5090565b9056fea165627a7a723058200a52366a1bc7416611b704933ca32365f2c17e4d4c83e009f26be213629d5bf00029",
  "source": "pragma solidity ^0.5.0;\n\nimport \"./Gimicoin.sol\";\nimport \"./Ownable.sol\";\n\ncontract Cagnottes is Gimicoin, Ownable {\n\nGimicoin public myGimicoin;\n\nmapping (uint => channel) internal mappChannel;\nmapping (address => uint[]) internal mappGroupesForAddress;\nmapping (string => uint[]) internal mappGroupeAndChannels;\nmapping (uint => string) internal mappIDGroupe;\n\nmapping (string => uint) private mappNomGroupe;\nmapping (string => address[]) private mappGroupe;\nmapping (string => address[]) private mappGroupeAdmin;\nmapping (string => address) private mappPseudo;\n\nuint MAX_MEMBRE;\nuint MAX_DELAI;\nuint MAX_AMOUNT;\nuint MIN_AMOUNT;\nuint PRICE_RATIO;\nuint MAX_GROUPS;\n\nstruct channel\n{\n  address demandeur;\n  string pseudo;\n  uint montant;\n  uint blocFermeture;\n  bool actif;\n  uint enCours;\n  uint donnations;\n  string description;\n}\n\nconstructor() public\n{\n  MAX_GROUPS = 50;\n  MAX_MEMBRE = 10;\n  MAX_DELAI = 20;\n  MAX_AMOUNT = 10000000000000;\n  MIN_AMOUNT = 100000;\n  PRICE_RATIO = 100;\n}\n\nfunction creerGroupe(string memory _nom, string memory _pseudo) public payable\n{\n  require(mappNomGroupe[_nom] == 0);\n  require(mappGroupesForAddress[msg.sender].length < MAX_GROUPS);\n  require(mappPseudo[_pseudo] == address(0));\n  uint IDGroupe = uint(keccak256(bytes(_nom)));\n  mappNomGroupe[_nom] = IDGroupe;\n  mappIDGroupe[IDGroupe] = _nom;\n  mappGroupe[_nom].push(msg.sender);\n  mappGroupeAdmin[_nom].push(msg.sender);\n  mappGroupesForAddress[msg.sender].push(IDGroupe);\n  creerCanal(_pseudo, _nom);\n}\n\nfunction ajouterMembre(address _membre, string memory _groupe, string memory _pseudo) public\n{\n  require(mappGroupe[_groupe].length < MAX_MEMBRE);\n  require(mappPseudo[_pseudo] == address(0));\n  for (uint i = 0;i < mappGroupeAdmin[_groupe].length;i++)\n  {\n      if (mappGroupeAdmin[_groupe][i] == msg.sender)\n      {\n        uint IDGroupe = uint(keccak256(bytes(_groupe)));\n        mappGroupesForAddress[_membre].push(IDGroupe);\n        mappGroupe[_groupe].push(_membre);\n        creerCanal(_pseudo, _groupe);\n        break;\n      }\n  }\n}\n\nfunction ajouterAdmin(address _membre, string memory _groupe) public\n{\n  for (uint j = 0;j < mappGroupeAdmin[_groupe].length;j++)\n  {\n      if (mappGroupeAdmin[_groupe][j] == msg.sender)\n      {\n        for (uint i = 0;i < mappGroupe[_groupe].length;i++)\n        {\n            if (mappGroupe[_groupe][i] == _membre)\n            {\n              mappGroupeAdmin[_groupe].push(_membre);\n              break;\n            }\n        }\n        break;\n      }\n  }\n}\n\nfunction creerCanal(string memory _pseudo, string memory _groupe) private\n{\n    uint channelID = uint(keccak256(bytes(_pseudo)));\n    require(mappPseudo[_pseudo] == msg.sender);\n    mappChannel[channelID].actif = false;\n    mappChannel[channelID].pseudo = _pseudo;\n    mappChannel[channelID].demandeur = msg.sender;\n    mappGroupeAndChannels[_groupe].push(channelID);\n}\n\nfunction demander(uint _montant, uint _delai, string memory _pseudo, string memory _description) public payable\n{\n    require(_montant >= MIN_AMOUNT && _montant <= MAX_AMOUNT);\n    require(mappPseudo[_pseudo] == msg.sender);\n    uint fees = uint(_montant / PRICE_RATIO);\n    require(msg.value >= fees);\n    uint channelID = uint(keccak256(bytes(_pseudo)));\n    require(mappChannel[channelID].actif == false);\n    mappChannel[channelID].montant = _montant;\n    mappChannel[channelID].enCours = msg.value - fees;\n    mappChannel[channelID].actif = true;\n    mappChannel[channelID].blocFermeture = block.number+_delai;\n    mappChannel[channelID].description = _description;\n}\n\nfunction payerCanal(string memory _groupe, string memory _pseudo, uint _token) public payable\n{\n  uint _channelID = uint(keccak256(bytes(_pseudo)));\n  require(mappChannel[_channelID].montant >= mappChannel[_channelID].enCours);\n  require(mappChannel[_channelID].actif == true);\n  require(mappChannel[_channelID].blocFermeture >= block.number);\n  require(mappChannel[_channelID].demandeur == msg.sender);\n  for (uint i = 0;i < mappGroupe[_groupe].length;i++)\n  {\n      if (mappGroupe[_groupe][i] == msg.sender)\n      {\n        uint fees = uint(msg.value / PRICE_RATIO);\n        _mint(msg.sender,msg.value - fees);\n        uint addValue = msg.value;\n        if (_token > 0)\n        {\n          require(balanceOf(msg.sender) >= _token);\n          if (_token + mappChannel[_channelID].enCours > mappChannel[_channelID].montant)\n          {\n            _token = mappChannel[_channelID].montant - mappChannel[_channelID].enCours;\n          }\n          addValue += _token;\n          _burnFrom(msg.sender,_token);\n        }\n        mappChannel[uint(keccak256(bytes(_pseudo)))].donnations += addValue;\n        addValue -= fees;\n        mappChannel[_channelID].enCours+=addValue;\n      }\n  }\n}\n\nfunction fermetureCanal(string memory _pseudo) public\n{\n  uint _channelID = uint(keccak256(bytes(_pseudo)));\n  require(mappChannel[_channelID].blocFermeture <= block.number);\n  require(mappChannel[_channelID].actif == true);\n  require(mappChannel[_channelID].demandeur == msg.sender);\n  msg.sender.transfer(mappChannel[_channelID].enCours);\n  mappChannel[_channelID].enCours = 0;\n  mappChannel[_channelID].montant = 0;\n  mappChannel[_channelID].blocFermeture = 0;\n  mappChannel[_channelID].actif = false;\n  mappChannel[_channelID].description = \"\";\n}\n\nfunction consommerTokens(uint _token) public\n{\n  require(balanceOf(msg.sender) >= _token);\n  msg.sender.transfer(_token);\n  _burnFrom(msg.sender,_token);\n}\n\n}\n",
  "sourcePath": "/Users/germaindacunha/Desktop/Alyra/project/src/contracts/Cagnottes.sol",
  "compiler": {
    "name": "solc",
    "version": "0.5.0+commit.1d4f565a.Emscripten.clang"
  },
  "schemaVersion": "3.0.2",
  "updatedAt": "2019-03-25T12:41:55.133Z",
  "devdoc": {
    "methods": {
      "allowance(address,address)": {
        "details": "Function to check the amount of tokens that an owner allowed to a spender.",
        "params": {
          "owner": "address The address which owns the funds.",
          "spender": "address The address which will spend the funds."
        },
        "return": "A uint256 specifying the amount of tokens still available for the spender."
      },
      "approve(address,uint256)": {
        "details": "Approve the passed address to spend the specified amount of tokens on behalf of msg.sender. Beware that changing an allowance with this method brings the risk that someone may use both the old and the new allowance by unfortunate transaction ordering. One possible solution to mitigate this race condition is to first reduce the spender's allowance to 0 and set the desired value afterwards: https://github.com/ethereum/EIPs/issues/20#issuecomment-263524729",
        "params": {
          "spender": "The address which will spend the funds.",
          "value": "The amount of tokens to be spent."
        }
      },
      "balanceOf(address)": {
        "details": "Gets the balance of the specified address.",
        "params": {
          "owner": "The address to query the balance of."
        },
        "return": "A uint256 representing the amount owned by the passed address."
      },
      "decreaseAllowance(address,uint256)": {
        "details": "Decrease the amount of tokens that an owner allowed to a spender. approve should be called when _allowed[msg.sender][spender] == 0. To decrement allowed value is better to use this function to avoid 2 calls (and wait until the first transaction is mined) From MonolithDAO Token.sol Emits an Approval event.",
        "params": {
          "spender": "The address which will spend the funds.",
          "subtractedValue": "The amount of tokens to decrease the allowance by."
        }
      },
      "increaseAllowance(address,uint256)": {
        "details": "Increase the amount of tokens that an owner allowed to a spender. approve should be called when _allowed[msg.sender][spender] == 0. To increment allowed value is better to use this function to avoid 2 calls (and wait until the first transaction is mined) From MonolithDAO Token.sol Emits an Approval event.",
        "params": {
          "addedValue": "The amount of tokens to increase the allowance by.",
          "spender": "The address which will spend the funds."
        }
      },
      "totalSupply()": {
        "details": "Total number of tokens in existence"
      },
      "transfer(address,uint256)": {
        "details": "Transfer token to a specified address",
        "params": {
          "to": "The address to transfer to.",
          "value": "The amount to be transferred."
        }
      },
      "transferFrom(address,address,uint256)": {
        "details": "Transfer tokens from one address to another. Note that while this function emits an Approval event, this is not required as per the specification, and other compliant implementations may not emit the event.",
        "params": {
          "from": "address The address which you want to send tokens from",
          "to": "address The address which you want to transfer to",
          "value": "uint256 the amount of tokens to be transferred"
        }
      },
      "transferOwnership(address)": {
        "details": "Allows the current owner to transfer control of the contract to a newOwner.",
        "params": {
          "newOwner": "The address to transfer ownership to."
        }
      }
    }
  },
  "userdoc": {
    "methods": {}
  }
}