{
  "contractName": "Cagnottes",
  "abi": [
    {
      "constant": true,
      "inputs": [],
      "name": "name",
      "outputs": [
        {
          "name": "",
          "type": "string"
        }
      ],
      "payable": false,
      "stateMutability": "view",
      "type": "function"
    },
    {
      "constant": false,
      "inputs": [
        {
          "name": "spender",
          "type": "address"
        },
        {
          "name": "value",
          "type": "uint256"
        }
      ],
      "name": "approve",
      "outputs": [
        {
          "name": "",
          "type": "bool"
        }
      ],
      "payable": false,
      "stateMutability": "nonpayable",
      "type": "function"
    },
    {
      "constant": true,
      "inputs": [],
      "name": "totalSupply",
      "outputs": [
        {
          "name": "",
          "type": "uint256"
        }
      ],
      "payable": false,
      "stateMutability": "view",
      "type": "function"
    },
    {
      "constant": false,
      "inputs": [
        {
          "name": "from",
          "type": "address"
        },
        {
          "name": "to",
          "type": "address"
        },
        {
          "name": "value",
          "type": "uint256"
        }
      ],
      "name": "transferFrom",
      "outputs": [
        {
          "name": "",
          "type": "bool"
        }
      ],
      "payable": false,
      "stateMutability": "nonpayable",
      "type": "function"
    },
    {
      "constant": true,
      "inputs": [],
      "name": "decimals",
      "outputs": [
        {
          "name": "",
          "type": "uint32"
        }
      ],
      "payable": false,
      "stateMutability": "view",
      "type": "function"
    },
    {
      "constant": false,
      "inputs": [
        {
          "name": "spender",
          "type": "address"
        },
        {
          "name": "addedValue",
          "type": "uint256"
        }
      ],
      "name": "increaseAllowance",
      "outputs": [
        {
          "name": "",
          "type": "bool"
        }
      ],
      "payable": false,
      "stateMutability": "nonpayable",
      "type": "function"
    },
    {
      "constant": true,
      "inputs": [
        {
          "name": "owner",
          "type": "address"
        }
      ],
      "name": "balanceOf",
      "outputs": [
        {
          "name": "",
          "type": "uint256"
        }
      ],
      "payable": false,
      "stateMutability": "view",
      "type": "function"
    },
    {
      "constant": true,
      "inputs": [],
      "name": "owner",
      "outputs": [
        {
          "name": "",
          "type": "address"
        }
      ],
      "payable": false,
      "stateMutability": "view",
      "type": "function"
    },
    {
      "constant": true,
      "inputs": [],
      "name": "symbol",
      "outputs": [
        {
          "name": "",
          "type": "string"
        }
      ],
      "payable": false,
      "stateMutability": "view",
      "type": "function"
    },
    {
      "constant": false,
      "inputs": [
        {
          "name": "spender",
          "type": "address"
        },
        {
          "name": "subtractedValue",
          "type": "uint256"
        }
      ],
      "name": "decreaseAllowance",
      "outputs": [
        {
          "name": "",
          "type": "bool"
        }
      ],
      "payable": false,
      "stateMutability": "nonpayable",
      "type": "function"
    },
    {
      "constant": false,
      "inputs": [
        {
          "name": "to",
          "type": "address"
        },
        {
          "name": "value",
          "type": "uint256"
        }
      ],
      "name": "transfer",
      "outputs": [
        {
          "name": "",
          "type": "bool"
        }
      ],
      "payable": false,
      "stateMutability": "nonpayable",
      "type": "function"
    },
    {
      "constant": true,
      "inputs": [
        {
          "name": "owner",
          "type": "address"
        },
        {
          "name": "spender",
          "type": "address"
        }
      ],
      "name": "allowance",
      "outputs": [
        {
          "name": "",
          "type": "uint256"
        }
      ],
      "payable": false,
      "stateMutability": "view",
      "type": "function"
    },
    {
      "constant": false,
      "inputs": [
        {
          "name": "newOwner",
          "type": "address"
        }
      ],
      "name": "transferOwnership",
      "outputs": [],
      "payable": false,
      "stateMutability": "nonpayable",
      "type": "function"
    },
    {
      "inputs": [],
      "payable": false,
      "stateMutability": "nonpayable",
      "type": "constructor"
    },
    {
      "anonymous": false,
      "inputs": [
        {
          "indexed": true,
          "name": "previousOwner",
          "type": "address"
        },
        {
          "indexed": true,
          "name": "newOwner",
          "type": "address"
        }
      ],
      "name": "OwnershipTransferred",
      "type": "event"
    },
    {
      "anonymous": false,
      "inputs": [
        {
          "indexed": true,
          "name": "from",
          "type": "address"
        },
        {
          "indexed": true,
          "name": "to",
          "type": "address"
        },
        {
          "indexed": false,
          "name": "value",
          "type": "uint256"
        }
      ],
      "name": "Transfer",
      "type": "event"
    },
    {
      "anonymous": false,
      "inputs": [
        {
          "indexed": true,
          "name": "owner",
          "type": "address"
        },
        {
          "indexed": true,
          "name": "spender",
          "type": "address"
        },
        {
          "indexed": false,
          "name": "value",
          "type": "uint256"
        }
      ],
      "name": "Approval",
      "type": "event"
    },
    {
      "constant": false,
      "inputs": [
        {
          "name": "_nom",
          "type": "string"
        },
        {
          "name": "_pseudo",
          "type": "string"
        }
      ],
      "name": "creerGroupe",
      "outputs": [],
      "payable": false,
      "stateMutability": "nonpayable",
      "type": "function"
    },
    {
      "constant": false,
      "inputs": [
        {
          "name": "_membre",
          "type": "address"
        },
        {
          "name": "_groupe",
          "type": "string"
        },
        {
          "name": "_pseudo",
          "type": "string"
        }
      ],
      "name": "ajouterMembre",
      "outputs": [],
      "payable": false,
      "stateMutability": "nonpayable",
      "type": "function"
    },
    {
      "constant": false,
      "inputs": [
        {
          "name": "_montant",
          "type": "uint256"
        },
        {
          "name": "_delai",
          "type": "uint256"
        },
        {
          "name": "_pseudo",
          "type": "string"
        },
        {
          "name": "_description",
          "type": "string"
        },
        {
          "name": "_contrat",
          "type": "address"
        }
      ],
      "name": "demander",
      "outputs": [],
      "payable": true,
      "stateMutability": "payable",
      "type": "function"
    },
    {
      "constant": false,
      "inputs": [
        {
          "name": "_pseudo",
          "type": "string"
        },
        {
          "name": "_token",
          "type": "uint256"
        }
      ],
      "name": "payerCanal",
      "outputs": [],
      "payable": true,
      "stateMutability": "payable",
      "type": "function"
    },
    {
      "constant": false,
      "inputs": [
        {
          "name": "_pseudo",
          "type": "string"
        }
      ],
      "name": "fermetureCanal",
      "outputs": [],
      "payable": false,
      "stateMutability": "nonpayable",
      "type": "function"
    }
  ],
  "bytecode": "0x608060405234801561001057600080fd5b5060038054600160a060020a031916331790556032601155600a600c5560c8600d556509184e72a000600e55612710600f556064601055611afb806100566000396000f3fe6080604052600436106100fb5763ffffffff7c010000000000000000000000000000000000000000000000000000000060003504166306fdde038114610100578063095ea7b31461018a5780630eef04fd146101d757806318160ddd1461028157806323b872dd146102a8578063313ce567146102eb57806339509351146103195780634dc887291461035257806370a082311461040557806373343f1a146104385780638da5cb5b1461057c5780638f333341146105ad57806395d89b41146106f7578063a457c2d71461070c578063a9059cbb14610745578063dd62ed3e1461077e578063f2fde38b146107b9578063f4343df4146107ec575b600080fd5b34801561010c57600080fd5b50610115610926565b6040805160208082528351818301528351919283929083019185019080838360005b8381101561014f578181015183820152602001610137565b50505050905090810190601f16801561017c5780820380516001836020036101000a031916815260200191505b509250505060405180910390f35b34801561019657600080fd5b506101c3600480360360408110156101ad57600080fd5b50600160a060020a03813516906020013561095d565b604080519115158252519081900360200190f35b61027f600480360360408110156101ed57600080fd5b81019060208101813564010000000081111561020857600080fd5b82018360208201111561021a57600080fd5b8035906020019184600183028401116401000000008311171561023c57600080fd5b91908080601f0160208091040260200160405190810160405280939291908181526020018383808284376000920191909152509295505091359250610973915050565b005b34801561028d57600080fd5b50610296610abf565b60408051918252519081900360200190f35b3480156102b457600080fd5b506101c3600480360360608110156102cb57600080fd5b50600160a060020a03813581169160208101359091169060400135610ac6565b3480156102f757600080fd5b50610300610b1d565b6040805163ffffffff9092168252519081900360200190f35b34801561032557600080fd5b506101c36004803603604081101561033c57600080fd5b50600160a060020a038135169060200135610b22565b34801561035e57600080fd5b5061027f6004803603602081101561037557600080fd5b81019060208101813564010000000081111561039057600080fd5b8201836020820111156103a257600080fd5b803590602001918460018302840111640100000000831117156103c457600080fd5b91908080601f016020809104026020016040519081016040528093929190818152602001838380828437600092019190915250929550610b5e945050505050565b34801561041157600080fd5b506102966004803603602081101561042857600080fd5b5035600160a060020a0316610c68565b61027f600480360360a081101561044e57600080fd5b81359160208101359181019060608101604082013564010000000081111561047557600080fd5b82018360208201111561048757600080fd5b803590602001918460018302840111640100000000831117156104a957600080fd5b91908080601f01602080910402602001604051908101604052809392919081815260200183838082843760009201919091525092959493602081019350359150506401000000008111156104fc57600080fd5b82018360208201111561050e57600080fd5b8035906020019184600183028401116401000000008311171561053057600080fd5b91908080601f01602080910402602001604051908101604052809392919081815260200183838082843760009201919091525092955050509035600160a060020a03169150610c839050565b34801561058857600080fd5b50610591610e84565b60408051600160a060020a039092168252519081900360200190f35b3480156105b957600080fd5b5061027f600480360360608110156105d057600080fd5b600160a060020a0382351691908101906040810160208201356401000000008111156105fb57600080fd5b82018360208201111561060d57600080fd5b8035906020019184600183028401116401000000008311171561062f57600080fd5b91908080601f016020809104026020016040519081016040528093929190818152602001838380828437600092019190915250929594936020810193503591505064010000000081111561068257600080fd5b82018360208201111561069457600080fd5b803590602001918460018302840111640100000000831117156106b657600080fd5b91908080601f016020809104026020016040519081016040528093929190818152602001838380828437600092019190915250929550610e93945050505050565b34801561070357600080fd5b5061011561114b565b34801561071857600080fd5b506101c36004803603604081101561072f57600080fd5b50600160a060020a038135169060200135611182565b34801561075157600080fd5b506101c36004803603604081101561076857600080fd5b50600160a060020a0381351690602001356111be565b34801561078a57600080fd5b50610296600480360360408110156107a157600080fd5b50600160a060020a03813581169160200135166111cb565b3480156107c557600080fd5b5061027f600480360360208110156107dc57600080fd5b5035600160a060020a03166111f6565b3480156107f857600080fd5b5061027f6004803603604081101561080f57600080fd5b81019060208101813564010000000081111561082a57600080fd5b82018360208201111561083c57600080fd5b8035906020019184600183028401116401000000008311171561085e57600080fd5b91908080601f01602080910402602001604051908101604052809392919081815260200183838082843760009201919091525092959493602081019350359150506401000000008111156108b157600080fd5b8201836020820111156108c357600080fd5b803590602001918460018302840111640100000000831117156108e557600080fd5b91908080601f01602080910402602001604051908101604052809392919081815260200183838082843760009201919091525092955061127e945050505050565b60408051808201909152600881527f67696d69636f696e000000000000000000000000000000000000000000000000602082015281565b600061096a3384846115c0565b50600192915050565b81516020808401919091206000818152600490925260409091206005810154600290910154116109a257600080fd5b6000818152600460208190526040909120015460ff1615156001146109c657600080fd5b6000818152600460205260409020600301544311156109e457600080fd5b6000601054348115156109f357fe5b049050610a0f33610a0a348463ffffffff61164c16565b61165e565b346000841115610a865783610a2333610c68565b1015610a2e57600080fd5b6000838152600460205260409020600281015460059091015485011115610a7a5760008381526004602052604090206005810154600290910154610a779163ffffffff61164c16565b93505b8301610a863385611708565b84516020958601206000908152600490955260408086206006018054830190559285529190932060050180549390910390920190915550565b6002545b90565b6000610ad3848484611751565b600160a060020a038416600090815260016020908152604080832033808552925290912054610b13918691610b0e908663ffffffff61164c16565b6115c0565b5060019392505050565b601281565b336000818152600160209081526040808320600160a060020a0387168452909152812054909161096a918590610b0e908663ffffffff61181e16565b80516020808301919091206000818152600492839052604090209091015460ff161515600114610b8d57600080fd5b600081815260046020526040902054600160a060020a03163314610bb057600080fd5b600081815260046020526040808220600501549051339282156108fc02929190818181858888f19350505050158015610bed573d6000803e3d6000fd5b506000818152600460208181526040808420600581018590556002810185905560038101859055808401805460ff1916905581518084019283905285815294869052929091529151610c459260079092019190611a37565b5060009081526004602052604090206008018054600160a060020a031916905550565b600160a060020a031660009081526020819052604090205490565b6000600160a060020a0316600b846040518082805190602001908083835b60208310610cc05780518252601f199092019160209182019101610ca1565b51815160209384036101000a6000190180199092169116179052920194855250604051938490030190922054600160a060020a031692909214159150610d07905057600080fd5b33600160a060020a0316600b846040518082805190602001908083835b60208310610d435780518252601f199092019160209182019101610d24565b51815160209384036101000a6000190180199092169116179052920194855250604051938490030190922054600160a060020a0316929092149150610d89905057600080fd5b600f548510158015610d9d5750600e548511155b1515610da857600080fd5b600d54841115610db757600080fd5b600060105486811515610dc657fe5b04905034811115610dd657600080fd5b83516020808601919091206000818152600492839052604090209091015460ff1615610e0157600080fd5b6000818152600460208181526040909220600281018a9055348590036005820155908101805460ff1916600117905543880160038201558551610e4c92600790920191870190611a37565b5060009081526004602052604090206008018054600160a060020a031916600160a060020a0393909316929092179091555050505050565b600354600160a060020a031681565b600c54600a836040518082805190602001908083835b60208310610ec85780518252601f199092019160209182019101610ea9565b51815160209384036101000a6000190180199092169116179052920194855250604051938490030190922054929092109150610f05905057600080fd5b6000600160a060020a0316600b826040518082805190602001908083835b60208310610f425780518252601f199092019160209182019101610f23565b51815160209384036101000a6000190180199092169116179052920194855250604051938490030190922054600160a060020a0316929092149150610f88905057600080fd5b33600160a060020a03166008836040518082805190602001908083835b60208310610fc45780518252601f199092019160209182019101610fa5565b51815160209384036101000a6000190180199092169116179052920194855250604051938490030190922054600160a060020a031692909214915061100a905057600080fd5b82600b826040518082805190602001908083835b6020831061103d5780518252601f19909201916020918201910161101e565b51815160209384036101000a60001901801990921691161790529201948552506040805194859003820185208054600160a060020a031916600160a060020a039788161790558751888301908120968a166000908152600584529182208054600181018255908352929091209091018590558651600a9488945092508291908083835b602083106110df5780518252601f1990920191602091820191016110c0565b51815160209384036101000a6000190180199092169116179052920194855250604051938490038101909320805460018101825560009182529390209092018054600160a060020a031916600160a060020a038816179055506111459050828486611834565b50505050565b60408051808201909152600381527f474d430000000000000000000000000000000000000000000000000000000000602082015281565b336000818152600160209081526040808320600160a060020a0387168452909152812054909161096a918590610b0e908663ffffffff61164c16565b600061096a338484611751565b600160a060020a03918216600090815260016020908152604080832093909416825291909152205490565b600354600160a060020a0316331461120d57600080fd5b600160a060020a038116151561122257600080fd5b600354604051600160a060020a038084169216907f8be0079c531659141344cd1fd0a4f28419497f9722a3daafe3b4186f6b6457e090600090a360038054600160a060020a031916600160a060020a0392909216919091179055565b6009826040518082805190602001908083835b602083106112b05780518252601f199092019160209182019101611291565b51815160209384036101000a60001901801990921691161790529201948552506040519384900301909220541591506112ea905057600080fd5b601154336000908152600560205260409020541061130757600080fd5b6000600160a060020a0316600b826040518082805190602001908083835b602083106113445780518252601f199092019160209182019101611325565b51815160209384036101000a6000190180199092169116179052920194855250604051938490030190922054600160a060020a031692909214915061138a905057600080fd5b33600b826040518082805190602001908083835b602083106113bd5780518252601f19909201916020918201910161139e565b51815160209384036101000a600019018019909216911617905292019485525060405193849003810184208054600160a060020a031916600160a060020a0396909616959095179094555050835191840182812092839260099287928291908083835b6020831061143f5780518252601f199092019160209182019101611420565b51815160209384036101000a6000190180199092169116179052920194855250604051938490038101842094909455505084513392600892879290918291908401908083835b602083106114a45780518252601f199092019160209182019101611485565b51815160209384036101000a6000190180199092169116179052920194855250604080519485900382019094208054600160a060020a031916600160a060020a039690961695909517909455505060008381526007835220845161150a92860190611a37565b50600a836040518082805190602001908083835b6020831061153d5780518252601f19909201916020918201910161151e565b51815160209384036101000a6000190180199092169116179052920194855250604080519485900382019094208054600180820183556000928352838320909101805433600160a060020a031990911681179091558083526005845295822080549182018155825291902001849055506115bb918491508590611834565b505050565b600160a060020a03821615156115d557600080fd5b600160a060020a03831615156115ea57600080fd5b600160a060020a03808416600081815260016020908152604080832094871680845294825291829020859055815185815291517f8c5be1e5ebec7d5bd14f71427d1e84f3dd0314c0f7b2291e5b200ac8c7c3b9259281900390910190a3505050565b60008282111561165857fe5b50900390565b600160a060020a038216151561167357600080fd5b600254611686908263ffffffff61181e16565b600255600160a060020a0382166000908152602081905260409020546116b2908263ffffffff61181e16565b600160a060020a0383166000818152602081815260408083209490945583518581529351929391927fddf252ad1be2c89b69c2b068fc378daa952ba7f163c4a11628f55a4df523b3ef9281900390910190a35050565b611712828261198e565b600160a060020a03821660009081526001602090815260408083203380855292529091205461174d918491610b0e908563ffffffff61164c16565b5050565b600160a060020a038216151561176657600080fd5b600160a060020a03831660009081526020819052604090205461178f908263ffffffff61164c16565b600160a060020a0380851660009081526020819052604080822093909355908416815220546117c4908263ffffffff61181e16565b600160a060020a038084166000818152602081815260409182902094909455805185815290519193928716927fddf252ad1be2c89b69c2b068fc378daa952ba7f163c4a11628f55a4df523b3ef92918290030190a3505050565b60008282018381101561182d57fe5b9392505050565b8251602084018181206040519092600160a060020a03851692600b928892909182918083835b602083106118795780518252601f19909201916020918201910161185a565b51815160209384036101000a6000190180199092169116179052920194855250604051938490030190922054600160a060020a03169290921491506118bf905057600080fd5b6000818152600460208181526040909220908101805460ff1916905585516118ef92600190920191870190611a37565b506000818152600460209081526040918290208054600160a060020a031916331790559051845160069286929182918401908083835b602083106119445780518252601f199092019160209182019101611925565b51815160209384036101000a600019018019909216911617905292019485525060405193849003810190932080546001810182556000918252939020909201929092555050505050565b600160a060020a03821615156119a357600080fd5b6002546119b6908263ffffffff61164c16565b600255600160a060020a0382166000908152602081905260409020546119e2908263ffffffff61164c16565b600160a060020a038316600081815260208181526040808320949094558351858152935191937fddf252ad1be2c89b69c2b068fc378daa952ba7f163c4a11628f55a4df523b3ef929081900390910190a35050565b828054600181600116156101000203166002900490600052602060002090601f016020900481019282601f10611a7857805160ff1916838001178555611aa5565b82800160010185558215611aa5579182015b82811115611aa5578251825591602001919060010190611a8a565b50611ab1929150611ab5565b5090565b610ac391905b80821115611ab15760008155600101611abb56fea165627a7a72305820f7cf14835fc943f24dc8acd75d8a67965bcdce6a5306c18610e9e629183fcb7d0029",
  "source": "pragma solidity ^0.5.0;\n\nimport \"./Gimicoin.sol\";\nimport \"./Ownable.sol\";\n\ncontract Cagnottes is Gimicoin, Ownable {\n\nmapping (uint => channel) internal mappChannel;\nmapping (address => uint[]) internal mappGroupesForAddress;\nmapping (string => uint[]) internal mappGroupeAndChannels;\nmapping (uint => string) internal mappIDGroupe;\n\nmapping (string => address) private mappGroupeOwner;\nmapping (string => uint) private mappNomGroupe;\nmapping (string => address[]) private mappGroupe;\nmapping (string => address) private mappPseudo;\n\nuint internal MAX_MEMBRE;\nuint internal MAX_DELAI;\nuint internal MAX_AMOUNT;\nuint internal MIN_AMOUNT;\nuint internal PRICE_RATIO;\nuint internal MAX_GROUPS;\n\nstruct channel\n{\n  address demandeur;\n  string pseudo;\n  uint montant;\n  uint blocFermeture;\n  bool actif;\n  uint enCours;\n  uint donnations;\n  string description;\n  address contratCible;\n}\n\nconstructor() public\n{\n  MAX_GROUPS = 50;\n  MAX_MEMBRE = 10;\n  MAX_DELAI = 200;\n  MAX_AMOUNT = 10000000000000;\n  MIN_AMOUNT = 10000;\n  PRICE_RATIO = 100;\n}\n\nfunction creerGroupe(string memory _nom, string memory _pseudo) public\n{\n  require(mappNomGroupe[_nom] == 0);\n  require(mappGroupesForAddress[msg.sender].length < MAX_GROUPS);\n  require(mappPseudo[_pseudo] == address(0));\n  mappPseudo[_pseudo] = msg.sender;\n  uint IDGroupe = uint(keccak256(bytes(_nom)));\n  mappNomGroupe[_nom] = IDGroupe;\n  mappGroupeOwner[_nom] = msg.sender;\n  mappIDGroupe[IDGroupe] = _nom;\n  mappGroupe[_nom].push(msg.sender);\n  mappGroupesForAddress[msg.sender].push(IDGroupe);\n  creerCanal(_pseudo, _nom, msg.sender);\n}\n\nfunction ajouterMembre(address _membre, string memory _groupe, string memory _pseudo) public\n{\n  require(mappGroupe[_groupe].length < MAX_MEMBRE);\n  require(mappPseudo[_pseudo] == address(0));\n  require(mappGroupeOwner[_groupe] == msg.sender);\n  mappPseudo[_pseudo] = _membre;\n  uint IDGroupe = uint(keccak256(bytes(_groupe)));\n  mappGroupesForAddress[_membre].push(IDGroupe);\n  mappGroupe[_groupe].push(_membre);\n  creerCanal(_pseudo, _groupe, _membre);\n}\n\nfunction creerCanal(string memory _pseudo, string memory _groupe, address _membre) private\n{\n    uint channelID = uint(keccak256(bytes(_pseudo)));\n    require(mappPseudo[_pseudo] == _membre);\n    mappChannel[channelID].actif = false;\n    mappChannel[channelID].pseudo = _pseudo;\n    mappChannel[channelID].demandeur = msg.sender;\n    mappGroupeAndChannels[_groupe].push(channelID);\n}\n\nfunction demander(uint _montant, uint _delai, string memory _pseudo, string memory _description, address _contrat) public payable\n{\n   require(mappPseudo[_pseudo] != address(0));\n   require(mappPseudo[_pseudo] == msg.sender);\n   require(_montant >= MIN_AMOUNT && _montant <= MAX_AMOUNT);\n   require(_delai <= MAX_DELAI);\n   uint fees = uint(_montant / PRICE_RATIO);\n   require(msg.value >= fees);\n   uint channelID = uint(keccak256(bytes(_pseudo)));\n   require(mappChannel[channelID].actif == false);\n   mappChannel[channelID].montant = _montant;\n   mappChannel[channelID].enCours = msg.value - fees;\n   mappChannel[channelID].actif = true;\n   mappChannel[channelID].blocFermeture = block.number+_delai;\n   mappChannel[channelID].description = _description;\n   mappChannel[channelID].contratCible = _contrat;\n}\n\nfunction payerCanal(string memory _pseudo, uint _token) public payable\n{\n  uint _channelID = uint(keccak256(bytes(_pseudo)));\n  require(mappChannel[_channelID].montant > mappChannel[_channelID].enCours);\n  require(mappChannel[_channelID].actif == true);\n  require(mappChannel[_channelID].blocFermeture >= block.number);\n  uint fees = uint(msg.value / PRICE_RATIO);\n  _mint(msg.sender,msg.value.sub(fees));\n  uint addValue = msg.value;\n  if (_token > 0)\n  {\n    require(balanceOf(msg.sender) >= _token);\n    if (_token + mappChannel[_channelID].enCours > mappChannel[_channelID].montant)\n    {\n      _token = mappChannel[_channelID].montant.sub(mappChannel[_channelID].enCours);\n    }\n    addValue += _token;\n    _burnFrom(msg.sender,_token);\n  }\n  mappChannel[uint(keccak256(bytes(_pseudo)))].donnations += addValue;\n  addValue -= fees;\n  mappChannel[_channelID].enCours += addValue;\n}\n\nfunction fermetureCanal(string memory _pseudo) public\n{\n  uint _channelID = uint(keccak256(bytes(_pseudo)));\n  require(mappChannel[_channelID].actif == true);\n  require(mappChannel[_channelID].demandeur == msg.sender);\n  msg.sender.transfer(mappChannel[_channelID].enCours);\n  mappChannel[_channelID].enCours = 0;\n  mappChannel[_channelID].montant = 0;\n  mappChannel[_channelID].blocFermeture = 0;\n  mappChannel[_channelID].actif = false;\n  mappChannel[_channelID].description = \"\";\n  mappChannel[_channelID].contratCible = address(0);\n}\n\n}\n",
  "sourcePath": "/Users/germaindacunha/Desktop/Alyra/project/src/contracts/Cagnottes.sol",
  "compiler": {
    "name": "solc",
    "version": "0.5.0+commit.1d4f565a.Emscripten.clang"
  },
  "schemaVersion": "3.0.2",
  "updatedAt": "2019-03-26T17:01:53.744Z",
  "devdoc": {
    "methods": {
      "allowance(address,address)": {
        "details": "Function to check the amount of tokens that an owner allowed to a spender.",
        "params": {
          "owner": "address The address which owns the funds.",
          "spender": "address The address which will spend the funds."
        },
        "return": "A uint256 specifying the amount of tokens still available for the spender."
      },
      "approve(address,uint256)": {
        "details": "Approve the passed address to spend the specified amount of tokens on behalf of msg.sender. Beware that changing an allowance with this method brings the risk that someone may use both the old and the new allowance by unfortunate transaction ordering. One possible solution to mitigate this race condition is to first reduce the spender's allowance to 0 and set the desired value afterwards: https://github.com/ethereum/EIPs/issues/20#issuecomment-263524729",
        "params": {
          "spender": "The address which will spend the funds.",
          "value": "The amount of tokens to be spent."
        }
      },
      "balanceOf(address)": {
        "details": "Gets the balance of the specified address.",
        "params": {
          "owner": "The address to query the balance of."
        },
        "return": "A uint256 representing the amount owned by the passed address."
      },
      "decreaseAllowance(address,uint256)": {
        "details": "Decrease the amount of tokens that an owner allowed to a spender. approve should be called when _allowed[msg.sender][spender] == 0. To decrement allowed value is better to use this function to avoid 2 calls (and wait until the first transaction is mined) From MonolithDAO Token.sol Emits an Approval event.",
        "params": {
          "spender": "The address which will spend the funds.",
          "subtractedValue": "The amount of tokens to decrease the allowance by."
        }
      },
      "increaseAllowance(address,uint256)": {
        "details": "Increase the amount of tokens that an owner allowed to a spender. approve should be called when _allowed[msg.sender][spender] == 0. To increment allowed value is better to use this function to avoid 2 calls (and wait until the first transaction is mined) From MonolithDAO Token.sol Emits an Approval event.",
        "params": {
          "addedValue": "The amount of tokens to increase the allowance by.",
          "spender": "The address which will spend the funds."
        }
      },
      "totalSupply()": {
        "details": "Total number of tokens in existence"
      },
      "transfer(address,uint256)": {
        "details": "Transfer token to a specified address",
        "params": {
          "to": "The address to transfer to.",
          "value": "The amount to be transferred."
        }
      },
      "transferFrom(address,address,uint256)": {
        "details": "Transfer tokens from one address to another. Note that while this function emits an Approval event, this is not required as per the specification, and other compliant implementations may not emit the event.",
        "params": {
          "from": "address The address which you want to send tokens from",
          "to": "address The address which you want to transfer to",
          "value": "uint256 the amount of tokens to be transferred"
        }
      },
      "transferOwnership(address)": {
        "details": "Allows the current owner to transfer control of the contract to a newOwner.",
        "params": {
          "newOwner": "The address to transfer ownership to."
        }
      }
    }
  },
  "userdoc": {
    "methods": {}
  }
}