{
  "contractName": "Cagnottes",
  "abi": [
    {
      "constant": true,
      "inputs": [],
      "name": "name",
      "outputs": [
        {
          "name": "",
          "type": "string"
        }
      ],
      "payable": false,
      "stateMutability": "view",
      "type": "function"
    },
    {
      "constant": false,
      "inputs": [
        {
          "name": "spender",
          "type": "address"
        },
        {
          "name": "value",
          "type": "uint256"
        }
      ],
      "name": "approve",
      "outputs": [
        {
          "name": "",
          "type": "bool"
        }
      ],
      "payable": false,
      "stateMutability": "nonpayable",
      "type": "function"
    },
    {
      "constant": true,
      "inputs": [],
      "name": "totalSupply",
      "outputs": [
        {
          "name": "",
          "type": "uint256"
        }
      ],
      "payable": false,
      "stateMutability": "view",
      "type": "function"
    },
    {
      "constant": false,
      "inputs": [
        {
          "name": "from",
          "type": "address"
        },
        {
          "name": "to",
          "type": "address"
        },
        {
          "name": "value",
          "type": "uint256"
        }
      ],
      "name": "transferFrom",
      "outputs": [
        {
          "name": "",
          "type": "bool"
        }
      ],
      "payable": false,
      "stateMutability": "nonpayable",
      "type": "function"
    },
    {
      "constant": true,
      "inputs": [],
      "name": "myGimicoin",
      "outputs": [
        {
          "name": "",
          "type": "address"
        }
      ],
      "payable": false,
      "stateMutability": "view",
      "type": "function"
    },
    {
      "constant": true,
      "inputs": [],
      "name": "decimals",
      "outputs": [
        {
          "name": "",
          "type": "uint32"
        }
      ],
      "payable": false,
      "stateMutability": "view",
      "type": "function"
    },
    {
      "constant": false,
      "inputs": [
        {
          "name": "spender",
          "type": "address"
        },
        {
          "name": "addedValue",
          "type": "uint256"
        }
      ],
      "name": "increaseAllowance",
      "outputs": [
        {
          "name": "",
          "type": "bool"
        }
      ],
      "payable": false,
      "stateMutability": "nonpayable",
      "type": "function"
    },
    {
      "constant": true,
      "inputs": [
        {
          "name": "owner",
          "type": "address"
        }
      ],
      "name": "balanceOf",
      "outputs": [
        {
          "name": "",
          "type": "uint256"
        }
      ],
      "payable": false,
      "stateMutability": "view",
      "type": "function"
    },
    {
      "constant": true,
      "inputs": [],
      "name": "owner",
      "outputs": [
        {
          "name": "",
          "type": "address"
        }
      ],
      "payable": false,
      "stateMutability": "view",
      "type": "function"
    },
    {
      "constant": true,
      "inputs": [],
      "name": "symbol",
      "outputs": [
        {
          "name": "",
          "type": "string"
        }
      ],
      "payable": false,
      "stateMutability": "view",
      "type": "function"
    },
    {
      "constant": false,
      "inputs": [
        {
          "name": "account",
          "type": "address"
        },
        {
          "name": "value",
          "type": "uint256"
        }
      ],
      "name": "_burnFrom",
      "outputs": [],
      "payable": false,
      "stateMutability": "nonpayable",
      "type": "function"
    },
    {
      "constant": false,
      "inputs": [
        {
          "name": "spender",
          "type": "address"
        },
        {
          "name": "subtractedValue",
          "type": "uint256"
        }
      ],
      "name": "decreaseAllowance",
      "outputs": [
        {
          "name": "",
          "type": "bool"
        }
      ],
      "payable": false,
      "stateMutability": "nonpayable",
      "type": "function"
    },
    {
      "constant": false,
      "inputs": [
        {
          "name": "to",
          "type": "address"
        },
        {
          "name": "value",
          "type": "uint256"
        }
      ],
      "name": "transfer",
      "outputs": [
        {
          "name": "",
          "type": "bool"
        }
      ],
      "payable": false,
      "stateMutability": "nonpayable",
      "type": "function"
    },
    {
      "constant": true,
      "inputs": [
        {
          "name": "owner",
          "type": "address"
        },
        {
          "name": "spender",
          "type": "address"
        }
      ],
      "name": "allowance",
      "outputs": [
        {
          "name": "",
          "type": "uint256"
        }
      ],
      "payable": false,
      "stateMutability": "view",
      "type": "function"
    },
    {
      "constant": false,
      "inputs": [
        {
          "name": "newOwner",
          "type": "address"
        }
      ],
      "name": "transferOwnership",
      "outputs": [],
      "payable": false,
      "stateMutability": "nonpayable",
      "type": "function"
    },
    {
      "inputs": [],
      "payable": false,
      "stateMutability": "nonpayable",
      "type": "constructor"
    },
    {
      "anonymous": false,
      "inputs": [
        {
          "indexed": true,
          "name": "previousOwner",
          "type": "address"
        },
        {
          "indexed": true,
          "name": "newOwner",
          "type": "address"
        }
      ],
      "name": "OwnershipTransferred",
      "type": "event"
    },
    {
      "anonymous": false,
      "inputs": [
        {
          "indexed": true,
          "name": "from",
          "type": "address"
        },
        {
          "indexed": true,
          "name": "to",
          "type": "address"
        },
        {
          "indexed": false,
          "name": "value",
          "type": "uint256"
        }
      ],
      "name": "Transfer",
      "type": "event"
    },
    {
      "anonymous": false,
      "inputs": [
        {
          "indexed": true,
          "name": "owner",
          "type": "address"
        },
        {
          "indexed": true,
          "name": "spender",
          "type": "address"
        },
        {
          "indexed": false,
          "name": "value",
          "type": "uint256"
        }
      ],
      "name": "Approval",
      "type": "event"
    },
    {
      "constant": false,
      "inputs": [
        {
          "name": "_individu",
          "type": "address"
        }
      ],
      "name": "blackLister",
      "outputs": [],
      "payable": false,
      "stateMutability": "nonpayable",
      "type": "function"
    },
    {
      "constant": false,
      "inputs": [
        {
          "name": "_maxGroups",
          "type": "uint256"
        }
      ],
      "name": "modifierMaxGroups",
      "outputs": [],
      "payable": false,
      "stateMutability": "nonpayable",
      "type": "function"
    },
    {
      "constant": false,
      "inputs": [
        {
          "name": "_priceGroup",
          "type": "uint256"
        }
      ],
      "name": "prixGroup",
      "outputs": [],
      "payable": false,
      "stateMutability": "nonpayable",
      "type": "function"
    },
    {
      "constant": false,
      "inputs": [
        {
          "name": "_maxDelai",
          "type": "uint256"
        }
      ],
      "name": "modifierDelai",
      "outputs": [],
      "payable": false,
      "stateMutability": "nonpayable",
      "type": "function"
    },
    {
      "constant": false,
      "inputs": [
        {
          "name": "_maxMembre",
          "type": "uint256"
        }
      ],
      "name": "modifierMaxMembre",
      "outputs": [],
      "payable": false,
      "stateMutability": "nonpayable",
      "type": "function"
    },
    {
      "constant": false,
      "inputs": [
        {
          "name": "_maxAmount",
          "type": "uint256"
        }
      ],
      "name": "modifierMaxAmount",
      "outputs": [],
      "payable": false,
      "stateMutability": "nonpayable",
      "type": "function"
    },
    {
      "constant": false,
      "inputs": [
        {
          "name": "_minAmount",
          "type": "uint256"
        }
      ],
      "name": "modifierMinAmount",
      "outputs": [],
      "payable": false,
      "stateMutability": "nonpayable",
      "type": "function"
    },
    {
      "constant": false,
      "inputs": [
        {
          "name": "_priceChannel",
          "type": "uint256"
        }
      ],
      "name": "modifierPriceChannel",
      "outputs": [],
      "payable": false,
      "stateMutability": "nonpayable",
      "type": "function"
    },
    {
      "constant": false,
      "inputs": [
        {
          "name": "_nom",
          "type": "string"
        },
        {
          "name": "_pseudo",
          "type": "string"
        }
      ],
      "name": "creerGroupe",
      "outputs": [],
      "payable": true,
      "stateMutability": "payable",
      "type": "function"
    },
    {
      "constant": false,
      "inputs": [
        {
          "name": "_membre",
          "type": "address"
        },
        {
          "name": "_groupe",
          "type": "string"
        },
        {
          "name": "_pseudo",
          "type": "string"
        }
      ],
      "name": "ajouterMembre",
      "outputs": [],
      "payable": false,
      "stateMutability": "nonpayable",
      "type": "function"
    },
    {
      "constant": false,
      "inputs": [
        {
          "name": "_membre",
          "type": "address"
        },
        {
          "name": "_groupe",
          "type": "string"
        }
      ],
      "name": "ajouterAdmin",
      "outputs": [],
      "payable": false,
      "stateMutability": "nonpayable",
      "type": "function"
    },
    {
      "constant": false,
      "inputs": [
        {
          "name": "_montant",
          "type": "uint256"
        },
        {
          "name": "_delai",
          "type": "uint256"
        },
        {
          "name": "_pseudo",
          "type": "string"
        },
        {
          "name": "_description",
          "type": "string"
        }
      ],
      "name": "demander",
      "outputs": [],
      "payable": true,
      "stateMutability": "payable",
      "type": "function"
    },
    {
      "constant": false,
      "inputs": [
        {
          "name": "_groupe",
          "type": "string"
        },
        {
          "name": "_pseudo",
          "type": "string"
        },
        {
          "name": "_token",
          "type": "uint256"
        }
      ],
      "name": "payerCanal",
      "outputs": [],
      "payable": true,
      "stateMutability": "payable",
      "type": "function"
    },
    {
      "constant": false,
      "inputs": [
        {
          "name": "_pseudo",
          "type": "string"
        }
      ],
      "name": "fermetureCanal",
      "outputs": [],
      "payable": false,
      "stateMutability": "nonpayable",
      "type": "function"
    },
    {
      "constant": false,
      "inputs": [
        {
          "name": "_token",
          "type": "uint256"
        }
      ],
      "name": "consommerTokens",
      "outputs": [],
      "payable": false,
      "stateMutability": "nonpayable",
      "type": "function"
    },
    {
      "constant": true,
      "inputs": [],
      "name": "getGroupesPerAddress",
      "outputs": [
        {
          "name": "",
          "type": "uint256[]"
        }
      ],
      "payable": false,
      "stateMutability": "view",
      "type": "function"
    },
    {
      "constant": true,
      "inputs": [
        {
          "name": "_groupe",
          "type": "string"
        }
      ],
      "name": "getMembres",
      "outputs": [
        {
          "name": "",
          "type": "uint256[]"
        }
      ],
      "payable": false,
      "stateMutability": "view",
      "type": "function"
    },
    {
      "constant": true,
      "inputs": [
        {
          "name": "_ID",
          "type": "uint256"
        }
      ],
      "name": "getNomMembre",
      "outputs": [
        {
          "name": "",
          "type": "string"
        }
      ],
      "payable": false,
      "stateMutability": "view",
      "type": "function"
    },
    {
      "constant": true,
      "inputs": [
        {
          "name": "_ID",
          "type": "uint256"
        }
      ],
      "name": "getNomGroupe",
      "outputs": [
        {
          "name": "",
          "type": "string"
        }
      ],
      "payable": false,
      "stateMutability": "view",
      "type": "function"
    }
  ],
  "bytecode": "0x608060405234801561001057600080fd5b5033600360006101000a81548173ffffffffffffffffffffffffffffffffffffffff021916908373ffffffffffffffffffffffffffffffffffffffff16021790555060016014819055506032601381905550600a600e81905550600a600f819055506509184e72a000601081905550620186a0601181905550600a601281905550613a4d806100a06000396000f3fe6080604052600436106101ac576000357c0100000000000000000000000000000000000000000000000000000000900463ffffffff16806306fdde03146101b1578063095ea7b3146101dc57806316f1df231461021957806318160ddd146102425780631c064aa71461026d5780631e0afe5714610296578063203ac3ce146102c157806323b872dd146102ea578063247e00f81461032757806329c77347146103525780632b5bdd1d1461038f578063313ce567146103b8578063370c29f9146103e3578063395093511461040c57806341522997146104495780634b7b03cf146104865780634dc88729146104c35780635db06f01146104ec57806370a082311461051557806370d51918146105525780638da5cb5b1461056e5780638f3333411461059957806395d89b41146105c2578063a22b35ce146105ed578063a457c2d714610616578063a9059cbb14610653578063beaf3b0d14610690578063dd62ed3e146106b9578063e0c989c2146106f6578063f2fde38b1461071f578063f420948b14610748578063f4343df414610771578063f48397721461078d578063fa8622f9146107b6575b600080fd5b3480156101bd57600080fd5b506101c66107d2565b6040516101d3919061381a565b60405180910390f35b3480156101e857600080fd5b5061020360048036036101fe9190810190613471565b61080b565b60405161021091906137e4565b60405180910390f35b34801561022557600080fd5b50610240600480360361023b919081019061339e565b610822565b005b34801561024e57600080fd5b50610257610bbf565b604051610264919061385e565b60405180910390f35b34801561027957600080fd5b50610294600480360361028f91908101906135d9565b610bc9565b005b3480156102a257600080fd5b506102ab610c4c565b6040516102b891906137c2565b60405180910390f35b3480156102cd57600080fd5b506102e860048036036102e391908101906135d9565b610ce1565b005b3480156102f657600080fd5b50610311600480360361030c919081019061334f565b610d4c565b60405161031e91906137e4565b60405180910390f35b34801561033357600080fd5b5061033c610dfd565b60405161034991906137ff565b60405180910390f35b34801561035e57600080fd5b50610379600480360361037491908101906134ad565b610e23565b60405161038691906137c2565b60405180910390f35b34801561039b57600080fd5b506103b660048036036103b191908101906132ea565b610ee6565b005b3480156103c457600080fd5b506103cd610f9d565b6040516103da9190613879565b60405180910390f35b3480156103ef57600080fd5b5061040a600480360361040591908101906135d9565b610fa2565b005b34801561041857600080fd5b50610433600480360361042e9190810190613471565b611017565b60405161044091906137e4565b60405180910390f35b34801561045557600080fd5b50610470600480360361046b91908101906135d9565b6110bc565b60405161047d919061383c565b60405180910390f35b34801561049257600080fd5b506104ad60048036036104a891908101906135d9565b611171565b6040516104ba919061383c565b60405180910390f35b3480156104cf57600080fd5b506104ea60048036036104e591908101906134ad565b611229565b005b3480156104f857600080fd5b50610513600480360361050e91908101906135d9565b611465565b005b34801561052157600080fd5b5061053c600480360361053791908101906132ea565b6114cb565b604051610549919061385e565b60405180910390f35b61056c6004803603610567919081019061355a565b611513565b005b34801561057a57600080fd5b50610583611871565b60405161059091906137a7565b60405180910390f35b3480156105a557600080fd5b506105c060048036036105bb91908101906133f2565b611897565b005b3480156105ce57600080fd5b506105d7611c98565b6040516105e4919061381a565b60405180910390f35b3480156105f957600080fd5b50610614600480360361060f9190810190613471565b611cd1565b005b34801561062257600080fd5b5061063d60048036036106389190810190613471565b611d78565b60405161064a91906137e4565b60405180910390f35b34801561065f57600080fd5b5061067a60048036036106759190810190613471565b611e1d565b60405161068791906137e4565b60405180910390f35b34801561069c57600080fd5b506106b760048036036106b291908101906135d9565b611e34565b005b3480156106c557600080fd5b506106e060048036036106db9190810190613313565b611ebe565b6040516106ed919061385e565b60405180910390f35b34801561070257600080fd5b5061071d600480360361071891908101906135d9565b611f45565b005b34801561072b57600080fd5b50610746600480360361074191908101906132ea565b611fcb565b005b34801561075457600080fd5b5061076f600480360361076a91908101906135d9565b612123565b005b61078b600480360361078691908101906134ee565b6121a7565b005b34801561079957600080fd5b506107b460048036036107af91908101906135d9565b612667565b005b6107d060048036036107cb9190810190613602565b6126ee565b005b6040805190810160405280600881526020017f67696d69636f696e00000000000000000000000000000000000000000000000081525081565b6000610818338484612967565b6001905092915050565b60008090505b6009826040518082805190602001908083835b602083101515610860578051825260208201915060208101905060208303925061083b565b6001836020036101000a038019825116818451168082178552505050505050905001915050908152602001604051809103902080549050811015610bba573373ffffffffffffffffffffffffffffffffffffffff166009836040518082805190602001908083835b6020831015156108ed57805182526020820191506020810190506020830392506108c8565b6001836020036101000a03801982511681845116808217855250505050505090500191505090815260200160405180910390208281548110151561092d57fe5b9060005260206000200160009054906101000a900473ffffffffffffffffffffffffffffffffffffffff1673ffffffffffffffffffffffffffffffffffffffff161415610bad5760008090505b6007836040518082805190602001908083835b6020831015156109b2578051825260208201915060208101905060208303925061098d565b6001836020036101000a038019825116818451168082178552505050505050905001915050908152602001604051809103902080549050811015610ba7578373ffffffffffffffffffffffffffffffffffffffff166007846040518082805190602001908083835b602083101515610a3f5780518252602082019150602081019050602083039250610a1a565b6001836020036101000a038019825116818451168082178552505050505050905001915050908152602001604051809103902082815481101515610a7f57fe5b9060005260206000200160009054906101000a900473ffffffffffffffffffffffffffffffffffffffff1673ffffffffffffffffffffffffffffffffffffffff161415610b9a576009836040518082805190602001908083835b602083101515610afe5780518252602082019150602081019050602083039250610ad9565b6001836020036101000a03801982511681845116808217855250505050505090500191505090815260200160405180910390208490806001815401808255809150509060018203906000526020600020016000909192909190916101000a81548173ffffffffffffffffffffffffffffffffffffffff021916908373ffffffffffffffffffffffffffffffffffffffff16021790555050610ba7565b808060010191505061097a565b50610bba565b8080600101915050610828565b505050565b6000600254905090565b600360009054906101000a900473ffffffffffffffffffffffffffffffffffffffff1673ffffffffffffffffffffffffffffffffffffffff163373ffffffffffffffffffffffffffffffffffffffff16141515610c2557600080fd5b60058110158015610c37575060c88111155b1515610c4257600080fd5b80600e8190555050565b6060600b60003373ffffffffffffffffffffffffffffffffffffffff1673ffffffffffffffffffffffffffffffffffffffff168152602001908152602001600020805480602002602001604051908101604052809291908181526020018280548015610cd757602002820191906000526020600020905b815481526020019060010190808311610cc3575b5050505050905090565b80610ceb336114cb565b10151515610cf857600080fd5b3373ffffffffffffffffffffffffffffffffffffffff166108fc829081150290604051600060405180830381858888f19350505050158015610d3e573d6000803e3d6000fd5b50610d493382611cd1565b50565b6000610d59848484612aca565b610df28433610ded85600160008a73ffffffffffffffffffffffffffffffffffffffff1673ffffffffffffffffffffffffffffffffffffffff16815260200190815260200160002060003373ffffffffffffffffffffffffffffffffffffffff1673ffffffffffffffffffffffffffffffffffffffff16815260200190815260200160002054612c9690919063ffffffff16565b612967565b600190509392505050565b600460009054906101000a900473ffffffffffffffffffffffffffffffffffffffff1681565b60606008826040518082805190602001908083835b602083101515610e5d5780518252602082019150602081019050602083039250610e38565b6001836020036101000a0380198251168184511680821785525050505050509050019150509081526020016040518091039020805480602002602001604051908101604052809291908181526020018280548015610eda57602002820191906000526020600020905b815481526020019060010190808311610ec6575b50505050509050919050565b600360009054906101000a900473ffffffffffffffffffffffffffffffffffffffff1673ffffffffffffffffffffffffffffffffffffffff163373ffffffffffffffffffffffffffffffffffffffff16141515610f4257600080fd5b6001600d60003373ffffffffffffffffffffffffffffffffffffffff1673ffffffffffffffffffffffffffffffffffffffff16815260200190815260200160002060006101000a81548160ff02191690831515021790555050565b601281565b600360009054906101000a900473ffffffffffffffffffffffffffffffffffffffff1673ffffffffffffffffffffffffffffffffffffffff163373ffffffffffffffffffffffffffffffffffffffff16141515610ffe57600080fd5b60018111151561100d57600080fd5b8060128190555050565b60006110b233846110ad85600160003373ffffffffffffffffffffffffffffffffffffffff1673ffffffffffffffffffffffffffffffffffffffff16815260200190815260200160002060008973ffffffffffffffffffffffffffffffffffffffff1673ffffffffffffffffffffffffffffffffffffffff16815260200190815260200160002054612caf90919063ffffffff16565b612967565b6001905092915050565b6060600c60008381526020019081526020016000208054600181600116156101000203166002900480601f0160208091040260200160405190810160405280929190818152602001828054600181600116156101000203166002900480156111655780601f1061113a57610100808354040283529160200191611165565b820191906000526020600020905b81548152906001019060200180831161114857829003601f168201915b50505050509050919050565b6060600560008381526020019081526020016000206001018054600181600116156101000203166002900480601f01602080910402602001604051908101604052809291908181526020018280546001816001161561010002031660029004801561121d5780601f106111f25761010080835404028352916020019161121d565b820191906000526020600020905b81548152906001019060200180831161120057829003601f168201915b50505050509050919050565b60001515600d60003373ffffffffffffffffffffffffffffffffffffffff1673ffffffffffffffffffffffffffffffffffffffff16815260200190815260200160002060009054906101000a900460ff16151514151561128857600080fd5b60008180519060200120600190049050436005600083815260200190815260200160002060030154111515156112bd57600080fd5b600060018111156112ca57fe5b6005600083815260200190815260200160002060040160009054906101000a900460ff1660018111156112f957fe5b14151561130557600080fd5b3373ffffffffffffffffffffffffffffffffffffffff166005600083815260200190815260200160002060000160009054906101000a900473ffffffffffffffffffffffffffffffffffffffff1673ffffffffffffffffffffffffffffffffffffffff1614151561137557600080fd5b3373ffffffffffffffffffffffffffffffffffffffff166108fc60056000848152602001908152602001600020600601549081150290604051600060405180830381858888f193505050501580156113d1573d6000803e3d6000fd5b506000600560008381526020019081526020016000206006018190555060016005600083815260200190815260200160002060040160006101000a81548160ff0219169083600181111561142157fe5b021790555060206040519081016040528060008152506005600083815260200190815260200160002060080190805190602001906114609291906131c7565b505050565b600360009054906101000a900473ffffffffffffffffffffffffffffffffffffffff1673ffffffffffffffffffffffffffffffffffffffff163373ffffffffffffffffffffffffffffffffffffffff161415156114c157600080fd5b8060148190555050565b60008060008373ffffffffffffffffffffffffffffffffffffffff1673ffffffffffffffffffffffffffffffffffffffff168152602001908152602001600020549050919050565b60001515600d60003373ffffffffffffffffffffffffffffffffffffffff1673ffffffffffffffffffffffffffffffffffffffff16815260200190815260200160002060009054906101000a900460ff16151514151561157257600080fd5b600082805190602001206001900490506000600181111561158f57fe5b6005600083815260200190815260200160002060040160009054906101000a900460ff1660018111156115be57fe5b1415156115ca57600080fd5b436005600083815260200190815260200160002060030154101515156115ef57600080fd5b3373ffffffffffffffffffffffffffffffffffffffff166005600083815260200190815260200160002060000160009054906101000a900473ffffffffffffffffffffffffffffffffffffffff1673ffffffffffffffffffffffffffffffffffffffff1614151561165f57600080fd5b81611669336114cb565b1015151561167657600080fd5b60008090505b6007856040518082805190602001908083835b6020831015156116b4578051825260208201915060208101905060208303925061168f565b6001836020036101000a03801982511681845116808217855250505050505090500191505090815260200160405180910390208054905081101561186a573373ffffffffffffffffffffffffffffffffffffffff166007866040518082805190602001908083835b602083101515611741578051825260208201915060208101905060208303925061171c565b6001836020036101000a03801982511681845116808217855250505050505090500191505090815260200160405180910390208281548110151561178157fe5b9060005260206000200160009054906101000a900473ffffffffffffffffffffffffffffffffffffffff1673ffffffffffffffffffffffffffffffffffffffff16141561185d576000601254348115156117d757fe5b0490506117e43382612ccd565b600034905060008511156118025784810190506118013386611cd1565b5b8060056000888051906020012060019004815260200190815260200160002060070160008282540192505081905550818103905080600560008681526020019081526020016000206006016000828254019250508190555050505b808060010191505061167c565b5050505050565b600360009054906101000a900473ffffffffffffffffffffffffffffffffffffffff1681565b600e546007836040518082805190602001908083835b6020831015156118d257805182526020820191506020810190506020830392506118ad565b6001836020036101000a03801982511681845116808217855250505050505090500191505090815260200160405180910390208054905010151561191557600080fd5b600073ffffffffffffffffffffffffffffffffffffffff16600a826040518082805190602001908083835b6020831015156119655780518252602082019150602081019050602083039250611940565b6001836020036101000a038019825116818451168082178552505050505050905001915050908152602001604051809103902060009054906101000a900473ffffffffffffffffffffffffffffffffffffffff1673ffffffffffffffffffffffffffffffffffffffff161415156119db57600080fd5b60008090505b6009836040518082805190602001908083835b602083101515611a1957805182526020820191506020810190506020830392506119f4565b6001836020036101000a038019825116818451168082178552505050505050905001915050908152602001604051809103902080549050811015611c92573373ffffffffffffffffffffffffffffffffffffffff166009846040518082805190602001908083835b602083101515611aa65780518252602082019150602081019050602083039250611a81565b6001836020036101000a038019825116818451168082178552505050505050905001915050908152602001604051809103902082815481101515611ae657fe5b9060005260206000200160009054906101000a900473ffffffffffffffffffffffffffffffffffffffff1673ffffffffffffffffffffffffffffffffffffffff161415611c855760008380519060200120600190049050600b60008673ffffffffffffffffffffffffffffffffffffffff1673ffffffffffffffffffffffffffffffffffffffff1681526020019081526020016000208190806001815401808255809150509060018203906000526020600020016000909192909190915055506007846040518082805190602001908083835b602083101515611bde5780518252602082019150602081019050602083039250611bb9565b6001836020036101000a03801982511681845116808217855250505050505090500191505090815260200160405180910390208590806001815401808255809150509060018203906000526020600020016000909192909190916101000a81548173ffffffffffffffffffffffffffffffffffffffff021916908373ffffffffffffffffffffffffffffffffffffffff16021790555050611c7f8385612e21565b50611c92565b80806001019150506119e1565b50505050565b6040805190810160405280600381526020017f474d43000000000000000000000000000000000000000000000000000000000081525081565b611cdb8282613073565b611d748233611d6f84600160008873ffffffffffffffffffffffffffffffffffffffff1673ffffffffffffffffffffffffffffffffffffffff16815260200190815260200160002060003373ffffffffffffffffffffffffffffffffffffffff1673ffffffffffffffffffffffffffffffffffffffff16815260200190815260200160002054612c9690919063ffffffff16565b612967565b5050565b6000611e133384611e0e85600160003373ffffffffffffffffffffffffffffffffffffffff1673ffffffffffffffffffffffffffffffffffffffff16815260200190815260200160002060008973ffffffffffffffffffffffffffffffffffffffff1673ffffffffffffffffffffffffffffffffffffffff16815260200190815260200160002054612c9690919063ffffffff16565b612967565b6001905092915050565b6000611e2a338484612aca565b6001905092915050565b600360009054906101000a900473ffffffffffffffffffffffffffffffffffffffff1673ffffffffffffffffffffffffffffffffffffffff163373ffffffffffffffffffffffffffffffffffffffff16141515611e9057600080fd5b629896808110158015611ea957506509184e72a0008111155b1515611eb457600080fd5b8060108190555050565b6000600160008473ffffffffffffffffffffffffffffffffffffffff1673ffffffffffffffffffffffffffffffffffffffff16815260200190815260200160002060008373ffffffffffffffffffffffffffffffffffffffff1673ffffffffffffffffffffffffffffffffffffffff16815260200190815260200160002054905092915050565b600360009054906101000a900473ffffffffffffffffffffffffffffffffffffffff1673ffffffffffffffffffffffffffffffffffffffff163373ffffffffffffffffffffffffffffffffffffffff16141515611fa157600080fd5b600a8110158015611fb65750633b9aca008111155b1515611fc157600080fd5b80600f8190555050565b600360009054906101000a900473ffffffffffffffffffffffffffffffffffffffff1673ffffffffffffffffffffffffffffffffffffffff163373ffffffffffffffffffffffffffffffffffffffff1614151561202757600080fd5b600073ffffffffffffffffffffffffffffffffffffffff168173ffffffffffffffffffffffffffffffffffffffff161415151561206357600080fd5b8073ffffffffffffffffffffffffffffffffffffffff16600360009054906101000a900473ffffffffffffffffffffffffffffffffffffffff1673ffffffffffffffffffffffffffffffffffffffff167f8be0079c531659141344cd1fd0a4f28419497f9722a3daafe3b4186f6b6457e060405160405180910390a380600360006101000a81548173ffffffffffffffffffffffffffffffffffffffff021916908373ffffffffffffffffffffffffffffffffffffffff16021790555050565b600360009054906101000a900473ffffffffffffffffffffffffffffffffffffffff1673ffffffffffffffffffffffffffffffffffffffff163373ffffffffffffffffffffffffffffffffffffffff1614151561217f57600080fd5b600a811015801561219257506103e88111155b151561219d57600080fd5b8060138190555050565b60001515600d60003373ffffffffffffffffffffffffffffffffffffffff1673ffffffffffffffffffffffffffffffffffffffff16815260200190815260200160002060009054906101000a900460ff16151514151561220657600080fd5b601454341015151561221757600080fd5b60006006836040518082805190602001908083835b602083101515612251578051825260208201915060208101905060208303925061222c565b6001836020036101000a03801982511681845116808217855250505050505090500191505090815260200160405180910390205414151561229157600080fd5b601354600b60003373ffffffffffffffffffffffffffffffffffffffff1673ffffffffffffffffffffffffffffffffffffffff168152602001908152602001600020805490501015156122e357600080fd5b600073ffffffffffffffffffffffffffffffffffffffff16600a826040518082805190602001908083835b602083101515612333578051825260208201915060208101905060208303925061230e565b6001836020036101000a038019825116818451168082178552505050505050905001915050908152602001604051809103902060009054906101000a900473ffffffffffffffffffffffffffffffffffffffff1673ffffffffffffffffffffffffffffffffffffffff161415156123a957600080fd5b60008280519060200120600190049050806006846040518082805190602001908083835b6020831015156123f257805182526020820191506020810190506020830392506123cd565b6001836020036101000a03801982511681845116808217855250505050505090500191505090815260200160405180910390208190555082600c600083815260200190815260200160002090805190602001906124509291906131c7565b506007836040518082805190602001908083835b6020831015156124895780518252602082019150602081019050602083039250612464565b6001836020036101000a03801982511681845116808217855250505050505090500191505090815260200160405180910390203390806001815401808255809150509060018203906000526020600020016000909192909190916101000a81548173ffffffffffffffffffffffffffffffffffffffff021916908373ffffffffffffffffffffffffffffffffffffffff160217905550506009836040518082805190602001908083835b6020831015156125585780518252602082019150602081019050602083039250612533565b6001836020036101000a03801982511681845116808217855250505050505090500191505090815260200160405180910390203390806001815401808255809150509060018203906000526020600020016000909192909190916101000a81548173ffffffffffffffffffffffffffffffffffffffff021916908373ffffffffffffffffffffffffffffffffffffffff16021790555050600b60003373ffffffffffffffffffffffffffffffffffffffff1673ffffffffffffffffffffffffffffffffffffffff1681526020019081526020016000208190806001815401808255809150509060018203906000526020600020016000909192909190915055506126628284612e21565b505050565b600360009054906101000a900473ffffffffffffffffffffffffffffffffffffffff1673ffffffffffffffffffffffffffffffffffffffff163373ffffffffffffffffffffffffffffffffffffffff161415156126c357600080fd5b620186a081101580156126d95750620f42408111155b15156126e457600080fd5b8060118190555050565b60001515600d60003373ffffffffffffffffffffffffffffffffffffffff1673ffffffffffffffffffffffffffffffffffffffff16815260200190815260200160002060009054906101000a900460ff16151514151561274d57600080fd5b6011548411801561275f575060105484105b151561276a57600080fd5b3373ffffffffffffffffffffffffffffffffffffffff16600a836040518082805190602001908083835b6020831015156127b95780518252602082019150602081019050602083039250612794565b6001836020036101000a038019825116818451168082178552505050505050905001915050908152602001604051809103902060009054906101000a900473ffffffffffffffffffffffffffffffffffffffff1673ffffffffffffffffffffffffffffffffffffffff1614151561282f57600080fd5b60006012548581151561283e57fe5b04905080341015151561285057600080fd5b6000838051906020012060019004905060018081111561286c57fe5b6005600083815260200190815260200160002060040160009054906101000a900460ff16600181111561289b57fe5b1415156128a757600080fd5b856005600083815260200190815260200160002060020181905550813403600560008381526020019081526020016000206006018190555060006005600083815260200190815260200160002060040160006101000a81548160ff0219169083600181111561291257fe5b021790555084430160056000838152602001908152602001600020600301819055508260056000838152602001908152602001600020600801908051906020019061295e9291906131c7565b50505050505050565b600073ffffffffffffffffffffffffffffffffffffffff168273ffffffffffffffffffffffffffffffffffffffff16141515156129a357600080fd5b600073ffffffffffffffffffffffffffffffffffffffff168373ffffffffffffffffffffffffffffffffffffffff16141515156129df57600080fd5b80600160008573ffffffffffffffffffffffffffffffffffffffff1673ffffffffffffffffffffffffffffffffffffffff16815260200190815260200160002060008473ffffffffffffffffffffffffffffffffffffffff1673ffffffffffffffffffffffffffffffffffffffff168152602001908152602001600020819055508173ffffffffffffffffffffffffffffffffffffffff168373ffffffffffffffffffffffffffffffffffffffff167f8c5be1e5ebec7d5bd14f71427d1e84f3dd0314c0f7b2291e5b200ac8c7c3b92583604051612abd919061385e565b60405180910390a3505050565b600073ffffffffffffffffffffffffffffffffffffffff168273ffffffffffffffffffffffffffffffffffffffff1614151515612b0657600080fd5b612b57816000808673ffffffffffffffffffffffffffffffffffffffff1673ffffffffffffffffffffffffffffffffffffffff16815260200190815260200160002054612c9690919063ffffffff16565b6000808573ffffffffffffffffffffffffffffffffffffffff1673ffffffffffffffffffffffffffffffffffffffff16815260200190815260200160002081905550612bea816000808573ffffffffffffffffffffffffffffffffffffffff1673ffffffffffffffffffffffffffffffffffffffff16815260200190815260200160002054612caf90919063ffffffff16565b6000808473ffffffffffffffffffffffffffffffffffffffff1673ffffffffffffffffffffffffffffffffffffffff168152602001908152602001600020819055508173ffffffffffffffffffffffffffffffffffffffff168373ffffffffffffffffffffffffffffffffffffffff167fddf252ad1be2c89b69c2b068fc378daa952ba7f163c4a11628f55a4df523b3ef83604051612c89919061385e565b60405180910390a3505050565b6000828211151515612ca457fe5b818303905092915050565b6000808284019050838110151515612cc357fe5b8091505092915050565b600073ffffffffffffffffffffffffffffffffffffffff168273ffffffffffffffffffffffffffffffffffffffff1614151515612d0957600080fd5b612d1e81600254612caf90919063ffffffff16565b600281905550612d75816000808573ffffffffffffffffffffffffffffffffffffffff1673ffffffffffffffffffffffffffffffffffffffff16815260200190815260200160002054612caf90919063ffffffff16565b6000808473ffffffffffffffffffffffffffffffffffffffff1673ffffffffffffffffffffffffffffffffffffffff168152602001908152602001600020819055508173ffffffffffffffffffffffffffffffffffffffff16600073ffffffffffffffffffffffffffffffffffffffff167fddf252ad1be2c89b69c2b068fc378daa952ba7f163c4a11628f55a4df523b3ef83604051612e15919061385e565b60405180910390a35050565b600082805190602001206001900490503373ffffffffffffffffffffffffffffffffffffffff16600a846040518082805190602001908083835b602083101515612e805780518252602082019150602081019050602083039250612e5b565b6001836020036101000a038019825116818451168082178552505050505050905001915050908152602001604051809103902060009054906101000a900473ffffffffffffffffffffffffffffffffffffffff1673ffffffffffffffffffffffffffffffffffffffff16141515612ef657600080fd5b60016005600083815260200190815260200160002060040160006101000a81548160ff02191690836001811115612f2957fe5b021790555082600560008381526020019081526020016000206001019080519060200190612f589291906131c7565b5081600560008381526020019081526020016000206005019080519060200190612f839291906131c7565b50336005600083815260200190815260200160002060000160006101000a81548173ffffffffffffffffffffffffffffffffffffffff021916908373ffffffffffffffffffffffffffffffffffffffff1602179055506008826040518082805190602001908083835b6020831015156130115780518252602082019150602081019050602083039250612fec565b6001836020036101000a0380198251168184511680821785525050505050509050019150509081526020016040518091039020819080600181540180825580915050906001820390600052602060002001600090919290919091505550505050565b600073ffffffffffffffffffffffffffffffffffffffff168273ffffffffffffffffffffffffffffffffffffffff16141515156130af57600080fd5b6130c481600254612c9690919063ffffffff16565b60028190555061311b816000808573ffffffffffffffffffffffffffffffffffffffff1673ffffffffffffffffffffffffffffffffffffffff16815260200190815260200160002054612c9690919063ffffffff16565b6000808473ffffffffffffffffffffffffffffffffffffffff1673ffffffffffffffffffffffffffffffffffffffff16815260200190815260200160002081905550600073ffffffffffffffffffffffffffffffffffffffff168273ffffffffffffffffffffffffffffffffffffffff167fddf252ad1be2c89b69c2b068fc378daa952ba7f163c4a11628f55a4df523b3ef836040516131bb919061385e565b60405180910390a35050565b828054600181600116156101000203166002900490600052602060002090601f016020900481019282601f1061320857805160ff1916838001178555613236565b82800160010185558215613236579182015b8281111561323557825182559160200191906001019061321a565b5b5090506132439190613247565b5090565b61326991905b8082111561326557600081600090555060010161324d565b5090565b90565b60006132788235613980565b905092915050565b600082601f830112151561329357600080fd5b81356132a66132a1826138c1565b613894565b915080825260208301602083018583830111156132c257600080fd5b6132cd8382846139c0565b50505092915050565b60006132e28235613992565b905092915050565b6000602082840312156132fc57600080fd5b600061330a8482850161326c565b91505092915050565b6000806040838503121561332657600080fd5b60006133348582860161326c565b92505060206133458582860161326c565b9150509250929050565b60008060006060848603121561336457600080fd5b60006133728682870161326c565b93505060206133838682870161326c565b9250506040613394868287016132d6565b9150509250925092565b600080604083850312156133b157600080fd5b60006133bf8582860161326c565b925050602083013567ffffffffffffffff8111156133dc57600080fd5b6133e885828601613280565b9150509250929050565b60008060006060848603121561340757600080fd5b60006134158682870161326c565b935050602084013567ffffffffffffffff81111561343257600080fd5b61343e86828701613280565b925050604084013567ffffffffffffffff81111561345b57600080fd5b61346786828701613280565b9150509250925092565b6000806040838503121561348457600080fd5b60006134928582860161326c565b92505060206134a3858286016132d6565b9150509250929050565b6000602082840312156134bf57600080fd5b600082013567ffffffffffffffff8111156134d957600080fd5b6134e584828501613280565b91505092915050565b6000806040838503121561350157600080fd5b600083013567ffffffffffffffff81111561351b57600080fd5b61352785828601613280565b925050602083013567ffffffffffffffff81111561354457600080fd5b61355085828601613280565b9150509250929050565b60008060006060848603121561356f57600080fd5b600084013567ffffffffffffffff81111561358957600080fd5b61359586828701613280565b935050602084013567ffffffffffffffff8111156135b257600080fd5b6135be86828701613280565b92505060406135cf868287016132d6565b9150509250925092565b6000602082840312156135eb57600080fd5b60006135f9848285016132d6565b91505092915050565b6000806000806080858703121561361857600080fd5b6000613626878288016132d6565b9450506020613637878288016132d6565b935050604085013567ffffffffffffffff81111561365457600080fd5b61366087828801613280565b925050606085013567ffffffffffffffff81111561367d57600080fd5b61368987828801613280565b91505092959194509250565b61369e81613928565b82525050565b60006136af826138fa565b8084526020840193506136c1836138ed565b60005b828110156136f3576136d7868351613789565b6136e08261391b565b91506020860195506001810190506136c4565b50849250505092915050565b6137088161393a565b82525050565b6137178161399c565b82525050565b600061372882613910565b80845261373c8160208601602086016139cf565b61374581613a02565b602085010191505092915050565b600061375e82613905565b8084526137728160208601602086016139cf565b61377b81613a02565b602085010191505092915050565b61379281613966565b82525050565b6137a181613970565b82525050565b60006020820190506137bc6000830184613695565b92915050565b600060208201905081810360008301526137dc81846136a4565b905092915050565b60006020820190506137f960008301846136ff565b92915050565b6000602082019050613814600083018461370e565b92915050565b600060208201905081810360008301526138348184613753565b905092915050565b60006020820190508181036000830152613856818461371d565b905092915050565b60006020820190506138736000830184613789565b92915050565b600060208201905061388e6000830184613798565b92915050565b6000604051905081810181811067ffffffffffffffff821117156138b757600080fd5b8060405250919050565b600067ffffffffffffffff8211156138d857600080fd5b601f19601f8301169050602081019050919050565b6000602082019050919050565b600081519050919050565b600081519050919050565b600081519050919050565b6000602082019050919050565b600061393382613946565b9050919050565b60008115159050919050565b600073ffffffffffffffffffffffffffffffffffffffff82169050919050565b6000819050919050565b600063ffffffff82169050919050565b600061398b82613946565b9050919050565b6000819050919050565b60006139a7826139ae565b9050919050565b60006139b982613946565b9050919050565b82818337600083830152505050565b60005b838110156139ed5780820151818401526020810190506139d2565b838111156139fc576000848401525b50505050565b6000601f19601f830116905091905056fea265627a7a72305820fc99aac07fd9a9dfc6dad3d41ddf1fb821e67613f44d281bc9fbd9164db734546c6578706572696d656e74616cf50037",
  "source": "pragma solidity ^0.5.0;\npragma experimental ABIEncoderV2;\n\nimport \"./Gimicoin.sol\";\nimport \"./Ownable.sol\";\n\ncontract Cagnottes is Gimicoin, Ownable {\n\nGimicoin public myGimicoin;\n\nmapping (uint => channel) private mappChannel;\nmapping (string => uint) private mappNomGroupe;\nmapping (string => address[]) private mappGroupe;\nmapping (string => uint[]) private mappGroupeAndChannels;\nmapping (string => address[]) private mappGroupeAdmin;\nmapping (string => address) private mappPseudo;\nmapping (address => uint[]) private mappGroupesForAddress;\nmapping (uint => string) private mappIDGroupe;\n\n//securite\nmapping (address => bool) private blackList;\nfunction blackLister(address _individu) public onlyOwner\n{\n  blackList[msg.sender]=true;\n}\nmodifier notBlackListed() {\n  require(blackList[msg.sender]==false);\n  _;\n}\n\nenum EtatCanal {ACTIF, FERME}\n\nuint MAX_MEMBRE;\nuint MAX_DELAI;\nuint MAX_AMOUNT;\nuint MIN_AMOUNT;\nuint PRICE_RATIO;\nuint MAX_GROUPS;\nuint GROUP_PRICE;\n\nstruct channel\n{\n  address demandeur;\n  string pseudo;\n  uint montant;\n  uint blocFermeture;\n  EtatCanal etat;\n  string groupe;\n  uint enCours;\n  uint donnations;\n  string description;\n}\n\nconstructor() public\n{\n  GROUP_PRICE=1;\n  MAX_GROUPS=50;\n  MAX_MEMBRE = 10;\n  MAX_DELAI = 10;\n  MAX_AMOUNT = 10000000000000;\n  MIN_AMOUNT = 100000;\n  PRICE_RATIO = 10;\n}\n\nfunction modifierMaxGroups(uint _maxGroups) public onlyOwner\n{\n  require(_maxGroups >= 10 && _maxGroups <= 1000);\n  MAX_GROUPS = _maxGroups;\n}\n\nfunction prixGroup(uint _priceGroup) public onlyOwner\n{\n  GROUP_PRICE = _priceGroup;\n}\n\nfunction modifierDelai(uint _maxDelai) public onlyOwner\n{\n  require(_maxDelai >= 10 && _maxDelai <= 1000000000);\n  MAX_DELAI = _maxDelai;\n}\n\nfunction modifierMaxMembre(uint _maxMembre) public onlyOwner\n{\n  require(_maxMembre >= 5 && _maxMembre <= 200);\n  MAX_MEMBRE = _maxMembre;\n}\n\nfunction modifierMaxAmount(uint _maxAmount) public onlyOwner\n{\n  require(_maxAmount >= 10000000 && _maxAmount <= 10000000000000);\n  MAX_AMOUNT = _maxAmount;\n}\n\nfunction modifierMinAmount(uint _minAmount) public onlyOwner\n{\n  require(_minAmount >= 100000 && _minAmount <= 1000000);\n  MIN_AMOUNT = _minAmount;\n}\n\nfunction modifierPriceChannel(uint _priceChannel) public onlyOwner\n{\n  require(_priceChannel > 1);\n  PRICE_RATIO = _priceChannel;\n}\n\nfunction creerGroupe(string memory _nom, string memory _pseudo) payable notBlackListed public\n{\n  require(msg.value>=GROUP_PRICE);\n  require(mappNomGroupe[_nom]==0);\n  require(mappGroupesForAddress[msg.sender].length<MAX_GROUPS);\n  require(mappPseudo[_pseudo]==address(0));\n  uint IDGroupe = uint(keccak256(bytes(_nom)));\n  mappNomGroupe[_nom] = IDGroupe;\n  mappIDGroupe[IDGroupe] = _nom;\n  mappGroupe[_nom].push(msg.sender);\n  mappGroupeAdmin[_nom].push(msg.sender);\n  mappGroupesForAddress[msg.sender].push(IDGroupe);\n  creerCanal(_pseudo, _nom);\n}\n\nfunction ajouterMembre(address _membre, string memory _groupe, string memory _pseudo) public\n{\n  require(mappGroupe[_groupe].length<MAX_MEMBRE);\n  require(mappPseudo[_pseudo]==address(0));\n  for (uint i=0;i<mappGroupeAdmin[_groupe].length;i++)\n  {\n      if (mappGroupeAdmin[_groupe][i] == msg.sender)\n      {\n        uint IDGroupe = uint(keccak256(bytes(_groupe)));\n        mappGroupesForAddress[_membre].push(IDGroupe);\n        mappGroupe[_groupe].push(_membre);\n        creerCanal(_pseudo, _groupe);\n        break;\n      }\n  }\n}\n\nfunction ajouterAdmin(address _membre, string memory _groupe) public\n{\n  for (uint j=0;j<mappGroupeAdmin[_groupe].length;j++)\n  {\n      if (mappGroupeAdmin[_groupe][j] == msg.sender)\n      {\n        for (uint i=0;i<mappGroupe[_groupe].length;i++)\n        {\n            if (mappGroupe[_groupe][i] == _membre)\n            {\n              mappGroupeAdmin[_groupe].push(_membre);\n              break;\n            }\n        }\n        break;\n      }\n  }\n}\n\n\nfunction creerCanal(string memory _pseudo, string memory _groupe) private\n{\n    uint channelID = uint(keccak256(bytes(_pseudo)));\n    require(mappPseudo[_pseudo]==msg.sender);\n    mappChannel[channelID].etat=EtatCanal.FERME;\n    mappChannel[channelID].pseudo=_pseudo;\n    mappChannel[channelID].groupe = _groupe;\n    mappChannel[channelID].demandeur = msg.sender;\n    mappGroupeAndChannels[_groupe].push(channelID);\n}\n\nfunction demander(uint _montant, uint _delai, string memory _pseudo, string memory _description) payable notBlackListed public\n{\n    require(_montant > MIN_AMOUNT && _montant < MAX_AMOUNT);\n    require(mappPseudo[_pseudo]==msg.sender);\n    uint min = uint(_montant / PRICE_RATIO);\n    require(msg.value >= min);\n    uint channelID = uint(keccak256(bytes(_pseudo)));\n    require(mappChannel[channelID].etat==EtatCanal.FERME);\n    mappChannel[channelID].montant=_montant;\n    mappChannel[channelID].enCours=msg.value - min;\n    mappChannel[channelID].etat=EtatCanal.ACTIF;\n    mappChannel[channelID].blocFermeture=block.number+_delai;\n    mappChannel[channelID].description = _description;\n}\n\nfunction payerCanal(string memory _groupe, string memory _pseudo, uint _token) payable notBlackListed public\n{\n  uint _channelID = uint(keccak256(bytes(_pseudo)));\n  require(mappChannel[_channelID].etat==EtatCanal.ACTIF);\n  require(mappChannel[_channelID].blocFermeture>=block.number);\n  require(mappChannel[_channelID].demandeur==msg.sender);\n  require(balanceOf(msg.sender) >= _token);\n  for (uint i=0;i<mappGroupe[_groupe].length;i++)\n  {\n      if (mappGroupe[_groupe][i] == msg.sender)\n      {\n        uint fees = uint(msg.value / PRICE_RATIO);\n        _mint(msg.sender,fees);\n        uint addValue = msg.value;\n        if (_token > 0)\n        {\n          addValue += _token;\n          _burnFrom(msg.sender,_token);\n        }\n        mappChannel[uint(keccak256(bytes(_pseudo)))].donnations += addValue;\n        addValue -= fees;\n        mappChannel[_channelID].enCours+=addValue;\n      }\n  }\n}\n\nfunction fermetureCanal(string memory _pseudo) notBlackListed public\n{\n  uint _channelID = uint(keccak256(bytes(_pseudo)));\n  require(mappChannel[_channelID].blocFermeture<=block.number);\n  require(mappChannel[_channelID].etat==EtatCanal.ACTIF);\n  require(mappChannel[_channelID].demandeur==msg.sender);\n  msg.sender.transfer(mappChannel[_channelID].enCours);\n  mappChannel[_channelID].enCours = 0;\n  mappChannel[_channelID].etat=EtatCanal.FERME;\n  mappChannel[_channelID].description=\"\";\n}\n\nfunction consommerTokens(uint _token) public\n{\n  require(balanceOf(msg.sender) >= _token);\n  msg.sender.transfer(_token);\n  _burnFrom(msg.sender,_token);\n}\n\nfunction getGroupesPerAddress() public view returns (uint[] memory)\n{\n  return mappGroupesForAddress[msg.sender];\n}\n\nfunction getMembres(string memory _groupe) public view returns (uint[] memory)\n{\nreturn mappGroupeAndChannels[_groupe];\n}\n\nfunction getNomMembre(uint _ID) public view returns (string memory)\n{\nreturn mappChannel[_ID].pseudo;\n}\n\nfunction getNomGroupe(uint _ID) public view returns (string memory)\n{\nreturn mappIDGroupe[_ID];\n}\n\n}\n",
  "sourcePath": "/Users/germaindacunha/Desktop/Alyra/project/src/contracts/Cagnottes.sol",
  "compiler": {
    "name": "solc",
    "version": "0.5.0+commit.1d4f565a.Emscripten.clang"
  },
  "schemaVersion": "3.0.2",
  "updatedAt": "2019-03-25T00:25:58.518Z",
  "devdoc": {
    "methods": {
      "_burnFrom(address,uint256)": {
        "details": "Internal function that burns an amount of the token of a given account, deducting from the sender's allowance for said account. Uses the internal burn function. Emits an Approval event (reflecting the reduced allowance).",
        "params": {
          "account": "The account whose tokens will be burnt.",
          "value": "The amount that will be burnt."
        }
      },
      "allowance(address,address)": {
        "details": "Function to check the amount of tokens that an owner allowed to a spender.",
        "params": {
          "owner": "address The address which owns the funds.",
          "spender": "address The address which will spend the funds."
        },
        "return": "A uint256 specifying the amount of tokens still available for the spender."
      },
      "approve(address,uint256)": {
        "details": "Approve the passed address to spend the specified amount of tokens on behalf of msg.sender. Beware that changing an allowance with this method brings the risk that someone may use both the old and the new allowance by unfortunate transaction ordering. One possible solution to mitigate this race condition is to first reduce the spender's allowance to 0 and set the desired value afterwards: https://github.com/ethereum/EIPs/issues/20#issuecomment-263524729",
        "params": {
          "spender": "The address which will spend the funds.",
          "value": "The amount of tokens to be spent."
        }
      },
      "balanceOf(address)": {
        "details": "Gets the balance of the specified address.",
        "params": {
          "owner": "The address to query the balance of."
        },
        "return": "A uint256 representing the amount owned by the passed address."
      },
      "decreaseAllowance(address,uint256)": {
        "details": "Decrease the amount of tokens that an owner allowed to a spender. approve should be called when _allowed[msg.sender][spender] == 0. To decrement allowed value is better to use this function to avoid 2 calls (and wait until the first transaction is mined) From MonolithDAO Token.sol Emits an Approval event.",
        "params": {
          "spender": "The address which will spend the funds.",
          "subtractedValue": "The amount of tokens to decrease the allowance by."
        }
      },
      "increaseAllowance(address,uint256)": {
        "details": "Increase the amount of tokens that an owner allowed to a spender. approve should be called when _allowed[msg.sender][spender] == 0. To increment allowed value is better to use this function to avoid 2 calls (and wait until the first transaction is mined) From MonolithDAO Token.sol Emits an Approval event.",
        "params": {
          "addedValue": "The amount of tokens to increase the allowance by.",
          "spender": "The address which will spend the funds."
        }
      },
      "totalSupply()": {
        "details": "Total number of tokens in existence"
      },
      "transfer(address,uint256)": {
        "details": "Transfer token to a specified address",
        "params": {
          "to": "The address to transfer to.",
          "value": "The amount to be transferred."
        }
      },
      "transferFrom(address,address,uint256)": {
        "details": "Transfer tokens from one address to another. Note that while this function emits an Approval event, this is not required as per the specification, and other compliant implementations may not emit the event.",
        "params": {
          "from": "address The address which you want to send tokens from",
          "to": "address The address which you want to transfer to",
          "value": "uint256 the amount of tokens to be transferred"
        }
      },
      "transferOwnership(address)": {
        "details": "Allows the current owner to transfer control of the contract to a newOwner.",
        "params": {
          "newOwner": "The address to transfer ownership to."
        }
      }
    }
  },
  "userdoc": {
    "methods": {}
  }
}