{
  "contractName": "Cagnottes",
  "abi": [
    {
      "constant": true,
      "inputs": [],
      "name": "name",
      "outputs": [
        {
          "name": "",
          "type": "string"
        }
      ],
      "payable": false,
      "stateMutability": "view",
      "type": "function",
      "signature": "0x06fdde03"
    },
    {
      "constant": false,
      "inputs": [
        {
          "name": "spender",
          "type": "address"
        },
        {
          "name": "value",
          "type": "uint256"
        }
      ],
      "name": "approve",
      "outputs": [
        {
          "name": "",
          "type": "bool"
        }
      ],
      "payable": false,
      "stateMutability": "nonpayable",
      "type": "function",
      "signature": "0x095ea7b3"
    },
    {
      "constant": true,
      "inputs": [],
      "name": "totalSupply",
      "outputs": [
        {
          "name": "",
          "type": "uint256"
        }
      ],
      "payable": false,
      "stateMutability": "view",
      "type": "function",
      "signature": "0x18160ddd"
    },
    {
      "constant": false,
      "inputs": [
        {
          "name": "from",
          "type": "address"
        },
        {
          "name": "to",
          "type": "address"
        },
        {
          "name": "value",
          "type": "uint256"
        }
      ],
      "name": "transferFrom",
      "outputs": [
        {
          "name": "",
          "type": "bool"
        }
      ],
      "payable": false,
      "stateMutability": "nonpayable",
      "type": "function",
      "signature": "0x23b872dd"
    },
    {
      "constant": true,
      "inputs": [],
      "name": "decimals",
      "outputs": [
        {
          "name": "",
          "type": "uint32"
        }
      ],
      "payable": false,
      "stateMutability": "view",
      "type": "function",
      "signature": "0x313ce567"
    },
    {
      "constant": false,
      "inputs": [
        {
          "name": "spender",
          "type": "address"
        },
        {
          "name": "addedValue",
          "type": "uint256"
        }
      ],
      "name": "increaseAllowance",
      "outputs": [
        {
          "name": "",
          "type": "bool"
        }
      ],
      "payable": false,
      "stateMutability": "nonpayable",
      "type": "function",
      "signature": "0x39509351"
    },
    {
      "constant": true,
      "inputs": [],
      "name": "LAPS_TIME_TOKEN_WITHDRAW",
      "outputs": [
        {
          "name": "",
          "type": "uint256"
        }
      ],
      "payable": false,
      "stateMutability": "view",
      "type": "function",
      "signature": "0x397ef769"
    },
    {
      "constant": true,
      "inputs": [],
      "name": "PRICE_RATIO",
      "outputs": [
        {
          "name": "",
          "type": "uint256"
        }
      ],
      "payable": false,
      "stateMutability": "view",
      "type": "function",
      "signature": "0x3c431d6a"
    },
    {
      "constant": true,
      "inputs": [],
      "name": "TIME_TOKEN_WITHDRAW",
      "outputs": [
        {
          "name": "",
          "type": "uint256"
        }
      ],
      "payable": false,
      "stateMutability": "view",
      "type": "function",
      "signature": "0x54a434fc"
    },
    {
      "constant": true,
      "inputs": [
        {
          "name": "owner",
          "type": "address"
        }
      ],
      "name": "balanceOf",
      "outputs": [
        {
          "name": "",
          "type": "uint256"
        }
      ],
      "payable": false,
      "stateMutability": "view",
      "type": "function",
      "signature": "0x70a08231"
    },
    {
      "constant": true,
      "inputs": [],
      "name": "owner",
      "outputs": [
        {
          "name": "",
          "type": "address"
        }
      ],
      "payable": false,
      "stateMutability": "view",
      "type": "function",
      "signature": "0x8da5cb5b"
    },
    {
      "constant": true,
      "inputs": [],
      "name": "symbol",
      "outputs": [
        {
          "name": "",
          "type": "string"
        }
      ],
      "payable": false,
      "stateMutability": "view",
      "type": "function",
      "signature": "0x95d89b41"
    },
    {
      "constant": false,
      "inputs": [
        {
          "name": "spender",
          "type": "address"
        },
        {
          "name": "subtractedValue",
          "type": "uint256"
        }
      ],
      "name": "decreaseAllowance",
      "outputs": [
        {
          "name": "",
          "type": "bool"
        }
      ],
      "payable": false,
      "stateMutability": "nonpayable",
      "type": "function",
      "signature": "0xa457c2d7"
    },
    {
      "constant": false,
      "inputs": [
        {
          "name": "to",
          "type": "address"
        },
        {
          "name": "value",
          "type": "uint256"
        }
      ],
      "name": "transfer",
      "outputs": [
        {
          "name": "",
          "type": "bool"
        }
      ],
      "payable": false,
      "stateMutability": "nonpayable",
      "type": "function",
      "signature": "0xa9059cbb"
    },
    {
      "constant": true,
      "inputs": [],
      "name": "MAX_AMOUNT",
      "outputs": [
        {
          "name": "",
          "type": "uint256"
        }
      ],
      "payable": false,
      "stateMutability": "view",
      "type": "function",
      "signature": "0xd40dc870"
    },
    {
      "constant": true,
      "inputs": [
        {
          "name": "owner",
          "type": "address"
        },
        {
          "name": "spender",
          "type": "address"
        }
      ],
      "name": "allowance",
      "outputs": [
        {
          "name": "",
          "type": "uint256"
        }
      ],
      "payable": false,
      "stateMutability": "view",
      "type": "function",
      "signature": "0xdd62ed3e"
    },
    {
      "constant": true,
      "inputs": [],
      "name": "MIN_AMOUNT",
      "outputs": [
        {
          "name": "",
          "type": "uint256"
        }
      ],
      "payable": false,
      "stateMutability": "view",
      "type": "function",
      "signature": "0xddbcb5fa"
    },
    {
      "constant": true,
      "inputs": [],
      "name": "MAX_MEMBRE",
      "outputs": [
        {
          "name": "",
          "type": "uint256"
        }
      ],
      "payable": false,
      "stateMutability": "view",
      "type": "function",
      "signature": "0xe50b1893"
    },
    {
      "constant": true,
      "inputs": [],
      "name": "MAX_DELAI",
      "outputs": [
        {
          "name": "",
          "type": "uint256"
        }
      ],
      "payable": false,
      "stateMutability": "view",
      "type": "function",
      "signature": "0xe6e44841"
    },
    {
      "constant": false,
      "inputs": [
        {
          "name": "newOwner",
          "type": "address"
        }
      ],
      "name": "transferOwnership",
      "outputs": [],
      "payable": false,
      "stateMutability": "nonpayable",
      "type": "function",
      "signature": "0xf2fde38b"
    },
    {
      "constant": true,
      "inputs": [],
      "name": "MAX_GROUPS",
      "outputs": [
        {
          "name": "",
          "type": "uint256"
        }
      ],
      "payable": false,
      "stateMutability": "view",
      "type": "function",
      "signature": "0xf3451b2f"
    },
    {
      "inputs": [],
      "payable": false,
      "stateMutability": "nonpayable",
      "type": "constructor",
      "signature": "constructor"
    },
    {
      "anonymous": false,
      "inputs": [
        {
          "indexed": true,
          "name": "previousOwner",
          "type": "address"
        },
        {
          "indexed": true,
          "name": "newOwner",
          "type": "address"
        }
      ],
      "name": "OwnershipTransferred",
      "type": "event",
      "signature": "0x8be0079c531659141344cd1fd0a4f28419497f9722a3daafe3b4186f6b6457e0"
    },
    {
      "anonymous": false,
      "inputs": [
        {
          "indexed": true,
          "name": "from",
          "type": "address"
        },
        {
          "indexed": true,
          "name": "to",
          "type": "address"
        },
        {
          "indexed": false,
          "name": "value",
          "type": "uint256"
        }
      ],
      "name": "Transfer",
      "type": "event",
      "signature": "0xddf252ad1be2c89b69c2b068fc378daa952ba7f163c4a11628f55a4df523b3ef"
    },
    {
      "anonymous": false,
      "inputs": [
        {
          "indexed": true,
          "name": "owner",
          "type": "address"
        },
        {
          "indexed": true,
          "name": "spender",
          "type": "address"
        },
        {
          "indexed": false,
          "name": "value",
          "type": "uint256"
        }
      ],
      "name": "Approval",
      "type": "event",
      "signature": "0x8c5be1e5ebec7d5bd14f71427d1e84f3dd0314c0f7b2291e5b200ac8c7c3b925"
    },
    {
      "constant": false,
      "inputs": [
        {
          "name": "_nom",
          "type": "string"
        },
        {
          "name": "_pseudo",
          "type": "string"
        }
      ],
      "name": "creerGroupe",
      "outputs": [],
      "payable": false,
      "stateMutability": "nonpayable",
      "type": "function",
      "signature": "0xf4343df4"
    },
    {
      "constant": false,
      "inputs": [
        {
          "name": "_membre",
          "type": "address"
        },
        {
          "name": "_groupe",
          "type": "string"
        },
        {
          "name": "_pseudo",
          "type": "string"
        }
      ],
      "name": "ajouterMembre",
      "outputs": [],
      "payable": false,
      "stateMutability": "nonpayable",
      "type": "function",
      "signature": "0x8f333341"
    },
    {
      "constant": false,
      "inputs": [
        {
          "name": "_montant",
          "type": "uint256"
        },
        {
          "name": "_delai",
          "type": "uint256"
        },
        {
          "name": "_pseudo",
          "type": "string"
        },
        {
          "name": "_description",
          "type": "string"
        },
        {
          "name": "_contrat",
          "type": "address"
        }
      ],
      "name": "demander",
      "outputs": [],
      "payable": false,
      "stateMutability": "nonpayable",
      "type": "function",
      "signature": "0x73343f1a"
    },
    {
      "constant": false,
      "inputs": [
        {
          "name": "_pseudo",
          "type": "string"
        }
      ],
      "name": "payerCanal",
      "outputs": [],
      "payable": true,
      "stateMutability": "payable",
      "type": "function",
      "signature": "0x639f8499"
    },
    {
      "constant": false,
      "inputs": [
        {
          "name": "_pseudo",
          "type": "string"
        }
      ],
      "name": "fermetureCanal",
      "outputs": [],
      "payable": false,
      "stateMutability": "nonpayable",
      "type": "function",
      "signature": "0x4dc88729"
    },
    {
      "constant": false,
      "inputs": [
        {
          "name": "_amount",
          "type": "uint256"
        }
      ],
      "name": "withdrawEther",
      "outputs": [],
      "payable": false,
      "stateMutability": "nonpayable",
      "type": "function",
      "signature": "0x3bed33ce"
    },
    {
      "constant": false,
      "inputs": [
        {
          "name": "_amount",
          "type": "uint256"
        }
      ],
      "name": "tokenToEther",
      "outputs": [],
      "payable": false,
      "stateMutability": "nonpayable",
      "type": "function",
      "signature": "0xaad7390d"
    },
    {
      "constant": false,
      "inputs": [
        {
          "name": "_laspsTime",
          "type": "uint256"
        }
      ],
      "name": "modifierLapsTimeToWithdraw",
      "outputs": [],
      "payable": false,
      "stateMutability": "nonpayable",
      "type": "function",
      "signature": "0x7ff774d8"
    },
    {
      "constant": false,
      "inputs": [
        {
          "name": "_TimeToWithdraw",
          "type": "uint256"
        }
      ],
      "name": "modifierTimeToWithdraw",
      "outputs": [],
      "payable": false,
      "stateMutability": "nonpayable",
      "type": "function",
      "signature": "0xf8efcf4f"
    },
    {
      "constant": false,
      "inputs": [
        {
          "name": "_maxGroups",
          "type": "uint256"
        }
      ],
      "name": "modifierMaxGroups",
      "outputs": [],
      "payable": false,
      "stateMutability": "nonpayable",
      "type": "function",
      "signature": "0xf420948b"
    },
    {
      "constant": false,
      "inputs": [
        {
          "name": "_maxDelai",
          "type": "uint256"
        }
      ],
      "name": "modifierDelai",
      "outputs": [],
      "payable": false,
      "stateMutability": "nonpayable",
      "type": "function",
      "signature": "0xe0c989c2"
    },
    {
      "constant": false,
      "inputs": [
        {
          "name": "_maxMembre",
          "type": "uint256"
        }
      ],
      "name": "modifierMaxMembre",
      "outputs": [],
      "payable": false,
      "stateMutability": "nonpayable",
      "type": "function",
      "signature": "0x1c064aa7"
    },
    {
      "constant": false,
      "inputs": [
        {
          "name": "_maxAmount",
          "type": "uint256"
        }
      ],
      "name": "modifierMaxAmount",
      "outputs": [],
      "payable": false,
      "stateMutability": "nonpayable",
      "type": "function",
      "signature": "0xbeaf3b0d"
    },
    {
      "constant": false,
      "inputs": [
        {
          "name": "_minAmount",
          "type": "uint256"
        }
      ],
      "name": "modifierMinAmount",
      "outputs": [],
      "payable": false,
      "stateMutability": "nonpayable",
      "type": "function",
      "signature": "0xf4839772"
    },
    {
      "constant": false,
      "inputs": [
        {
          "name": "_priceChannel",
          "type": "uint256"
        }
      ],
      "name": "modifierPriceChannel",
      "outputs": [],
      "payable": false,
      "stateMutability": "nonpayable",
      "type": "function",
      "signature": "0x370c29f9"
    },
    {
      "constant": true,
      "inputs": [],
      "name": "getGroupesPerAddress",
      "outputs": [
        {
          "name": "",
          "type": "uint256[]"
        }
      ],
      "payable": false,
      "stateMutability": "view",
      "type": "function",
      "signature": "0x1e0afe57"
    },
    {
      "constant": true,
      "inputs": [
        {
          "name": "_groupe",
          "type": "string"
        }
      ],
      "name": "getMembres",
      "outputs": [
        {
          "name": "",
          "type": "uint256[]"
        }
      ],
      "payable": false,
      "stateMutability": "view",
      "type": "function",
      "signature": "0x29c77347"
    },
    {
      "constant": true,
      "inputs": [
        {
          "name": "_ID",
          "type": "uint256"
        }
      ],
      "name": "getNomMembre",
      "outputs": [
        {
          "name": "",
          "type": "string"
        }
      ],
      "payable": false,
      "stateMutability": "view",
      "type": "function",
      "signature": "0x4b7b03cf"
    },
    {
      "constant": true,
      "inputs": [
        {
          "name": "_ID",
          "type": "uint256"
        }
      ],
      "name": "getContratCible",
      "outputs": [
        {
          "name": "",
          "type": "address"
        }
      ],
      "payable": false,
      "stateMutability": "view",
      "type": "function",
      "signature": "0x39f88c15"
    },
    {
      "constant": true,
      "inputs": [
        {
          "name": "_ID",
          "type": "uint256"
        }
      ],
      "name": "getMontant",
      "outputs": [
        {
          "name": "",
          "type": "uint256"
        }
      ],
      "payable": false,
      "stateMutability": "view",
      "type": "function",
      "signature": "0x750fa0a3"
    },
    {
      "constant": true,
      "inputs": [
        {
          "name": "_ID",
          "type": "uint256"
        }
      ],
      "name": "getBlockFermeture",
      "outputs": [
        {
          "name": "",
          "type": "uint256"
        }
      ],
      "payable": false,
      "stateMutability": "view",
      "type": "function",
      "signature": "0xdf40e329"
    },
    {
      "constant": true,
      "inputs": [
        {
          "name": "_ID",
          "type": "uint256"
        }
      ],
      "name": "getEncours",
      "outputs": [
        {
          "name": "",
          "type": "uint256"
        }
      ],
      "payable": false,
      "stateMutability": "view",
      "type": "function",
      "signature": "0x4c9a9850"
    },
    {
      "constant": true,
      "inputs": [
        {
          "name": "_ID",
          "type": "uint256"
        }
      ],
      "name": "getDonnations",
      "outputs": [
        {
          "name": "",
          "type": "uint256"
        }
      ],
      "payable": false,
      "stateMutability": "view",
      "type": "function",
      "signature": "0x27f128b3"
    },
    {
      "constant": true,
      "inputs": [
        {
          "name": "_ID",
          "type": "uint256"
        }
      ],
      "name": "getDescription",
      "outputs": [
        {
          "name": "",
          "type": "string"
        }
      ],
      "payable": false,
      "stateMutability": "view",
      "type": "function",
      "signature": "0x4925ec55"
    },
    {
      "constant": true,
      "inputs": [
        {
          "name": "_ID",
          "type": "uint256"
        }
      ],
      "name": "getTime",
      "outputs": [
        {
          "name": "",
          "type": "uint256"
        }
      ],
      "payable": false,
      "stateMutability": "view",
      "type": "function",
      "signature": "0x73627826"
    },
    {
      "constant": true,
      "inputs": [
        {
          "name": "_ID",
          "type": "uint256"
        }
      ],
      "name": "getNomGroupe",
      "outputs": [
        {
          "name": "",
          "type": "string"
        }
      ],
      "payable": false,
      "stateMutability": "view",
      "type": "function",
      "signature": "0x41522997"
    },
    {
      "constant": true,
      "inputs": [],
      "name": "getOwnedGroupe",
      "outputs": [
        {
          "name": "",
          "type": "uint256[]"
        }
      ],
      "payable": false,
      "stateMutability": "view",
      "type": "function",
      "signature": "0xe09c8136"
    },
    {
      "constant": true,
      "inputs": [
        {
          "name": "groupe",
          "type": "string"
        }
      ],
      "name": "getOwnPseudo",
      "outputs": [
        {
          "name": "",
          "type": "string"
        }
      ],
      "payable": false,
      "stateMutability": "view",
      "type": "function",
      "signature": "0xaa4e8fd5"
    }
  ],
  "bytecode": "0x608060405234801561001057600080fd5b5060038054600160a060020a031916331790556032601255600a600d5560c8600e556509184e72a000600f5561271060105560646011556402540be400601355620186a0601455612948806100666000396000f3fe6080604052600436106102505763ffffffff7c010000000000000000000000000000000000000000000000000000000060003504166306fdde038114610255578063095ea7b3146102df57806318160ddd1461032c5780631c064aa7146103535780631e0afe571461037f57806323b872dd146103e457806327f128b31461042757806329c7734714610451578063313ce56714610504578063370c29f914610532578063395093511461055c578063397ef7691461059557806339f88c15146105aa5780633bed33ce146105f05780633c431d6a1461061a578063415229971461062f5780634925ec55146106595780634b7b03cf146106835780634c9a9850146106ad5780634dc88729146106d757806354a434fc1461078a578063639f84991461079f57806370a082311461084557806373343f1a1461087857806373627826146109c9578063750fa0a3146109f35780637ff774d814610a1d5780638da5cb5b14610a475780638f33334114610a5c57806395d89b4114610ba6578063a457c2d714610bbb578063a9059cbb14610bf4578063aa4e8fd514610c2d578063aad7390d14610ce0578063beaf3b0d14610d0a578063d40dc87014610d34578063dd62ed3e14610d49578063ddbcb5fa14610d84578063df40e32914610d99578063e09c813614610dc3578063e0c989c214610dd8578063e50b189314610e02578063e6e4484114610e17578063f2fde38b14610e2c578063f3451b2f14610e5f578063f420948b14610e74578063f4343df414610e9e578063f483977214610fd8578063f8efcf4f14611002575b600080fd5b34801561026157600080fd5b5061026a61102c565b6040805160208082528351818301528351919283929083019185019080838360005b838110156102a457818101518382015260200161028c565b50505050905090810190601f1680156102d15780820380516001836020036101000a031916815260200191505b509250505060405180910390f35b3480156102eb57600080fd5b506103186004803603604081101561030257600080fd5b50600160a060020a038135169060200135611063565b604080519115158252519081900360200190f35b34801561033857600080fd5b50610341611079565b60408051918252519081900360200190f35b34801561035f57600080fd5b5061037d6004803603602081101561037657600080fd5b5035611080565b005b34801561038b57600080fd5b506103946110b9565b60408051602080825283518183015283519192839290830191858101910280838360005b838110156103d05781810151838201526020016103b8565b505050509050019250505060405180910390f35b3480156103f057600080fd5b506103186004803603606081101561040757600080fd5b50600160a060020a0381358116916020810135909116906040013561111a565b34801561043357600080fd5b506103416004803603602081101561044a57600080fd5b5035611171565b34801561045d57600080fd5b506103946004803603602081101561047457600080fd5b81019060208101813564010000000081111561048f57600080fd5b8201836020820111156104a157600080fd5b803590602001918460018302840111640100000000831117156104c357600080fd5b91908080601f016020809104026020016040519081016040528093929190818152602001838380828437600092019190915250929550611189945050505050565b34801561051057600080fd5b50610519611237565b6040805163ffffffff9092168252519081900360200190f35b34801561053e57600080fd5b5061037d6004803603602081101561055557600080fd5b503561123c565b34801561056857600080fd5b506103186004803603604081101561057f57600080fd5b50600160a060020a038135169060200135611266565b3480156105a157600080fd5b506103416112a2565b3480156105b657600080fd5b506105d4600480360360208110156105cd57600080fd5b50356112a8565b60408051600160a060020a039092168252519081900360200190f35b3480156105fc57600080fd5b5061037d6004803603602081101561061357600080fd5b50356112c6565b34801561062657600080fd5b5061034161130e565b34801561063b57600080fd5b5061026a6004803603602081101561065257600080fd5b5035611314565b34801561066557600080fd5b5061026a6004803603602081101561067c57600080fd5b50356113ab565b34801561068f57600080fd5b5061026a600480360360208110156106a657600080fd5b5035611418565b3480156106b957600080fd5b50610341600480360360208110156106d057600080fd5b5035611499565b3480156106e357600080fd5b5061037d600480360360208110156106fa57600080fd5b81019060208101813564010000000081111561071557600080fd5b82018360208201111561072757600080fd5b8035906020019184600183028401116401000000008311171561074957600080fd5b91908080601f0160208091040260200160405190810160405280939291908181526020018383808284376000920191909152509295506114ae945050505050565b34801561079657600080fd5b506103416115b8565b61037d600480360360208110156107b557600080fd5b8101906020810181356401000000008111156107d057600080fd5b8201836020820111156107e257600080fd5b8035906020019184600183028401116401000000008311171561080457600080fd5b91908080601f0160208091040260200160405190810160405280939291908181526020018383808284376000920191909152509295506115be945050505050565b34801561085157600080fd5b506103416004803603602081101561086857600080fd5b5035600160a060020a03166116c4565b34801561088457600080fd5b5061037d600480360360a081101561089b57600080fd5b8135916020810135918101906060810160408201356401000000008111156108c257600080fd5b8201836020820111156108d457600080fd5b803590602001918460018302840111640100000000831117156108f657600080fd5b91908080601f016020809104026020016040519081016040528093929190818152602001838380828437600092019190915250929594936020810193503591505064010000000081111561094957600080fd5b82018360208201111561095b57600080fd5b8035906020019184600183028401116401000000008311171561097d57600080fd5b91908080601f01602080910402602001604051908101604052809392919081815260200183838082843760009201919091525092955050509035600160a060020a031691506116df9050565b3480156109d557600080fd5b50610341600480360360208110156109ec57600080fd5b5035611813565b3480156109ff57600080fd5b5061034160048036036020811015610a1657600080fd5b503561184e565b348015610a2957600080fd5b5061037d60048036036020811015610a4057600080fd5b5035611863565b348015610a5357600080fd5b506105d461187f565b348015610a6857600080fd5b5061037d60048036036060811015610a7f57600080fd5b600160a060020a038235169190810190604081016020820135640100000000811115610aaa57600080fd5b820183602082011115610abc57600080fd5b80359060200191846001830284011164010000000083111715610ade57600080fd5b91908080601f0160208091040260200160405190810160405280939291908181526020018383808284376000920191909152509295949360208101935035915050640100000000811115610b3157600080fd5b820183602082011115610b4357600080fd5b80359060200191846001830284011164010000000083111715610b6557600080fd5b91908080601f01602080910402602001604051908101604052809392919081815260200183838082843760009201919091525092955061188e945050505050565b348015610bb257600080fd5b5061026a611b46565b348015610bc757600080fd5b5061031860048036036040811015610bde57600080fd5b50600160a060020a038135169060200135611b7d565b348015610c0057600080fd5b5061031860048036036040811015610c1757600080fd5b50600160a060020a038135169060200135611bb9565b348015610c3957600080fd5b5061026a60048036036020811015610c5057600080fd5b810190602081018135640100000000811115610c6b57600080fd5b820183602082011115610c7d57600080fd5b80359060200191846001830284011164010000000083111715610c9f57600080fd5b91908080601f016020809104026020016040519081016040528093929190818152602001838380828437600092019190915250929550611bc6945050505050565b348015610cec57600080fd5b5061037d60048036036020811015610d0357600080fd5b5035611e16565b348015610d1657600080fd5b5061037d60048036036020811015610d2d57600080fd5b5035611e7b565b348015610d4057600080fd5b50610341611ebb565b348015610d5557600080fd5b5061034160048036036040811015610d6c57600080fd5b50600160a060020a0381358116916020013516611ec1565b348015610d9057600080fd5b50610341611eec565b348015610da557600080fd5b5061034160048036036020811015610dbc57600080fd5b5035611ef2565b348015610dcf57600080fd5b50610394611f07565b348015610de457600080fd5b5061037d60048036036020811015610dfb57600080fd5b5035611f66565b348015610e0e57600080fd5b50610341611fa2565b348015610e2357600080fd5b50610341611fa8565b348015610e3857600080fd5b5061037d60048036036020811015610e4f57600080fd5b5035600160a060020a0316611fae565b348015610e6b57600080fd5b50610341612036565b348015610e8057600080fd5b5061037d60048036036020811015610e9757600080fd5b503561203c565b348015610eaa57600080fd5b5061037d60048036036040811015610ec157600080fd5b810190602081018135640100000000811115610edc57600080fd5b820183602082011115610eee57600080fd5b80359060200191846001830284011164010000000083111715610f1057600080fd5b91908080601f0160208091040260200160405190810160405280939291908181526020018383808284376000920191909152509295949360208101935035915050640100000000811115610f6357600080fd5b820183602082011115610f7557600080fd5b80359060200191846001830284011164010000000083111715610f9757600080fd5b91908080601f016020809104026020016040519081016040528093929190818152602001838380828437600092019190915250929550612076945050505050565b348015610fe457600080fd5b5061037d60048036036020811015610ffb57600080fd5b50356123b8565b34801561100e57600080fd5b5061037d6004803603602081101561102557600080fd5b50356123f5565b60408051808201909152600881527f67696d69636f696e000000000000000000000000000000000000000000000000602082015281565b6000611070338484612411565b50600192915050565b6002545b90565b600354600160a060020a0316331461109757600080fd5b600581101580156110a9575060c88111155b15156110b457600080fd5b600d55565b3360009081526005602090815260409182902080548351818402810184019094528084526060939283018282801561111057602002820191906000526020600020905b8154815260200190600101908083116110fc575b5050505050905090565b600061112784848461249d565b600160a060020a038416600090815260016020908152604080832033808552925290912054611167918691611162908663ffffffff61256a16565b612411565b5060019392505050565b6000818152600460205260409020600601545b919050565b60606006826040518082805190602001908083835b602083106111bd5780518252601f19909201916020918201910161119e565b51815160209384036101000a60001901801990921691161790529201948552506040805194859003820185208054808402870184019092528186529350915083018282801561122b57602002820191906000526020600020905b815481526020019060010190808311611217575b50505050509050919050565b601281565b600354600160a060020a0316331461125357600080fd5b606481101561126157600080fd5b601155565b336000818152600160209081526040808320600160a060020a03871684529091528120549091611070918590611162908663ffffffff61257c16565b60145481565b600090815260046020526040902060080154600160a060020a031690565b600354600160a060020a031633146112dd57600080fd5b604051339082156108fc029083906000818181858888f1935050505015801561130a573d6000803e3d6000fd5b5050565b60115481565b60008181526007602090815260409182902080548351601f600260001961010060018616150201909316929092049182018490048402810184019094528084526060939283018282801561122b5780601f1061137e5761010080835404028352916020019161122b565b820191906000526020600020905b81548152906001019060200180831161138c5750939695505050505050565b60008181526004602090815260409182902060070180548351601f600260001961010060018616150201909316929092049182018490048402810184019094528084526060939283018282801561122b5780601f1061137e5761010080835404028352916020019161122b565b6060600460008381526020019081526020016000206001018054600181600116156101000203166002900480601f01602080910402602001604051908101604052809291908181526020018280546001816001161561010002031660029004801561122b5780601f1061137e5761010080835404028352916020019161122b565b60009081526004602052604090206005015490565b80516020808301919091206000818152600492839052604090209091015460ff1615156001146114dd57600080fd5b600081815260046020526040902054600160a060020a0316331461150057600080fd5b600081815260046020526040808220600501549051339282156108fc02929190818181858888f1935050505015801561153d573d6000803e3d6000fd5b506000818152600460208181526040808420600581018590556002810185905560038101859055808401805460ff19169055815180840192839052858152948690529290915291516115959260079092019190612884565b5060009081526004602052604090206008018054600160a060020a031916905550565b60135481565b80516020808301919091206000818152600490925260409091206005810154600290910154116115ed57600080fd5b6000818152600460208190526040909120015460ff16151560011461161157600080fd5b60008181526004602052604090206003015443111561162f57600080fd5b60006011543481151561163e57fe5b04905061165a33611655348463ffffffff61256a16565b612592565b82516020808501919091206000908152600490915260409020600601543490611689908263ffffffff61257c16565b5061169a818363ffffffff61256a16565b506000838152600460205260409020600501546116bd908263ffffffff61257c16565b5050505050565b600160a060020a031660009081526020819052604090205490565b33600160a060020a0316600c846040518082805190602001908083835b6020831061171b5780518252601f1990920191602091820191016116fc565b51815160209384036101000a6000190180199092169116179052920194855250604051938490030190922054600160a060020a0316929092149150611761905057600080fd5b600e5484111561177057600080fd5b82516020808501919091206000818152600492839052604090209091015460ff161561179b57600080fd5b600081815260046020818152604090922060028101899055908101805460ff19166001179055438701600382015584516117dd92600790920191860190612884565b5060009081526004602052604090206008018054600160a060020a031916600160a060020a039290921691909117905550505050565b600081815260046020526040812060030154431061183357506000611184565b50600081815260046020526040902060030154439003611184565b60009081526004602052604090206002015490565b600354600160a060020a0316331461187a57600080fd5b601455565b600354600160a060020a031681565b600d54600b836040518082805190602001908083835b602083106118c35780518252601f1990920191602091820191016118a4565b51815160209384036101000a6000190180199092169116179052920194855250604051938490030190922054929092109150611900905057600080fd5b6000600160a060020a0316600c826040518082805190602001908083835b6020831061193d5780518252601f19909201916020918201910161191e565b51815160209384036101000a6000190180199092169116179052920194855250604051938490030190922054600160a060020a0316929092149150611983905057600080fd5b33600160a060020a03166009836040518082805190602001908083835b602083106119bf5780518252601f1990920191602091820191016119a0565b51815160209384036101000a6000190180199092169116179052920194855250604051938490030190922054600160a060020a0316929092149150611a05905057600080fd5b82600c826040518082805190602001908083835b60208310611a385780518252601f199092019160209182019101611a19565b51815160209384036101000a60001901801990921691161790529201948552506040805194859003820185208054600160a060020a031916600160a060020a039788161790558751888301908120968a166000908152600584529182208054600181018255908352929091209091018590558651600b9488945092508291908083835b60208310611ada5780518252601f199092019160209182019101611abb565b51815160209384036101000a6000190180199092169116179052920194855250604051938490038101909320805460018101825560009182529390209092018054600160a060020a031916600160a060020a03881617905550611b40905082848661263c565b50505050565b60408051808201909152600381527f474d430000000000000000000000000000000000000000000000000000000000602082015281565b336000818152600160209081526040808320600160a060020a03871684529091528120549091611070918590611162908663ffffffff61256a16565b600061107033848461249d565b606060005b6006836040518082805190602001908083835b60208310611bfd5780518252601f199092019160209182019101611bde565b51815160209384036101000a60001901801990921691161790529201948552506040519384900301909220548310159150611e1090505733600160a060020a0316600460006006866040518082805190602001908083835b60208310611c745780518252601f199092019160209182019101611c55565b51815160209384036101000a6000190180199092169116179052920194855250604051938490030190922080549092508691508110611caf57fe5b60009182526020808320909101548352820192909252604001902054600160a060020a03161415611e0857600460006006856040518082805190602001908083835b60208310611d105780518252601f199092019160209182019101611cf1565b51815160209384036101000a6000190180199092169116179052920194855250604051938490030190922080549092508591508110611d4b57fe5b906000526020600020015481526020019081526020016000206001018054600181600116156101000203166002900480601f016020809104026020016040519081016040528092919081815260200182805460018160011615610100020316600290048015611dfb5780601f10611dd057610100808354040283529160200191611dfb565b820191906000526020600020905b815481529060010190602001808311611dde57829003601f168201915b5050505050915050611184565b600101611bcb565b50919050565b600060135443811515611e2557fe5b0610158015611e43575060145460135443811515611e3f57fe5b0611155b1515611e4e57600080fd5b80611e58336116c4565b1015611e6357600080fd5b611e6d3382611bb9565b50611e783382612796565b50565b600354600160a060020a03163314611e9257600080fd5b629896808110158015611eab5750655af3107a40008111155b1515611eb657600080fd5b600f55565b600f5481565b600160a060020a03918216600090815260016020908152604080832093909416825291909152205490565b60105481565b60009081526004602052604090206003015490565b3360009081526008602090815260409182902080548351818402810184019094528084526060939283018282801561111057602002820191906000526020600020908154815260200190600101908083116110fc575050505050905090565b600354600160a060020a03163314611f7d57600080fd5b600a8110158015611f925750633b9aca008111155b1515611f9d57600080fd5b600e55565b600d5481565b600e5481565b600354600160a060020a03163314611fc557600080fd5b600160a060020a0381161515611fda57600080fd5b600354604051600160a060020a038084169216907f8be0079c531659141344cd1fd0a4f28419497f9722a3daafe3b4186f6b6457e090600090a360038054600160a060020a031916600160a060020a0392909216919091179055565b60125481565b600354600160a060020a0316331461205357600080fd5b600a811015801561206657506103e88111155b151561207157600080fd5b601255565b600a826040518082805190602001908083835b602083106120a85780518252601f199092019160209182019101612089565b51815160209384036101000a60001901801990921691161790529201948552506040519384900301909220541591506120e2905057600080fd5b60125433600090815260056020526040902054106120ff57600080fd5b6000600160a060020a0316600c826040518082805190602001908083835b6020831061213c5780518252601f19909201916020918201910161211d565b51815160209384036101000a6000190180199092169116179052920194855250604051938490030190922054600160a060020a0316929092149150612182905057600080fd5b33600c826040518082805190602001908083835b602083106121b55780518252601f199092019160209182019101612196565b51815160209384036101000a600019018019909216911617905292019485525060405193849003810184208054600160a060020a031916600160a060020a03969096169590951790945550508351918401828120928392600a9287928291908083835b602083106122375780518252601f199092019160209182019101612218565b51815160209384036101000a6000190180199092169116179052920194855250604051938490038101842094909455505084513392600992879290918291908401908083835b6020831061229c5780518252601f19909201916020918201910161227d565b51815160209384036101000a6000190180199092169116179052920194855250604080519485900382019094208054600160a060020a031916600160a060020a039690961695909517909455505060008381526007835220845161230292860190612884565b50600b836040518082805190602001908083835b602083106123355780518252601f199092019160209182019101612316565b51815160209384036101000a6000190180199092169116179052920194855250604080519485900382019094208054600180820183556000928352838320909101805433600160a060020a031990911681179091558083526005845295822080549182018155825291902001849055506123b391849150859061263c565b505050565b600354600160a060020a031633146123cf57600080fd5b620186a081101580156123e55750620f42408111155b15156123f057600080fd5b601055565b600354600160a060020a0316331461240c57600080fd5b601355565b600160a060020a038216151561242657600080fd5b600160a060020a038316151561243b57600080fd5b600160a060020a03808416600081815260016020908152604080832094871680845294825291829020859055815185815291517f8c5be1e5ebec7d5bd14f71427d1e84f3dd0314c0f7b2291e5b200ac8c7c3b9259281900390910190a3505050565b600160a060020a03821615156124b257600080fd5b600160a060020a0383166000908152602081905260409020546124db908263ffffffff61256a16565b600160a060020a038085166000908152602081905260408082209390935590841681522054612510908263ffffffff61257c16565b600160a060020a038084166000818152602081815260409182902094909455805185815290519193928716927fddf252ad1be2c89b69c2b068fc378daa952ba7f163c4a11628f55a4df523b3ef92918290030190a3505050565b60008282111561257657fe5b50900390565b60008282018381101561258b57fe5b9392505050565b600160a060020a03821615156125a757600080fd5b6002546125ba908263ffffffff61257c16565b600255600160a060020a0382166000908152602081905260409020546125e6908263ffffffff61257c16565b600160a060020a0383166000818152602081815260408083209490945583518581529351929391927fddf252ad1be2c89b69c2b068fc378daa952ba7f163c4a11628f55a4df523b3ef9281900390910190a35050565b8251602084018181206040519092600160a060020a03851692600c928892909182918083835b602083106126815780518252601f199092019160209182019101612662565b51815160209384036101000a6000190180199092169116179052920194855250604051938490030190922054600160a060020a03169290921491506126c7905057600080fd5b6000818152600460208181526040909220908101805460ff1916905585516126f792600190920191870190612884565b506000818152600460209081526040918290208054600160a060020a031916331790559051845160069286929182918401908083835b6020831061274c5780518252601f19909201916020918201910161272d565b51815160209384036101000a600019018019909216911617905292019485525060405193849003810190932080546001810182556000918252939020909201929092555050505050565b6127a082826127db565b600160a060020a03821660009081526001602090815260408083203380855292529091205461130a918491611162908563ffffffff61256a16565b600160a060020a03821615156127f057600080fd5b600254612803908263ffffffff61256a16565b600255600160a060020a03821660009081526020819052604090205461282f908263ffffffff61256a16565b600160a060020a038316600081815260208181526040808320949094558351858152935191937fddf252ad1be2c89b69c2b068fc378daa952ba7f163c4a11628f55a4df523b3ef929081900390910190a35050565b828054600181600116156101000203166002900490600052602060002090601f016020900481019282601f106128c557805160ff19168380011785556128f2565b828001600101855582156128f2579182015b828111156128f25782518255916020019190600101906128d7565b506128fe929150612902565b5090565b61107d91905b808211156128fe576000815560010161290856fea165627a7a72305820ca9f01f884cb005c61351bd770a00e911ec1d3808882243faa6c45a5a6a322190029",
  "source": "pragma solidity ^0.5.0;\n\nimport \"./Gimicoin.sol\";\nimport \"./Ownable.sol\";\n\ncontract Cagnottes is Gimicoin, Ownable{\n\nmapping (uint => channel) internal mappChannel;\nmapping (address => uint[]) internal mappGroupesForAddress;\nmapping (string => uint[]) internal mappGroupeAndChannels;\nmapping (uint => string) internal mappIDGroupe;\nmapping (address => uint[]) internal mappOwnedGroup;\n\nmapping (string => address) private mappGroupeOwner;\nmapping (string => uint) private mappNomGroupe;\nmapping (string => address[]) private mappGroupe;\nmapping (string => address) private mappPseudo;\n\nuint public MAX_MEMBRE;\nuint public MAX_DELAI;\nuint public MAX_AMOUNT;\nuint public MIN_AMOUNT;\nuint public PRICE_RATIO;\nuint public MAX_GROUPS;\nuint public TIME_TOKEN_WITHDRAW;\nuint public LAPS_TIME_TOKEN_WITHDRAW;\n\nstruct channel\n{\n  address demandeur;\n  string pseudo;\n  uint montant;\n  uint blocFermeture;\n  bool actif;\n  uint enCours;\n  uint donnations;\n  string description;\n  address contratCible;\n}\n\nconstructor() public\n{\n  MAX_GROUPS = 50;\n  MAX_MEMBRE = 10;\n  MAX_DELAI = 200;\n  MAX_AMOUNT = 10000000000000;\n  MIN_AMOUNT = 10000;\n  PRICE_RATIO = 100;\n  TIME_TOKEN_WITHDRAW = 10000000000;\n  LAPS_TIME_TOKEN_WITHDRAW = 100000;\n}\n\nfunction creerGroupe(string memory _nom, string memory _pseudo) public\n{\n  require(mappNomGroupe[_nom] == 0);\n  require(mappGroupesForAddress[msg.sender].length < MAX_GROUPS);\n  require(mappPseudo[_pseudo] == address(0));\n  mappPseudo[_pseudo] = msg.sender;\n  uint IDGroupe = uint(keccak256(bytes(_nom)));\n  mappNomGroupe[_nom] = IDGroupe;\n  mappGroupeOwner[_nom] = msg.sender;\n  mappIDGroupe[IDGroupe] = _nom;\n  mappGroupe[_nom].push(msg.sender);\n  mappGroupesForAddress[msg.sender].push(IDGroupe);\n  creerCanal(_pseudo, _nom, msg.sender);\n}\n\nfunction ajouterMembre(address _membre, string memory _groupe, string memory _pseudo) public\n{\n  require(mappGroupe[_groupe].length < MAX_MEMBRE);\n  require(mappPseudo[_pseudo] == address(0));\n  require(mappGroupeOwner[_groupe] == msg.sender);\n  mappPseudo[_pseudo] = _membre;\n  uint IDGroupe = uint(keccak256(bytes(_groupe)));\n  mappGroupesForAddress[_membre].push(IDGroupe);\n  mappGroupe[_groupe].push(_membre);\n  creerCanal(_pseudo, _groupe, _membre);\n}\n\nfunction creerCanal(string memory _pseudo, string memory _groupe, address _membre) private\n{\n  uint channelID = uint(keccak256(bytes(_pseudo)));\n  require(mappPseudo[_pseudo] == _membre);\n  mappChannel[channelID].actif = false;\n  mappChannel[channelID].pseudo = _pseudo;\n  mappChannel[channelID].demandeur = msg.sender;\n  mappGroupeAndChannels[_groupe].push(channelID);\n}\n\nfunction demander(uint _montant, uint _delai, string memory _pseudo, string memory _description, address _contrat) public\n{\n  require(mappPseudo[_pseudo] == msg.sender);\n  require(_delai <= MAX_DELAI);\n  uint channelID = uint(keccak256(bytes(_pseudo)));\n  require(mappChannel[channelID].actif == false);\n  mappChannel[channelID].montant = _montant;\n  mappChannel[channelID].actif = true;\n  mappChannel[channelID].blocFermeture = block.number+_delai;\n  mappChannel[channelID].description = _description;\n  mappChannel[channelID].contratCible = _contrat;\n}\n\nfunction payerCanal(string memory _pseudo) public payable\n{\n  uint _channelID = uint(keccak256(bytes(_pseudo)));\n  require(mappChannel[_channelID].montant > mappChannel[_channelID].enCours);\n  require(mappChannel[_channelID].actif == true);\n  require(mappChannel[_channelID].blocFermeture >= block.number);\n  uint fees = uint(msg.value / PRICE_RATIO);\n  _mint(msg.sender,msg.value.sub(fees));\n  uint addValue = msg.value;\n  mappChannel[uint(keccak256(bytes(_pseudo)))].donnations.add(addValue);\n  addValue.sub(fees);\n  mappChannel[_channelID].enCours.add(addValue);\n}\n\nfunction fermetureCanal(string memory _pseudo) public\n{\n  uint _channelID = uint(keccak256(bytes(_pseudo)));\n  require(mappChannel[_channelID].actif == true);\n  require(mappChannel[_channelID].demandeur == msg.sender);\n  msg.sender.transfer(mappChannel[_channelID].enCours);\n  mappChannel[_channelID].enCours = 0;\n  mappChannel[_channelID].montant = 0;\n  mappChannel[_channelID].blocFermeture = 0;\n  mappChannel[_channelID].actif = false;\n  mappChannel[_channelID].description = \"\";\n  mappChannel[_channelID].contratCible = address(0);\n}\n\nfunction withdrawEther(uint _amount) public onlyOwner\n{\n  msg.sender.transfer(_amount);\n}\n\nfunction tokenToEther(uint _amount) public\n{\n  require(block.number % TIME_TOKEN_WITHDRAW  >= 0 && block.number % TIME_TOKEN_WITHDRAW <= LAPS_TIME_TOKEN_WITHDRAW);\n  require(balanceOf(msg.sender) >= _amount);\n  transfer(msg.sender,_amount);\n  _burnFrom(msg.sender,_amount);\n}\n\nfunction modifierLapsTimeToWithdraw(uint _laspsTime) public onlyOwner\n{\n  LAPS_TIME_TOKEN_WITHDRAW = _laspsTime;\n}\n\nfunction modifierTimeToWithdraw(uint _TimeToWithdraw) public onlyOwner\n{\n  TIME_TOKEN_WITHDRAW = _TimeToWithdraw;\n}\n\nfunction modifierMaxGroups(uint _maxGroups) public onlyOwner\n{\n  require(_maxGroups >= 10 && _maxGroups <= 1000);\n  MAX_GROUPS = _maxGroups;\n}\n\nfunction modifierDelai(uint _maxDelai) public onlyOwner\n{\n  require(_maxDelai >= 10 && _maxDelai <= 1000000000);\n  MAX_DELAI = _maxDelai;\n}\n\nfunction modifierMaxMembre(uint _maxMembre) public onlyOwner\n{\n  require(_maxMembre >= 5 && _maxMembre <= 200);\n  MAX_MEMBRE = _maxMembre;\n}\n\nfunction modifierMaxAmount(uint _maxAmount) public onlyOwner\n{\n  require(_maxAmount >= 10000000 && _maxAmount <= 100000000000000);\n  MAX_AMOUNT = _maxAmount;\n}\n\nfunction modifierMinAmount(uint _minAmount) public onlyOwner\n{\n  require(_minAmount >= 100000 && _minAmount <= 1000000);\n  MIN_AMOUNT = _minAmount;\n}\n\nfunction modifierPriceChannel(uint _priceChannel) public onlyOwner\n{\n  require(_priceChannel >= 100);\n  PRICE_RATIO = _priceChannel;\n}\n\nfunction getGroupesPerAddress() public view returns (uint[] memory)\n{\n  return mappGroupesForAddress[msg.sender];\n}\n\nfunction getMembres(string memory _groupe) public view returns (uint[] memory)\n{\n  return mappGroupeAndChannels[_groupe];\n}\n\nfunction getNomMembre(uint _ID) public view returns (string memory)\n{\n  return mappChannel[_ID].pseudo;\n}\n\nfunction getContratCible(uint _ID) public view returns (address)\n{\n  return mappChannel[_ID].contratCible;\n}\n\nfunction getMontant(uint _ID) public view returns (uint)\n{\n  return mappChannel[_ID].montant;\n}\n\nfunction getBlockFermeture(uint _ID) public view returns (uint)\n{\n  return mappChannel[_ID].blocFermeture;\n}\n\nfunction getEncours(uint _ID) public view returns (uint)\n{\n  return mappChannel[_ID].enCours;\n}\n\nfunction getDonnations(uint _ID) public view returns (uint)\n{\n  return mappChannel[_ID].donnations;\n}\n\nfunction getDescription(uint _ID) public view returns (string memory)\n{\n  return mappChannel[_ID].description;\n}\n\nfunction getTime(uint _ID) public view returns (uint)\n{\n  if (mappChannel[_ID].blocFermeture <= block.number)\n  {\n    return 0;\n  }\n  else return mappChannel[_ID].blocFermeture - block.number;\n}\n\nfunction getNomGroupe(uint _ID) public view returns (string memory)\n{\n  return mappIDGroupe[_ID];\n}\n\nfunction getOwnedGroupe() public view returns (uint[] memory)\n{\n  return mappOwnedGroup[msg.sender];\n}\n\nfunction getOwnPseudo(string memory groupe) public view returns (string memory)\n{\n  for (uint i = 0 ; i < mappGroupeAndChannels[groupe].length; i ++)\n  {\n    if (mappChannel[mappGroupeAndChannels[groupe][i]].demandeur == msg.sender)\n    {\n      return mappChannel[mappGroupeAndChannels[groupe][i]].pseudo;\n    }\n  }\n}\n\n}\n",
  "sourcePath": "/Users/germaindacunha/Desktop/Alyra/project/src/contracts/Cagnottes.sol",
  "compiler": {
    "name": "solc",
    "version": "0.5.0+commit.1d4f565a.Emscripten.clang"
  },
  "schemaVersion": "3.0.2",
  "updatedAt": "2019-03-27T00:08:02.790Z",
  "devdoc": {
    "methods": {
      "allowance(address,address)": {
        "details": "Function to check the amount of tokens that an owner allowed to a spender.",
        "params": {
          "owner": "address The address which owns the funds.",
          "spender": "address The address which will spend the funds."
        },
        "return": "A uint256 specifying the amount of tokens still available for the spender."
      },
      "approve(address,uint256)": {
        "details": "Approve the passed address to spend the specified amount of tokens on behalf of msg.sender. Beware that changing an allowance with this method brings the risk that someone may use both the old and the new allowance by unfortunate transaction ordering. One possible solution to mitigate this race condition is to first reduce the spender's allowance to 0 and set the desired value afterwards: https://github.com/ethereum/EIPs/issues/20#issuecomment-263524729",
        "params": {
          "spender": "The address which will spend the funds.",
          "value": "The amount of tokens to be spent."
        }
      },
      "balanceOf(address)": {
        "details": "Gets the balance of the specified address.",
        "params": {
          "owner": "The address to query the balance of."
        },
        "return": "A uint256 representing the amount owned by the passed address."
      },
      "decreaseAllowance(address,uint256)": {
        "details": "Decrease the amount of tokens that an owner allowed to a spender. approve should be called when _allowed[msg.sender][spender] == 0. To decrement allowed value is better to use this function to avoid 2 calls (and wait until the first transaction is mined) From MonolithDAO Token.sol Emits an Approval event.",
        "params": {
          "spender": "The address which will spend the funds.",
          "subtractedValue": "The amount of tokens to decrease the allowance by."
        }
      },
      "increaseAllowance(address,uint256)": {
        "details": "Increase the amount of tokens that an owner allowed to a spender. approve should be called when _allowed[msg.sender][spender] == 0. To increment allowed value is better to use this function to avoid 2 calls (and wait until the first transaction is mined) From MonolithDAO Token.sol Emits an Approval event.",
        "params": {
          "addedValue": "The amount of tokens to increase the allowance by.",
          "spender": "The address which will spend the funds."
        }
      },
      "totalSupply()": {
        "details": "Total number of tokens in existence"
      },
      "transfer(address,uint256)": {
        "details": "Transfer token to a specified address",
        "params": {
          "to": "The address to transfer to.",
          "value": "The amount to be transferred."
        }
      },
      "transferFrom(address,address,uint256)": {
        "details": "Transfer tokens from one address to another. Note that while this function emits an Approval event, this is not required as per the specification, and other compliant implementations may not emit the event.",
        "params": {
          "from": "address The address which you want to send tokens from",
          "to": "address The address which you want to transfer to",
          "value": "uint256 the amount of tokens to be transferred"
        }
      },
      "transferOwnership(address)": {
        "details": "Allows the current owner to transfer control of the contract to a newOwner.",
        "params": {
          "newOwner": "The address to transfer ownership to."
        }
      }
    }
  },
  "userdoc": {
    "methods": {}
  }
}