{
  "contractName": "Cagnottes",
  "abi": [
    {
      "constant": true,
      "inputs": [],
      "name": "name",
      "outputs": [
        {
          "name": "",
          "type": "string"
        }
      ],
      "payable": false,
      "stateMutability": "view",
      "type": "function"
    },
    {
      "constant": true,
      "inputs": [],
      "name": "TOKEN_BONUS",
      "outputs": [
        {
          "name": "",
          "type": "uint256"
        }
      ],
      "payable": false,
      "stateMutability": "view",
      "type": "function"
    },
    {
      "constant": false,
      "inputs": [
        {
          "name": "spender",
          "type": "address"
        },
        {
          "name": "value",
          "type": "uint256"
        }
      ],
      "name": "approve",
      "outputs": [
        {
          "name": "",
          "type": "bool"
        }
      ],
      "payable": false,
      "stateMutability": "nonpayable",
      "type": "function"
    },
    {
      "constant": true,
      "inputs": [],
      "name": "totalSupply",
      "outputs": [
        {
          "name": "",
          "type": "uint256"
        }
      ],
      "payable": false,
      "stateMutability": "view",
      "type": "function"
    },
    {
      "constant": false,
      "inputs": [
        {
          "name": "from",
          "type": "address"
        },
        {
          "name": "to",
          "type": "address"
        },
        {
          "name": "value",
          "type": "uint256"
        }
      ],
      "name": "transferFrom",
      "outputs": [
        {
          "name": "",
          "type": "bool"
        }
      ],
      "payable": false,
      "stateMutability": "nonpayable",
      "type": "function"
    },
    {
      "constant": true,
      "inputs": [],
      "name": "decimals",
      "outputs": [
        {
          "name": "",
          "type": "uint32"
        }
      ],
      "payable": false,
      "stateMutability": "view",
      "type": "function"
    },
    {
      "constant": false,
      "inputs": [
        {
          "name": "spender",
          "type": "address"
        },
        {
          "name": "addedValue",
          "type": "uint256"
        }
      ],
      "name": "increaseAllowance",
      "outputs": [
        {
          "name": "",
          "type": "bool"
        }
      ],
      "payable": false,
      "stateMutability": "nonpayable",
      "type": "function"
    },
    {
      "constant": true,
      "inputs": [],
      "name": "LAPS_TIME_TOKEN_WITHDRAW",
      "outputs": [
        {
          "name": "",
          "type": "uint256"
        }
      ],
      "payable": false,
      "stateMutability": "view",
      "type": "function"
    },
    {
      "constant": true,
      "inputs": [],
      "name": "PRICE_RATIO",
      "outputs": [
        {
          "name": "",
          "type": "uint256"
        }
      ],
      "payable": false,
      "stateMutability": "view",
      "type": "function"
    },
    {
      "constant": true,
      "inputs": [],
      "name": "TIME_TOKEN_WITHDRAW",
      "outputs": [
        {
          "name": "",
          "type": "uint256"
        }
      ],
      "payable": false,
      "stateMutability": "view",
      "type": "function"
    },
    {
      "constant": true,
      "inputs": [
        {
          "name": "owner",
          "type": "address"
        }
      ],
      "name": "balanceOf",
      "outputs": [
        {
          "name": "",
          "type": "uint256"
        }
      ],
      "payable": false,
      "stateMutability": "view",
      "type": "function"
    },
    {
      "constant": true,
      "inputs": [],
      "name": "owner",
      "outputs": [
        {
          "name": "",
          "type": "address"
        }
      ],
      "payable": false,
      "stateMutability": "view",
      "type": "function"
    },
    {
      "constant": true,
      "inputs": [],
      "name": "DESERVERVE_BONUS",
      "outputs": [
        {
          "name": "",
          "type": "uint256"
        }
      ],
      "payable": false,
      "stateMutability": "view",
      "type": "function"
    },
    {
      "constant": true,
      "inputs": [],
      "name": "symbol",
      "outputs": [
        {
          "name": "",
          "type": "string"
        }
      ],
      "payable": false,
      "stateMutability": "view",
      "type": "function"
    },
    {
      "constant": false,
      "inputs": [
        {
          "name": "spender",
          "type": "address"
        },
        {
          "name": "subtractedValue",
          "type": "uint256"
        }
      ],
      "name": "decreaseAllowance",
      "outputs": [
        {
          "name": "",
          "type": "bool"
        }
      ],
      "payable": false,
      "stateMutability": "nonpayable",
      "type": "function"
    },
    {
      "constant": false,
      "inputs": [
        {
          "name": "to",
          "type": "address"
        },
        {
          "name": "value",
          "type": "uint256"
        }
      ],
      "name": "transfer",
      "outputs": [
        {
          "name": "",
          "type": "bool"
        }
      ],
      "payable": false,
      "stateMutability": "nonpayable",
      "type": "function"
    },
    {
      "constant": true,
      "inputs": [],
      "name": "MAX_AMOUNT",
      "outputs": [
        {
          "name": "",
          "type": "uint256"
        }
      ],
      "payable": false,
      "stateMutability": "view",
      "type": "function"
    },
    {
      "constant": true,
      "inputs": [
        {
          "name": "owner",
          "type": "address"
        },
        {
          "name": "spender",
          "type": "address"
        }
      ],
      "name": "allowance",
      "outputs": [
        {
          "name": "",
          "type": "uint256"
        }
      ],
      "payable": false,
      "stateMutability": "view",
      "type": "function"
    },
    {
      "constant": true,
      "inputs": [],
      "name": "MIN_AMOUNT",
      "outputs": [
        {
          "name": "",
          "type": "uint256"
        }
      ],
      "payable": false,
      "stateMutability": "view",
      "type": "function"
    },
    {
      "constant": true,
      "inputs": [],
      "name": "MAX_MEMBRE",
      "outputs": [
        {
          "name": "",
          "type": "uint256"
        }
      ],
      "payable": false,
      "stateMutability": "view",
      "type": "function"
    },
    {
      "constant": true,
      "inputs": [],
      "name": "MAX_DELAI",
      "outputs": [
        {
          "name": "",
          "type": "uint256"
        }
      ],
      "payable": false,
      "stateMutability": "view",
      "type": "function"
    },
    {
      "constant": false,
      "inputs": [
        {
          "name": "newOwner",
          "type": "address"
        }
      ],
      "name": "transferOwnership",
      "outputs": [],
      "payable": false,
      "stateMutability": "nonpayable",
      "type": "function"
    },
    {
      "constant": true,
      "inputs": [],
      "name": "MAX_GROUPS",
      "outputs": [
        {
          "name": "",
          "type": "uint256"
        }
      ],
      "payable": false,
      "stateMutability": "view",
      "type": "function"
    },
    {
      "inputs": [],
      "payable": false,
      "stateMutability": "nonpayable",
      "type": "constructor"
    },
    {
      "anonymous": false,
      "inputs": [
        {
          "indexed": true,
          "name": "previousOwner",
          "type": "address"
        },
        {
          "indexed": true,
          "name": "newOwner",
          "type": "address"
        }
      ],
      "name": "OwnershipTransferred",
      "type": "event"
    },
    {
      "anonymous": false,
      "inputs": [
        {
          "indexed": true,
          "name": "from",
          "type": "address"
        },
        {
          "indexed": true,
          "name": "to",
          "type": "address"
        },
        {
          "indexed": false,
          "name": "value",
          "type": "uint256"
        }
      ],
      "name": "Transfer",
      "type": "event"
    },
    {
      "anonymous": false,
      "inputs": [
        {
          "indexed": true,
          "name": "owner",
          "type": "address"
        },
        {
          "indexed": true,
          "name": "spender",
          "type": "address"
        },
        {
          "indexed": false,
          "name": "value",
          "type": "uint256"
        }
      ],
      "name": "Approval",
      "type": "event"
    },
    {
      "constant": false,
      "inputs": [
        {
          "name": "_nom",
          "type": "string"
        },
        {
          "name": "_pseudo",
          "type": "string"
        }
      ],
      "name": "creerGroupe",
      "outputs": [],
      "payable": false,
      "stateMutability": "nonpayable",
      "type": "function"
    },
    {
      "constant": false,
      "inputs": [
        {
          "name": "_membre",
          "type": "address"
        },
        {
          "name": "_groupe",
          "type": "string"
        },
        {
          "name": "_pseudo",
          "type": "string"
        }
      ],
      "name": "ajouterMembre",
      "outputs": [],
      "payable": false,
      "stateMutability": "nonpayable",
      "type": "function"
    },
    {
      "constant": false,
      "inputs": [
        {
          "name": "_montant",
          "type": "uint256"
        },
        {
          "name": "_delai",
          "type": "uint256"
        },
        {
          "name": "_pseudo",
          "type": "string"
        },
        {
          "name": "_description",
          "type": "string"
        },
        {
          "name": "_contrat",
          "type": "address"
        }
      ],
      "name": "demander",
      "outputs": [],
      "payable": false,
      "stateMutability": "nonpayable",
      "type": "function"
    },
    {
      "constant": false,
      "inputs": [
        {
          "name": "_pseudo",
          "type": "string"
        }
      ],
      "name": "payerCanal",
      "outputs": [],
      "payable": true,
      "stateMutability": "payable",
      "type": "function"
    },
    {
      "constant": false,
      "inputs": [
        {
          "name": "_pseudo",
          "type": "string"
        }
      ],
      "name": "fermetureCanal",
      "outputs": [],
      "payable": false,
      "stateMutability": "nonpayable",
      "type": "function"
    },
    {
      "constant": false,
      "inputs": [
        {
          "name": "_amount",
          "type": "uint256"
        }
      ],
      "name": "withdrawEther",
      "outputs": [],
      "payable": false,
      "stateMutability": "nonpayable",
      "type": "function"
    },
    {
      "constant": false,
      "inputs": [],
      "name": "tokenToEther",
      "outputs": [],
      "payable": false,
      "stateMutability": "nonpayable",
      "type": "function"
    },
    {
      "constant": false,
      "inputs": [
        {
          "name": "_seuil",
          "type": "uint256"
        }
      ],
      "name": "modifierMeriteBonus",
      "outputs": [],
      "payable": false,
      "stateMutability": "nonpayable",
      "type": "function"
    },
    {
      "constant": false,
      "inputs": [
        {
          "name": "_tokenBonus",
          "type": "uint256"
        }
      ],
      "name": "modifierTokenBonus",
      "outputs": [],
      "payable": false,
      "stateMutability": "nonpayable",
      "type": "function"
    },
    {
      "constant": false,
      "inputs": [
        {
          "name": "_laspsTime",
          "type": "uint256"
        }
      ],
      "name": "modifierLapsTimeToWithdraw",
      "outputs": [],
      "payable": false,
      "stateMutability": "nonpayable",
      "type": "function"
    },
    {
      "constant": false,
      "inputs": [
        {
          "name": "_TimeToWithdraw",
          "type": "uint256"
        }
      ],
      "name": "modifierTimeToWithdraw",
      "outputs": [],
      "payable": false,
      "stateMutability": "nonpayable",
      "type": "function"
    },
    {
      "constant": false,
      "inputs": [
        {
          "name": "_maxGroups",
          "type": "uint256"
        }
      ],
      "name": "modifierMaxGroups",
      "outputs": [],
      "payable": false,
      "stateMutability": "nonpayable",
      "type": "function"
    },
    {
      "constant": false,
      "inputs": [
        {
          "name": "_maxDelai",
          "type": "uint256"
        }
      ],
      "name": "modifierDelai",
      "outputs": [],
      "payable": false,
      "stateMutability": "nonpayable",
      "type": "function"
    },
    {
      "constant": false,
      "inputs": [
        {
          "name": "_maxMembre",
          "type": "uint256"
        }
      ],
      "name": "modifierMaxMembre",
      "outputs": [],
      "payable": false,
      "stateMutability": "nonpayable",
      "type": "function"
    },
    {
      "constant": false,
      "inputs": [
        {
          "name": "_maxAmount",
          "type": "uint256"
        }
      ],
      "name": "modifierMaxAmount",
      "outputs": [],
      "payable": false,
      "stateMutability": "nonpayable",
      "type": "function"
    },
    {
      "constant": false,
      "inputs": [
        {
          "name": "_minAmount",
          "type": "uint256"
        }
      ],
      "name": "modifierMinAmount",
      "outputs": [],
      "payable": false,
      "stateMutability": "nonpayable",
      "type": "function"
    },
    {
      "constant": false,
      "inputs": [
        {
          "name": "_priceChannel",
          "type": "uint256"
        }
      ],
      "name": "modifierPriceChannel",
      "outputs": [],
      "payable": false,
      "stateMutability": "nonpayable",
      "type": "function"
    },
    {
      "constant": true,
      "inputs": [],
      "name": "getGroupesPerAddress",
      "outputs": [
        {
          "name": "",
          "type": "uint256[]"
        }
      ],
      "payable": false,
      "stateMutability": "view",
      "type": "function"
    },
    {
      "constant": true,
      "inputs": [
        {
          "name": "_groupe",
          "type": "string"
        }
      ],
      "name": "getMembres",
      "outputs": [
        {
          "name": "",
          "type": "uint256[]"
        }
      ],
      "payable": false,
      "stateMutability": "view",
      "type": "function"
    },
    {
      "constant": true,
      "inputs": [
        {
          "name": "_ID",
          "type": "uint256"
        }
      ],
      "name": "getNomMembre",
      "outputs": [
        {
          "name": "",
          "type": "string"
        }
      ],
      "payable": false,
      "stateMutability": "view",
      "type": "function"
    },
    {
      "constant": true,
      "inputs": [
        {
          "name": "_ID",
          "type": "uint256"
        }
      ],
      "name": "getContratCible",
      "outputs": [
        {
          "name": "",
          "type": "address"
        }
      ],
      "payable": false,
      "stateMutability": "view",
      "type": "function"
    },
    {
      "constant": true,
      "inputs": [
        {
          "name": "_ID",
          "type": "uint256"
        }
      ],
      "name": "getMontant",
      "outputs": [
        {
          "name": "",
          "type": "uint256"
        }
      ],
      "payable": false,
      "stateMutability": "view",
      "type": "function"
    },
    {
      "constant": true,
      "inputs": [
        {
          "name": "_ID",
          "type": "uint256"
        }
      ],
      "name": "getBlockFermeture",
      "outputs": [
        {
          "name": "",
          "type": "uint256"
        }
      ],
      "payable": false,
      "stateMutability": "view",
      "type": "function"
    },
    {
      "constant": true,
      "inputs": [
        {
          "name": "_ID",
          "type": "uint256"
        }
      ],
      "name": "getEncours",
      "outputs": [
        {
          "name": "",
          "type": "uint256"
        }
      ],
      "payable": false,
      "stateMutability": "view",
      "type": "function"
    },
    {
      "constant": true,
      "inputs": [
        {
          "name": "_ID",
          "type": "uint256"
        }
      ],
      "name": "getDonnations",
      "outputs": [
        {
          "name": "",
          "type": "uint256"
        }
      ],
      "payable": false,
      "stateMutability": "view",
      "type": "function"
    },
    {
      "constant": true,
      "inputs": [
        {
          "name": "_ID",
          "type": "uint256"
        }
      ],
      "name": "getDescription",
      "outputs": [
        {
          "name": "",
          "type": "string"
        }
      ],
      "payable": false,
      "stateMutability": "view",
      "type": "function"
    },
    {
      "constant": true,
      "inputs": [
        {
          "name": "_ID",
          "type": "uint256"
        }
      ],
      "name": "getTime",
      "outputs": [
        {
          "name": "",
          "type": "uint256"
        }
      ],
      "payable": false,
      "stateMutability": "view",
      "type": "function"
    },
    {
      "constant": true,
      "inputs": [
        {
          "name": "_ID",
          "type": "uint256"
        }
      ],
      "name": "getNomGroupe",
      "outputs": [
        {
          "name": "",
          "type": "string"
        }
      ],
      "payable": false,
      "stateMutability": "view",
      "type": "function"
    },
    {
      "constant": true,
      "inputs": [],
      "name": "getOwnedGroupe",
      "outputs": [
        {
          "name": "",
          "type": "uint256[]"
        }
      ],
      "payable": false,
      "stateMutability": "view",
      "type": "function"
    },
    {
      "constant": true,
      "inputs": [
        {
          "name": "groupe",
          "type": "string"
        }
      ],
      "name": "getOwnPseudo",
      "outputs": [
        {
          "name": "",
          "type": "string"
        }
      ],
      "payable": false,
      "stateMutability": "view",
      "type": "function"
    }
  ],
  "bytecode": "0x608060405234801561001057600080fd5b5060038054600160a060020a031916331790556032601255600a600d5560c8600e556509184e72a000600f5561271060105560646011556402540be400601355620186a06014556000601555620f4240601655612a62806100726000396000f3fe60806040526004361061027c5763ffffffff7c010000000000000000000000000000000000000000000000000000000060003504166306fdde03811461028157806307ef53371461030b578063095ea7b31461033257806318160ddd1461037f5780631c064aa7146103945780631e0afe57146103c057806323b872dd1461042557806327f128b31461046857806329c7734714610492578063313ce56714610545578063370c29f914610573578063395093511461059d578063397ef769146105d657806339f88c15146105eb5780633bed33ce146106315780633c431d6a1461065b57806341522997146106705780634925ec551461069a5780634b7b03cf146106c45780634c9a9850146106ee5780634dc887291461071857806354a434fc146107cb578063639f8499146107e057806370a082311461088657806373343f1a146108b95780637362782614610a0a578063750fa0a314610a345780637ff774d814610a5e5780638da5cb5b14610a885780638f33334114610a9d578063911f444e14610be757806395d89b4114610bfc5780639acdb25b14610c11578063a457c2d714610c3b578063a9059cbb14610c74578063aa4e8fd514610cad578063beaf3b0d14610d60578063d40dc87014610d8a578063da28be7514610d9f578063dd62ed3e14610db4578063ddbcb5fa14610def578063df40e32914610e04578063e09c813614610e2e578063e0c989c214610e43578063e50b189314610e6d578063e6e4484114610e82578063f2fde38b14610e97578063f3451b2f14610eca578063f420948b14610edf578063f4343df414610f09578063f462966514611043578063f48397721461106d578063f8efcf4f14611097575b600080fd5b34801561028d57600080fd5b506102966110c1565b6040805160208082528351818301528351919283929083019185019080838360005b838110156102d05781810151838201526020016102b8565b50505050905090810190601f1680156102fd5780820380516001836020036101000a031916815260200191505b509250505060405180910390f35b34801561031757600080fd5b506103206110f8565b60408051918252519081900360200190f35b34801561033e57600080fd5b5061036b6004803603604081101561035557600080fd5b50600160a060020a0381351690602001356110fe565b604080519115158252519081900360200190f35b34801561038b57600080fd5b50610320611114565b3480156103a057600080fd5b506103be600480360360208110156103b757600080fd5b503561111b565b005b3480156103cc57600080fd5b506103d5611154565b60408051602080825283518183015283519192839290830191858101910280838360005b838110156104115781810151838201526020016103f9565b505050509050019250505060405180910390f35b34801561043157600080fd5b5061036b6004803603606081101561044857600080fd5b50600160a060020a038135811691602081013590911690604001356111b5565b34801561047457600080fd5b506103206004803603602081101561048b57600080fd5b503561120c565b34801561049e57600080fd5b506103d5600480360360208110156104b557600080fd5b8101906020810181356401000000008111156104d057600080fd5b8201836020820111156104e257600080fd5b8035906020019184600183028401116401000000008311171561050457600080fd5b91908080601f016020809104026020016040519081016040528093929190818152602001838380828437600092019190915250929550611224945050505050565b34801561055157600080fd5b5061055a6112d2565b6040805163ffffffff9092168252519081900360200190f35b34801561057f57600080fd5b506103be6004803603602081101561059657600080fd5b50356112d7565b3480156105a957600080fd5b5061036b600480360360408110156105c057600080fd5b50600160a060020a038135169060200135611301565b3480156105e257600080fd5b5061032061133d565b3480156105f757600080fd5b506106156004803603602081101561060e57600080fd5b5035611343565b60408051600160a060020a039092168252519081900360200190f35b34801561063d57600080fd5b506103be6004803603602081101561065457600080fd5b5035611361565b34801561066757600080fd5b506103206113a9565b34801561067c57600080fd5b506102966004803603602081101561069357600080fd5b50356113af565b3480156106a657600080fd5b50610296600480360360208110156106bd57600080fd5b5035611446565b3480156106d057600080fd5b50610296600480360360208110156106e757600080fd5b50356114b3565b3480156106fa57600080fd5b506103206004803603602081101561071157600080fd5b5035611534565b34801561072457600080fd5b506103be6004803603602081101561073b57600080fd5b81019060208101813564010000000081111561075657600080fd5b82018360208201111561076857600080fd5b8035906020019184600183028401116401000000008311171561078a57600080fd5b91908080601f016020809104026020016040519081016040528093929190818152602001838380828437600092019190915250929550611549945050505050565b3480156107d757600080fd5b50610320611653565b6103be600480360360208110156107f657600080fd5b81019060208101813564010000000081111561081157600080fd5b82018360208201111561082357600080fd5b8035906020019184600183028401116401000000008311171561084557600080fd5b91908080601f016020809104026020016040519081016040528093929190818152602001838380828437600092019190915250929550611659945050505050565b34801561089257600080fd5b50610320600480360360208110156108a957600080fd5b5035600160a060020a031661175f565b3480156108c557600080fd5b506103be600480360360a08110156108dc57600080fd5b81359160208101359181019060608101604082013564010000000081111561090357600080fd5b82018360208201111561091557600080fd5b8035906020019184600183028401116401000000008311171561093757600080fd5b91908080601f016020809104026020016040519081016040528093929190818152602001838380828437600092019190915250929594936020810193503591505064010000000081111561098a57600080fd5b82018360208201111561099c57600080fd5b803590602001918460018302840111640100000000831117156109be57600080fd5b91908080601f01602080910402602001604051908101604052809392919081815260200183838082843760009201919091525092955050509035600160a060020a0316915061177a9050565b348015610a1657600080fd5b5061032060048036036020811015610a2d57600080fd5b50356118ae565b348015610a4057600080fd5b5061032060048036036020811015610a5757600080fd5b50356118e9565b348015610a6a57600080fd5b506103be60048036036020811015610a8157600080fd5b50356118fe565b348015610a9457600080fd5b5061061561191a565b348015610aa957600080fd5b506103be60048036036060811015610ac057600080fd5b600160a060020a038235169190810190604081016020820135640100000000811115610aeb57600080fd5b820183602082011115610afd57600080fd5b80359060200191846001830284011164010000000083111715610b1f57600080fd5b91908080601f0160208091040260200160405190810160405280939291908181526020018383808284376000920191909152509295949360208101935035915050640100000000811115610b7257600080fd5b820183602082011115610b8457600080fd5b80359060200191846001830284011164010000000083111715610ba657600080fd5b91908080601f016020809104026020016040519081016040528093929190818152602001838380828437600092019190915250929550611929945050505050565b348015610bf357600080fd5b50610320611be1565b348015610c0857600080fd5b50610296611be7565b348015610c1d57600080fd5b506103be60048036036020811015610c3457600080fd5b5035611c1e565b348015610c4757600080fd5b5061036b60048036036040811015610c5e57600080fd5b50600160a060020a038135169060200135611c3a565b348015610c8057600080fd5b5061036b60048036036040811015610c9757600080fd5b50600160a060020a038135169060200135611c76565b348015610cb957600080fd5b5061029660048036036020811015610cd057600080fd5b810190602081018135640100000000811115610ceb57600080fd5b820183602082011115610cfd57600080fd5b80359060200191846001830284011164010000000083111715610d1f57600080fd5b91908080601f016020809104026020016040519081016040528093929190818152602001838380828437600092019190915250929550611c83945050505050565b348015610d6c57600080fd5b506103be60048036036020811015610d8357600080fd5b5035611ed3565b348015610d9657600080fd5b50610320611f13565b348015610dab57600080fd5b506103be611f19565b348015610dc057600080fd5b5061032060048036036040811015610dd757600080fd5b50600160a060020a0381358116916020013516611fa8565b348015610dfb57600080fd5b50610320611fd3565b348015610e1057600080fd5b5061032060048036036020811015610e2757600080fd5b5035611fd9565b348015610e3a57600080fd5b506103d5611fee565b348015610e4f57600080fd5b506103be60048036036020811015610e6657600080fd5b503561204d565b348015610e7957600080fd5b50610320612089565b348015610e8e57600080fd5b5061032061208f565b348015610ea357600080fd5b506103be60048036036020811015610eba57600080fd5b5035600160a060020a0316612095565b348015610ed657600080fd5b5061032061211d565b348015610eeb57600080fd5b506103be60048036036020811015610f0257600080fd5b5035612123565b348015610f1557600080fd5b506103be60048036036040811015610f2c57600080fd5b810190602081018135640100000000811115610f4757600080fd5b820183602082011115610f5957600080fd5b80359060200191846001830284011164010000000083111715610f7b57600080fd5b91908080601f0160208091040260200160405190810160405280939291908181526020018383808284376000920191909152509295949360208101935035915050640100000000811115610fce57600080fd5b820183602082011115610fe057600080fd5b8035906020019184600183028401116401000000008311171561100257600080fd5b91908080601f01602080910402602001604051908101604052809392919081815260200183838082843760009201919091525092955061215d945050505050565b34801561104f57600080fd5b506103be6004803603602081101561106657600080fd5b503561249f565b34801561107957600080fd5b506103be6004803603602081101561109057600080fd5b50356124bb565b3480156110a357600080fd5b506103be600480360360208110156110ba57600080fd5b50356124f8565b60408051808201909152600881527f67696d69636f696e000000000000000000000000000000000000000000000000602082015281565b60155481565b600061110b338484612514565b50600192915050565b6002545b90565b600354600160a060020a0316331461113257600080fd5b60058110158015611144575060c88111155b151561114f57600080fd5b600d55565b336000908152600560209081526040918290208054835181840281018401909452808452606093928301828280156111ab57602002820191906000526020600020905b815481526020019060010190808311611197575b5050505050905090565b60006111c28484846125a0565b600160a060020a0384166000908152600160209081526040808320338085529252909120546112029186916111fd908663ffffffff61266d16565b612514565b5060019392505050565b6000818152600460205260409020600601545b919050565b60606006826040518082805190602001908083835b602083106112585780518252601f199092019160209182019101611239565b51815160209384036101000a6000190180199092169116179052920194855250604080519485900382018520805480840287018401909252818652935091508301828280156112c657602002820191906000526020600020905b8154815260200190600101908083116112b2575b50505050509050919050565b601281565b600354600160a060020a031633146112ee57600080fd5b60648110156112fc57600080fd5b601155565b336000818152600160209081526040808320600160a060020a0387168452909152812054909161110b9185906111fd908663ffffffff61267f16565b60145481565b600090815260046020526040902060080154600160a060020a031690565b600354600160a060020a0316331461137857600080fd5b604051339082156108fc029083906000818181858888f193505050501580156113a5573d6000803e3d6000fd5b5050565b60115481565b60008181526007602090815260409182902080548351601f60026000196101006001861615020190931692909204918201849004840281018401909452808452606093928301828280156112c65780601f10611419576101008083540402835291602001916112c6565b820191906000526020600020905b8154815290600101906020018083116114275750939695505050505050565b60008181526004602090815260409182902060070180548351601f60026000196101006001861615020190931692909204918201849004840281018401909452808452606093928301828280156112c65780601f10611419576101008083540402835291602001916112c6565b6060600460008381526020019081526020016000206001018054600181600116156101000203166002900480601f0160208091040260200160405190810160405280929190818152602001828054600181600116156101000203166002900480156112c65780601f10611419576101008083540402835291602001916112c6565b60009081526004602052604090206005015490565b80516020808301919091206000818152600492839052604090209091015460ff16151560011461157857600080fd5b600081815260046020526040902054600160a060020a0316331461159b57600080fd5b600081815260046020526040808220600501549051339282156108fc02929190818181858888f193505050501580156115d8573d6000803e3d6000fd5b506000818152600460208181526040808420600581018590556002810185905560038101859055808401805460ff1916905581518084019283905285815294869052929091529151611630926007909201919061299e565b5060009081526004602052604090206008018054600160a060020a031916905550565b60135481565b805160208083019190912060008181526004909252604090912060058101546002909101541161168857600080fd5b6000818152600460208190526040909120015460ff1615156001146116ac57600080fd5b6000818152600460205260409020600301544311156116ca57600080fd5b6000601154348115156116d957fe5b0490506116f5336116f0348463ffffffff61266d16565b612695565b82516020808501919091206000908152600490915260409020600601543490611724908263ffffffff61267f16565b50611735818363ffffffff61266d16565b50600083815260046020526040902060050154611758908263ffffffff61267f16565b5050505050565b600160a060020a031660009081526020819052604090205490565b33600160a060020a0316600c846040518082805190602001908083835b602083106117b65780518252601f199092019160209182019101611797565b51815160209384036101000a6000190180199092169116179052920194855250604051938490030190922054600160a060020a03169290921491506117fc905057600080fd5b600e5484111561180b57600080fd5b82516020808501919091206000818152600492839052604090209091015460ff161561183657600080fd5b600081815260046020818152604090922060028101899055908101805460ff19166001179055438701600382015584516118789260079092019186019061299e565b5060009081526004602052604090206008018054600160a060020a031916600160a060020a039290921691909117905550505050565b60008181526004602052604081206003015443106118ce5750600061121f565b5060008181526004602052604090206003015443900361121f565b60009081526004602052604090206002015490565b600354600160a060020a0316331461191557600080fd5b601455565b600354600160a060020a031681565b600d54600b836040518082805190602001908083835b6020831061195e5780518252601f19909201916020918201910161193f565b51815160209384036101000a600019018019909216911617905292019485525060405193849003019092205492909210915061199b905057600080fd5b6000600160a060020a0316600c826040518082805190602001908083835b602083106119d85780518252601f1990920191602091820191016119b9565b51815160209384036101000a6000190180199092169116179052920194855250604051938490030190922054600160a060020a0316929092149150611a1e905057600080fd5b33600160a060020a03166009836040518082805190602001908083835b60208310611a5a5780518252601f199092019160209182019101611a3b565b51815160209384036101000a6000190180199092169116179052920194855250604051938490030190922054600160a060020a0316929092149150611aa0905057600080fd5b82600c826040518082805190602001908083835b60208310611ad35780518252601f199092019160209182019101611ab4565b51815160209384036101000a60001901801990921691161790529201948552506040805194859003820185208054600160a060020a031916600160a060020a039788161790558751888301908120968a166000908152600584529182208054600181018255908352929091209091018590558651600b9488945092508291908083835b60208310611b755780518252601f199092019160209182019101611b56565b51815160209384036101000a6000190180199092169116179052920194855250604051938490038101909320805460018101825560009182529390209092018054600160a060020a031916600160a060020a03881617905550611bdb905082848661273f565b50505050565b60165481565b60408051808201909152600381527f474d430000000000000000000000000000000000000000000000000000000000602082015281565b600354600160a060020a03163314611c3557600080fd5b601655565b336000818152600160209081526040808320600160a060020a0387168452909152812054909161110b9185906111fd908663ffffffff61266d16565b600061110b3384846125a0565b606060005b6006836040518082805190602001908083835b60208310611cba5780518252601f199092019160209182019101611c9b565b51815160209384036101000a60001901801990921691161790529201948552506040519384900301909220548310159150611ecd90505733600160a060020a0316600460006006866040518082805190602001908083835b60208310611d315780518252601f199092019160209182019101611d12565b51815160209384036101000a6000190180199092169116179052920194855250604051938490030190922080549092508691508110611d6c57fe5b60009182526020808320909101548352820192909252604001902054600160a060020a03161415611ec557600460006006856040518082805190602001908083835b60208310611dcd5780518252601f199092019160209182019101611dae565b51815160209384036101000a6000190180199092169116179052920194855250604051938490030190922080549092508591508110611e0857fe5b906000526020600020015481526020019081526020016000206001018054600181600116156101000203166002900480601f016020809104026020016040519081016040528092919081815260200182805460018160011615610100020316600290048015611eb85780601f10611e8d57610100808354040283529160200191611eb8565b820191906000526020600020905b815481529060010190602001808311611e9b57829003601f168201915b505050505091505061121f565b600101611c88565b50919050565b600354600160a060020a03163314611eea57600080fd5b629896808110158015611f035750655af3107a40008111155b1515611f0e57600080fd5b600f55565b600f5481565b600060135443811515611f2857fe5b0610158015611f46575060145460135443811515611f4257fe5b0611155b1515611f5157600080fd5b6000611f6e601654611f623361175f565b9063ffffffff61289916565b9050611f9233611f8d83611f813361175f565b9063ffffffff61267f16565b611c76565b50611fa533611fa03361175f565b6128b0565b50565b600160a060020a03918216600090815260016020908152604080832093909416825291909152205490565b60105481565b60009081526004602052604090206003015490565b336000908152600860209081526040918290208054835181840281018401909452808452606093928301828280156111ab5760200282019190600052602060002090815481526020019060010190808311611197575050505050905090565b600354600160a060020a0316331461206457600080fd5b600a81101580156120795750633b9aca008111155b151561208457600080fd5b600e55565b600d5481565b600e5481565b600354600160a060020a031633146120ac57600080fd5b600160a060020a03811615156120c157600080fd5b600354604051600160a060020a038084169216907f8be0079c531659141344cd1fd0a4f28419497f9722a3daafe3b4186f6b6457e090600090a360038054600160a060020a031916600160a060020a0392909216919091179055565b60125481565b600354600160a060020a0316331461213a57600080fd5b600a811015801561214d57506103e88111155b151561215857600080fd5b601255565b600a826040518082805190602001908083835b6020831061218f5780518252601f199092019160209182019101612170565b51815160209384036101000a60001901801990921691161790529201948552506040519384900301909220541591506121c9905057600080fd5b60125433600090815260056020526040902054106121e657600080fd5b6000600160a060020a0316600c826040518082805190602001908083835b602083106122235780518252601f199092019160209182019101612204565b51815160209384036101000a6000190180199092169116179052920194855250604051938490030190922054600160a060020a0316929092149150612269905057600080fd5b33600c826040518082805190602001908083835b6020831061229c5780518252601f19909201916020918201910161227d565b51815160209384036101000a600019018019909216911617905292019485525060405193849003810184208054600160a060020a031916600160a060020a03969096169590951790945550508351918401828120928392600a9287928291908083835b6020831061231e5780518252601f1990920191602091820191016122ff565b51815160209384036101000a6000190180199092169116179052920194855250604051938490038101842094909455505084513392600992879290918291908401908083835b602083106123835780518252601f199092019160209182019101612364565b51815160209384036101000a6000190180199092169116179052920194855250604080519485900382019094208054600160a060020a031916600160a060020a03969096169590951790945550506000838152600783522084516123e99286019061299e565b50600b836040518082805190602001908083835b6020831061241c5780518252601f1990920191602091820191016123fd565b51815160209384036101000a6000190180199092169116179052920194855250604080519485900382019094208054600180820183556000928352838320909101805433600160a060020a0319909116811790915580835260058452958220805491820181558252919020018490555061249a91849150859061273f565b505050565b600354600160a060020a031633146124b657600080fd5b601555565b600354600160a060020a031633146124d257600080fd5b620186a081101580156124e85750620f42408111155b15156124f357600080fd5b601055565b600354600160a060020a0316331461250f57600080fd5b601355565b600160a060020a038216151561252957600080fd5b600160a060020a038316151561253e57600080fd5b600160a060020a03808416600081815260016020908152604080832094871680845294825291829020859055815185815291517f8c5be1e5ebec7d5bd14f71427d1e84f3dd0314c0f7b2291e5b200ac8c7c3b9259281900390910190a3505050565b600160a060020a03821615156125b557600080fd5b600160a060020a0383166000908152602081905260409020546125de908263ffffffff61266d16565b600160a060020a038085166000908152602081905260408082209390935590841681522054612613908263ffffffff61267f16565b600160a060020a038084166000818152602081815260409182902094909455805185815290519193928716927fddf252ad1be2c89b69c2b068fc378daa952ba7f163c4a11628f55a4df523b3ef92918290030190a3505050565b60008282111561267957fe5b50900390565b60008282018381101561268e57fe5b9392505050565b600160a060020a03821615156126aa57600080fd5b6002546126bd908263ffffffff61267f16565b600255600160a060020a0382166000908152602081905260409020546126e9908263ffffffff61267f16565b600160a060020a0383166000818152602081815260408083209490945583518581529351929391927fddf252ad1be2c89b69c2b068fc378daa952ba7f163c4a11628f55a4df523b3ef9281900390910190a35050565b8251602084018181206040519092600160a060020a03851692600c928892909182918083835b602083106127845780518252601f199092019160209182019101612765565b51815160209384036101000a6000190180199092169116179052920194855250604051938490030190922054600160a060020a03169290921491506127ca905057600080fd5b6000818152600460208181526040909220908101805460ff1916905585516127fa9260019092019187019061299e565b506000818152600460209081526040918290208054600160a060020a031916331790559051845160069286929182918401908083835b6020831061284f5780518252601f199092019160209182019101612830565b51815160209384036101000a600019018019909216911617905292019485525060405193849003810190932080546001810182556000918252939020909201929092555050505050565b60008082848115156128a757fe5b04949350505050565b6128ba82826128f5565b600160a060020a0382166000908152600160209081526040808320338085529252909120546113a59184916111fd908563ffffffff61266d16565b600160a060020a038216151561290a57600080fd5b60025461291d908263ffffffff61266d16565b600255600160a060020a038216600090815260208190526040902054612949908263ffffffff61266d16565b600160a060020a038316600081815260208181526040808320949094558351858152935191937fddf252ad1be2c89b69c2b068fc378daa952ba7f163c4a11628f55a4df523b3ef929081900390910190a35050565b828054600181600116156101000203166002900490600052602060002090601f016020900481019282601f106129df57805160ff1916838001178555612a0c565b82800160010185558215612a0c579182015b82811115612a0c5782518255916020019190600101906129f1565b50612a18929150612a1c565b5090565b61111891905b80821115612a185760008155600101612a2256fea165627a7a72305820a90681fd7942a598e04634e76cd6168262138f159e32822f4973b3c77982d0d90029",
  "source": "pragma solidity ^0.5.0;\n\nimport \"./Gimicoin.sol\";\nimport \"./Ownable.sol\";\n\ncontract Cagnottes is Gimicoin, Ownable{\n\nmapping (uint => channel) private mappChannel;\nmapping (address => uint[]) private mappGroupesForAddress;\nmapping (string => uint[]) private mappGroupeAndChannels;\nmapping (uint => string) private mappIDGroupe;\nmapping (address => uint[]) private mappOwnedGroup;\nmapping (string => address) private mappGroupeOwner;\nmapping (string => uint) private mappNomGroupe;\nmapping (string => address[]) private mappGroupe;\nmapping (string => address) private mappPseudo;\n\nuint public MAX_MEMBRE;\nuint public MAX_DELAI;\nuint public MAX_AMOUNT;\nuint public MIN_AMOUNT;\nuint public PRICE_RATIO;\nuint public MAX_GROUPS;\nuint public TIME_TOKEN_WITHDRAW;\nuint public LAPS_TIME_TOKEN_WITHDRAW;\nuint public TOKEN_BONUS;\nuint public DESERVERVE_BONUS;\n\nstruct channel\n{\n  address demandeur;\n  string pseudo;\n  uint montant;\n  uint blocFermeture;\n  bool actif;\n  uint enCours;\n  uint donnations;\n  string description;\n  address contratCible;\n}\n\nconstructor() public\n{\n  MAX_GROUPS = 50;\n  MAX_MEMBRE = 10;\n  MAX_DELAI = 200;\n  MAX_AMOUNT = 10000000000000;\n  MIN_AMOUNT = 10000;\n  PRICE_RATIO = 100;\n  TIME_TOKEN_WITHDRAW = 10000000000;\n  LAPS_TIME_TOKEN_WITHDRAW = 100000;\n  TOKEN_BONUS = 0;\n  DESERVERVE_BONUS = 1000000;\n}\n\nfunction creerGroupe(string memory _nom, string memory _pseudo) public\n{\n  require(mappNomGroupe[_nom] == 0);\n  require(mappGroupesForAddress[msg.sender].length < MAX_GROUPS);\n  require(mappPseudo[_pseudo] == address(0));\n  mappPseudo[_pseudo] = msg.sender;\n  uint IDGroupe = uint(keccak256(bytes(_nom)));\n  mappNomGroupe[_nom] = IDGroupe;\n  mappGroupeOwner[_nom] = msg.sender;\n  mappIDGroupe[IDGroupe] = _nom;\n  mappGroupe[_nom].push(msg.sender);\n  mappGroupesForAddress[msg.sender].push(IDGroupe);\n  creerCanal(_pseudo, _nom, msg.sender);\n}\n\nfunction ajouterMembre(address _membre, string memory _groupe, string memory _pseudo) public\n{\n  require(mappGroupe[_groupe].length < MAX_MEMBRE);\n  require(mappPseudo[_pseudo] == address(0));\n  require(mappGroupeOwner[_groupe] == msg.sender);\n  mappPseudo[_pseudo] = _membre;\n  uint IDGroupe = uint(keccak256(bytes(_groupe)));\n  mappGroupesForAddress[_membre].push(IDGroupe);\n  mappGroupe[_groupe].push(_membre);\n  creerCanal(_pseudo, _groupe, _membre);\n}\n\nfunction creerCanal(string memory _pseudo, string memory _groupe, address _membre) private\n{\n  uint channelID = uint(keccak256(bytes(_pseudo)));\n  require(mappPseudo[_pseudo] == _membre);\n  mappChannel[channelID].actif = false;\n  mappChannel[channelID].pseudo = _pseudo;\n  mappChannel[channelID].demandeur = msg.sender;\n  mappGroupeAndChannels[_groupe].push(channelID);\n}\n\nfunction demander(uint _montant, uint _delai, string memory _pseudo, string memory _description, address _contrat) public\n{\n  require(mappPseudo[_pseudo] == msg.sender);\n  require(_delai <= MAX_DELAI);\n  uint channelID = uint(keccak256(bytes(_pseudo)));\n  require(mappChannel[channelID].actif == false);\n  mappChannel[channelID].montant = _montant;\n  mappChannel[channelID].actif = true;\n  mappChannel[channelID].blocFermeture = block.number+_delai;\n  mappChannel[channelID].description = _description;\n  mappChannel[channelID].contratCible = _contrat;\n}\n\nfunction payerCanal(string memory _pseudo) public payable\n{\n  uint _channelID = uint(keccak256(bytes(_pseudo)));\n  require(mappChannel[_channelID].montant > mappChannel[_channelID].enCours);\n  require(mappChannel[_channelID].actif == true);\n  require(mappChannel[_channelID].blocFermeture >= block.number);\n  uint fees = uint(msg.value / PRICE_RATIO);\n  _mint(msg.sender,msg.value.sub(fees));\n  uint addValue = msg.value;\n  mappChannel[uint(keccak256(bytes(_pseudo)))].donnations.add(addValue);\n  addValue.sub(fees);\n  mappChannel[_channelID].enCours.add(addValue);\n}\n\nfunction fermetureCanal(string memory _pseudo) public\n{\n  uint _channelID = uint(keccak256(bytes(_pseudo)));\n  require(mappChannel[_channelID].actif == true);\n  require(mappChannel[_channelID].demandeur == msg.sender);\n  msg.sender.transfer(mappChannel[_channelID].enCours);\n  mappChannel[_channelID].enCours = 0;\n  mappChannel[_channelID].montant = 0;\n  mappChannel[_channelID].blocFermeture = 0;\n  mappChannel[_channelID].actif = false;\n  mappChannel[_channelID].description = \"\";\n  mappChannel[_channelID].contratCible = address(0);\n}\n\nfunction withdrawEther(uint _amount) public onlyOwner\n{\n  msg.sender.transfer(_amount);\n}\n\nfunction tokenToEther() public\n{\n  require(block.number % TIME_TOKEN_WITHDRAW  >= 0 && block.number % TIME_TOKEN_WITHDRAW <= LAPS_TIME_TOKEN_WITHDRAW);\n  uint monBonus = uint(balanceOf(msg.sender).div(DESERVERVE_BONUS));\n  transfer(msg.sender,balanceOf(msg.sender).add(monBonus));\n  _burnFrom(msg.sender,balanceOf(msg.sender));\n}\n\nfunction modifierMeriteBonus(uint _seuil) public onlyOwner\n{\n  DESERVERVE_BONUS = _seuil;\n}\n\nfunction modifierTokenBonus(uint _tokenBonus) public onlyOwner\n{\n  TOKEN_BONUS = _tokenBonus;\n}\n\nfunction modifierLapsTimeToWithdraw(uint _laspsTime) public onlyOwner\n{\n  LAPS_TIME_TOKEN_WITHDRAW = _laspsTime;\n}\n\nfunction modifierTimeToWithdraw(uint _TimeToWithdraw) public onlyOwner\n{\n  TIME_TOKEN_WITHDRAW = _TimeToWithdraw;\n}\n\nfunction modifierMaxGroups(uint _maxGroups) public onlyOwner\n{\n  require(_maxGroups >= 10 && _maxGroups <= 1000);\n  MAX_GROUPS = _maxGroups;\n}\n\nfunction modifierDelai(uint _maxDelai) public onlyOwner\n{\n  require(_maxDelai >= 10 && _maxDelai <= 1000000000);\n  MAX_DELAI = _maxDelai;\n}\n\nfunction modifierMaxMembre(uint _maxMembre) public onlyOwner\n{\n  require(_maxMembre >= 5 && _maxMembre <= 200);\n  MAX_MEMBRE = _maxMembre;\n}\n\nfunction modifierMaxAmount(uint _maxAmount) public onlyOwner\n{\n  require(_maxAmount >= 10000000 && _maxAmount <= 100000000000000);\n  MAX_AMOUNT = _maxAmount;\n}\n\nfunction modifierMinAmount(uint _minAmount) public onlyOwner\n{\n  require(_minAmount >= 100000 && _minAmount <= 1000000);\n  MIN_AMOUNT = _minAmount;\n}\n\nfunction modifierPriceChannel(uint _priceChannel) public onlyOwner\n{\n  require(_priceChannel >= 100);\n  PRICE_RATIO = _priceChannel;\n}\n\nfunction getGroupesPerAddress() public view returns (uint[] memory)\n{\n  return mappGroupesForAddress[msg.sender];\n}\n\nfunction getMembres(string memory _groupe) public view returns (uint[] memory)\n{\n  return mappGroupeAndChannels[_groupe];\n}\n\nfunction getNomMembre(uint _ID) public view returns (string memory)\n{\n  return mappChannel[_ID].pseudo;\n}\n\nfunction getContratCible(uint _ID) public view returns (address)\n{\n  return mappChannel[_ID].contratCible;\n}\n\nfunction getMontant(uint _ID) public view returns (uint)\n{\n  return mappChannel[_ID].montant;\n}\n\nfunction getBlockFermeture(uint _ID) public view returns (uint)\n{\n  return mappChannel[_ID].blocFermeture;\n}\n\nfunction getEncours(uint _ID) public view returns (uint)\n{\n  return mappChannel[_ID].enCours;\n}\n\nfunction getDonnations(uint _ID) public view returns (uint)\n{\n  return mappChannel[_ID].donnations;\n}\n\nfunction getDescription(uint _ID) public view returns (string memory)\n{\n  return mappChannel[_ID].description;\n}\n\nfunction getTime(uint _ID) public view returns (uint)\n{\n  if (mappChannel[_ID].blocFermeture <= block.number)\n  {\n    return 0;\n  }\n  else return mappChannel[_ID].blocFermeture - block.number;\n}\n\nfunction getNomGroupe(uint _ID) public view returns (string memory)\n{\n  return mappIDGroupe[_ID];\n}\n\nfunction getOwnedGroupe() public view returns (uint[] memory)\n{\n  return mappOwnedGroup[msg.sender];\n}\n\nfunction getOwnPseudo(string memory groupe) public view returns (string memory)\n{\n  for (uint i = 0 ; i < mappGroupeAndChannels[groupe].length; i ++)\n  {\n    if (mappChannel[mappGroupeAndChannels[groupe][i]].demandeur == msg.sender)\n    {\n      return mappChannel[mappGroupeAndChannels[groupe][i]].pseudo;\n    }\n  }\n}\n\n}\n",
  "sourcePath": "/Users/germaindacunha/Desktop/Alyra/project/src/contracts/Cagnottes.sol",
  "compiler": {
    "name": "solc",
    "version": "0.5.0+commit.1d4f565a.Emscripten.clang"
  },
  "schemaVersion": "3.0.2",
  "updatedAt": "2019-03-27T01:09:01.385Z",
  "devdoc": {
    "methods": {
      "allowance(address,address)": {
        "details": "Function to check the amount of tokens that an owner allowed to a spender.",
        "params": {
          "owner": "address The address which owns the funds.",
          "spender": "address The address which will spend the funds."
        },
        "return": "A uint256 specifying the amount of tokens still available for the spender."
      },
      "approve(address,uint256)": {
        "details": "Approve the passed address to spend the specified amount of tokens on behalf of msg.sender. Beware that changing an allowance with this method brings the risk that someone may use both the old and the new allowance by unfortunate transaction ordering. One possible solution to mitigate this race condition is to first reduce the spender's allowance to 0 and set the desired value afterwards: https://github.com/ethereum/EIPs/issues/20#issuecomment-263524729",
        "params": {
          "spender": "The address which will spend the funds.",
          "value": "The amount of tokens to be spent."
        }
      },
      "balanceOf(address)": {
        "details": "Gets the balance of the specified address.",
        "params": {
          "owner": "The address to query the balance of."
        },
        "return": "A uint256 representing the amount owned by the passed address."
      },
      "decreaseAllowance(address,uint256)": {
        "details": "Decrease the amount of tokens that an owner allowed to a spender. approve should be called when _allowed[msg.sender][spender] == 0. To decrement allowed value is better to use this function to avoid 2 calls (and wait until the first transaction is mined) From MonolithDAO Token.sol Emits an Approval event.",
        "params": {
          "spender": "The address which will spend the funds.",
          "subtractedValue": "The amount of tokens to decrease the allowance by."
        }
      },
      "increaseAllowance(address,uint256)": {
        "details": "Increase the amount of tokens that an owner allowed to a spender. approve should be called when _allowed[msg.sender][spender] == 0. To increment allowed value is better to use this function to avoid 2 calls (and wait until the first transaction is mined) From MonolithDAO Token.sol Emits an Approval event.",
        "params": {
          "addedValue": "The amount of tokens to increase the allowance by.",
          "spender": "The address which will spend the funds."
        }
      },
      "totalSupply()": {
        "details": "Total number of tokens in existence"
      },
      "transfer(address,uint256)": {
        "details": "Transfer token to a specified address",
        "params": {
          "to": "The address to transfer to.",
          "value": "The amount to be transferred."
        }
      },
      "transferFrom(address,address,uint256)": {
        "details": "Transfer tokens from one address to another. Note that while this function emits an Approval event, this is not required as per the specification, and other compliant implementations may not emit the event.",
        "params": {
          "from": "address The address which you want to send tokens from",
          "to": "address The address which you want to transfer to",
          "value": "uint256 the amount of tokens to be transferred"
        }
      },
      "transferOwnership(address)": {
        "details": "Allows the current owner to transfer control of the contract to a newOwner.",
        "params": {
          "newOwner": "The address to transfer ownership to."
        }
      }
    }
  },
  "userdoc": {
    "methods": {}
  }
}