{
  "contractName": "EtherUnion",
  "abi": [
    {
      "constant": true,
      "inputs": [],
      "name": "name",
      "outputs": [
        {
          "name": "",
          "type": "string"
        }
      ],
      "payable": false,
      "stateMutability": "view",
      "type": "function",
      "signature": "0x06fdde03"
    },
    {
      "constant": false,
      "inputs": [
        {
          "name": "spender",
          "type": "address"
        },
        {
          "name": "value",
          "type": "uint256"
        }
      ],
      "name": "approve",
      "outputs": [
        {
          "name": "",
          "type": "bool"
        }
      ],
      "payable": false,
      "stateMutability": "nonpayable",
      "type": "function",
      "signature": "0x095ea7b3"
    },
    {
      "constant": false,
      "inputs": [
        {
          "name": "_pseudo",
          "type": "string"
        },
        {
          "name": "_token",
          "type": "uint256"
        }
      ],
      "name": "payerCanal",
      "outputs": [],
      "payable": true,
      "stateMutability": "payable",
      "type": "function",
      "signature": "0x0eef04fd"
    },
    {
      "constant": true,
      "inputs": [],
      "name": "totalSupply",
      "outputs": [
        {
          "name": "",
          "type": "uint256"
        }
      ],
      "payable": false,
      "stateMutability": "view",
      "type": "function",
      "signature": "0x18160ddd"
    },
    {
      "constant": false,
      "inputs": [
        {
          "name": "from",
          "type": "address"
        },
        {
          "name": "to",
          "type": "address"
        },
        {
          "name": "value",
          "type": "uint256"
        }
      ],
      "name": "transferFrom",
      "outputs": [
        {
          "name": "",
          "type": "bool"
        }
      ],
      "payable": false,
      "stateMutability": "nonpayable",
      "type": "function",
      "signature": "0x23b872dd"
    },
    {
      "constant": true,
      "inputs": [],
      "name": "decimals",
      "outputs": [
        {
          "name": "",
          "type": "uint32"
        }
      ],
      "payable": false,
      "stateMutability": "view",
      "type": "function",
      "signature": "0x313ce567"
    },
    {
      "constant": false,
      "inputs": [
        {
          "name": "spender",
          "type": "address"
        },
        {
          "name": "addedValue",
          "type": "uint256"
        }
      ],
      "name": "increaseAllowance",
      "outputs": [
        {
          "name": "",
          "type": "bool"
        }
      ],
      "payable": false,
      "stateMutability": "nonpayable",
      "type": "function",
      "signature": "0x39509351"
    },
    {
      "constant": false,
      "inputs": [
        {
          "name": "_pseudo",
          "type": "string"
        }
      ],
      "name": "fermetureCanal",
      "outputs": [],
      "payable": false,
      "stateMutability": "nonpayable",
      "type": "function",
      "signature": "0x4dc88729"
    },
    {
      "constant": true,
      "inputs": [
        {
          "name": "owner",
          "type": "address"
        }
      ],
      "name": "balanceOf",
      "outputs": [
        {
          "name": "",
          "type": "uint256"
        }
      ],
      "payable": false,
      "stateMutability": "view",
      "type": "function",
      "signature": "0x70a08231"
    },
    {
      "constant": true,
      "inputs": [],
      "name": "owner",
      "outputs": [
        {
          "name": "",
          "type": "address"
        }
      ],
      "payable": false,
      "stateMutability": "view",
      "type": "function",
      "signature": "0x8da5cb5b"
    },
    {
      "constant": false,
      "inputs": [
        {
          "name": "_membre",
          "type": "address"
        },
        {
          "name": "_groupe",
          "type": "string"
        },
        {
          "name": "_pseudo",
          "type": "string"
        }
      ],
      "name": "ajouterMembre",
      "outputs": [],
      "payable": false,
      "stateMutability": "nonpayable",
      "type": "function",
      "signature": "0x8f333341"
    },
    {
      "constant": true,
      "inputs": [],
      "name": "symbol",
      "outputs": [
        {
          "name": "",
          "type": "string"
        }
      ],
      "payable": false,
      "stateMutability": "view",
      "type": "function",
      "signature": "0x95d89b41"
    },
    {
      "constant": false,
      "inputs": [
        {
          "name": "spender",
          "type": "address"
        },
        {
          "name": "subtractedValue",
          "type": "uint256"
        }
      ],
      "name": "decreaseAllowance",
      "outputs": [
        {
          "name": "",
          "type": "bool"
        }
      ],
      "payable": false,
      "stateMutability": "nonpayable",
      "type": "function",
      "signature": "0xa457c2d7"
    },
    {
      "constant": false,
      "inputs": [
        {
          "name": "to",
          "type": "address"
        },
        {
          "name": "value",
          "type": "uint256"
        }
      ],
      "name": "transfer",
      "outputs": [
        {
          "name": "",
          "type": "bool"
        }
      ],
      "payable": false,
      "stateMutability": "nonpayable",
      "type": "function",
      "signature": "0xa9059cbb"
    },
    {
      "constant": true,
      "inputs": [
        {
          "name": "owner",
          "type": "address"
        },
        {
          "name": "spender",
          "type": "address"
        }
      ],
      "name": "allowance",
      "outputs": [
        {
          "name": "",
          "type": "uint256"
        }
      ],
      "payable": false,
      "stateMutability": "view",
      "type": "function",
      "signature": "0xdd62ed3e"
    },
    {
      "constant": false,
      "inputs": [
        {
          "name": "newOwner",
          "type": "address"
        }
      ],
      "name": "transferOwnership",
      "outputs": [],
      "payable": false,
      "stateMutability": "nonpayable",
      "type": "function",
      "signature": "0xf2fde38b"
    },
    {
      "constant": false,
      "inputs": [
        {
          "name": "_nom",
          "type": "string"
        },
        {
          "name": "_pseudo",
          "type": "string"
        }
      ],
      "name": "creerGroupe",
      "outputs": [],
      "payable": false,
      "stateMutability": "nonpayable",
      "type": "function",
      "signature": "0xf4343df4"
    },
    {
      "constant": false,
      "inputs": [
        {
          "name": "_montant",
          "type": "uint256"
        },
        {
          "name": "_delai",
          "type": "uint256"
        },
        {
          "name": "_pseudo",
          "type": "string"
        },
        {
          "name": "_description",
          "type": "string"
        }
      ],
      "name": "demander",
      "outputs": [],
      "payable": true,
      "stateMutability": "payable",
      "type": "function",
      "signature": "0xfa8622f9"
    },
    {
      "anonymous": false,
      "inputs": [
        {
          "indexed": true,
          "name": "previousOwner",
          "type": "address"
        },
        {
          "indexed": true,
          "name": "newOwner",
          "type": "address"
        }
      ],
      "name": "OwnershipTransferred",
      "type": "event",
      "signature": "0x8be0079c531659141344cd1fd0a4f28419497f9722a3daafe3b4186f6b6457e0"
    },
    {
      "anonymous": false,
      "inputs": [
        {
          "indexed": true,
          "name": "from",
          "type": "address"
        },
        {
          "indexed": true,
          "name": "to",
          "type": "address"
        },
        {
          "indexed": false,
          "name": "value",
          "type": "uint256"
        }
      ],
      "name": "Transfer",
      "type": "event",
      "signature": "0xddf252ad1be2c89b69c2b068fc378daa952ba7f163c4a11628f55a4df523b3ef"
    },
    {
      "anonymous": false,
      "inputs": [
        {
          "indexed": true,
          "name": "owner",
          "type": "address"
        },
        {
          "indexed": true,
          "name": "spender",
          "type": "address"
        },
        {
          "indexed": false,
          "name": "value",
          "type": "uint256"
        }
      ],
      "name": "Approval",
      "type": "event",
      "signature": "0x8c5be1e5ebec7d5bd14f71427d1e84f3dd0314c0f7b2291e5b200ac8c7c3b925"
    },
    {
      "constant": false,
      "inputs": [
        {
          "name": "_maxGroups",
          "type": "uint256"
        }
      ],
      "name": "modifierMaxGroups",
      "outputs": [],
      "payable": false,
      "stateMutability": "nonpayable",
      "type": "function",
      "signature": "0xf420948b"
    },
    {
      "constant": false,
      "inputs": [
        {
          "name": "_maxDelai",
          "type": "uint256"
        }
      ],
      "name": "modifierDelai",
      "outputs": [],
      "payable": false,
      "stateMutability": "nonpayable",
      "type": "function",
      "signature": "0xe0c989c2"
    },
    {
      "constant": false,
      "inputs": [
        {
          "name": "_maxMembre",
          "type": "uint256"
        }
      ],
      "name": "modifierMaxMembre",
      "outputs": [],
      "payable": false,
      "stateMutability": "nonpayable",
      "type": "function",
      "signature": "0x1c064aa7"
    },
    {
      "constant": false,
      "inputs": [
        {
          "name": "_maxAmount",
          "type": "uint256"
        }
      ],
      "name": "modifierMaxAmount",
      "outputs": [],
      "payable": false,
      "stateMutability": "nonpayable",
      "type": "function",
      "signature": "0xbeaf3b0d"
    },
    {
      "constant": false,
      "inputs": [
        {
          "name": "_minAmount",
          "type": "uint256"
        }
      ],
      "name": "modifierMinAmount",
      "outputs": [],
      "payable": false,
      "stateMutability": "nonpayable",
      "type": "function",
      "signature": "0xf4839772"
    },
    {
      "constant": false,
      "inputs": [
        {
          "name": "_priceChannel",
          "type": "uint256"
        }
      ],
      "name": "modifierPriceChannel",
      "outputs": [],
      "payable": false,
      "stateMutability": "nonpayable",
      "type": "function",
      "signature": "0x370c29f9"
    },
    {
      "constant": true,
      "inputs": [],
      "name": "getGroupesPerAddress",
      "outputs": [
        {
          "name": "",
          "type": "uint256[]"
        }
      ],
      "payable": false,
      "stateMutability": "view",
      "type": "function",
      "signature": "0x1e0afe57"
    },
    {
      "constant": true,
      "inputs": [
        {
          "name": "_groupe",
          "type": "string"
        }
      ],
      "name": "getMembres",
      "outputs": [
        {
          "name": "",
          "type": "uint256[]"
        }
      ],
      "payable": false,
      "stateMutability": "view",
      "type": "function",
      "signature": "0x29c77347"
    },
    {
      "constant": true,
      "inputs": [
        {
          "name": "_ID",
          "type": "uint256"
        }
      ],
      "name": "getNomMembre",
      "outputs": [
        {
          "name": "",
          "type": "string"
        }
      ],
      "payable": false,
      "stateMutability": "view",
      "type": "function",
      "signature": "0x4b7b03cf"
    },
    {
      "constant": true,
      "inputs": [
        {
          "name": "_ID",
          "type": "uint256"
        }
      ],
      "name": "getMontant",
      "outputs": [
        {
          "name": "",
          "type": "uint256"
        }
      ],
      "payable": false,
      "stateMutability": "view",
      "type": "function",
      "signature": "0x750fa0a3"
    },
    {
      "constant": true,
      "inputs": [
        {
          "name": "_ID",
          "type": "uint256"
        }
      ],
      "name": "getBlockFermeture",
      "outputs": [
        {
          "name": "",
          "type": "uint256"
        }
      ],
      "payable": false,
      "stateMutability": "view",
      "type": "function",
      "signature": "0xdf40e329"
    },
    {
      "constant": true,
      "inputs": [
        {
          "name": "_ID",
          "type": "uint256"
        }
      ],
      "name": "getEncours",
      "outputs": [
        {
          "name": "",
          "type": "uint256"
        }
      ],
      "payable": false,
      "stateMutability": "view",
      "type": "function",
      "signature": "0x4c9a9850"
    },
    {
      "constant": true,
      "inputs": [
        {
          "name": "_ID",
          "type": "uint256"
        }
      ],
      "name": "getDonnations",
      "outputs": [
        {
          "name": "",
          "type": "uint256"
        }
      ],
      "payable": false,
      "stateMutability": "view",
      "type": "function",
      "signature": "0x27f128b3"
    },
    {
      "constant": true,
      "inputs": [
        {
          "name": "_ID",
          "type": "uint256"
        }
      ],
      "name": "getDescription",
      "outputs": [
        {
          "name": "",
          "type": "string"
        }
      ],
      "payable": false,
      "stateMutability": "view",
      "type": "function",
      "signature": "0x4925ec55"
    },
    {
      "constant": true,
      "inputs": [
        {
          "name": "_ID",
          "type": "uint256"
        }
      ],
      "name": "getNomGroupe",
      "outputs": [
        {
          "name": "",
          "type": "string"
        }
      ],
      "payable": false,
      "stateMutability": "view",
      "type": "function",
      "signature": "0x41522997"
    }
  ],
  "bytecode": "0x608060405260038054600160a060020a031916331790556032601155600a600c5560c8600d556509184e72a000600e55612710600f5560646010556122bb806100496000396000f3fe6080604052600436106101a05763ffffffff7c010000000000000000000000000000000000000000000000000000000060003504166306fdde0381146101a5578063095ea7b31461022f5780630eef04fd1461027c57806318160ddd146103265780631c064aa71461034d5780631e0afe571461037757806323b872dd146103dc57806327f128b31461041f57806329c7734714610449578063313ce567146104fc578063370c29f91461052a5780633950935114610554578063415229971461058d5780634925ec55146105b75780634b7b03cf146105e15780634c9a98501461060b5780634dc887291461063557806370a08231146106e8578063750fa0a31461071b5780638da5cb5b146107455780638f3333411461077657806395d89b41146108c0578063a457c2d7146108d5578063a9059cbb1461090e578063beaf3b0d14610947578063dd62ed3e14610971578063df40e329146109ac578063e0c989c2146109d6578063f2fde38b14610a00578063f420948b14610a33578063f4343df414610a5d578063f483977214610b97578063fa8622f914610bc1575b600080fd5b3480156101b157600080fd5b506101ba610cfa565b6040805160208082528351818301528351919283929083019185019080838360005b838110156101f45781810151838201526020016101dc565b50505050905090810190601f1680156102215780820380516001836020036101000a031916815260200191505b509250505060405180910390f35b34801561023b57600080fd5b506102686004803603604081101561025257600080fd5b50600160a060020a038135169060200135610d31565b604080519115158252519081900360200190f35b6103246004803603604081101561029257600080fd5b8101906020810181356401000000008111156102ad57600080fd5b8201836020820111156102bf57600080fd5b803590602001918460018302840111640100000000831117156102e157600080fd5b91908080601f0160208091040260200160405190810160405280939291908181526020018383808284376000920191909152509295505091359250610d47915050565b005b34801561033257600080fd5b5061033b610e93565b60408051918252519081900360200190f35b34801561035957600080fd5b506103246004803603602081101561037057600080fd5b5035610e9a565b34801561038357600080fd5b5061038c610ed3565b60408051602080825283518183015283519192839290830191858101910280838360005b838110156103c85781810151838201526020016103b0565b505050509050019250505060405180910390f35b3480156103e857600080fd5b50610268600480360360608110156103ff57600080fd5b50600160a060020a03813581169160208101359091169060400135610f34565b34801561042b57600080fd5b5061033b6004803603602081101561044257600080fd5b5035610f8b565b34801561045557600080fd5b5061038c6004803603602081101561046c57600080fd5b81019060208101813564010000000081111561048757600080fd5b82018360208201111561049957600080fd5b803590602001918460018302840111640100000000831117156104bb57600080fd5b91908080601f016020809104026020016040519081016040528093929190818152602001838380828437600092019190915250929550610fa0945050505050565b34801561050857600080fd5b5061051161104e565b6040805163ffffffff9092168252519081900360200190f35b34801561053657600080fd5b506103246004803603602081101561054d57600080fd5b5035611053565b34801561056057600080fd5b506102686004803603604081101561057757600080fd5b50600160a060020a03813516906020013561107d565b34801561059957600080fd5b506101ba600480360360208110156105b057600080fd5b50356110b9565b3480156105c357600080fd5b506101ba600480360360208110156105da57600080fd5b5035611150565b3480156105ed57600080fd5b506101ba6004803603602081101561060457600080fd5b50356111bd565b34801561061757600080fd5b5061033b6004803603602081101561062e57600080fd5b503561123e565b34801561064157600080fd5b506103246004803603602081101561065857600080fd5b81019060208101813564010000000081111561067357600080fd5b82018360208201111561068557600080fd5b803590602001918460018302840111640100000000831117156106a757600080fd5b91908080601f016020809104026020016040519081016040528093929190818152602001838380828437600092019190915250929550611253945050505050565b3480156106f457600080fd5b5061033b6004803603602081101561070b57600080fd5b5035600160a060020a031661133f565b34801561072757600080fd5b5061033b6004803603602081101561073e57600080fd5b503561135a565b34801561075157600080fd5b5061075a61136f565b60408051600160a060020a039092168252519081900360200190f35b34801561078257600080fd5b506103246004803603606081101561079957600080fd5b600160a060020a0382351691908101906040810160208201356401000000008111156107c457600080fd5b8201836020820111156107d657600080fd5b803590602001918460018302840111640100000000831117156107f857600080fd5b91908080601f016020809104026020016040519081016040528093929190818152602001838380828437600092019190915250929594936020810193503591505064010000000081111561084b57600080fd5b82018360208201111561085d57600080fd5b8035906020019184600183028401116401000000008311171561087f57600080fd5b91908080601f01602080910402602001604051908101604052809392919081815260200183838082843760009201919091525092955061137e945050505050565b3480156108cc57600080fd5b506101ba611636565b3480156108e157600080fd5b50610268600480360360408110156108f857600080fd5b50600160a060020a03813516906020013561166d565b34801561091a57600080fd5b506102686004803603604081101561093157600080fd5b50600160a060020a0381351690602001356116a9565b34801561095357600080fd5b506103246004803603602081101561096a57600080fd5b50356116b6565b34801561097d57600080fd5b5061033b6004803603604081101561099457600080fd5b50600160a060020a03813581169160200135166116f6565b3480156109b857600080fd5b5061033b600480360360208110156109cf57600080fd5b5035611721565b3480156109e257600080fd5b50610324600480360360208110156109f957600080fd5b5035611736565b348015610a0c57600080fd5b5061032460048036036020811015610a2357600080fd5b5035600160a060020a0316611772565b348015610a3f57600080fd5b5061032460048036036020811015610a5657600080fd5b50356117fa565b348015610a6957600080fd5b5061032460048036036040811015610a8057600080fd5b810190602081018135640100000000811115610a9b57600080fd5b820183602082011115610aad57600080fd5b80359060200191846001830284011164010000000083111715610acf57600080fd5b91908080601f0160208091040260200160405190810160405280939291908181526020018383808284376000920191909152509295949360208101935035915050640100000000811115610b2257600080fd5b820183602082011115610b3457600080fd5b80359060200191846001830284011164010000000083111715610b5657600080fd5b91908080601f016020809104026020016040519081016040528093929190818152602001838380828437600092019190915250929550611834945050505050565b348015610ba357600080fd5b5061032460048036036020811015610bba57600080fd5b5035611b71565b61032460048036036080811015610bd757600080fd5b813591602081013591810190606081016040820135640100000000811115610bfe57600080fd5b820183602082011115610c1057600080fd5b80359060200191846001830284011164010000000083111715610c3257600080fd5b91908080601f0160208091040260200160405190810160405280939291908181526020018383808284376000920191909152509295949360208101935035915050640100000000811115610c8557600080fd5b820183602082011115610c9757600080fd5b80359060200191846001830284011164010000000083111715610cb957600080fd5b91908080601f016020809104026020016040519081016040528093929190818152602001838380828437600092019190915250929550611bae945050505050565b60408051808201909152600881527f67696d69636f696e000000000000000000000000000000000000000000000000602082015281565b6000610d3e338484611d80565b50600192915050565b8151602080840191909120600081815260049092526040909120600581015460029091015411610d7657600080fd5b6000818152600460208190526040909120015460ff161515600114610d9a57600080fd5b600081815260046020526040902060030154431115610db857600080fd5b600060105434811515610dc757fe5b049050610de333610dde348463ffffffff611e0c16565b611e1e565b346000841115610e5a5783610df73361133f565b1015610e0257600080fd5b6000838152600460205260409020600281015460059091015485011115610e4e5760008381526004602052604090206005810154600290910154610e4b9163ffffffff611e0c16565b93505b8301610e5a3385611ec8565b84516020958601206000908152600490955260408086206006018054830190559285529190932060050180549390910390920190915550565b6002545b90565b600354600160a060020a03163314610eb157600080fd5b60058110158015610ec3575060c88111155b1515610ece57600080fd5b600c55565b33600090815260056020908152604091829020805483518184028101840190945280845260609392830182828015610f2a57602002820191906000526020600020905b815481526020019060010190808311610f16575b5050505050905090565b6000610f41848484611f11565b600160a060020a038416600090815260016020908152604080832033808552925290912054610f81918691610f7c908663ffffffff611e0c16565b611d80565b5060019392505050565b60009081526004602052604090206006015490565b60606006826040518082805190602001908083835b60208310610fd45780518252601f199092019160209182019101610fb5565b51815160209384036101000a60001901801990921691161790529201948552506040805194859003820185208054808402870184019092528186529350915083018282801561104257602002820191906000526020600020905b81548152602001906001019080831161102e575b50505050509050919050565b601281565b600354600160a060020a0316331461106a57600080fd5b606481101561107857600080fd5b601055565b336000818152600160209081526040808320600160a060020a03871684529091528120549091610d3e918590610f7c908663ffffffff611fde16565b60008181526007602090815260409182902080548351601f60026000196101006001861615020190931692909204918201849004840281018401909452808452606093928301828280156110425780601f1061112357610100808354040283529160200191611042565b820191906000526020600020905b8154815290600101906020018083116111315750939695505050505050565b60008181526004602090815260409182902060070180548351601f60026000196101006001861615020190931692909204918201849004840281018401909452808452606093928301828280156110425780601f1061112357610100808354040283529160200191611042565b6060600460008381526020019081526020016000206001018054600181600116156101000203166002900480601f0160208091040260200160405190810160405280929190818152602001828054600181600116156101000203166002900480156110425780601f1061112357610100808354040283529160200191611042565b60009081526004602052604090206005015490565b80516020808301919091206000818152600492839052604090209091015460ff16151560011461128257600080fd5b600081815260046020526040902054600160a060020a031633146112a557600080fd5b600081815260046020526040808220600501549051339282156108fc02929190818181858888f193505050501580156112e2573d6000803e3d6000fd5b506000818152600460208181526040808420600581018590556002810185905560038101859055808401805460ff191690558151808401928390528581529486905292909152915161133a92600790920191906121f7565b505050565b600160a060020a031660009081526020819052604090205490565b60009081526004602052604090206002015490565b600354600160a060020a031681565b600c54600a836040518082805190602001908083835b602083106113b35780518252601f199092019160209182019101611394565b51815160209384036101000a60001901801990921691161790529201948552506040519384900301909220549290921091506113f0905057600080fd5b6000600160a060020a0316600b826040518082805190602001908083835b6020831061142d5780518252601f19909201916020918201910161140e565b51815160209384036101000a6000190180199092169116179052920194855250604051938490030190922054600160a060020a0316929092149150611473905057600080fd5b33600160a060020a03166008836040518082805190602001908083835b602083106114af5780518252601f199092019160209182019101611490565b51815160209384036101000a6000190180199092169116179052920194855250604051938490030190922054600160a060020a03169290921491506114f5905057600080fd5b82600b826040518082805190602001908083835b602083106115285780518252601f199092019160209182019101611509565b51815160209384036101000a60001901801990921691161790529201948552506040805194859003820185208054600160a060020a031916600160a060020a039788161790558751888301908120968a166000908152600584529182208054600181018255908352929091209091018590558651600a9488945092508291908083835b602083106115ca5780518252601f1990920191602091820191016115ab565b51815160209384036101000a6000190180199092169116179052920194855250604051938490038101909320805460018101825560009182529390209092018054600160a060020a031916600160a060020a038816179055506116309050828486611ff4565b50505050565b60408051808201909152600381527f474d430000000000000000000000000000000000000000000000000000000000602082015281565b336000818152600160209081526040808320600160a060020a03871684529091528120549091610d3e918590610f7c908663ffffffff611e0c16565b6000610d3e338484611f11565b600354600160a060020a031633146116cd57600080fd5b6298968081101580156116e65750655af3107a40008111155b15156116f157600080fd5b600e55565b600160a060020a03918216600090815260016020908152604080832093909416825291909152205490565b60009081526004602052604090206003015490565b600354600160a060020a0316331461174d57600080fd5b600a81101580156117625750633b9aca008111155b151561176d57600080fd5b600d55565b600354600160a060020a0316331461178957600080fd5b600160a060020a038116151561179e57600080fd5b600354604051600160a060020a038084169216907f8be0079c531659141344cd1fd0a4f28419497f9722a3daafe3b4186f6b6457e090600090a360038054600160a060020a031916600160a060020a0392909216919091179055565b600354600160a060020a0316331461181157600080fd5b600a811015801561182457506103e88111155b151561182f57600080fd5b601155565b6009826040518082805190602001908083835b602083106118665780518252601f199092019160209182019101611847565b51815160209384036101000a60001901801990921691161790529201948552506040519384900301909220541591506118a0905057600080fd5b60115433600090815260056020526040902054106118bd57600080fd5b6000600160a060020a0316600b826040518082805190602001908083835b602083106118fa5780518252601f1990920191602091820191016118db565b51815160209384036101000a6000190180199092169116179052920194855250604051938490030190922054600160a060020a0316929092149150611940905057600080fd5b33600b826040518082805190602001908083835b602083106119735780518252601f199092019160209182019101611954565b51815160209384036101000a600019018019909216911617905292019485525060405193849003810184208054600160a060020a031916600160a060020a0396909616959095179094555050835191840182812092839260099287928291908083835b602083106119f55780518252601f1990920191602091820191016119d6565b51815160209384036101000a6000190180199092169116179052920194855250604051938490038101842094909455505084513392600892879290918291908401908083835b60208310611a5a5780518252601f199092019160209182019101611a3b565b51815160209384036101000a6000190180199092169116179052920194855250604080519485900382019094208054600160a060020a031916600160a060020a0396909616959095179094555050600083815260078352208451611ac0928601906121f7565b50600a836040518082805190602001908083835b60208310611af35780518252601f199092019160209182019101611ad4565b51815160209384036101000a6000190180199092169116179052920194855250604080519485900382019094208054600180820183556000928352838320909101805433600160a060020a0319909116811790915580835260058452958220805491820181558252919020018490555061133a918491508590611ff4565b600354600160a060020a03163314611b8857600080fd5b620186a08110158015611b9e5750620f42408111155b1515611ba957600080fd5b600f55565b6000600160a060020a0316600b836040518082805190602001908083835b60208310611beb5780518252601f199092019160209182019101611bcc565b51815160209384036101000a6000190180199092169116179052920194855250604051938490030190922054600160a060020a031692909214159150611c32905057600080fd5b33600160a060020a0316600b836040518082805190602001908083835b60208310611c6e5780518252601f199092019160209182019101611c4f565b51815160209384036101000a6000190180199092169116179052920194855250604051938490030190922054600160a060020a0316929092149150611cb4905057600080fd5b600f548410158015611cc85750600e548411155b1515611cd357600080fd5b600d54831115611ce257600080fd5b600060105485811515611cf157fe5b04905034811115611d0157600080fd5b82516020808501919091206000818152600492839052604090209091015460ff1615611d2c57600080fd5b600081815260046020818152604090922060028101899055348590036005820155908101805460ff1916600117905543870160038201558451611d77926007909201918601906121f7565b50505050505050565b600160a060020a0382161515611d9557600080fd5b600160a060020a0383161515611daa57600080fd5b600160a060020a03808416600081815260016020908152604080832094871680845294825291829020859055815185815291517f8c5be1e5ebec7d5bd14f71427d1e84f3dd0314c0f7b2291e5b200ac8c7c3b9259281900390910190a3505050565b600082821115611e1857fe5b50900390565b600160a060020a0382161515611e3357600080fd5b600254611e46908263ffffffff611fde16565b600255600160a060020a038216600090815260208190526040902054611e72908263ffffffff611fde16565b600160a060020a0383166000818152602081815260408083209490945583518581529351929391927fddf252ad1be2c89b69c2b068fc378daa952ba7f163c4a11628f55a4df523b3ef9281900390910190a35050565b611ed2828261214e565b600160a060020a038216600090815260016020908152604080832033808552925290912054611f0d918491610f7c908563ffffffff611e0c16565b5050565b600160a060020a0382161515611f2657600080fd5b600160a060020a038316600090815260208190526040902054611f4f908263ffffffff611e0c16565b600160a060020a038085166000908152602081905260408082209390935590841681522054611f84908263ffffffff611fde16565b600160a060020a038084166000818152602081815260409182902094909455805185815290519193928716927fddf252ad1be2c89b69c2b068fc378daa952ba7f163c4a11628f55a4df523b3ef92918290030190a3505050565b600082820183811015611fed57fe5b9392505050565b8251602084018181206040519092600160a060020a03851692600b928892909182918083835b602083106120395780518252601f19909201916020918201910161201a565b51815160209384036101000a6000190180199092169116179052920194855250604051938490030190922054600160a060020a031692909214915061207f905057600080fd5b6000818152600460208181526040909220908101805460ff1916905585516120af926001909201918701906121f7565b506000818152600460209081526040918290208054600160a060020a031916331790559051845160069286929182918401908083835b602083106121045780518252601f1990920191602091820191016120e5565b51815160209384036101000a600019018019909216911617905292019485525060405193849003810190932080546001810182556000918252939020909201929092555050505050565b600160a060020a038216151561216357600080fd5b600254612176908263ffffffff611e0c16565b600255600160a060020a0382166000908152602081905260409020546121a2908263ffffffff611e0c16565b600160a060020a038316600081815260208181526040808320949094558351858152935191937fddf252ad1be2c89b69c2b068fc378daa952ba7f163c4a11628f55a4df523b3ef929081900390910190a35050565b828054600181600116156101000203166002900490600052602060002090601f016020900481019282601f1061223857805160ff1916838001178555612265565b82800160010185558215612265579182015b8281111561226557825182559160200191906001019061224a565b50612271929150612275565b5090565b610e9791905b80821115612271576000815560010161227b56fea165627a7a72305820d3b3415c220bb1fdfa1d36d04d4493671811f0123b7a81643dbeab90f46eaa2e0029",
  "source": "pragma solidity ^0.5.0;\n\nimport \"./Cagnottes.sol\";\nimport \"./InterfaceCagnottes.sol\";\n\ncontract EtherUnion is Cagnottes, InterfaceCagnottes{\n\nfunction modifierMaxGroups(uint _maxGroups) public onlyOwner\n{\n  require(_maxGroups >= 10 && _maxGroups <= 1000);\n  MAX_GROUPS = _maxGroups;\n}\n\nfunction modifierDelai(uint _maxDelai) public onlyOwner\n{\n  require(_maxDelai >= 10 && _maxDelai <= 1000000000);\n  MAX_DELAI = _maxDelai;\n}\n\nfunction modifierMaxMembre(uint _maxMembre) public onlyOwner\n{\n  require(_maxMembre >= 5 && _maxMembre <= 200);\n  MAX_MEMBRE = _maxMembre;\n}\n\nfunction modifierMaxAmount(uint _maxAmount) public onlyOwner\n{\n  require(_maxAmount >= 10000000 && _maxAmount <= 100000000000000);\n  MAX_AMOUNT = _maxAmount;\n}\n\nfunction modifierMinAmount(uint _minAmount) public onlyOwner\n{\n  require(_minAmount >= 100000 && _minAmount <= 1000000);\n  MIN_AMOUNT = _minAmount;\n}\n\nfunction modifierPriceChannel(uint _priceChannel) public onlyOwner\n{\n  require(_priceChannel >= 100);\n  PRICE_RATIO = _priceChannel;\n}\n\nfunction getGroupesPerAddress() public view returns (uint[] memory)\n{\n  return mappGroupesForAddress[msg.sender];\n}\n\nfunction getMembres(string memory _groupe) public view returns (uint[] memory)\n{\n  return mappGroupeAndChannels[_groupe];\n}\n\nfunction getNomMembre(uint _ID) public view returns (string memory)\n{\n  return mappChannel[_ID].pseudo;\n}\n\nfunction getMontant(uint _ID) public view returns (uint)\n{\n  return mappChannel[_ID].montant;\n}\n\nfunction getBlockFermeture(uint _ID) public view returns (uint)\n{\n  return mappChannel[_ID].blocFermeture;\n}\n\nfunction getEncours(uint _ID) public view returns (uint)\n{\n  return mappChannel[_ID].enCours;\n}\n\nfunction getDonnations(uint _ID) public view returns (uint)\n{\n  return mappChannel[_ID].donnations;\n}\n\nfunction getDescription(uint _ID) public view returns (string memory)\n{\n  return mappChannel[_ID].description;\n}\n\nfunction getNomGroupe(uint _ID) public view returns (string memory)\n{\n  return mappIDGroupe[_ID];\n}\n\n}\n",
  "sourcePath": "/Users/germaindacunha/Desktop/Alyra/project/src/contracts/EtherUnion.sol",
  "compiler": {
    "name": "solc",
    "version": "0.5.0+commit.1d4f565a.Emscripten.clang"
  },
  "schemaVersion": "3.0.2",
  "updatedAt": "2019-03-26T13:47:36.408Z",
  "devdoc": {
    "methods": {
      "allowance(address,address)": {
        "details": "Function to check the amount of tokens that an owner allowed to a spender.",
        "params": {
          "owner": "address The address which owns the funds.",
          "spender": "address The address which will spend the funds."
        },
        "return": "A uint256 specifying the amount of tokens still available for the spender."
      },
      "approve(address,uint256)": {
        "details": "Approve the passed address to spend the specified amount of tokens on behalf of msg.sender. Beware that changing an allowance with this method brings the risk that someone may use both the old and the new allowance by unfortunate transaction ordering. One possible solution to mitigate this race condition is to first reduce the spender's allowance to 0 and set the desired value afterwards: https://github.com/ethereum/EIPs/issues/20#issuecomment-263524729",
        "params": {
          "spender": "The address which will spend the funds.",
          "value": "The amount of tokens to be spent."
        }
      },
      "balanceOf(address)": {
        "details": "Gets the balance of the specified address.",
        "params": {
          "owner": "The address to query the balance of."
        },
        "return": "A uint256 representing the amount owned by the passed address."
      },
      "decreaseAllowance(address,uint256)": {
        "details": "Decrease the amount of tokens that an owner allowed to a spender. approve should be called when _allowed[msg.sender][spender] == 0. To decrement allowed value is better to use this function to avoid 2 calls (and wait until the first transaction is mined) From MonolithDAO Token.sol Emits an Approval event.",
        "params": {
          "spender": "The address which will spend the funds.",
          "subtractedValue": "The amount of tokens to decrease the allowance by."
        }
      },
      "increaseAllowance(address,uint256)": {
        "details": "Increase the amount of tokens that an owner allowed to a spender. approve should be called when _allowed[msg.sender][spender] == 0. To increment allowed value is better to use this function to avoid 2 calls (and wait until the first transaction is mined) From MonolithDAO Token.sol Emits an Approval event.",
        "params": {
          "addedValue": "The amount of tokens to increase the allowance by.",
          "spender": "The address which will spend the funds."
        }
      },
      "totalSupply()": {
        "details": "Total number of tokens in existence"
      },
      "transfer(address,uint256)": {
        "details": "Transfer token to a specified address",
        "params": {
          "to": "The address to transfer to.",
          "value": "The amount to be transferred."
        }
      },
      "transferFrom(address,address,uint256)": {
        "details": "Transfer tokens from one address to another. Note that while this function emits an Approval event, this is not required as per the specification, and other compliant implementations may not emit the event.",
        "params": {
          "from": "address The address which you want to send tokens from",
          "to": "address The address which you want to transfer to",
          "value": "uint256 the amount of tokens to be transferred"
        }
      },
      "transferOwnership(address)": {
        "details": "Allows the current owner to transfer control of the contract to a newOwner.",
        "params": {
          "newOwner": "The address to transfer ownership to."
        }
      }
    }
  },
  "userdoc": {
    "methods": {}
  }
}