{
  "contractName": "EtherUnion",
  "abi": [
    {
      "constant": true,
      "inputs": [],
      "name": "name",
      "outputs": [
        {
          "name": "",
          "type": "string"
        }
      ],
      "payable": false,
      "stateMutability": "view",
      "type": "function",
      "signature": "0x06fdde03"
    },
    {
      "constant": false,
      "inputs": [
        {
          "name": "spender",
          "type": "address"
        },
        {
          "name": "value",
          "type": "uint256"
        }
      ],
      "name": "approve",
      "outputs": [
        {
          "name": "",
          "type": "bool"
        }
      ],
      "payable": false,
      "stateMutability": "nonpayable",
      "type": "function",
      "signature": "0x095ea7b3"
    },
    {
      "constant": false,
      "inputs": [
        {
          "name": "_pseudo",
          "type": "string"
        },
        {
          "name": "_token",
          "type": "uint256"
        }
      ],
      "name": "payerCanal",
      "outputs": [],
      "payable": true,
      "stateMutability": "payable",
      "type": "function",
      "signature": "0x0eef04fd"
    },
    {
      "constant": true,
      "inputs": [],
      "name": "totalSupply",
      "outputs": [
        {
          "name": "",
          "type": "uint256"
        }
      ],
      "payable": false,
      "stateMutability": "view",
      "type": "function",
      "signature": "0x18160ddd"
    },
    {
      "constant": false,
      "inputs": [
        {
          "name": "from",
          "type": "address"
        },
        {
          "name": "to",
          "type": "address"
        },
        {
          "name": "value",
          "type": "uint256"
        }
      ],
      "name": "transferFrom",
      "outputs": [
        {
          "name": "",
          "type": "bool"
        }
      ],
      "payable": false,
      "stateMutability": "nonpayable",
      "type": "function",
      "signature": "0x23b872dd"
    },
    {
      "constant": true,
      "inputs": [],
      "name": "decimals",
      "outputs": [
        {
          "name": "",
          "type": "uint32"
        }
      ],
      "payable": false,
      "stateMutability": "view",
      "type": "function",
      "signature": "0x313ce567"
    },
    {
      "constant": false,
      "inputs": [
        {
          "name": "spender",
          "type": "address"
        },
        {
          "name": "addedValue",
          "type": "uint256"
        }
      ],
      "name": "increaseAllowance",
      "outputs": [
        {
          "name": "",
          "type": "bool"
        }
      ],
      "payable": false,
      "stateMutability": "nonpayable",
      "type": "function",
      "signature": "0x39509351"
    },
    {
      "constant": false,
      "inputs": [
        {
          "name": "_pseudo",
          "type": "string"
        }
      ],
      "name": "fermetureCanal",
      "outputs": [],
      "payable": false,
      "stateMutability": "nonpayable",
      "type": "function",
      "signature": "0x4dc88729"
    },
    {
      "constant": true,
      "inputs": [
        {
          "name": "owner",
          "type": "address"
        }
      ],
      "name": "balanceOf",
      "outputs": [
        {
          "name": "",
          "type": "uint256"
        }
      ],
      "payable": false,
      "stateMutability": "view",
      "type": "function",
      "signature": "0x70a08231"
    },
    {
      "constant": false,
      "inputs": [
        {
          "name": "_montant",
          "type": "uint256"
        },
        {
          "name": "_delai",
          "type": "uint256"
        },
        {
          "name": "_pseudo",
          "type": "string"
        },
        {
          "name": "_description",
          "type": "string"
        },
        {
          "name": "_contrat",
          "type": "address"
        }
      ],
      "name": "demander",
      "outputs": [],
      "payable": true,
      "stateMutability": "payable",
      "type": "function",
      "signature": "0x73343f1a"
    },
    {
      "constant": true,
      "inputs": [],
      "name": "owner",
      "outputs": [
        {
          "name": "",
          "type": "address"
        }
      ],
      "payable": false,
      "stateMutability": "view",
      "type": "function",
      "signature": "0x8da5cb5b"
    },
    {
      "constant": false,
      "inputs": [
        {
          "name": "_membre",
          "type": "address"
        },
        {
          "name": "_groupe",
          "type": "string"
        },
        {
          "name": "_pseudo",
          "type": "string"
        }
      ],
      "name": "ajouterMembre",
      "outputs": [],
      "payable": false,
      "stateMutability": "nonpayable",
      "type": "function",
      "signature": "0x8f333341"
    },
    {
      "constant": true,
      "inputs": [],
      "name": "symbol",
      "outputs": [
        {
          "name": "",
          "type": "string"
        }
      ],
      "payable": false,
      "stateMutability": "view",
      "type": "function",
      "signature": "0x95d89b41"
    },
    {
      "constant": false,
      "inputs": [
        {
          "name": "spender",
          "type": "address"
        },
        {
          "name": "subtractedValue",
          "type": "uint256"
        }
      ],
      "name": "decreaseAllowance",
      "outputs": [
        {
          "name": "",
          "type": "bool"
        }
      ],
      "payable": false,
      "stateMutability": "nonpayable",
      "type": "function",
      "signature": "0xa457c2d7"
    },
    {
      "constant": false,
      "inputs": [
        {
          "name": "to",
          "type": "address"
        },
        {
          "name": "value",
          "type": "uint256"
        }
      ],
      "name": "transfer",
      "outputs": [
        {
          "name": "",
          "type": "bool"
        }
      ],
      "payable": false,
      "stateMutability": "nonpayable",
      "type": "function",
      "signature": "0xa9059cbb"
    },
    {
      "constant": true,
      "inputs": [
        {
          "name": "owner",
          "type": "address"
        },
        {
          "name": "spender",
          "type": "address"
        }
      ],
      "name": "allowance",
      "outputs": [
        {
          "name": "",
          "type": "uint256"
        }
      ],
      "payable": false,
      "stateMutability": "view",
      "type": "function",
      "signature": "0xdd62ed3e"
    },
    {
      "constant": false,
      "inputs": [
        {
          "name": "newOwner",
          "type": "address"
        }
      ],
      "name": "transferOwnership",
      "outputs": [],
      "payable": false,
      "stateMutability": "nonpayable",
      "type": "function",
      "signature": "0xf2fde38b"
    },
    {
      "constant": false,
      "inputs": [
        {
          "name": "_nom",
          "type": "string"
        },
        {
          "name": "_pseudo",
          "type": "string"
        }
      ],
      "name": "creerGroupe",
      "outputs": [],
      "payable": false,
      "stateMutability": "nonpayable",
      "type": "function",
      "signature": "0xf4343df4"
    },
    {
      "anonymous": false,
      "inputs": [
        {
          "indexed": true,
          "name": "previousOwner",
          "type": "address"
        },
        {
          "indexed": true,
          "name": "newOwner",
          "type": "address"
        }
      ],
      "name": "OwnershipTransferred",
      "type": "event",
      "signature": "0x8be0079c531659141344cd1fd0a4f28419497f9722a3daafe3b4186f6b6457e0"
    },
    {
      "anonymous": false,
      "inputs": [
        {
          "indexed": true,
          "name": "from",
          "type": "address"
        },
        {
          "indexed": true,
          "name": "to",
          "type": "address"
        },
        {
          "indexed": false,
          "name": "value",
          "type": "uint256"
        }
      ],
      "name": "Transfer",
      "type": "event",
      "signature": "0xddf252ad1be2c89b69c2b068fc378daa952ba7f163c4a11628f55a4df523b3ef"
    },
    {
      "anonymous": false,
      "inputs": [
        {
          "indexed": true,
          "name": "owner",
          "type": "address"
        },
        {
          "indexed": true,
          "name": "spender",
          "type": "address"
        },
        {
          "indexed": false,
          "name": "value",
          "type": "uint256"
        }
      ],
      "name": "Approval",
      "type": "event",
      "signature": "0x8c5be1e5ebec7d5bd14f71427d1e84f3dd0314c0f7b2291e5b200ac8c7c3b925"
    },
    {
      "constant": false,
      "inputs": [
        {
          "name": "_maxGroups",
          "type": "uint256"
        }
      ],
      "name": "modifierMaxGroups",
      "outputs": [],
      "payable": false,
      "stateMutability": "nonpayable",
      "type": "function",
      "signature": "0xf420948b"
    },
    {
      "constant": false,
      "inputs": [
        {
          "name": "_maxDelai",
          "type": "uint256"
        }
      ],
      "name": "modifierDelai",
      "outputs": [],
      "payable": false,
      "stateMutability": "nonpayable",
      "type": "function",
      "signature": "0xe0c989c2"
    },
    {
      "constant": false,
      "inputs": [
        {
          "name": "_maxMembre",
          "type": "uint256"
        }
      ],
      "name": "modifierMaxMembre",
      "outputs": [],
      "payable": false,
      "stateMutability": "nonpayable",
      "type": "function",
      "signature": "0x1c064aa7"
    },
    {
      "constant": false,
      "inputs": [
        {
          "name": "_maxAmount",
          "type": "uint256"
        }
      ],
      "name": "modifierMaxAmount",
      "outputs": [],
      "payable": false,
      "stateMutability": "nonpayable",
      "type": "function",
      "signature": "0xbeaf3b0d"
    },
    {
      "constant": false,
      "inputs": [
        {
          "name": "_minAmount",
          "type": "uint256"
        }
      ],
      "name": "modifierMinAmount",
      "outputs": [],
      "payable": false,
      "stateMutability": "nonpayable",
      "type": "function",
      "signature": "0xf4839772"
    },
    {
      "constant": false,
      "inputs": [
        {
          "name": "_priceChannel",
          "type": "uint256"
        }
      ],
      "name": "modifierPriceChannel",
      "outputs": [],
      "payable": false,
      "stateMutability": "nonpayable",
      "type": "function",
      "signature": "0x370c29f9"
    },
    {
      "constant": true,
      "inputs": [],
      "name": "getGroupesPerAddress",
      "outputs": [
        {
          "name": "",
          "type": "uint256[]"
        }
      ],
      "payable": false,
      "stateMutability": "view",
      "type": "function",
      "signature": "0x1e0afe57"
    },
    {
      "constant": true,
      "inputs": [
        {
          "name": "_groupe",
          "type": "string"
        }
      ],
      "name": "getMembres",
      "outputs": [
        {
          "name": "",
          "type": "uint256[]"
        }
      ],
      "payable": false,
      "stateMutability": "view",
      "type": "function",
      "signature": "0x29c77347"
    },
    {
      "constant": true,
      "inputs": [
        {
          "name": "_ID",
          "type": "uint256"
        }
      ],
      "name": "getNomMembre",
      "outputs": [
        {
          "name": "",
          "type": "string"
        }
      ],
      "payable": false,
      "stateMutability": "view",
      "type": "function",
      "signature": "0x4b7b03cf"
    },
    {
      "constant": true,
      "inputs": [
        {
          "name": "_ID",
          "type": "uint256"
        }
      ],
      "name": "getContratCible",
      "outputs": [
        {
          "name": "",
          "type": "address"
        }
      ],
      "payable": false,
      "stateMutability": "view",
      "type": "function",
      "signature": "0x39f88c15"
    },
    {
      "constant": true,
      "inputs": [
        {
          "name": "_ID",
          "type": "uint256"
        }
      ],
      "name": "getMontant",
      "outputs": [
        {
          "name": "",
          "type": "uint256"
        }
      ],
      "payable": false,
      "stateMutability": "view",
      "type": "function",
      "signature": "0x750fa0a3"
    },
    {
      "constant": true,
      "inputs": [
        {
          "name": "_ID",
          "type": "uint256"
        }
      ],
      "name": "getBlockFermeture",
      "outputs": [
        {
          "name": "",
          "type": "uint256"
        }
      ],
      "payable": false,
      "stateMutability": "view",
      "type": "function",
      "signature": "0xdf40e329"
    },
    {
      "constant": true,
      "inputs": [
        {
          "name": "_ID",
          "type": "uint256"
        }
      ],
      "name": "getEncours",
      "outputs": [
        {
          "name": "",
          "type": "uint256"
        }
      ],
      "payable": false,
      "stateMutability": "view",
      "type": "function",
      "signature": "0x4c9a9850"
    },
    {
      "constant": true,
      "inputs": [
        {
          "name": "_ID",
          "type": "uint256"
        }
      ],
      "name": "getDonnations",
      "outputs": [
        {
          "name": "",
          "type": "uint256"
        }
      ],
      "payable": false,
      "stateMutability": "view",
      "type": "function",
      "signature": "0x27f128b3"
    },
    {
      "constant": true,
      "inputs": [
        {
          "name": "_ID",
          "type": "uint256"
        }
      ],
      "name": "getDescription",
      "outputs": [
        {
          "name": "",
          "type": "string"
        }
      ],
      "payable": false,
      "stateMutability": "view",
      "type": "function",
      "signature": "0x4925ec55"
    },
    {
      "constant": true,
      "inputs": [
        {
          "name": "_ID",
          "type": "uint256"
        }
      ],
      "name": "getNomGroupe",
      "outputs": [
        {
          "name": "",
          "type": "string"
        }
      ],
      "payable": false,
      "stateMutability": "view",
      "type": "function",
      "signature": "0x41522997"
    },
    {
      "constant": true,
      "inputs": [
        {
          "name": "groupe",
          "type": "string"
        }
      ],
      "name": "getOwnPseudo",
      "outputs": [
        {
          "name": "",
          "type": "string"
        }
      ],
      "payable": false,
      "stateMutability": "view",
      "type": "function",
      "signature": "0xaa4e8fd5"
    }
  ],
  "bytecode": "0x608060405260038054600160a060020a031916331790556032601155600a600c5560c8600d556509184e72a000600e55612710600f55606460105561267c806100496000396000f3fe6080604052600436106101b65763ffffffff7c010000000000000000000000000000000000000000000000000000000060003504166306fdde0381146101bb578063095ea7b3146102455780630eef04fd1461029257806318160ddd1461033c5780631c064aa7146103635780631e0afe571461038d57806323b872dd146103f257806327f128b31461043557806329c773471461045f578063313ce56714610512578063370c29f914610540578063395093511461056a57806339f88c15146105a357806341522997146105e95780634925ec55146106135780634b7b03cf1461063d5780634c9a9850146106675780634dc887291461069157806370a082311461074457806373343f1a14610777578063750fa0a3146108bb5780638da5cb5b146108e55780638f333341146108fa57806395d89b4114610a44578063a457c2d714610a59578063a9059cbb14610a92578063aa4e8fd514610acb578063beaf3b0d14610b7e578063dd62ed3e14610ba8578063df40e32914610be3578063e0c989c214610c0d578063f2fde38b14610c37578063f420948b14610c6a578063f4343df414610c94578063f483977214610dce575b600080fd5b3480156101c757600080fd5b506101d0610df8565b6040805160208082528351818301528351919283929083019185019080838360005b8381101561020a5781810151838201526020016101f2565b50505050905090810190601f1680156102375780820380516001836020036101000a031916815260200191505b509250505060405180910390f35b34801561025157600080fd5b5061027e6004803603604081101561026857600080fd5b50600160a060020a038135169060200135610e2f565b604080519115158252519081900360200190f35b61033a600480360360408110156102a857600080fd5b8101906020810181356401000000008111156102c357600080fd5b8201836020820111156102d557600080fd5b803590602001918460018302840111640100000000831117156102f757600080fd5b91908080601f0160208091040260200160405190810160405280939291908181526020018383808284376000920191909152509295505091359250610e45915050565b005b34801561034857600080fd5b50610351610f91565b60408051918252519081900360200190f35b34801561036f57600080fd5b5061033a6004803603602081101561038657600080fd5b5035610f98565b34801561039957600080fd5b506103a2610fd1565b60408051602080825283518183015283519192839290830191858101910280838360005b838110156103de5781810151838201526020016103c6565b505050509050019250505060405180910390f35b3480156103fe57600080fd5b5061027e6004803603606081101561041557600080fd5b50600160a060020a03813581169160208101359091169060400135611032565b34801561044157600080fd5b506103516004803603602081101561045857600080fd5b5035611089565b34801561046b57600080fd5b506103a26004803603602081101561048257600080fd5b81019060208101813564010000000081111561049d57600080fd5b8201836020820111156104af57600080fd5b803590602001918460018302840111640100000000831117156104d157600080fd5b91908080601f0160208091040260200160405190810160405280939291908181526020018383808284376000920191909152509295506110a1945050505050565b34801561051e57600080fd5b5061052761114f565b6040805163ffffffff9092168252519081900360200190f35b34801561054c57600080fd5b5061033a6004803603602081101561056357600080fd5b5035611154565b34801561057657600080fd5b5061027e6004803603604081101561058d57600080fd5b50600160a060020a03813516906020013561117e565b3480156105af57600080fd5b506105cd600480360360208110156105c657600080fd5b50356111ba565b60408051600160a060020a039092168252519081900360200190f35b3480156105f557600080fd5b506101d06004803603602081101561060c57600080fd5b50356111d8565b34801561061f57600080fd5b506101d06004803603602081101561063657600080fd5b503561126f565b34801561064957600080fd5b506101d06004803603602081101561066057600080fd5b50356112dc565b34801561067357600080fd5b506103516004803603602081101561068a57600080fd5b503561135d565b34801561069d57600080fd5b5061033a600480360360208110156106b457600080fd5b8101906020810181356401000000008111156106cf57600080fd5b8201836020820111156106e157600080fd5b8035906020019184600183028401116401000000008311171561070357600080fd5b91908080601f016020809104026020016040519081016040528093929190818152602001838380828437600092019190915250929550611372945050505050565b34801561075057600080fd5b506103516004803603602081101561076757600080fd5b5035600160a060020a031661147c565b61033a600480360360a081101561078d57600080fd5b8135916020810135918101906060810160408201356401000000008111156107b457600080fd5b8201836020820111156107c657600080fd5b803590602001918460018302840111640100000000831117156107e857600080fd5b91908080601f016020809104026020016040519081016040528093929190818152602001838380828437600092019190915250929594936020810193503591505064010000000081111561083b57600080fd5b82018360208201111561084d57600080fd5b8035906020019184600183028401116401000000008311171561086f57600080fd5b91908080601f01602080910402602001604051908101604052809392919081815260200183838082843760009201919091525092955050509035600160a060020a031691506114979050565b3480156108c757600080fd5b50610351600480360360208110156108de57600080fd5b5035611698565b3480156108f157600080fd5b506105cd6116ad565b34801561090657600080fd5b5061033a6004803603606081101561091d57600080fd5b600160a060020a03823516919081019060408101602082013564010000000081111561094857600080fd5b82018360208201111561095a57600080fd5b8035906020019184600183028401116401000000008311171561097c57600080fd5b91908080601f01602080910402602001604051908101604052809392919081815260200183838082843760009201919091525092959493602081019350359150506401000000008111156109cf57600080fd5b8201836020820111156109e157600080fd5b80359060200191846001830284011164010000000083111715610a0357600080fd5b91908080601f0160208091040260200160405190810160405280939291908181526020018383808284376000920191909152509295506116bc945050505050565b348015610a5057600080fd5b506101d0611974565b348015610a6557600080fd5b5061027e60048036036040811015610a7c57600080fd5b50600160a060020a0381351690602001356119ab565b348015610a9e57600080fd5b5061027e60048036036040811015610ab557600080fd5b50600160a060020a0381351690602001356119e7565b348015610ad757600080fd5b506101d060048036036020811015610aee57600080fd5b810190602081018135640100000000811115610b0957600080fd5b820183602082011115610b1b57600080fd5b80359060200191846001830284011164010000000083111715610b3d57600080fd5b91908080601f0160208091040260200160405190810160405280939291908181526020018383808284376000920191909152509295506119f4945050505050565b348015610b8a57600080fd5b5061033a60048036036020811015610ba157600080fd5b5035611c44565b348015610bb457600080fd5b5061035160048036036040811015610bcb57600080fd5b50600160a060020a0381358116916020013516611c84565b348015610bef57600080fd5b5061035160048036036020811015610c0657600080fd5b5035611caf565b348015610c1957600080fd5b5061033a60048036036020811015610c3057600080fd5b5035611cc4565b348015610c4357600080fd5b5061033a60048036036020811015610c5a57600080fd5b5035600160a060020a0316611d00565b348015610c7657600080fd5b5061033a60048036036020811015610c8d57600080fd5b5035611d88565b348015610ca057600080fd5b5061033a60048036036040811015610cb757600080fd5b810190602081018135640100000000811115610cd257600080fd5b820183602082011115610ce457600080fd5b80359060200191846001830284011164010000000083111715610d0657600080fd5b91908080601f0160208091040260200160405190810160405280939291908181526020018383808284376000920191909152509295949360208101935035915050640100000000811115610d5957600080fd5b820183602082011115610d6b57600080fd5b80359060200191846001830284011164010000000083111715610d8d57600080fd5b91908080601f016020809104026020016040519081016040528093929190818152602001838380828437600092019190915250929550611dc2945050505050565b348015610dda57600080fd5b5061033a60048036036020811015610df157600080fd5b5035612104565b60408051808201909152600881527f67696d69636f696e000000000000000000000000000000000000000000000000602082015281565b6000610e3c338484612141565b50600192915050565b8151602080840191909120600081815260049092526040909120600581015460029091015411610e7457600080fd5b6000818152600460208190526040909120015460ff161515600114610e9857600080fd5b600081815260046020526040902060030154431115610eb657600080fd5b600060105434811515610ec557fe5b049050610ee133610edc348463ffffffff6121cd16565b6121df565b346000841115610f585783610ef53361147c565b1015610f0057600080fd5b6000838152600460205260409020600281015460059091015485011115610f4c5760008381526004602052604090206005810154600290910154610f499163ffffffff6121cd16565b93505b8301610f583385612289565b84516020958601206000908152600490955260408086206006018054830190559285529190932060050180549390910390920190915550565b6002545b90565b600354600160a060020a03163314610faf57600080fd5b60058110158015610fc1575060c88111155b1515610fcc57600080fd5b600c55565b3360009081526005602090815260409182902080548351818402810184019094528084526060939283018282801561102857602002820191906000526020600020905b815481526020019060010190808311611014575b5050505050905090565b600061103f8484846122d2565b600160a060020a03841660009081526001602090815260408083203380855292529091205461107f91869161107a908663ffffffff6121cd16565b612141565b5060019392505050565b6000818152600460205260409020600601545b919050565b60606006826040518082805190602001908083835b602083106110d55780518252601f1990920191602091820191016110b6565b51815160209384036101000a60001901801990921691161790529201948552506040805194859003820185208054808402870184019092528186529350915083018282801561114357602002820191906000526020600020905b81548152602001906001019080831161112f575b50505050509050919050565b601281565b600354600160a060020a0316331461116b57600080fd5b606481101561117957600080fd5b601055565b336000818152600160209081526040808320600160a060020a03871684529091528120549091610e3c91859061107a908663ffffffff61239f16565b600090815260046020526040902060080154600160a060020a031690565b60008181526007602090815260409182902080548351601f60026000196101006001861615020190931692909204918201849004840281018401909452808452606093928301828280156111435780601f1061124257610100808354040283529160200191611143565b820191906000526020600020905b8154815290600101906020018083116112505750939695505050505050565b60008181526004602090815260409182902060070180548351601f60026000196101006001861615020190931692909204918201849004840281018401909452808452606093928301828280156111435780601f1061124257610100808354040283529160200191611143565b6060600460008381526020019081526020016000206001018054600181600116156101000203166002900480601f0160208091040260200160405190810160405280929190818152602001828054600181600116156101000203166002900480156111435780601f1061124257610100808354040283529160200191611143565b60009081526004602052604090206005015490565b80516020808301919091206000818152600492839052604090209091015460ff1615156001146113a157600080fd5b600081815260046020526040902054600160a060020a031633146113c457600080fd5b600081815260046020526040808220600501549051339282156108fc02929190818181858888f19350505050158015611401573d6000803e3d6000fd5b506000818152600460208181526040808420600581018590556002810185905560038101859055808401805460ff191690558151808401928390528581529486905292909152915161145992600790920191906125b8565b5060009081526004602052604090206008018054600160a060020a031916905550565b600160a060020a031660009081526020819052604090205490565b6000600160a060020a0316600b846040518082805190602001908083835b602083106114d45780518252601f1990920191602091820191016114b5565b51815160209384036101000a6000190180199092169116179052920194855250604051938490030190922054600160a060020a03169290921415915061151b905057600080fd5b33600160a060020a0316600b846040518082805190602001908083835b602083106115575780518252601f199092019160209182019101611538565b51815160209384036101000a6000190180199092169116179052920194855250604051938490030190922054600160a060020a031692909214915061159d905057600080fd5b600f5485101580156115b15750600e548511155b15156115bc57600080fd5b600d548411156115cb57600080fd5b6000601054868115156115da57fe5b049050348111156115ea57600080fd5b83516020808601919091206000818152600492839052604090209091015460ff161561161557600080fd5b6000818152600460208181526040909220600281018a9055348590036005820155908101805460ff1916600117905543880160038201558551611660926007909201918701906125b8565b5060009081526004602052604090206008018054600160a060020a031916600160a060020a0393909316929092179091555050505050565b60009081526004602052604090206002015490565b600354600160a060020a031681565b600c54600a836040518082805190602001908083835b602083106116f15780518252601f1990920191602091820191016116d2565b51815160209384036101000a600019018019909216911617905292019485525060405193849003019092205492909210915061172e905057600080fd5b6000600160a060020a0316600b826040518082805190602001908083835b6020831061176b5780518252601f19909201916020918201910161174c565b51815160209384036101000a6000190180199092169116179052920194855250604051938490030190922054600160a060020a03169290921491506117b1905057600080fd5b33600160a060020a03166008836040518082805190602001908083835b602083106117ed5780518252601f1990920191602091820191016117ce565b51815160209384036101000a6000190180199092169116179052920194855250604051938490030190922054600160a060020a0316929092149150611833905057600080fd5b82600b826040518082805190602001908083835b602083106118665780518252601f199092019160209182019101611847565b51815160209384036101000a60001901801990921691161790529201948552506040805194859003820185208054600160a060020a031916600160a060020a039788161790558751888301908120968a166000908152600584529182208054600181018255908352929091209091018590558651600a9488945092508291908083835b602083106119085780518252601f1990920191602091820191016118e9565b51815160209384036101000a6000190180199092169116179052920194855250604051938490038101909320805460018101825560009182529390209092018054600160a060020a031916600160a060020a0388161790555061196e90508284866123b5565b50505050565b60408051808201909152600381527f474d430000000000000000000000000000000000000000000000000000000000602082015281565b336000818152600160209081526040808320600160a060020a03871684529091528120549091610e3c91859061107a908663ffffffff6121cd16565b6000610e3c3384846122d2565b606060005b6006836040518082805190602001908083835b60208310611a2b5780518252601f199092019160209182019101611a0c565b51815160209384036101000a60001901801990921691161790529201948552506040519384900301909220548310159150611c3e90505733600160a060020a0316600460006006866040518082805190602001908083835b60208310611aa25780518252601f199092019160209182019101611a83565b51815160209384036101000a6000190180199092169116179052920194855250604051938490030190922080549092508691508110611add57fe5b60009182526020808320909101548352820192909252604001902054600160a060020a03161415611c3657600460006006856040518082805190602001908083835b60208310611b3e5780518252601f199092019160209182019101611b1f565b51815160209384036101000a6000190180199092169116179052920194855250604051938490030190922080549092508591508110611b7957fe5b906000526020600020015481526020019081526020016000206001018054600181600116156101000203166002900480601f016020809104026020016040519081016040528092919081815260200182805460018160011615610100020316600290048015611c295780601f10611bfe57610100808354040283529160200191611c29565b820191906000526020600020905b815481529060010190602001808311611c0c57829003601f168201915b505050505091505061109c565b6001016119f9565b50919050565b600354600160a060020a03163314611c5b57600080fd5b629896808110158015611c745750655af3107a40008111155b1515611c7f57600080fd5b600e55565b600160a060020a03918216600090815260016020908152604080832093909416825291909152205490565b60009081526004602052604090206003015490565b600354600160a060020a03163314611cdb57600080fd5b600a8110158015611cf05750633b9aca008111155b1515611cfb57600080fd5b600d55565b600354600160a060020a03163314611d1757600080fd5b600160a060020a0381161515611d2c57600080fd5b600354604051600160a060020a038084169216907f8be0079c531659141344cd1fd0a4f28419497f9722a3daafe3b4186f6b6457e090600090a360038054600160a060020a031916600160a060020a0392909216919091179055565b600354600160a060020a03163314611d9f57600080fd5b600a8110158015611db257506103e88111155b1515611dbd57600080fd5b601155565b6009826040518082805190602001908083835b60208310611df45780518252601f199092019160209182019101611dd5565b51815160209384036101000a6000190180199092169116179052920194855250604051938490030190922054159150611e2e905057600080fd5b6011543360009081526005602052604090205410611e4b57600080fd5b6000600160a060020a0316600b826040518082805190602001908083835b60208310611e885780518252601f199092019160209182019101611e69565b51815160209384036101000a6000190180199092169116179052920194855250604051938490030190922054600160a060020a0316929092149150611ece905057600080fd5b33600b826040518082805190602001908083835b60208310611f015780518252601f199092019160209182019101611ee2565b51815160209384036101000a600019018019909216911617905292019485525060405193849003810184208054600160a060020a031916600160a060020a0396909616959095179094555050835191840182812092839260099287928291908083835b60208310611f835780518252601f199092019160209182019101611f64565b51815160209384036101000a6000190180199092169116179052920194855250604051938490038101842094909455505084513392600892879290918291908401908083835b60208310611fe85780518252601f199092019160209182019101611fc9565b51815160209384036101000a6000190180199092169116179052920194855250604080519485900382019094208054600160a060020a031916600160a060020a039690961695909517909455505060008381526007835220845161204e928601906125b8565b50600a836040518082805190602001908083835b602083106120815780518252601f199092019160209182019101612062565b51815160209384036101000a6000190180199092169116179052920194855250604080519485900382019094208054600180820183556000928352838320909101805433600160a060020a031990911681179091558083526005845295822080549182018155825291902001849055506120ff9184915085906123b5565b505050565b600354600160a060020a0316331461211b57600080fd5b620186a081101580156121315750620f42408111155b151561213c57600080fd5b600f55565b600160a060020a038216151561215657600080fd5b600160a060020a038316151561216b57600080fd5b600160a060020a03808416600081815260016020908152604080832094871680845294825291829020859055815185815291517f8c5be1e5ebec7d5bd14f71427d1e84f3dd0314c0f7b2291e5b200ac8c7c3b9259281900390910190a3505050565b6000828211156121d957fe5b50900390565b600160a060020a03821615156121f457600080fd5b600254612207908263ffffffff61239f16565b600255600160a060020a038216600090815260208190526040902054612233908263ffffffff61239f16565b600160a060020a0383166000818152602081815260408083209490945583518581529351929391927fddf252ad1be2c89b69c2b068fc378daa952ba7f163c4a11628f55a4df523b3ef9281900390910190a35050565b612293828261250f565b600160a060020a0382166000908152600160209081526040808320338085529252909120546122ce91849161107a908563ffffffff6121cd16565b5050565b600160a060020a03821615156122e757600080fd5b600160a060020a038316600090815260208190526040902054612310908263ffffffff6121cd16565b600160a060020a038085166000908152602081905260408082209390935590841681522054612345908263ffffffff61239f16565b600160a060020a038084166000818152602081815260409182902094909455805185815290519193928716927fddf252ad1be2c89b69c2b068fc378daa952ba7f163c4a11628f55a4df523b3ef92918290030190a3505050565b6000828201838110156123ae57fe5b9392505050565b8251602084018181206040519092600160a060020a03851692600b928892909182918083835b602083106123fa5780518252601f1990920191602091820191016123db565b51815160209384036101000a6000190180199092169116179052920194855250604051938490030190922054600160a060020a0316929092149150612440905057600080fd5b6000818152600460208181526040909220908101805460ff191690558551612470926001909201918701906125b8565b506000818152600460209081526040918290208054600160a060020a031916331790559051845160069286929182918401908083835b602083106124c55780518252601f1990920191602091820191016124a6565b51815160209384036101000a600019018019909216911617905292019485525060405193849003810190932080546001810182556000918252939020909201929092555050505050565b600160a060020a038216151561252457600080fd5b600254612537908263ffffffff6121cd16565b600255600160a060020a038216600090815260208190526040902054612563908263ffffffff6121cd16565b600160a060020a038316600081815260208181526040808320949094558351858152935191937fddf252ad1be2c89b69c2b068fc378daa952ba7f163c4a11628f55a4df523b3ef929081900390910190a35050565b828054600181600116156101000203166002900490600052602060002090601f016020900481019282601f106125f957805160ff1916838001178555612626565b82800160010185558215612626579182015b8281111561262657825182559160200191906001019061260b565b50612632929150612636565b5090565b610f9591905b80821115612632576000815560010161263c56fea165627a7a7230582020ef3dae2d0ed3812eab97596bfdb7c7aa830be841fd08514c06d2495bb052d10029",
  "source": "pragma solidity ^0.5.0;\n\nimport \"./Cagnottes.sol\";\nimport \"./ICagnottes.sol\";\n\ncontract EtherUnion is Cagnottes, ICagnottes{\n\nfunction modifierMaxGroups(uint _maxGroups) public onlyOwner\n{\n  require(_maxGroups >= 10 && _maxGroups <= 1000);\n  MAX_GROUPS = _maxGroups;\n}\n\nfunction modifierDelai(uint _maxDelai) public onlyOwner\n{\n  require(_maxDelai >= 10 && _maxDelai <= 1000000000);\n  MAX_DELAI = _maxDelai;\n}\n\nfunction modifierMaxMembre(uint _maxMembre) public onlyOwner\n{\n  require(_maxMembre >= 5 && _maxMembre <= 200);\n  MAX_MEMBRE = _maxMembre;\n}\n\nfunction modifierMaxAmount(uint _maxAmount) public onlyOwner\n{\n  require(_maxAmount >= 10000000 && _maxAmount <= 100000000000000);\n  MAX_AMOUNT = _maxAmount;\n}\n\nfunction modifierMinAmount(uint _minAmount) public onlyOwner\n{\n  require(_minAmount >= 100000 && _minAmount <= 1000000);\n  MIN_AMOUNT = _minAmount;\n}\n\nfunction modifierPriceChannel(uint _priceChannel) public onlyOwner\n{\n  require(_priceChannel >= 100);\n  PRICE_RATIO = _priceChannel;\n}\n\nfunction getGroupesPerAddress() public view returns (uint[] memory)\n{\n  return mappGroupesForAddress[msg.sender];\n}\n\nfunction getMembres(string memory _groupe) public view returns (uint[] memory)\n{\n  return mappGroupeAndChannels[_groupe];\n}\n\nfunction getNomMembre(uint _ID) public view returns (string memory)\n{\n  return mappChannel[_ID].pseudo;\n}\n\nfunction getContratCible(uint _ID) public view returns (address)\n{\n  return mappChannel[_ID].contratCible;\n}\n\nfunction getMontant(uint _ID) public view returns (uint)\n{\n  return mappChannel[_ID].montant;\n}\n\nfunction getBlockFermeture(uint _ID) public view returns (uint)\n{\n  return mappChannel[_ID].blocFermeture;\n}\n\nfunction getEncours(uint _ID) public view returns (uint)\n{\n  return mappChannel[_ID].enCours;\n}\n\nfunction getDonnations(uint _ID) public view returns (uint)\n{\n  return mappChannel[_ID].donnations;\n}\n\nfunction getDescription(uint _ID) public view returns (string memory)\n{\n  return mappChannel[_ID].description;\n}\n\nfunction getNomGroupe(uint _ID) public view returns (string memory)\n{\n  return mappIDGroupe[_ID];\n}\n\nfunction getOwnPseudo(string memory groupe) public view returns (string memory)\n{\n  for (uint i = 0 ; i < mappGroupeAndChannels[groupe].length; i ++)\n  {\n    if (mappChannel[mappGroupeAndChannels[groupe][i]].demandeur == msg.sender)\n    {\n      return mappChannel[mappGroupeAndChannels[groupe][i]].pseudo;\n    }\n  }\n}\n\n}\n",
  "sourcePath": "/Users/germaindacunha/Desktop/Alyra/project/src/contracts/EtherUnion.sol",
  "compiler": {
    "name": "solc",
    "version": "0.5.0+commit.1d4f565a.Emscripten.clang"
  },
  "schemaVersion": "3.0.2",
  "updatedAt": "2019-03-26T17:13:30.529Z",
  "devdoc": {
    "methods": {
      "allowance(address,address)": {
        "details": "Function to check the amount of tokens that an owner allowed to a spender.",
        "params": {
          "owner": "address The address which owns the funds.",
          "spender": "address The address which will spend the funds."
        },
        "return": "A uint256 specifying the amount of tokens still available for the spender."
      },
      "approve(address,uint256)": {
        "details": "Approve the passed address to spend the specified amount of tokens on behalf of msg.sender. Beware that changing an allowance with this method brings the risk that someone may use both the old and the new allowance by unfortunate transaction ordering. One possible solution to mitigate this race condition is to first reduce the spender's allowance to 0 and set the desired value afterwards: https://github.com/ethereum/EIPs/issues/20#issuecomment-263524729",
        "params": {
          "spender": "The address which will spend the funds.",
          "value": "The amount of tokens to be spent."
        }
      },
      "balanceOf(address)": {
        "details": "Gets the balance of the specified address.",
        "params": {
          "owner": "The address to query the balance of."
        },
        "return": "A uint256 representing the amount owned by the passed address."
      },
      "decreaseAllowance(address,uint256)": {
        "details": "Decrease the amount of tokens that an owner allowed to a spender. approve should be called when _allowed[msg.sender][spender] == 0. To decrement allowed value is better to use this function to avoid 2 calls (and wait until the first transaction is mined) From MonolithDAO Token.sol Emits an Approval event.",
        "params": {
          "spender": "The address which will spend the funds.",
          "subtractedValue": "The amount of tokens to decrease the allowance by."
        }
      },
      "increaseAllowance(address,uint256)": {
        "details": "Increase the amount of tokens that an owner allowed to a spender. approve should be called when _allowed[msg.sender][spender] == 0. To increment allowed value is better to use this function to avoid 2 calls (and wait until the first transaction is mined) From MonolithDAO Token.sol Emits an Approval event.",
        "params": {
          "addedValue": "The amount of tokens to increase the allowance by.",
          "spender": "The address which will spend the funds."
        }
      },
      "totalSupply()": {
        "details": "Total number of tokens in existence"
      },
      "transfer(address,uint256)": {
        "details": "Transfer token to a specified address",
        "params": {
          "to": "The address to transfer to.",
          "value": "The amount to be transferred."
        }
      },
      "transferFrom(address,address,uint256)": {
        "details": "Transfer tokens from one address to another. Note that while this function emits an Approval event, this is not required as per the specification, and other compliant implementations may not emit the event.",
        "params": {
          "from": "address The address which you want to send tokens from",
          "to": "address The address which you want to transfer to",
          "value": "uint256 the amount of tokens to be transferred"
        }
      },
      "transferOwnership(address)": {
        "details": "Allows the current owner to transfer control of the contract to a newOwner.",
        "params": {
          "newOwner": "The address to transfer ownership to."
        }
      }
    }
  },
  "userdoc": {
    "methods": {}
  }
}