{
  "contractName": "GettersSetters",
  "abi": [
    {
      "constant": true,
      "inputs": [],
      "name": "name",
      "outputs": [
        {
          "name": "",
          "type": "string"
        }
      ],
      "payable": false,
      "stateMutability": "view",
      "type": "function"
    },
    {
      "constant": false,
      "inputs": [
        {
          "name": "spender",
          "type": "address"
        },
        {
          "name": "value",
          "type": "uint256"
        }
      ],
      "name": "approve",
      "outputs": [
        {
          "name": "",
          "type": "bool"
        }
      ],
      "payable": false,
      "stateMutability": "nonpayable",
      "type": "function"
    },
    {
      "constant": false,
      "inputs": [
        {
          "name": "_membre",
          "type": "address"
        },
        {
          "name": "_groupe",
          "type": "string"
        }
      ],
      "name": "ajouterAdmin",
      "outputs": [],
      "payable": false,
      "stateMutability": "nonpayable",
      "type": "function"
    },
    {
      "constant": true,
      "inputs": [],
      "name": "totalSupply",
      "outputs": [
        {
          "name": "",
          "type": "uint256"
        }
      ],
      "payable": false,
      "stateMutability": "view",
      "type": "function"
    },
    {
      "constant": false,
      "inputs": [
        {
          "name": "_token",
          "type": "uint256"
        }
      ],
      "name": "consommerTokens",
      "outputs": [],
      "payable": false,
      "stateMutability": "nonpayable",
      "type": "function"
    },
    {
      "constant": false,
      "inputs": [
        {
          "name": "from",
          "type": "address"
        },
        {
          "name": "to",
          "type": "address"
        },
        {
          "name": "value",
          "type": "uint256"
        }
      ],
      "name": "transferFrom",
      "outputs": [
        {
          "name": "",
          "type": "bool"
        }
      ],
      "payable": false,
      "stateMutability": "nonpayable",
      "type": "function"
    },
    {
      "constant": true,
      "inputs": [],
      "name": "myGimicoin",
      "outputs": [
        {
          "name": "",
          "type": "address"
        }
      ],
      "payable": false,
      "stateMutability": "view",
      "type": "function"
    },
    {
      "constant": true,
      "inputs": [],
      "name": "decimals",
      "outputs": [
        {
          "name": "",
          "type": "uint32"
        }
      ],
      "payable": false,
      "stateMutability": "view",
      "type": "function"
    },
    {
      "constant": false,
      "inputs": [
        {
          "name": "spender",
          "type": "address"
        },
        {
          "name": "addedValue",
          "type": "uint256"
        }
      ],
      "name": "increaseAllowance",
      "outputs": [
        {
          "name": "",
          "type": "bool"
        }
      ],
      "payable": false,
      "stateMutability": "nonpayable",
      "type": "function"
    },
    {
      "constant": false,
      "inputs": [
        {
          "name": "_pseudo",
          "type": "string"
        }
      ],
      "name": "fermetureCanal",
      "outputs": [],
      "payable": false,
      "stateMutability": "nonpayable",
      "type": "function"
    },
    {
      "constant": true,
      "inputs": [
        {
          "name": "owner",
          "type": "address"
        }
      ],
      "name": "balanceOf",
      "outputs": [
        {
          "name": "",
          "type": "uint256"
        }
      ],
      "payable": false,
      "stateMutability": "view",
      "type": "function"
    },
    {
      "constant": false,
      "inputs": [
        {
          "name": "_groupe",
          "type": "string"
        },
        {
          "name": "_pseudo",
          "type": "string"
        },
        {
          "name": "_token",
          "type": "uint256"
        }
      ],
      "name": "payerCanal",
      "outputs": [],
      "payable": true,
      "stateMutability": "payable",
      "type": "function"
    },
    {
      "constant": true,
      "inputs": [],
      "name": "owner",
      "outputs": [
        {
          "name": "",
          "type": "address"
        }
      ],
      "payable": false,
      "stateMutability": "view",
      "type": "function"
    },
    {
      "constant": false,
      "inputs": [
        {
          "name": "_membre",
          "type": "address"
        },
        {
          "name": "_groupe",
          "type": "string"
        },
        {
          "name": "_pseudo",
          "type": "string"
        }
      ],
      "name": "ajouterMembre",
      "outputs": [],
      "payable": false,
      "stateMutability": "nonpayable",
      "type": "function"
    },
    {
      "constant": true,
      "inputs": [],
      "name": "symbol",
      "outputs": [
        {
          "name": "",
          "type": "string"
        }
      ],
      "payable": false,
      "stateMutability": "view",
      "type": "function"
    },
    {
      "constant": false,
      "inputs": [
        {
          "name": "account",
          "type": "address"
        },
        {
          "name": "value",
          "type": "uint256"
        }
      ],
      "name": "_burnFrom",
      "outputs": [],
      "payable": false,
      "stateMutability": "nonpayable",
      "type": "function"
    },
    {
      "constant": false,
      "inputs": [
        {
          "name": "spender",
          "type": "address"
        },
        {
          "name": "subtractedValue",
          "type": "uint256"
        }
      ],
      "name": "decreaseAllowance",
      "outputs": [
        {
          "name": "",
          "type": "bool"
        }
      ],
      "payable": false,
      "stateMutability": "nonpayable",
      "type": "function"
    },
    {
      "constant": false,
      "inputs": [
        {
          "name": "to",
          "type": "address"
        },
        {
          "name": "value",
          "type": "uint256"
        }
      ],
      "name": "transfer",
      "outputs": [
        {
          "name": "",
          "type": "bool"
        }
      ],
      "payable": false,
      "stateMutability": "nonpayable",
      "type": "function"
    },
    {
      "constant": true,
      "inputs": [
        {
          "name": "owner",
          "type": "address"
        },
        {
          "name": "spender",
          "type": "address"
        }
      ],
      "name": "allowance",
      "outputs": [
        {
          "name": "",
          "type": "uint256"
        }
      ],
      "payable": false,
      "stateMutability": "view",
      "type": "function"
    },
    {
      "constant": false,
      "inputs": [
        {
          "name": "newOwner",
          "type": "address"
        }
      ],
      "name": "transferOwnership",
      "outputs": [],
      "payable": false,
      "stateMutability": "nonpayable",
      "type": "function"
    },
    {
      "constant": false,
      "inputs": [
        {
          "name": "_nom",
          "type": "string"
        },
        {
          "name": "_pseudo",
          "type": "string"
        }
      ],
      "name": "creerGroupe",
      "outputs": [],
      "payable": true,
      "stateMutability": "payable",
      "type": "function"
    },
    {
      "constant": false,
      "inputs": [
        {
          "name": "_montant",
          "type": "uint256"
        },
        {
          "name": "_delai",
          "type": "uint256"
        },
        {
          "name": "_pseudo",
          "type": "string"
        },
        {
          "name": "_description",
          "type": "string"
        }
      ],
      "name": "demander",
      "outputs": [],
      "payable": true,
      "stateMutability": "payable",
      "type": "function"
    },
    {
      "anonymous": false,
      "inputs": [
        {
          "indexed": true,
          "name": "previousOwner",
          "type": "address"
        },
        {
          "indexed": true,
          "name": "newOwner",
          "type": "address"
        }
      ],
      "name": "OwnershipTransferred",
      "type": "event"
    },
    {
      "anonymous": false,
      "inputs": [
        {
          "indexed": true,
          "name": "from",
          "type": "address"
        },
        {
          "indexed": true,
          "name": "to",
          "type": "address"
        },
        {
          "indexed": false,
          "name": "value",
          "type": "uint256"
        }
      ],
      "name": "Transfer",
      "type": "event"
    },
    {
      "anonymous": false,
      "inputs": [
        {
          "indexed": true,
          "name": "owner",
          "type": "address"
        },
        {
          "indexed": true,
          "name": "spender",
          "type": "address"
        },
        {
          "indexed": false,
          "name": "value",
          "type": "uint256"
        }
      ],
      "name": "Approval",
      "type": "event"
    },
    {
      "constant": false,
      "inputs": [
        {
          "name": "_maxGroups",
          "type": "uint256"
        }
      ],
      "name": "modifierMaxGroups",
      "outputs": [],
      "payable": false,
      "stateMutability": "nonpayable",
      "type": "function"
    },
    {
      "constant": false,
      "inputs": [
        {
          "name": "_maxDelai",
          "type": "uint256"
        }
      ],
      "name": "modifierDelai",
      "outputs": [],
      "payable": false,
      "stateMutability": "nonpayable",
      "type": "function"
    },
    {
      "constant": false,
      "inputs": [
        {
          "name": "_maxMembre",
          "type": "uint256"
        }
      ],
      "name": "modifierMaxMembre",
      "outputs": [],
      "payable": false,
      "stateMutability": "nonpayable",
      "type": "function"
    },
    {
      "constant": false,
      "inputs": [
        {
          "name": "_maxAmount",
          "type": "uint256"
        }
      ],
      "name": "modifierMaxAmount",
      "outputs": [],
      "payable": false,
      "stateMutability": "nonpayable",
      "type": "function"
    },
    {
      "constant": false,
      "inputs": [
        {
          "name": "_minAmount",
          "type": "uint256"
        }
      ],
      "name": "modifierMinAmount",
      "outputs": [],
      "payable": false,
      "stateMutability": "nonpayable",
      "type": "function"
    },
    {
      "constant": false,
      "inputs": [
        {
          "name": "_priceChannel",
          "type": "uint256"
        }
      ],
      "name": "modifierPriceChannel",
      "outputs": [],
      "payable": false,
      "stateMutability": "nonpayable",
      "type": "function"
    },
    {
      "constant": true,
      "inputs": [],
      "name": "getGroupesPerAddress",
      "outputs": [
        {
          "name": "",
          "type": "uint256[]"
        }
      ],
      "payable": false,
      "stateMutability": "view",
      "type": "function"
    },
    {
      "constant": true,
      "inputs": [
        {
          "name": "_groupe",
          "type": "string"
        }
      ],
      "name": "getMembres",
      "outputs": [
        {
          "name": "",
          "type": "uint256[]"
        }
      ],
      "payable": false,
      "stateMutability": "view",
      "type": "function"
    },
    {
      "constant": true,
      "inputs": [
        {
          "name": "_ID",
          "type": "uint256"
        }
      ],
      "name": "getNomMembre",
      "outputs": [
        {
          "name": "",
          "type": "string"
        }
      ],
      "payable": false,
      "stateMutability": "view",
      "type": "function"
    },
    {
      "constant": true,
      "inputs": [
        {
          "name": "_ID",
          "type": "uint256"
        }
      ],
      "name": "getMontant",
      "outputs": [
        {
          "name": "",
          "type": "uint256"
        }
      ],
      "payable": false,
      "stateMutability": "view",
      "type": "function"
    },
    {
      "constant": true,
      "inputs": [
        {
          "name": "_ID",
          "type": "uint256"
        }
      ],
      "name": "getBlockFermeture",
      "outputs": [
        {
          "name": "",
          "type": "uint256"
        }
      ],
      "payable": false,
      "stateMutability": "view",
      "type": "function"
    },
    {
      "constant": true,
      "inputs": [
        {
          "name": "_ID",
          "type": "uint256"
        }
      ],
      "name": "getEncours",
      "outputs": [
        {
          "name": "",
          "type": "uint256"
        }
      ],
      "payable": false,
      "stateMutability": "view",
      "type": "function"
    },
    {
      "constant": true,
      "inputs": [
        {
          "name": "_ID",
          "type": "uint256"
        }
      ],
      "name": "getDonnations",
      "outputs": [
        {
          "name": "",
          "type": "uint256"
        }
      ],
      "payable": false,
      "stateMutability": "view",
      "type": "function"
    },
    {
      "constant": true,
      "inputs": [
        {
          "name": "_ID",
          "type": "uint256"
        }
      ],
      "name": "getDescription",
      "outputs": [
        {
          "name": "",
          "type": "string"
        }
      ],
      "payable": false,
      "stateMutability": "view",
      "type": "function"
    },
    {
      "constant": true,
      "inputs": [
        {
          "name": "_ID",
          "type": "uint256"
        }
      ],
      "name": "getNomGroupe",
      "outputs": [
        {
          "name": "",
          "type": "string"
        }
      ],
      "payable": false,
      "stateMutability": "view",
      "type": "function"
    }
  ],
  "bytecode": "0x608060405233600360006101000a81548173ffffffffffffffffffffffffffffffffffffffff021916908373ffffffffffffffffffffffffffffffffffffffff1602179055506032601281905550600a600d81905550600a600e819055506509184e72a000600f81905550620186a0601081905550600a601181905550613ec98061008b6000396000f3fe6080604052600436106101cd576000357c0100000000000000000000000000000000000000000000000000000000900463ffffffff16806306fdde03146101d2578063095ea7b31461026257806316f1df23146102d557806318160ddd146103bd5780631c064aa7146103e85780631e0afe5714610423578063203ac3ce1461048f57806323b872dd146104ca578063247e00f81461055d57806327f128b3146105b457806329c7734714610603578063313ce56714610720578063370c29f914610757578063395093511461079257806341522997146108055780634925ec55146108b95780634b7b03cf1461096d5780634c9a985014610a215780634dc8872914610a7057806370a0823114610b3857806370d5191814610b9d578063750fa0a314610cf95780638da5cb5b14610d485780638f33334114610d9f57806395d89b4114610f1e578063a22b35ce14610fae578063a457c2d714611009578063a9059cbb1461107c578063beaf3b0d146110ef578063dd62ed3e1461112a578063df40e329146111af578063e0c989c2146111fe578063f2fde38b14611239578063f420948b1461128a578063f4343df4146112c5578063f483977214611417578063fa8622f914611452575b600080fd5b3480156101de57600080fd5b506101e76115b8565b6040518080602001828103825283818151815260200191508051906020019080838360005b8381101561022757808201518184015260208101905061020c565b50505050905090810190601f1680156102545780820380516001836020036101000a031916815260200191505b509250505060405180910390f35b34801561026e57600080fd5b506102bb6004803603604081101561028557600080fd5b81019080803573ffffffffffffffffffffffffffffffffffffffff169060200190929190803590602001909291905050506115f1565b604051808215151515815260200191505060405180910390f35b3480156102e157600080fd5b506103bb600480360360408110156102f857600080fd5b81019080803573ffffffffffffffffffffffffffffffffffffffff1690602001909291908035906020019064010000000081111561033557600080fd5b82018360208201111561034757600080fd5b8035906020019184600183028401116401000000008311171561036957600080fd5b91908080601f016020809104026020016040519081016040528093929190818152602001838380828437600081840152601f19601f820116905080830192505050505050509192919290505050611608565b005b3480156103c957600080fd5b506103d26119a5565b6040518082815260200191505060405180910390f35b3480156103f457600080fd5b506104216004803603602081101561040b57600080fd5b81019080803590602001909291905050506119af565b005b34801561042f57600080fd5b50610438611a32565b6040518080602001828103825283818151815260200191508051906020019060200280838360005b8381101561047b578082015181840152602081019050610460565b505050509050019250505060405180910390f35b34801561049b57600080fd5b506104c8600480360360208110156104b257600080fd5b8101908080359060200190929190505050611ac7565b005b3480156104d657600080fd5b50610543600480360360608110156104ed57600080fd5b81019080803573ffffffffffffffffffffffffffffffffffffffff169060200190929190803573ffffffffffffffffffffffffffffffffffffffff16906020019092919080359060200190929190505050611b32565b604051808215151515815260200191505060405180910390f35b34801561056957600080fd5b50610572611be3565b604051808273ffffffffffffffffffffffffffffffffffffffff1673ffffffffffffffffffffffffffffffffffffffff16815260200191505060405180910390f35b3480156105c057600080fd5b506105ed600480360360208110156105d757600080fd5b8101908080359060200190929190505050611c09565b6040518082815260200191505060405180910390f35b34801561060f57600080fd5b506106c96004803603602081101561062657600080fd5b810190808035906020019064010000000081111561064357600080fd5b82018360208201111561065557600080fd5b8035906020019184600183028401116401000000008311171561067757600080fd5b91908080601f016020809104026020016040519081016040528093929190818152602001838380828437600081840152601f19601f820116905080830192505050505050509192919290505050611c29565b6040518080602001828103825283818151815260200191508051906020019060200280838360005b8381101561070c5780820151818401526020810190506106f1565b505050509050019250505060405180910390f35b34801561072c57600080fd5b50610735611cec565b604051808263ffffffff1663ffffffff16815260200191505060405180910390f35b34801561076357600080fd5b506107906004803603602081101561077a57600080fd5b8101908080359060200190929190505050611cf1565b005b34801561079e57600080fd5b506107eb600480360360408110156107b557600080fd5b81019080803573ffffffffffffffffffffffffffffffffffffffff16906020019092919080359060200190929190505050611d66565b604051808215151515815260200191505060405180910390f35b34801561081157600080fd5b5061083e6004803603602081101561082857600080fd5b8101908080359060200190929190505050611e0b565b6040518080602001828103825283818151815260200191508051906020019080838360005b8381101561087e578082015181840152602081019050610863565b50505050905090810190601f1680156108ab5780820380516001836020036101000a031916815260200191505b509250505060405180910390f35b3480156108c557600080fd5b506108f2600480360360208110156108dc57600080fd5b8101908080359060200190929190505050611ec0565b6040518080602001828103825283818151815260200191508051906020019080838360005b83811015610932578082015181840152602081019050610917565b50505050905090810190601f16801561095f5780820380516001836020036101000a031916815260200191505b509250505060405180910390f35b34801561097957600080fd5b506109a66004803603602081101561099057600080fd5b8101908080359060200190929190505050611f78565b6040518080602001828103825283818151815260200191508051906020019080838360005b838110156109e65780820151818401526020810190506109cb565b50505050905090810190601f168015610a135780820380516001836020036101000a031916815260200191505b509250505060405180910390f35b348015610a2d57600080fd5b50610a5a60048036036020811015610a4457600080fd5b8101908080359060200190929190505050612030565b6040518082815260200191505060405180910390f35b348015610a7c57600080fd5b50610b3660048036036020811015610a9357600080fd5b8101908080359060200190640100000000811115610ab057600080fd5b820183602082011115610ac257600080fd5b80359060200191846001830284011164010000000083111715610ae457600080fd5b91908080601f016020809104026020016040519081016040528093929190818152602001838380828437600081840152601f19601f820116905080830192505050505050509192919290505050612050565b005b348015610b4457600080fd5b50610b8760048036036020811015610b5b57600080fd5b81019080803573ffffffffffffffffffffffffffffffffffffffff16906020019092919050505061224a565b6040518082815260200191505060405180910390f35b610cf760048036036060811015610bb357600080fd5b8101908080359060200190640100000000811115610bd057600080fd5b820183602082011115610be257600080fd5b80359060200191846001830284011164010000000083111715610c0457600080fd5b91908080601f016020809104026020016040519081016040528093929190818152602001838380828437600081840152601f19601f82011690508083019250505050505050919291929080359060200190640100000000811115610c6757600080fd5b820183602082011115610c7957600080fd5b80359060200191846001830284011164010000000083111715610c9b57600080fd5b91908080601f016020809104026020016040519081016040528093929190818152602001838380828437600081840152601f19601f82011690508083019250505050505050919291929080359060200190929190505050612292565b005b348015610d0557600080fd5b50610d3260048036036020811015610d1c57600080fd5b810190808035906020019092919050505061257f565b6040518082815260200191505060405180910390f35b348015610d5457600080fd5b50610d5d61259f565b604051808273ffffffffffffffffffffffffffffffffffffffff1673ffffffffffffffffffffffffffffffffffffffff16815260200191505060405180910390f35b348015610dab57600080fd5b50610f1c60048036036060811015610dc257600080fd5b81019080803573ffffffffffffffffffffffffffffffffffffffff16906020019092919080359060200190640100000000811115610dff57600080fd5b820183602082011115610e1157600080fd5b80359060200191846001830284011164010000000083111715610e3357600080fd5b91908080601f016020809104026020016040519081016040528093929190818152602001838380828437600081840152601f19601f82011690508083019250505050505050919291929080359060200190640100000000811115610e9657600080fd5b820183602082011115610ea857600080fd5b80359060200191846001830284011164010000000083111715610eca57600080fd5b91908080601f016020809104026020016040519081016040528093929190818152602001838380828437600081840152601f19601f8201169050808301925050505050505091929192905050506125c5565b005b348015610f2a57600080fd5b50610f336129c6565b6040518080602001828103825283818151815260200191508051906020019080838360005b83811015610f73578082015181840152602081019050610f58565b50505050905090810190601f168015610fa05780820380516001836020036101000a031916815260200191505b509250505060405180910390f35b348015610fba57600080fd5b5061100760048036036040811015610fd157600080fd5b81019080803573ffffffffffffffffffffffffffffffffffffffff169060200190929190803590602001909291905050506129ff565b005b34801561101557600080fd5b506110626004803603604081101561102c57600080fd5b81019080803573ffffffffffffffffffffffffffffffffffffffff16906020019092919080359060200190929190505050612aa6565b604051808215151515815260200191505060405180910390f35b34801561108857600080fd5b506110d56004803603604081101561109f57600080fd5b81019080803573ffffffffffffffffffffffffffffffffffffffff16906020019092919080359060200190929190505050612b4b565b604051808215151515815260200191505060405180910390f35b3480156110fb57600080fd5b506111286004803603602081101561111257600080fd5b8101908080359060200190929190505050612b62565b005b34801561113657600080fd5b506111996004803603604081101561114d57600080fd5b81019080803573ffffffffffffffffffffffffffffffffffffffff169060200190929190803573ffffffffffffffffffffffffffffffffffffffff169060200190929190505050612bec565b6040518082815260200191505060405180910390f35b3480156111bb57600080fd5b506111e8600480360360208110156111d257600080fd5b8101908080359060200190929190505050612c73565b6040518082815260200191505060405180910390f35b34801561120a57600080fd5b506112376004803603602081101561122157600080fd5b8101908080359060200190929190505050612c93565b005b34801561124557600080fd5b506112886004803603602081101561125c57600080fd5b81019080803573ffffffffffffffffffffffffffffffffffffffff169060200190929190505050612d19565b005b34801561129657600080fd5b506112c3600480360360208110156112ad57600080fd5b8101908080359060200190929190505050612e71565b005b611415600480360360408110156112db57600080fd5b81019080803590602001906401000000008111156112f857600080fd5b82018360208201111561130a57600080fd5b8035906020019184600183028401116401000000008311171561132c57600080fd5b91908080601f016020809104026020016040519081016040528093929190818152602001838380828437600081840152601f19601f8201169050808301925050505050505091929192908035906020019064010000000081111561138f57600080fd5b8201836020820111156113a157600080fd5b803590602001918460018302840111640100000000831117156113c357600080fd5b91908080601f016020809104026020016040519081016040528093929190818152602001838380828437600081840152601f19601f820116905080830192505050505050509192919290505050612ef5565b005b34801561142357600080fd5b506114506004803603602081101561143a57600080fd5b8101908080359060200190929190505050613345565b005b6115b66004803603608081101561146857600080fd5b8101908080359060200190929190803590602001909291908035906020019064010000000081111561149957600080fd5b8201836020820111156114ab57600080fd5b803590602001918460018302840111640100000000831117156114cd57600080fd5b91908080601f016020809104026020016040519081016040528093929190818152602001838380828437600081840152601f19601f8201169050808301925050505050505091929192908035906020019064010000000081111561153057600080fd5b82018360208201111561154257600080fd5b8035906020019184600183028401116401000000008311171561156457600080fd5b91908080601f016020809104026020016040519081016040528093929190818152602001838380828437600081840152601f19601f8201169050808301925050505050505091929192905050506133cc565b005b6040805190810160405280600881526020017f67696d69636f696e00000000000000000000000000000000000000000000000081525081565b60006115fe3384846135cc565b6001905092915050565b60008090505b600b826040518082805190602001908083835b6020831015156116465780518252602082019150602081019050602083039250611621565b6001836020036101000a0380198251168184511680821785525050505050509050019150509081526020016040518091039020805490508110156119a0573373ffffffffffffffffffffffffffffffffffffffff16600b836040518082805190602001908083835b6020831015156116d357805182526020820191506020810190506020830392506116ae565b6001836020036101000a03801982511681845116808217855250505050505090500191505090815260200160405180910390208281548110151561171357fe5b9060005260206000200160009054906101000a900473ffffffffffffffffffffffffffffffffffffffff1673ffffffffffffffffffffffffffffffffffffffff1614156119935760008090505b600a836040518082805190602001908083835b6020831015156117985780518252602082019150602081019050602083039250611773565b6001836020036101000a03801982511681845116808217855250505050505090500191505090815260200160405180910390208054905081101561198d578373ffffffffffffffffffffffffffffffffffffffff16600a846040518082805190602001908083835b6020831015156118255780518252602082019150602081019050602083039250611800565b6001836020036101000a03801982511681845116808217855250505050505090500191505090815260200160405180910390208281548110151561186557fe5b9060005260206000200160009054906101000a900473ffffffffffffffffffffffffffffffffffffffff1673ffffffffffffffffffffffffffffffffffffffff16141561198057600b836040518082805190602001908083835b6020831015156118e457805182526020820191506020810190506020830392506118bf565b6001836020036101000a03801982511681845116808217855250505050505090500191505090815260200160405180910390208490806001815401808255809150509060018203906000526020600020016000909192909190916101000a81548173ffffffffffffffffffffffffffffffffffffffff021916908373ffffffffffffffffffffffffffffffffffffffff1602179055505061198d565b8080600101915050611760565b506119a0565b808060010191505061160e565b505050565b6000600254905090565b600360009054906101000a900473ffffffffffffffffffffffffffffffffffffffff1673ffffffffffffffffffffffffffffffffffffffff163373ffffffffffffffffffffffffffffffffffffffff16141515611a0b57600080fd5b60058110158015611a1d575060c88111155b1515611a2857600080fd5b80600d8190555050565b6060600660003373ffffffffffffffffffffffffffffffffffffffff1673ffffffffffffffffffffffffffffffffffffffff168152602001908152602001600020805480602002602001604051908101604052809291908181526020018280548015611abd57602002820191906000526020600020905b815481526020019060010190808311611aa9575b5050505050905090565b80611ad13361224a565b10151515611ade57600080fd5b3373ffffffffffffffffffffffffffffffffffffffff166108fc829081150290604051600060405180830381858888f19350505050158015611b24573d6000803e3d6000fd5b50611b2f33826129ff565b50565b6000611b3f84848461372f565b611bd88433611bd385600160008a73ffffffffffffffffffffffffffffffffffffffff1673ffffffffffffffffffffffffffffffffffffffff16815260200190815260200160002060003373ffffffffffffffffffffffffffffffffffffffff1673ffffffffffffffffffffffffffffffffffffffff168152602001908152602001600020546138fb90919063ffffffff16565b6135cc565b600190509392505050565b600460009054906101000a900473ffffffffffffffffffffffffffffffffffffffff1681565b600060056000838152602001908152602001600020600601549050919050565b60606007826040518082805190602001908083835b602083101515611c635780518252602082019150602081019050602083039250611c3e565b6001836020036101000a0380198251168184511680821785525050505050509050019150509081526020016040518091039020805480602002602001604051908101604052809291908181526020018280548015611ce057602002820191906000526020600020905b815481526020019060010190808311611ccc575b50505050509050919050565b601281565b600360009054906101000a900473ffffffffffffffffffffffffffffffffffffffff1673ffffffffffffffffffffffffffffffffffffffff163373ffffffffffffffffffffffffffffffffffffffff16141515611d4d57600080fd5b600181111515611d5c57600080fd5b8060118190555050565b6000611e013384611dfc85600160003373ffffffffffffffffffffffffffffffffffffffff1673ffffffffffffffffffffffffffffffffffffffff16815260200190815260200160002060008973ffffffffffffffffffffffffffffffffffffffff1673ffffffffffffffffffffffffffffffffffffffff1681526020019081526020016000205461391490919063ffffffff16565b6135cc565b6001905092915050565b6060600860008381526020019081526020016000208054600181600116156101000203166002900480601f016020809104026020016040519081016040528092919081815260200182805460018160011615610100020316600290048015611eb45780601f10611e8957610100808354040283529160200191611eb4565b820191906000526020600020905b815481529060010190602001808311611e9757829003601f168201915b50505050509050919050565b6060600560008381526020019081526020016000206007018054600181600116156101000203166002900480601f016020809104026020016040519081016040528092919081815260200182805460018160011615610100020316600290048015611f6c5780601f10611f4157610100808354040283529160200191611f6c565b820191906000526020600020905b815481529060010190602001808311611f4f57829003601f168201915b50505050509050919050565b6060600560008381526020019081526020016000206001018054600181600116156101000203166002900480601f0160208091040260200160405190810160405280929190818152602001828054600181600116156101000203166002900480156120245780601f10611ff957610100808354040283529160200191612024565b820191906000526020600020905b81548152906001019060200180831161200757829003601f168201915b50505050509050919050565b600060056000838152602001908152602001600020600501549050919050565b600081805190602001206001900490504360056000838152602001908152602001600020600301541115151561208557600080fd5b600115156005600083815260200190815260200160002060040160009054906101000a900460ff1615151415156120bb57600080fd5b3373ffffffffffffffffffffffffffffffffffffffff166005600083815260200190815260200160002060000160009054906101000a900473ffffffffffffffffffffffffffffffffffffffff1673ffffffffffffffffffffffffffffffffffffffff1614151561212b57600080fd5b3373ffffffffffffffffffffffffffffffffffffffff166108fc60056000848152602001908152602001600020600501549081150290604051600060405180830381858888f19350505050158015612187573d6000803e3d6000fd5b5060006005600083815260200190815260200160002060050181905550600060056000838152602001908152602001600020600201819055506000600560008381526020019081526020016000206003018190555060006005600083815260200190815260200160002060040160006101000a81548160ff0219169083151502179055506020604051908101604052806000815250600560008381526020019081526020016000206007019080519060200190612245929190613df8565b505050565b60008060008373ffffffffffffffffffffffffffffffffffffffff1673ffffffffffffffffffffffffffffffffffffffff168152602001908152602001600020549050919050565b60008280519060200120600190049050600115156005600083815260200190815260200160002060040160009054906101000a900460ff1615151415156122d857600080fd5b436005600083815260200190815260200160002060030154101515156122fd57600080fd5b3373ffffffffffffffffffffffffffffffffffffffff166005600083815260200190815260200160002060000160009054906101000a900473ffffffffffffffffffffffffffffffffffffffff1673ffffffffffffffffffffffffffffffffffffffff1614151561236d57600080fd5b816123773361224a565b1015151561238457600080fd5b60008090505b600a856040518082805190602001908083835b6020831015156123c2578051825260208201915060208101905060208303925061239d565b6001836020036101000a038019825116818451168082178552505050505050905001915050908152602001604051809103902080549050811015612578573373ffffffffffffffffffffffffffffffffffffffff16600a866040518082805190602001908083835b60208310151561244f578051825260208201915060208101905060208303925061242a565b6001836020036101000a03801982511681845116808217855250505050505090500191505090815260200160405180910390208281548110151561248f57fe5b9060005260206000200160009054906101000a900473ffffffffffffffffffffffffffffffffffffffff1673ffffffffffffffffffffffffffffffffffffffff16141561256b576000601154348115156124e557fe5b0490506124f23382613932565b6000349050600085111561251057848101905061250f33866129ff565b5b8060056000888051906020012060019004815260200190815260200160002060060160008282540192505081905550818103905080600560008681526020019081526020016000206005016000828254019250508190555050505b808060010191505061238a565b5050505050565b600060056000838152602001908152602001600020600201549050919050565b600360009054906101000a900473ffffffffffffffffffffffffffffffffffffffff1681565b600d54600a836040518082805190602001908083835b60208310151561260057805182526020820191506020810190506020830392506125db565b6001836020036101000a03801982511681845116808217855250505050505090500191505090815260200160405180910390208054905010151561264357600080fd5b600073ffffffffffffffffffffffffffffffffffffffff16600c826040518082805190602001908083835b602083101515612693578051825260208201915060208101905060208303925061266e565b6001836020036101000a038019825116818451168082178552505050505050905001915050908152602001604051809103902060009054906101000a900473ffffffffffffffffffffffffffffffffffffffff1673ffffffffffffffffffffffffffffffffffffffff1614151561270957600080fd5b60008090505b600b836040518082805190602001908083835b6020831015156127475780518252602082019150602081019050602083039250612722565b6001836020036101000a0380198251168184511680821785525050505050509050019150509081526020016040518091039020805490508110156129c0573373ffffffffffffffffffffffffffffffffffffffff16600b846040518082805190602001908083835b6020831015156127d457805182526020820191506020810190506020830392506127af565b6001836020036101000a03801982511681845116808217855250505050505090500191505090815260200160405180910390208281548110151561281457fe5b9060005260206000200160009054906101000a900473ffffffffffffffffffffffffffffffffffffffff1673ffffffffffffffffffffffffffffffffffffffff1614156129b35760008380519060200120600190049050600660008673ffffffffffffffffffffffffffffffffffffffff1673ffffffffffffffffffffffffffffffffffffffff168152602001908152602001600020819080600181540180825580915050906001820390600052602060002001600090919290919091505550600a846040518082805190602001908083835b60208310151561290c57805182526020820191506020810190506020830392506128e7565b6001836020036101000a03801982511681845116808217855250505050505090500191505090815260200160405180910390208590806001815401808255809150509060018203906000526020600020016000909192909190916101000a81548173ffffffffffffffffffffffffffffffffffffffff021916908373ffffffffffffffffffffffffffffffffffffffff160217905550506129ad8385613a86565b506129c0565b808060010191505061270f565b50505050565b6040805190810160405280600381526020017f474d43000000000000000000000000000000000000000000000000000000000081525081565b612a098282613ca4565b612aa28233612a9d84600160008873ffffffffffffffffffffffffffffffffffffffff1673ffffffffffffffffffffffffffffffffffffffff16815260200190815260200160002060003373ffffffffffffffffffffffffffffffffffffffff1673ffffffffffffffffffffffffffffffffffffffff168152602001908152602001600020546138fb90919063ffffffff16565b6135cc565b5050565b6000612b413384612b3c85600160003373ffffffffffffffffffffffffffffffffffffffff1673ffffffffffffffffffffffffffffffffffffffff16815260200190815260200160002060008973ffffffffffffffffffffffffffffffffffffffff1673ffffffffffffffffffffffffffffffffffffffff168152602001908152602001600020546138fb90919063ffffffff16565b6135cc565b6001905092915050565b6000612b5833848461372f565b6001905092915050565b600360009054906101000a900473ffffffffffffffffffffffffffffffffffffffff1673ffffffffffffffffffffffffffffffffffffffff163373ffffffffffffffffffffffffffffffffffffffff16141515612bbe57600080fd5b629896808110158015612bd757506509184e72a0008111155b1515612be257600080fd5b80600f8190555050565b6000600160008473ffffffffffffffffffffffffffffffffffffffff1673ffffffffffffffffffffffffffffffffffffffff16815260200190815260200160002060008373ffffffffffffffffffffffffffffffffffffffff1673ffffffffffffffffffffffffffffffffffffffff16815260200190815260200160002054905092915050565b600060056000838152602001908152602001600020600301549050919050565b600360009054906101000a900473ffffffffffffffffffffffffffffffffffffffff1673ffffffffffffffffffffffffffffffffffffffff163373ffffffffffffffffffffffffffffffffffffffff16141515612cef57600080fd5b600a8110158015612d045750633b9aca008111155b1515612d0f57600080fd5b80600e8190555050565b600360009054906101000a900473ffffffffffffffffffffffffffffffffffffffff1673ffffffffffffffffffffffffffffffffffffffff163373ffffffffffffffffffffffffffffffffffffffff16141515612d7557600080fd5b600073ffffffffffffffffffffffffffffffffffffffff168173ffffffffffffffffffffffffffffffffffffffff1614151515612db157600080fd5b8073ffffffffffffffffffffffffffffffffffffffff16600360009054906101000a900473ffffffffffffffffffffffffffffffffffffffff1673ffffffffffffffffffffffffffffffffffffffff167f8be0079c531659141344cd1fd0a4f28419497f9722a3daafe3b4186f6b6457e060405160405180910390a380600360006101000a81548173ffffffffffffffffffffffffffffffffffffffff021916908373ffffffffffffffffffffffffffffffffffffffff16021790555050565b600360009054906101000a900473ffffffffffffffffffffffffffffffffffffffff1673ffffffffffffffffffffffffffffffffffffffff163373ffffffffffffffffffffffffffffffffffffffff16141515612ecd57600080fd5b600a8110158015612ee057506103e88111155b1515612eeb57600080fd5b8060128190555050565b60006009836040518082805190602001908083835b602083101515612f2f5780518252602082019150602081019050602083039250612f0a565b6001836020036101000a038019825116818451168082178552505050505050905001915050908152602001604051809103902054141515612f6f57600080fd5b601254600660003373ffffffffffffffffffffffffffffffffffffffff1673ffffffffffffffffffffffffffffffffffffffff16815260200190815260200160002080549050101515612fc157600080fd5b600073ffffffffffffffffffffffffffffffffffffffff16600c826040518082805190602001908083835b6020831015156130115780518252602082019150602081019050602083039250612fec565b6001836020036101000a038019825116818451168082178552505050505050905001915050908152602001604051809103902060009054906101000a900473ffffffffffffffffffffffffffffffffffffffff1673ffffffffffffffffffffffffffffffffffffffff1614151561308757600080fd5b60008280519060200120600190049050806009846040518082805190602001908083835b6020831015156130d057805182526020820191506020810190506020830392506130ab565b6001836020036101000a0380198251168184511680821785525050505050509050019150509081526020016040518091039020819055508260086000838152602001908152602001600020908051906020019061312e929190613df8565b50600a836040518082805190602001908083835b6020831015156131675780518252602082019150602081019050602083039250613142565b6001836020036101000a03801982511681845116808217855250505050505090500191505090815260200160405180910390203390806001815401808255809150509060018203906000526020600020016000909192909190916101000a81548173ffffffffffffffffffffffffffffffffffffffff021916908373ffffffffffffffffffffffffffffffffffffffff16021790555050600b836040518082805190602001908083835b6020831015156132365780518252602082019150602081019050602083039250613211565b6001836020036101000a03801982511681845116808217855250505050505090500191505090815260200160405180910390203390806001815401808255809150509060018203906000526020600020016000909192909190916101000a81548173ffffffffffffffffffffffffffffffffffffffff021916908373ffffffffffffffffffffffffffffffffffffffff16021790555050600660003373ffffffffffffffffffffffffffffffffffffffff1673ffffffffffffffffffffffffffffffffffffffff1681526020019081526020016000208190806001815401808255809150509060018203906000526020600020016000909192909190915055506133408284613a86565b505050565b600360009054906101000a900473ffffffffffffffffffffffffffffffffffffffff1673ffffffffffffffffffffffffffffffffffffffff163373ffffffffffffffffffffffffffffffffffffffff161415156133a157600080fd5b620186a081101580156133b75750620f42408111155b15156133c257600080fd5b8060108190555050565b601054841180156133de5750600f5484105b15156133e957600080fd5b3373ffffffffffffffffffffffffffffffffffffffff16600c836040518082805190602001908083835b6020831015156134385780518252602082019150602081019050602083039250613413565b6001836020036101000a038019825116818451168082178552505050505050905001915050908152602001604051809103902060009054906101000a900473ffffffffffffffffffffffffffffffffffffffff1673ffffffffffffffffffffffffffffffffffffffff161415156134ae57600080fd5b6000601154858115156134bd57fe5b0490508034101515156134cf57600080fd5b60008380519060200120600190049050600015156005600083815260200190815260200160002060040160009054906101000a900460ff16151514151561351557600080fd5b856005600083815260200190815260200160002060020181905550813403600560008381526020019081526020016000206005018190555060016005600083815260200190815260200160002060040160006101000a81548160ff0219169083151502179055508443016005600083815260200190815260200160002060030181905550826005600083815260200190815260200160002060070190805190602001906135c3929190613df8565b50505050505050565b600073ffffffffffffffffffffffffffffffffffffffff168273ffffffffffffffffffffffffffffffffffffffff161415151561360857600080fd5b600073ffffffffffffffffffffffffffffffffffffffff168373ffffffffffffffffffffffffffffffffffffffff161415151561364457600080fd5b80600160008573ffffffffffffffffffffffffffffffffffffffff1673ffffffffffffffffffffffffffffffffffffffff16815260200190815260200160002060008473ffffffffffffffffffffffffffffffffffffffff1673ffffffffffffffffffffffffffffffffffffffff168152602001908152602001600020819055508173ffffffffffffffffffffffffffffffffffffffff168373ffffffffffffffffffffffffffffffffffffffff167f8c5be1e5ebec7d5bd14f71427d1e84f3dd0314c0f7b2291e5b200ac8c7c3b925836040518082815260200191505060405180910390a3505050565b600073ffffffffffffffffffffffffffffffffffffffff168273ffffffffffffffffffffffffffffffffffffffff161415151561376b57600080fd5b6137bc816000808673ffffffffffffffffffffffffffffffffffffffff1673ffffffffffffffffffffffffffffffffffffffff168152602001908152602001600020546138fb90919063ffffffff16565b6000808573ffffffffffffffffffffffffffffffffffffffff1673ffffffffffffffffffffffffffffffffffffffff1681526020019081526020016000208190555061384f816000808573ffffffffffffffffffffffffffffffffffffffff1673ffffffffffffffffffffffffffffffffffffffff1681526020019081526020016000205461391490919063ffffffff16565b6000808473ffffffffffffffffffffffffffffffffffffffff1673ffffffffffffffffffffffffffffffffffffffff168152602001908152602001600020819055508173ffffffffffffffffffffffffffffffffffffffff168373ffffffffffffffffffffffffffffffffffffffff167fddf252ad1be2c89b69c2b068fc378daa952ba7f163c4a11628f55a4df523b3ef836040518082815260200191505060405180910390a3505050565b600082821115151561390957fe5b818303905092915050565b600080828401905083811015151561392857fe5b8091505092915050565b600073ffffffffffffffffffffffffffffffffffffffff168273ffffffffffffffffffffffffffffffffffffffff161415151561396e57600080fd5b6139838160025461391490919063ffffffff16565b6002819055506139da816000808573ffffffffffffffffffffffffffffffffffffffff1673ffffffffffffffffffffffffffffffffffffffff1681526020019081526020016000205461391490919063ffffffff16565b6000808473ffffffffffffffffffffffffffffffffffffffff1673ffffffffffffffffffffffffffffffffffffffff168152602001908152602001600020819055508173ffffffffffffffffffffffffffffffffffffffff16600073ffffffffffffffffffffffffffffffffffffffff167fddf252ad1be2c89b69c2b068fc378daa952ba7f163c4a11628f55a4df523b3ef836040518082815260200191505060405180910390a35050565b600082805190602001206001900490503373ffffffffffffffffffffffffffffffffffffffff16600c846040518082805190602001908083835b602083101515613ae55780518252602082019150602081019050602083039250613ac0565b6001836020036101000a038019825116818451168082178552505050505050905001915050908152602001604051809103902060009054906101000a900473ffffffffffffffffffffffffffffffffffffffff1673ffffffffffffffffffffffffffffffffffffffff16141515613b5b57600080fd5b60006005600083815260200190815260200160002060040160006101000a81548160ff02191690831515021790555082600560008381526020019081526020016000206001019080519060200190613bb4929190613df8565b50336005600083815260200190815260200160002060000160006101000a81548173ffffffffffffffffffffffffffffffffffffffff021916908373ffffffffffffffffffffffffffffffffffffffff1602179055506007826040518082805190602001908083835b602083101515613c425780518252602082019150602081019050602083039250613c1d565b6001836020036101000a0380198251168184511680821785525050505050509050019150509081526020016040518091039020819080600181540180825580915050906001820390600052602060002001600090919290919091505550505050565b600073ffffffffffffffffffffffffffffffffffffffff168273ffffffffffffffffffffffffffffffffffffffff1614151515613ce057600080fd5b613cf5816002546138fb90919063ffffffff16565b600281905550613d4c816000808573ffffffffffffffffffffffffffffffffffffffff1673ffffffffffffffffffffffffffffffffffffffff168152602001908152602001600020546138fb90919063ffffffff16565b6000808473ffffffffffffffffffffffffffffffffffffffff1673ffffffffffffffffffffffffffffffffffffffff16815260200190815260200160002081905550600073ffffffffffffffffffffffffffffffffffffffff168273ffffffffffffffffffffffffffffffffffffffff167fddf252ad1be2c89b69c2b068fc378daa952ba7f163c4a11628f55a4df523b3ef836040518082815260200191505060405180910390a35050565b828054600181600116156101000203166002900490600052602060002090601f016020900481019282601f10613e3957805160ff1916838001178555613e67565b82800160010185558215613e67579182015b82811115613e66578251825591602001919060010190613e4b565b5b509050613e749190613e78565b5090565b613e9a91905b80821115613e96576000816000905550600101613e7e565b5090565b9056fea165627a7a723058203385a68d6596df966ad2ef23299726dcb77aeb7cb542fba0b04cc36b044dbae00029",
  "source": "pragma solidity ^0.5.0;\n\nimport \"./Cagnottes.sol\";\n\ncontract GettersSetters is Cagnottes {\n\nfunction modifierMaxGroups(uint _maxGroups) public onlyOwner\n{\n  require(_maxGroups >= 10 && _maxGroups <= 1000);\n  MAX_GROUPS = _maxGroups;\n}\n\nfunction modifierDelai(uint _maxDelai) public onlyOwner\n{\n  require(_maxDelai >= 10 && _maxDelai <= 1000000000);\n  MAX_DELAI = _maxDelai;\n}\n\nfunction modifierMaxMembre(uint _maxMembre) public onlyOwner\n{\n  require(_maxMembre >= 5 && _maxMembre <= 200);\n  MAX_MEMBRE = _maxMembre;\n}\n\nfunction modifierMaxAmount(uint _maxAmount) public onlyOwner\n{\n  require(_maxAmount >= 10000000 && _maxAmount <= 10000000000000);\n  MAX_AMOUNT = _maxAmount;\n}\n\nfunction modifierMinAmount(uint _minAmount) public onlyOwner\n{\n  require(_minAmount >= 100000 && _minAmount <= 1000000);\n  MIN_AMOUNT = _minAmount;\n}\n\nfunction modifierPriceChannel(uint _priceChannel) public onlyOwner\n{\n  require(_priceChannel > 1);\n  PRICE_RATIO = _priceChannel;\n}\n\nfunction getGroupesPerAddress() public view returns (uint[] memory)\n{\n  return mappGroupesForAddress[msg.sender];\n}\n\nfunction getMembres(string memory _groupe) public view returns (uint[] memory)\n{\n  return mappGroupeAndChannels[_groupe];\n}\n\nfunction getNomMembre(uint _ID) public view returns (string memory)\n{\n  return mappChannel[_ID].pseudo;\n}\n\nfunction getMontant(uint _ID) public view returns (uint)\n{\n  return mappChannel[_ID].montant;\n}\n\nfunction getBlockFermeture(uint _ID) public view returns (uint)\n{\n  return mappChannel[_ID].blocFermeture;\n}\n\nfunction getEncours(uint _ID) public view returns (uint)\n{\n  return mappChannel[_ID].enCours;\n}\n\nfunction getDonnations(uint _ID) public view returns (uint)\n{\n  return mappChannel[_ID].donnations;\n}\n\nfunction getDescription(uint _ID) public view returns (string memory)\n{\n  return mappChannel[_ID].description;\n}\n\nfunction getNomGroupe(uint _ID) public view returns (string memory)\n{\n  return mappIDGroupe[_ID];\n}\n\n}\n",
  "sourcePath": "/Users/germaindacunha/Desktop/Alyra/project/src/contracts/GettersSetters.sol",
  "compiler": {
    "name": "solc",
    "version": "0.5.0+commit.1d4f565a.Emscripten.clang"
  },
  "schemaVersion": "3.0.2",
  "updatedAt": "2019-03-25T01:17:07.093Z",
  "devdoc": {
    "methods": {
      "_burnFrom(address,uint256)": {
        "details": "Internal function that burns an amount of the token of a given account, deducting from the sender's allowance for said account. Uses the internal burn function. Emits an Approval event (reflecting the reduced allowance).",
        "params": {
          "account": "The account whose tokens will be burnt.",
          "value": "The amount that will be burnt."
        }
      },
      "allowance(address,address)": {
        "details": "Function to check the amount of tokens that an owner allowed to a spender.",
        "params": {
          "owner": "address The address which owns the funds.",
          "spender": "address The address which will spend the funds."
        },
        "return": "A uint256 specifying the amount of tokens still available for the spender."
      },
      "approve(address,uint256)": {
        "details": "Approve the passed address to spend the specified amount of tokens on behalf of msg.sender. Beware that changing an allowance with this method brings the risk that someone may use both the old and the new allowance by unfortunate transaction ordering. One possible solution to mitigate this race condition is to first reduce the spender's allowance to 0 and set the desired value afterwards: https://github.com/ethereum/EIPs/issues/20#issuecomment-263524729",
        "params": {
          "spender": "The address which will spend the funds.",
          "value": "The amount of tokens to be spent."
        }
      },
      "balanceOf(address)": {
        "details": "Gets the balance of the specified address.",
        "params": {
          "owner": "The address to query the balance of."
        },
        "return": "A uint256 representing the amount owned by the passed address."
      },
      "decreaseAllowance(address,uint256)": {
        "details": "Decrease the amount of tokens that an owner allowed to a spender. approve should be called when _allowed[msg.sender][spender] == 0. To decrement allowed value is better to use this function to avoid 2 calls (and wait until the first transaction is mined) From MonolithDAO Token.sol Emits an Approval event.",
        "params": {
          "spender": "The address which will spend the funds.",
          "subtractedValue": "The amount of tokens to decrease the allowance by."
        }
      },
      "increaseAllowance(address,uint256)": {
        "details": "Increase the amount of tokens that an owner allowed to a spender. approve should be called when _allowed[msg.sender][spender] == 0. To increment allowed value is better to use this function to avoid 2 calls (and wait until the first transaction is mined) From MonolithDAO Token.sol Emits an Approval event.",
        "params": {
          "addedValue": "The amount of tokens to increase the allowance by.",
          "spender": "The address which will spend the funds."
        }
      },
      "totalSupply()": {
        "details": "Total number of tokens in existence"
      },
      "transfer(address,uint256)": {
        "details": "Transfer token to a specified address",
        "params": {
          "to": "The address to transfer to.",
          "value": "The amount to be transferred."
        }
      },
      "transferFrom(address,address,uint256)": {
        "details": "Transfer tokens from one address to another. Note that while this function emits an Approval event, this is not required as per the specification, and other compliant implementations may not emit the event.",
        "params": {
          "from": "address The address which you want to send tokens from",
          "to": "address The address which you want to transfer to",
          "value": "uint256 the amount of tokens to be transferred"
        }
      },
      "transferOwnership(address)": {
        "details": "Allows the current owner to transfer control of the contract to a newOwner.",
        "params": {
          "newOwner": "The address to transfer ownership to."
        }
      }
    }
  },
  "userdoc": {
    "methods": {}
  }
}