{
  "contractName": "Main",
  "abi": [
    {
      "constant": true,
      "inputs": [],
      "name": "name",
      "outputs": [
        {
          "name": "",
          "type": "string"
        }
      ],
      "payable": false,
      "stateMutability": "view",
      "type": "function"
    },
    {
      "constant": false,
      "inputs": [
        {
          "name": "spender",
          "type": "address"
        },
        {
          "name": "value",
          "type": "uint256"
        }
      ],
      "name": "approve",
      "outputs": [
        {
          "name": "",
          "type": "bool"
        }
      ],
      "payable": false,
      "stateMutability": "nonpayable",
      "type": "function"
    },
    {
      "constant": false,
      "inputs": [
        {
          "name": "_membre",
          "type": "address"
        },
        {
          "name": "_groupe",
          "type": "string"
        }
      ],
      "name": "ajouterAdmin",
      "outputs": [],
      "payable": false,
      "stateMutability": "nonpayable",
      "type": "function"
    },
    {
      "constant": true,
      "inputs": [],
      "name": "totalSupply",
      "outputs": [
        {
          "name": "",
          "type": "uint256"
        }
      ],
      "payable": false,
      "stateMutability": "view",
      "type": "function"
    },
    {
      "constant": false,
      "inputs": [
        {
          "name": "_token",
          "type": "uint256"
        }
      ],
      "name": "consommerTokens",
      "outputs": [],
      "payable": false,
      "stateMutability": "nonpayable",
      "type": "function"
    },
    {
      "constant": false,
      "inputs": [
        {
          "name": "from",
          "type": "address"
        },
        {
          "name": "to",
          "type": "address"
        },
        {
          "name": "value",
          "type": "uint256"
        }
      ],
      "name": "transferFrom",
      "outputs": [
        {
          "name": "",
          "type": "bool"
        }
      ],
      "payable": false,
      "stateMutability": "nonpayable",
      "type": "function"
    },
    {
      "constant": true,
      "inputs": [],
      "name": "myGimicoin",
      "outputs": [
        {
          "name": "",
          "type": "address"
        }
      ],
      "payable": false,
      "stateMutability": "view",
      "type": "function"
    },
    {
      "constant": true,
      "inputs": [],
      "name": "decimals",
      "outputs": [
        {
          "name": "",
          "type": "uint32"
        }
      ],
      "payable": false,
      "stateMutability": "view",
      "type": "function"
    },
    {
      "constant": false,
      "inputs": [
        {
          "name": "spender",
          "type": "address"
        },
        {
          "name": "addedValue",
          "type": "uint256"
        }
      ],
      "name": "increaseAllowance",
      "outputs": [
        {
          "name": "",
          "type": "bool"
        }
      ],
      "payable": false,
      "stateMutability": "nonpayable",
      "type": "function"
    },
    {
      "constant": false,
      "inputs": [
        {
          "name": "_pseudo",
          "type": "string"
        }
      ],
      "name": "fermetureCanal",
      "outputs": [],
      "payable": false,
      "stateMutability": "nonpayable",
      "type": "function"
    },
    {
      "constant": true,
      "inputs": [
        {
          "name": "owner",
          "type": "address"
        }
      ],
      "name": "balanceOf",
      "outputs": [
        {
          "name": "",
          "type": "uint256"
        }
      ],
      "payable": false,
      "stateMutability": "view",
      "type": "function"
    },
    {
      "constant": false,
      "inputs": [
        {
          "name": "_groupe",
          "type": "string"
        },
        {
          "name": "_pseudo",
          "type": "string"
        },
        {
          "name": "_token",
          "type": "uint256"
        }
      ],
      "name": "payerCanal",
      "outputs": [],
      "payable": true,
      "stateMutability": "payable",
      "type": "function"
    },
    {
      "constant": true,
      "inputs": [],
      "name": "owner",
      "outputs": [
        {
          "name": "",
          "type": "address"
        }
      ],
      "payable": false,
      "stateMutability": "view",
      "type": "function"
    },
    {
      "constant": false,
      "inputs": [
        {
          "name": "_membre",
          "type": "address"
        },
        {
          "name": "_groupe",
          "type": "string"
        },
        {
          "name": "_pseudo",
          "type": "string"
        }
      ],
      "name": "ajouterMembre",
      "outputs": [],
      "payable": false,
      "stateMutability": "nonpayable",
      "type": "function"
    },
    {
      "constant": true,
      "inputs": [],
      "name": "symbol",
      "outputs": [
        {
          "name": "",
          "type": "string"
        }
      ],
      "payable": false,
      "stateMutability": "view",
      "type": "function"
    },
    {
      "constant": false,
      "inputs": [
        {
          "name": "spender",
          "type": "address"
        },
        {
          "name": "subtractedValue",
          "type": "uint256"
        }
      ],
      "name": "decreaseAllowance",
      "outputs": [
        {
          "name": "",
          "type": "bool"
        }
      ],
      "payable": false,
      "stateMutability": "nonpayable",
      "type": "function"
    },
    {
      "constant": false,
      "inputs": [
        {
          "name": "to",
          "type": "address"
        },
        {
          "name": "value",
          "type": "uint256"
        }
      ],
      "name": "transfer",
      "outputs": [
        {
          "name": "",
          "type": "bool"
        }
      ],
      "payable": false,
      "stateMutability": "nonpayable",
      "type": "function"
    },
    {
      "constant": true,
      "inputs": [
        {
          "name": "owner",
          "type": "address"
        },
        {
          "name": "spender",
          "type": "address"
        }
      ],
      "name": "allowance",
      "outputs": [
        {
          "name": "",
          "type": "uint256"
        }
      ],
      "payable": false,
      "stateMutability": "view",
      "type": "function"
    },
    {
      "constant": false,
      "inputs": [
        {
          "name": "newOwner",
          "type": "address"
        }
      ],
      "name": "transferOwnership",
      "outputs": [],
      "payable": false,
      "stateMutability": "nonpayable",
      "type": "function"
    },
    {
      "constant": false,
      "inputs": [
        {
          "name": "_nom",
          "type": "string"
        },
        {
          "name": "_pseudo",
          "type": "string"
        }
      ],
      "name": "creerGroupe",
      "outputs": [],
      "payable": true,
      "stateMutability": "payable",
      "type": "function"
    },
    {
      "constant": false,
      "inputs": [
        {
          "name": "_montant",
          "type": "uint256"
        },
        {
          "name": "_delai",
          "type": "uint256"
        },
        {
          "name": "_pseudo",
          "type": "string"
        },
        {
          "name": "_description",
          "type": "string"
        }
      ],
      "name": "demander",
      "outputs": [],
      "payable": true,
      "stateMutability": "payable",
      "type": "function"
    },
    {
      "anonymous": false,
      "inputs": [
        {
          "indexed": true,
          "name": "previousOwner",
          "type": "address"
        },
        {
          "indexed": true,
          "name": "newOwner",
          "type": "address"
        }
      ],
      "name": "OwnershipTransferred",
      "type": "event"
    },
    {
      "anonymous": false,
      "inputs": [
        {
          "indexed": true,
          "name": "from",
          "type": "address"
        },
        {
          "indexed": true,
          "name": "to",
          "type": "address"
        },
        {
          "indexed": false,
          "name": "value",
          "type": "uint256"
        }
      ],
      "name": "Transfer",
      "type": "event"
    },
    {
      "anonymous": false,
      "inputs": [
        {
          "indexed": true,
          "name": "owner",
          "type": "address"
        },
        {
          "indexed": true,
          "name": "spender",
          "type": "address"
        },
        {
          "indexed": false,
          "name": "value",
          "type": "uint256"
        }
      ],
      "name": "Approval",
      "type": "event"
    },
    {
      "constant": false,
      "inputs": [
        {
          "name": "_maxGroups",
          "type": "uint256"
        }
      ],
      "name": "modifierMaxGroups",
      "outputs": [],
      "payable": false,
      "stateMutability": "nonpayable",
      "type": "function"
    },
    {
      "constant": false,
      "inputs": [
        {
          "name": "_maxDelai",
          "type": "uint256"
        }
      ],
      "name": "modifierDelai",
      "outputs": [],
      "payable": false,
      "stateMutability": "nonpayable",
      "type": "function"
    },
    {
      "constant": false,
      "inputs": [
        {
          "name": "_maxMembre",
          "type": "uint256"
        }
      ],
      "name": "modifierMaxMembre",
      "outputs": [],
      "payable": false,
      "stateMutability": "nonpayable",
      "type": "function"
    },
    {
      "constant": false,
      "inputs": [
        {
          "name": "_maxAmount",
          "type": "uint256"
        }
      ],
      "name": "modifierMaxAmount",
      "outputs": [],
      "payable": false,
      "stateMutability": "nonpayable",
      "type": "function"
    },
    {
      "constant": false,
      "inputs": [
        {
          "name": "_minAmount",
          "type": "uint256"
        }
      ],
      "name": "modifierMinAmount",
      "outputs": [],
      "payable": false,
      "stateMutability": "nonpayable",
      "type": "function"
    },
    {
      "constant": false,
      "inputs": [
        {
          "name": "_priceChannel",
          "type": "uint256"
        }
      ],
      "name": "modifierPriceChannel",
      "outputs": [],
      "payable": false,
      "stateMutability": "nonpayable",
      "type": "function"
    },
    {
      "constant": true,
      "inputs": [],
      "name": "getGroupesPerAddress",
      "outputs": [
        {
          "name": "",
          "type": "uint256[]"
        }
      ],
      "payable": false,
      "stateMutability": "view",
      "type": "function"
    },
    {
      "constant": true,
      "inputs": [
        {
          "name": "_groupe",
          "type": "string"
        }
      ],
      "name": "getMembres",
      "outputs": [
        {
          "name": "",
          "type": "uint256[]"
        }
      ],
      "payable": false,
      "stateMutability": "view",
      "type": "function"
    },
    {
      "constant": true,
      "inputs": [
        {
          "name": "_ID",
          "type": "uint256"
        }
      ],
      "name": "getNomMembre",
      "outputs": [
        {
          "name": "",
          "type": "string"
        }
      ],
      "payable": false,
      "stateMutability": "view",
      "type": "function"
    },
    {
      "constant": true,
      "inputs": [
        {
          "name": "_ID",
          "type": "uint256"
        }
      ],
      "name": "getMontant",
      "outputs": [
        {
          "name": "",
          "type": "uint256"
        }
      ],
      "payable": false,
      "stateMutability": "view",
      "type": "function"
    },
    {
      "constant": true,
      "inputs": [
        {
          "name": "_ID",
          "type": "uint256"
        }
      ],
      "name": "getBlockFermeture",
      "outputs": [
        {
          "name": "",
          "type": "uint256"
        }
      ],
      "payable": false,
      "stateMutability": "view",
      "type": "function"
    },
    {
      "constant": true,
      "inputs": [
        {
          "name": "_ID",
          "type": "uint256"
        }
      ],
      "name": "getEncours",
      "outputs": [
        {
          "name": "",
          "type": "uint256"
        }
      ],
      "payable": false,
      "stateMutability": "view",
      "type": "function"
    },
    {
      "constant": true,
      "inputs": [
        {
          "name": "_ID",
          "type": "uint256"
        }
      ],
      "name": "getDonnations",
      "outputs": [
        {
          "name": "",
          "type": "uint256"
        }
      ],
      "payable": false,
      "stateMutability": "view",
      "type": "function"
    },
    {
      "constant": true,
      "inputs": [
        {
          "name": "_ID",
          "type": "uint256"
        }
      ],
      "name": "getDescription",
      "outputs": [
        {
          "name": "",
          "type": "string"
        }
      ],
      "payable": false,
      "stateMutability": "view",
      "type": "function"
    },
    {
      "constant": true,
      "inputs": [
        {
          "name": "_ID",
          "type": "uint256"
        }
      ],
      "name": "getNomGroupe",
      "outputs": [
        {
          "name": "",
          "type": "string"
        }
      ],
      "payable": false,
      "stateMutability": "view",
      "type": "function"
    }
  ],
  "bytecode": "0x608060405233600360006101000a81548173ffffffffffffffffffffffffffffffffffffffff021916908373ffffffffffffffffffffffffffffffffffffffff1602179055506032601281905550600a600d819055506014600e819055506509184e72a000600f81905550620186a06010819055506064601181905550613f0a8061008b6000396000f3fe6080604052600436106101c2576000357c0100000000000000000000000000000000000000000000000000000000900463ffffffff16806306fdde03146101c7578063095ea7b31461025757806316f1df23146102ca57806318160ddd146103b25780631c064aa7146103dd5780631e0afe5714610418578063203ac3ce1461048457806323b872dd146104bf578063247e00f81461055257806327f128b3146105a957806329c77347146105f8578063313ce56714610715578063370c29f91461074c578063395093511461078757806341522997146107fa5780634925ec55146108ae5780634b7b03cf146109625780634c9a985014610a165780634dc8872914610a6557806370a0823114610b2d57806370d5191814610b92578063750fa0a314610cee5780638da5cb5b14610d3d5780638f33334114610d9457806395d89b4114610f13578063a457c2d714610fa3578063a9059cbb14611016578063beaf3b0d14611089578063dd62ed3e146110c4578063df40e32914611149578063e0c989c214611198578063f2fde38b146111d3578063f420948b14611224578063f4343df41461125f578063f4839772146113b1578063fa8622f9146113ec575b600080fd5b3480156101d357600080fd5b506101dc611552565b6040518080602001828103825283818151815260200191508051906020019080838360005b8381101561021c578082015181840152602081019050610201565b50505050905090810190601f1680156102495780820380516001836020036101000a031916815260200191505b509250505060405180910390f35b34801561026357600080fd5b506102b06004803603604081101561027a57600080fd5b81019080803573ffffffffffffffffffffffffffffffffffffffff1690602001909291908035906020019092919050505061158b565b604051808215151515815260200191505060405180910390f35b3480156102d657600080fd5b506103b0600480360360408110156102ed57600080fd5b81019080803573ffffffffffffffffffffffffffffffffffffffff1690602001909291908035906020019064010000000081111561032a57600080fd5b82018360208201111561033c57600080fd5b8035906020019184600183028401116401000000008311171561035e57600080fd5b91908080601f016020809104026020016040519081016040528093929190818152602001838380828437600081840152601f19601f8201169050808301925050505050505091929192905050506115a2565b005b3480156103be57600080fd5b506103c761193f565b6040518082815260200191505060405180910390f35b3480156103e957600080fd5b506104166004803603602081101561040057600080fd5b8101908080359060200190929190505050611949565b005b34801561042457600080fd5b5061042d6119cc565b6040518080602001828103825283818151815260200191508051906020019060200280838360005b83811015610470578082015181840152602081019050610455565b505050509050019250505060405180910390f35b34801561049057600080fd5b506104bd600480360360208110156104a757600080fd5b8101908080359060200190929190505050611a61565b005b3480156104cb57600080fd5b50610538600480360360608110156104e257600080fd5b81019080803573ffffffffffffffffffffffffffffffffffffffff169060200190929190803573ffffffffffffffffffffffffffffffffffffffff16906020019092919080359060200190929190505050611acc565b604051808215151515815260200191505060405180910390f35b34801561055e57600080fd5b50610567611b7d565b604051808273ffffffffffffffffffffffffffffffffffffffff1673ffffffffffffffffffffffffffffffffffffffff16815260200191505060405180910390f35b3480156105b557600080fd5b506105e2600480360360208110156105cc57600080fd5b8101908080359060200190929190505050611ba3565b6040518082815260200191505060405180910390f35b34801561060457600080fd5b506106be6004803603602081101561061b57600080fd5b810190808035906020019064010000000081111561063857600080fd5b82018360208201111561064a57600080fd5b8035906020019184600183028401116401000000008311171561066c57600080fd5b91908080601f016020809104026020016040519081016040528093929190818152602001838380828437600081840152601f19601f820116905080830192505050505050509192919290505050611bc3565b6040518080602001828103825283818151815260200191508051906020019060200280838360005b838110156107015780820151818401526020810190506106e6565b505050509050019250505060405180910390f35b34801561072157600080fd5b5061072a611c86565b604051808263ffffffff1663ffffffff16815260200191505060405180910390f35b34801561075857600080fd5b506107856004803603602081101561076f57600080fd5b8101908080359060200190929190505050611c8b565b005b34801561079357600080fd5b506107e0600480360360408110156107aa57600080fd5b81019080803573ffffffffffffffffffffffffffffffffffffffff16906020019092919080359060200190929190505050611d00565b604051808215151515815260200191505060405180910390f35b34801561080657600080fd5b506108336004803603602081101561081d57600080fd5b8101908080359060200190929190505050611da5565b6040518080602001828103825283818151815260200191508051906020019080838360005b83811015610873578082015181840152602081019050610858565b50505050905090810190601f1680156108a05780820380516001836020036101000a031916815260200191505b509250505060405180910390f35b3480156108ba57600080fd5b506108e7600480360360208110156108d157600080fd5b8101908080359060200190929190505050611e5a565b6040518080602001828103825283818151815260200191508051906020019080838360005b8381101561092757808201518184015260208101905061090c565b50505050905090810190601f1680156109545780820380516001836020036101000a031916815260200191505b509250505060405180910390f35b34801561096e57600080fd5b5061099b6004803603602081101561098557600080fd5b8101908080359060200190929190505050611f12565b6040518080602001828103825283818151815260200191508051906020019080838360005b838110156109db5780820151818401526020810190506109c0565b50505050905090810190601f168015610a085780820380516001836020036101000a031916815260200191505b509250505060405180910390f35b348015610a2257600080fd5b50610a4f60048036036020811015610a3957600080fd5b8101908080359060200190929190505050611fca565b6040518082815260200191505060405180910390f35b348015610a7157600080fd5b50610b2b60048036036020811015610a8857600080fd5b8101908080359060200190640100000000811115610aa557600080fd5b820183602082011115610ab757600080fd5b80359060200191846001830284011164010000000083111715610ad957600080fd5b91908080601f016020809104026020016040519081016040528093929190818152602001838380828437600081840152601f19601f820116905080830192505050505050509192919290505050611fea565b005b348015610b3957600080fd5b50610b7c60048036036020811015610b5057600080fd5b81019080803573ffffffffffffffffffffffffffffffffffffffff1690602001909291905050506121e4565b6040518082815260200191505060405180910390f35b610cec60048036036060811015610ba857600080fd5b8101908080359060200190640100000000811115610bc557600080fd5b820183602082011115610bd757600080fd5b80359060200191846001830284011164010000000083111715610bf957600080fd5b91908080601f016020809104026020016040519081016040528093929190818152602001838380828437600081840152601f19601f82011690508083019250505050505050919291929080359060200190640100000000811115610c5c57600080fd5b820183602082011115610c6e57600080fd5b80359060200191846001830284011164010000000083111715610c9057600080fd5b91908080601f016020809104026020016040519081016040528093929190818152602001838380828437600081840152601f19601f8201169050808301925050505050505091929192908035906020019092919050505061222c565b005b348015610cfa57600080fd5b50610d2760048036036020811015610d1157600080fd5b81019080803590602001909291905050506125be565b6040518082815260200191505060405180910390f35b348015610d4957600080fd5b50610d526125de565b604051808273ffffffffffffffffffffffffffffffffffffffff1673ffffffffffffffffffffffffffffffffffffffff16815260200191505060405180910390f35b348015610da057600080fd5b50610f1160048036036060811015610db757600080fd5b81019080803573ffffffffffffffffffffffffffffffffffffffff16906020019092919080359060200190640100000000811115610df457600080fd5b820183602082011115610e0657600080fd5b80359060200191846001830284011164010000000083111715610e2857600080fd5b91908080601f016020809104026020016040519081016040528093929190818152602001838380828437600081840152601f19601f82011690508083019250505050505050919291929080359060200190640100000000811115610e8b57600080fd5b820183602082011115610e9d57600080fd5b80359060200191846001830284011164010000000083111715610ebf57600080fd5b91908080601f016020809104026020016040519081016040528093929190818152602001838380828437600081840152601f19601f820116905080830192505050505050509192919290505050612604565b005b348015610f1f57600080fd5b50610f28612a05565b6040518080602001828103825283818151815260200191508051906020019080838360005b83811015610f68578082015181840152602081019050610f4d565b50505050905090810190601f168015610f955780820380516001836020036101000a031916815260200191505b509250505060405180910390f35b348015610faf57600080fd5b50610ffc60048036036040811015610fc657600080fd5b81019080803573ffffffffffffffffffffffffffffffffffffffff16906020019092919080359060200190929190505050612a3e565b604051808215151515815260200191505060405180910390f35b34801561102257600080fd5b5061106f6004803603604081101561103957600080fd5b81019080803573ffffffffffffffffffffffffffffffffffffffff16906020019092919080359060200190929190505050612ae3565b604051808215151515815260200191505060405180910390f35b34801561109557600080fd5b506110c2600480360360208110156110ac57600080fd5b8101908080359060200190929190505050612afa565b005b3480156110d057600080fd5b50611133600480360360408110156110e757600080fd5b81019080803573ffffffffffffffffffffffffffffffffffffffff169060200190929190803573ffffffffffffffffffffffffffffffffffffffff169060200190929190505050612b84565b6040518082815260200191505060405180910390f35b34801561115557600080fd5b506111826004803603602081101561116c57600080fd5b8101908080359060200190929190505050612c0b565b6040518082815260200191505060405180910390f35b3480156111a457600080fd5b506111d1600480360360208110156111bb57600080fd5b8101908080359060200190929190505050612c2b565b005b3480156111df57600080fd5b50611222600480360360208110156111f657600080fd5b81019080803573ffffffffffffffffffffffffffffffffffffffff169060200190929190505050612cb1565b005b34801561123057600080fd5b5061125d6004803603602081101561124757600080fd5b8101908080359060200190929190505050612e09565b005b6113af6004803603604081101561127557600080fd5b810190808035906020019064010000000081111561129257600080fd5b8201836020820111156112a457600080fd5b803590602001918460018302840111640100000000831117156112c657600080fd5b91908080601f016020809104026020016040519081016040528093929190818152602001838380828437600081840152601f19601f8201169050808301925050505050505091929192908035906020019064010000000081111561132957600080fd5b82018360208201111561133b57600080fd5b8035906020019184600183028401116401000000008311171561135d57600080fd5b91908080601f016020809104026020016040519081016040528093929190818152602001838380828437600081840152601f19601f820116905080830192505050505050509192919290505050612e8d565b005b3480156113bd57600080fd5b506113ea600480360360208110156113d457600080fd5b81019080803590602001909291905050506132dd565b005b6115506004803603608081101561140257600080fd5b8101908080359060200190929190803590602001909291908035906020019064010000000081111561143357600080fd5b82018360208201111561144557600080fd5b8035906020019184600183028401116401000000008311171561146757600080fd5b91908080601f016020809104026020016040519081016040528093929190818152602001838380828437600081840152601f19601f820116905080830192505050505050509192919290803590602001906401000000008111156114ca57600080fd5b8201836020820111156114dc57600080fd5b803590602001918460018302840111640100000000831117156114fe57600080fd5b91908080601f016020809104026020016040519081016040528093929190818152602001838380828437600081840152601f19601f820116905080830192505050505050509192919290505050613364565b005b6040805190810160405280600881526020017f67696d69636f696e00000000000000000000000000000000000000000000000081525081565b6000611598338484613566565b6001905092915050565b60008090505b600b826040518082805190602001908083835b6020831015156115e057805182526020820191506020810190506020830392506115bb565b6001836020036101000a03801982511681845116808217855250505050505090500191505090815260200160405180910390208054905081101561193a573373ffffffffffffffffffffffffffffffffffffffff16600b836040518082805190602001908083835b60208310151561166d5780518252602082019150602081019050602083039250611648565b6001836020036101000a0380198251168184511680821785525050505050509050019150509081526020016040518091039020828154811015156116ad57fe5b9060005260206000200160009054906101000a900473ffffffffffffffffffffffffffffffffffffffff1673ffffffffffffffffffffffffffffffffffffffff16141561192d5760008090505b600a836040518082805190602001908083835b602083101515611732578051825260208201915060208101905060208303925061170d565b6001836020036101000a038019825116818451168082178552505050505050905001915050908152602001604051809103902080549050811015611927578373ffffffffffffffffffffffffffffffffffffffff16600a846040518082805190602001908083835b6020831015156117bf578051825260208201915060208101905060208303925061179a565b6001836020036101000a0380198251168184511680821785525050505050509050019150509081526020016040518091039020828154811015156117ff57fe5b9060005260206000200160009054906101000a900473ffffffffffffffffffffffffffffffffffffffff1673ffffffffffffffffffffffffffffffffffffffff16141561191a57600b836040518082805190602001908083835b60208310151561187e5780518252602082019150602081019050602083039250611859565b6001836020036101000a03801982511681845116808217855250505050505090500191505090815260200160405180910390208490806001815401808255809150509060018203906000526020600020016000909192909190916101000a81548173ffffffffffffffffffffffffffffffffffffffff021916908373ffffffffffffffffffffffffffffffffffffffff16021790555050611927565b80806001019150506116fa565b5061193a565b80806001019150506115a8565b505050565b6000600254905090565b600360009054906101000a900473ffffffffffffffffffffffffffffffffffffffff1673ffffffffffffffffffffffffffffffffffffffff163373ffffffffffffffffffffffffffffffffffffffff161415156119a557600080fd5b600581101580156119b7575060c88111155b15156119c257600080fd5b80600d8190555050565b6060600660003373ffffffffffffffffffffffffffffffffffffffff1673ffffffffffffffffffffffffffffffffffffffff168152602001908152602001600020805480602002602001604051908101604052809291908181526020018280548015611a5757602002820191906000526020600020905b815481526020019060010190808311611a43575b5050505050905090565b80611a6b336121e4565b10151515611a7857600080fd5b3373ffffffffffffffffffffffffffffffffffffffff166108fc829081150290604051600060405180830381858888f19350505050158015611abe573d6000803e3d6000fd5b50611ac933826136c9565b50565b6000611ad9848484613770565b611b728433611b6d85600160008a73ffffffffffffffffffffffffffffffffffffffff1673ffffffffffffffffffffffffffffffffffffffff16815260200190815260200160002060003373ffffffffffffffffffffffffffffffffffffffff1673ffffffffffffffffffffffffffffffffffffffff1681526020019081526020016000205461393c90919063ffffffff16565b613566565b600190509392505050565b600460009054906101000a900473ffffffffffffffffffffffffffffffffffffffff1681565b600060056000838152602001908152602001600020600601549050919050565b60606007826040518082805190602001908083835b602083101515611bfd5780518252602082019150602081019050602083039250611bd8565b6001836020036101000a0380198251168184511680821785525050505050509050019150509081526020016040518091039020805480602002602001604051908101604052809291908181526020018280548015611c7a57602002820191906000526020600020905b815481526020019060010190808311611c66575b50505050509050919050565b601281565b600360009054906101000a900473ffffffffffffffffffffffffffffffffffffffff1673ffffffffffffffffffffffffffffffffffffffff163373ffffffffffffffffffffffffffffffffffffffff16141515611ce757600080fd5b600181111515611cf657600080fd5b8060118190555050565b6000611d9b3384611d9685600160003373ffffffffffffffffffffffffffffffffffffffff1673ffffffffffffffffffffffffffffffffffffffff16815260200190815260200160002060008973ffffffffffffffffffffffffffffffffffffffff1673ffffffffffffffffffffffffffffffffffffffff1681526020019081526020016000205461395590919063ffffffff16565b613566565b6001905092915050565b6060600860008381526020019081526020016000208054600181600116156101000203166002900480601f016020809104026020016040519081016040528092919081815260200182805460018160011615610100020316600290048015611e4e5780601f10611e2357610100808354040283529160200191611e4e565b820191906000526020600020905b815481529060010190602001808311611e3157829003601f168201915b50505050509050919050565b6060600560008381526020019081526020016000206007018054600181600116156101000203166002900480601f016020809104026020016040519081016040528092919081815260200182805460018160011615610100020316600290048015611f065780601f10611edb57610100808354040283529160200191611f06565b820191906000526020600020905b815481529060010190602001808311611ee957829003601f168201915b50505050509050919050565b6060600560008381526020019081526020016000206001018054600181600116156101000203166002900480601f016020809104026020016040519081016040528092919081815260200182805460018160011615610100020316600290048015611fbe5780601f10611f9357610100808354040283529160200191611fbe565b820191906000526020600020905b815481529060010190602001808311611fa157829003601f168201915b50505050509050919050565b600060056000838152602001908152602001600020600501549050919050565b600081805190602001206001900490504360056000838152602001908152602001600020600301541115151561201f57600080fd5b600115156005600083815260200190815260200160002060040160009054906101000a900460ff16151514151561205557600080fd5b3373ffffffffffffffffffffffffffffffffffffffff166005600083815260200190815260200160002060000160009054906101000a900473ffffffffffffffffffffffffffffffffffffffff1673ffffffffffffffffffffffffffffffffffffffff161415156120c557600080fd5b3373ffffffffffffffffffffffffffffffffffffffff166108fc60056000848152602001908152602001600020600501549081150290604051600060405180830381858888f19350505050158015612121573d6000803e3d6000fd5b5060006005600083815260200190815260200160002060050181905550600060056000838152602001908152602001600020600201819055506000600560008381526020019081526020016000206003018190555060006005600083815260200190815260200160002060040160006101000a81548160ff02191690831515021790555060206040519081016040528060008152506005600083815260200190815260200160002060070190805190602001906121df929190613e39565b505050565b60008060008373ffffffffffffffffffffffffffffffffffffffff1673ffffffffffffffffffffffffffffffffffffffff168152602001908152602001600020549050919050565b60008280519060200120600190049050600560008281526020019081526020016000206005015460056000838152602001908152602001600020600201541015151561227757600080fd5b600115156005600083815260200190815260200160002060040160009054906101000a900460ff1615151415156122ad57600080fd5b436005600083815260200190815260200160002060030154101515156122d257600080fd5b3373ffffffffffffffffffffffffffffffffffffffff166005600083815260200190815260200160002060000160009054906101000a900473ffffffffffffffffffffffffffffffffffffffff1673ffffffffffffffffffffffffffffffffffffffff1614151561234257600080fd5b60008090505b600a856040518082805190602001908083835b602083101515612380578051825260208201915060208101905060208303925061235b565b6001836020036101000a0380198251168184511680821785525050505050509050019150509081526020016040518091039020805490508110156125b7573373ffffffffffffffffffffffffffffffffffffffff16600a866040518082805190602001908083835b60208310151561240d57805182526020820191506020810190506020830392506123e8565b6001836020036101000a03801982511681845116808217855250505050505090500191505090815260200160405180910390208281548110151561244d57fe5b9060005260206000200160009054906101000a900473ffffffffffffffffffffffffffffffffffffffff1673ffffffffffffffffffffffffffffffffffffffff1614156125aa576000601154348115156124a357fe5b0490506124b233823403613973565b6000349050600085111561254f57846124ca336121e4565b101515156124d757600080fd5b600560008581526020019081526020016000206002015460056000868152602001908152602001600020600501548601111561253f57600560008581526020019081526020016000206005015460056000868152602001908152602001600020600201540394505b848101905061254e33866136c9565b5b8060056000888051906020012060019004815260200190815260200160002060060160008282540192505081905550818103905080600560008681526020019081526020016000206005016000828254019250508190555050505b8080600101915050612348565b5050505050565b600060056000838152602001908152602001600020600201549050919050565b600360009054906101000a900473ffffffffffffffffffffffffffffffffffffffff1681565b600d54600a836040518082805190602001908083835b60208310151561263f578051825260208201915060208101905060208303925061261a565b6001836020036101000a03801982511681845116808217855250505050505090500191505090815260200160405180910390208054905010151561268257600080fd5b600073ffffffffffffffffffffffffffffffffffffffff16600c826040518082805190602001908083835b6020831015156126d257805182526020820191506020810190506020830392506126ad565b6001836020036101000a038019825116818451168082178552505050505050905001915050908152602001604051809103902060009054906101000a900473ffffffffffffffffffffffffffffffffffffffff1673ffffffffffffffffffffffffffffffffffffffff1614151561274857600080fd5b60008090505b600b836040518082805190602001908083835b6020831015156127865780518252602082019150602081019050602083039250612761565b6001836020036101000a0380198251168184511680821785525050505050509050019150509081526020016040518091039020805490508110156129ff573373ffffffffffffffffffffffffffffffffffffffff16600b846040518082805190602001908083835b60208310151561281357805182526020820191506020810190506020830392506127ee565b6001836020036101000a03801982511681845116808217855250505050505090500191505090815260200160405180910390208281548110151561285357fe5b9060005260206000200160009054906101000a900473ffffffffffffffffffffffffffffffffffffffff1673ffffffffffffffffffffffffffffffffffffffff1614156129f25760008380519060200120600190049050600660008673ffffffffffffffffffffffffffffffffffffffff1673ffffffffffffffffffffffffffffffffffffffff168152602001908152602001600020819080600181540180825580915050906001820390600052602060002001600090919290919091505550600a846040518082805190602001908083835b60208310151561294b5780518252602082019150602081019050602083039250612926565b6001836020036101000a03801982511681845116808217855250505050505090500191505090815260200160405180910390208590806001815401808255809150509060018203906000526020600020016000909192909190916101000a81548173ffffffffffffffffffffffffffffffffffffffff021916908373ffffffffffffffffffffffffffffffffffffffff160217905550506129ec8385613ac7565b506129ff565b808060010191505061274e565b50505050565b6040805190810160405280600381526020017f474d43000000000000000000000000000000000000000000000000000000000081525081565b6000612ad93384612ad485600160003373ffffffffffffffffffffffffffffffffffffffff1673ffffffffffffffffffffffffffffffffffffffff16815260200190815260200160002060008973ffffffffffffffffffffffffffffffffffffffff1673ffffffffffffffffffffffffffffffffffffffff1681526020019081526020016000205461393c90919063ffffffff16565b613566565b6001905092915050565b6000612af0338484613770565b6001905092915050565b600360009054906101000a900473ffffffffffffffffffffffffffffffffffffffff1673ffffffffffffffffffffffffffffffffffffffff163373ffffffffffffffffffffffffffffffffffffffff16141515612b5657600080fd5b629896808110158015612b6f57506509184e72a0008111155b1515612b7a57600080fd5b80600f8190555050565b6000600160008473ffffffffffffffffffffffffffffffffffffffff1673ffffffffffffffffffffffffffffffffffffffff16815260200190815260200160002060008373ffffffffffffffffffffffffffffffffffffffff1673ffffffffffffffffffffffffffffffffffffffff16815260200190815260200160002054905092915050565b600060056000838152602001908152602001600020600301549050919050565b600360009054906101000a900473ffffffffffffffffffffffffffffffffffffffff1673ffffffffffffffffffffffffffffffffffffffff163373ffffffffffffffffffffffffffffffffffffffff16141515612c8757600080fd5b600a8110158015612c9c5750633b9aca008111155b1515612ca757600080fd5b80600e8190555050565b600360009054906101000a900473ffffffffffffffffffffffffffffffffffffffff1673ffffffffffffffffffffffffffffffffffffffff163373ffffffffffffffffffffffffffffffffffffffff16141515612d0d57600080fd5b600073ffffffffffffffffffffffffffffffffffffffff168173ffffffffffffffffffffffffffffffffffffffff1614151515612d4957600080fd5b8073ffffffffffffffffffffffffffffffffffffffff16600360009054906101000a900473ffffffffffffffffffffffffffffffffffffffff1673ffffffffffffffffffffffffffffffffffffffff167f8be0079c531659141344cd1fd0a4f28419497f9722a3daafe3b4186f6b6457e060405160405180910390a380600360006101000a81548173ffffffffffffffffffffffffffffffffffffffff021916908373ffffffffffffffffffffffffffffffffffffffff16021790555050565b600360009054906101000a900473ffffffffffffffffffffffffffffffffffffffff1673ffffffffffffffffffffffffffffffffffffffff163373ffffffffffffffffffffffffffffffffffffffff16141515612e6557600080fd5b600a8110158015612e7857506103e88111155b1515612e8357600080fd5b8060128190555050565b60006009836040518082805190602001908083835b602083101515612ec75780518252602082019150602081019050602083039250612ea2565b6001836020036101000a038019825116818451168082178552505050505050905001915050908152602001604051809103902054141515612f0757600080fd5b601254600660003373ffffffffffffffffffffffffffffffffffffffff1673ffffffffffffffffffffffffffffffffffffffff16815260200190815260200160002080549050101515612f5957600080fd5b600073ffffffffffffffffffffffffffffffffffffffff16600c826040518082805190602001908083835b602083101515612fa95780518252602082019150602081019050602083039250612f84565b6001836020036101000a038019825116818451168082178552505050505050905001915050908152602001604051809103902060009054906101000a900473ffffffffffffffffffffffffffffffffffffffff1673ffffffffffffffffffffffffffffffffffffffff1614151561301f57600080fd5b60008280519060200120600190049050806009846040518082805190602001908083835b6020831015156130685780518252602082019150602081019050602083039250613043565b6001836020036101000a038019825116818451168082178552505050505050905001915050908152602001604051809103902081905550826008600083815260200190815260200160002090805190602001906130c6929190613e39565b50600a836040518082805190602001908083835b6020831015156130ff57805182526020820191506020810190506020830392506130da565b6001836020036101000a03801982511681845116808217855250505050505090500191505090815260200160405180910390203390806001815401808255809150509060018203906000526020600020016000909192909190916101000a81548173ffffffffffffffffffffffffffffffffffffffff021916908373ffffffffffffffffffffffffffffffffffffffff16021790555050600b836040518082805190602001908083835b6020831015156131ce57805182526020820191506020810190506020830392506131a9565b6001836020036101000a03801982511681845116808217855250505050505090500191505090815260200160405180910390203390806001815401808255809150509060018203906000526020600020016000909192909190916101000a81548173ffffffffffffffffffffffffffffffffffffffff021916908373ffffffffffffffffffffffffffffffffffffffff16021790555050600660003373ffffffffffffffffffffffffffffffffffffffff1673ffffffffffffffffffffffffffffffffffffffff1681526020019081526020016000208190806001815401808255809150509060018203906000526020600020016000909192909190915055506132d88284613ac7565b505050565b600360009054906101000a900473ffffffffffffffffffffffffffffffffffffffff1673ffffffffffffffffffffffffffffffffffffffff163373ffffffffffffffffffffffffffffffffffffffff1614151561333957600080fd5b620186a0811015801561334f5750620f42408111155b151561335a57600080fd5b8060108190555050565b60105484101580156133785750600f548411155b151561338357600080fd5b3373ffffffffffffffffffffffffffffffffffffffff16600c836040518082805190602001908083835b6020831015156133d257805182526020820191506020810190506020830392506133ad565b6001836020036101000a038019825116818451168082178552505050505050905001915050908152602001604051809103902060009054906101000a900473ffffffffffffffffffffffffffffffffffffffff1673ffffffffffffffffffffffffffffffffffffffff1614151561344857600080fd5b60006011548581151561345757fe5b04905080341015151561346957600080fd5b60008380519060200120600190049050600015156005600083815260200190815260200160002060040160009054906101000a900460ff1615151415156134af57600080fd5b856005600083815260200190815260200160002060020181905550813403600560008381526020019081526020016000206005018190555060016005600083815260200190815260200160002060040160006101000a81548160ff02191690831515021790555084430160056000838152602001908152602001600020600301819055508260056000838152602001908152602001600020600701908051906020019061355d929190613e39565b50505050505050565b600073ffffffffffffffffffffffffffffffffffffffff168273ffffffffffffffffffffffffffffffffffffffff16141515156135a257600080fd5b600073ffffffffffffffffffffffffffffffffffffffff168373ffffffffffffffffffffffffffffffffffffffff16141515156135de57600080fd5b80600160008573ffffffffffffffffffffffffffffffffffffffff1673ffffffffffffffffffffffffffffffffffffffff16815260200190815260200160002060008473ffffffffffffffffffffffffffffffffffffffff1673ffffffffffffffffffffffffffffffffffffffff168152602001908152602001600020819055508173ffffffffffffffffffffffffffffffffffffffff168373ffffffffffffffffffffffffffffffffffffffff167f8c5be1e5ebec7d5bd14f71427d1e84f3dd0314c0f7b2291e5b200ac8c7c3b925836040518082815260200191505060405180910390a3505050565b6136d38282613ce5565b61376c823361376784600160008873ffffffffffffffffffffffffffffffffffffffff1673ffffffffffffffffffffffffffffffffffffffff16815260200190815260200160002060003373ffffffffffffffffffffffffffffffffffffffff1673ffffffffffffffffffffffffffffffffffffffff1681526020019081526020016000205461393c90919063ffffffff16565b613566565b5050565b600073ffffffffffffffffffffffffffffffffffffffff168273ffffffffffffffffffffffffffffffffffffffff16141515156137ac57600080fd5b6137fd816000808673ffffffffffffffffffffffffffffffffffffffff1673ffffffffffffffffffffffffffffffffffffffff1681526020019081526020016000205461393c90919063ffffffff16565b6000808573ffffffffffffffffffffffffffffffffffffffff1673ffffffffffffffffffffffffffffffffffffffff16815260200190815260200160002081905550613890816000808573ffffffffffffffffffffffffffffffffffffffff1673ffffffffffffffffffffffffffffffffffffffff1681526020019081526020016000205461395590919063ffffffff16565b6000808473ffffffffffffffffffffffffffffffffffffffff1673ffffffffffffffffffffffffffffffffffffffff168152602001908152602001600020819055508173ffffffffffffffffffffffffffffffffffffffff168373ffffffffffffffffffffffffffffffffffffffff167fddf252ad1be2c89b69c2b068fc378daa952ba7f163c4a11628f55a4df523b3ef836040518082815260200191505060405180910390a3505050565b600082821115151561394a57fe5b818303905092915050565b600080828401905083811015151561396957fe5b8091505092915050565b600073ffffffffffffffffffffffffffffffffffffffff168273ffffffffffffffffffffffffffffffffffffffff16141515156139af57600080fd5b6139c48160025461395590919063ffffffff16565b600281905550613a1b816000808573ffffffffffffffffffffffffffffffffffffffff1673ffffffffffffffffffffffffffffffffffffffff1681526020019081526020016000205461395590919063ffffffff16565b6000808473ffffffffffffffffffffffffffffffffffffffff1673ffffffffffffffffffffffffffffffffffffffff168152602001908152602001600020819055508173ffffffffffffffffffffffffffffffffffffffff16600073ffffffffffffffffffffffffffffffffffffffff167fddf252ad1be2c89b69c2b068fc378daa952ba7f163c4a11628f55a4df523b3ef836040518082815260200191505060405180910390a35050565b600082805190602001206001900490503373ffffffffffffffffffffffffffffffffffffffff16600c846040518082805190602001908083835b602083101515613b265780518252602082019150602081019050602083039250613b01565b6001836020036101000a038019825116818451168082178552505050505050905001915050908152602001604051809103902060009054906101000a900473ffffffffffffffffffffffffffffffffffffffff1673ffffffffffffffffffffffffffffffffffffffff16141515613b9c57600080fd5b60006005600083815260200190815260200160002060040160006101000a81548160ff02191690831515021790555082600560008381526020019081526020016000206001019080519060200190613bf5929190613e39565b50336005600083815260200190815260200160002060000160006101000a81548173ffffffffffffffffffffffffffffffffffffffff021916908373ffffffffffffffffffffffffffffffffffffffff1602179055506007826040518082805190602001908083835b602083101515613c835780518252602082019150602081019050602083039250613c5e565b6001836020036101000a0380198251168184511680821785525050505050509050019150509081526020016040518091039020819080600181540180825580915050906001820390600052602060002001600090919290919091505550505050565b600073ffffffffffffffffffffffffffffffffffffffff168273ffffffffffffffffffffffffffffffffffffffff1614151515613d2157600080fd5b613d368160025461393c90919063ffffffff16565b600281905550613d8d816000808573ffffffffffffffffffffffffffffffffffffffff1673ffffffffffffffffffffffffffffffffffffffff1681526020019081526020016000205461393c90919063ffffffff16565b6000808473ffffffffffffffffffffffffffffffffffffffff1673ffffffffffffffffffffffffffffffffffffffff16815260200190815260200160002081905550600073ffffffffffffffffffffffffffffffffffffffff168273ffffffffffffffffffffffffffffffffffffffff167fddf252ad1be2c89b69c2b068fc378daa952ba7f163c4a11628f55a4df523b3ef836040518082815260200191505060405180910390a35050565b828054600181600116156101000203166002900490600052602060002090601f016020900481019282601f10613e7a57805160ff1916838001178555613ea8565b82800160010185558215613ea8579182015b82811115613ea7578251825591602001919060010190613e8c565b5b509050613eb59190613eb9565b5090565b613edb91905b80821115613ed7576000816000905550600101613ebf565b5090565b9056fea165627a7a723058207b16ef608ca5dd9b4c74e9fb2aa41f9e6788c1ad357a676250a3278f3a8736940029",
  "source": "pragma solidity ^0.5.0;\n\nimport \"./Cagnottes.sol\";\nimport \"./InterfaceCagnottes.sol\";\n\ncontract Main is Cagnottes, InterfaceCagnottes{\n\nfunction modifierMaxGroups(uint _maxGroups) public onlyOwner\n{\n  require(_maxGroups >= 10 && _maxGroups <= 1000);\n  MAX_GROUPS = _maxGroups;\n}\n\nfunction modifierDelai(uint _maxDelai) public onlyOwner\n{\n  require(_maxDelai >= 10 && _maxDelai <= 1000000000);\n  MAX_DELAI = _maxDelai;\n}\n\nfunction modifierMaxMembre(uint _maxMembre) public onlyOwner\n{\n  require(_maxMembre >= 5 && _maxMembre <= 200);\n  MAX_MEMBRE = _maxMembre;\n}\n\nfunction modifierMaxAmount(uint _maxAmount) public onlyOwner\n{\n  require(_maxAmount >= 10000000 && _maxAmount <= 10000000000000);\n  MAX_AMOUNT = _maxAmount;\n}\n\nfunction modifierMinAmount(uint _minAmount) public onlyOwner\n{\n  require(_minAmount >= 100000 && _minAmount <= 1000000);\n  MIN_AMOUNT = _minAmount;\n}\n\nfunction modifierPriceChannel(uint _priceChannel) public onlyOwner\n{\n  require(_priceChannel > 1);\n  PRICE_RATIO = _priceChannel;\n}\n\nfunction getGroupesPerAddress() public view returns (uint[] memory)\n{\n  return mappGroupesForAddress[msg.sender];\n}\n\nfunction getMembres(string memory _groupe) public view returns (uint[] memory)\n{\n  return mappGroupeAndChannels[_groupe];\n}\n\nfunction getNomMembre(uint _ID) public view returns (string memory)\n{\n  return mappChannel[_ID].pseudo;\n}\n\nfunction getMontant(uint _ID) public view returns (uint)\n{\n  return mappChannel[_ID].montant;\n}\n\nfunction getBlockFermeture(uint _ID) public view returns (uint)\n{\n  return mappChannel[_ID].blocFermeture;\n}\n\nfunction getEncours(uint _ID) public view returns (uint)\n{\n  return mappChannel[_ID].enCours;\n}\n\nfunction getDonnations(uint _ID) public view returns (uint)\n{\n  return mappChannel[_ID].donnations;\n}\n\nfunction getDescription(uint _ID) public view returns (string memory)\n{\n  return mappChannel[_ID].description;\n}\n\nfunction getNomGroupe(uint _ID) public view returns (string memory)\n{\n  return mappIDGroupe[_ID];\n}\n\n}\n",
  "sourcePath": "/Users/germaindacunha/Desktop/Alyra/project/src/contracts/Main.sol",
  "compiler": {
    "name": "solc",
    "version": "0.5.0+commit.1d4f565a.Emscripten.clang"
  },
  "schemaVersion": "3.0.2",
  "updatedAt": "2019-03-25T12:41:55.140Z",
  "devdoc": {
    "methods": {
      "allowance(address,address)": {
        "details": "Function to check the amount of tokens that an owner allowed to a spender.",
        "params": {
          "owner": "address The address which owns the funds.",
          "spender": "address The address which will spend the funds."
        },
        "return": "A uint256 specifying the amount of tokens still available for the spender."
      },
      "approve(address,uint256)": {
        "details": "Approve the passed address to spend the specified amount of tokens on behalf of msg.sender. Beware that changing an allowance with this method brings the risk that someone may use both the old and the new allowance by unfortunate transaction ordering. One possible solution to mitigate this race condition is to first reduce the spender's allowance to 0 and set the desired value afterwards: https://github.com/ethereum/EIPs/issues/20#issuecomment-263524729",
        "params": {
          "spender": "The address which will spend the funds.",
          "value": "The amount of tokens to be spent."
        }
      },
      "balanceOf(address)": {
        "details": "Gets the balance of the specified address.",
        "params": {
          "owner": "The address to query the balance of."
        },
        "return": "A uint256 representing the amount owned by the passed address."
      },
      "decreaseAllowance(address,uint256)": {
        "details": "Decrease the amount of tokens that an owner allowed to a spender. approve should be called when _allowed[msg.sender][spender] == 0. To decrement allowed value is better to use this function to avoid 2 calls (and wait until the first transaction is mined) From MonolithDAO Token.sol Emits an Approval event.",
        "params": {
          "spender": "The address which will spend the funds.",
          "subtractedValue": "The amount of tokens to decrease the allowance by."
        }
      },
      "increaseAllowance(address,uint256)": {
        "details": "Increase the amount of tokens that an owner allowed to a spender. approve should be called when _allowed[msg.sender][spender] == 0. To increment allowed value is better to use this function to avoid 2 calls (and wait until the first transaction is mined) From MonolithDAO Token.sol Emits an Approval event.",
        "params": {
          "addedValue": "The amount of tokens to increase the allowance by.",
          "spender": "The address which will spend the funds."
        }
      },
      "totalSupply()": {
        "details": "Total number of tokens in existence"
      },
      "transfer(address,uint256)": {
        "details": "Transfer token to a specified address",
        "params": {
          "to": "The address to transfer to.",
          "value": "The amount to be transferred."
        }
      },
      "transferFrom(address,address,uint256)": {
        "details": "Transfer tokens from one address to another. Note that while this function emits an Approval event, this is not required as per the specification, and other compliant implementations may not emit the event.",
        "params": {
          "from": "address The address which you want to send tokens from",
          "to": "address The address which you want to transfer to",
          "value": "uint256 the amount of tokens to be transferred"
        }
      },
      "transferOwnership(address)": {
        "details": "Allows the current owner to transfer control of the contract to a newOwner.",
        "params": {
          "newOwner": "The address to transfer ownership to."
        }
      }
    }
  },
  "userdoc": {
    "methods": {}
  }
}