{
  "contractName": "Ownable",
  "abi": [
    {
      "constant": true,
      "inputs": [],
      "name": "owner",
      "outputs": [
        {
          "name": "",
          "type": "address"
        }
      ],
      "payable": false,
      "stateMutability": "view",
      "type": "function"
    },
    {
      "inputs": [],
      "payable": false,
      "stateMutability": "nonpayable",
      "type": "constructor"
    },
    {
      "anonymous": false,
      "inputs": [
        {
          "indexed": true,
          "name": "previousOwner",
          "type": "address"
        },
        {
          "indexed": true,
          "name": "newOwner",
          "type": "address"
        }
      ],
      "name": "OwnershipTransferred",
      "type": "event"
    },
    {
      "constant": false,
      "inputs": [
        {
          "name": "newOwner",
          "type": "address"
        }
      ],
      "name": "transferOwnership",
      "outputs": [],
      "payable": false,
      "stateMutability": "nonpayable",
      "type": "function"
    }
  ],
  "bytecode": "0x608060405234801561001057600080fd5b5060008054600160a060020a03191633179055610185806100326000396000f3fe60806040526004361061004b5763ffffffff7c01000000000000000000000000000000000000000000000000000000006000350416638da5cb5b8114610050578063f2fde38b14610081575b600080fd5b34801561005c57600080fd5b506100656100b6565b60408051600160a060020a039092168252519081900360200190f35b34801561008d57600080fd5b506100b4600480360360208110156100a457600080fd5b5035600160a060020a03166100c5565b005b600054600160a060020a031681565b600054600160a060020a031633146100dc57600080fd5b600160a060020a03811615156100f157600080fd5b60008054604051600160a060020a03808516939216917f8be0079c531659141344cd1fd0a4f28419497f9722a3daafe3b4186f6b6457e091a36000805473ffffffffffffffffffffffffffffffffffffffff1916600160a060020a039290921691909117905556fea165627a7a72305820acb951be37bb9cb441ca01b83497f263a2ed4b3425851496283f17e035b5f0680029",
  "source": "pragma solidity ^0.5.0;\n/**\n * @title Ownable\n * @dev The Ownable contract has an owner address, and provides basic authorization control\n * functions, this simplifies the implementation of \"user permissions\".\n */\ncontract Ownable {\n  address public owner;\n\n\n  event OwnershipTransferred(address indexed previousOwner, address indexed newOwner);\n\n\n  /**\n   * @dev The Ownable constructor sets the original `owner` of the contract to the sender\n   * account.\n   */\n  constructor() public {\n    owner = msg.sender;\n  }\n\n\n  /**\n   * @dev Throws if called by any account other than the owner.\n   */\n  modifier onlyOwner() {\n    require(msg.sender == owner);\n    _;\n  }\n\n\n  /**\n   * @dev Allows the current owner to transfer control of the contract to a newOwner.\n   * @param newOwner The address to transfer ownership to.\n   */\n  function transferOwnership(address newOwner) onlyOwner public {\n    require(newOwner != address(0));\n    emit OwnershipTransferred(owner, newOwner);\n    owner = newOwner;\n  }\n\n}\n",
  "sourcePath": "/Users/germaindacunha/Desktop/Alyra/project/src/contracts/Ownable.sol",
  "compiler": {
    "name": "solc",
    "version": "0.5.0+commit.1d4f565a.Emscripten.clang"
  },
  "schemaVersion": "3.0.2",
  "updatedAt": "2019-03-27T00:07:57.298Z",
  "devdoc": {
    "details": "The Ownable contract has an owner address, and provides basic authorization control functions, this simplifies the implementation of \"user permissions\".",
    "methods": {
      "constructor": {
        "details": "The Ownable constructor sets the original `owner` of the contract to the sender account."
      },
      "transferOwnership(address)": {
        "details": "Allows the current owner to transfer control of the contract to a newOwner.",
        "params": {
          "newOwner": "The address to transfer ownership to."
        }
      }
    },
    "title": "Ownable"
  },
  "userdoc": {
    "methods": {}
  }
}