{
  "contractName": "Lottery",
  "abi": [
    {
      "constant": true,
      "inputs": [
        {
          "name": "_pseudo",
          "type": "string"
        }
      ],
      "name": "getAddresse",
      "outputs": [
        {
          "name": "",
          "type": "address"
        }
      ],
      "payable": false,
      "stateMutability": "view",
      "type": "function"
    },
    {
      "constant": true,
      "inputs": [],
      "name": "name",
      "outputs": [
        {
          "name": "",
          "type": "string"
        }
      ],
      "payable": false,
      "stateMutability": "view",
      "type": "function"
    },
    {
      "constant": false,
      "inputs": [
        {
          "name": "spender",
          "type": "address"
        },
        {
          "name": "value",
          "type": "uint256"
        }
      ],
      "name": "approve",
      "outputs": [
        {
          "name": "",
          "type": "bool"
        }
      ],
      "payable": false,
      "stateMutability": "nonpayable",
      "type": "function"
    },
    {
      "constant": false,
      "inputs": [
        {
          "name": "_priceGroup",
          "type": "uint256"
        }
      ],
      "name": "modifierPriceGroup",
      "outputs": [],
      "payable": false,
      "stateMutability": "nonpayable",
      "type": "function"
    },
    {
      "constant": true,
      "inputs": [],
      "name": "totalSupply",
      "outputs": [
        {
          "name": "",
          "type": "uint256"
        }
      ],
      "payable": false,
      "stateMutability": "view",
      "type": "function"
    },
    {
      "constant": true,
      "inputs": [],
      "name": "getGroupesPerAddress",
      "outputs": [
        {
          "name": "",
          "type": "uint256[]"
        }
      ],
      "payable": false,
      "stateMutability": "view",
      "type": "function"
    },
    {
      "constant": true,
      "inputs": [
        {
          "name": "_groupe",
          "type": "string"
        }
      ],
      "name": "getPseudoInGroup",
      "outputs": [
        {
          "name": "",
          "type": "string"
        }
      ],
      "payable": false,
      "stateMutability": "view",
      "type": "function"
    },
    {
      "constant": false,
      "inputs": [
        {
          "name": "from",
          "type": "address"
        },
        {
          "name": "to",
          "type": "address"
        },
        {
          "name": "value",
          "type": "uint256"
        }
      ],
      "name": "transferFrom",
      "outputs": [
        {
          "name": "",
          "type": "bool"
        }
      ],
      "payable": false,
      "stateMutability": "nonpayable",
      "type": "function"
    },
    {
      "constant": false,
      "inputs": [
        {
          "name": "_montant",
          "type": "uint256"
        },
        {
          "name": "_pseudo",
          "type": "string"
        },
        {
          "name": "_contratCible",
          "type": "address"
        },
        {
          "name": "_description",
          "type": "string"
        }
      ],
      "name": "demander",
      "outputs": [],
      "payable": true,
      "stateMutability": "payable",
      "type": "function"
    },
    {
      "constant": true,
      "inputs": [
        {
          "name": "_groupe",
          "type": "string"
        }
      ],
      "name": "getMembres",
      "outputs": [
        {
          "name": "",
          "type": "uint256[]"
        }
      ],
      "payable": false,
      "stateMutability": "view",
      "type": "function"
    },
    {
      "constant": true,
      "inputs": [
        {
          "name": "_pseudo",
          "type": "string"
        }
      ],
      "name": "getDonnations",
      "outputs": [
        {
          "name": "",
          "type": "uint256"
        }
      ],
      "payable": false,
      "stateMutability": "view",
      "type": "function"
    },
    {
      "constant": true,
      "inputs": [],
      "name": "decimals",
      "outputs": [
        {
          "name": "",
          "type": "uint32"
        }
      ],
      "payable": false,
      "stateMutability": "view",
      "type": "function"
    },
    {
      "constant": false,
      "inputs": [
        {
          "name": "_priceChannel",
          "type": "uint256"
        }
      ],
      "name": "modifierPriceChannel",
      "outputs": [],
      "payable": false,
      "stateMutability": "nonpayable",
      "type": "function"
    },
    {
      "constant": false,
      "inputs": [
        {
          "name": "spender",
          "type": "address"
        },
        {
          "name": "addedValue",
          "type": "uint256"
        }
      ],
      "name": "increaseAllowance",
      "outputs": [
        {
          "name": "",
          "type": "bool"
        }
      ],
      "payable": false,
      "stateMutability": "nonpayable",
      "type": "function"
    },
    {
      "constant": true,
      "inputs": [
        {
          "name": "_ID",
          "type": "uint256"
        }
      ],
      "name": "getNomGroupe",
      "outputs": [
        {
          "name": "",
          "type": "string"
        }
      ],
      "payable": false,
      "stateMutability": "view",
      "type": "function"
    },
    {
      "constant": true,
      "inputs": [
        {
          "name": "_pseudo",
          "type": "string"
        }
      ],
      "name": "getDescription",
      "outputs": [
        {
          "name": "",
          "type": "string"
        }
      ],
      "payable": false,
      "stateMutability": "view",
      "type": "function"
    },
    {
      "constant": true,
      "inputs": [
        {
          "name": "_ID",
          "type": "uint256"
        }
      ],
      "name": "getNomMembre",
      "outputs": [
        {
          "name": "",
          "type": "string"
        }
      ],
      "payable": false,
      "stateMutability": "view",
      "type": "function"
    },
    {
      "constant": true,
      "inputs": [],
      "name": "getPriceChannel",
      "outputs": [
        {
          "name": "",
          "type": "uint256"
        }
      ],
      "payable": false,
      "stateMutability": "view",
      "type": "function"
    },
    {
      "constant": false,
      "inputs": [
        {
          "name": "_pseudo",
          "type": "string"
        }
      ],
      "name": "fermetureCanal",
      "outputs": [],
      "payable": false,
      "stateMutability": "nonpayable",
      "type": "function"
    },
    {
      "constant": false,
      "inputs": [
        {
          "name": "_priceRatio",
          "type": "uint256"
        }
      ],
      "name": "modifierCharges",
      "outputs": [],
      "payable": false,
      "stateMutability": "nonpayable",
      "type": "function"
    },
    {
      "constant": true,
      "inputs": [],
      "name": "getPseudosList",
      "outputs": [
        {
          "name": "",
          "type": "uint256[]"
        }
      ],
      "payable": false,
      "stateMutability": "view",
      "type": "function"
    },
    {
      "constant": true,
      "inputs": [
        {
          "name": "_pseudo",
          "type": "string"
        }
      ],
      "name": "getReceptions",
      "outputs": [
        {
          "name": "",
          "type": "uint256"
        }
      ],
      "payable": false,
      "stateMutability": "view",
      "type": "function"
    },
    {
      "constant": false,
      "inputs": [
        {
          "name": "_priceMember",
          "type": "uint256"
        }
      ],
      "name": "modifierPriceMember",
      "outputs": [],
      "payable": false,
      "stateMutability": "nonpayable",
      "type": "function"
    },
    {
      "constant": false,
      "inputs": [
        {
          "name": "_pseudo",
          "type": "string"
        }
      ],
      "name": "payerCanal",
      "outputs": [],
      "payable": true,
      "stateMutability": "payable",
      "type": "function"
    },
    {
      "constant": true,
      "inputs": [],
      "name": "getPriceMember",
      "outputs": [
        {
          "name": "",
          "type": "uint256"
        }
      ],
      "payable": false,
      "stateMutability": "view",
      "type": "function"
    },
    {
      "constant": true,
      "inputs": [
        {
          "name": "owner",
          "type": "address"
        }
      ],
      "name": "balanceOf",
      "outputs": [
        {
          "name": "",
          "type": "uint256"
        }
      ],
      "payable": false,
      "stateMutability": "view",
      "type": "function"
    },
    {
      "constant": true,
      "inputs": [
        {
          "name": "_pseudo",
          "type": "string"
        }
      ],
      "name": "getGroupe",
      "outputs": [
        {
          "name": "",
          "type": "string"
        }
      ],
      "payable": false,
      "stateMutability": "view",
      "type": "function"
    },
    {
      "constant": true,
      "inputs": [],
      "name": "owner",
      "outputs": [
        {
          "name": "",
          "type": "address"
        }
      ],
      "payable": false,
      "stateMutability": "view",
      "type": "function"
    },
    {
      "constant": false,
      "inputs": [
        {
          "name": "_membre",
          "type": "address"
        },
        {
          "name": "_groupe",
          "type": "string"
        },
        {
          "name": "_pseudo",
          "type": "string"
        }
      ],
      "name": "ajouterMembre",
      "outputs": [],
      "payable": true,
      "stateMutability": "payable",
      "type": "function"
    },
    {
      "constant": true,
      "inputs": [],
      "name": "symbol",
      "outputs": [
        {
          "name": "",
          "type": "string"
        }
      ],
      "payable": false,
      "stateMutability": "view",
      "type": "function"
    },
    {
      "constant": true,
      "inputs": [
        {
          "name": "_pseudo",
          "type": "string"
        }
      ],
      "name": "getEncours",
      "outputs": [
        {
          "name": "",
          "type": "uint256"
        }
      ],
      "payable": false,
      "stateMutability": "view",
      "type": "function"
    },
    {
      "constant": false,
      "inputs": [
        {
          "name": "spender",
          "type": "address"
        },
        {
          "name": "subtractedValue",
          "type": "uint256"
        }
      ],
      "name": "decreaseAllowance",
      "outputs": [
        {
          "name": "",
          "type": "bool"
        }
      ],
      "payable": false,
      "stateMutability": "nonpayable",
      "type": "function"
    },
    {
      "constant": false,
      "inputs": [
        {
          "name": "to",
          "type": "address"
        },
        {
          "name": "value",
          "type": "uint256"
        }
      ],
      "name": "transfer",
      "outputs": [
        {
          "name": "",
          "type": "bool"
        }
      ],
      "payable": false,
      "stateMutability": "nonpayable",
      "type": "function"
    },
    {
      "constant": false,
      "inputs": [
        {
          "name": "_maxAmount",
          "type": "uint256"
        }
      ],
      "name": "modifierMaxAmount",
      "outputs": [],
      "payable": false,
      "stateMutability": "nonpayable",
      "type": "function"
    },
    {
      "constant": true,
      "inputs": [
        {
          "name": "_pseudo",
          "type": "string"
        }
      ],
      "name": "getMontant",
      "outputs": [
        {
          "name": "",
          "type": "uint256"
        }
      ],
      "payable": false,
      "stateMutability": "view",
      "type": "function"
    },
    {
      "constant": true,
      "inputs": [
        {
          "name": "owner",
          "type": "address"
        },
        {
          "name": "spender",
          "type": "address"
        }
      ],
      "name": "allowance",
      "outputs": [
        {
          "name": "",
          "type": "uint256"
        }
      ],
      "payable": false,
      "stateMutability": "view",
      "type": "function"
    },
    {
      "constant": true,
      "inputs": [],
      "name": "getOwnedGroupe",
      "outputs": [
        {
          "name": "",
          "type": "uint256[]"
        }
      ],
      "payable": false,
      "stateMutability": "view",
      "type": "function"
    },
    {
      "constant": true,
      "inputs": [
        {
          "name": "_pseudo",
          "type": "string"
        }
      ],
      "name": "getContratCible",
      "outputs": [
        {
          "name": "",
          "type": "address"
        }
      ],
      "payable": false,
      "stateMutability": "view",
      "type": "function"
    },
    {
      "constant": true,
      "inputs": [],
      "name": "getPriceGroup",
      "outputs": [
        {
          "name": "",
          "type": "uint256"
        }
      ],
      "payable": false,
      "stateMutability": "view",
      "type": "function"
    },
    {
      "constant": false,
      "inputs": [
        {
          "name": "newOwner",
          "type": "address"
        }
      ],
      "name": "transferOwnership",
      "outputs": [],
      "payable": false,
      "stateMutability": "nonpayable",
      "type": "function"
    },
    {
      "constant": false,
      "inputs": [
        {
          "name": "_nom",
          "type": "string"
        },
        {
          "name": "_pseudo",
          "type": "string"
        }
      ],
      "name": "creerGroupe",
      "outputs": [],
      "payable": true,
      "stateMutability": "payable",
      "type": "function"
    },
    {
      "constant": false,
      "inputs": [
        {
          "name": "_minAmount",
          "type": "uint256"
        }
      ],
      "name": "modifierMinAmount",
      "outputs": [],
      "payable": false,
      "stateMutability": "nonpayable",
      "type": "function"
    },
    {
      "inputs": [],
      "payable": false,
      "stateMutability": "nonpayable",
      "type": "constructor"
    },
    {
      "anonymous": false,
      "inputs": [
        {
          "indexed": false,
          "name": "groupe",
          "type": "string"
        },
        {
          "indexed": false,
          "name": "pseudo",
          "type": "string"
        }
      ],
      "name": "nouvelleDemamnde",
      "type": "event"
    },
    {
      "anonymous": false,
      "inputs": [
        {
          "indexed": true,
          "name": "previousOwner",
          "type": "address"
        },
        {
          "indexed": true,
          "name": "newOwner",
          "type": "address"
        }
      ],
      "name": "OwnershipTransferred",
      "type": "event"
    },
    {
      "anonymous": false,
      "inputs": [
        {
          "indexed": true,
          "name": "from",
          "type": "address"
        },
        {
          "indexed": true,
          "name": "to",
          "type": "address"
        },
        {
          "indexed": false,
          "name": "value",
          "type": "uint256"
        }
      ],
      "name": "Transfer",
      "type": "event"
    },
    {
      "anonymous": false,
      "inputs": [
        {
          "indexed": true,
          "name": "owner",
          "type": "address"
        },
        {
          "indexed": true,
          "name": "spender",
          "type": "address"
        },
        {
          "indexed": false,
          "name": "value",
          "type": "uint256"
        }
      ],
      "name": "Approval",
      "type": "event"
    },
    {
      "constant": false,
      "inputs": [
        {
          "name": "_price",
          "type": "uint256"
        },
        {
          "name": "_tickets",
          "type": "uint256"
        },
        {
          "name": "_blockEnd",
          "type": "uint256"
        }
      ],
      "name": "initierLottery",
      "outputs": [],
      "payable": false,
      "stateMutability": "nonpayable",
      "type": "function"
    },
    {
      "constant": false,
      "inputs": [
        {
          "name": "_prediction",
          "type": "uint256"
        },
        {
          "name": "_nbTickets",
          "type": "uint256"
        }
      ],
      "name": "play",
      "outputs": [],
      "payable": false,
      "stateMutability": "nonpayable",
      "type": "function"
    },
    {
      "constant": false,
      "inputs": [],
      "name": "endGame",
      "outputs": [],
      "payable": false,
      "stateMutability": "nonpayable",
      "type": "function"
    },
    {
      "constant": false,
      "inputs": [],
      "name": "soldeGame",
      "outputs": [],
      "payable": false,
      "stateMutability": "nonpayable",
      "type": "function"
    },
    {
      "constant": false,
      "inputs": [],
      "name": "withdrawGains",
      "outputs": [],
      "payable": false,
      "stateMutability": "nonpayable",
      "type": "function"
    },
    {
      "constant": true,
      "inputs": [],
      "name": "getPrixLottery",
      "outputs": [
        {
          "name": "",
          "type": "uint256"
        }
      ],
      "payable": false,
      "stateMutability": "view",
      "type": "function"
    },
    {
      "constant": true,
      "inputs": [],
      "name": "getTicketsLeft",
      "outputs": [
        {
          "name": "",
          "type": "uint256"
        }
      ],
      "payable": false,
      "stateMutability": "view",
      "type": "function"
    },
    {
      "constant": true,
      "inputs": [],
      "name": "getEndGame",
      "outputs": [
        {
          "name": "",
          "type": "uint256"
        }
      ],
      "payable": false,
      "stateMutability": "view",
      "type": "function"
    },
    {
      "constant": true,
      "inputs": [],
      "name": "getSuperCagnotte",
      "outputs": [
        {
          "name": "",
          "type": "uint256"
        }
      ],
      "payable": false,
      "stateMutability": "view",
      "type": "function"
    },
    {
      "constant": true,
      "inputs": [],
      "name": "getBlockStop",
      "outputs": [
        {
          "name": "",
          "type": "uint256"
        }
      ],
      "payable": false,
      "stateMutability": "view",
      "type": "function"
    },
    {
      "constant": false,
      "inputs": [
        {
          "name": "_stop",
          "type": "uint256"
        }
      ],
      "name": "modifierBlockStop",
      "outputs": [],
      "payable": false,
      "stateMutability": "nonpayable",
      "type": "function"
    },
    {
      "constant": true,
      "inputs": [],
      "name": "getNumCagnotte",
      "outputs": [
        {
          "name": "",
          "type": "uint256"
        }
      ],
      "payable": false,
      "stateMutability": "view",
      "type": "function"
    },
    {
      "constant": false,
      "inputs": [
        {
          "name": "_pool",
          "type": "uint256"
        }
      ],
      "name": "modifierPoolEnd",
      "outputs": [],
      "payable": false,
      "stateMutability": "nonpayable",
      "type": "function"
    },
    {
      "constant": true,
      "inputs": [],
      "name": "getPoolEnd",
      "outputs": [
        {
          "name": "",
          "type": "uint256"
        }
      ],
      "payable": false,
      "stateMutability": "view",
      "type": "function"
    },
    {
      "constant": true,
      "inputs": [],
      "name": "getCagnotte",
      "outputs": [
        {
          "name": "",
          "type": "uint256"
        }
      ],
      "payable": false,
      "stateMutability": "view",
      "type": "function"
    },
    {
      "constant": true,
      "inputs": [],
      "name": "getBlock",
      "outputs": [
        {
          "name": "",
          "type": "uint256"
        }
      ],
      "payable": false,
      "stateMutability": "view",
      "type": "function"
    },
    {
      "constant": true,
      "inputs": [],
      "name": "getGains",
      "outputs": [
        {
          "name": "",
          "type": "uint256"
        }
      ],
      "payable": false,
      "stateMutability": "view",
      "type": "function"
    },
    {
      "constant": true,
      "inputs": [],
      "name": "getSolde",
      "outputs": [
        {
          "name": "",
          "type": "uint256"
        }
      ],
      "payable": false,
      "stateMutability": "view",
      "type": "function"
    },
    {
      "constant": true,
      "inputs": [],
      "name": "getNbGagnants",
      "outputs": [
        {
          "name": "",
          "type": "uint256"
        }
      ],
      "payable": false,
      "stateMutability": "view",
      "type": "function"
    }
  ],
  "bytecode": "0x60806040523480156200001157600080fd5b5033600360006101000a81548173ffffffffffffffffffffffffffffffffffffffff021916908373ffffffffffffffffffffffffffffffffffffffff160217905550678ac7230489e80000600e8190555062989680600f819055506064601081905550620186a06011819055506127106012819055506103e86013819055506002601e60006101000a81548160ff02191690836002811115620000b057fe5b02179055506064601981905550600a601d8190555061554980620000d56000396000f3fe6080604052600436106102d4576000357c0100000000000000000000000000000000000000000000000000000000900463ffffffff168062afc9e2146102d957806306fdde03146103e1578063095ea7b3146104715780630bcb257f146104e45780630bfc2f5b1461050f578063175032661461055e57806318160ddd146105995780631b4b26fd146105c45780631e0afe57146105ff5780631e63f2931461066b5780632055bd081461069657806323b872dd146107d7578063283a2b461461086a57806329c77347146109e65780632a51becf14610b035780632e97766d14610bdf578063313ce56714610c0a578063370c29f914610c415780633950935114610c7c5780634152299714610cef57806345de2ca014610da3578063479359bc14610ee4578063483f021914610f1f5780634b20d5d514610f365780634b7b03cf14610f615780634c95b448146110155780634dc8872914611040578063512667061461110857806355e5ae04146111435780635712a4481461116e57806357430264146111da5780635f093553146112b6578063639f8499146112f1578063646f22c5146113ac57806367cb92db146113d75780636cbc2ded1461140257806370a08231146114195780637aede2721461147e5780637bc49a95146115bf57806389760011146116045780638da5cb5b1461161b5780638f3333411461167257806395d89b41146117e45780639d05e9ab14611874578063a457c2d714611950578063a9059cbb146119c3578063aee5b78914611a36578063b6e91ae414611a61578063bcc21cf614611a8c578063beaf3b0d14611ab7578063d458be7b14611af2578063d74b10a514611b1d578063dd62ed3e14611bf9578063e09c813614611c7e578063e7637a7d14611cea578063e7ac022d14611df2578063e971cee414611e1d578063ecb6976814611e48578063f2fde38b14611e73578063f4343df414611ec4578063f483977214612016575b600080fd5b3480156102e557600080fd5b5061039f600480360360208110156102fc57600080fd5b810190808035906020019064010000000081111561031957600080fd5b82018360208201111561032b57600080fd5b8035906020019184600183028401116401000000008311171561034d57600080fd5b91908080601f016020809104026020016040519081016040528093929190818152602001838380828437600081840152601f19601f820116905080830192505050505050509192919290505050612051565b604051808273ffffffffffffffffffffffffffffffffffffffff1673ffffffffffffffffffffffffffffffffffffffff16815260200191505060405180910390f35b3480156103ed57600080fd5b506103f66120fc565b6040518080602001828103825283818151815260200191508051906020019080838360005b8381101561043657808201518184015260208101905061041b565b50505050905090810190601f1680156104635780820380516001836020036101000a031916815260200191505b509250505060405180910390f35b34801561047d57600080fd5b506104ca6004803603604081101561049457600080fd5b81019080803573ffffffffffffffffffffffffffffffffffffffff16906020019092919080359060200190929190505050612135565b604051808215151515815260200191505060405180910390f35b3480156104f057600080fd5b506104f961214c565b6040518082815260200191505060405180910390f35b34801561051b57600080fd5b5061055c6004803603606081101561053257600080fd5b81019080803590602001909291908035906020019092919080359060200190929190505050612156565b005b34801561056a57600080fd5b506105976004803603602081101561058157600080fd5b8101908080359060200190929190505050612245565b005b3480156105a557600080fd5b506105ae6122ab565b6040518082815260200191505060405180910390f35b3480156105d057600080fd5b506105fd600480360360208110156105e757600080fd5b81019080803590602001909291905050506122b5565b005b34801561060b57600080fd5b5061061461231b565b6040518080602001828103825283818151815260200191508051906020019060200280838360005b8381101561065757808201518184015260208101905061063c565b505050509050019250505060405180910390f35b34801561067757600080fd5b506106806123b0565b6040518082815260200191505060405180910390f35b3480156106a257600080fd5b5061075c600480360360208110156106b957600080fd5b81019080803590602001906401000000008111156106d657600080fd5b8201836020820111156106e857600080fd5b8035906020019184600183028401116401000000008311171561070a57600080fd5b91908080601f016020809104026020016040519081016040528093929190818152602001838380828437600081840152601f19601f8201169050808301925050505050505091929192905050506123ba565b6040518080602001828103825283818151815260200191508051906020019080838360005b8381101561079c578082015181840152602081019050610781565b50505050905090810190601f1680156107c95780820380516001836020036101000a031916815260200191505b509250505060405180910390f35b3480156107e357600080fd5b50610850600480360360608110156107fa57600080fd5b81019080803573ffffffffffffffffffffffffffffffffffffffff169060200190929190803573ffffffffffffffffffffffffffffffffffffffff169060200190929190803590602001909291905050506124d3565b604051808215151515815260200191505060405180910390f35b6109e46004803603608081101561088057600080fd5b8101908080359060200190929190803590602001906401000000008111156108a757600080fd5b8201836020820111156108b957600080fd5b803590602001918460018302840111640100000000831117156108db57600080fd5b91908080601f016020809104026020016040519081016040528093929190818152602001838380828437600081840152601f19601f820116905080830192505050505050509192919290803573ffffffffffffffffffffffffffffffffffffffff1690602001909291908035906020019064010000000081111561095e57600080fd5b82018360208201111561097057600080fd5b8035906020019184600183028401116401000000008311171561099257600080fd5b91908080601f016020809104026020016040519081016040528093929190818152602001838380828437600081840152601f19601f820116905080830192505050505050509192919290505050612584565b005b3480156109f257600080fd5b50610aac60048036036020811015610a0957600080fd5b8101908080359060200190640100000000811115610a2657600080fd5b820183602082011115610a3857600080fd5b80359060200191846001830284011164010000000083111715610a5a57600080fd5b91908080601f016020809104026020016040519081016040528093929190818152602001838380828437600081840152601f19601f820116905080830192505050505050509192919290505050612836565b6040518080602001828103825283818151815260200191508051906020019060200280838360005b83811015610aef578082015181840152602081019050610ad4565b505050509050019250505060405180910390f35b348015610b0f57600080fd5b50610bc960048036036020811015610b2657600080fd5b8101908080359060200190640100000000811115610b4357600080fd5b820183602082011115610b5557600080fd5b80359060200191846001830284011164010000000083111715610b7757600080fd5b91908080601f016020809104026020016040519081016040528093929190818152602001838380828437600081840152601f19601f8201169050808301925050505050505091929192905050506128f9565b6040518082815260200191505060405180910390f35b348015610beb57600080fd5b50610bf46129c0565b6040518082815260200191505060405180910390f35b348015610c1657600080fd5b50610c1f6129c8565b604051808263ffffffff1663ffffffff16815260200191505060405180910390f35b348015610c4d57600080fd5b50610c7a60048036036020811015610c6457600080fd5b81019080803590602001909291905050506129cd565b005b348015610c8857600080fd5b50610cd560048036036040811015610c9f57600080fd5b81019080803573ffffffffffffffffffffffffffffffffffffffff16906020019092919080359060200190929190505050612a33565b604051808215151515815260200191505060405180910390f35b348015610cfb57600080fd5b50610d2860048036036020811015610d1257600080fd5b8101908080359060200190929190505050612ad8565b6040518080602001828103825283818151815260200191508051906020019080838360005b83811015610d68578082015181840152602081019050610d4d565b50505050905090810190601f168015610d955780820380516001836020036101000a031916815260200191505b509250505060405180910390f35b348015610daf57600080fd5b50610e6960048036036020811015610dc657600080fd5b8101908080359060200190640100000000811115610de357600080fd5b820183602082011115610df557600080fd5b80359060200191846001830284011164010000000083111715610e1757600080fd5b91908080601f016020809104026020016040519081016040528093929190818152602001838380828437600081840152601f19601f820116905080830192505050505050509192919290505050612b8d565b6040518080602001828103825283818151815260200191508051906020019080838360005b83811015610ea9578082015181840152602081019050610e8e565b50505050905090810190601f168015610ed65780820380516001836020036101000a031916815260200191505b509250505060405180910390f35b348015610ef057600080fd5b50610f1d60048036036020811015610f0757600080fd5b8101908080359060200190929190505050612cb0565b005b348015610f2b57600080fd5b50610f34612d16565b005b348015610f4257600080fd5b50610f4b612e37565b6040518082815260200191505060405180910390f35b348015610f6d57600080fd5b50610f9a60048036036020811015610f8457600080fd5b8101908080359060200190929190505050612e44565b6040518080602001828103825283818151815260200191508051906020019080838360005b83811015610fda578082015181840152602081019050610fbf565b50505050905090810190601f1680156110075780820380516001836020036101000a031916815260200191505b509250505060405180910390f35b34801561102157600080fd5b5061102a612efc565b6040518082815260200191505060405180910390f35b34801561104c57600080fd5b506111066004803603602081101561106357600080fd5b810190808035906020019064010000000081111561108057600080fd5b82018360208201111561109257600080fd5b803590602001918460018302840111640100000000831117156110b457600080fd5b91908080601f016020809104026020016040519081016040528093929190818152602001838380828437600081840152601f19601f820116905080830192505050505050509192919290505050612f06565b005b34801561111457600080fd5b506111416004803603602081101561112b57600080fd5b81019080803590602001909291905050506130d6565b005b34801561114f57600080fd5b5061115861313c565b6040518082815260200191505060405180910390f35b34801561117a57600080fd5b5061118361314c565b6040518080602001828103825283818151815260200191508051906020019060200280838360005b838110156111c65780820151818401526020810190506111ab565b505050509050019250505060405180910390f35b3480156111e657600080fd5b506112a0600480360360208110156111fd57600080fd5b810190808035906020019064010000000081111561121a57600080fd5b82018360208201111561122c57600080fd5b8035906020019184600183028401116401000000008311171561124e57600080fd5b91908080601f016020809104026020016040519081016040528093929190818152602001838380828437600081840152601f19601f8201169050808301925050505050505091929192905050506131e1565b6040518082815260200191505060405180910390f35b3480156112c257600080fd5b506112ef600480360360208110156112d957600080fd5b81019080803590602001909291905050506132a8565b005b6113aa6004803603602081101561130757600080fd5b810190808035906020019064010000000081111561132457600080fd5b82018360208201111561133657600080fd5b8035906020019184600183028401116401000000008311171561135857600080fd5b91908080601f016020809104026020016040519081016040528093929190818152602001838380828437600081840152601f19601f82011690508083019250505050505050919291929050505061330e565b005b3480156113b857600080fd5b506113c16134c4565b6040518082815260200191505060405180910390f35b3480156113e357600080fd5b506113ec6134ce565b6040518082815260200191505060405180910390f35b34801561140e57600080fd5b506114176134d8565b005b34801561142557600080fd5b506114686004803603602081101561143c57600080fd5b81019080803573ffffffffffffffffffffffffffffffffffffffff1690602001909291905050506139d3565b6040518082815260200191505060405180910390f35b34801561148a57600080fd5b50611544600480360360208110156114a157600080fd5b81019080803590602001906401000000008111156114be57600080fd5b8201836020820111156114d057600080fd5b803590602001918460018302840111640100000000831117156114f257600080fd5b91908080601f016020809104026020016040519081016040528093929190818152602001838380828437600081840152601f19601f820116905080830192505050505050509192919290505050613a1b565b6040518080602001828103825283818151815260200191508051906020019080838360005b83811015611584578082015181840152602081019050611569565b50505050905090810190601f1680156115b15780820380516001836020036101000a031916815260200191505b509250505060405180910390f35b3480156115cb57600080fd5b50611602600480360360408110156115e257600080fd5b810190808035906020019092919080359060200190929190505050613b3e565b005b34801561161057600080fd5b50611619613cf0565b005b34801561162757600080fd5b50611630613eda565b604051808273ffffffffffffffffffffffffffffffffffffffff1673ffffffffffffffffffffffffffffffffffffffff16815260200191505060405180910390f35b6117e26004803603606081101561168857600080fd5b81019080803573ffffffffffffffffffffffffffffffffffffffff169060200190929190803590602001906401000000008111156116c557600080fd5b8201836020820111156116d757600080fd5b803590602001918460018302840111640100000000831117156116f957600080fd5b91908080601f016020809104026020016040519081016040528093929190818152602001838380828437600081840152601f19601f8201169050808301925050505050505091929192908035906020019064010000000081111561175c57600080fd5b82018360208201111561176e57600080fd5b8035906020019184600183028401116401000000008311171561179057600080fd5b91908080601f016020809104026020016040519081016040528093929190818152602001838380828437600081840152601f19601f820116905080830192505050505050509192919290505050613f00565b005b3480156117f057600080fd5b506117f9614137565b6040518080602001828103825283818151815260200191508051906020019080838360005b8381101561183957808201518184015260208101905061181e565b50505050905090810190601f1680156118665780820380516001836020036101000a031916815260200191505b509250505060405180910390f35b34801561188057600080fd5b5061193a6004803603602081101561189757600080fd5b81019080803590602001906401000000008111156118b457600080fd5b8201836020820111156118c657600080fd5b803590602001918460018302840111640100000000831117156118e857600080fd5b91908080601f016020809104026020016040519081016040528093929190818152602001838380828437600081840152601f19601f820116905080830192505050505050509192919290505050614170565b6040518082815260200191505060405180910390f35b34801561195c57600080fd5b506119a96004803603604081101561197357600080fd5b81019080803573ffffffffffffffffffffffffffffffffffffffff169060200190929190803590602001909291905050506141fb565b604051808215151515815260200191505060405180910390f35b3480156119cf57600080fd5b50611a1c600480360360408110156119e657600080fd5b81019080803573ffffffffffffffffffffffffffffffffffffffff169060200190929190803590602001909291905050506142a0565b604051808215151515815260200191505060405180910390f35b348015611a4257600080fd5b50611a4b6142b7565b6040518082815260200191505060405180910390f35b348015611a6d57600080fd5b50611a7661431d565b6040518082815260200191505060405180910390f35b348015611a9857600080fd5b50611aa1614327565b6040518082815260200191505060405180910390f35b348015611ac357600080fd5b50611af060048036036020811015611ada57600080fd5b810190808035906020019092919050505061436c565b005b348015611afe57600080fd5b50611b076143d2565b6040518082815260200191505060405180910390f35b348015611b2957600080fd5b50611be360048036036020811015611b4057600080fd5b8101908080359060200190640100000000811115611b5d57600080fd5b820183602082011115611b6f57600080fd5b80359060200191846001830284011164010000000083111715611b9157600080fd5b91908080601f016020809104026020016040519081016040528093929190818152602001838380828437600081840152601f19601f8201169050808301925050505050505091929192905050506143df565b6040518082815260200191505060405180910390f35b348015611c0557600080fd5b50611c6860048036036040811015611c1c57600080fd5b81019080803573ffffffffffffffffffffffffffffffffffffffff169060200190929190803573ffffffffffffffffffffffffffffffffffffffff16906020019092919050505061446a565b6040518082815260200191505060405180910390f35b348015611c8a57600080fd5b50611c936144f1565b6040518080602001828103825283818151815260200191508051906020019060200280838360005b83811015611cd6578082015181840152602081019050611cbb565b505050509050019250505060405180910390f35b348015611cf657600080fd5b50611db060048036036020811015611d0d57600080fd5b8101908080359060200190640100000000811115611d2a57600080fd5b820183602082011115611d3c57600080fd5b80359060200191846001830284011164010000000083111715611d5e57600080fd5b91908080601f016020809104026020016040519081016040528093929190818152602001838380828437600081840152601f19601f820116905080830192505050505050509192919290505050614586565b604051808273ffffffffffffffffffffffffffffffffffffffff1673ffffffffffffffffffffffffffffffffffffffff16815260200191505060405180910390f35b348015611dfe57600080fd5b50611e07614631565b6040518082815260200191505060405180910390f35b348015611e2957600080fd5b50611e32614678565b6040518082815260200191505060405180910390f35b348015611e5457600080fd5b50611e5d614682565b6040518082815260200191505060405180910390f35b348015611e7f57600080fd5b50611ec260048036036020811015611e9657600080fd5b81019080803573ffffffffffffffffffffffffffffffffffffffff16906020019092919050505061468f565b005b61201460048036036040811015611eda57600080fd5b8101908080359060200190640100000000811115611ef757600080fd5b820183602082011115611f0957600080fd5b80359060200191846001830284011164010000000083111715611f2b57600080fd5b91908080601f016020809104026020016040519081016040528093929190818152602001838380828437600081840152601f19601f82011690508083019250505050505050919291929080359060200190640100000000811115611f8e57600080fd5b820183602082011115611fa057600080fd5b80359060200191846001830284011164010000000083111715611fc257600080fd5b91908080601f016020809104026020016040519081016040528093929190818152602001838380828437600081840152601f19601f8201169050808301925050505050505091929192905050506147e7565b005b34801561202257600080fd5b5061204f6004803603602081101561203957600080fd5b8101908080359060200190929190505050614af0565b005b600060046000600a846040518082805190602001908083835b60208310151561208f578051825260208201915060208101905060208303925061206a565b6001836020036101000a038019825116818451168082178552505050505050905001915050908152602001604051809103902054815260200190815260200160002060000160009054906101000a900473ffffffffffffffffffffffffffffffffffffffff169050919050565b6040805190810160405280600981526020017f636f696e756e696f6e000000000000000000000000000000000000000000000081525081565b6000612142338484614b56565b6001905092915050565b6000601a54905090565b600360009054906101000a900473ffffffffffffffffffffffffffffffffffffffff1673ffffffffffffffffffffffffffffffffffffffff163373ffffffffffffffffffffffffffffffffffffffff161415156121b257600080fd5b601954601a5403431015156121c657600080fd5b6002808111156121d257fe5b601e60009054906101000a900460ff1660028111156121ed57fe5b1415156121f957600080fd5b804310151561220757600080fd5b80601a8190555081601c8190555082601b819055506000601e60006101000a81548160ff0219169083600281111561223b57fe5b0217905550505050565b600360009054906101000a900473ffffffffffffffffffffffffffffffffffffffff1673ffffffffffffffffffffffffffffffffffffffff163373ffffffffffffffffffffffffffffffffffffffff161415156122a157600080fd5b8060118190555050565b6000600254905090565b600360009054906101000a900473ffffffffffffffffffffffffffffffffffffffff1673ffffffffffffffffffffffffffffffffffffffff163373ffffffffffffffffffffffffffffffffffffffff1614151561231157600080fd5b8060198190555050565b6060600560003373ffffffffffffffffffffffffffffffffffffffff1673ffffffffffffffffffffffffffffffffffffffff1681526020019081526020016000208054806020026020016040519081016040528092919081815260200182805480156123a657602002820191906000526020600020905b815481526020019060010190808311612392575b5050505050905090565b6000601454905090565b60606000828051906020012060019004905060046000600b600084815260200190815260200160002060003373ffffffffffffffffffffffffffffffffffffffff1673ffffffffffffffffffffffffffffffffffffffff1681526020019081526020016000205481526020019081526020016000206001018054600181600116156101000203166002900480601f0160208091040260200160405190810160405280929190818152602001828054600181600116156101000203166002900480156124c65780601f1061249b576101008083540402835291602001916124c6565b820191906000526020600020905b8154815290600101906020018083116124a957829003601f168201915b5050505050915050919050565b60006124e0848484614cb9565b612579843361257485600160008a73ffffffffffffffffffffffffffffffffffffffff1673ffffffffffffffffffffffffffffffffffffffff16815260200190815260200160002060003373ffffffffffffffffffffffffffffffffffffffff1673ffffffffffffffffffffffffffffffffffffffff16815260200190815260200160002054614e8590919063ffffffff16565b614b56565b600190509392505050565b6013543414151561259457600080fd5b600f54841115156125a457600080fd5b600e54841015156125b457600080fd5b600083805190602001206001900490503373ffffffffffffffffffffffffffffffffffffffff166004600083815260200190815260200160002060000160009054906101000a900473ffffffffffffffffffffffffffffffffffffffff1673ffffffffffffffffffffffffffffffffffffffff1614151561263457600080fd5b6000600460008381526020019081526020016000206003015414151561265957600080fd5b846004600083815260200190815260200160002060030181905550826004600083815260200190815260200160002060050160006101000a81548173ffffffffffffffffffffffffffffffffffffffff021916908373ffffffffffffffffffffffffffffffffffffffff160217905550816004600083815260200190815260200160002060060190805190602001906126f3929190615478565b507fdc9d3a39aef8f13151f130d0bb7d4d7b099f9ac3fc92b57e3811a478eaf81b5960046000838152602001908152602001600020600201856040518080602001806020018381038352858181546001816001161561010002031660029004815260200191508054600181600116156101000203166002900480156127b95780601f1061278e576101008083540402835291602001916127b9565b820191906000526020600020905b81548152906001019060200180831161279c57829003601f168201915b5050838103825284818151815260200191508051906020019080838360005b838110156127f35780820151818401526020810190506127d8565b50505050905090810190601f1680156128205780820380516001836020036101000a031916815260200191505b5094505050505060405180910390a15050505050565b60606006826040518082805190602001908083835b602083101515612870578051825260208201915060208101905060208303925061284b565b6001836020036101000a03801982511681845116808217855250505050505090500191505090815260200160405180910390208054806020026020016040519081016040528092919081815260200182805480156128ed57602002820191906000526020600020905b8154815260200190600101908083116128d9575b50505050509050919050565b6000600c60003373ffffffffffffffffffffffffffffffffffffffff1673ffffffffffffffffffffffffffffffffffffffff168152602001908152602001600020600060046000858051906020012060019004815260200190815260200160002060000160009054906101000a900473ffffffffffffffffffffffffffffffffffffffff1673ffffffffffffffffffffffffffffffffffffffff1673ffffffffffffffffffffffffffffffffffffffff168152602001908152602001600020549050919050565b600043905090565b601281565b600360009054906101000a900473ffffffffffffffffffffffffffffffffffffffff1673ffffffffffffffffffffffffffffffffffffffff163373ffffffffffffffffffffffffffffffffffffffff16141515612a2957600080fd5b8060138190555050565b6000612ace3384612ac985600160003373ffffffffffffffffffffffffffffffffffffffff1673ffffffffffffffffffffffffffffffffffffffff16815260200190815260200160002060008973ffffffffffffffffffffffffffffffffffffffff1673ffffffffffffffffffffffffffffffffffffffff16815260200190815260200160002054614e9e90919063ffffffff16565b614b56565b6001905092915050565b6060600760008381526020019081526020016000208054600181600116156101000203166002900480601f016020809104026020016040519081016040528092919081815260200182805460018160011615610100020316600290048015612b815780601f10612b5657610100808354040283529160200191612b81565b820191906000526020600020905b815481529060010190602001808311612b6457829003601f168201915b50505050509050919050565b606060046000600a846040518082805190602001908083835b602083101515612bcb5780518252602082019150602081019050602083039250612ba6565b6001836020036101000a03801982511681845116808217855250505050505090500191505090815260200160405180910390205481526020019081526020016000206006018054600181600116156101000203166002900480601f016020809104026020016040519081016040528092919081815260200182805460018160011615610100020316600290048015612ca45780601f10612c7957610100808354040283529160200191612ca4565b820191906000526020600020905b815481529060010190602001808311612c8757829003601f168201915b50505050509050919050565b600360009054906101000a900473ffffffffffffffffffffffffffffffffffffffff1673ffffffffffffffffffffffffffffffffffffffff163373ffffffffffffffffffffffffffffffffffffffff16141515612d0c57600080fd5b80601d8190555050565b6000601660003373ffffffffffffffffffffffffffffffffffffffff1673ffffffffffffffffffffffffffffffffffffffff16815260200190815260200160002054111515612d6457600080fd5b6000601660003373ffffffffffffffffffffffffffffffffffffffff1673ffffffffffffffffffffffffffffffffffffffff1681526020019081526020016000205490506000601660003373ffffffffffffffffffffffffffffffffffffffff1673ffffffffffffffffffffffffffffffffffffffff168152602001908152602001600020819055503373ffffffffffffffffffffffffffffffffffffffff166108fc829081150290604051600060405180830381858888f19350505050158015612e33573d6000803e3d6000fd5b5050565b6000601f60010154905090565b6060600460008381526020019081526020016000206001018054600181600116156101000203166002900480601f016020809104026020016040519081016040528092919081815260200182805460018160011615610100020316600290048015612ef05780601f10612ec557610100808354040283529160200191612ef0565b820191906000526020600020905b815481529060010190602001808311612ed357829003601f168201915b50505050509050919050565b6000601354905090565b600081805190602001206001900490506000600460008381526020019081526020016000206003015414151515612f3c57600080fd5b3373ffffffffffffffffffffffffffffffffffffffff166004600083815260200190815260200160002060000160009054906101000a900473ffffffffffffffffffffffffffffffffffffffff1673ffffffffffffffffffffffffffffffffffffffff16141515612fac57600080fd5b3373ffffffffffffffffffffffffffffffffffffffff166108fc60046000848152602001908152602001600020600401549081150290604051600060405180830381858888f19350505050158015613008573d6000803e3d6000fd5b50600060046000838152602001908152602001600020600401819055506000600460008381526020019081526020016000206003018190555060006004600083815260200190815260200160002060050160006101000a81548173ffffffffffffffffffffffffffffffffffffffff021916908373ffffffffffffffffffffffffffffffffffffffff16021790555060206040519081016040528060008152506004600083815260200190815260200160002060060190805190602001906130d1929190615478565b505050565b600360009054906101000a900473ffffffffffffffffffffffffffffffffffffffff1673ffffffffffffffffffffffffffffffffffffffff163373ffffffffffffffffffffffffffffffffffffffff1614151561313257600080fd5b8060108190555050565b6000613147336139d3565b905090565b6060600d60003373ffffffffffffffffffffffffffffffffffffffff1673ffffffffffffffffffffffffffffffffffffffff1681526020019081526020016000208054806020026020016040519081016040528092919081815260200182805480156131d757602002820191906000526020600020905b8154815260200190600101908083116131c3575b5050505050905090565b6000600c600060046000858051906020012060019004815260200190815260200160002060000160009054906101000a900473ffffffffffffffffffffffffffffffffffffffff1673ffffffffffffffffffffffffffffffffffffffff1673ffffffffffffffffffffffffffffffffffffffff16815260200190815260200160002060003373ffffffffffffffffffffffffffffffffffffffff1673ffffffffffffffffffffffffffffffffffffffff168152602001908152602001600020549050919050565b600360009054906101000a900473ffffffffffffffffffffffffffffffffffffffff1673ffffffffffffffffffffffffffffffffffffffff163373ffffffffffffffffffffffffffffffffffffffff1614151561330457600080fd5b8060128190555050565b6013543411151561331e57600080fd5b60008180519060200120600190049050600060046000838152602001908152602001600020600301541415151561335457600080fd5b3460046000838152602001908152602001600020600401546004600084815260200190815260200160002060030154031015151561339157600080fd5b6000601054348115156133a057fe5b0490506000349050818103905080600460008581526020019081526020016000206004016000828254019250508190555080600c60003373ffffffffffffffffffffffffffffffffffffffff1673ffffffffffffffffffffffffffffffffffffffff16815260200190815260200160002060006004600087815260200190815260200160002060000160009054906101000a900473ffffffffffffffffffffffffffffffffffffffff1673ffffffffffffffffffffffffffffffffffffffff1673ffffffffffffffffffffffffffffffffffffffff168152602001908152602001600020600082825401925050819055506134a5600283614ebc90919063ffffffff16565b6014600082825401925050819055506134be3383614ed7565b50505050565b6000601c54905090565b6000601254905090565b600360009054906101000a900473ffffffffffffffffffffffffffffffffffffffff1673ffffffffffffffffffffffffffffffffffffffff163373ffffffffffffffffffffffffffffffffffffffff1614151561353457600080fd5b6000600281111561354157fe5b601e60009054906101000a900460ff16600281111561355c57fe5b14151561356857600080fd5b601a544311151561357857600080fd5b6000601d54601780549050111561359357601d54905061359c565b60178054905090505b60008090505b818110156138f5576000601d54601560006017858154811015156135c257fe5b9060005260206000200160009054906101000a900473ffffffffffffffffffffffffffffffffffffffff1673ffffffffffffffffffffffffffffffffffffffff1673ffffffffffffffffffffffffffffffffffffffff16815260200190815260200160002080549050111561363b57601d5490506136ba565b6015600060178481548110151561364e57fe5b9060005260206000200160009054906101000a900473ffffffffffffffffffffffffffffffffffffffff1673ffffffffffffffffffffffffffffffffffffffff1673ffffffffffffffffffffffffffffffffffffffff1681526020019081526020016000208054905090505b60008090505b818110156138aa57601454601560006017868154811015156136de57fe5b9060005260206000200160009054906101000a900473ffffffffffffffffffffffffffffffffffffffff1673ffffffffffffffffffffffffffffffffffffffff1673ffffffffffffffffffffffffffffffffffffffff1681526020019081526020016000208281548110151561375057fe5b90600052602060002001541480156137f8575060006015600060178681548110151561377857fe5b9060005260206000200160009054906101000a900473ffffffffffffffffffffffffffffffffffffffff1673ffffffffffffffffffffffffffffffffffffffff1673ffffffffffffffffffffffffffffffffffffffff168152602001908152602001600020828154811015156137ea57fe5b906000526020600020015414155b1561389d57601860178481548110151561380e57fe5b9060005260206000200160009054906101000a900473ffffffffffffffffffffffffffffffffffffffff1690806001815401808255809150509060018203906000526020600020016000909192909190916101000a81548173ffffffffffffffffffffffffffffffffffffffff021916908373ffffffffffffffffffffffffffffffffffffffff160217905550505b80806001019150506136c0565b506017828154811015156138ba57fe5b9060005260206000200160006101000a81549073ffffffffffffffffffffffffffffffffffffffff02191690555080806001019150506135a2565b506000601780549050141561395857600060188054905011156139335761392c601880549050601454614ebc90919063ffffffff16565b6014819055505b6001601e60006101000a81548160ff0219169083600281111561395257fe5b02179055505b3373ffffffffffffffffffffffffffffffffffffffff166108fc6014549081150290604051600060405180830381858888f193505050501580156139a0573d6000803e3d6000fd5b506001601f60000160008282540192505081905550601454601f60010181905550601880549050601f6002018190555050565b60008060008373ffffffffffffffffffffffffffffffffffffffff1673ffffffffffffffffffffffffffffffffffffffff168152602001908152602001600020549050919050565b606060046000600a846040518082805190602001908083835b602083101515613a595780518252602082019150602081019050602083039250613a34565b6001836020036101000a03801982511681845116808217855250505050505090500191505090815260200160405180910390205481526020019081526020016000206002018054600181600116156101000203166002900480601f016020809104026020016040519081016040528092919081815260200182805460018160011615610100020316600290048015613b325780601f10613b0757610100808354040283529160200191613b32565b820191906000526020600020905b815481529060010190602001808311613b1557829003601f168201915b50505050509050919050565b601954601a540343101515613b5257600080fd5b60006002811115613b5f57fe5b601e60009054906101000a900460ff166002811115613b7a57fe5b141515613b8657600080fd5b600b81101515613b9557600080fd5b600081601c5403111515613ba857600080fd5b613bbd601b548261502b90919063ffffffff16565b613bc6336139d3565b10151515613bd357600080fd5b80601c60008282540392505081905550613c0133613bfc601b548461502b90919063ffffffff16565b61505e565b60008090505b81811015613c8557601560003373ffffffffffffffffffffffffffffffffffffffff1673ffffffffffffffffffffffffffffffffffffffff1681526020019081526020016000208390806001815401808255809150509060018203906000526020600020016000909192909190915055508080600101915050613c07565b5060173390806001815401808255809150509060018203906000526020600020016000909192909190916101000a81548173ffffffffffffffffffffffffffffffffffffffff021916908373ffffffffffffffffffffffffffffffffffffffff160217905550505050565b600360009054906101000a900473ffffffffffffffffffffffffffffffffffffffff1673ffffffffffffffffffffffffffffffffffffffff163373ffffffffffffffffffffffffffffffffffffffff16141515613d4c57600080fd5b60016002811115613d5957fe5b601e60009054906101000a900460ff166002811115613d7457fe5b141515613d8057600080fd5b6000601880549050111515613d9457600080fd5b6000600a6018805490501115613dad57600a9050613db6565b60188054905090505b60008090505b81811015613e9b57613e5160145460166000601885815481101515613ddd57fe5b9060005260206000200160009054906101000a900473ffffffffffffffffffffffffffffffffffffffff1673ffffffffffffffffffffffffffffffffffffffff1673ffffffffffffffffffffffffffffffffffffffff16815260200190815260200160002054614e9e90919063ffffffff16565b50601881815481101515613e6157fe5b9060005260206000200160006101000a81549073ffffffffffffffffffffffffffffffffffffffff02191690558080600101915050613dbc565b5060006018805490501415613ed75760006014819055506002601e60006101000a81548160ff02191690836002811115613ed157fe5b02179055505b50565b600360009054906101000a900473ffffffffffffffffffffffffffffffffffffffff1681565b34601254141515613f1057600080fd5b60008180519060200120600190049050600073ffffffffffffffffffffffffffffffffffffffff166004600083815260200190815260200160002060000160009054906101000a900473ffffffffffffffffffffffffffffffffffffffff1673ffffffffffffffffffffffffffffffffffffffff16141515613f9157600080fd5b3373ffffffffffffffffffffffffffffffffffffffff166009846040518082805190602001908083835b602083101515613fe05780518252602082019150602081019050602083039250613fbb565b6001836020036101000a038019825116818451168082178552505050505050905001915050908152602001604051809103902060009054906101000a900473ffffffffffffffffffffffffffffffffffffffff1673ffffffffffffffffffffffffffffffffffffffff1614151561405657600080fd5b60008380519060200120600190049050600560008673ffffffffffffffffffffffffffffffffffffffff1673ffffffffffffffffffffffffffffffffffffffff168152602001908152602001600020819080600181540180825580915050906001820390600052602060002001600090919290919091505550336004600084815260200190815260200160002060000160006101000a81548173ffffffffffffffffffffffffffffffffffffffff021916908373ffffffffffffffffffffffffffffffffffffffff16021790555061413083858385615105565b5050505050565b6040805190810160405280600581526020017f554e494f4e00000000000000000000000000000000000000000000000000000081525081565b600060046000600a846040518082805190602001908083835b6020831015156141ae5780518252602082019150602081019050602083039250614189565b6001836020036101000a0380198251168184511680821785525050505050509050019150509081526020016040518091039020548152602001908152602001600020600401549050919050565b6000614296338461429185600160003373ffffffffffffffffffffffffffffffffffffffff1673ffffffffffffffffffffffffffffffffffffffff16815260200190815260200160002060008973ffffffffffffffffffffffffffffffffffffffff1673ffffffffffffffffffffffffffffffffffffffff16815260200190815260200160002054614e8590919063ffffffff16565b614b56565b6001905092915050565b60006142ad338484614cb9565b6001905092915050565b6000600360009054906101000a900473ffffffffffffffffffffffffffffffffffffffff1673ffffffffffffffffffffffffffffffffffffffff163373ffffffffffffffffffffffffffffffffffffffff1614151561431557600080fd5b601d54905090565b6000601b54905090565b600060028081111561433557fe5b601e60009054906101000a900460ff16600281111561435057fe5b141561435f5760009050614369565b601954601a540390505b90565b600360009054906101000a900473ffffffffffffffffffffffffffffffffffffffff1673ffffffffffffffffffffffffffffffffffffffff163373ffffffffffffffffffffffffffffffffffffffff161415156143c857600080fd5b80600e8190555050565b6000601f60020154905090565b600060046000600a846040518082805190602001908083835b60208310151561441d57805182526020820191506020810190506020830392506143f8565b6001836020036101000a0380198251168184511680821785525050505050509050019150509081526020016040518091039020548152602001908152602001600020600301549050919050565b6000600160008473ffffffffffffffffffffffffffffffffffffffff1673ffffffffffffffffffffffffffffffffffffffff16815260200190815260200160002060008373ffffffffffffffffffffffffffffffffffffffff1673ffffffffffffffffffffffffffffffffffffffff16815260200190815260200160002054905092915050565b6060600860003373ffffffffffffffffffffffffffffffffffffffff1673ffffffffffffffffffffffffffffffffffffffff16815260200190815260200160002080548060200260200160405190810160405280929190818152602001828054801561457c57602002820191906000526020600020905b815481526020019060010190808311614568575b5050505050905090565b600060046000600a846040518082805190602001908083835b6020831015156145c4578051825260208201915060208101905060208303925061459f565b6001836020036101000a038019825116818451168082178552505050505050905001915050908152602001604051809103902054815260200190815260200160002060050160009054906101000a900473ffffffffffffffffffffffffffffffffffffffff169050919050565b6000601660003373ffffffffffffffffffffffffffffffffffffffff1673ffffffffffffffffffffffffffffffffffffffff16815260200190815260200160002054905090565b6000601154905090565b6000601f60000154905090565b600360009054906101000a900473ffffffffffffffffffffffffffffffffffffffff1673ffffffffffffffffffffffffffffffffffffffff163373ffffffffffffffffffffffffffffffffffffffff161415156146eb57600080fd5b600073ffffffffffffffffffffffffffffffffffffffff168173ffffffffffffffffffffffffffffffffffffffff161415151561472757600080fd5b8073ffffffffffffffffffffffffffffffffffffffff16600360009054906101000a900473ffffffffffffffffffffffffffffffffffffffff1673ffffffffffffffffffffffffffffffffffffffff167f8be0079c531659141344cd1fd0a4f28419497f9722a3daafe3b4186f6b6457e060405160405180910390a380600360006101000a81548173ffffffffffffffffffffffffffffffffffffffff021916908373ffffffffffffffffffffffffffffffffffffffff16021790555050565b346011541415156147f757600080fd5b60008280519060200120600190049050600073ffffffffffffffffffffffffffffffffffffffff166009846040518082805190602001908083835b6020831015156148575780518252602082019150602081019050602083039250614832565b6001836020036101000a038019825116818451168082178552505050505050905001915050908152602001604051809103902060009054906101000a900473ffffffffffffffffffffffffffffffffffffffff1673ffffffffffffffffffffffffffffffffffffffff161415156148cd57600080fd5b60008280519060200120600190049050600073ffffffffffffffffffffffffffffffffffffffff166004600083815260200190815260200160002060000160009054906101000a900473ffffffffffffffffffffffffffffffffffffffff1673ffffffffffffffffffffffffffffffffffffffff1614151561494e57600080fd5b336004600083815260200190815260200160002060000160006101000a81548173ffffffffffffffffffffffffffffffffffffffff021916908373ffffffffffffffffffffffffffffffffffffffff160217905550836007600084815260200190815260200160002090805190602001906149ca929190615478565b50336009856040518082805190602001908083835b602083101515614a0457805182526020820191506020810190506020830392506149df565b6001836020036101000a038019825116818451168082178552505050505050905001915050908152602001604051809103902060006101000a81548173ffffffffffffffffffffffffffffffffffffffff021916908373ffffffffffffffffffffffffffffffffffffffff160217905550600860003373ffffffffffffffffffffffffffffffffffffffff1673ffffffffffffffffffffffffffffffffffffffff168152602001908152602001600020829080600181540180825580915050906001820390600052602060002001600090919290919091505550614aea83858484615105565b50505050565b600360009054906101000a900473ffffffffffffffffffffffffffffffffffffffff1673ffffffffffffffffffffffffffffffffffffffff163373ffffffffffffffffffffffffffffffffffffffff16141515614b4c57600080fd5b80600f8190555050565b600073ffffffffffffffffffffffffffffffffffffffff168273ffffffffffffffffffffffffffffffffffffffff1614151515614b9257600080fd5b600073ffffffffffffffffffffffffffffffffffffffff168373ffffffffffffffffffffffffffffffffffffffff1614151515614bce57600080fd5b80600160008573ffffffffffffffffffffffffffffffffffffffff1673ffffffffffffffffffffffffffffffffffffffff16815260200190815260200160002060008473ffffffffffffffffffffffffffffffffffffffff1673ffffffffffffffffffffffffffffffffffffffff168152602001908152602001600020819055508173ffffffffffffffffffffffffffffffffffffffff168373ffffffffffffffffffffffffffffffffffffffff167f8c5be1e5ebec7d5bd14f71427d1e84f3dd0314c0f7b2291e5b200ac8c7c3b925836040518082815260200191505060405180910390a3505050565b600073ffffffffffffffffffffffffffffffffffffffff168273ffffffffffffffffffffffffffffffffffffffff1614151515614cf557600080fd5b614d46816000808673ffffffffffffffffffffffffffffffffffffffff1673ffffffffffffffffffffffffffffffffffffffff16815260200190815260200160002054614e8590919063ffffffff16565b6000808573ffffffffffffffffffffffffffffffffffffffff1673ffffffffffffffffffffffffffffffffffffffff16815260200190815260200160002081905550614dd9816000808573ffffffffffffffffffffffffffffffffffffffff1673ffffffffffffffffffffffffffffffffffffffff16815260200190815260200160002054614e9e90919063ffffffff16565b6000808473ffffffffffffffffffffffffffffffffffffffff1673ffffffffffffffffffffffffffffffffffffffff168152602001908152602001600020819055508173ffffffffffffffffffffffffffffffffffffffff168373ffffffffffffffffffffffffffffffffffffffff167fddf252ad1be2c89b69c2b068fc378daa952ba7f163c4a11628f55a4df523b3ef836040518082815260200191505060405180910390a3505050565b6000828211151515614e9357fe5b818303905092915050565b6000808284019050838110151515614eb257fe5b8091505092915050565b6000808284811515614eca57fe5b0490508091505092915050565b600073ffffffffffffffffffffffffffffffffffffffff168273ffffffffffffffffffffffffffffffffffffffff1614151515614f1357600080fd5b614f2881600254614e9e90919063ffffffff16565b600281905550614f7f816000808573ffffffffffffffffffffffffffffffffffffffff1673ffffffffffffffffffffffffffffffffffffffff16815260200190815260200160002054614e9e90919063ffffffff16565b6000808473ffffffffffffffffffffffffffffffffffffffff1673ffffffffffffffffffffffffffffffffffffffff168152602001908152602001600020819055508173ffffffffffffffffffffffffffffffffffffffff16600073ffffffffffffffffffffffffffffffffffffffff167fddf252ad1be2c89b69c2b068fc378daa952ba7f163c4a11628f55a4df523b3ef836040518082815260200191505060405180910390a35050565b6000808284029050600084148061504c575082848281151561504957fe5b04145b151561505457fe5b8091505092915050565b6150688282615324565b61510182336150fc84600160008873ffffffffffffffffffffffffffffffffffffffff1673ffffffffffffffffffffffffffffffffffffffff16815260200190815260200160002060003373ffffffffffffffffffffffffffffffffffffffff1673ffffffffffffffffffffffffffffffffffffffff16815260200190815260200160002054614e8590919063ffffffff16565b614b56565b5050565b8360046000838152602001908152602001600020600101908051906020019061512f929190615478565b508260046000838152602001908152602001600020600201908051906020019061515a929190615478565b506006836040518082805190602001908083835b602083101515615193578051825260208201915060208101905060208303925061516e565b6001836020036101000a0380198251168184511680821785525050505050509050019150509081526020016040518091039020819080600181540180825580915050906001820390600052602060002001600090919290919091505550600d60003373ffffffffffffffffffffffffffffffffffffffff1673ffffffffffffffffffffffffffffffffffffffff16815260200190815260200160002081908060018154018082558091505090600182039060005260206000200160009091929091909150555080600a856040518082805190602001908083835b602083101515615292578051825260208201915060208101905060208303925061526d565b6001836020036101000a03801982511681845116808217855250505050505090500191505090815260200160405180910390208190555080600b600084815260200190815260200160002060003373ffffffffffffffffffffffffffffffffffffffff1673ffffffffffffffffffffffffffffffffffffffff1681526020019081526020016000208190555050505050565b600073ffffffffffffffffffffffffffffffffffffffff168273ffffffffffffffffffffffffffffffffffffffff161415151561536057600080fd5b61537581600254614e8590919063ffffffff16565b6002819055506153cc816000808573ffffffffffffffffffffffffffffffffffffffff1673ffffffffffffffffffffffffffffffffffffffff16815260200190815260200160002054614e8590919063ffffffff16565b6000808473ffffffffffffffffffffffffffffffffffffffff1673ffffffffffffffffffffffffffffffffffffffff16815260200190815260200160002081905550600073ffffffffffffffffffffffffffffffffffffffff168273ffffffffffffffffffffffffffffffffffffffff167fddf252ad1be2c89b69c2b068fc378daa952ba7f163c4a11628f55a4df523b3ef836040518082815260200191505060405180910390a35050565b828054600181600116156101000203166002900490600052602060002090601f016020900481019282601f106154b957805160ff19168380011785556154e7565b828001600101855582156154e7579182015b828111156154e65782518255916020019190600101906154cb565b5b5090506154f491906154f8565b5090565b61551a91905b808211156155165760008160009055506001016154fe565b5090565b9056fea165627a7a7230582085a7dd2f6ecc4fdb82b72c6aeb1f367158466ee77eae236f98aa90b1a7ddf03c0029",
  "source": "pragma solidity ^0.5.0;\n\nimport \"./Cagnottes.sol\";\n\ncontract Lottery is Cagnottes{\n\nmapping (address => uint[]) private prediction ;\nmapping (address => uint) private gains;\n\nenum LotteryState { Started, Finished, Pending }\n\naddress[] private players;\naddress[] private winners;\n\nuint private blockStop;\nuint private blockEnd;\nuint private PRICE_LOTTERY_TOKEN;\nuint private NB_TICKETS;\nuint private POOL_ENDGAME;\n\nLotteryState private state;\n\nstruct resultat\n{\n  uint numCagnotte;\n  uint cagnotte;\n  uint nbGagnants;\n}\n\nresultat lastResult;\n\nconstructor() public\n{\n  state = LotteryState.Pending;\n  blockStop = 100;\n  POOL_ENDGAME = 10;\n}\n\nfunction initierLottery(uint _price, uint _tickets, uint _blockEnd) public onlyOwner\n{\n  require(block.number < blockEnd - blockStop);\n  require(state == LotteryState.Pending);\n  require(block.number < _blockEnd);\n  blockEnd = _blockEnd;\n  NB_TICKETS = _tickets;\n  PRICE_LOTTERY_TOKEN = _price;\n  state = LotteryState.Started;\n}\n\nfunction play(uint _prediction, uint _nbTickets) public\n{\n  require(block.number < blockEnd - blockStop);\n  require(state == LotteryState.Started);\n  require(_nbTickets < 11);\n  require(NB_TICKETS - _nbTickets > 0);\n  require(balanceOf(msg.sender) >= _nbTickets.mul(PRICE_LOTTERY_TOKEN));\n  NB_TICKETS -= _nbTickets;\n  _burnFrom(msg.sender,_nbTickets.mul(PRICE_LOTTERY_TOKEN));\n  for (uint i=0; i< _nbTickets; i++)\n  {\n  prediction[msg.sender].push(_prediction);\n  }\n  players.push(msg.sender);\n}\n\nfunction endGame() public onlyOwner\n{\n  require(state == LotteryState.Started);\n  require(block.number > blockEnd);\n  uint length;\n  if (players.length > POOL_ENDGAME)\n  {\n    length = POOL_ENDGAME;\n  }\n  else {\n    length = players.length;\n  }\n  for (uint i=0; i< length; i++)\n  {\n    uint length2;\n    if (prediction[players[i]].length > POOL_ENDGAME)\n    {\n      length2 = POOL_ENDGAME;\n    }\n    else {\n      length2 = prediction[players[i]].length;\n    }\n    for (uint j=0; j< length2; j++)\n    {\n      if (prediction[players[i]][j] == LOTTERY_CAGNOTTE && prediction[players[i]][j] != 0)\n      {\n        winners.push(players[i]);\n      }\n    }\n    delete players[i];\n  }\n  if (players.length == 0)\n  {\n    if (winners.length > 0)\n    {\n    LOTTERY_CAGNOTTE = uint(LOTTERY_CAGNOTTE.div(winners.length));\n    }\n    state = LotteryState.Finished;\n  }\n  msg.sender.transfer(LOTTERY_CAGNOTTE);\n  lastResult.numCagnotte += 1;\n  lastResult.cagnotte = LOTTERY_CAGNOTTE;\n  lastResult.nbGagnants = winners.length;\n}\n\nfunction soldeGame() public onlyOwner\n{\n  require(state == LotteryState.Finished);\n  require(winners.length>0);\n  uint length;\n  if (winners.length > 10)\n  {\n    length = 10;\n  }\n  else {\n    length = winners.length;\n  }\n  for (uint i=0; i< length; i++)\n  {\n    gains[winners[i]].add(LOTTERY_CAGNOTTE);\n    delete winners[i];\n  }\n  if (winners.length == 0)\n  {\n    LOTTERY_CAGNOTTE = 0;\n    state = LotteryState.Pending;\n  }\n}\n\nfunction withdrawGains() public\n{\n  require(gains[msg.sender]> 0);\n  uint MyGains = gains[msg.sender];\n  gains[msg.sender] = 0;\n  msg.sender.transfer(MyGains);\n}\n\nfunction getPrixLottery() public view returns (uint)\n{\n  return PRICE_LOTTERY_TOKEN;\n}\n\nfunction getTicketsLeft() public view returns (uint)\n{\n  return NB_TICKETS;\n}\n\nfunction getEndGame() public view returns (uint)\n{\n  return blockEnd;\n}\n\nfunction getSuperCagnotte() public view returns (uint)\n{\n  return LOTTERY_CAGNOTTE;\n}\n\nfunction getBlockStop() public view returns (uint)\n{\n  if (state == LotteryState.Pending)\n  {\n  return 0;\n  }\n  else return blockEnd - blockStop;\n\n}\n\nfunction modifierBlockStop(uint _stop) public onlyOwner\n{\n  blockStop = _stop;\n}\n\nfunction getNumCagnotte() public view returns (uint)\n{\n  return lastResult.numCagnotte;\n}\n\nfunction modifierPoolEnd(uint _pool) public onlyOwner\n{\n  POOL_ENDGAME = _pool;\n}\n\nfunction getPoolEnd() public onlyOwner view returns (uint)\n{\n  return POOL_ENDGAME;\n}\n\nfunction getCagnotte() public view returns (uint)\n{\n  return lastResult.cagnotte;\n}\n\nfunction getBlock() public view returns (uint)\n{\n  return block.number;\n}\n\nfunction getGains() public view returns (uint)\n{\n  return gains[msg.sender];\n}\n\nfunction getSolde() public view returns (uint)\n{\n  return balanceOf(msg.sender);\n}\n\nfunction getNbGagnants() public view returns (uint)\n{\n  return lastResult.nbGagnants;\n}\n\n}\n",
  "sourcePath": "/Users/germaindacunha/Documents/GitHub/Alyra/project/project_react-master/contracts/Lottery.sol",
  "compiler": {
    "name": "solc",
    "version": "0.5.0+commit.1d4f565a.Emscripten.clang"
  },
  "schemaVersion": "3.0.9",
  "updatedAt": "2019-05-15T15:38:49.234Z",
  "devdoc": {
    "methods": {
      "allowance(address,address)": {
        "details": "Function to check the amount of tokens that an owner allowed to a spender.",
        "params": {
          "owner": "address The address which owns the funds.",
          "spender": "address The address which will spend the funds."
        },
        "return": "A uint256 specifying the amount of tokens still available for the spender."
      },
      "approve(address,uint256)": {
        "details": "Approve the passed address to spend the specified amount of tokens on behalf of msg.sender. Beware that changing an allowance with this method brings the risk that someone may use both the old and the new allowance by unfortunate transaction ordering. One possible solution to mitigate this race condition is to first reduce the spender's allowance to 0 and set the desired value afterwards: https://github.com/ethereum/EIPs/issues/20#issuecomment-263524729",
        "params": {
          "spender": "The address which will spend the funds.",
          "value": "The amount of tokens to be spent."
        }
      },
      "balanceOf(address)": {
        "details": "Gets the balance of the specified address.",
        "params": {
          "owner": "The address to query the balance of."
        },
        "return": "A uint256 representing the amount owned by the passed address."
      },
      "decreaseAllowance(address,uint256)": {
        "details": "Decrease the amount of tokens that an owner allowed to a spender. approve should be called when _allowed[msg.sender][spender] == 0. To decrement allowed value is better to use this function to avoid 2 calls (and wait until the first transaction is mined) From MonolithDAO Token.sol Emits an Approval event.",
        "params": {
          "spender": "The address which will spend the funds.",
          "subtractedValue": "The amount of tokens to decrease the allowance by."
        }
      },
      "increaseAllowance(address,uint256)": {
        "details": "Increase the amount of tokens that an owner allowed to a spender. approve should be called when _allowed[msg.sender][spender] == 0. To increment allowed value is better to use this function to avoid 2 calls (and wait until the first transaction is mined) From MonolithDAO Token.sol Emits an Approval event.",
        "params": {
          "addedValue": "The amount of tokens to increase the allowance by.",
          "spender": "The address which will spend the funds."
        }
      },
      "totalSupply()": {
        "details": "Total number of tokens in existence"
      },
      "transfer(address,uint256)": {
        "details": "Transfer token to a specified address",
        "params": {
          "to": "The address to transfer to.",
          "value": "The amount to be transferred."
        }
      },
      "transferFrom(address,address,uint256)": {
        "details": "Transfer tokens from one address to another. Note that while this function emits an Approval event, this is not required as per the specification, and other compliant implementations may not emit the event.",
        "params": {
          "from": "address The address which you want to send tokens from",
          "to": "address The address which you want to transfer to",
          "value": "uint256 the amount of tokens to be transferred"
        }
      },
      "transferOwnership(address)": {
        "details": "Allows the current owner to transfer control of the contract to a newOwner.",
        "params": {
          "newOwner": "The address to transfer ownership to."
        }
      }
    }
  },
  "userdoc": {
    "methods": {}
  }
}