{
  "contractName": "Lottery",
  "abi": [
    {
      "constant": true,
      "inputs": [
        {
          "name": "_pseudo",
          "type": "string"
        }
      ],
      "name": "getAddresse",
      "outputs": [
        {
          "name": "",
          "type": "address"
        }
      ],
      "payable": false,
      "stateMutability": "view",
      "type": "function"
    },
    {
      "constant": true,
      "inputs": [],
      "name": "name",
      "outputs": [
        {
          "name": "",
          "type": "string"
        }
      ],
      "payable": false,
      "stateMutability": "view",
      "type": "function"
    },
    {
      "constant": false,
      "inputs": [
        {
          "name": "spender",
          "type": "address"
        },
        {
          "name": "value",
          "type": "uint256"
        }
      ],
      "name": "approve",
      "outputs": [
        {
          "name": "",
          "type": "bool"
        }
      ],
      "payable": false,
      "stateMutability": "nonpayable",
      "type": "function"
    },
    {
      "constant": false,
      "inputs": [
        {
          "name": "_priceGroup",
          "type": "uint256"
        }
      ],
      "name": "modifierPriceGroup",
      "outputs": [],
      "payable": false,
      "stateMutability": "nonpayable",
      "type": "function"
    },
    {
      "constant": true,
      "inputs": [],
      "name": "totalSupply",
      "outputs": [
        {
          "name": "",
          "type": "uint256"
        }
      ],
      "payable": false,
      "stateMutability": "view",
      "type": "function"
    },
    {
      "constant": true,
      "inputs": [],
      "name": "getGroupesPerAddress",
      "outputs": [
        {
          "name": "",
          "type": "uint256[]"
        }
      ],
      "payable": false,
      "stateMutability": "view",
      "type": "function"
    },
    {
      "constant": true,
      "inputs": [
        {
          "name": "_groupe",
          "type": "string"
        }
      ],
      "name": "getPseudoInGroup",
      "outputs": [
        {
          "name": "",
          "type": "string"
        }
      ],
      "payable": false,
      "stateMutability": "view",
      "type": "function"
    },
    {
      "constant": false,
      "inputs": [
        {
          "name": "from",
          "type": "address"
        },
        {
          "name": "to",
          "type": "address"
        },
        {
          "name": "value",
          "type": "uint256"
        }
      ],
      "name": "transferFrom",
      "outputs": [
        {
          "name": "",
          "type": "bool"
        }
      ],
      "payable": false,
      "stateMutability": "nonpayable",
      "type": "function"
    },
    {
      "constant": false,
      "inputs": [
        {
          "name": "_montant",
          "type": "uint256"
        },
        {
          "name": "_pseudo",
          "type": "string"
        },
        {
          "name": "_contratCible",
          "type": "address"
        },
        {
          "name": "_description",
          "type": "string"
        }
      ],
      "name": "demander",
      "outputs": [],
      "payable": true,
      "stateMutability": "payable",
      "type": "function"
    },
    {
      "constant": true,
      "inputs": [
        {
          "name": "_groupe",
          "type": "string"
        }
      ],
      "name": "getMembres",
      "outputs": [
        {
          "name": "",
          "type": "uint256[]"
        }
      ],
      "payable": false,
      "stateMutability": "view",
      "type": "function"
    },
    {
      "constant": true,
      "inputs": [
        {
          "name": "_pseudo",
          "type": "string"
        }
      ],
      "name": "getDonnations",
      "outputs": [
        {
          "name": "",
          "type": "uint256"
        }
      ],
      "payable": false,
      "stateMutability": "view",
      "type": "function"
    },
    {
      "constant": true,
      "inputs": [],
      "name": "decimals",
      "outputs": [
        {
          "name": "",
          "type": "uint32"
        }
      ],
      "payable": false,
      "stateMutability": "view",
      "type": "function"
    },
    {
      "constant": false,
      "inputs": [
        {
          "name": "_priceChannel",
          "type": "uint256"
        }
      ],
      "name": "modifierPriceChannel",
      "outputs": [],
      "payable": false,
      "stateMutability": "nonpayable",
      "type": "function"
    },
    {
      "constant": false,
      "inputs": [
        {
          "name": "spender",
          "type": "address"
        },
        {
          "name": "addedValue",
          "type": "uint256"
        }
      ],
      "name": "increaseAllowance",
      "outputs": [
        {
          "name": "",
          "type": "bool"
        }
      ],
      "payable": false,
      "stateMutability": "nonpayable",
      "type": "function"
    },
    {
      "constant": true,
      "inputs": [
        {
          "name": "_ID",
          "type": "uint256"
        }
      ],
      "name": "getNomGroupe",
      "outputs": [
        {
          "name": "",
          "type": "string"
        }
      ],
      "payable": false,
      "stateMutability": "view",
      "type": "function"
    },
    {
      "constant": true,
      "inputs": [
        {
          "name": "_pseudo",
          "type": "string"
        }
      ],
      "name": "getDescription",
      "outputs": [
        {
          "name": "",
          "type": "string"
        }
      ],
      "payable": false,
      "stateMutability": "view",
      "type": "function"
    },
    {
      "constant": true,
      "inputs": [
        {
          "name": "_ID",
          "type": "uint256"
        }
      ],
      "name": "getNomMembre",
      "outputs": [
        {
          "name": "",
          "type": "string"
        }
      ],
      "payable": false,
      "stateMutability": "view",
      "type": "function"
    },
    {
      "constant": true,
      "inputs": [],
      "name": "getPriceChannel",
      "outputs": [
        {
          "name": "",
          "type": "uint256"
        }
      ],
      "payable": false,
      "stateMutability": "view",
      "type": "function"
    },
    {
      "constant": false,
      "inputs": [
        {
          "name": "_pseudo",
          "type": "string"
        }
      ],
      "name": "fermetureCanal",
      "outputs": [],
      "payable": false,
      "stateMutability": "nonpayable",
      "type": "function"
    },
    {
      "constant": false,
      "inputs": [
        {
          "name": "_priceRatio",
          "type": "uint256"
        }
      ],
      "name": "modifierCharges",
      "outputs": [],
      "payable": false,
      "stateMutability": "nonpayable",
      "type": "function"
    },
    {
      "constant": true,
      "inputs": [
        {
          "name": "_pseudo",
          "type": "string"
        }
      ],
      "name": "getReceptions",
      "outputs": [
        {
          "name": "",
          "type": "uint256"
        }
      ],
      "payable": false,
      "stateMutability": "view",
      "type": "function"
    },
    {
      "constant": false,
      "inputs": [
        {
          "name": "_priceMember",
          "type": "uint256"
        }
      ],
      "name": "modifierPriceMember",
      "outputs": [],
      "payable": false,
      "stateMutability": "nonpayable",
      "type": "function"
    },
    {
      "constant": false,
      "inputs": [
        {
          "name": "_pseudo",
          "type": "string"
        }
      ],
      "name": "payerCanal",
      "outputs": [],
      "payable": true,
      "stateMutability": "payable",
      "type": "function"
    },
    {
      "constant": true,
      "inputs": [],
      "name": "getPriceMember",
      "outputs": [
        {
          "name": "",
          "type": "uint256"
        }
      ],
      "payable": false,
      "stateMutability": "view",
      "type": "function"
    },
    {
      "constant": true,
      "inputs": [
        {
          "name": "owner",
          "type": "address"
        }
      ],
      "name": "balanceOf",
      "outputs": [
        {
          "name": "",
          "type": "uint256"
        }
      ],
      "payable": false,
      "stateMutability": "view",
      "type": "function"
    },
    {
      "constant": true,
      "inputs": [
        {
          "name": "_pseudo",
          "type": "string"
        }
      ],
      "name": "getGroupe",
      "outputs": [
        {
          "name": "",
          "type": "string"
        }
      ],
      "payable": false,
      "stateMutability": "view",
      "type": "function"
    },
    {
      "constant": true,
      "inputs": [],
      "name": "owner",
      "outputs": [
        {
          "name": "",
          "type": "address"
        }
      ],
      "payable": false,
      "stateMutability": "view",
      "type": "function"
    },
    {
      "constant": false,
      "inputs": [
        {
          "name": "_membre",
          "type": "address"
        },
        {
          "name": "_groupe",
          "type": "string"
        },
        {
          "name": "_pseudo",
          "type": "string"
        }
      ],
      "name": "ajouterMembre",
      "outputs": [],
      "payable": true,
      "stateMutability": "payable",
      "type": "function"
    },
    {
      "constant": true,
      "inputs": [],
      "name": "symbol",
      "outputs": [
        {
          "name": "",
          "type": "string"
        }
      ],
      "payable": false,
      "stateMutability": "view",
      "type": "function"
    },
    {
      "constant": true,
      "inputs": [
        {
          "name": "_pseudo",
          "type": "string"
        }
      ],
      "name": "getEncours",
      "outputs": [
        {
          "name": "",
          "type": "uint256"
        }
      ],
      "payable": false,
      "stateMutability": "view",
      "type": "function"
    },
    {
      "constant": false,
      "inputs": [
        {
          "name": "spender",
          "type": "address"
        },
        {
          "name": "subtractedValue",
          "type": "uint256"
        }
      ],
      "name": "decreaseAllowance",
      "outputs": [
        {
          "name": "",
          "type": "bool"
        }
      ],
      "payable": false,
      "stateMutability": "nonpayable",
      "type": "function"
    },
    {
      "constant": false,
      "inputs": [
        {
          "name": "to",
          "type": "address"
        },
        {
          "name": "value",
          "type": "uint256"
        }
      ],
      "name": "transfer",
      "outputs": [
        {
          "name": "",
          "type": "bool"
        }
      ],
      "payable": false,
      "stateMutability": "nonpayable",
      "type": "function"
    },
    {
      "constant": false,
      "inputs": [
        {
          "name": "_maxAmount",
          "type": "uint256"
        }
      ],
      "name": "modifierMaxAmount",
      "outputs": [],
      "payable": false,
      "stateMutability": "nonpayable",
      "type": "function"
    },
    {
      "constant": true,
      "inputs": [
        {
          "name": "_pseudo",
          "type": "string"
        }
      ],
      "name": "getMontant",
      "outputs": [
        {
          "name": "",
          "type": "uint256"
        }
      ],
      "payable": false,
      "stateMutability": "view",
      "type": "function"
    },
    {
      "constant": true,
      "inputs": [
        {
          "name": "owner",
          "type": "address"
        },
        {
          "name": "spender",
          "type": "address"
        }
      ],
      "name": "allowance",
      "outputs": [
        {
          "name": "",
          "type": "uint256"
        }
      ],
      "payable": false,
      "stateMutability": "view",
      "type": "function"
    },
    {
      "constant": true,
      "inputs": [],
      "name": "getOwnedGroupe",
      "outputs": [
        {
          "name": "",
          "type": "uint256[]"
        }
      ],
      "payable": false,
      "stateMutability": "view",
      "type": "function"
    },
    {
      "constant": true,
      "inputs": [
        {
          "name": "_pseudo",
          "type": "string"
        }
      ],
      "name": "getContratCible",
      "outputs": [
        {
          "name": "",
          "type": "address"
        }
      ],
      "payable": false,
      "stateMutability": "view",
      "type": "function"
    },
    {
      "constant": true,
      "inputs": [],
      "name": "getPriceGroup",
      "outputs": [
        {
          "name": "",
          "type": "uint256"
        }
      ],
      "payable": false,
      "stateMutability": "view",
      "type": "function"
    },
    {
      "constant": false,
      "inputs": [
        {
          "name": "newOwner",
          "type": "address"
        }
      ],
      "name": "transferOwnership",
      "outputs": [],
      "payable": false,
      "stateMutability": "nonpayable",
      "type": "function"
    },
    {
      "constant": false,
      "inputs": [
        {
          "name": "_nom",
          "type": "string"
        },
        {
          "name": "_pseudo",
          "type": "string"
        }
      ],
      "name": "creerGroupe",
      "outputs": [],
      "payable": true,
      "stateMutability": "payable",
      "type": "function"
    },
    {
      "constant": false,
      "inputs": [
        {
          "name": "_minAmount",
          "type": "uint256"
        }
      ],
      "name": "modifierMinAmount",
      "outputs": [],
      "payable": false,
      "stateMutability": "nonpayable",
      "type": "function"
    },
    {
      "inputs": [],
      "payable": false,
      "stateMutability": "nonpayable",
      "type": "constructor"
    },
    {
      "anonymous": false,
      "inputs": [
        {
          "indexed": false,
          "name": "groupe",
          "type": "string"
        },
        {
          "indexed": false,
          "name": "pseudo",
          "type": "string"
        }
      ],
      "name": "nouvelleDemamnde",
      "type": "event"
    },
    {
      "anonymous": false,
      "inputs": [
        {
          "indexed": true,
          "name": "previousOwner",
          "type": "address"
        },
        {
          "indexed": true,
          "name": "newOwner",
          "type": "address"
        }
      ],
      "name": "OwnershipTransferred",
      "type": "event"
    },
    {
      "anonymous": false,
      "inputs": [
        {
          "indexed": true,
          "name": "from",
          "type": "address"
        },
        {
          "indexed": true,
          "name": "to",
          "type": "address"
        },
        {
          "indexed": false,
          "name": "value",
          "type": "uint256"
        }
      ],
      "name": "Transfer",
      "type": "event"
    },
    {
      "anonymous": false,
      "inputs": [
        {
          "indexed": true,
          "name": "owner",
          "type": "address"
        },
        {
          "indexed": true,
          "name": "spender",
          "type": "address"
        },
        {
          "indexed": false,
          "name": "value",
          "type": "uint256"
        }
      ],
      "name": "Approval",
      "type": "event"
    },
    {
      "constant": false,
      "inputs": [
        {
          "name": "_price",
          "type": "uint256"
        },
        {
          "name": "_tickets",
          "type": "uint256"
        },
        {
          "name": "_blockEnd",
          "type": "uint256"
        }
      ],
      "name": "initierLottery",
      "outputs": [],
      "payable": false,
      "stateMutability": "nonpayable",
      "type": "function"
    },
    {
      "constant": false,
      "inputs": [
        {
          "name": "_prediction",
          "type": "uint256"
        },
        {
          "name": "_nbTickets",
          "type": "uint256"
        }
      ],
      "name": "play",
      "outputs": [],
      "payable": false,
      "stateMutability": "nonpayable",
      "type": "function"
    },
    {
      "constant": false,
      "inputs": [],
      "name": "endGame",
      "outputs": [],
      "payable": false,
      "stateMutability": "nonpayable",
      "type": "function"
    },
    {
      "constant": false,
      "inputs": [],
      "name": "soldeGame",
      "outputs": [],
      "payable": false,
      "stateMutability": "nonpayable",
      "type": "function"
    },
    {
      "constant": false,
      "inputs": [],
      "name": "withdrawGains",
      "outputs": [],
      "payable": false,
      "stateMutability": "nonpayable",
      "type": "function"
    },
    {
      "constant": true,
      "inputs": [],
      "name": "getPrixLottery",
      "outputs": [
        {
          "name": "",
          "type": "uint256"
        }
      ],
      "payable": false,
      "stateMutability": "view",
      "type": "function"
    },
    {
      "constant": true,
      "inputs": [],
      "name": "getTicketsLeft",
      "outputs": [
        {
          "name": "",
          "type": "uint256"
        }
      ],
      "payable": false,
      "stateMutability": "view",
      "type": "function"
    },
    {
      "constant": true,
      "inputs": [],
      "name": "getEndGame",
      "outputs": [
        {
          "name": "",
          "type": "uint256"
        }
      ],
      "payable": false,
      "stateMutability": "view",
      "type": "function"
    },
    {
      "constant": true,
      "inputs": [],
      "name": "getSuperCagnotte",
      "outputs": [
        {
          "name": "",
          "type": "uint256"
        }
      ],
      "payable": false,
      "stateMutability": "view",
      "type": "function"
    },
    {
      "constant": true,
      "inputs": [],
      "name": "getBlockStop",
      "outputs": [
        {
          "name": "",
          "type": "uint256"
        }
      ],
      "payable": false,
      "stateMutability": "view",
      "type": "function"
    },
    {
      "constant": false,
      "inputs": [
        {
          "name": "_stop",
          "type": "uint256"
        }
      ],
      "name": "modifierBlockStop",
      "outputs": [],
      "payable": false,
      "stateMutability": "nonpayable",
      "type": "function"
    },
    {
      "constant": true,
      "inputs": [],
      "name": "getNumCagnotte",
      "outputs": [
        {
          "name": "",
          "type": "uint256"
        }
      ],
      "payable": false,
      "stateMutability": "view",
      "type": "function"
    },
    {
      "constant": false,
      "inputs": [
        {
          "name": "_pool",
          "type": "uint256"
        }
      ],
      "name": "modifierPoolEnd",
      "outputs": [],
      "payable": false,
      "stateMutability": "nonpayable",
      "type": "function"
    },
    {
      "constant": true,
      "inputs": [],
      "name": "getPoolEnd",
      "outputs": [
        {
          "name": "",
          "type": "uint256"
        }
      ],
      "payable": false,
      "stateMutability": "view",
      "type": "function"
    },
    {
      "constant": true,
      "inputs": [],
      "name": "getCagnotte",
      "outputs": [
        {
          "name": "",
          "type": "uint256"
        }
      ],
      "payable": false,
      "stateMutability": "view",
      "type": "function"
    },
    {
      "constant": true,
      "inputs": [],
      "name": "getBlock",
      "outputs": [
        {
          "name": "",
          "type": "uint256"
        }
      ],
      "payable": false,
      "stateMutability": "view",
      "type": "function"
    },
    {
      "constant": true,
      "inputs": [],
      "name": "getGains",
      "outputs": [
        {
          "name": "",
          "type": "uint256"
        }
      ],
      "payable": false,
      "stateMutability": "view",
      "type": "function"
    },
    {
      "constant": true,
      "inputs": [],
      "name": "getSolde",
      "outputs": [
        {
          "name": "",
          "type": "uint256"
        }
      ],
      "payable": false,
      "stateMutability": "view",
      "type": "function"
    },
    {
      "constant": true,
      "inputs": [],
      "name": "getNbGagnants",
      "outputs": [
        {
          "name": "",
          "type": "uint256"
        }
      ],
      "payable": false,
      "stateMutability": "view",
      "type": "function"
    }
  ],
  "bytecode": "0x608060405234801561001057600080fd5b5033600360006101000a81548173ffffffffffffffffffffffffffffffffffffffff021916908373ffffffffffffffffffffffffffffffffffffffff160217905550678ac7230489e80000600d8190555062989680600e819055506064600f81905550620186a06010819055506127106011819055506103e86012819055506002601d60006101000a81548160ff021916908360028111156100ae57fe5b02179055506064601881905550600a601c819055506153d480620000d36000396000f3fe6080604052600436106102c9576000357c0100000000000000000000000000000000000000000000000000000000900463ffffffff168062afc9e2146102ce57806306fdde03146103d6578063095ea7b3146104665780630bcb257f146104d95780630bfc2f5b14610504578063175032661461055357806318160ddd1461058e5780631b4b26fd146105b95780631e0afe57146105f45780631e63f293146106605780632055bd081461068b57806323b872dd146107cc578063283a2b461461085f57806329c77347146109db5780632a51becf14610af85780632e97766d14610bd4578063313ce56714610bff578063370c29f914610c365780633950935114610c715780634152299714610ce457806345de2ca014610d98578063479359bc14610ed9578063483f021914610f145780634b20d5d514610f2b5780634b7b03cf14610f565780634c95b4481461100a5780634dc887291461103557806351266706146110fd57806355e5ae041461113857806357430264146111635780635f0935531461123f578063639f84991461127a578063646f22c51461133557806367cb92db146113605780636cbc2ded1461138b57806370a08231146113a25780637aede272146114075780637bc49a9514611548578063897600111461158d5780638da5cb5b146115a45780638f333341146115fb57806395d89b411461176d5780639d05e9ab146117fd578063a457c2d7146118d9578063a9059cbb1461194c578063aee5b789146119bf578063b6e91ae4146119ea578063bcc21cf614611a15578063beaf3b0d14611a40578063d458be7b14611a7b578063d74b10a514611aa6578063dd62ed3e14611b82578063e09c813614611c07578063e7637a7d14611c73578063e7ac022d14611d7b578063e971cee414611da6578063ecb6976814611dd1578063f2fde38b14611dfc578063f4343df414611e4d578063f483977214611f9f575b600080fd5b3480156102da57600080fd5b50610394600480360360208110156102f157600080fd5b810190808035906020019064010000000081111561030e57600080fd5b82018360208201111561032057600080fd5b8035906020019184600183028401116401000000008311171561034257600080fd5b91908080601f016020809104026020016040519081016040528093929190818152602001838380828437600081840152601f19601f820116905080830192505050505050509192919290505050611fda565b604051808273ffffffffffffffffffffffffffffffffffffffff1673ffffffffffffffffffffffffffffffffffffffff16815260200191505060405180910390f35b3480156103e257600080fd5b506103eb612085565b6040518080602001828103825283818151815260200191508051906020019080838360005b8381101561042b578082015181840152602081019050610410565b50505050905090810190601f1680156104585780820380516001836020036101000a031916815260200191505b509250505060405180910390f35b34801561047257600080fd5b506104bf6004803603604081101561048957600080fd5b81019080803573ffffffffffffffffffffffffffffffffffffffff169060200190929190803590602001909291905050506120be565b604051808215151515815260200191505060405180910390f35b3480156104e557600080fd5b506104ee6120d5565b6040518082815260200191505060405180910390f35b34801561051057600080fd5b506105516004803603606081101561052757600080fd5b810190808035906020019092919080359060200190929190803590602001909291905050506120df565b005b34801561055f57600080fd5b5061058c6004803603602081101561057657600080fd5b81019080803590602001909291905050506121ce565b005b34801561059a57600080fd5b506105a3612234565b6040518082815260200191505060405180910390f35b3480156105c557600080fd5b506105f2600480360360208110156105dc57600080fd5b810190808035906020019092919050505061223e565b005b34801561060057600080fd5b506106096122a4565b6040518080602001828103825283818151815260200191508051906020019060200280838360005b8381101561064c578082015181840152602081019050610631565b505050509050019250505060405180910390f35b34801561066c57600080fd5b50610675612339565b6040518082815260200191505060405180910390f35b34801561069757600080fd5b50610751600480360360208110156106ae57600080fd5b81019080803590602001906401000000008111156106cb57600080fd5b8201836020820111156106dd57600080fd5b803590602001918460018302840111640100000000831117156106ff57600080fd5b91908080601f016020809104026020016040519081016040528093929190818152602001838380828437600081840152601f19601f820116905080830192505050505050509192919290505050612343565b6040518080602001828103825283818151815260200191508051906020019080838360005b83811015610791578082015181840152602081019050610776565b50505050905090810190601f1680156107be5780820380516001836020036101000a031916815260200191505b509250505060405180910390f35b3480156107d857600080fd5b50610845600480360360608110156107ef57600080fd5b81019080803573ffffffffffffffffffffffffffffffffffffffff169060200190929190803573ffffffffffffffffffffffffffffffffffffffff1690602001909291908035906020019092919050505061245c565b604051808215151515815260200191505060405180910390f35b6109d96004803603608081101561087557600080fd5b81019080803590602001909291908035906020019064010000000081111561089c57600080fd5b8201836020820111156108ae57600080fd5b803590602001918460018302840111640100000000831117156108d057600080fd5b91908080601f016020809104026020016040519081016040528093929190818152602001838380828437600081840152601f19601f820116905080830192505050505050509192919290803573ffffffffffffffffffffffffffffffffffffffff1690602001909291908035906020019064010000000081111561095357600080fd5b82018360208201111561096557600080fd5b8035906020019184600183028401116401000000008311171561098757600080fd5b91908080601f016020809104026020016040519081016040528093929190818152602001838380828437600081840152601f19601f82011690508083019250505050505050919291929050505061250d565b005b3480156109e757600080fd5b50610aa1600480360360208110156109fe57600080fd5b8101908080359060200190640100000000811115610a1b57600080fd5b820183602082011115610a2d57600080fd5b80359060200191846001830284011164010000000083111715610a4f57600080fd5b91908080601f016020809104026020016040519081016040528093929190818152602001838380828437600081840152601f19601f8201169050808301925050505050505091929192905050506127bf565b6040518080602001828103825283818151815260200191508051906020019060200280838360005b83811015610ae4578082015181840152602081019050610ac9565b505050509050019250505060405180910390f35b348015610b0457600080fd5b50610bbe60048036036020811015610b1b57600080fd5b8101908080359060200190640100000000811115610b3857600080fd5b820183602082011115610b4a57600080fd5b80359060200191846001830284011164010000000083111715610b6c57600080fd5b91908080601f016020809104026020016040519081016040528093929190818152602001838380828437600081840152601f19601f820116905080830192505050505050509192919290505050612882565b6040518082815260200191505060405180910390f35b348015610be057600080fd5b50610be9612949565b6040518082815260200191505060405180910390f35b348015610c0b57600080fd5b50610c14612951565b604051808263ffffffff1663ffffffff16815260200191505060405180910390f35b348015610c4257600080fd5b50610c6f60048036036020811015610c5957600080fd5b8101908080359060200190929190505050612956565b005b348015610c7d57600080fd5b50610cca60048036036040811015610c9457600080fd5b81019080803573ffffffffffffffffffffffffffffffffffffffff169060200190929190803590602001909291905050506129bc565b604051808215151515815260200191505060405180910390f35b348015610cf057600080fd5b50610d1d60048036036020811015610d0757600080fd5b8101908080359060200190929190505050612a61565b6040518080602001828103825283818151815260200191508051906020019080838360005b83811015610d5d578082015181840152602081019050610d42565b50505050905090810190601f168015610d8a5780820380516001836020036101000a031916815260200191505b509250505060405180910390f35b348015610da457600080fd5b50610e5e60048036036020811015610dbb57600080fd5b8101908080359060200190640100000000811115610dd857600080fd5b820183602082011115610dea57600080fd5b80359060200191846001830284011164010000000083111715610e0c57600080fd5b91908080601f016020809104026020016040519081016040528093929190818152602001838380828437600081840152601f19601f820116905080830192505050505050509192919290505050612b16565b6040518080602001828103825283818151815260200191508051906020019080838360005b83811015610e9e578082015181840152602081019050610e83565b50505050905090810190601f168015610ecb5780820380516001836020036101000a031916815260200191505b509250505060405180910390f35b348015610ee557600080fd5b50610f1260048036036020811015610efc57600080fd5b8101908080359060200190929190505050612c39565b005b348015610f2057600080fd5b50610f29612c9f565b005b348015610f3757600080fd5b50610f40612dc0565b6040518082815260200191505060405180910390f35b348015610f6257600080fd5b50610f8f60048036036020811015610f7957600080fd5b8101908080359060200190929190505050612dcd565b6040518080602001828103825283818151815260200191508051906020019080838360005b83811015610fcf578082015181840152602081019050610fb4565b50505050905090810190601f168015610ffc5780820380516001836020036101000a031916815260200191505b509250505060405180910390f35b34801561101657600080fd5b5061101f612e85565b6040518082815260200191505060405180910390f35b34801561104157600080fd5b506110fb6004803603602081101561105857600080fd5b810190808035906020019064010000000081111561107557600080fd5b82018360208201111561108757600080fd5b803590602001918460018302840111640100000000831117156110a957600080fd5b91908080601f016020809104026020016040519081016040528093929190818152602001838380828437600081840152601f19601f820116905080830192505050505050509192919290505050612e8f565b005b34801561110957600080fd5b506111366004803603602081101561112057600080fd5b810190808035906020019092919050505061305f565b005b34801561114457600080fd5b5061114d6130c5565b6040518082815260200191505060405180910390f35b34801561116f57600080fd5b506112296004803603602081101561118657600080fd5b81019080803590602001906401000000008111156111a357600080fd5b8201836020820111156111b557600080fd5b803590602001918460018302840111640100000000831117156111d757600080fd5b91908080601f016020809104026020016040519081016040528093929190818152602001838380828437600081840152601f19601f8201169050808301925050505050505091929192905050506130d5565b6040518082815260200191505060405180910390f35b34801561124b57600080fd5b506112786004803603602081101561126257600080fd5b810190808035906020019092919050505061319c565b005b6113336004803603602081101561129057600080fd5b81019080803590602001906401000000008111156112ad57600080fd5b8201836020820111156112bf57600080fd5b803590602001918460018302840111640100000000831117156112e157600080fd5b91908080601f016020809104026020016040519081016040528093929190818152602001838380828437600081840152601f19601f820116905080830192505050505050509192919290505050613202565b005b34801561134157600080fd5b5061134a6133b8565b6040518082815260200191505060405180910390f35b34801561136c57600080fd5b506113756133c2565b6040518082815260200191505060405180910390f35b34801561139757600080fd5b506113a06133cc565b005b3480156113ae57600080fd5b506113f1600480360360208110156113c557600080fd5b81019080803573ffffffffffffffffffffffffffffffffffffffff1690602001909291905050506138c7565b6040518082815260200191505060405180910390f35b34801561141357600080fd5b506114cd6004803603602081101561142a57600080fd5b810190808035906020019064010000000081111561144757600080fd5b82018360208201111561145957600080fd5b8035906020019184600183028401116401000000008311171561147b57600080fd5b91908080601f016020809104026020016040519081016040528093929190818152602001838380828437600081840152601f19601f82011690508083019250505050505050919291929050505061390f565b6040518080602001828103825283818151815260200191508051906020019080838360005b8381101561150d5780820151818401526020810190506114f2565b50505050905090810190601f16801561153a5780820380516001836020036101000a031916815260200191505b509250505060405180910390f35b34801561155457600080fd5b5061158b6004803603604081101561156b57600080fd5b810190808035906020019092919080359060200190929190505050613a32565b005b34801561159957600080fd5b506115a2613be4565b005b3480156115b057600080fd5b506115b9613dce565b604051808273ffffffffffffffffffffffffffffffffffffffff1673ffffffffffffffffffffffffffffffffffffffff16815260200191505060405180910390f35b61176b6004803603606081101561161157600080fd5b81019080803573ffffffffffffffffffffffffffffffffffffffff1690602001909291908035906020019064010000000081111561164e57600080fd5b82018360208201111561166057600080fd5b8035906020019184600183028401116401000000008311171561168257600080fd5b91908080601f016020809104026020016040519081016040528093929190818152602001838380828437600081840152601f19601f820116905080830192505050505050509192919290803590602001906401000000008111156116e557600080fd5b8201836020820111156116f757600080fd5b8035906020019184600183028401116401000000008311171561171957600080fd5b91908080601f016020809104026020016040519081016040528093929190818152602001838380828437600081840152601f19601f820116905080830192505050505050509192919290505050613df4565b005b34801561177957600080fd5b5061178261402b565b6040518080602001828103825283818151815260200191508051906020019080838360005b838110156117c25780820151818401526020810190506117a7565b50505050905090810190601f1680156117ef5780820380516001836020036101000a031916815260200191505b509250505060405180910390f35b34801561180957600080fd5b506118c36004803603602081101561182057600080fd5b810190808035906020019064010000000081111561183d57600080fd5b82018360208201111561184f57600080fd5b8035906020019184600183028401116401000000008311171561187157600080fd5b91908080601f016020809104026020016040519081016040528093929190818152602001838380828437600081840152601f19601f820116905080830192505050505050509192919290505050614064565b6040518082815260200191505060405180910390f35b3480156118e557600080fd5b50611932600480360360408110156118fc57600080fd5b81019080803573ffffffffffffffffffffffffffffffffffffffff169060200190929190803590602001909291905050506140ef565b604051808215151515815260200191505060405180910390f35b34801561195857600080fd5b506119a56004803603604081101561196f57600080fd5b81019080803573ffffffffffffffffffffffffffffffffffffffff16906020019092919080359060200190929190505050614194565b604051808215151515815260200191505060405180910390f35b3480156119cb57600080fd5b506119d46141ab565b6040518082815260200191505060405180910390f35b3480156119f657600080fd5b506119ff614211565b6040518082815260200191505060405180910390f35b348015611a2157600080fd5b50611a2a61421b565b6040518082815260200191505060405180910390f35b348015611a4c57600080fd5b50611a7960048036036020811015611a6357600080fd5b8101908080359060200190929190505050614260565b005b348015611a8757600080fd5b50611a906142c6565b6040518082815260200191505060405180910390f35b348015611ab257600080fd5b50611b6c60048036036020811015611ac957600080fd5b8101908080359060200190640100000000811115611ae657600080fd5b820183602082011115611af857600080fd5b80359060200191846001830284011164010000000083111715611b1a57600080fd5b91908080601f016020809104026020016040519081016040528093929190818152602001838380828437600081840152601f19601f8201169050808301925050505050505091929192905050506142d3565b6040518082815260200191505060405180910390f35b348015611b8e57600080fd5b50611bf160048036036040811015611ba557600080fd5b81019080803573ffffffffffffffffffffffffffffffffffffffff169060200190929190803573ffffffffffffffffffffffffffffffffffffffff16906020019092919050505061435e565b6040518082815260200191505060405180910390f35b348015611c1357600080fd5b50611c1c6143e5565b6040518080602001828103825283818151815260200191508051906020019060200280838360005b83811015611c5f578082015181840152602081019050611c44565b505050509050019250505060405180910390f35b348015611c7f57600080fd5b50611d3960048036036020811015611c9657600080fd5b8101908080359060200190640100000000811115611cb357600080fd5b820183602082011115611cc557600080fd5b80359060200191846001830284011164010000000083111715611ce757600080fd5b91908080601f016020809104026020016040519081016040528093929190818152602001838380828437600081840152601f19601f82011690508083019250505050505050919291929050505061447a565b604051808273ffffffffffffffffffffffffffffffffffffffff1673ffffffffffffffffffffffffffffffffffffffff16815260200191505060405180910390f35b348015611d8757600080fd5b50611d90614525565b6040518082815260200191505060405180910390f35b348015611db257600080fd5b50611dbb61456c565b6040518082815260200191505060405180910390f35b348015611ddd57600080fd5b50611de6614576565b6040518082815260200191505060405180910390f35b348015611e0857600080fd5b50611e4b60048036036020811015611e1f57600080fd5b81019080803573ffffffffffffffffffffffffffffffffffffffff169060200190929190505050614583565b005b611f9d60048036036040811015611e6357600080fd5b8101908080359060200190640100000000811115611e8057600080fd5b820183602082011115611e9257600080fd5b80359060200191846001830284011164010000000083111715611eb457600080fd5b91908080601f016020809104026020016040519081016040528093929190818152602001838380828437600081840152601f19601f82011690508083019250505050505050919291929080359060200190640100000000811115611f1757600080fd5b820183602082011115611f2957600080fd5b80359060200191846001830284011164010000000083111715611f4b57600080fd5b91908080601f016020809104026020016040519081016040528093929190818152602001838380828437600081840152601f19601f8201169050808301925050505050505091929192905050506146db565b005b348015611fab57600080fd5b50611fd860048036036020811015611fc257600080fd5b81019080803590602001909291905050506149e4565b005b600060046000600a846040518082805190602001908083835b6020831015156120185780518252602082019150602081019050602083039250611ff3565b6001836020036101000a038019825116818451168082178552505050505050905001915050908152602001604051809103902054815260200190815260200160002060000160009054906101000a900473ffffffffffffffffffffffffffffffffffffffff169050919050565b6040805190810160405280600981526020017f636f696e756e696f6e000000000000000000000000000000000000000000000081525081565b60006120cb338484614a4a565b6001905092915050565b6000601954905090565b600360009054906101000a900473ffffffffffffffffffffffffffffffffffffffff1673ffffffffffffffffffffffffffffffffffffffff163373ffffffffffffffffffffffffffffffffffffffff1614151561213b57600080fd5b601854601954034310151561214f57600080fd5b60028081111561215b57fe5b601d60009054906101000a900460ff16600281111561217657fe5b14151561218257600080fd5b804310151561219057600080fd5b8060198190555081601b8190555082601a819055506000601d60006101000a81548160ff021916908360028111156121c457fe5b0217905550505050565b600360009054906101000a900473ffffffffffffffffffffffffffffffffffffffff1673ffffffffffffffffffffffffffffffffffffffff163373ffffffffffffffffffffffffffffffffffffffff1614151561222a57600080fd5b8060108190555050565b6000600254905090565b600360009054906101000a900473ffffffffffffffffffffffffffffffffffffffff1673ffffffffffffffffffffffffffffffffffffffff163373ffffffffffffffffffffffffffffffffffffffff1614151561229a57600080fd5b8060188190555050565b6060600560003373ffffffffffffffffffffffffffffffffffffffff1673ffffffffffffffffffffffffffffffffffffffff16815260200190815260200160002080548060200260200160405190810160405280929190818152602001828054801561232f57602002820191906000526020600020905b81548152602001906001019080831161231b575b5050505050905090565b6000601354905090565b60606000828051906020012060019004905060046000600b600084815260200190815260200160002060003373ffffffffffffffffffffffffffffffffffffffff1673ffffffffffffffffffffffffffffffffffffffff1681526020019081526020016000205481526020019081526020016000206001018054600181600116156101000203166002900480601f01602080910402602001604051908101604052809291908181526020018280546001816001161561010002031660029004801561244f5780601f106124245761010080835404028352916020019161244f565b820191906000526020600020905b81548152906001019060200180831161243257829003601f168201915b5050505050915050919050565b6000612469848484614bad565b61250284336124fd85600160008a73ffffffffffffffffffffffffffffffffffffffff1673ffffffffffffffffffffffffffffffffffffffff16815260200190815260200160002060003373ffffffffffffffffffffffffffffffffffffffff1673ffffffffffffffffffffffffffffffffffffffff16815260200190815260200160002054614d7990919063ffffffff16565b614a4a565b600190509392505050565b6012543414151561251d57600080fd5b600e548411151561252d57600080fd5b600d548410151561253d57600080fd5b600083805190602001206001900490503373ffffffffffffffffffffffffffffffffffffffff166004600083815260200190815260200160002060000160009054906101000a900473ffffffffffffffffffffffffffffffffffffffff1673ffffffffffffffffffffffffffffffffffffffff161415156125bd57600080fd5b600060046000838152602001908152602001600020600301541415156125e257600080fd5b846004600083815260200190815260200160002060030181905550826004600083815260200190815260200160002060050160006101000a81548173ffffffffffffffffffffffffffffffffffffffff021916908373ffffffffffffffffffffffffffffffffffffffff1602179055508160046000838152602001908152602001600020600601908051906020019061267c929190615303565b507fdc9d3a39aef8f13151f130d0bb7d4d7b099f9ac3fc92b57e3811a478eaf81b5960046000838152602001908152602001600020600201856040518080602001806020018381038352858181546001816001161561010002031660029004815260200191508054600181600116156101000203166002900480156127425780601f1061271757610100808354040283529160200191612742565b820191906000526020600020905b81548152906001019060200180831161272557829003601f168201915b5050838103825284818151815260200191508051906020019080838360005b8381101561277c578082015181840152602081019050612761565b50505050905090810190601f1680156127a95780820380516001836020036101000a031916815260200191505b5094505050505060405180910390a15050505050565b60606006826040518082805190602001908083835b6020831015156127f957805182526020820191506020810190506020830392506127d4565b6001836020036101000a038019825116818451168082178552505050505050905001915050908152602001604051809103902080548060200260200160405190810160405280929190818152602001828054801561287657602002820191906000526020600020905b815481526020019060010190808311612862575b50505050509050919050565b6000600c60003373ffffffffffffffffffffffffffffffffffffffff1673ffffffffffffffffffffffffffffffffffffffff168152602001908152602001600020600060046000858051906020012060019004815260200190815260200160002060000160009054906101000a900473ffffffffffffffffffffffffffffffffffffffff1673ffffffffffffffffffffffffffffffffffffffff1673ffffffffffffffffffffffffffffffffffffffff168152602001908152602001600020549050919050565b600043905090565b601281565b600360009054906101000a900473ffffffffffffffffffffffffffffffffffffffff1673ffffffffffffffffffffffffffffffffffffffff163373ffffffffffffffffffffffffffffffffffffffff161415156129b257600080fd5b8060128190555050565b6000612a573384612a5285600160003373ffffffffffffffffffffffffffffffffffffffff1673ffffffffffffffffffffffffffffffffffffffff16815260200190815260200160002060008973ffffffffffffffffffffffffffffffffffffffff1673ffffffffffffffffffffffffffffffffffffffff16815260200190815260200160002054614d9290919063ffffffff16565b614a4a565b6001905092915050565b6060600760008381526020019081526020016000208054600181600116156101000203166002900480601f016020809104026020016040519081016040528092919081815260200182805460018160011615610100020316600290048015612b0a5780601f10612adf57610100808354040283529160200191612b0a565b820191906000526020600020905b815481529060010190602001808311612aed57829003601f168201915b50505050509050919050565b606060046000600a846040518082805190602001908083835b602083101515612b545780518252602082019150602081019050602083039250612b2f565b6001836020036101000a03801982511681845116808217855250505050505090500191505090815260200160405180910390205481526020019081526020016000206006018054600181600116156101000203166002900480601f016020809104026020016040519081016040528092919081815260200182805460018160011615610100020316600290048015612c2d5780601f10612c0257610100808354040283529160200191612c2d565b820191906000526020600020905b815481529060010190602001808311612c1057829003601f168201915b50505050509050919050565b600360009054906101000a900473ffffffffffffffffffffffffffffffffffffffff1673ffffffffffffffffffffffffffffffffffffffff163373ffffffffffffffffffffffffffffffffffffffff16141515612c9557600080fd5b80601c8190555050565b6000601560003373ffffffffffffffffffffffffffffffffffffffff1673ffffffffffffffffffffffffffffffffffffffff16815260200190815260200160002054111515612ced57600080fd5b6000601560003373ffffffffffffffffffffffffffffffffffffffff1673ffffffffffffffffffffffffffffffffffffffff1681526020019081526020016000205490506000601560003373ffffffffffffffffffffffffffffffffffffffff1673ffffffffffffffffffffffffffffffffffffffff168152602001908152602001600020819055503373ffffffffffffffffffffffffffffffffffffffff166108fc829081150290604051600060405180830381858888f19350505050158015612dbc573d6000803e3d6000fd5b5050565b6000601e60010154905090565b6060600460008381526020019081526020016000206001018054600181600116156101000203166002900480601f016020809104026020016040519081016040528092919081815260200182805460018160011615610100020316600290048015612e795780601f10612e4e57610100808354040283529160200191612e79565b820191906000526020600020905b815481529060010190602001808311612e5c57829003601f168201915b50505050509050919050565b6000601254905090565b600081805190602001206001900490506000600460008381526020019081526020016000206003015414151515612ec557600080fd5b3373ffffffffffffffffffffffffffffffffffffffff166004600083815260200190815260200160002060000160009054906101000a900473ffffffffffffffffffffffffffffffffffffffff1673ffffffffffffffffffffffffffffffffffffffff16141515612f3557600080fd5b3373ffffffffffffffffffffffffffffffffffffffff166108fc60046000848152602001908152602001600020600401549081150290604051600060405180830381858888f19350505050158015612f91573d6000803e3d6000fd5b50600060046000838152602001908152602001600020600401819055506000600460008381526020019081526020016000206003018190555060006004600083815260200190815260200160002060050160006101000a81548173ffffffffffffffffffffffffffffffffffffffff021916908373ffffffffffffffffffffffffffffffffffffffff160217905550602060405190810160405280600081525060046000838152602001908152602001600020600601908051906020019061305a929190615303565b505050565b600360009054906101000a900473ffffffffffffffffffffffffffffffffffffffff1673ffffffffffffffffffffffffffffffffffffffff163373ffffffffffffffffffffffffffffffffffffffff161415156130bb57600080fd5b80600f8190555050565b60006130d0336138c7565b905090565b6000600c600060046000858051906020012060019004815260200190815260200160002060000160009054906101000a900473ffffffffffffffffffffffffffffffffffffffff1673ffffffffffffffffffffffffffffffffffffffff1673ffffffffffffffffffffffffffffffffffffffff16815260200190815260200160002060003373ffffffffffffffffffffffffffffffffffffffff1673ffffffffffffffffffffffffffffffffffffffff168152602001908152602001600020549050919050565b600360009054906101000a900473ffffffffffffffffffffffffffffffffffffffff1673ffffffffffffffffffffffffffffffffffffffff163373ffffffffffffffffffffffffffffffffffffffff161415156131f857600080fd5b8060118190555050565b6012543411151561321257600080fd5b60008180519060200120600190049050600060046000838152602001908152602001600020600301541415151561324857600080fd5b3460046000838152602001908152602001600020600401546004600084815260200190815260200160002060030154031015151561328557600080fd5b6000600f543481151561329457fe5b0490506000349050818103905080600460008581526020019081526020016000206004016000828254019250508190555080600c60003373ffffffffffffffffffffffffffffffffffffffff1673ffffffffffffffffffffffffffffffffffffffff16815260200190815260200160002060006004600087815260200190815260200160002060000160009054906101000a900473ffffffffffffffffffffffffffffffffffffffff1673ffffffffffffffffffffffffffffffffffffffff1673ffffffffffffffffffffffffffffffffffffffff16815260200190815260200160002060008282540192505081905550613399600283614db090919063ffffffff16565b6013600082825401925050819055506133b23383614dcb565b50505050565b6000601b54905090565b6000601154905090565b600360009054906101000a900473ffffffffffffffffffffffffffffffffffffffff1673ffffffffffffffffffffffffffffffffffffffff163373ffffffffffffffffffffffffffffffffffffffff1614151561342857600080fd5b6000600281111561343557fe5b601d60009054906101000a900460ff16600281111561345057fe5b14151561345c57600080fd5b6019544311151561346c57600080fd5b6000601c54601680549050111561348757601c549050613490565b60168054905090505b60008090505b818110156137e9576000601c54601460006016858154811015156134b657fe5b9060005260206000200160009054906101000a900473ffffffffffffffffffffffffffffffffffffffff1673ffffffffffffffffffffffffffffffffffffffff1673ffffffffffffffffffffffffffffffffffffffff16815260200190815260200160002080549050111561352f57601c5490506135ae565b6014600060168481548110151561354257fe5b9060005260206000200160009054906101000a900473ffffffffffffffffffffffffffffffffffffffff1673ffffffffffffffffffffffffffffffffffffffff1673ffffffffffffffffffffffffffffffffffffffff1681526020019081526020016000208054905090505b60008090505b8181101561379e57601354601460006016868154811015156135d257fe5b9060005260206000200160009054906101000a900473ffffffffffffffffffffffffffffffffffffffff1673ffffffffffffffffffffffffffffffffffffffff1673ffffffffffffffffffffffffffffffffffffffff1681526020019081526020016000208281548110151561364457fe5b90600052602060002001541480156136ec575060006014600060168681548110151561366c57fe5b9060005260206000200160009054906101000a900473ffffffffffffffffffffffffffffffffffffffff1673ffffffffffffffffffffffffffffffffffffffff1673ffffffffffffffffffffffffffffffffffffffff168152602001908152602001600020828154811015156136de57fe5b906000526020600020015414155b1561379157601760168481548110151561370257fe5b9060005260206000200160009054906101000a900473ffffffffffffffffffffffffffffffffffffffff1690806001815401808255809150509060018203906000526020600020016000909192909190916101000a81548173ffffffffffffffffffffffffffffffffffffffff021916908373ffffffffffffffffffffffffffffffffffffffff160217905550505b80806001019150506135b4565b506016828154811015156137ae57fe5b9060005260206000200160006101000a81549073ffffffffffffffffffffffffffffffffffffffff0219169055508080600101915050613496565b506000601680549050141561384c576000601780549050111561382757613820601780549050601354614db090919063ffffffff16565b6013819055505b6001601d60006101000a81548160ff0219169083600281111561384657fe5b02179055505b3373ffffffffffffffffffffffffffffffffffffffff166108fc6013549081150290604051600060405180830381858888f19350505050158015613894573d6000803e3d6000fd5b506001601e60000160008282540192505081905550601354601e60010181905550601780549050601e6002018190555050565b60008060008373ffffffffffffffffffffffffffffffffffffffff1673ffffffffffffffffffffffffffffffffffffffff168152602001908152602001600020549050919050565b606060046000600a846040518082805190602001908083835b60208310151561394d5780518252602082019150602081019050602083039250613928565b6001836020036101000a03801982511681845116808217855250505050505090500191505090815260200160405180910390205481526020019081526020016000206002018054600181600116156101000203166002900480601f016020809104026020016040519081016040528092919081815260200182805460018160011615610100020316600290048015613a265780601f106139fb57610100808354040283529160200191613a26565b820191906000526020600020905b815481529060010190602001808311613a0957829003601f168201915b50505050509050919050565b6018546019540343101515613a4657600080fd5b60006002811115613a5357fe5b601d60009054906101000a900460ff166002811115613a6e57fe5b141515613a7a57600080fd5b600b81101515613a8957600080fd5b600081601b5403111515613a9c57600080fd5b613ab1601a5482614f1f90919063ffffffff16565b613aba336138c7565b10151515613ac757600080fd5b80601b60008282540392505081905550613af533613af0601a5484614f1f90919063ffffffff16565b614f52565b60008090505b81811015613b7957601460003373ffffffffffffffffffffffffffffffffffffffff1673ffffffffffffffffffffffffffffffffffffffff1681526020019081526020016000208390806001815401808255809150509060018203906000526020600020016000909192909190915055508080600101915050613afb565b5060163390806001815401808255809150509060018203906000526020600020016000909192909190916101000a81548173ffffffffffffffffffffffffffffffffffffffff021916908373ffffffffffffffffffffffffffffffffffffffff160217905550505050565b600360009054906101000a900473ffffffffffffffffffffffffffffffffffffffff1673ffffffffffffffffffffffffffffffffffffffff163373ffffffffffffffffffffffffffffffffffffffff16141515613c4057600080fd5b60016002811115613c4d57fe5b601d60009054906101000a900460ff166002811115613c6857fe5b141515613c7457600080fd5b6000601780549050111515613c8857600080fd5b6000600a6017805490501115613ca157600a9050613caa565b60178054905090505b60008090505b81811015613d8f57613d4560135460156000601785815481101515613cd157fe5b9060005260206000200160009054906101000a900473ffffffffffffffffffffffffffffffffffffffff1673ffffffffffffffffffffffffffffffffffffffff1673ffffffffffffffffffffffffffffffffffffffff16815260200190815260200160002054614d9290919063ffffffff16565b50601781815481101515613d5557fe5b9060005260206000200160006101000a81549073ffffffffffffffffffffffffffffffffffffffff02191690558080600101915050613cb0565b5060006017805490501415613dcb5760006013819055506002601d60006101000a81548160ff02191690836002811115613dc557fe5b02179055505b50565b600360009054906101000a900473ffffffffffffffffffffffffffffffffffffffff1681565b34601154141515613e0457600080fd5b60008180519060200120600190049050600073ffffffffffffffffffffffffffffffffffffffff166004600083815260200190815260200160002060000160009054906101000a900473ffffffffffffffffffffffffffffffffffffffff1673ffffffffffffffffffffffffffffffffffffffff16141515613e8557600080fd5b3373ffffffffffffffffffffffffffffffffffffffff166009846040518082805190602001908083835b602083101515613ed45780518252602082019150602081019050602083039250613eaf565b6001836020036101000a038019825116818451168082178552505050505050905001915050908152602001604051809103902060009054906101000a900473ffffffffffffffffffffffffffffffffffffffff1673ffffffffffffffffffffffffffffffffffffffff16141515613f4a57600080fd5b60008380519060200120600190049050600560008673ffffffffffffffffffffffffffffffffffffffff1673ffffffffffffffffffffffffffffffffffffffff168152602001908152602001600020819080600181540180825580915050906001820390600052602060002001600090919290919091505550336004600084815260200190815260200160002060000160006101000a81548173ffffffffffffffffffffffffffffffffffffffff021916908373ffffffffffffffffffffffffffffffffffffffff16021790555061402483858385614ff9565b5050505050565b6040805190810160405280600581526020017f554e494f4e00000000000000000000000000000000000000000000000000000081525081565b600060046000600a846040518082805190602001908083835b6020831015156140a2578051825260208201915060208101905060208303925061407d565b6001836020036101000a0380198251168184511680821785525050505050509050019150509081526020016040518091039020548152602001908152602001600020600401549050919050565b600061418a338461418585600160003373ffffffffffffffffffffffffffffffffffffffff1673ffffffffffffffffffffffffffffffffffffffff16815260200190815260200160002060008973ffffffffffffffffffffffffffffffffffffffff1673ffffffffffffffffffffffffffffffffffffffff16815260200190815260200160002054614d7990919063ffffffff16565b614a4a565b6001905092915050565b60006141a1338484614bad565b6001905092915050565b6000600360009054906101000a900473ffffffffffffffffffffffffffffffffffffffff1673ffffffffffffffffffffffffffffffffffffffff163373ffffffffffffffffffffffffffffffffffffffff1614151561420957600080fd5b601c54905090565b6000601a54905090565b600060028081111561422957fe5b601d60009054906101000a900460ff16600281111561424457fe5b1415614253576000905061425d565b6018546019540390505b90565b600360009054906101000a900473ffffffffffffffffffffffffffffffffffffffff1673ffffffffffffffffffffffffffffffffffffffff163373ffffffffffffffffffffffffffffffffffffffff161415156142bc57600080fd5b80600d8190555050565b6000601e60020154905090565b600060046000600a846040518082805190602001908083835b60208310151561431157805182526020820191506020810190506020830392506142ec565b6001836020036101000a0380198251168184511680821785525050505050509050019150509081526020016040518091039020548152602001908152602001600020600301549050919050565b6000600160008473ffffffffffffffffffffffffffffffffffffffff1673ffffffffffffffffffffffffffffffffffffffff16815260200190815260200160002060008373ffffffffffffffffffffffffffffffffffffffff1673ffffffffffffffffffffffffffffffffffffffff16815260200190815260200160002054905092915050565b6060600860003373ffffffffffffffffffffffffffffffffffffffff1673ffffffffffffffffffffffffffffffffffffffff16815260200190815260200160002080548060200260200160405190810160405280929190818152602001828054801561447057602002820191906000526020600020905b81548152602001906001019080831161445c575b5050505050905090565b600060046000600a846040518082805190602001908083835b6020831015156144b85780518252602082019150602081019050602083039250614493565b6001836020036101000a038019825116818451168082178552505050505050905001915050908152602001604051809103902054815260200190815260200160002060050160009054906101000a900473ffffffffffffffffffffffffffffffffffffffff169050919050565b6000601560003373ffffffffffffffffffffffffffffffffffffffff1673ffffffffffffffffffffffffffffffffffffffff16815260200190815260200160002054905090565b6000601054905090565b6000601e60000154905090565b600360009054906101000a900473ffffffffffffffffffffffffffffffffffffffff1673ffffffffffffffffffffffffffffffffffffffff163373ffffffffffffffffffffffffffffffffffffffff161415156145df57600080fd5b600073ffffffffffffffffffffffffffffffffffffffff168173ffffffffffffffffffffffffffffffffffffffff161415151561461b57600080fd5b8073ffffffffffffffffffffffffffffffffffffffff16600360009054906101000a900473ffffffffffffffffffffffffffffffffffffffff1673ffffffffffffffffffffffffffffffffffffffff167f8be0079c531659141344cd1fd0a4f28419497f9722a3daafe3b4186f6b6457e060405160405180910390a380600360006101000a81548173ffffffffffffffffffffffffffffffffffffffff021916908373ffffffffffffffffffffffffffffffffffffffff16021790555050565b346010541415156146eb57600080fd5b60008280519060200120600190049050600073ffffffffffffffffffffffffffffffffffffffff166009846040518082805190602001908083835b60208310151561474b5780518252602082019150602081019050602083039250614726565b6001836020036101000a038019825116818451168082178552505050505050905001915050908152602001604051809103902060009054906101000a900473ffffffffffffffffffffffffffffffffffffffff1673ffffffffffffffffffffffffffffffffffffffff161415156147c157600080fd5b60008280519060200120600190049050600073ffffffffffffffffffffffffffffffffffffffff166004600083815260200190815260200160002060000160009054906101000a900473ffffffffffffffffffffffffffffffffffffffff1673ffffffffffffffffffffffffffffffffffffffff1614151561484257600080fd5b336004600083815260200190815260200160002060000160006101000a81548173ffffffffffffffffffffffffffffffffffffffff021916908373ffffffffffffffffffffffffffffffffffffffff160217905550836007600084815260200190815260200160002090805190602001906148be929190615303565b50336009856040518082805190602001908083835b6020831015156148f857805182526020820191506020810190506020830392506148d3565b6001836020036101000a038019825116818451168082178552505050505050905001915050908152602001604051809103902060006101000a81548173ffffffffffffffffffffffffffffffffffffffff021916908373ffffffffffffffffffffffffffffffffffffffff160217905550600860003373ffffffffffffffffffffffffffffffffffffffff1673ffffffffffffffffffffffffffffffffffffffff1681526020019081526020016000208290806001815401808255809150509060018203906000526020600020016000909192909190915055506149de83858484614ff9565b50505050565b600360009054906101000a900473ffffffffffffffffffffffffffffffffffffffff1673ffffffffffffffffffffffffffffffffffffffff163373ffffffffffffffffffffffffffffffffffffffff16141515614a4057600080fd5b80600e8190555050565b600073ffffffffffffffffffffffffffffffffffffffff168273ffffffffffffffffffffffffffffffffffffffff1614151515614a8657600080fd5b600073ffffffffffffffffffffffffffffffffffffffff168373ffffffffffffffffffffffffffffffffffffffff1614151515614ac257600080fd5b80600160008573ffffffffffffffffffffffffffffffffffffffff1673ffffffffffffffffffffffffffffffffffffffff16815260200190815260200160002060008473ffffffffffffffffffffffffffffffffffffffff1673ffffffffffffffffffffffffffffffffffffffff168152602001908152602001600020819055508173ffffffffffffffffffffffffffffffffffffffff168373ffffffffffffffffffffffffffffffffffffffff167f8c5be1e5ebec7d5bd14f71427d1e84f3dd0314c0f7b2291e5b200ac8c7c3b925836040518082815260200191505060405180910390a3505050565b600073ffffffffffffffffffffffffffffffffffffffff168273ffffffffffffffffffffffffffffffffffffffff1614151515614be957600080fd5b614c3a816000808673ffffffffffffffffffffffffffffffffffffffff1673ffffffffffffffffffffffffffffffffffffffff16815260200190815260200160002054614d7990919063ffffffff16565b6000808573ffffffffffffffffffffffffffffffffffffffff1673ffffffffffffffffffffffffffffffffffffffff16815260200190815260200160002081905550614ccd816000808573ffffffffffffffffffffffffffffffffffffffff1673ffffffffffffffffffffffffffffffffffffffff16815260200190815260200160002054614d9290919063ffffffff16565b6000808473ffffffffffffffffffffffffffffffffffffffff1673ffffffffffffffffffffffffffffffffffffffff168152602001908152602001600020819055508173ffffffffffffffffffffffffffffffffffffffff168373ffffffffffffffffffffffffffffffffffffffff167fddf252ad1be2c89b69c2b068fc378daa952ba7f163c4a11628f55a4df523b3ef836040518082815260200191505060405180910390a3505050565b6000828211151515614d8757fe5b818303905092915050565b6000808284019050838110151515614da657fe5b8091505092915050565b6000808284811515614dbe57fe5b0490508091505092915050565b600073ffffffffffffffffffffffffffffffffffffffff168273ffffffffffffffffffffffffffffffffffffffff1614151515614e0757600080fd5b614e1c81600254614d9290919063ffffffff16565b600281905550614e73816000808573ffffffffffffffffffffffffffffffffffffffff1673ffffffffffffffffffffffffffffffffffffffff16815260200190815260200160002054614d9290919063ffffffff16565b6000808473ffffffffffffffffffffffffffffffffffffffff1673ffffffffffffffffffffffffffffffffffffffff168152602001908152602001600020819055508173ffffffffffffffffffffffffffffffffffffffff16600073ffffffffffffffffffffffffffffffffffffffff167fddf252ad1be2c89b69c2b068fc378daa952ba7f163c4a11628f55a4df523b3ef836040518082815260200191505060405180910390a35050565b60008082840290506000841480614f405750828482811515614f3d57fe5b04145b1515614f4857fe5b8091505092915050565b614f5c82826151af565b614ff58233614ff084600160008873ffffffffffffffffffffffffffffffffffffffff1673ffffffffffffffffffffffffffffffffffffffff16815260200190815260200160002060003373ffffffffffffffffffffffffffffffffffffffff1673ffffffffffffffffffffffffffffffffffffffff16815260200190815260200160002054614d7990919063ffffffff16565b614a4a565b5050565b83600460008381526020019081526020016000206001019080519060200190615023929190615303565b508260046000838152602001908152602001600020600201908051906020019061504e929190615303565b506006836040518082805190602001908083835b6020831015156150875780518252602082019150602081019050602083039250615062565b6001836020036101000a038019825116818451168082178552505050505050905001915050908152602001604051809103902081908060018154018082558091505090600182039060005260206000200160009091929091909150555080600a856040518082805190602001908083835b60208310151561511d57805182526020820191506020810190506020830392506150f8565b6001836020036101000a03801982511681845116808217855250505050505090500191505090815260200160405180910390208190555080600b600084815260200190815260200160002060003373ffffffffffffffffffffffffffffffffffffffff1673ffffffffffffffffffffffffffffffffffffffff1681526020019081526020016000208190555050505050565b600073ffffffffffffffffffffffffffffffffffffffff168273ffffffffffffffffffffffffffffffffffffffff16141515156151eb57600080fd5b61520081600254614d7990919063ffffffff16565b600281905550615257816000808573ffffffffffffffffffffffffffffffffffffffff1673ffffffffffffffffffffffffffffffffffffffff16815260200190815260200160002054614d7990919063ffffffff16565b6000808473ffffffffffffffffffffffffffffffffffffffff1673ffffffffffffffffffffffffffffffffffffffff16815260200190815260200160002081905550600073ffffffffffffffffffffffffffffffffffffffff168273ffffffffffffffffffffffffffffffffffffffff167fddf252ad1be2c89b69c2b068fc378daa952ba7f163c4a11628f55a4df523b3ef836040518082815260200191505060405180910390a35050565b828054600181600116156101000203166002900490600052602060002090601f016020900481019282601f1061534457805160ff1916838001178555615372565b82800160010185558215615372579182015b82811115615371578251825591602001919060010190615356565b5b50905061537f9190615383565b5090565b6153a591905b808211156153a1576000816000905550600101615389565b5090565b9056fea165627a7a723058200e26a8cdfff2444a5f15b4a6b6006325cd4d36a1d88f73e0ffdba686b6ce04200029",
  "source": "pragma solidity ^0.5.0;\n\nimport \"./Cagnottes.sol\";\n\ncontract Lottery is Cagnottes{\n\nmapping (address => uint[]) private prediction ;\nmapping (address => uint) private gains;\n\nenum LotteryState { Started, Finished, Pending }\n\naddress[] private players;\naddress[] private winners;\n\nuint private blockStop;\nuint private blockEnd;\nuint private PRICE_LOTTERY_TOKEN;\nuint private NB_TICKETS;\nuint private POOL_ENDGAME;\n\nLotteryState private state;\n\nstruct resultat\n{\n  uint numCagnotte;\n  uint cagnotte;\n  uint nbGagnants;\n}\n\nresultat lastResult;\n\nconstructor() public\n{\n  state = LotteryState.Pending;\n  blockStop = 100;\n  POOL_ENDGAME = 10;\n}\n\nfunction initierLottery(uint _price, uint _tickets, uint _blockEnd) public onlyOwner\n{\n  require(block.number < blockEnd - blockStop);\n  require(state == LotteryState.Pending);\n  require(block.number < _blockEnd);\n  blockEnd = _blockEnd;\n  NB_TICKETS = _tickets;\n  PRICE_LOTTERY_TOKEN = _price;\n  state = LotteryState.Started;\n}\n\nfunction play(uint _prediction, uint _nbTickets) public\n{\n  require(block.number < blockEnd - blockStop);\n  require(state == LotteryState.Started);\n  require(_nbTickets < 11);\n  require(NB_TICKETS - _nbTickets > 0);\n  require(balanceOf(msg.sender) >= _nbTickets.mul(PRICE_LOTTERY_TOKEN));\n  NB_TICKETS -= _nbTickets;\n  _burnFrom(msg.sender,_nbTickets.mul(PRICE_LOTTERY_TOKEN));\n  for (uint i=0; i< _nbTickets; i++)\n  {\n  prediction[msg.sender].push(_prediction);\n  }\n  players.push(msg.sender);\n}\n\nfunction endGame() public onlyOwner\n{\n  require(state == LotteryState.Started);\n  require(block.number > blockEnd);\n  uint length;\n  if (players.length > POOL_ENDGAME)\n  {\n    length = POOL_ENDGAME;\n  }\n  else {\n    length = players.length;\n  }\n  for (uint i=0; i< length; i++)\n  {\n    uint length2;\n    if (prediction[players[i]].length > POOL_ENDGAME)\n    {\n      length2 = POOL_ENDGAME;\n    }\n    else {\n      length2 = prediction[players[i]].length;\n    }\n    for (uint j=0; j< length2; j++)\n    {\n      if (prediction[players[i]][j] == LOTTERY_CAGNOTTE && prediction[players[i]][j] != 0)\n      {\n        winners.push(players[i]);\n      }\n    }\n    delete players[i];\n  }\n  if (players.length == 0)\n  {\n    if (winners.length > 0)\n    {\n    LOTTERY_CAGNOTTE = uint(LOTTERY_CAGNOTTE.div(winners.length));\n    }\n    state = LotteryState.Finished;\n  }\n  msg.sender.transfer(LOTTERY_CAGNOTTE);\n  lastResult.numCagnotte += 1;\n  lastResult.cagnotte = LOTTERY_CAGNOTTE;\n  lastResult.nbGagnants = winners.length;\n}\n\nfunction soldeGame() public onlyOwner\n{\n  require(state == LotteryState.Finished);\n  require(winners.length>0);\n  uint length;\n  if (winners.length > 10)\n  {\n    length = 10;\n  }\n  else {\n    length = winners.length;\n  }\n  for (uint i=0; i< length; i++)\n  {\n    gains[winners[i]].add(LOTTERY_CAGNOTTE);\n    delete winners[i];\n  }\n  if (winners.length == 0)\n  {\n    LOTTERY_CAGNOTTE = 0;\n    state = LotteryState.Pending;\n  }\n}\n\nfunction withdrawGains() public\n{\n  require(gains[msg.sender]> 0);\n  uint MyGains = gains[msg.sender];\n  gains[msg.sender] = 0;\n  msg.sender.transfer(MyGains);\n}\n\nfunction getPrixLottery() public view returns (uint)\n{\n  return PRICE_LOTTERY_TOKEN;\n}\n\nfunction getTicketsLeft() public view returns (uint)\n{\n  return NB_TICKETS;\n}\n\nfunction getEndGame() public view returns (uint)\n{\n  return blockEnd;\n}\n\nfunction getSuperCagnotte() public view returns (uint)\n{\n  return LOTTERY_CAGNOTTE;\n}\n\nfunction getBlockStop() public view returns (uint)\n{\n  if (state == LotteryState.Pending)\n  {\n  return 0;\n  }\n  else return blockEnd - blockStop;\n\n}\n\nfunction modifierBlockStop(uint _stop) public onlyOwner\n{\n  blockStop = _stop;\n}\n\nfunction getNumCagnotte() public view returns (uint)\n{\n  return lastResult.numCagnotte;\n}\n\nfunction modifierPoolEnd(uint _pool) public onlyOwner\n{\n  POOL_ENDGAME = _pool;\n}\n\nfunction getPoolEnd() public onlyOwner view returns (uint)\n{\n  return POOL_ENDGAME;\n}\n\nfunction getCagnotte() public view returns (uint)\n{\n  return lastResult.cagnotte;\n}\n\nfunction getBlock() public view returns (uint)\n{\n  return block.number;\n}\n\nfunction getGains() public view returns (uint)\n{\n  return gains[msg.sender];\n}\n\nfunction getSolde() public view returns (uint)\n{\n  return balanceOf(msg.sender);\n}\n\nfunction getNbGagnants() public view returns (uint)\n{\n  return lastResult.nbGagnants;\n}\n\n}\n",
  "sourcePath": "/Users/germaindacunha/Desktop/dossier sans titre/1/election_react-master/contracts/Lottery.sol",
  "compiler": {
    "name": "solc",
    "version": "0.5.0+commit.1d4f565a.Emscripten.clang"
  },
  "schemaVersion": "3.0.9",
  "updatedAt": "2019-05-15T08:32:08.692Z",
  "devdoc": {
    "methods": {
      "allowance(address,address)": {
        "details": "Function to check the amount of tokens that an owner allowed to a spender.",
        "params": {
          "owner": "address The address which owns the funds.",
          "spender": "address The address which will spend the funds."
        },
        "return": "A uint256 specifying the amount of tokens still available for the spender."
      },
      "approve(address,uint256)": {
        "details": "Approve the passed address to spend the specified amount of tokens on behalf of msg.sender. Beware that changing an allowance with this method brings the risk that someone may use both the old and the new allowance by unfortunate transaction ordering. One possible solution to mitigate this race condition is to first reduce the spender's allowance to 0 and set the desired value afterwards: https://github.com/ethereum/EIPs/issues/20#issuecomment-263524729",
        "params": {
          "spender": "The address which will spend the funds.",
          "value": "The amount of tokens to be spent."
        }
      },
      "balanceOf(address)": {
        "details": "Gets the balance of the specified address.",
        "params": {
          "owner": "The address to query the balance of."
        },
        "return": "A uint256 representing the amount owned by the passed address."
      },
      "decreaseAllowance(address,uint256)": {
        "details": "Decrease the amount of tokens that an owner allowed to a spender. approve should be called when _allowed[msg.sender][spender] == 0. To decrement allowed value is better to use this function to avoid 2 calls (and wait until the first transaction is mined) From MonolithDAO Token.sol Emits an Approval event.",
        "params": {
          "spender": "The address which will spend the funds.",
          "subtractedValue": "The amount of tokens to decrease the allowance by."
        }
      },
      "increaseAllowance(address,uint256)": {
        "details": "Increase the amount of tokens that an owner allowed to a spender. approve should be called when _allowed[msg.sender][spender] == 0. To increment allowed value is better to use this function to avoid 2 calls (and wait until the first transaction is mined) From MonolithDAO Token.sol Emits an Approval event.",
        "params": {
          "addedValue": "The amount of tokens to increase the allowance by.",
          "spender": "The address which will spend the funds."
        }
      },
      "totalSupply()": {
        "details": "Total number of tokens in existence"
      },
      "transfer(address,uint256)": {
        "details": "Transfer token to a specified address",
        "params": {
          "to": "The address to transfer to.",
          "value": "The amount to be transferred."
        }
      },
      "transferFrom(address,address,uint256)": {
        "details": "Transfer tokens from one address to another. Note that while this function emits an Approval event, this is not required as per the specification, and other compliant implementations may not emit the event.",
        "params": {
          "from": "address The address which you want to send tokens from",
          "to": "address The address which you want to transfer to",
          "value": "uint256 the amount of tokens to be transferred"
        }
      },
      "transferOwnership(address)": {
        "details": "Allows the current owner to transfer control of the contract to a newOwner.",
        "params": {
          "newOwner": "The address to transfer ownership to."
        }
      }
    }
  },
  "userdoc": {
    "methods": {}
  }
}