{
  "contractName": "Epinglage",
  "abi": [
    {
      "anonymous": false,
      "inputs": [
        {
          "indexed": false,
          "name": "pin",
          "type": "bytes32"
        }
      ],
      "name": "Epingler",
      "type": "event"
    },
    {
      "constant": false,
      "inputs": [
        {
          "name": "pinUrl",
          "type": "bytes32"
        }
      ],
      "name": "payerStockage",
      "outputs": [],
      "payable": true,
      "stateMutability": "payable",
      "type": "function"
    }
  ],
  "bytecode": "0x608060405234801561001057600080fd5b50610117806100206000396000f3fe608060405260043610603f576000357c0100000000000000000000000000000000000000000000000000000000900463ffffffff16806350948991146044575b600080fd5b606d60048036036020811015605857600080fd5b8101908080359060200190929190505050606f565b005b67016345785d8a00003410151515608557600080fd5b60008190806001815401808255809150509060018203906000526020600020016000909192909190915055507f6109b647e024a0cbbf81a060f954ee6d88729bb9bc246702c7c8d6b71979bf9e816040518082815260200191505060405180910390a15056fea165627a7a72305820a96924aaad48628215471673e8b96a7d81931ecc84c99eafdf15419c2e84c8430029",
  "source": "pragma solidity ^0.5.0;\n\ncontract Epinglage{\n\tevent Epingler(bytes32 pin);\n\tbytes32[] listePin;\n\n\tfunction payerStockage(bytes32 pinUrl)public payable {\n\t \trequire(msg.value  >= 100 finney);\n\t \tlistePin.push(pinUrl);\n\t\temit Epingler(pinUrl);\n\t}\n}\n",
  "sourcePath": "/Users/germaindacunha/Desktop/Alyra/semaine5/defi3/truffle/contracts/epinglage.sol",
  "compiler": {
    "name": "solc",
    "version": "0.5.0+commit.1d4f565a.Emscripten.clang"
  },
  "schemaVersion": "3.0.2",
  "updatedAt": "2019-02-19T14:53:27.295Z",
  "devdoc": {
    "methods": {}
  },
  "userdoc": {
    "methods": {}
  }
}