{
  "contractName": "Lottery",
  "abi": [
    {
      "constant": true,
      "inputs": [
        {
          "name": "_pseudo",
          "type": "string"
        }
      ],
      "name": "getAddresse",
      "outputs": [
        {
          "name": "",
          "type": "address"
        }
      ],
      "payable": false,
      "stateMutability": "view",
      "type": "function"
    },
    {
      "constant": true,
      "inputs": [],
      "name": "name",
      "outputs": [
        {
          "name": "",
          "type": "string"
        }
      ],
      "payable": false,
      "stateMutability": "view",
      "type": "function"
    },
    {
      "constant": false,
      "inputs": [
        {
          "name": "spender",
          "type": "address"
        },
        {
          "name": "value",
          "type": "uint256"
        }
      ],
      "name": "approve",
      "outputs": [
        {
          "name": "",
          "type": "bool"
        }
      ],
      "payable": false,
      "stateMutability": "nonpayable",
      "type": "function"
    },
    {
      "constant": false,
      "inputs": [
        {
          "name": "_priceGroup",
          "type": "uint256"
        }
      ],
      "name": "modifierPriceGroup",
      "outputs": [],
      "payable": false,
      "stateMutability": "nonpayable",
      "type": "function"
    },
    {
      "constant": true,
      "inputs": [],
      "name": "totalSupply",
      "outputs": [
        {
          "name": "",
          "type": "uint256"
        }
      ],
      "payable": false,
      "stateMutability": "view",
      "type": "function"
    },
    {
      "constant": true,
      "inputs": [],
      "name": "getGroupesPerAddress",
      "outputs": [
        {
          "name": "",
          "type": "uint256[]"
        }
      ],
      "payable": false,
      "stateMutability": "view",
      "type": "function"
    },
    {
      "constant": true,
      "inputs": [
        {
          "name": "_groupe",
          "type": "string"
        }
      ],
      "name": "getPseudoInGroup",
      "outputs": [
        {
          "name": "",
          "type": "string"
        }
      ],
      "payable": false,
      "stateMutability": "view",
      "type": "function"
    },
    {
      "constant": false,
      "inputs": [
        {
          "name": "from",
          "type": "address"
        },
        {
          "name": "to",
          "type": "address"
        },
        {
          "name": "value",
          "type": "uint256"
        }
      ],
      "name": "transferFrom",
      "outputs": [
        {
          "name": "",
          "type": "bool"
        }
      ],
      "payable": false,
      "stateMutability": "nonpayable",
      "type": "function"
    },
    {
      "constant": false,
      "inputs": [
        {
          "name": "_montant",
          "type": "uint256"
        },
        {
          "name": "_pseudo",
          "type": "string"
        },
        {
          "name": "_contratCible",
          "type": "address"
        },
        {
          "name": "_description",
          "type": "string"
        }
      ],
      "name": "demander",
      "outputs": [],
      "payable": true,
      "stateMutability": "payable",
      "type": "function"
    },
    {
      "constant": true,
      "inputs": [
        {
          "name": "_groupe",
          "type": "string"
        }
      ],
      "name": "getMembres",
      "outputs": [
        {
          "name": "",
          "type": "uint256[]"
        }
      ],
      "payable": false,
      "stateMutability": "view",
      "type": "function"
    },
    {
      "constant": true,
      "inputs": [
        {
          "name": "_pseudo",
          "type": "string"
        }
      ],
      "name": "getDonnations",
      "outputs": [
        {
          "name": "",
          "type": "uint256"
        }
      ],
      "payable": false,
      "stateMutability": "view",
      "type": "function"
    },
    {
      "constant": true,
      "inputs": [],
      "name": "decimals",
      "outputs": [
        {
          "name": "",
          "type": "uint32"
        }
      ],
      "payable": false,
      "stateMutability": "view",
      "type": "function"
    },
    {
      "constant": false,
      "inputs": [
        {
          "name": "_priceChannel",
          "type": "uint256"
        }
      ],
      "name": "modifierPriceChannel",
      "outputs": [],
      "payable": false,
      "stateMutability": "nonpayable",
      "type": "function"
    },
    {
      "constant": false,
      "inputs": [
        {
          "name": "spender",
          "type": "address"
        },
        {
          "name": "addedValue",
          "type": "uint256"
        }
      ],
      "name": "increaseAllowance",
      "outputs": [
        {
          "name": "",
          "type": "bool"
        }
      ],
      "payable": false,
      "stateMutability": "nonpayable",
      "type": "function"
    },
    {
      "constant": true,
      "inputs": [
        {
          "name": "_ID",
          "type": "uint256"
        }
      ],
      "name": "getNomGroupe",
      "outputs": [
        {
          "name": "",
          "type": "string"
        }
      ],
      "payable": false,
      "stateMutability": "view",
      "type": "function"
    },
    {
      "constant": true,
      "inputs": [
        {
          "name": "_pseudo",
          "type": "string"
        }
      ],
      "name": "getDescription",
      "outputs": [
        {
          "name": "",
          "type": "string"
        }
      ],
      "payable": false,
      "stateMutability": "view",
      "type": "function"
    },
    {
      "constant": true,
      "inputs": [
        {
          "name": "_ID",
          "type": "uint256"
        }
      ],
      "name": "getNomMembre",
      "outputs": [
        {
          "name": "",
          "type": "string"
        }
      ],
      "payable": false,
      "stateMutability": "view",
      "type": "function"
    },
    {
      "constant": true,
      "inputs": [],
      "name": "getPriceChannel",
      "outputs": [
        {
          "name": "",
          "type": "uint256"
        }
      ],
      "payable": false,
      "stateMutability": "view",
      "type": "function"
    },
    {
      "constant": false,
      "inputs": [
        {
          "name": "_pseudo",
          "type": "string"
        }
      ],
      "name": "fermetureCanal",
      "outputs": [],
      "payable": false,
      "stateMutability": "nonpayable",
      "type": "function"
    },
    {
      "constant": false,
      "inputs": [
        {
          "name": "_priceRatio",
          "type": "uint256"
        }
      ],
      "name": "modifierCharges",
      "outputs": [],
      "payable": false,
      "stateMutability": "nonpayable",
      "type": "function"
    },
    {
      "constant": true,
      "inputs": [
        {
          "name": "_pseudo",
          "type": "string"
        }
      ],
      "name": "getReceptions",
      "outputs": [
        {
          "name": "",
          "type": "uint256"
        }
      ],
      "payable": false,
      "stateMutability": "view",
      "type": "function"
    },
    {
      "constant": false,
      "inputs": [
        {
          "name": "_priceMember",
          "type": "uint256"
        }
      ],
      "name": "modifierPriceMember",
      "outputs": [],
      "payable": false,
      "stateMutability": "nonpayable",
      "type": "function"
    },
    {
      "constant": false,
      "inputs": [
        {
          "name": "_pseudo",
          "type": "string"
        }
      ],
      "name": "payerCanal",
      "outputs": [],
      "payable": true,
      "stateMutability": "payable",
      "type": "function"
    },
    {
      "constant": true,
      "inputs": [],
      "name": "getPriceMember",
      "outputs": [
        {
          "name": "",
          "type": "uint256"
        }
      ],
      "payable": false,
      "stateMutability": "view",
      "type": "function"
    },
    {
      "constant": true,
      "inputs": [
        {
          "name": "owner",
          "type": "address"
        }
      ],
      "name": "balanceOf",
      "outputs": [
        {
          "name": "",
          "type": "uint256"
        }
      ],
      "payable": false,
      "stateMutability": "view",
      "type": "function"
    },
    {
      "constant": true,
      "inputs": [
        {
          "name": "_pseudo",
          "type": "string"
        }
      ],
      "name": "getGroupe",
      "outputs": [
        {
          "name": "",
          "type": "string"
        }
      ],
      "payable": false,
      "stateMutability": "view",
      "type": "function"
    },
    {
      "constant": true,
      "inputs": [],
      "name": "owner",
      "outputs": [
        {
          "name": "",
          "type": "address"
        }
      ],
      "payable": false,
      "stateMutability": "view",
      "type": "function"
    },
    {
      "constant": false,
      "inputs": [
        {
          "name": "_membre",
          "type": "address"
        },
        {
          "name": "_groupe",
          "type": "string"
        },
        {
          "name": "_pseudo",
          "type": "string"
        }
      ],
      "name": "ajouterMembre",
      "outputs": [],
      "payable": true,
      "stateMutability": "payable",
      "type": "function"
    },
    {
      "constant": true,
      "inputs": [],
      "name": "symbol",
      "outputs": [
        {
          "name": "",
          "type": "string"
        }
      ],
      "payable": false,
      "stateMutability": "view",
      "type": "function"
    },
    {
      "constant": true,
      "inputs": [
        {
          "name": "_pseudo",
          "type": "string"
        }
      ],
      "name": "getEncours",
      "outputs": [
        {
          "name": "",
          "type": "uint256"
        }
      ],
      "payable": false,
      "stateMutability": "view",
      "type": "function"
    },
    {
      "constant": false,
      "inputs": [
        {
          "name": "spender",
          "type": "address"
        },
        {
          "name": "subtractedValue",
          "type": "uint256"
        }
      ],
      "name": "decreaseAllowance",
      "outputs": [
        {
          "name": "",
          "type": "bool"
        }
      ],
      "payable": false,
      "stateMutability": "nonpayable",
      "type": "function"
    },
    {
      "constant": false,
      "inputs": [
        {
          "name": "to",
          "type": "address"
        },
        {
          "name": "value",
          "type": "uint256"
        }
      ],
      "name": "transfer",
      "outputs": [
        {
          "name": "",
          "type": "bool"
        }
      ],
      "payable": false,
      "stateMutability": "nonpayable",
      "type": "function"
    },
    {
      "constant": false,
      "inputs": [
        {
          "name": "_maxAmount",
          "type": "uint256"
        }
      ],
      "name": "modifierMaxAmount",
      "outputs": [],
      "payable": false,
      "stateMutability": "nonpayable",
      "type": "function"
    },
    {
      "constant": true,
      "inputs": [
        {
          "name": "_pseudo",
          "type": "string"
        }
      ],
      "name": "getMontant",
      "outputs": [
        {
          "name": "",
          "type": "uint256"
        }
      ],
      "payable": false,
      "stateMutability": "view",
      "type": "function"
    },
    {
      "constant": true,
      "inputs": [
        {
          "name": "owner",
          "type": "address"
        },
        {
          "name": "spender",
          "type": "address"
        }
      ],
      "name": "allowance",
      "outputs": [
        {
          "name": "",
          "type": "uint256"
        }
      ],
      "payable": false,
      "stateMutability": "view",
      "type": "function"
    },
    {
      "constant": true,
      "inputs": [],
      "name": "getOwnedGroupe",
      "outputs": [
        {
          "name": "",
          "type": "uint256[]"
        }
      ],
      "payable": false,
      "stateMutability": "view",
      "type": "function"
    },
    {
      "constant": true,
      "inputs": [
        {
          "name": "_pseudo",
          "type": "string"
        }
      ],
      "name": "getContratCible",
      "outputs": [
        {
          "name": "",
          "type": "address"
        }
      ],
      "payable": false,
      "stateMutability": "view",
      "type": "function"
    },
    {
      "constant": true,
      "inputs": [],
      "name": "getPriceGroup",
      "outputs": [
        {
          "name": "",
          "type": "uint256"
        }
      ],
      "payable": false,
      "stateMutability": "view",
      "type": "function"
    },
    {
      "constant": false,
      "inputs": [
        {
          "name": "newOwner",
          "type": "address"
        }
      ],
      "name": "transferOwnership",
      "outputs": [],
      "payable": false,
      "stateMutability": "nonpayable",
      "type": "function"
    },
    {
      "constant": false,
      "inputs": [
        {
          "name": "_nom",
          "type": "string"
        },
        {
          "name": "_pseudo",
          "type": "string"
        }
      ],
      "name": "creerGroupe",
      "outputs": [],
      "payable": true,
      "stateMutability": "payable",
      "type": "function"
    },
    {
      "constant": false,
      "inputs": [
        {
          "name": "_minAmount",
          "type": "uint256"
        }
      ],
      "name": "modifierMinAmount",
      "outputs": [],
      "payable": false,
      "stateMutability": "nonpayable",
      "type": "function"
    },
    {
      "inputs": [],
      "payable": false,
      "stateMutability": "nonpayable",
      "type": "constructor"
    },
    {
      "anonymous": false,
      "inputs": [
        {
          "indexed": false,
          "name": "groupe",
          "type": "string"
        },
        {
          "indexed": false,
          "name": "pseudo",
          "type": "string"
        }
      ],
      "name": "nouvelleDemamnde",
      "type": "event"
    },
    {
      "anonymous": false,
      "inputs": [
        {
          "indexed": true,
          "name": "previousOwner",
          "type": "address"
        },
        {
          "indexed": true,
          "name": "newOwner",
          "type": "address"
        }
      ],
      "name": "OwnershipTransferred",
      "type": "event"
    },
    {
      "anonymous": false,
      "inputs": [
        {
          "indexed": true,
          "name": "from",
          "type": "address"
        },
        {
          "indexed": true,
          "name": "to",
          "type": "address"
        },
        {
          "indexed": false,
          "name": "value",
          "type": "uint256"
        }
      ],
      "name": "Transfer",
      "type": "event"
    },
    {
      "anonymous": false,
      "inputs": [
        {
          "indexed": true,
          "name": "owner",
          "type": "address"
        },
        {
          "indexed": true,
          "name": "spender",
          "type": "address"
        },
        {
          "indexed": false,
          "name": "value",
          "type": "uint256"
        }
      ],
      "name": "Approval",
      "type": "event"
    },
    {
      "constant": false,
      "inputs": [
        {
          "name": "_price",
          "type": "uint256"
        },
        {
          "name": "_tickets",
          "type": "uint256"
        },
        {
          "name": "_blockEnd",
          "type": "uint256"
        }
      ],
      "name": "initierLottery",
      "outputs": [],
      "payable": false,
      "stateMutability": "nonpayable",
      "type": "function"
    },
    {
      "constant": false,
      "inputs": [
        {
          "name": "_prediction",
          "type": "uint256"
        },
        {
          "name": "_nbTickets",
          "type": "uint256"
        }
      ],
      "name": "play",
      "outputs": [],
      "payable": false,
      "stateMutability": "nonpayable",
      "type": "function"
    },
    {
      "constant": false,
      "inputs": [],
      "name": "endGame",
      "outputs": [],
      "payable": false,
      "stateMutability": "nonpayable",
      "type": "function"
    },
    {
      "constant": false,
      "inputs": [],
      "name": "soldeGame",
      "outputs": [],
      "payable": false,
      "stateMutability": "nonpayable",
      "type": "function"
    },
    {
      "constant": false,
      "inputs": [],
      "name": "withdrawGains",
      "outputs": [],
      "payable": false,
      "stateMutability": "nonpayable",
      "type": "function"
    },
    {
      "constant": true,
      "inputs": [],
      "name": "getPrixLottery",
      "outputs": [
        {
          "name": "",
          "type": "uint256"
        }
      ],
      "payable": false,
      "stateMutability": "view",
      "type": "function"
    },
    {
      "constant": true,
      "inputs": [],
      "name": "getTicketsLeft",
      "outputs": [
        {
          "name": "",
          "type": "uint256"
        }
      ],
      "payable": false,
      "stateMutability": "view",
      "type": "function"
    },
    {
      "constant": true,
      "inputs": [],
      "name": "getEndGame",
      "outputs": [
        {
          "name": "",
          "type": "uint256"
        }
      ],
      "payable": false,
      "stateMutability": "view",
      "type": "function"
    },
    {
      "constant": true,
      "inputs": [],
      "name": "getSuperCagnotte",
      "outputs": [
        {
          "name": "",
          "type": "uint256"
        }
      ],
      "payable": false,
      "stateMutability": "view",
      "type": "function"
    },
    {
      "constant": true,
      "inputs": [],
      "name": "getBlockStop",
      "outputs": [
        {
          "name": "",
          "type": "uint256"
        }
      ],
      "payable": false,
      "stateMutability": "view",
      "type": "function"
    },
    {
      "constant": false,
      "inputs": [
        {
          "name": "_stop",
          "type": "uint256"
        }
      ],
      "name": "modifierBlockStop",
      "outputs": [],
      "payable": false,
      "stateMutability": "nonpayable",
      "type": "function"
    },
    {
      "constant": true,
      "inputs": [],
      "name": "getNumCagnotte",
      "outputs": [
        {
          "name": "",
          "type": "uint256"
        }
      ],
      "payable": false,
      "stateMutability": "view",
      "type": "function"
    },
    {
      "constant": true,
      "inputs": [],
      "name": "getCagnotte",
      "outputs": [
        {
          "name": "",
          "type": "uint256"
        }
      ],
      "payable": false,
      "stateMutability": "view",
      "type": "function"
    },
    {
      "constant": true,
      "inputs": [],
      "name": "getSolde",
      "outputs": [
        {
          "name": "",
          "type": "uint256"
        }
      ],
      "payable": false,
      "stateMutability": "view",
      "type": "function"
    },
    {
      "constant": true,
      "inputs": [],
      "name": "getNbGagnants",
      "outputs": [
        {
          "name": "",
          "type": "uint256"
        }
      ],
      "payable": false,
      "stateMutability": "view",
      "type": "function"
    }
  ],
  "bytecode": "0x608060405234801561001057600080fd5b5033600360006101000a81548173ffffffffffffffffffffffffffffffffffffffff021916908373ffffffffffffffffffffffffffffffffffffffff160217905550678ac7230489e80000600d8190555062989680600e819055506064600f81905550620186a06010819055506127106011819055506103e86012819055506002601c60006101000a81548160ff021916908360028111156100ae57fe5b0217905550606460188190555061502080620000cb6000396000f3fe60806040526004361061029d576000357c0100000000000000000000000000000000000000000000000000000000900463ffffffff168062afc9e2146102a257806306fdde03146103aa578063095ea7b31461043a5780630bcb257f146104ad5780630bfc2f5b146104d8578063175032661461052757806318160ddd146105625780631b4b26fd1461058d5780631e0afe57146105c85780631e63f293146106345780632055bd081461065f57806323b872dd1461075e578063283a2b46146107f157806329c773471461096d5780632a51becf14610a8a578063313ce56714610b66578063370c29f914610b9d5780633950935114610bd85780634152299714610c4b57806345de2ca014610cff578063483f021914610e405780634b20d5d514610e575780634b7b03cf14610e825780634c95b44814610f365780634dc8872914610f61578063512667061461102957806355e5ae0414611064578063574302641461108f5780635f0935531461116b578063639f8499146111a6578063646f22c51461126157806367cb92db1461128c5780636cbc2ded146112b757806370a08231146112ce5780637aede272146113335780637bc49a951461147457806389760011146114b95780638da5cb5b146114d05780638f3333411461152757806395d89b41146116995780639d05e9ab14611729578063a457c2d714611805578063a9059cbb14611878578063b6e91ae4146118eb578063bcc21cf614611916578063beaf3b0d14611941578063d458be7b1461197c578063d74b10a5146119a7578063dd62ed3e14611a83578063e09c813614611b08578063e7637a7d14611b74578063e971cee414611c7c578063ecb6976814611ca7578063f2fde38b14611cd2578063f4343df414611d23578063f483977214611e75575b600080fd5b3480156102ae57600080fd5b50610368600480360360208110156102c557600080fd5b81019080803590602001906401000000008111156102e257600080fd5b8201836020820111156102f457600080fd5b8035906020019184600183028401116401000000008311171561031657600080fd5b91908080601f016020809104026020016040519081016040528093929190818152602001838380828437600081840152601f19601f820116905080830192505050505050509192919290505050611eb0565b604051808273ffffffffffffffffffffffffffffffffffffffff1673ffffffffffffffffffffffffffffffffffffffff16815260200191505060405180910390f35b3480156103b657600080fd5b506103bf611f5b565b6040518080602001828103825283818151815260200191508051906020019080838360005b838110156103ff5780820151818401526020810190506103e4565b50505050905090810190601f16801561042c5780820380516001836020036101000a031916815260200191505b509250505060405180910390f35b34801561044657600080fd5b506104936004803603604081101561045d57600080fd5b81019080803573ffffffffffffffffffffffffffffffffffffffff16906020019092919080359060200190929190505050611f94565b604051808215151515815260200191505060405180910390f35b3480156104b957600080fd5b506104c2611fab565b6040518082815260200191505060405180910390f35b3480156104e457600080fd5b50610525600480360360608110156104fb57600080fd5b81019080803590602001909291908035906020019092919080359060200190929190505050611fb5565b005b34801561053357600080fd5b506105606004803603602081101561054a57600080fd5b81019080803590602001909291905050506120a4565b005b34801561056e57600080fd5b5061057761210a565b6040518082815260200191505060405180910390f35b34801561059957600080fd5b506105c6600480360360208110156105b057600080fd5b8101908080359060200190929190505050612114565b005b3480156105d457600080fd5b506105dd61217a565b6040518080602001828103825283818151815260200191508051906020019060200280838360005b83811015610620578082015181840152602081019050610605565b505050509050019250505060405180910390f35b34801561064057600080fd5b5061064961220f565b6040518082815260200191505060405180910390f35b34801561066b57600080fd5b506106e36004803603602081101561068257600080fd5b810190808035906020019064010000000081111561069f57600080fd5b8201836020820111156106b157600080fd5b803590602001918460018302840111640100000000831117156106d357600080fd5b9091929391929390505050612219565b6040518080602001828103825283818151815260200191508051906020019080838360005b83811015610723578082015181840152602081019050610708565b50505050905090810190601f1680156107505780820380516001836020036101000a031916815260200191505b509250505060405180910390f35b34801561076a57600080fd5b506107d76004803603606081101561078157600080fd5b81019080803573ffffffffffffffffffffffffffffffffffffffff169060200190929190803573ffffffffffffffffffffffffffffffffffffffff1690602001909291908035906020019092919050505061234a565b604051808215151515815260200191505060405180910390f35b61096b6004803603608081101561080757600080fd5b81019080803590602001909291908035906020019064010000000081111561082e57600080fd5b82018360208201111561084057600080fd5b8035906020019184600183028401116401000000008311171561086257600080fd5b91908080601f016020809104026020016040519081016040528093929190818152602001838380828437600081840152601f19601f820116905080830192505050505050509192919290803573ffffffffffffffffffffffffffffffffffffffff169060200190929190803590602001906401000000008111156108e557600080fd5b8201836020820111156108f757600080fd5b8035906020019184600183028401116401000000008311171561091957600080fd5b91908080601f016020809104026020016040519081016040528093929190818152602001838380828437600081840152601f19601f8201169050808301925050505050505091929192905050506123fb565b005b34801561097957600080fd5b50610a336004803603602081101561099057600080fd5b81019080803590602001906401000000008111156109ad57600080fd5b8201836020820111156109bf57600080fd5b803590602001918460018302840111640100000000831117156109e157600080fd5b91908080601f016020809104026020016040519081016040528093929190818152602001838380828437600081840152601f19601f8201169050808301925050505050505091929192905050506126ad565b6040518080602001828103825283818151815260200191508051906020019060200280838360005b83811015610a76578082015181840152602081019050610a5b565b505050509050019250505060405180910390f35b348015610a9657600080fd5b50610b5060048036036020811015610aad57600080fd5b8101908080359060200190640100000000811115610aca57600080fd5b820183602082011115610adc57600080fd5b80359060200191846001830284011164010000000083111715610afe57600080fd5b91908080601f016020809104026020016040519081016040528093929190818152602001838380828437600081840152601f19601f820116905080830192505050505050509192919290505050612770565b6040518082815260200191505060405180910390f35b348015610b7257600080fd5b50610b7b612837565b604051808263ffffffff1663ffffffff16815260200191505060405180910390f35b348015610ba957600080fd5b50610bd660048036036020811015610bc057600080fd5b810190808035906020019092919050505061283c565b005b348015610be457600080fd5b50610c3160048036036040811015610bfb57600080fd5b81019080803573ffffffffffffffffffffffffffffffffffffffff169060200190929190803590602001909291905050506128a2565b604051808215151515815260200191505060405180910390f35b348015610c5757600080fd5b50610c8460048036036020811015610c6e57600080fd5b8101908080359060200190929190505050612947565b6040518080602001828103825283818151815260200191508051906020019080838360005b83811015610cc4578082015181840152602081019050610ca9565b50505050905090810190601f168015610cf15780820380516001836020036101000a031916815260200191505b509250505060405180910390f35b348015610d0b57600080fd5b50610dc560048036036020811015610d2257600080fd5b8101908080359060200190640100000000811115610d3f57600080fd5b820183602082011115610d5157600080fd5b80359060200191846001830284011164010000000083111715610d7357600080fd5b91908080601f016020809104026020016040519081016040528093929190818152602001838380828437600081840152601f19601f8201169050808301925050505050505091929192905050506129fc565b6040518080602001828103825283818151815260200191508051906020019080838360005b83811015610e05578082015181840152602081019050610dea565b50505050905090810190601f168015610e325780820380516001836020036101000a031916815260200191505b509250505060405180910390f35b348015610e4c57600080fd5b50610e55612b1f565b005b348015610e6357600080fd5b50610e6c612bf2565b6040518082815260200191505060405180910390f35b348015610e8e57600080fd5b50610ebb60048036036020811015610ea557600080fd5b8101908080359060200190929190505050612bff565b6040518080602001828103825283818151815260200191508051906020019080838360005b83811015610efb578082015181840152602081019050610ee0565b50505050905090810190601f168015610f285780820380516001836020036101000a031916815260200191505b509250505060405180910390f35b348015610f4257600080fd5b50610f4b612cb7565b6040518082815260200191505060405180910390f35b348015610f6d57600080fd5b5061102760048036036020811015610f8457600080fd5b8101908080359060200190640100000000811115610fa157600080fd5b820183602082011115610fb357600080fd5b80359060200191846001830284011164010000000083111715610fd557600080fd5b91908080601f016020809104026020016040519081016040528093929190818152602001838380828437600081840152601f19601f820116905080830192505050505050509192919290505050612cc1565b005b34801561103557600080fd5b506110626004803603602081101561104c57600080fd5b8101908080359060200190929190505050612e91565b005b34801561107057600080fd5b50611079612ef7565b6040518082815260200191505060405180910390f35b34801561109b57600080fd5b50611155600480360360208110156110b257600080fd5b81019080803590602001906401000000008111156110cf57600080fd5b8201836020820111156110e157600080fd5b8035906020019184600183028401116401000000008311171561110357600080fd5b91908080601f016020809104026020016040519081016040528093929190818152602001838380828437600081840152601f19601f820116905080830192505050505050509192919290505050612f07565b6040518082815260200191505060405180910390f35b34801561117757600080fd5b506111a46004803603602081101561118e57600080fd5b8101908080359060200190929190505050612fce565b005b61125f600480360360208110156111bc57600080fd5b81019080803590602001906401000000008111156111d957600080fd5b8201836020820111156111eb57600080fd5b8035906020019184600183028401116401000000008311171561120d57600080fd5b91908080601f016020809104026020016040519081016040528093929190818152602001838380828437600081840152601f19601f820116905080830192505050505050509192919290505050613034565b005b34801561126d57600080fd5b506112766131ea565b6040518082815260200191505060405180910390f35b34801561129857600080fd5b506112a16131f4565b6040518082815260200191505060405180910390f35b3480156112c357600080fd5b506112cc6131fe565b005b3480156112da57600080fd5b5061131d600480360360208110156112f157600080fd5b81019080803573ffffffffffffffffffffffffffffffffffffffff1690602001909291905050506135e1565b6040518082815260200191505060405180910390f35b34801561133f57600080fd5b506113f96004803603602081101561135657600080fd5b810190808035906020019064010000000081111561137357600080fd5b82018360208201111561138557600080fd5b803590602001918460018302840111640100000000831117156113a757600080fd5b91908080601f016020809104026020016040519081016040528093929190818152602001838380828437600081840152601f19601f820116905080830192505050505050509192919290505050613629565b6040518080602001828103825283818151815260200191508051906020019080838360005b8381101561143957808201518184015260208101905061141e565b50505050905090810190601f1680156114665780820380516001836020036101000a031916815260200191505b509250505060405180910390f35b34801561148057600080fd5b506114b76004803603604081101561149757600080fd5b81019080803590602001909291908035906020019092919050505061374c565b005b3480156114c557600080fd5b506114ce6138ef565b005b3480156114dc57600080fd5b506114e5613ac7565b604051808273ffffffffffffffffffffffffffffffffffffffff1673ffffffffffffffffffffffffffffffffffffffff16815260200191505060405180910390f35b6116976004803603606081101561153d57600080fd5b81019080803573ffffffffffffffffffffffffffffffffffffffff1690602001909291908035906020019064010000000081111561157a57600080fd5b82018360208201111561158c57600080fd5b803590602001918460018302840111640100000000831117156115ae57600080fd5b91908080601f016020809104026020016040519081016040528093929190818152602001838380828437600081840152601f19601f8201169050808301925050505050505091929192908035906020019064010000000081111561161157600080fd5b82018360208201111561162357600080fd5b8035906020019184600183028401116401000000008311171561164557600080fd5b91908080601f016020809104026020016040519081016040528093929190818152602001838380828437600081840152601f19601f820116905080830192505050505050509192919290505050613aed565b005b3480156116a557600080fd5b506116ae613d24565b6040518080602001828103825283818151815260200191508051906020019080838360005b838110156116ee5780820151818401526020810190506116d3565b50505050905090810190601f16801561171b5780820380516001836020036101000a031916815260200191505b509250505060405180910390f35b34801561173557600080fd5b506117ef6004803603602081101561174c57600080fd5b810190808035906020019064010000000081111561176957600080fd5b82018360208201111561177b57600080fd5b8035906020019184600183028401116401000000008311171561179d57600080fd5b91908080601f016020809104026020016040519081016040528093929190818152602001838380828437600081840152601f19601f820116905080830192505050505050509192919290505050613d5d565b6040518082815260200191505060405180910390f35b34801561181157600080fd5b5061185e6004803603604081101561182857600080fd5b81019080803573ffffffffffffffffffffffffffffffffffffffff16906020019092919080359060200190929190505050613de8565b604051808215151515815260200191505060405180910390f35b34801561188457600080fd5b506118d16004803603604081101561189b57600080fd5b81019080803573ffffffffffffffffffffffffffffffffffffffff16906020019092919080359060200190929190505050613e8d565b604051808215151515815260200191505060405180910390f35b3480156118f757600080fd5b50611900613ea4565b6040518082815260200191505060405180910390f35b34801561192257600080fd5b5061192b613eae565b6040518082815260200191505060405180910390f35b34801561194d57600080fd5b5061197a6004803603602081101561196457600080fd5b8101908080359060200190929190505050613ef3565b005b34801561198857600080fd5b50611991613f59565b6040518082815260200191505060405180910390f35b3480156119b357600080fd5b50611a6d600480360360208110156119ca57600080fd5b81019080803590602001906401000000008111156119e757600080fd5b8201836020820111156119f957600080fd5b80359060200191846001830284011164010000000083111715611a1b57600080fd5b91908080601f016020809104026020016040519081016040528093929190818152602001838380828437600081840152601f19601f820116905080830192505050505050509192919290505050613f66565b6040518082815260200191505060405180910390f35b348015611a8f57600080fd5b50611af260048036036040811015611aa657600080fd5b81019080803573ffffffffffffffffffffffffffffffffffffffff169060200190929190803573ffffffffffffffffffffffffffffffffffffffff169060200190929190505050613ff1565b6040518082815260200191505060405180910390f35b348015611b1457600080fd5b50611b1d614078565b6040518080602001828103825283818151815260200191508051906020019060200280838360005b83811015611b60578082015181840152602081019050611b45565b505050509050019250505060405180910390f35b348015611b8057600080fd5b50611c3a60048036036020811015611b9757600080fd5b8101908080359060200190640100000000811115611bb457600080fd5b820183602082011115611bc657600080fd5b80359060200191846001830284011164010000000083111715611be857600080fd5b91908080601f016020809104026020016040519081016040528093929190818152602001838380828437600081840152601f19601f82011690508083019250505050505050919291929050505061410d565b604051808273ffffffffffffffffffffffffffffffffffffffff1673ffffffffffffffffffffffffffffffffffffffff16815260200191505060405180910390f35b348015611c8857600080fd5b50611c916141b8565b6040518082815260200191505060405180910390f35b348015611cb357600080fd5b50611cbc6141c2565b6040518082815260200191505060405180910390f35b348015611cde57600080fd5b50611d2160048036036020811015611cf557600080fd5b81019080803573ffffffffffffffffffffffffffffffffffffffff1690602001909291905050506141cf565b005b611e7360048036036040811015611d3957600080fd5b8101908080359060200190640100000000811115611d5657600080fd5b820183602082011115611d6857600080fd5b80359060200191846001830284011164010000000083111715611d8a57600080fd5b91908080601f016020809104026020016040519081016040528093929190818152602001838380828437600081840152601f19601f82011690508083019250505050505050919291929080359060200190640100000000811115611ded57600080fd5b820183602082011115611dff57600080fd5b80359060200191846001830284011164010000000083111715611e2157600080fd5b91908080601f016020809104026020016040519081016040528093929190818152602001838380828437600081840152601f19601f820116905080830192505050505050509192919290505050614327565b005b348015611e8157600080fd5b50611eae60048036036020811015611e9857600080fd5b8101908080359060200190929190505050614630565b005b600060046000600a846040518082805190602001908083835b602083101515611eee5780518252602082019150602081019050602083039250611ec9565b6001836020036101000a038019825116818451168082178552505050505050905001915050908152602001604051809103902054815260200190815260200160002060000160009054906101000a900473ffffffffffffffffffffffffffffffffffffffff169050919050565b6040805190810160405280600981526020017f636f696e756e696f6e000000000000000000000000000000000000000000000081525081565b6000611fa1338484614696565b6001905092915050565b6000601954905090565b600360009054906101000a900473ffffffffffffffffffffffffffffffffffffffff1673ffffffffffffffffffffffffffffffffffffffff163373ffffffffffffffffffffffffffffffffffffffff1614151561201157600080fd5b601854601954034310151561202557600080fd5b60028081111561203157fe5b601c60009054906101000a900460ff16600281111561204c57fe5b14151561205857600080fd5b804310151561206657600080fd5b8060198190555081601b8190555082601a819055506000601c60006101000a81548160ff0219169083600281111561209a57fe5b0217905550505050565b600360009054906101000a900473ffffffffffffffffffffffffffffffffffffffff1673ffffffffffffffffffffffffffffffffffffffff163373ffffffffffffffffffffffffffffffffffffffff1614151561210057600080fd5b8060108190555050565b6000600254905090565b600360009054906101000a900473ffffffffffffffffffffffffffffffffffffffff1673ffffffffffffffffffffffffffffffffffffffff163373ffffffffffffffffffffffffffffffffffffffff1614151561217057600080fd5b8060188190555050565b6060600560003373ffffffffffffffffffffffffffffffffffffffff1673ffffffffffffffffffffffffffffffffffffffff16815260200190815260200160002080548060200260200160405190810160405280929190818152602001828054801561220557602002820191906000526020600020905b8154815260200190600101908083116121f1575b5050505050905090565b6000601354905090565b606060008383604051808383808284378083019250505092505050604051809103902060019004905060046000600b600084815260200190815260200160002060003373ffffffffffffffffffffffffffffffffffffffff1673ffffffffffffffffffffffffffffffffffffffff1681526020019081526020016000205481526020019081526020016000206001018054600181600116156101000203166002900480601f01602080910402602001604051908101604052809291908181526020018280546001816001161561010002031660029004801561233c5780601f106123115761010080835404028352916020019161233c565b820191906000526020600020905b81548152906001019060200180831161231f57829003601f168201915b505050505091505092915050565b60006123578484846147f9565b6123f084336123eb85600160008a73ffffffffffffffffffffffffffffffffffffffff1673ffffffffffffffffffffffffffffffffffffffff16815260200190815260200160002060003373ffffffffffffffffffffffffffffffffffffffff1673ffffffffffffffffffffffffffffffffffffffff168152602001908152602001600020546149c590919063ffffffff16565b614696565b600190509392505050565b6012543414151561240b57600080fd5b600e548411151561241b57600080fd5b600d548410151561242b57600080fd5b600083805190602001206001900490503373ffffffffffffffffffffffffffffffffffffffff166004600083815260200190815260200160002060000160009054906101000a900473ffffffffffffffffffffffffffffffffffffffff1673ffffffffffffffffffffffffffffffffffffffff161415156124ab57600080fd5b600060046000838152602001908152602001600020600301541415156124d057600080fd5b846004600083815260200190815260200160002060030181905550826004600083815260200190815260200160002060050160006101000a81548173ffffffffffffffffffffffffffffffffffffffff021916908373ffffffffffffffffffffffffffffffffffffffff1602179055508160046000838152602001908152602001600020600601908051906020019061256a929190614f4f565b507fdc9d3a39aef8f13151f130d0bb7d4d7b099f9ac3fc92b57e3811a478eaf81b5960046000838152602001908152602001600020600201856040518080602001806020018381038352858181546001816001161561010002031660029004815260200191508054600181600116156101000203166002900480156126305780601f1061260557610100808354040283529160200191612630565b820191906000526020600020905b81548152906001019060200180831161261357829003601f168201915b5050838103825284818151815260200191508051906020019080838360005b8381101561266a57808201518184015260208101905061264f565b50505050905090810190601f1680156126975780820380516001836020036101000a031916815260200191505b5094505050505060405180910390a15050505050565b60606006826040518082805190602001908083835b6020831015156126e757805182526020820191506020810190506020830392506126c2565b6001836020036101000a038019825116818451168082178552505050505050905001915050908152602001604051809103902080548060200260200160405190810160405280929190818152602001828054801561276457602002820191906000526020600020905b815481526020019060010190808311612750575b50505050509050919050565b6000600c60003373ffffffffffffffffffffffffffffffffffffffff1673ffffffffffffffffffffffffffffffffffffffff168152602001908152602001600020600060046000858051906020012060019004815260200190815260200160002060000160009054906101000a900473ffffffffffffffffffffffffffffffffffffffff1673ffffffffffffffffffffffffffffffffffffffff1673ffffffffffffffffffffffffffffffffffffffff168152602001908152602001600020549050919050565b601281565b600360009054906101000a900473ffffffffffffffffffffffffffffffffffffffff1673ffffffffffffffffffffffffffffffffffffffff163373ffffffffffffffffffffffffffffffffffffffff1614151561289857600080fd5b8060128190555050565b600061293d338461293885600160003373ffffffffffffffffffffffffffffffffffffffff1673ffffffffffffffffffffffffffffffffffffffff16815260200190815260200160002060008973ffffffffffffffffffffffffffffffffffffffff1673ffffffffffffffffffffffffffffffffffffffff168152602001908152602001600020546149de90919063ffffffff16565b614696565b6001905092915050565b6060600760008381526020019081526020016000208054600181600116156101000203166002900480601f0160208091040260200160405190810160405280929190818152602001828054600181600116156101000203166002900480156129f05780601f106129c5576101008083540402835291602001916129f0565b820191906000526020600020905b8154815290600101906020018083116129d357829003601f168201915b50505050509050919050565b606060046000600a846040518082805190602001908083835b602083101515612a3a5780518252602082019150602081019050602083039250612a15565b6001836020036101000a03801982511681845116808217855250505050505090500191505090815260200160405180910390205481526020019081526020016000206006018054600181600116156101000203166002900480601f016020809104026020016040519081016040528092919081815260200182805460018160011615610100020316600290048015612b135780601f10612ae857610100808354040283529160200191612b13565b820191906000526020600020905b815481529060010190602001808311612af657829003601f168201915b50505050509050919050565b6000601560003373ffffffffffffffffffffffffffffffffffffffff1673ffffffffffffffffffffffffffffffffffffffff1681526020019081526020016000205490506000601560003373ffffffffffffffffffffffffffffffffffffffff1673ffffffffffffffffffffffffffffffffffffffff168152602001908152602001600020819055503373ffffffffffffffffffffffffffffffffffffffff166108fc829081150290604051600060405180830381858888f19350505050158015612bee573d6000803e3d6000fd5b5050565b6000601d60010154905090565b6060600460008381526020019081526020016000206001018054600181600116156101000203166002900480601f016020809104026020016040519081016040528092919081815260200182805460018160011615610100020316600290048015612cab5780601f10612c8057610100808354040283529160200191612cab565b820191906000526020600020905b815481529060010190602001808311612c8e57829003601f168201915b50505050509050919050565b6000601254905090565b600081805190602001206001900490506000600460008381526020019081526020016000206003015414151515612cf757600080fd5b3373ffffffffffffffffffffffffffffffffffffffff166004600083815260200190815260200160002060000160009054906101000a900473ffffffffffffffffffffffffffffffffffffffff1673ffffffffffffffffffffffffffffffffffffffff16141515612d6757600080fd5b3373ffffffffffffffffffffffffffffffffffffffff166108fc60046000848152602001908152602001600020600401549081150290604051600060405180830381858888f19350505050158015612dc3573d6000803e3d6000fd5b50600060046000838152602001908152602001600020600401819055506000600460008381526020019081526020016000206003018190555060006004600083815260200190815260200160002060050160006101000a81548173ffffffffffffffffffffffffffffffffffffffff021916908373ffffffffffffffffffffffffffffffffffffffff1602179055506020604051908101604052806000815250600460008381526020019081526020016000206006019080519060200190612e8c929190614f4f565b505050565b600360009054906101000a900473ffffffffffffffffffffffffffffffffffffffff1673ffffffffffffffffffffffffffffffffffffffff163373ffffffffffffffffffffffffffffffffffffffff16141515612eed57600080fd5b80600f8190555050565b6000612f02336135e1565b905090565b6000600c600060046000858051906020012060019004815260200190815260200160002060000160009054906101000a900473ffffffffffffffffffffffffffffffffffffffff1673ffffffffffffffffffffffffffffffffffffffff1673ffffffffffffffffffffffffffffffffffffffff16815260200190815260200160002060003373ffffffffffffffffffffffffffffffffffffffff1673ffffffffffffffffffffffffffffffffffffffff168152602001908152602001600020549050919050565b600360009054906101000a900473ffffffffffffffffffffffffffffffffffffffff1673ffffffffffffffffffffffffffffffffffffffff163373ffffffffffffffffffffffffffffffffffffffff1614151561302a57600080fd5b8060118190555050565b6012543411151561304457600080fd5b60008180519060200120600190049050600060046000838152602001908152602001600020600301541415151561307a57600080fd5b346004600083815260200190815260200160002060040154600460008481526020019081526020016000206003015403101515156130b757600080fd5b6000600f54348115156130c657fe5b0490506000349050818103905080600460008581526020019081526020016000206004016000828254019250508190555080600c60003373ffffffffffffffffffffffffffffffffffffffff1673ffffffffffffffffffffffffffffffffffffffff16815260200190815260200160002060006004600087815260200190815260200160002060000160009054906101000a900473ffffffffffffffffffffffffffffffffffffffff1673ffffffffffffffffffffffffffffffffffffffff1673ffffffffffffffffffffffffffffffffffffffff168152602001908152602001600020600082825401925050819055506131cb6002836149fc90919063ffffffff16565b6013600082825401925050819055506131e43383614a17565b50505050565b6000601b54905090565b6000601154905090565b600360009054906101000a900473ffffffffffffffffffffffffffffffffffffffff1673ffffffffffffffffffffffffffffffffffffffff163373ffffffffffffffffffffffffffffffffffffffff1614151561325a57600080fd5b6000600281111561326757fe5b601c60009054906101000a900460ff16600281111561328257fe5b14151561328e57600080fd5b6019544311151561329e57600080fd5b60008090505b6016805490508110156135665760008090505b601460006016848154811015156132ca57fe5b9060005260206000200160009054906101000a900473ffffffffffffffffffffffffffffffffffffffff1673ffffffffffffffffffffffffffffffffffffffff1673ffffffffffffffffffffffffffffffffffffffff1681526020019081526020016000208054905081101561351c576013546014600060168581548110151561335057fe5b9060005260206000200160009054906101000a900473ffffffffffffffffffffffffffffffffffffffff1673ffffffffffffffffffffffffffffffffffffffff1673ffffffffffffffffffffffffffffffffffffffff168152602001908152602001600020828154811015156133c257fe5b906000526020600020015414801561346a57506000601460006016858154811015156133ea57fe5b9060005260206000200160009054906101000a900473ffffffffffffffffffffffffffffffffffffffff1673ffffffffffffffffffffffffffffffffffffffff1673ffffffffffffffffffffffffffffffffffffffff1681526020019081526020016000208281548110151561345c57fe5b906000526020600020015414155b1561350f57601760168381548110151561348057fe5b9060005260206000200160009054906101000a900473ffffffffffffffffffffffffffffffffffffffff1690806001815401808255809150509060018203906000526020600020016000909192909190916101000a81548173ffffffffffffffffffffffffffffffffffffffff021916908373ffffffffffffffffffffffffffffffffffffffff160217905550505b80806001019150506132b7565b5060168181548110151561352c57fe5b9060005260206000200160006101000a81549073ffffffffffffffffffffffffffffffffffffffff021916905580806001019150506132a4565b503373ffffffffffffffffffffffffffffffffffffffff166108fc6013549081150290604051600060405180830381858888f193505050501580156135af573d6000803e3d6000fd5b506001601d60000160008282540192505081905550601354601d60010181905550601780549050601d60020181905550565b60008060008373ffffffffffffffffffffffffffffffffffffffff1673ffffffffffffffffffffffffffffffffffffffff168152602001908152602001600020549050919050565b606060046000600a846040518082805190602001908083835b6020831015156136675780518252602082019150602081019050602083039250613642565b6001836020036101000a03801982511681845116808217855250505050505090500191505090815260200160405180910390205481526020019081526020016000206002018054600181600116156101000203166002900480601f0160208091040260200160405190810160405280929190818152602001828054600181600116156101000203166002900480156137405780601f1061371557610100808354040283529160200191613740565b820191906000526020600020905b81548152906001019060200180831161372357829003601f168201915b50505050509050919050565b601854601954034310151561376057600080fd5b6000600281111561376d57fe5b601c60009054906101000a900460ff16600281111561378857fe5b14151561379457600080fd5b600081601b54031115156137a757600080fd5b6137bc601a5482614b6b90919063ffffffff16565b6137c5336135e1565b101515156137d257600080fd5b80601b60008282540392505081905550613800336137fb601a5484614b6b90919063ffffffff16565b614b9e565b60008090505b8181101561388457601460003373ffffffffffffffffffffffffffffffffffffffff1673ffffffffffffffffffffffffffffffffffffffff1681526020019081526020016000208390806001815401808255809150509060018203906000526020600020016000909192909190915055508080600101915050613806565b5060163390806001815401808255809150509060018203906000526020600020016000909192909190916101000a81548173ffffffffffffffffffffffffffffffffffffffff021916908373ffffffffffffffffffffffffffffffffffffffff160217905550505050565b600360009054906101000a900473ffffffffffffffffffffffffffffffffffffffff1673ffffffffffffffffffffffffffffffffffffffff163373ffffffffffffffffffffffffffffffffffffffff1614151561394b57600080fd5b6001600281111561395857fe5b601c60009054906101000a900460ff16600281111561397357fe5b14151561397f57600080fd5b600060178054905011156139ae576139a76017805490506013546149fc90919063ffffffff16565b6013819055505b60008090505b601780549050811015613a9857613a4e601354601560006017858154811015156139da57fe5b9060005260206000200160009054906101000a900473ffffffffffffffffffffffffffffffffffffffff1673ffffffffffffffffffffffffffffffffffffffff1673ffffffffffffffffffffffffffffffffffffffff168152602001908152602001600020546149de90919063ffffffff16565b50601781815481101515613a5e57fe5b9060005260206000200160006101000a81549073ffffffffffffffffffffffffffffffffffffffff021916905580806001019150506139b4565b5060006013819055506002601c60006101000a81548160ff02191690836002811115613ac057fe5b0217905550565b600360009054906101000a900473ffffffffffffffffffffffffffffffffffffffff1681565b34601154141515613afd57600080fd5b60008180519060200120600190049050600073ffffffffffffffffffffffffffffffffffffffff166004600083815260200190815260200160002060000160009054906101000a900473ffffffffffffffffffffffffffffffffffffffff1673ffffffffffffffffffffffffffffffffffffffff16141515613b7e57600080fd5b3373ffffffffffffffffffffffffffffffffffffffff166009846040518082805190602001908083835b602083101515613bcd5780518252602082019150602081019050602083039250613ba8565b6001836020036101000a038019825116818451168082178552505050505050905001915050908152602001604051809103902060009054906101000a900473ffffffffffffffffffffffffffffffffffffffff1673ffffffffffffffffffffffffffffffffffffffff16141515613c4357600080fd5b60008380519060200120600190049050600560008673ffffffffffffffffffffffffffffffffffffffff1673ffffffffffffffffffffffffffffffffffffffff168152602001908152602001600020819080600181540180825580915050906001820390600052602060002001600090919290919091505550336004600084815260200190815260200160002060000160006101000a81548173ffffffffffffffffffffffffffffffffffffffff021916908373ffffffffffffffffffffffffffffffffffffffff160217905550613d1d83858385614c45565b5050505050565b6040805190810160405280600581526020017f554e494f4e00000000000000000000000000000000000000000000000000000081525081565b600060046000600a846040518082805190602001908083835b602083101515613d9b5780518252602082019150602081019050602083039250613d76565b6001836020036101000a0380198251168184511680821785525050505050509050019150509081526020016040518091039020548152602001908152602001600020600401549050919050565b6000613e833384613e7e85600160003373ffffffffffffffffffffffffffffffffffffffff1673ffffffffffffffffffffffffffffffffffffffff16815260200190815260200160002060008973ffffffffffffffffffffffffffffffffffffffff1673ffffffffffffffffffffffffffffffffffffffff168152602001908152602001600020546149c590919063ffffffff16565b614696565b6001905092915050565b6000613e9a3384846147f9565b6001905092915050565b6000601a54905090565b6000600280811115613ebc57fe5b601c60009054906101000a900460ff166002811115613ed757fe5b1415613ee65760009050613ef0565b6018546019540390505b90565b600360009054906101000a900473ffffffffffffffffffffffffffffffffffffffff1673ffffffffffffffffffffffffffffffffffffffff163373ffffffffffffffffffffffffffffffffffffffff16141515613f4f57600080fd5b80600d8190555050565b6000601d60020154905090565b600060046000600a846040518082805190602001908083835b602083101515613fa45780518252602082019150602081019050602083039250613f7f565b6001836020036101000a0380198251168184511680821785525050505050509050019150509081526020016040518091039020548152602001908152602001600020600301549050919050565b6000600160008473ffffffffffffffffffffffffffffffffffffffff1673ffffffffffffffffffffffffffffffffffffffff16815260200190815260200160002060008373ffffffffffffffffffffffffffffffffffffffff1673ffffffffffffffffffffffffffffffffffffffff16815260200190815260200160002054905092915050565b6060600860003373ffffffffffffffffffffffffffffffffffffffff1673ffffffffffffffffffffffffffffffffffffffff16815260200190815260200160002080548060200260200160405190810160405280929190818152602001828054801561410357602002820191906000526020600020905b8154815260200190600101908083116140ef575b5050505050905090565b600060046000600a846040518082805190602001908083835b60208310151561414b5780518252602082019150602081019050602083039250614126565b6001836020036101000a038019825116818451168082178552505050505050905001915050908152602001604051809103902054815260200190815260200160002060050160009054906101000a900473ffffffffffffffffffffffffffffffffffffffff169050919050565b6000601054905090565b6000601d60000154905090565b600360009054906101000a900473ffffffffffffffffffffffffffffffffffffffff1673ffffffffffffffffffffffffffffffffffffffff163373ffffffffffffffffffffffffffffffffffffffff1614151561422b57600080fd5b600073ffffffffffffffffffffffffffffffffffffffff168173ffffffffffffffffffffffffffffffffffffffff161415151561426757600080fd5b8073ffffffffffffffffffffffffffffffffffffffff16600360009054906101000a900473ffffffffffffffffffffffffffffffffffffffff1673ffffffffffffffffffffffffffffffffffffffff167f8be0079c531659141344cd1fd0a4f28419497f9722a3daafe3b4186f6b6457e060405160405180910390a380600360006101000a81548173ffffffffffffffffffffffffffffffffffffffff021916908373ffffffffffffffffffffffffffffffffffffffff16021790555050565b3460105414151561433757600080fd5b60008280519060200120600190049050600073ffffffffffffffffffffffffffffffffffffffff166009846040518082805190602001908083835b6020831015156143975780518252602082019150602081019050602083039250614372565b6001836020036101000a038019825116818451168082178552505050505050905001915050908152602001604051809103902060009054906101000a900473ffffffffffffffffffffffffffffffffffffffff1673ffffffffffffffffffffffffffffffffffffffff1614151561440d57600080fd5b60008280519060200120600190049050600073ffffffffffffffffffffffffffffffffffffffff166004600083815260200190815260200160002060000160009054906101000a900473ffffffffffffffffffffffffffffffffffffffff1673ffffffffffffffffffffffffffffffffffffffff1614151561448e57600080fd5b336004600083815260200190815260200160002060000160006101000a81548173ffffffffffffffffffffffffffffffffffffffff021916908373ffffffffffffffffffffffffffffffffffffffff1602179055508360076000848152602001908152602001600020908051906020019061450a929190614f4f565b50336009856040518082805190602001908083835b602083101515614544578051825260208201915060208101905060208303925061451f565b6001836020036101000a038019825116818451168082178552505050505050905001915050908152602001604051809103902060006101000a81548173ffffffffffffffffffffffffffffffffffffffff021916908373ffffffffffffffffffffffffffffffffffffffff160217905550600860003373ffffffffffffffffffffffffffffffffffffffff1673ffffffffffffffffffffffffffffffffffffffff16815260200190815260200160002082908060018154018082558091505090600182039060005260206000200160009091929091909150555061462a83858484614c45565b50505050565b600360009054906101000a900473ffffffffffffffffffffffffffffffffffffffff1673ffffffffffffffffffffffffffffffffffffffff163373ffffffffffffffffffffffffffffffffffffffff1614151561468c57600080fd5b80600e8190555050565b600073ffffffffffffffffffffffffffffffffffffffff168273ffffffffffffffffffffffffffffffffffffffff16141515156146d257600080fd5b600073ffffffffffffffffffffffffffffffffffffffff168373ffffffffffffffffffffffffffffffffffffffff161415151561470e57600080fd5b80600160008573ffffffffffffffffffffffffffffffffffffffff1673ffffffffffffffffffffffffffffffffffffffff16815260200190815260200160002060008473ffffffffffffffffffffffffffffffffffffffff1673ffffffffffffffffffffffffffffffffffffffff168152602001908152602001600020819055508173ffffffffffffffffffffffffffffffffffffffff168373ffffffffffffffffffffffffffffffffffffffff167f8c5be1e5ebec7d5bd14f71427d1e84f3dd0314c0f7b2291e5b200ac8c7c3b925836040518082815260200191505060405180910390a3505050565b600073ffffffffffffffffffffffffffffffffffffffff168273ffffffffffffffffffffffffffffffffffffffff161415151561483557600080fd5b614886816000808673ffffffffffffffffffffffffffffffffffffffff1673ffffffffffffffffffffffffffffffffffffffff168152602001908152602001600020546149c590919063ffffffff16565b6000808573ffffffffffffffffffffffffffffffffffffffff1673ffffffffffffffffffffffffffffffffffffffff16815260200190815260200160002081905550614919816000808573ffffffffffffffffffffffffffffffffffffffff1673ffffffffffffffffffffffffffffffffffffffff168152602001908152602001600020546149de90919063ffffffff16565b6000808473ffffffffffffffffffffffffffffffffffffffff1673ffffffffffffffffffffffffffffffffffffffff168152602001908152602001600020819055508173ffffffffffffffffffffffffffffffffffffffff168373ffffffffffffffffffffffffffffffffffffffff167fddf252ad1be2c89b69c2b068fc378daa952ba7f163c4a11628f55a4df523b3ef836040518082815260200191505060405180910390a3505050565b60008282111515156149d357fe5b818303905092915050565b60008082840190508381101515156149f257fe5b8091505092915050565b6000808284811515614a0a57fe5b0490508091505092915050565b600073ffffffffffffffffffffffffffffffffffffffff168273ffffffffffffffffffffffffffffffffffffffff1614151515614a5357600080fd5b614a68816002546149de90919063ffffffff16565b600281905550614abf816000808573ffffffffffffffffffffffffffffffffffffffff1673ffffffffffffffffffffffffffffffffffffffff168152602001908152602001600020546149de90919063ffffffff16565b6000808473ffffffffffffffffffffffffffffffffffffffff1673ffffffffffffffffffffffffffffffffffffffff168152602001908152602001600020819055508173ffffffffffffffffffffffffffffffffffffffff16600073ffffffffffffffffffffffffffffffffffffffff167fddf252ad1be2c89b69c2b068fc378daa952ba7f163c4a11628f55a4df523b3ef836040518082815260200191505060405180910390a35050565b60008082840290506000841480614b8c5750828482811515614b8957fe5b04145b1515614b9457fe5b8091505092915050565b614ba88282614dfb565b614c418233614c3c84600160008873ffffffffffffffffffffffffffffffffffffffff1673ffffffffffffffffffffffffffffffffffffffff16815260200190815260200160002060003373ffffffffffffffffffffffffffffffffffffffff1673ffffffffffffffffffffffffffffffffffffffff168152602001908152602001600020546149c590919063ffffffff16565b614696565b5050565b83600460008381526020019081526020016000206001019080519060200190614c6f929190614f4f565b5082600460008381526020019081526020016000206002019080519060200190614c9a929190614f4f565b506006836040518082805190602001908083835b602083101515614cd35780518252602082019150602081019050602083039250614cae565b6001836020036101000a038019825116818451168082178552505050505050905001915050908152602001604051809103902081908060018154018082558091505090600182039060005260206000200160009091929091909150555080600a856040518082805190602001908083835b602083101515614d695780518252602082019150602081019050602083039250614d44565b6001836020036101000a03801982511681845116808217855250505050505090500191505090815260200160405180910390208190555080600b600084815260200190815260200160002060003373ffffffffffffffffffffffffffffffffffffffff1673ffffffffffffffffffffffffffffffffffffffff1681526020019081526020016000208190555050505050565b600073ffffffffffffffffffffffffffffffffffffffff168273ffffffffffffffffffffffffffffffffffffffff1614151515614e3757600080fd5b614e4c816002546149c590919063ffffffff16565b600281905550614ea3816000808573ffffffffffffffffffffffffffffffffffffffff1673ffffffffffffffffffffffffffffffffffffffff168152602001908152602001600020546149c590919063ffffffff16565b6000808473ffffffffffffffffffffffffffffffffffffffff1673ffffffffffffffffffffffffffffffffffffffff16815260200190815260200160002081905550600073ffffffffffffffffffffffffffffffffffffffff168273ffffffffffffffffffffffffffffffffffffffff167fddf252ad1be2c89b69c2b068fc378daa952ba7f163c4a11628f55a4df523b3ef836040518082815260200191505060405180910390a35050565b828054600181600116156101000203166002900490600052602060002090601f016020900481019282601f10614f9057805160ff1916838001178555614fbe565b82800160010185558215614fbe579182015b82811115614fbd578251825591602001919060010190614fa2565b5b509050614fcb9190614fcf565b5090565b614ff191905b80821115614fed576000816000905550600101614fd5565b5090565b9056fea165627a7a72305820c577f1c99f2a53e31f3d7747edf392df025bc13246d49a8b05333a0b7414b08e0029",
  "source": "pragma solidity ^0.5.0;\n\nimport \"./Cagnottes.sol\";\n\ncontract Lottery is Cagnottes{\n\nmapping (address => uint[]) private prediction ;\nmapping (address => uint) private gains;\n\nenum LotteryState { Started, Finished, Pending }\n\naddress[] private players;\naddress[] private winners;\n\nuint private blockStop;\nuint private blockEnd;\nuint private PRICE_LOTTERY_TOKEN;\nuint private NB_TICKETS;\n\nLotteryState private state;\n\nstruct resultat\n{\n  uint numCagnotte;\n  uint cagnotte;\n  uint nbGagnants;\n}\n\nresultat lastResult;\n\nconstructor() public\n{\n  state = LotteryState.Pending;\n  blockStop = 100;\n}\n\nfunction initierLottery(uint _price, uint _tickets, uint _blockEnd) public onlyOwner\n{\n  require(block.number < blockEnd - blockStop);\n  require(state == LotteryState.Pending);\n  require(block.number < _blockEnd);\n  blockEnd = _blockEnd;\n  NB_TICKETS = _tickets;\n  PRICE_LOTTERY_TOKEN = _price;\n  state = LotteryState.Started;\n}\n\nfunction play(uint _prediction, uint _nbTickets) public\n{\n  require(block.number < blockEnd - blockStop);\n  require(state == LotteryState.Started);\n  require(NB_TICKETS - _nbTickets > 0);\n  require(balanceOf(msg.sender) >= _nbTickets.mul(PRICE_LOTTERY_TOKEN));\n  NB_TICKETS -= _nbTickets;\n  _burnFrom(msg.sender,_nbTickets.mul(PRICE_LOTTERY_TOKEN));\n  for (uint i=0; i< _nbTickets; i++)\n  {\n  prediction[msg.sender].push(_prediction);\n  }\n  players.push(msg.sender);\n}\n\nfunction endGame() public onlyOwner\n{\n  require(state == LotteryState.Started);\n  require(block.number > blockEnd);\n  for (uint i=0; i< players.length; i++)\n  {\n    for (uint j=0; j< prediction[players[i]].length; j++)\n    {\n      if (prediction[players[i]][j] == LOTTERY_CAGNOTTE && prediction[players[i]][j] != 0)\n      {\n        winners.push(players[i]);\n      }\n    }\n    delete players[i];\n  }\n  msg.sender.transfer(LOTTERY_CAGNOTTE);\n  lastResult.numCagnotte += 1;\n  lastResult.cagnotte = LOTTERY_CAGNOTTE;\n  lastResult.nbGagnants = winners.length;\n}\n\nfunction soldeGame() public onlyOwner\n{\n  require(state == LotteryState.Finished);\n  if (winners.length>0)\n  LOTTERY_CAGNOTTE = uint(LOTTERY_CAGNOTTE.div(winners.length));\n  {\n    for (uint i=0; i< winners.length; i++)\n    {\n      gains[winners[i]].add(LOTTERY_CAGNOTTE);\n      delete winners[i];\n    }\n  LOTTERY_CAGNOTTE = 0;\n  }\n  state = LotteryState.Pending;\n}\n\nfunction withdrawGains() public\n{\n  uint MyGains = gains[msg.sender];\n  gains[msg.sender] = 0;\n  msg.sender.transfer(MyGains);\n}\n\nfunction getPrixLottery() public view returns (uint)\n{\n  return PRICE_LOTTERY_TOKEN;\n}\n\nfunction getTicketsLeft() public view returns (uint)\n{\n  return NB_TICKETS;\n}\n\nfunction getEndGame() public view returns (uint)\n{\n  return blockEnd;\n}\n\nfunction getSuperCagnotte() public view returns (uint)\n{\n  return LOTTERY_CAGNOTTE;\n}\n\nfunction getBlockStop() public view returns (uint)\n{\n  if (state == LotteryState.Pending)\n  {\n  return 0;\n  }\n  else return blockEnd - blockStop;\n\n}\n\nfunction modifierBlockStop(uint _stop) public onlyOwner\n{\n  blockStop = _stop;\n}\n\nfunction getNumCagnotte() public view returns (uint)\n{\n  return lastResult.numCagnotte;\n}\n\nfunction getCagnotte() public view returns (uint)\n{\n  return lastResult.cagnotte;\n}\n\nfunction getSolde() public view returns (uint)\n{\n  return balanceOf(msg.sender);\n}\n\nfunction getNbGagnants() public view returns (uint)\n{\n  return lastResult.nbGagnants;\n}\n\n}\n",
  "sourcePath": "/Users/germaindacunha/Documents/GitHub/Alyra/project/Ether-Union/Ether-Union-BackEnd/contracts/Lottery.sol",
  "compiler": {
    "name": "solc",
    "version": "0.5.0+commit.1d4f565a.Emscripten.clang"
  },
  "schemaVersion": "3.0.9",
  "updatedAt": "2019-05-05T15:04:41.742Z",
  "devdoc": {
    "methods": {
      "allowance(address,address)": {
        "details": "Function to check the amount of tokens that an owner allowed to a spender.",
        "params": {
          "owner": "address The address which owns the funds.",
          "spender": "address The address which will spend the funds."
        },
        "return": "A uint256 specifying the amount of tokens still available for the spender."
      },
      "approve(address,uint256)": {
        "details": "Approve the passed address to spend the specified amount of tokens on behalf of msg.sender. Beware that changing an allowance with this method brings the risk that someone may use both the old and the new allowance by unfortunate transaction ordering. One possible solution to mitigate this race condition is to first reduce the spender's allowance to 0 and set the desired value afterwards: https://github.com/ethereum/EIPs/issues/20#issuecomment-263524729",
        "params": {
          "spender": "The address which will spend the funds.",
          "value": "The amount of tokens to be spent."
        }
      },
      "balanceOf(address)": {
        "details": "Gets the balance of the specified address.",
        "params": {
          "owner": "The address to query the balance of."
        },
        "return": "A uint256 representing the amount owned by the passed address."
      },
      "decreaseAllowance(address,uint256)": {
        "details": "Decrease the amount of tokens that an owner allowed to a spender. approve should be called when _allowed[msg.sender][spender] == 0. To decrement allowed value is better to use this function to avoid 2 calls (and wait until the first transaction is mined) From MonolithDAO Token.sol Emits an Approval event.",
        "params": {
          "spender": "The address which will spend the funds.",
          "subtractedValue": "The amount of tokens to decrease the allowance by."
        }
      },
      "increaseAllowance(address,uint256)": {
        "details": "Increase the amount of tokens that an owner allowed to a spender. approve should be called when _allowed[msg.sender][spender] == 0. To increment allowed value is better to use this function to avoid 2 calls (and wait until the first transaction is mined) From MonolithDAO Token.sol Emits an Approval event.",
        "params": {
          "addedValue": "The amount of tokens to increase the allowance by.",
          "spender": "The address which will spend the funds."
        }
      },
      "totalSupply()": {
        "details": "Total number of tokens in existence"
      },
      "transfer(address,uint256)": {
        "details": "Transfer token to a specified address",
        "params": {
          "to": "The address to transfer to.",
          "value": "The amount to be transferred."
        }
      },
      "transferFrom(address,address,uint256)": {
        "details": "Transfer tokens from one address to another. Note that while this function emits an Approval event, this is not required as per the specification, and other compliant implementations may not emit the event.",
        "params": {
          "from": "address The address which you want to send tokens from",
          "to": "address The address which you want to transfer to",
          "value": "uint256 the amount of tokens to be transferred"
        }
      },
      "transferOwnership(address)": {
        "details": "Allows the current owner to transfer control of the contract to a newOwner.",
        "params": {
          "newOwner": "The address to transfer ownership to."
        }
      }
    }
  },
  "userdoc": {
    "methods": {}
  }
}