{
  "contractName": "Lottery",
  "abi": [
    {
      "constant": true,
      "inputs": [
        {
          "name": "_pseudo",
          "type": "string"
        }
      ],
      "name": "getAddresse",
      "outputs": [
        {
          "name": "",
          "type": "address"
        }
      ],
      "payable": false,
      "stateMutability": "view",
      "type": "function"
    },
    {
      "constant": true,
      "inputs": [],
      "name": "name",
      "outputs": [
        {
          "name": "",
          "type": "string"
        }
      ],
      "payable": false,
      "stateMutability": "view",
      "type": "function"
    },
    {
      "constant": false,
      "inputs": [
        {
          "name": "spender",
          "type": "address"
        },
        {
          "name": "value",
          "type": "uint256"
        }
      ],
      "name": "approve",
      "outputs": [
        {
          "name": "",
          "type": "bool"
        }
      ],
      "payable": false,
      "stateMutability": "nonpayable",
      "type": "function"
    },
    {
      "constant": false,
      "inputs": [
        {
          "name": "_priceGroup",
          "type": "uint256"
        }
      ],
      "name": "modifierPriceGroup",
      "outputs": [],
      "payable": false,
      "stateMutability": "nonpayable",
      "type": "function"
    },
    {
      "constant": true,
      "inputs": [],
      "name": "totalSupply",
      "outputs": [
        {
          "name": "",
          "type": "uint256"
        }
      ],
      "payable": false,
      "stateMutability": "view",
      "type": "function"
    },
    {
      "constant": true,
      "inputs": [],
      "name": "getGroupesPerAddress",
      "outputs": [
        {
          "name": "",
          "type": "uint256[]"
        }
      ],
      "payable": false,
      "stateMutability": "view",
      "type": "function"
    },
    {
      "constant": true,
      "inputs": [
        {
          "name": "_groupe",
          "type": "string"
        }
      ],
      "name": "getPseudoInGroup",
      "outputs": [
        {
          "name": "",
          "type": "string"
        }
      ],
      "payable": false,
      "stateMutability": "view",
      "type": "function"
    },
    {
      "constant": false,
      "inputs": [
        {
          "name": "from",
          "type": "address"
        },
        {
          "name": "to",
          "type": "address"
        },
        {
          "name": "value",
          "type": "uint256"
        }
      ],
      "name": "transferFrom",
      "outputs": [
        {
          "name": "",
          "type": "bool"
        }
      ],
      "payable": false,
      "stateMutability": "nonpayable",
      "type": "function"
    },
    {
      "constant": true,
      "inputs": [
        {
          "name": "_groupe",
          "type": "string"
        }
      ],
      "name": "getMembres",
      "outputs": [
        {
          "name": "",
          "type": "uint256[]"
        }
      ],
      "payable": false,
      "stateMutability": "view",
      "type": "function"
    },
    {
      "constant": true,
      "inputs": [
        {
          "name": "_pseudo",
          "type": "string"
        }
      ],
      "name": "getDonnations",
      "outputs": [
        {
          "name": "",
          "type": "uint256"
        }
      ],
      "payable": false,
      "stateMutability": "view",
      "type": "function"
    },
    {
      "constant": true,
      "inputs": [],
      "name": "decimals",
      "outputs": [
        {
          "name": "",
          "type": "uint32"
        }
      ],
      "payable": false,
      "stateMutability": "view",
      "type": "function"
    },
    {
      "constant": false,
      "inputs": [
        {
          "name": "_priceChannel",
          "type": "uint256"
        }
      ],
      "name": "modifierPriceChannel",
      "outputs": [],
      "payable": false,
      "stateMutability": "nonpayable",
      "type": "function"
    },
    {
      "constant": false,
      "inputs": [
        {
          "name": "spender",
          "type": "address"
        },
        {
          "name": "addedValue",
          "type": "uint256"
        }
      ],
      "name": "increaseAllowance",
      "outputs": [
        {
          "name": "",
          "type": "bool"
        }
      ],
      "payable": false,
      "stateMutability": "nonpayable",
      "type": "function"
    },
    {
      "constant": true,
      "inputs": [
        {
          "name": "_ID",
          "type": "uint256"
        }
      ],
      "name": "getNomGroupe",
      "outputs": [
        {
          "name": "",
          "type": "string"
        }
      ],
      "payable": false,
      "stateMutability": "view",
      "type": "function"
    },
    {
      "constant": true,
      "inputs": [
        {
          "name": "_pseudo",
          "type": "string"
        }
      ],
      "name": "getDescription",
      "outputs": [
        {
          "name": "",
          "type": "string"
        }
      ],
      "payable": false,
      "stateMutability": "view",
      "type": "function"
    },
    {
      "constant": true,
      "inputs": [
        {
          "name": "_ID",
          "type": "uint256"
        }
      ],
      "name": "getNomMembre",
      "outputs": [
        {
          "name": "",
          "type": "string"
        }
      ],
      "payable": false,
      "stateMutability": "view",
      "type": "function"
    },
    {
      "constant": true,
      "inputs": [],
      "name": "getPriceChannel",
      "outputs": [
        {
          "name": "",
          "type": "uint256"
        }
      ],
      "payable": false,
      "stateMutability": "view",
      "type": "function"
    },
    {
      "constant": false,
      "inputs": [
        {
          "name": "_pseudo",
          "type": "string"
        }
      ],
      "name": "fermetureCanal",
      "outputs": [],
      "payable": false,
      "stateMutability": "nonpayable",
      "type": "function"
    },
    {
      "constant": false,
      "inputs": [
        {
          "name": "_priceRatio",
          "type": "uint256"
        }
      ],
      "name": "modifierCharges",
      "outputs": [],
      "payable": false,
      "stateMutability": "nonpayable",
      "type": "function"
    },
    {
      "constant": true,
      "inputs": [
        {
          "name": "_pseudo",
          "type": "string"
        }
      ],
      "name": "getReceptions",
      "outputs": [
        {
          "name": "",
          "type": "uint256"
        }
      ],
      "payable": false,
      "stateMutability": "view",
      "type": "function"
    },
    {
      "constant": false,
      "inputs": [
        {
          "name": "_priceMember",
          "type": "uint256"
        }
      ],
      "name": "modifierPriceMember",
      "outputs": [],
      "payable": false,
      "stateMutability": "nonpayable",
      "type": "function"
    },
    {
      "constant": false,
      "inputs": [
        {
          "name": "_pseudo",
          "type": "string"
        }
      ],
      "name": "payerCanal",
      "outputs": [],
      "payable": true,
      "stateMutability": "payable",
      "type": "function"
    },
    {
      "constant": true,
      "inputs": [],
      "name": "getPriceMember",
      "outputs": [
        {
          "name": "",
          "type": "uint256"
        }
      ],
      "payable": false,
      "stateMutability": "view",
      "type": "function"
    },
    {
      "constant": true,
      "inputs": [
        {
          "name": "owner",
          "type": "address"
        }
      ],
      "name": "balanceOf",
      "outputs": [
        {
          "name": "",
          "type": "uint256"
        }
      ],
      "payable": false,
      "stateMutability": "view",
      "type": "function"
    },
    {
      "constant": true,
      "inputs": [
        {
          "name": "_pseudo",
          "type": "string"
        }
      ],
      "name": "getGroupe",
      "outputs": [
        {
          "name": "",
          "type": "string"
        }
      ],
      "payable": false,
      "stateMutability": "view",
      "type": "function"
    },
    {
      "constant": true,
      "inputs": [],
      "name": "owner",
      "outputs": [
        {
          "name": "",
          "type": "address"
        }
      ],
      "payable": false,
      "stateMutability": "view",
      "type": "function"
    },
    {
      "constant": false,
      "inputs": [
        {
          "name": "_membre",
          "type": "address"
        },
        {
          "name": "_groupe",
          "type": "string"
        },
        {
          "name": "_pseudo",
          "type": "string"
        }
      ],
      "name": "ajouterMembre",
      "outputs": [],
      "payable": true,
      "stateMutability": "payable",
      "type": "function"
    },
    {
      "constant": true,
      "inputs": [],
      "name": "symbol",
      "outputs": [
        {
          "name": "",
          "type": "string"
        }
      ],
      "payable": false,
      "stateMutability": "view",
      "type": "function"
    },
    {
      "constant": true,
      "inputs": [
        {
          "name": "_pseudo",
          "type": "string"
        }
      ],
      "name": "getEncours",
      "outputs": [
        {
          "name": "",
          "type": "uint256"
        }
      ],
      "payable": false,
      "stateMutability": "view",
      "type": "function"
    },
    {
      "constant": false,
      "inputs": [
        {
          "name": "spender",
          "type": "address"
        },
        {
          "name": "subtractedValue",
          "type": "uint256"
        }
      ],
      "name": "decreaseAllowance",
      "outputs": [
        {
          "name": "",
          "type": "bool"
        }
      ],
      "payable": false,
      "stateMutability": "nonpayable",
      "type": "function"
    },
    {
      "constant": false,
      "inputs": [
        {
          "name": "to",
          "type": "address"
        },
        {
          "name": "value",
          "type": "uint256"
        }
      ],
      "name": "transfer",
      "outputs": [
        {
          "name": "",
          "type": "bool"
        }
      ],
      "payable": false,
      "stateMutability": "nonpayable",
      "type": "function"
    },
    {
      "constant": false,
      "inputs": [
        {
          "name": "_maxAmount",
          "type": "uint256"
        }
      ],
      "name": "modifierMaxAmount",
      "outputs": [],
      "payable": false,
      "stateMutability": "nonpayable",
      "type": "function"
    },
    {
      "constant": true,
      "inputs": [
        {
          "name": "_pseudo",
          "type": "string"
        }
      ],
      "name": "getMontant",
      "outputs": [
        {
          "name": "",
          "type": "uint256"
        }
      ],
      "payable": false,
      "stateMutability": "view",
      "type": "function"
    },
    {
      "constant": false,
      "inputs": [
        {
          "name": "_montant",
          "type": "uint256"
        },
        {
          "name": "_pseudo",
          "type": "string"
        },
        {
          "name": "_description",
          "type": "string"
        }
      ],
      "name": "demander",
      "outputs": [],
      "payable": true,
      "stateMutability": "payable",
      "type": "function"
    },
    {
      "constant": true,
      "inputs": [
        {
          "name": "owner",
          "type": "address"
        },
        {
          "name": "spender",
          "type": "address"
        }
      ],
      "name": "allowance",
      "outputs": [
        {
          "name": "",
          "type": "uint256"
        }
      ],
      "payable": false,
      "stateMutability": "view",
      "type": "function"
    },
    {
      "constant": true,
      "inputs": [],
      "name": "getOwnedGroupe",
      "outputs": [
        {
          "name": "",
          "type": "uint256[]"
        }
      ],
      "payable": false,
      "stateMutability": "view",
      "type": "function"
    },
    {
      "constant": true,
      "inputs": [],
      "name": "getPriceGroup",
      "outputs": [
        {
          "name": "",
          "type": "uint256"
        }
      ],
      "payable": false,
      "stateMutability": "view",
      "type": "function"
    },
    {
      "constant": false,
      "inputs": [
        {
          "name": "newOwner",
          "type": "address"
        }
      ],
      "name": "transferOwnership",
      "outputs": [],
      "payable": false,
      "stateMutability": "nonpayable",
      "type": "function"
    },
    {
      "constant": false,
      "inputs": [
        {
          "name": "_nom",
          "type": "string"
        },
        {
          "name": "_pseudo",
          "type": "string"
        }
      ],
      "name": "creerGroupe",
      "outputs": [],
      "payable": true,
      "stateMutability": "payable",
      "type": "function"
    },
    {
      "constant": false,
      "inputs": [
        {
          "name": "_minAmount",
          "type": "uint256"
        }
      ],
      "name": "modifierMinAmount",
      "outputs": [],
      "payable": false,
      "stateMutability": "nonpayable",
      "type": "function"
    },
    {
      "inputs": [],
      "payable": false,
      "stateMutability": "nonpayable",
      "type": "constructor"
    },
    {
      "anonymous": false,
      "inputs": [
        {
          "indexed": false,
          "name": "groupe",
          "type": "string"
        },
        {
          "indexed": false,
          "name": "pseudo",
          "type": "string"
        }
      ],
      "name": "nouvelleDemamnde",
      "type": "event"
    },
    {
      "anonymous": false,
      "inputs": [
        {
          "indexed": true,
          "name": "previousOwner",
          "type": "address"
        },
        {
          "indexed": true,
          "name": "newOwner",
          "type": "address"
        }
      ],
      "name": "OwnershipTransferred",
      "type": "event"
    },
    {
      "anonymous": false,
      "inputs": [
        {
          "indexed": true,
          "name": "from",
          "type": "address"
        },
        {
          "indexed": true,
          "name": "to",
          "type": "address"
        },
        {
          "indexed": false,
          "name": "value",
          "type": "uint256"
        }
      ],
      "name": "Transfer",
      "type": "event"
    },
    {
      "anonymous": false,
      "inputs": [
        {
          "indexed": true,
          "name": "owner",
          "type": "address"
        },
        {
          "indexed": true,
          "name": "spender",
          "type": "address"
        },
        {
          "indexed": false,
          "name": "value",
          "type": "uint256"
        }
      ],
      "name": "Approval",
      "type": "event"
    },
    {
      "constant": false,
      "inputs": [
        {
          "name": "_price",
          "type": "uint256"
        },
        {
          "name": "_blockEnd",
          "type": "uint256"
        }
      ],
      "name": "initierLottery",
      "outputs": [],
      "payable": false,
      "stateMutability": "nonpayable",
      "type": "function"
    },
    {
      "constant": false,
      "inputs": [
        {
          "name": "_prediction",
          "type": "uint256"
        }
      ],
      "name": "play",
      "outputs": [],
      "payable": false,
      "stateMutability": "nonpayable",
      "type": "function"
    },
    {
      "constant": false,
      "inputs": [],
      "name": "endGame",
      "outputs": [],
      "payable": false,
      "stateMutability": "nonpayable",
      "type": "function"
    },
    {
      "constant": false,
      "inputs": [],
      "name": "closeGame",
      "outputs": [],
      "payable": false,
      "stateMutability": "nonpayable",
      "type": "function"
    },
    {
      "constant": false,
      "inputs": [],
      "name": "saveWin",
      "outputs": [],
      "payable": false,
      "stateMutability": "nonpayable",
      "type": "function"
    },
    {
      "constant": false,
      "inputs": [],
      "name": "withdrawGains",
      "outputs": [],
      "payable": false,
      "stateMutability": "nonpayable",
      "type": "function"
    },
    {
      "constant": true,
      "inputs": [],
      "name": "getStateGame",
      "outputs": [
        {
          "name": "",
          "type": "string"
        }
      ],
      "payable": false,
      "stateMutability": "view",
      "type": "function"
    },
    {
      "constant": true,
      "inputs": [],
      "name": "getPrixLottery",
      "outputs": [
        {
          "name": "",
          "type": "uint256"
        }
      ],
      "payable": false,
      "stateMutability": "view",
      "type": "function"
    },
    {
      "constant": true,
      "inputs": [],
      "name": "getEndGame",
      "outputs": [
        {
          "name": "",
          "type": "uint256"
        }
      ],
      "payable": false,
      "stateMutability": "view",
      "type": "function"
    },
    {
      "constant": true,
      "inputs": [],
      "name": "getSuperCagnotte",
      "outputs": [
        {
          "name": "",
          "type": "uint256"
        }
      ],
      "payable": false,
      "stateMutability": "view",
      "type": "function"
    },
    {
      "constant": true,
      "inputs": [],
      "name": "getPrediction",
      "outputs": [
        {
          "name": "",
          "type": "uint256"
        }
      ],
      "payable": false,
      "stateMutability": "view",
      "type": "function"
    },
    {
      "constant": true,
      "inputs": [],
      "name": "getBlockStop",
      "outputs": [
        {
          "name": "",
          "type": "uint256"
        }
      ],
      "payable": false,
      "stateMutability": "view",
      "type": "function"
    },
    {
      "constant": false,
      "inputs": [
        {
          "name": "_stop",
          "type": "uint256"
        }
      ],
      "name": "modifierBlockStop",
      "outputs": [],
      "payable": false,
      "stateMutability": "nonpayable",
      "type": "function"
    },
    {
      "constant": true,
      "inputs": [],
      "name": "getCagnotte",
      "outputs": [
        {
          "name": "",
          "type": "uint256"
        }
      ],
      "payable": false,
      "stateMutability": "view",
      "type": "function"
    },
    {
      "constant": true,
      "inputs": [],
      "name": "getBlock",
      "outputs": [
        {
          "name": "",
          "type": "uint256"
        }
      ],
      "payable": false,
      "stateMutability": "view",
      "type": "function"
    },
    {
      "constant": true,
      "inputs": [],
      "name": "getGains",
      "outputs": [
        {
          "name": "",
          "type": "uint256"
        }
      ],
      "payable": false,
      "stateMutability": "view",
      "type": "function"
    },
    {
      "constant": true,
      "inputs": [],
      "name": "getSolde",
      "outputs": [
        {
          "name": "",
          "type": "uint256"
        }
      ],
      "payable": false,
      "stateMutability": "view",
      "type": "function"
    },
    {
      "constant": true,
      "inputs": [],
      "name": "getNbGagnants",
      "outputs": [
        {
          "name": "",
          "type": "uint256"
        }
      ],
      "payable": false,
      "stateMutability": "view",
      "type": "function"
    }
  ],
  "bytecode": "0x60806040523480156200001157600080fd5b5033600360006101000a81548173ffffffffffffffffffffffffffffffffffffffff021916908373ffffffffffffffffffffffffffffffffffffffff16021790555068056bc75e2d63100000600d81905550620186a0600e8190555060c8600f819055506103e86010819055506064601181905550600a6012819055506002601960006101000a81548160ff02191690836002811115620000ae57fe5b02179055506001601681905550620000d733600a620000dd640100000000026401000000009004565b62000271565b600073ffffffffffffffffffffffffffffffffffffffff168273ffffffffffffffffffffffffffffffffffffffff16141515156200011a57600080fd5b6200013f81600254620002526401000000000262004756179091906401000000009004565b600281905550620001a6816000808573ffffffffffffffffffffffffffffffffffffffff1673ffffffffffffffffffffffffffffffffffffffff16815260200190815260200160002054620002526401000000000262004756179091906401000000009004565b6000808473ffffffffffffffffffffffffffffffffffffffff1673ffffffffffffffffffffffffffffffffffffffff168152602001908152602001600020819055508173ffffffffffffffffffffffffffffffffffffffff16600073ffffffffffffffffffffffffffffffffffffffff167fddf252ad1be2c89b69c2b068fc378daa952ba7f163c4a11628f55a4df523b3ef836040518082815260200191505060405180910390a35050565b60008082840190508381101515156200026757fe5b8091505092915050565b614cbe80620002816000396000f3fe6080604052600436106102b3576000357c0100000000000000000000000000000000000000000000000000000000900463ffffffff168062afc9e2146102b857806306fdde03146103c0578063095ea7b3146104505780630bcb257f146104c35780630d078a9d146104ee578063175032661461050557806318160ddd146105405780631b4b26fd1461056b5780631e0afe57146105a65780631e63f293146106125780632055bd081461063d57806323b872dd1461077e57806329c77347146108115780632a51becf1461092e5780632e97766d14610a0a578063313ce56714610a35578063370c29f914610a6c5780633950935114610aa75780634152299714610b1a57806345de2ca014610bce578063483f021914610d0f5780634b20d5d514610d265780634b7b03cf14610d515780634c95b44814610e055780634dc8872914610e305780635126670614610ef857806355e5ae0414610f335780635743026414610f5e5780635f0935531461103a578063639f84991461107557806367cb92db146111305780636898f82b1461115b5780636cbc2ded146111965780636dfc331c146111ad57806370a082311461123d578063786b844b146112a25780637aede272146112b95780638da5cb5b146113fa5780638f3333411461145157806395d89b41146115c35780639d05e9ab146116535780639f615ee11461172f578063a457c2d71461175a578063a9059cbb146117cd578063b6e91ae414611840578063bcc21cf61461186b578063beaf3b0d14611896578063d458be7b146118d1578063d74b10a5146118fc578063d9dcc115146119d8578063dd62ed3e14611b34578063e09c813614611bb9578063e7ac022d14611c25578063e971cee414611c50578063f2fde38b14611c7b578063f4343df414611ccc578063f483977214611e1e578063f85ba57414611e59575b600080fd5b3480156102c457600080fd5b5061037e600480360360208110156102db57600080fd5b81019080803590602001906401000000008111156102f857600080fd5b82018360208201111561030a57600080fd5b8035906020019184600183028401116401000000008311171561032c57600080fd5b91908080601f016020809104026020016040519081016040528093929190818152602001838380828437600081840152601f19601f820116905080830192505050505050509192919290505050611e9e565b604051808273ffffffffffffffffffffffffffffffffffffffff1673ffffffffffffffffffffffffffffffffffffffff16815260200191505060405180910390f35b3480156103cc57600080fd5b506103d5611f49565b6040518080602001828103825283818151815260200191508051906020019080838360005b838110156104155780820151818401526020810190506103fa565b50505050905090810190601f1680156104425780820380516001836020036101000a031916815260200191505b509250505060405180910390f35b34801561045c57600080fd5b506104a96004803603604081101561047357600080fd5b81019080803573ffffffffffffffffffffffffffffffffffffffff16906020019092919080359060200190929190505050611f82565b604051808215151515815260200191505060405180910390f35b3480156104cf57600080fd5b506104d8611f99565b6040518082815260200191505060405180910390f35b3480156104fa57600080fd5b50610503611fa3565b005b34801561051157600080fd5b5061053e6004803603602081101561052857600080fd5b81019080803590602001909291905050506120dc565b005b34801561054c57600080fd5b50610555612142565b6040518082815260200191505060405180910390f35b34801561057757600080fd5b506105a46004803603602081101561058e57600080fd5b810190808035906020019092919050505061214c565b005b3480156105b257600080fd5b506105bb6121b2565b6040518080602001828103825283818151815260200191508051906020019060200280838360005b838110156105fe5780820151818401526020810190506105e3565b505050509050019250505060405180910390f35b34801561061e57600080fd5b50610627612247565b6040518082815260200191505060405180910390f35b34801561064957600080fd5b506107036004803603602081101561066057600080fd5b810190808035906020019064010000000081111561067d57600080fd5b82018360208201111561068f57600080fd5b803590602001918460018302840111640100000000831117156106b157600080fd5b91908080601f016020809104026020016040519081016040528093929190818152602001838380828437600081840152601f19601f820116905080830192505050505050509192919290505050612251565b6040518080602001828103825283818151815260200191508051906020019080838360005b83811015610743578082015181840152602081019050610728565b50505050905090810190601f1680156107705780820380516001836020036101000a031916815260200191505b509250505060405180910390f35b34801561078a57600080fd5b506107f7600480360360608110156107a157600080fd5b81019080803573ffffffffffffffffffffffffffffffffffffffff169060200190929190803573ffffffffffffffffffffffffffffffffffffffff1690602001909291908035906020019092919050505061236a565b604051808215151515815260200191505060405180910390f35b34801561081d57600080fd5b506108d76004803603602081101561083457600080fd5b810190808035906020019064010000000081111561085157600080fd5b82018360208201111561086357600080fd5b8035906020019184600183028401116401000000008311171561088557600080fd5b91908080601f016020809104026020016040519081016040528093929190818152602001838380828437600081840152601f19601f82011690508083019250505050505050919291929050505061241b565b6040518080602001828103825283818151815260200191508051906020019060200280838360005b8381101561091a5780820151818401526020810190506108ff565b505050509050019250505060405180910390f35b34801561093a57600080fd5b506109f46004803603602081101561095157600080fd5b810190808035906020019064010000000081111561096e57600080fd5b82018360208201111561098057600080fd5b803590602001918460018302840111640100000000831117156109a257600080fd5b91908080601f016020809104026020016040519081016040528093929190818152602001838380828437600081840152601f19601f8201169050808301925050505050505091929192905050506124de565b6040518082815260200191505060405180910390f35b348015610a1657600080fd5b50610a1f6125a5565b6040518082815260200191505060405180910390f35b348015610a4157600080fd5b50610a4a6125ad565b604051808263ffffffff1663ffffffff16815260200191505060405180910390f35b348015610a7857600080fd5b50610aa560048036036020811015610a8f57600080fd5b81019080803590602001909291905050506125b2565b005b348015610ab357600080fd5b50610b0060048036036040811015610aca57600080fd5b81019080803573ffffffffffffffffffffffffffffffffffffffff16906020019092919080359060200190929190505050612618565b604051808215151515815260200191505060405180910390f35b348015610b2657600080fd5b50610b5360048036036020811015610b3d57600080fd5b81019080803590602001909291905050506126bd565b6040518080602001828103825283818151815260200191508051906020019080838360005b83811015610b93578082015181840152602081019050610b78565b50505050905090810190601f168015610bc05780820380516001836020036101000a031916815260200191505b509250505060405180910390f35b348015610bda57600080fd5b50610c9460048036036020811015610bf157600080fd5b8101908080359060200190640100000000811115610c0e57600080fd5b820183602082011115610c2057600080fd5b80359060200191846001830284011164010000000083111715610c4257600080fd5b91908080601f016020809104026020016040519081016040528093929190818152602001838380828437600081840152601f19601f820116905080830192505050505050509192919290505050612772565b6040518080602001828103825283818151815260200191508051906020019080838360005b83811015610cd4578082015181840152602081019050610cb9565b50505050905090810190601f168015610d015780820380516001836020036101000a031916815260200191505b509250505060405180910390f35b348015610d1b57600080fd5b50610d24612895565b005b348015610d3257600080fd5b50610d3b612a2e565b6040518082815260200191505060405180910390f35b348015610d5d57600080fd5b50610d8a60048036036020811015610d7457600080fd5b8101908080359060200190929190505050612a3b565b6040518080602001828103825283818151815260200191508051906020019080838360005b83811015610dca578082015181840152602081019050610daf565b50505050905090810190601f168015610df75780820380516001836020036101000a031916815260200191505b509250505060405180910390f35b348015610e1157600080fd5b50610e1a612af3565b6040518082815260200191505060405180910390f35b348015610e3c57600080fd5b50610ef660048036036020811015610e5357600080fd5b8101908080359060200190640100000000811115610e7057600080fd5b820183602082011115610e8257600080fd5b80359060200191846001830284011164010000000083111715610ea457600080fd5b91908080601f016020809104026020016040519081016040528093929190818152602001838380828437600081840152601f19601f820116905080830192505050505050509192919290505050612afd565b005b348015610f0457600080fd5b50610f3160048036036020811015610f1b57600080fd5b8101908080359060200190929190505050612c77565b005b348015610f3f57600080fd5b50610f48612cdd565b6040518082815260200191505060405180910390f35b348015610f6a57600080fd5b5061102460048036036020811015610f8157600080fd5b8101908080359060200190640100000000811115610f9e57600080fd5b820183602082011115610fb057600080fd5b80359060200191846001830284011164010000000083111715610fd257600080fd5b91908080601f016020809104026020016040519081016040528093929190818152602001838380828437600081840152601f19601f820116905080830192505050505050509192919290505050612ced565b6040518082815260200191505060405180910390f35b34801561104657600080fd5b506110736004803603602081101561105d57600080fd5b8101908080359060200190929190505050612db4565b005b61112e6004803603602081101561108b57600080fd5b81019080803590602001906401000000008111156110a857600080fd5b8201836020820111156110ba57600080fd5b803590602001918460018302840111640100000000831117156110dc57600080fd5b91908080601f016020809104026020016040519081016040528093929190818152602001838380828437600081840152601f19601f820116905080830192505050505050509192919290505050612e1a565b005b34801561113c57600080fd5b50611145612fc0565b6040518082815260200191505060405180910390f35b34801561116757600080fd5b506111946004803603602081101561117e57600080fd5b8101908080359060200190929190505050612fca565b005b3480156111a257600080fd5b506111ab6130cd565b005b3480156111b957600080fd5b506111c26131b0565b6040518080602001828103825283818151815260200191508051906020019080838360005b838110156112025780820151818401526020810190506111e7565b50505050905090810190601f16801561122f5780820380516001836020036101000a031916815260200191505b509250505060405180910390f35b34801561124957600080fd5b5061128c6004803603602081101561126057600080fd5b81019080803573ffffffffffffffffffffffffffffffffffffffff1690602001909291905050506132ea565b6040518082815260200191505060405180910390f35b3480156112ae57600080fd5b506112b7613332565b005b3480156112c557600080fd5b5061137f600480360360208110156112dc57600080fd5b81019080803590602001906401000000008111156112f957600080fd5b82018360208201111561130b57600080fd5b8035906020019184600183028401116401000000008311171561132d57600080fd5b91908080601f016020809104026020016040519081016040528093929190818152602001838380828437600081840152601f19601f8201169050808301925050505050505091929192905050506133e8565b6040518080602001828103825283818151815260200191508051906020019080838360005b838110156113bf5780820151818401526020810190506113a4565b50505050905090810190601f1680156113ec5780820380516001836020036101000a031916815260200191505b509250505060405180910390f35b34801561140657600080fd5b5061140f61350b565b604051808273ffffffffffffffffffffffffffffffffffffffff1673ffffffffffffffffffffffffffffffffffffffff16815260200191505060405180910390f35b6115c16004803603606081101561146757600080fd5b81019080803573ffffffffffffffffffffffffffffffffffffffff169060200190929190803590602001906401000000008111156114a457600080fd5b8201836020820111156114b657600080fd5b803590602001918460018302840111640100000000831117156114d857600080fd5b91908080601f016020809104026020016040519081016040528093929190818152602001838380828437600081840152601f19601f8201169050808301925050505050505091929192908035906020019064010000000081111561153b57600080fd5b82018360208201111561154d57600080fd5b8035906020019184600183028401116401000000008311171561156f57600080fd5b91908080601f016020809104026020016040519081016040528093929190818152602001838380828437600081840152601f19601f820116905080830192505050505050509192919290505050613531565b005b3480156115cf57600080fd5b506115d8613768565b6040518080602001828103825283818151815260200191508051906020019080838360005b838110156116185780820151818401526020810190506115fd565b50505050905090810190601f1680156116455780820380516001836020036101000a031916815260200191505b509250505060405180910390f35b34801561165f57600080fd5b506117196004803603602081101561167657600080fd5b810190808035906020019064010000000081111561169357600080fd5b8201836020820111156116a557600080fd5b803590602001918460018302840111640100000000831117156116c757600080fd5b91908080601f016020809104026020016040519081016040528093929190818152602001838380828437600081840152601f19601f8201169050808301925050505050505091929192905050506137a1565b6040518082815260200191505060405180910390f35b34801561173b57600080fd5b5061174461382c565b6040518082815260200191505060405180910390f35b34801561176657600080fd5b506117b36004803603604081101561177d57600080fd5b81019080803573ffffffffffffffffffffffffffffffffffffffff16906020019092919080359060200190929190505050613873565b604051808215151515815260200191505060405180910390f35b3480156117d957600080fd5b50611826600480360360408110156117f057600080fd5b81019080803573ffffffffffffffffffffffffffffffffffffffff16906020019092919080359060200190929190505050613918565b604051808215151515815260200191505060405180910390f35b34801561184c57600080fd5b5061185561392f565b6040518082815260200191505060405180910390f35b34801561187757600080fd5b50611880613939565b6040518082815260200191505060405180910390f35b3480156118a257600080fd5b506118cf600480360360208110156118b957600080fd5b810190808035906020019092919050505061395d565b005b3480156118dd57600080fd5b506118e66139c3565b6040518082815260200191505060405180910390f35b34801561190857600080fd5b506119c26004803603602081101561191f57600080fd5b810190808035906020019064010000000081111561193c57600080fd5b82018360208201111561194e57600080fd5b8035906020019184600183028401116401000000008311171561197057600080fd5b91908080601f016020809104026020016040519081016040528093929190818152602001838380828437600081840152601f19601f8201169050808301925050505050505091929192905050506139d0565b6040518082815260200191505060405180910390f35b611b32600480360360608110156119ee57600080fd5b810190808035906020019092919080359060200190640100000000811115611a1557600080fd5b820183602082011115611a2757600080fd5b80359060200191846001830284011164010000000083111715611a4957600080fd5b91908080601f016020809104026020016040519081016040528093929190818152602001838380828437600081840152601f19601f82011690508083019250505050505050919291929080359060200190640100000000811115611aac57600080fd5b820183602082011115611abe57600080fd5b80359060200191846001830284011164010000000083111715611ae057600080fd5b91908080601f016020809104026020016040519081016040528093929190818152602001838380828437600081840152601f19601f820116905080830192505050505050509192919290505050613a5b565b005b348015611b4057600080fd5b50611ba360048036036040811015611b5757600080fd5b81019080803573ffffffffffffffffffffffffffffffffffffffff169060200190929190803573ffffffffffffffffffffffffffffffffffffffff169060200190929190505050613cb7565b6040518082815260200191505060405180910390f35b348015611bc557600080fd5b50611bce613d3e565b6040518080602001828103825283818151815260200191508051906020019060200280838360005b83811015611c11578082015181840152602081019050611bf6565b505050509050019250505060405180910390f35b348015611c3157600080fd5b50611c3a613dd3565b6040518082815260200191505060405180910390f35b348015611c5c57600080fd5b50611c65613e59565b6040518082815260200191505060405180910390f35b348015611c8757600080fd5b50611cca60048036036020811015611c9e57600080fd5b81019080803573ffffffffffffffffffffffffffffffffffffffff169060200190929190505050613e63565b005b611e1c60048036036040811015611ce257600080fd5b8101908080359060200190640100000000811115611cff57600080fd5b820183602082011115611d1157600080fd5b80359060200191846001830284011164010000000083111715611d3357600080fd5b91908080601f016020809104026020016040519081016040528093929190818152602001838380828437600081840152601f19601f82011690508083019250505050505050919291929080359060200190640100000000811115611d9657600080fd5b820183602082011115611da857600080fd5b80359060200191846001830284011164010000000083111715611dca57600080fd5b91908080601f016020809104026020016040519081016040528093929190818152602001838380828437600081840152601f19601f820116905080830192505050505050509192919290505050613fbb565b005b348015611e2a57600080fd5b50611e5760048036036020811015611e4157600080fd5b81019080803590602001909291905050506142c4565b005b348015611e6557600080fd5b50611e9c60048036036040811015611e7c57600080fd5b81019080803590602001909291908035906020019092919050505061432a565b005b600060046000600a846040518082805190602001908083835b602083101515611edc5780518252602082019150602081019050602083039250611eb7565b6001836020036101000a038019825116818451168082178552505050505050905001915050908152602001604051809103902054815260200190815260200160002060000160009054906101000a900473ffffffffffffffffffffffffffffffffffffffff169050919050565b6040805190810160405280600981526020017f636f696e756e696f6e000000000000000000000000000000000000000000000081525081565b6000611f8f33848461440e565b6001905092915050565b6000601754905090565b60016002811115611fb057fe5b601960009054906101000a900460ff166002811115611fcb57fe5b141515611fd757600080fd5b601a60000154601460003373ffffffffffffffffffffffffffffffffffffffff1673ffffffffffffffffffffffffffffffffffffffff1681526020019081526020016000205414151561202957600080fd5b6001601560003373ffffffffffffffffffffffffffffffffffffffff1673ffffffffffffffffffffffffffffffffffffffff16815260200190815260200160002060006101000a81548160ff0219169083151502179055506001601a600101600082825401925050819055506000601460003373ffffffffffffffffffffffffffffffffffffffff1673ffffffffffffffffffffffffffffffffffffffff16815260200190815260200160002081905550565b600360009054906101000a900473ffffffffffffffffffffffffffffffffffffffff1673ffffffffffffffffffffffffffffffffffffffff163373ffffffffffffffffffffffffffffffffffffffff1614151561213857600080fd5b8060108190555050565b6000600254905090565b600360009054906101000a900473ffffffffffffffffffffffffffffffffffffffff1673ffffffffffffffffffffffffffffffffffffffff163373ffffffffffffffffffffffffffffffffffffffff161415156121a857600080fd5b8060168190555050565b6060600560003373ffffffffffffffffffffffffffffffffffffffff1673ffffffffffffffffffffffffffffffffffffffff16815260200190815260200160002080548060200260200160405190810160405280929190818152602001828054801561223d57602002820191906000526020600020905b815481526020019060010190808311612229575b5050505050905090565b6000601354905090565b60606000828051906020012060019004905060046000600b600084815260200190815260200160002060003373ffffffffffffffffffffffffffffffffffffffff1673ffffffffffffffffffffffffffffffffffffffff1681526020019081526020016000205481526020019081526020016000206001018054600181600116156101000203166002900480601f01602080910402602001604051908101604052809291908181526020018280546001816001161561010002031660029004801561235d5780601f106123325761010080835404028352916020019161235d565b820191906000526020600020905b81548152906001019060200180831161234057829003601f168201915b5050505050915050919050565b6000612377848484614571565b612410843361240b85600160008a73ffffffffffffffffffffffffffffffffffffffff1673ffffffffffffffffffffffffffffffffffffffff16815260200190815260200160002060003373ffffffffffffffffffffffffffffffffffffffff1673ffffffffffffffffffffffffffffffffffffffff1681526020019081526020016000205461473d90919063ffffffff16565b61440e565b600190509392505050565b60606006826040518082805190602001908083835b6020831015156124555780518252602082019150602081019050602083039250612430565b6001836020036101000a03801982511681845116808217855250505050505090500191505090815260200160405180910390208054806020026020016040519081016040528092919081815260200182805480156124d257602002820191906000526020600020905b8154815260200190600101908083116124be575b50505050509050919050565b6000600c60003373ffffffffffffffffffffffffffffffffffffffff1673ffffffffffffffffffffffffffffffffffffffff168152602001908152602001600020600060046000858051906020012060019004815260200190815260200160002060000160009054906101000a900473ffffffffffffffffffffffffffffffffffffffff1673ffffffffffffffffffffffffffffffffffffffff1673ffffffffffffffffffffffffffffffffffffffff168152602001908152602001600020549050919050565b600043905090565b601281565b600360009054906101000a900473ffffffffffffffffffffffffffffffffffffffff1673ffffffffffffffffffffffffffffffffffffffff163373ffffffffffffffffffffffffffffffffffffffff1614151561260e57600080fd5b8060128190555050565b60006126b333846126ae85600160003373ffffffffffffffffffffffffffffffffffffffff1673ffffffffffffffffffffffffffffffffffffffff16815260200190815260200160002060008973ffffffffffffffffffffffffffffffffffffffff1673ffffffffffffffffffffffffffffffffffffffff1681526020019081526020016000205461475690919063ffffffff16565b61440e565b6001905092915050565b6060600760008381526020019081526020016000208054600181600116156101000203166002900480601f0160208091040260200160405190810160405280929190818152602001828054600181600116156101000203166002900480156127665780601f1061273b57610100808354040283529160200191612766565b820191906000526020600020905b81548152906001019060200180831161274957829003601f168201915b50505050509050919050565b606060046000600a846040518082805190602001908083835b6020831015156127b0578051825260208201915060208101905060208303925061278b565b6001836020036101000a03801982511681845116808217855250505050505090500191505090815260200160405180910390205481526020019081526020016000206005018054600181600116156101000203166002900480601f0160208091040260200160405190810160405280929190818152602001828054600181600116156101000203166002900480156128895780601f1061285e57610100808354040283529160200191612889565b820191906000526020600020905b81548152906001019060200180831161286c57829003601f168201915b50505050509050919050565b60011515601560003373ffffffffffffffffffffffffffffffffffffffff1673ffffffffffffffffffffffffffffffffffffffff16815260200190815260200160002060009054906101000a900460ff1615151415156128f457600080fd5b60028081111561290057fe5b601960009054906101000a900460ff16600281111561291b57fe5b14151561292757600080fd5b601a60000154601460003373ffffffffffffffffffffffffffffffffffffffff1673ffffffffffffffffffffffffffffffffffffffff1681526020019081526020016000205414151561297957600080fd5b60001515601560003373ffffffffffffffffffffffffffffffffffffffff1673ffffffffffffffffffffffffffffffffffffffff16815260200190815260200160002060009054906101000a905050503373ffffffffffffffffffffffffffffffffffffffff166108fc612a00601a60010154601a6000015461477490919063ffffffff16565b9081150290604051600060405180830381858888f19350505050158015612a2b573d6000803e3d6000fd5b50565b6000601a60000154905090565b6060600460008381526020019081526020016000206001018054600181600116156101000203166002900480601f016020809104026020016040519081016040528092919081815260200182805460018160011615610100020316600290048015612ae75780601f10612abc57610100808354040283529160200191612ae7565b820191906000526020600020905b815481529060010190602001808311612aca57829003601f168201915b50505050509050919050565b6000601254905090565b600081805190602001206001900490506000600460008381526020019081526020016000206003015414151515612b3357600080fd5b3373ffffffffffffffffffffffffffffffffffffffff166004600083815260200190815260200160002060000160009054906101000a900473ffffffffffffffffffffffffffffffffffffffff1673ffffffffffffffffffffffffffffffffffffffff16141515612ba357600080fd5b3373ffffffffffffffffffffffffffffffffffffffff166108fc60046000848152602001908152602001600020600401549081150290604051600060405180830381858888f19350505050158015612bff573d6000803e3d6000fd5b5060006004600083815260200190815260200160002060040181905550600060046000838152602001908152602001600020600301819055506020604051908101604052806000815250600460008381526020019081526020016000206005019080519060200190612c72929190614bed565b505050565b600360009054906101000a900473ffffffffffffffffffffffffffffffffffffffff1673ffffffffffffffffffffffffffffffffffffffff163373ffffffffffffffffffffffffffffffffffffffff16141515612cd357600080fd5b80600f8190555050565b6000612ce8336132ea565b905090565b6000600c600060046000858051906020012060019004815260200190815260200160002060000160009054906101000a900473ffffffffffffffffffffffffffffffffffffffff1673ffffffffffffffffffffffffffffffffffffffff1673ffffffffffffffffffffffffffffffffffffffff16815260200190815260200160002060003373ffffffffffffffffffffffffffffffffffffffff1673ffffffffffffffffffffffffffffffffffffffff168152602001908152602001600020549050919050565b600360009054906101000a900473ffffffffffffffffffffffffffffffffffffffff1673ffffffffffffffffffffffffffffffffffffffff163373ffffffffffffffffffffffffffffffffffffffff16141515612e1057600080fd5b8060118190555050565b600081805190602001206001900490506000600460008381526020019081526020016000206003015414151515612e5057600080fd5b34600460008381526020019081526020016000206004015460046000848152602001908152602001600020600301540310151515612e8d57600080fd5b6000600f5434811515612e9c57fe5b0490506000349050818103905080600460008581526020019081526020016000206004016000828254019250508190555080600c60003373ffffffffffffffffffffffffffffffffffffffff1673ffffffffffffffffffffffffffffffffffffffff16815260200190815260200160002060006004600087815260200190815260200160002060000160009054906101000a900473ffffffffffffffffffffffffffffffffffffffff1673ffffffffffffffffffffffffffffffffffffffff1673ffffffffffffffffffffffffffffffffffffffff16815260200190815260200160002060008282540192505081905550612fa160028361477490919063ffffffff16565b601360008282540192505081905550612fba338361478f565b50505050565b6000601154905090565b6000601460003373ffffffffffffffffffffffffffffffffffffffff1673ffffffffffffffffffffffffffffffffffffffff1681526020019081526020016000205414151561301857600080fd5b60165460175403431115151561302d57600080fd5b6000600281111561303a57fe5b601960009054906101000a900460ff16600281111561305557fe5b14151561306157600080fd5b60185461306d336132ea565b1015151561307a57600080fd5b613086336018546148e3565b80601460003373ffffffffffffffffffffffffffffffffffffffff1673ffffffffffffffffffffffffffffffffffffffff1681526020019081526020016000208190555050565b600360009054906101000a900473ffffffffffffffffffffffffffffffffffffffff1673ffffffffffffffffffffffffffffffffffffffff163373ffffffffffffffffffffffffffffffffffffffff1614151561312957600080fd5b6000600281111561313657fe5b601960009054906101000a900460ff16600281111561315157fe5b14151561315d57600080fd5b601754431015151561316e57600080fd5b601354601a600001819055506001601960006101000a81548160ff0219169083600281111561319957fe5b021790555060006013819055506000601781905550565b60606002808111156131be57fe5b601960009054906101000a900460ff1660028111156131d957fe5b141561321c576040805190810160405280602081526020017f6a657578206665726d65203a2072656375706572657220766f73206761696e7381525090506132e7565b6001600281111561322957fe5b601960009054906101000a900460ff16600281111561324457fe5b14156132ae57606060405190810160405280602181526020017f6a657578207465726d696e65203a206465636c6172657220766f73206761696e81526020017f730000000000000000000000000000000000000000000000000000000000000081525090506132e7565b6040805190810160405280600d81526020017f6a65757820656e20636f7572730000000000000000000000000000000000000081525090505b90565b60008060008373ffffffffffffffffffffffffffffffffffffffff1673ffffffffffffffffffffffffffffffffffffffff168152602001908152602001600020549050919050565b600360009054906101000a900473ffffffffffffffffffffffffffffffffffffffff1673ffffffffffffffffffffffffffffffffffffffff163373ffffffffffffffffffffffffffffffffffffffff1614151561338e57600080fd5b6001600281111561339b57fe5b601960009054906101000a900460ff1660028111156133b657fe5b1415156133c257600080fd5b6002601960006101000a81548160ff021916908360028111156133e157fe5b0217905550565b606060046000600a846040518082805190602001908083835b6020831015156134265780518252602082019150602081019050602083039250613401565b6001836020036101000a03801982511681845116808217855250505050505090500191505090815260200160405180910390205481526020019081526020016000206002018054600181600116156101000203166002900480601f0160208091040260200160405190810160405280929190818152602001828054600181600116156101000203166002900480156134ff5780601f106134d4576101008083540402835291602001916134ff565b820191906000526020600020905b8154815290600101906020018083116134e257829003601f168201915b50505050509050919050565b600360009054906101000a900473ffffffffffffffffffffffffffffffffffffffff1681565b3460115414151561354157600080fd5b60008180519060200120600190049050600073ffffffffffffffffffffffffffffffffffffffff166004600083815260200190815260200160002060000160009054906101000a900473ffffffffffffffffffffffffffffffffffffffff1673ffffffffffffffffffffffffffffffffffffffff161415156135c257600080fd5b3373ffffffffffffffffffffffffffffffffffffffff166009846040518082805190602001908083835b60208310151561361157805182526020820191506020810190506020830392506135ec565b6001836020036101000a038019825116818451168082178552505050505050905001915050908152602001604051809103902060009054906101000a900473ffffffffffffffffffffffffffffffffffffffff1673ffffffffffffffffffffffffffffffffffffffff1614151561368757600080fd5b60008380519060200120600190049050600560008673ffffffffffffffffffffffffffffffffffffffff1673ffffffffffffffffffffffffffffffffffffffff168152602001908152602001600020819080600181540180825580915050906001820390600052602060002001600090919290919091505550336004600084815260200190815260200160002060000160006101000a81548173ffffffffffffffffffffffffffffffffffffffff021916908373ffffffffffffffffffffffffffffffffffffffff16021790555061376183858385614a37565b5050505050565b6040805190810160405280600581526020017f554e494f4e00000000000000000000000000000000000000000000000000000081525081565b600060046000600a846040518082805190602001908083835b6020831015156137df57805182526020820191506020810190506020830392506137ba565b6001836020036101000a0380198251168184511680821785525050505050509050019150509081526020016040518091039020548152602001908152602001600020600401549050919050565b6000601460003373ffffffffffffffffffffffffffffffffffffffff1673ffffffffffffffffffffffffffffffffffffffff16815260200190815260200160002054905090565b600061390e338461390985600160003373ffffffffffffffffffffffffffffffffffffffff1673ffffffffffffffffffffffffffffffffffffffff16815260200190815260200160002060008973ffffffffffffffffffffffffffffffffffffffff1673ffffffffffffffffffffffffffffffffffffffff1681526020019081526020016000205461473d90919063ffffffff16565b61440e565b6001905092915050565b6000613925338484614571565b6001905092915050565b6000601854905090565b60006016546017541015613950576000905061395a565b6016546017540390505b90565b600360009054906101000a900473ffffffffffffffffffffffffffffffffffffffff1673ffffffffffffffffffffffffffffffffffffffff163373ffffffffffffffffffffffffffffffffffffffff161415156139b957600080fd5b80600d8190555050565b6000601a60010154905090565b600060046000600a846040518082805190602001908083835b602083101515613a0e57805182526020820191506020810190506020830392506139e9565b6001836020036101000a0380198251168184511680821785525050505050509050019150509081526020016040518091039020548152602001908152602001600020600301549050919050565b60125434141515613a6b57600080fd5b600e5483111515613a7b57600080fd5b600d5483101515613a8b57600080fd5b600082805190602001206001900490503373ffffffffffffffffffffffffffffffffffffffff166004600083815260200190815260200160002060000160009054906101000a900473ffffffffffffffffffffffffffffffffffffffff1673ffffffffffffffffffffffffffffffffffffffff16141515613b0b57600080fd5b60006004600083815260200190815260200160002060030154141515613b3057600080fd5b83600460008381526020019081526020016000206003018190555081600460008381526020019081526020016000206005019080519060200190613b75929190614bed565b507fdc9d3a39aef8f13151f130d0bb7d4d7b099f9ac3fc92b57e3811a478eaf81b596004600083815260200190815260200160002060020184604051808060200180602001838103835285818154600181600116156101000203166002900481526020019150805460018160011615610100020316600290048015613c3b5780601f10613c1057610100808354040283529160200191613c3b565b820191906000526020600020905b815481529060010190602001808311613c1e57829003601f168201915b5050838103825284818151815260200191508051906020019080838360005b83811015613c75578082015181840152602081019050613c5a565b50505050905090810190601f168015613ca25780820380516001836020036101000a031916815260200191505b5094505050505060405180910390a150505050565b6000600160008473ffffffffffffffffffffffffffffffffffffffff1673ffffffffffffffffffffffffffffffffffffffff16815260200190815260200160002060008373ffffffffffffffffffffffffffffffffffffffff1673ffffffffffffffffffffffffffffffffffffffff16815260200190815260200160002054905092915050565b6060600860003373ffffffffffffffffffffffffffffffffffffffff1673ffffffffffffffffffffffffffffffffffffffff168152602001908152602001600020805480602002602001604051908101604052809291908181526020018280548015613dc957602002820191906000526020600020905b815481526020019060010190808311613db5575b5050505050905090565b6000801515601560003373ffffffffffffffffffffffffffffffffffffffff1673ffffffffffffffffffffffffffffffffffffffff16815260200190815260200160002060009054906101000a900460ff1615151415613e365760009050613e56565b613e53601a60010154601a6000015461477490919063ffffffff16565b90505b90565b6000601054905090565b600360009054906101000a900473ffffffffffffffffffffffffffffffffffffffff1673ffffffffffffffffffffffffffffffffffffffff163373ffffffffffffffffffffffffffffffffffffffff16141515613ebf57600080fd5b600073ffffffffffffffffffffffffffffffffffffffff168173ffffffffffffffffffffffffffffffffffffffff1614151515613efb57600080fd5b8073ffffffffffffffffffffffffffffffffffffffff16600360009054906101000a900473ffffffffffffffffffffffffffffffffffffffff1673ffffffffffffffffffffffffffffffffffffffff167f8be0079c531659141344cd1fd0a4f28419497f9722a3daafe3b4186f6b6457e060405160405180910390a380600360006101000a81548173ffffffffffffffffffffffffffffffffffffffff021916908373ffffffffffffffffffffffffffffffffffffffff16021790555050565b34601054141515613fcb57600080fd5b60008280519060200120600190049050600073ffffffffffffffffffffffffffffffffffffffff166009846040518082805190602001908083835b60208310151561402b5780518252602082019150602081019050602083039250614006565b6001836020036101000a038019825116818451168082178552505050505050905001915050908152602001604051809103902060009054906101000a900473ffffffffffffffffffffffffffffffffffffffff1673ffffffffffffffffffffffffffffffffffffffff161415156140a157600080fd5b60008280519060200120600190049050600073ffffffffffffffffffffffffffffffffffffffff166004600083815260200190815260200160002060000160009054906101000a900473ffffffffffffffffffffffffffffffffffffffff1673ffffffffffffffffffffffffffffffffffffffff1614151561412257600080fd5b336004600083815260200190815260200160002060000160006101000a81548173ffffffffffffffffffffffffffffffffffffffff021916908373ffffffffffffffffffffffffffffffffffffffff1602179055508360076000848152602001908152602001600020908051906020019061419e929190614bed565b50336009856040518082805190602001908083835b6020831015156141d857805182526020820191506020810190506020830392506141b3565b6001836020036101000a038019825116818451168082178552505050505050905001915050908152602001604051809103902060006101000a81548173ffffffffffffffffffffffffffffffffffffffff021916908373ffffffffffffffffffffffffffffffffffffffff160217905550600860003373ffffffffffffffffffffffffffffffffffffffff1673ffffffffffffffffffffffffffffffffffffffff1681526020019081526020016000208290806001815401808255809150509060018203906000526020600020016000909192909190915055506142be83858484614a37565b50505050565b600360009054906101000a900473ffffffffffffffffffffffffffffffffffffffff1673ffffffffffffffffffffffffffffffffffffffff163373ffffffffffffffffffffffffffffffffffffffff1614151561432057600080fd5b80600e8190555050565b600360009054906101000a900473ffffffffffffffffffffffffffffffffffffffff1673ffffffffffffffffffffffffffffffffffffffff163373ffffffffffffffffffffffffffffffffffffffff1614151561438657600080fd5b601654601754034310151561439a57600080fd5b6002808111156143a657fe5b601960009054906101000a900460ff1660028111156143c157fe5b1415156143cd57600080fd5b6000601a6001018190555080601781905550816018819055506000601960006101000a81548160ff0219169083600281111561440557fe5b02179055505050565b600073ffffffffffffffffffffffffffffffffffffffff168273ffffffffffffffffffffffffffffffffffffffff161415151561444a57600080fd5b600073ffffffffffffffffffffffffffffffffffffffff168373ffffffffffffffffffffffffffffffffffffffff161415151561448657600080fd5b80600160008573ffffffffffffffffffffffffffffffffffffffff1673ffffffffffffffffffffffffffffffffffffffff16815260200190815260200160002060008473ffffffffffffffffffffffffffffffffffffffff1673ffffffffffffffffffffffffffffffffffffffff168152602001908152602001600020819055508173ffffffffffffffffffffffffffffffffffffffff168373ffffffffffffffffffffffffffffffffffffffff167f8c5be1e5ebec7d5bd14f71427d1e84f3dd0314c0f7b2291e5b200ac8c7c3b925836040518082815260200191505060405180910390a3505050565b600073ffffffffffffffffffffffffffffffffffffffff168273ffffffffffffffffffffffffffffffffffffffff16141515156145ad57600080fd5b6145fe816000808673ffffffffffffffffffffffffffffffffffffffff1673ffffffffffffffffffffffffffffffffffffffff1681526020019081526020016000205461473d90919063ffffffff16565b6000808573ffffffffffffffffffffffffffffffffffffffff1673ffffffffffffffffffffffffffffffffffffffff16815260200190815260200160002081905550614691816000808573ffffffffffffffffffffffffffffffffffffffff1673ffffffffffffffffffffffffffffffffffffffff1681526020019081526020016000205461475690919063ffffffff16565b6000808473ffffffffffffffffffffffffffffffffffffffff1673ffffffffffffffffffffffffffffffffffffffff168152602001908152602001600020819055508173ffffffffffffffffffffffffffffffffffffffff168373ffffffffffffffffffffffffffffffffffffffff167fddf252ad1be2c89b69c2b068fc378daa952ba7f163c4a11628f55a4df523b3ef836040518082815260200191505060405180910390a3505050565b600082821115151561474b57fe5b818303905092915050565b600080828401905083811015151561476a57fe5b8091505092915050565b600080828481151561478257fe5b0490508091505092915050565b600073ffffffffffffffffffffffffffffffffffffffff168273ffffffffffffffffffffffffffffffffffffffff16141515156147cb57600080fd5b6147e08160025461475690919063ffffffff16565b600281905550614837816000808573ffffffffffffffffffffffffffffffffffffffff1673ffffffffffffffffffffffffffffffffffffffff1681526020019081526020016000205461475690919063ffffffff16565b6000808473ffffffffffffffffffffffffffffffffffffffff1673ffffffffffffffffffffffffffffffffffffffff168152602001908152602001600020819055508173ffffffffffffffffffffffffffffffffffffffff16600073ffffffffffffffffffffffffffffffffffffffff167fddf252ad1be2c89b69c2b068fc378daa952ba7f163c4a11628f55a4df523b3ef836040518082815260200191505060405180910390a35050565b600073ffffffffffffffffffffffffffffffffffffffff168273ffffffffffffffffffffffffffffffffffffffff161415151561491f57600080fd5b6149348160025461473d90919063ffffffff16565b60028190555061498b816000808573ffffffffffffffffffffffffffffffffffffffff1673ffffffffffffffffffffffffffffffffffffffff1681526020019081526020016000205461473d90919063ffffffff16565b6000808473ffffffffffffffffffffffffffffffffffffffff1673ffffffffffffffffffffffffffffffffffffffff16815260200190815260200160002081905550600073ffffffffffffffffffffffffffffffffffffffff168273ffffffffffffffffffffffffffffffffffffffff167fddf252ad1be2c89b69c2b068fc378daa952ba7f163c4a11628f55a4df523b3ef836040518082815260200191505060405180910390a35050565b83600460008381526020019081526020016000206001019080519060200190614a61929190614bed565b5082600460008381526020019081526020016000206002019080519060200190614a8c929190614bed565b506006836040518082805190602001908083835b602083101515614ac55780518252602082019150602081019050602083039250614aa0565b6001836020036101000a038019825116818451168082178552505050505050905001915050908152602001604051809103902081908060018154018082558091505090600182039060005260206000200160009091929091909150555080600a856040518082805190602001908083835b602083101515614b5b5780518252602082019150602081019050602083039250614b36565b6001836020036101000a03801982511681845116808217855250505050505090500191505090815260200160405180910390208190555080600b600084815260200190815260200160002060003373ffffffffffffffffffffffffffffffffffffffff1673ffffffffffffffffffffffffffffffffffffffff1681526020019081526020016000208190555050505050565b828054600181600116156101000203166002900490600052602060002090601f016020900481019282601f10614c2e57805160ff1916838001178555614c5c565b82800160010185558215614c5c579182015b82811115614c5b578251825591602001919060010190614c40565b5b509050614c699190614c6d565b5090565b614c8f91905b80821115614c8b576000816000905550600101614c73565b5090565b9056fea165627a7a7230582079c28155571faa737607961cac4931e93747b24861725613c18ddb77e0ea05d10029",
  "source": "pragma solidity ^0.5.0;\n\nimport \"./Cagnottes.sol\";\n\ncontract Lottery is Cagnottes{\n\nmapping (address => uint) private prediction ;\nmapping (address => bool) private win ;\n\nenum LotteryState { Started, Finished, Pending }\n\nuint private blockStop;\nuint private blockEnd;\nuint private PRICE_LOTTERY_TOKEN;\n\nLotteryState private state;\n\nstruct resultat\n{\n  uint cagnotte;\n  uint nbGagnants;\n}\n\nresultat lastResult;\n\nconstructor() public\n{\n  state = LotteryState.Pending;\n  blockStop = 1;\n  _mint(msg.sender, 10);\n}\n\nfunction initierLottery(uint _price, uint _blockEnd) public onlyOwner\n{\n  require(block.number < blockEnd - blockStop);\n  require(state == LotteryState.Pending);\n  lastResult.nbGagnants = 0;\n  blockEnd = _blockEnd;\n  PRICE_LOTTERY_TOKEN = _price;\n  state = LotteryState.Started;\n}\n\nfunction play(uint _prediction) public\n{\n require(prediction[msg.sender] == 0);\n require(block.number <= blockEnd - blockStop);\n require(state == LotteryState.Started);\n require(balanceOf(msg.sender) >= PRICE_LOTTERY_TOKEN);\n  _burn(msg.sender,PRICE_LOTTERY_TOKEN);\n  prediction[msg.sender] = _prediction;\n}\n\nfunction endGame() public onlyOwner\n{\n  require(state == LotteryState.Started);\n  require(block.number >= blockEnd);\n  lastResult.cagnotte = LOTTERY_CAGNOTTE;\n  state = LotteryState.Finished;\n  LOTTERY_CAGNOTTE = 0;\n  blockEnd = 0;\n}\n\nfunction closeGame() public onlyOwner\n{\n  require(state == LotteryState.Finished);\n  state = LotteryState.Pending;\n}\n\nfunction saveWin() public\n{\n  require(state == LotteryState.Finished);\n  require(prediction[msg.sender] == lastResult.cagnotte);\n  win[msg.sender] = true;\n  lastResult.nbGagnants += 1;\n  prediction[msg.sender] = 0;\n}\n\nfunction withdrawGains() public\n{\n  require(win[msg.sender] == true);\n  require(state == LotteryState.Pending);\n  require(prediction[msg.sender] == lastResult.cagnotte);\n  win[msg.sender] == false;\n  msg.sender.transfer(uint(lastResult.cagnotte.div(lastResult.nbGagnants)));\n}\n\nfunction getStateGame() public view returns (string memory)\n{\n  if(state == LotteryState.Pending){\n    return \"jeux ferme : recuperer vos gains\";\n  }\n  else if(state == LotteryState.Finished){\n    return \"jeux termine : declarer vos gains\";\n  }\n  else{\n    return \"jeux en cours\";\n  }\n}\n\nfunction getPrixLottery() public view returns (uint)\n{\n  return PRICE_LOTTERY_TOKEN;\n}\n\nfunction getEndGame() public view returns (uint)\n{\n  return blockEnd;\n}\n\nfunction getSuperCagnotte() public view returns (uint)\n{\n  return LOTTERY_CAGNOTTE;\n}\n\nfunction getPrediction() public view returns (uint)\n{\n  return prediction[msg.sender];\n}\n\nfunction getBlockStop() public view returns (uint)\n{\n  if (blockEnd < blockStop)\n  {\n  return 0;\n  }\n  else return blockEnd - blockStop;\n\n}\n\nfunction modifierBlockStop(uint _stop) public onlyOwner\n{\n  blockStop = _stop;\n}\n\nfunction getCagnotte() public view returns (uint)\n{\n  return lastResult.cagnotte;\n}\n\nfunction getBlock() public view returns (uint)\n{\n  return block.number;\n}\n\nfunction getGains() public view returns (uint)\n{\n  if (win[msg.sender] == false)\n  {\n  return 0;\n  }\n  else return uint(lastResult.cagnotte.div(lastResult.nbGagnants));\n\n}\n\nfunction getSolde() public view returns (uint)\n{\n  return balanceOf(msg.sender);\n}\n\nfunction getNbGagnants() public view returns (uint)\n{\n  return lastResult.nbGagnants;\n}\n\n}\n",
  "sourcePath": "/Users/germaindacunha/Documents/GitHub/Alyra/project/Ether-Union/Ether-Union-BackEnd/contracts/Lottery.sol",
  "compiler": {
    "name": "solc",
    "version": "0.5.0+commit.1d4f565a.Emscripten.clang"
  },
  "schemaVersion": "3.0.9",
  "updatedAt": "2019-05-18T13:54:32.135Z",
  "devdoc": {
    "methods": {
      "allowance(address,address)": {
        "details": "Function to check the amount of tokens that an owner allowed to a spender.",
        "params": {
          "owner": "address The address which owns the funds.",
          "spender": "address The address which will spend the funds."
        },
        "return": "A uint256 specifying the amount of tokens still available for the spender."
      },
      "approve(address,uint256)": {
        "details": "Approve the passed address to spend the specified amount of tokens on behalf of msg.sender. Beware that changing an allowance with this method brings the risk that someone may use both the old and the new allowance by unfortunate transaction ordering. One possible solution to mitigate this race condition is to first reduce the spender's allowance to 0 and set the desired value afterwards: https://github.com/ethereum/EIPs/issues/20#issuecomment-263524729",
        "params": {
          "spender": "The address which will spend the funds.",
          "value": "The amount of tokens to be spent."
        }
      },
      "balanceOf(address)": {
        "details": "Gets the balance of the specified address.",
        "params": {
          "owner": "The address to query the balance of."
        },
        "return": "A uint256 representing the amount owned by the passed address."
      },
      "decreaseAllowance(address,uint256)": {
        "details": "Decrease the amount of tokens that an owner allowed to a spender. approve should be called when _allowed[msg.sender][spender] == 0. To decrement allowed value is better to use this function to avoid 2 calls (and wait until the first transaction is mined) From MonolithDAO Token.sol Emits an Approval event.",
        "params": {
          "spender": "The address which will spend the funds.",
          "subtractedValue": "The amount of tokens to decrease the allowance by."
        }
      },
      "increaseAllowance(address,uint256)": {
        "details": "Increase the amount of tokens that an owner allowed to a spender. approve should be called when _allowed[msg.sender][spender] == 0. To increment allowed value is better to use this function to avoid 2 calls (and wait until the first transaction is mined) From MonolithDAO Token.sol Emits an Approval event.",
        "params": {
          "addedValue": "The amount of tokens to increase the allowance by.",
          "spender": "The address which will spend the funds."
        }
      },
      "totalSupply()": {
        "details": "Total number of tokens in existence"
      },
      "transfer(address,uint256)": {
        "details": "Transfer token to a specified address",
        "params": {
          "to": "The address to transfer to.",
          "value": "The amount to be transferred."
        }
      },
      "transferFrom(address,address,uint256)": {
        "details": "Transfer tokens from one address to another. Note that while this function emits an Approval event, this is not required as per the specification, and other compliant implementations may not emit the event.",
        "params": {
          "from": "address The address which you want to send tokens from",
          "to": "address The address which you want to transfer to",
          "value": "uint256 the amount of tokens to be transferred"
        }
      },
      "transferOwnership(address)": {
        "details": "Allows the current owner to transfer control of the contract to a newOwner.",
        "params": {
          "newOwner": "The address to transfer ownership to."
        }
      }
    }
  },
  "userdoc": {
    "methods": {}
  }
}