{
  "contractName": "Lottery",
  "abi": [
    {
      "constant": true,
      "inputs": [
        {
          "name": "_pseudo",
          "type": "string"
        }
      ],
      "name": "getAddresse",
      "outputs": [
        {
          "name": "",
          "type": "address"
        }
      ],
      "payable": false,
      "stateMutability": "view",
      "type": "function"
    },
    {
      "constant": true,
      "inputs": [],
      "name": "name",
      "outputs": [
        {
          "name": "",
          "type": "string"
        }
      ],
      "payable": false,
      "stateMutability": "view",
      "type": "function"
    },
    {
      "constant": false,
      "inputs": [
        {
          "name": "spender",
          "type": "address"
        },
        {
          "name": "value",
          "type": "uint256"
        }
      ],
      "name": "approve",
      "outputs": [
        {
          "name": "",
          "type": "bool"
        }
      ],
      "payable": false,
      "stateMutability": "nonpayable",
      "type": "function"
    },
    {
      "constant": false,
      "inputs": [
        {
          "name": "_priceGroup",
          "type": "uint256"
        }
      ],
      "name": "modifierPriceGroup",
      "outputs": [],
      "payable": false,
      "stateMutability": "nonpayable",
      "type": "function"
    },
    {
      "constant": true,
      "inputs": [],
      "name": "totalSupply",
      "outputs": [
        {
          "name": "",
          "type": "uint256"
        }
      ],
      "payable": false,
      "stateMutability": "view",
      "type": "function"
    },
    {
      "constant": true,
      "inputs": [],
      "name": "getGroupesPerAddress",
      "outputs": [
        {
          "name": "",
          "type": "uint256[]"
        }
      ],
      "payable": false,
      "stateMutability": "view",
      "type": "function"
    },
    {
      "constant": true,
      "inputs": [
        {
          "name": "_groupe",
          "type": "string"
        }
      ],
      "name": "getPseudoInGroup",
      "outputs": [
        {
          "name": "",
          "type": "string"
        }
      ],
      "payable": false,
      "stateMutability": "view",
      "type": "function"
    },
    {
      "constant": false,
      "inputs": [
        {
          "name": "from",
          "type": "address"
        },
        {
          "name": "to",
          "type": "address"
        },
        {
          "name": "value",
          "type": "uint256"
        }
      ],
      "name": "transferFrom",
      "outputs": [
        {
          "name": "",
          "type": "bool"
        }
      ],
      "payable": false,
      "stateMutability": "nonpayable",
      "type": "function"
    },
    {
      "constant": true,
      "inputs": [
        {
          "name": "_groupe",
          "type": "string"
        }
      ],
      "name": "getMembres",
      "outputs": [
        {
          "name": "",
          "type": "uint256[]"
        }
      ],
      "payable": false,
      "stateMutability": "view",
      "type": "function"
    },
    {
      "constant": true,
      "inputs": [
        {
          "name": "_pseudo",
          "type": "string"
        }
      ],
      "name": "getDonnations",
      "outputs": [
        {
          "name": "",
          "type": "uint256"
        }
      ],
      "payable": false,
      "stateMutability": "view",
      "type": "function"
    },
    {
      "constant": true,
      "inputs": [],
      "name": "decimals",
      "outputs": [
        {
          "name": "",
          "type": "uint32"
        }
      ],
      "payable": false,
      "stateMutability": "view",
      "type": "function"
    },
    {
      "constant": false,
      "inputs": [
        {
          "name": "_priceChannel",
          "type": "uint256"
        }
      ],
      "name": "modifierPriceChannel",
      "outputs": [],
      "payable": false,
      "stateMutability": "nonpayable",
      "type": "function"
    },
    {
      "constant": false,
      "inputs": [
        {
          "name": "spender",
          "type": "address"
        },
        {
          "name": "addedValue",
          "type": "uint256"
        }
      ],
      "name": "increaseAllowance",
      "outputs": [
        {
          "name": "",
          "type": "bool"
        }
      ],
      "payable": false,
      "stateMutability": "nonpayable",
      "type": "function"
    },
    {
      "constant": true,
      "inputs": [
        {
          "name": "_ID",
          "type": "uint256"
        }
      ],
      "name": "getNomGroupe",
      "outputs": [
        {
          "name": "",
          "type": "string"
        }
      ],
      "payable": false,
      "stateMutability": "view",
      "type": "function"
    },
    {
      "constant": true,
      "inputs": [
        {
          "name": "_pseudo",
          "type": "string"
        }
      ],
      "name": "getDescription",
      "outputs": [
        {
          "name": "",
          "type": "string"
        }
      ],
      "payable": false,
      "stateMutability": "view",
      "type": "function"
    },
    {
      "constant": true,
      "inputs": [
        {
          "name": "_ID",
          "type": "uint256"
        }
      ],
      "name": "getNomMembre",
      "outputs": [
        {
          "name": "",
          "type": "string"
        }
      ],
      "payable": false,
      "stateMutability": "view",
      "type": "function"
    },
    {
      "constant": true,
      "inputs": [],
      "name": "getPriceChannel",
      "outputs": [
        {
          "name": "",
          "type": "uint256"
        }
      ],
      "payable": false,
      "stateMutability": "view",
      "type": "function"
    },
    {
      "constant": false,
      "inputs": [
        {
          "name": "_pseudo",
          "type": "string"
        }
      ],
      "name": "fermetureCanal",
      "outputs": [],
      "payable": false,
      "stateMutability": "nonpayable",
      "type": "function"
    },
    {
      "constant": false,
      "inputs": [
        {
          "name": "_priceRatio",
          "type": "uint256"
        }
      ],
      "name": "modifierCharges",
      "outputs": [],
      "payable": false,
      "stateMutability": "nonpayable",
      "type": "function"
    },
    {
      "constant": true,
      "inputs": [
        {
          "name": "_pseudo",
          "type": "string"
        }
      ],
      "name": "getReceptions",
      "outputs": [
        {
          "name": "",
          "type": "uint256"
        }
      ],
      "payable": false,
      "stateMutability": "view",
      "type": "function"
    },
    {
      "constant": false,
      "inputs": [
        {
          "name": "_priceMember",
          "type": "uint256"
        }
      ],
      "name": "modifierPriceMember",
      "outputs": [],
      "payable": false,
      "stateMutability": "nonpayable",
      "type": "function"
    },
    {
      "constant": false,
      "inputs": [
        {
          "name": "_pseudo",
          "type": "string"
        }
      ],
      "name": "payerCanal",
      "outputs": [],
      "payable": true,
      "stateMutability": "payable",
      "type": "function"
    },
    {
      "constant": true,
      "inputs": [],
      "name": "getPriceMember",
      "outputs": [
        {
          "name": "",
          "type": "uint256"
        }
      ],
      "payable": false,
      "stateMutability": "view",
      "type": "function"
    },
    {
      "constant": true,
      "inputs": [
        {
          "name": "owner",
          "type": "address"
        }
      ],
      "name": "balanceOf",
      "outputs": [
        {
          "name": "",
          "type": "uint256"
        }
      ],
      "payable": false,
      "stateMutability": "view",
      "type": "function"
    },
    {
      "constant": true,
      "inputs": [
        {
          "name": "_pseudo",
          "type": "string"
        }
      ],
      "name": "getGroupe",
      "outputs": [
        {
          "name": "",
          "type": "string"
        }
      ],
      "payable": false,
      "stateMutability": "view",
      "type": "function"
    },
    {
      "constant": true,
      "inputs": [],
      "name": "owner",
      "outputs": [
        {
          "name": "",
          "type": "address"
        }
      ],
      "payable": false,
      "stateMutability": "view",
      "type": "function"
    },
    {
      "constant": false,
      "inputs": [
        {
          "name": "_membre",
          "type": "address"
        },
        {
          "name": "_groupe",
          "type": "string"
        },
        {
          "name": "_pseudo",
          "type": "string"
        }
      ],
      "name": "ajouterMembre",
      "outputs": [],
      "payable": true,
      "stateMutability": "payable",
      "type": "function"
    },
    {
      "constant": true,
      "inputs": [],
      "name": "symbol",
      "outputs": [
        {
          "name": "",
          "type": "string"
        }
      ],
      "payable": false,
      "stateMutability": "view",
      "type": "function"
    },
    {
      "constant": true,
      "inputs": [
        {
          "name": "_pseudo",
          "type": "string"
        }
      ],
      "name": "getEncours",
      "outputs": [
        {
          "name": "",
          "type": "uint256"
        }
      ],
      "payable": false,
      "stateMutability": "view",
      "type": "function"
    },
    {
      "constant": false,
      "inputs": [
        {
          "name": "spender",
          "type": "address"
        },
        {
          "name": "subtractedValue",
          "type": "uint256"
        }
      ],
      "name": "decreaseAllowance",
      "outputs": [
        {
          "name": "",
          "type": "bool"
        }
      ],
      "payable": false,
      "stateMutability": "nonpayable",
      "type": "function"
    },
    {
      "constant": false,
      "inputs": [
        {
          "name": "to",
          "type": "address"
        },
        {
          "name": "value",
          "type": "uint256"
        }
      ],
      "name": "transfer",
      "outputs": [
        {
          "name": "",
          "type": "bool"
        }
      ],
      "payable": false,
      "stateMutability": "nonpayable",
      "type": "function"
    },
    {
      "constant": false,
      "inputs": [
        {
          "name": "_maxAmount",
          "type": "uint256"
        }
      ],
      "name": "modifierMaxAmount",
      "outputs": [],
      "payable": false,
      "stateMutability": "nonpayable",
      "type": "function"
    },
    {
      "constant": true,
      "inputs": [
        {
          "name": "_pseudo",
          "type": "string"
        }
      ],
      "name": "getMontant",
      "outputs": [
        {
          "name": "",
          "type": "uint256"
        }
      ],
      "payable": false,
      "stateMutability": "view",
      "type": "function"
    },
    {
      "constant": false,
      "inputs": [
        {
          "name": "_montant",
          "type": "uint256"
        },
        {
          "name": "_pseudo",
          "type": "string"
        },
        {
          "name": "_description",
          "type": "string"
        }
      ],
      "name": "demander",
      "outputs": [],
      "payable": true,
      "stateMutability": "payable",
      "type": "function"
    },
    {
      "constant": true,
      "inputs": [
        {
          "name": "owner",
          "type": "address"
        },
        {
          "name": "spender",
          "type": "address"
        }
      ],
      "name": "allowance",
      "outputs": [
        {
          "name": "",
          "type": "uint256"
        }
      ],
      "payable": false,
      "stateMutability": "view",
      "type": "function"
    },
    {
      "constant": true,
      "inputs": [],
      "name": "getOwnedGroupe",
      "outputs": [
        {
          "name": "",
          "type": "uint256[]"
        }
      ],
      "payable": false,
      "stateMutability": "view",
      "type": "function"
    },
    {
      "constant": true,
      "inputs": [],
      "name": "getPriceGroup",
      "outputs": [
        {
          "name": "",
          "type": "uint256"
        }
      ],
      "payable": false,
      "stateMutability": "view",
      "type": "function"
    },
    {
      "constant": false,
      "inputs": [
        {
          "name": "newOwner",
          "type": "address"
        }
      ],
      "name": "transferOwnership",
      "outputs": [],
      "payable": false,
      "stateMutability": "nonpayable",
      "type": "function"
    },
    {
      "constant": false,
      "inputs": [
        {
          "name": "_nom",
          "type": "string"
        },
        {
          "name": "_pseudo",
          "type": "string"
        }
      ],
      "name": "creerGroupe",
      "outputs": [],
      "payable": true,
      "stateMutability": "payable",
      "type": "function"
    },
    {
      "constant": false,
      "inputs": [
        {
          "name": "_minAmount",
          "type": "uint256"
        }
      ],
      "name": "modifierMinAmount",
      "outputs": [],
      "payable": false,
      "stateMutability": "nonpayable",
      "type": "function"
    },
    {
      "inputs": [],
      "payable": false,
      "stateMutability": "nonpayable",
      "type": "constructor"
    },
    {
      "anonymous": false,
      "inputs": [
        {
          "indexed": false,
          "name": "groupe",
          "type": "string"
        },
        {
          "indexed": false,
          "name": "pseudo",
          "type": "string"
        }
      ],
      "name": "nouvelleDemamnde",
      "type": "event"
    },
    {
      "anonymous": false,
      "inputs": [
        {
          "indexed": true,
          "name": "previousOwner",
          "type": "address"
        },
        {
          "indexed": true,
          "name": "newOwner",
          "type": "address"
        }
      ],
      "name": "OwnershipTransferred",
      "type": "event"
    },
    {
      "anonymous": false,
      "inputs": [
        {
          "indexed": true,
          "name": "from",
          "type": "address"
        },
        {
          "indexed": true,
          "name": "to",
          "type": "address"
        },
        {
          "indexed": false,
          "name": "value",
          "type": "uint256"
        }
      ],
      "name": "Transfer",
      "type": "event"
    },
    {
      "anonymous": false,
      "inputs": [
        {
          "indexed": true,
          "name": "owner",
          "type": "address"
        },
        {
          "indexed": true,
          "name": "spender",
          "type": "address"
        },
        {
          "indexed": false,
          "name": "value",
          "type": "uint256"
        }
      ],
      "name": "Approval",
      "type": "event"
    },
    {
      "constant": false,
      "inputs": [],
      "name": "initLottery",
      "outputs": [],
      "payable": false,
      "stateMutability": "nonpayable",
      "type": "function"
    },
    {
      "constant": false,
      "inputs": [
        {
          "name": "_prediction",
          "type": "uint256"
        }
      ],
      "name": "play",
      "outputs": [],
      "payable": false,
      "stateMutability": "nonpayable",
      "type": "function"
    },
    {
      "constant": false,
      "inputs": [],
      "name": "endGame",
      "outputs": [],
      "payable": false,
      "stateMutability": "nonpayable",
      "type": "function"
    },
    {
      "constant": false,
      "inputs": [],
      "name": "closeGame",
      "outputs": [],
      "payable": false,
      "stateMutability": "nonpayable",
      "type": "function"
    },
    {
      "constant": false,
      "inputs": [],
      "name": "saveWin",
      "outputs": [],
      "payable": false,
      "stateMutability": "nonpayable",
      "type": "function"
    },
    {
      "constant": false,
      "inputs": [],
      "name": "withdrawGains",
      "outputs": [],
      "payable": false,
      "stateMutability": "nonpayable",
      "type": "function"
    },
    {
      "constant": true,
      "inputs": [],
      "name": "getStateGame",
      "outputs": [
        {
          "name": "",
          "type": "string"
        }
      ],
      "payable": false,
      "stateMutability": "view",
      "type": "function"
    },
    {
      "constant": true,
      "inputs": [],
      "name": "getPrixLottery",
      "outputs": [
        {
          "name": "",
          "type": "uint256"
        }
      ],
      "payable": false,
      "stateMutability": "view",
      "type": "function"
    },
    {
      "constant": true,
      "inputs": [],
      "name": "getEndGame",
      "outputs": [
        {
          "name": "",
          "type": "uint256"
        }
      ],
      "payable": false,
      "stateMutability": "view",
      "type": "function"
    },
    {
      "constant": true,
      "inputs": [],
      "name": "getSuperCagnotte",
      "outputs": [
        {
          "name": "",
          "type": "uint256"
        }
      ],
      "payable": false,
      "stateMutability": "view",
      "type": "function"
    },
    {
      "constant": true,
      "inputs": [],
      "name": "getPrediction",
      "outputs": [
        {
          "name": "",
          "type": "uint256"
        }
      ],
      "payable": false,
      "stateMutability": "view",
      "type": "function"
    },
    {
      "constant": true,
      "inputs": [],
      "name": "getBlockStop",
      "outputs": [
        {
          "name": "",
          "type": "uint256"
        }
      ],
      "payable": false,
      "stateMutability": "view",
      "type": "function"
    },
    {
      "constant": false,
      "inputs": [
        {
          "name": "_stop",
          "type": "uint256"
        }
      ],
      "name": "modifierBlockStop",
      "outputs": [],
      "payable": false,
      "stateMutability": "nonpayable",
      "type": "function"
    },
    {
      "constant": true,
      "inputs": [],
      "name": "getCagnotte",
      "outputs": [
        {
          "name": "",
          "type": "uint256"
        }
      ],
      "payable": false,
      "stateMutability": "view",
      "type": "function"
    },
    {
      "constant": true,
      "inputs": [],
      "name": "getBlock",
      "outputs": [
        {
          "name": "",
          "type": "uint256"
        }
      ],
      "payable": false,
      "stateMutability": "view",
      "type": "function"
    },
    {
      "constant": true,
      "inputs": [],
      "name": "getGains",
      "outputs": [
        {
          "name": "",
          "type": "uint256"
        }
      ],
      "payable": false,
      "stateMutability": "view",
      "type": "function"
    },
    {
      "constant": true,
      "inputs": [],
      "name": "getSolde",
      "outputs": [
        {
          "name": "",
          "type": "uint256"
        }
      ],
      "payable": false,
      "stateMutability": "view",
      "type": "function"
    },
    {
      "constant": true,
      "inputs": [],
      "name": "getNbGagnants",
      "outputs": [
        {
          "name": "",
          "type": "uint256"
        }
      ],
      "payable": false,
      "stateMutability": "view",
      "type": "function"
    },
    {
      "constant": true,
      "inputs": [],
      "name": "getWithdrawBlock",
      "outputs": [
        {
          "name": "",
          "type": "uint256"
        }
      ],
      "payable": false,
      "stateMutability": "view",
      "type": "function"
    },
    {
      "constant": true,
      "inputs": [],
      "name": "getSaveBlock",
      "outputs": [
        {
          "name": "",
          "type": "uint256"
        }
      ],
      "payable": false,
      "stateMutability": "view",
      "type": "function"
    },
    {
      "constant": false,
      "inputs": [
        {
          "name": "_save",
          "type": "uint256"
        }
      ],
      "name": "modifierBlockSave",
      "outputs": [],
      "payable": false,
      "stateMutability": "nonpayable",
      "type": "function"
    },
    {
      "constant": false,
      "inputs": [
        {
          "name": "_withdraw",
          "type": "uint256"
        }
      ],
      "name": "modifierBlockWithdraw",
      "outputs": [],
      "payable": false,
      "stateMutability": "nonpayable",
      "type": "function"
    },
    {
      "constant": false,
      "inputs": [
        {
          "name": "_price",
          "type": "uint256"
        }
      ],
      "name": "modifierPriceTicket",
      "outputs": [],
      "payable": false,
      "stateMutability": "nonpayable",
      "type": "function"
    }
  ],
  "bytecode": "0x60806040523480156200001157600080fd5b5033600360006101000a81548173ffffffffffffffffffffffffffffffffffffffff021916908373ffffffffffffffffffffffffffffffffffffffff16021790555068056bc75e2d63100000600d81905550620186a0600e8190555060c8600f819055506103e86010819055506064601181905550600a6012819055506002601b60006101000a81548160ff02191690836002811115620000ae57fe5b02179055506001601681905550600160198190555060016018819055506001601a81905550620000ef33600a620000f5640100000000026401000000009004565b62000289565b600073ffffffffffffffffffffffffffffffffffffffff168273ffffffffffffffffffffffffffffffffffffffff16141515156200013257600080fd5b62000157816002546200026a6401000000000262004ab8179091906401000000009004565b600281905550620001be816000808573ffffffffffffffffffffffffffffffffffffffff1673ffffffffffffffffffffffffffffffffffffffff168152602001908152602001600020546200026a6401000000000262004ab8179091906401000000009004565b6000808473ffffffffffffffffffffffffffffffffffffffff1673ffffffffffffffffffffffffffffffffffffffff168152602001908152602001600020819055508173ffffffffffffffffffffffffffffffffffffffff16600073ffffffffffffffffffffffffffffffffffffffff167fddf252ad1be2c89b69c2b068fc378daa952ba7f163c4a11628f55a4df523b3ef836040518082815260200191505060405180910390a35050565b60008082840190508381101515156200027f57fe5b8091505092915050565b61502080620002996000396000f3fe6080604052600436106102ea576000357c0100000000000000000000000000000000000000000000000000000000900463ffffffff168062afc9e2146102ef57806306fdde03146103f757806308a6883714610487578063095ea7b3146104c25780630bcb257f146105355780630d078a9d14610560578063175032661461057757806318160ddd146105b25780631b4b26fd146105dd5780631e0afe57146106185780631e63f293146106845780632055bd08146106af57806323b872dd146107f057806329c77347146108835780632a51becf146109a05780632e8ef57d14610a7c5780632e97766d14610ab7578063313ce56714610ae2578063370c29f914610b195780633950935114610b545780634152299714610bc757806345de2ca014610c7b578063483f021914610dbc5780634b20d5d514610dd35780634b7b03cf14610dfe5780634c95b44814610eb25780634dc8872914610edd5780635126670614610fa557806355e5ae0414610fe0578063574302641461100b5780635d428214146110e75780635f093553146110fe578063639f84991461113957806367cb92db146111f45780636898f82b1461121f5780636be264781461125a5780636cbc2ded146112855780636dfc331c1461129c57806370a082311461132c578063786b844b146113915780637aede272146113a85780638da5cb5b146114e95780638f3333411461154057806395d89b41146116b25780639d05e9ab146117425780639e2b415c1461181e5780639f615ee114611859578063a457c2d714611884578063a9059cbb146118f7578063b6e91ae41461196a578063b9e088e014611995578063bcc21cf6146119c0578063beaf3b0d146119eb578063d458be7b14611a26578063d74b10a514611a51578063d9dcc11514611b2d578063dd62ed3e14611c89578063e09c813614611d0e578063e7ac022d14611d7a578063e971cee414611da5578063f2fde38b14611dd0578063f4343df414611e21578063f483977214611f73575b600080fd5b3480156102fb57600080fd5b506103b56004803603602081101561031257600080fd5b810190808035906020019064010000000081111561032f57600080fd5b82018360208201111561034157600080fd5b8035906020019184600183028401116401000000008311171561036357600080fd5b91908080601f016020809104026020016040519081016040528093929190818152602001838380828437600081840152601f19601f820116905080830192505050505050509192919290505050611fae565b604051808273ffffffffffffffffffffffffffffffffffffffff1673ffffffffffffffffffffffffffffffffffffffff16815260200191505060405180910390f35b34801561040357600080fd5b5061040c612059565b6040518080602001828103825283818151815260200191508051906020019080838360005b8381101561044c578082015181840152602081019050610431565b50505050905090810190601f1680156104795780820380516001836020036101000a031916815260200191505b509250505060405180910390f35b34801561049357600080fd5b506104c0600480360360208110156104aa57600080fd5b8101908080359060200190929190505050612092565b005b3480156104ce57600080fd5b5061051b600480360360408110156104e557600080fd5b81019080803573ffffffffffffffffffffffffffffffffffffffff169060200190929190803590602001909291905050506120f8565b604051808215151515815260200191505060405180910390f35b34801561054157600080fd5b5061054a61210f565b6040518082815260200191505060405180910390f35b34801561056c57600080fd5b50610575612119565b005b34801561058357600080fd5b506105b06004803603602081101561059a57600080fd5b8101908080359060200190929190505050612268565b005b3480156105be57600080fd5b506105c76122ce565b6040518082815260200191505060405180910390f35b3480156105e957600080fd5b506106166004803603602081101561060057600080fd5b81019080803590602001909291905050506122d8565b005b34801561062457600080fd5b5061062d61233e565b6040518080602001828103825283818151815260200191508051906020019060200280838360005b83811015610670578082015181840152602081019050610655565b505050509050019250505060405180910390f35b34801561069057600080fd5b506106996123d3565b6040518082815260200191505060405180910390f35b3480156106bb57600080fd5b50610775600480360360208110156106d257600080fd5b81019080803590602001906401000000008111156106ef57600080fd5b82018360208201111561070157600080fd5b8035906020019184600183028401116401000000008311171561072357600080fd5b91908080601f016020809104026020016040519081016040528093929190818152602001838380828437600081840152601f19601f8201169050808301925050505050505091929192905050506123dd565b6040518080602001828103825283818151815260200191508051906020019080838360005b838110156107b557808201518184015260208101905061079a565b50505050905090810190601f1680156107e25780820380516001836020036101000a031916815260200191505b509250505060405180910390f35b3480156107fc57600080fd5b506108696004803603606081101561081357600080fd5b81019080803573ffffffffffffffffffffffffffffffffffffffff169060200190929190803573ffffffffffffffffffffffffffffffffffffffff169060200190929190803590602001909291905050506124f6565b604051808215151515815260200191505060405180910390f35b34801561088f57600080fd5b50610949600480360360208110156108a657600080fd5b81019080803590602001906401000000008111156108c357600080fd5b8201836020820111156108d557600080fd5b803590602001918460018302840111640100000000831117156108f757600080fd5b91908080601f016020809104026020016040519081016040528093929190818152602001838380828437600081840152601f19601f8201169050808301925050505050505091929192905050506125a7565b6040518080602001828103825283818151815260200191508051906020019060200280838360005b8381101561098c578082015181840152602081019050610971565b505050509050019250505060405180910390f35b3480156109ac57600080fd5b50610a66600480360360208110156109c357600080fd5b81019080803590602001906401000000008111156109e057600080fd5b8201836020820111156109f257600080fd5b80359060200191846001830284011164010000000083111715610a1457600080fd5b91908080601f016020809104026020016040519081016040528093929190818152602001838380828437600081840152601f19601f82011690508083019250505050505050919291929050505061266a565b6040518082815260200191505060405180910390f35b348015610a8857600080fd5b50610ab560048036036020811015610a9f57600080fd5b8101908080359060200190929190505050612731565b005b348015610ac357600080fd5b50610acc612797565b6040518082815260200191505060405180910390f35b348015610aee57600080fd5b50610af761279f565b604051808263ffffffff1663ffffffff16815260200191505060405180910390f35b348015610b2557600080fd5b50610b5260048036036020811015610b3c57600080fd5b81019080803590602001909291905050506127a4565b005b348015610b6057600080fd5b50610bad60048036036040811015610b7757600080fd5b81019080803573ffffffffffffffffffffffffffffffffffffffff1690602001909291908035906020019092919050505061280a565b604051808215151515815260200191505060405180910390f35b348015610bd357600080fd5b50610c0060048036036020811015610bea57600080fd5b81019080803590602001909291905050506128af565b6040518080602001828103825283818151815260200191508051906020019080838360005b83811015610c40578082015181840152602081019050610c25565b50505050905090810190601f168015610c6d5780820380516001836020036101000a031916815260200191505b509250505060405180910390f35b348015610c8757600080fd5b50610d4160048036036020811015610c9e57600080fd5b8101908080359060200190640100000000811115610cbb57600080fd5b820183602082011115610ccd57600080fd5b80359060200191846001830284011164010000000083111715610cef57600080fd5b91908080601f016020809104026020016040519081016040528093929190818152602001838380828437600081840152601f19601f820116905080830192505050505050509192919290505050612964565b6040518080602001828103825283818151815260200191508051906020019080838360005b83811015610d81578082015181840152602081019050610d66565b50505050905090810190601f168015610dae5780820380516001836020036101000a031916815260200191505b509250505060405180910390f35b348015610dc857600080fd5b50610dd1612a87565b005b348015610ddf57600080fd5b50610de8612c4c565b6040518082815260200191505060405180910390f35b348015610e0a57600080fd5b50610e3760048036036020811015610e2157600080fd5b8101908080359060200190929190505050612c59565b6040518080602001828103825283818151815260200191508051906020019080838360005b83811015610e77578082015181840152602081019050610e5c565b50505050905090810190601f168015610ea45780820380516001836020036101000a031916815260200191505b509250505060405180910390f35b348015610ebe57600080fd5b50610ec7612d11565b6040518082815260200191505060405180910390f35b348015610ee957600080fd5b50610fa360048036036020811015610f0057600080fd5b8101908080359060200190640100000000811115610f1d57600080fd5b820183602082011115610f2f57600080fd5b80359060200191846001830284011164010000000083111715610f5157600080fd5b91908080601f016020809104026020016040519081016040528093929190818152602001838380828437600081840152601f19601f820116905080830192505050505050509192919290505050612d1b565b005b348015610fb157600080fd5b50610fde60048036036020811015610fc857600080fd5b8101908080359060200190929190505050612e95565b005b348015610fec57600080fd5b50610ff5612efb565b6040518082815260200191505060405180910390f35b34801561101757600080fd5b506110d16004803603602081101561102e57600080fd5b810190808035906020019064010000000081111561104b57600080fd5b82018360208201111561105d57600080fd5b8035906020019184600183028401116401000000008311171561107f57600080fd5b91908080601f016020809104026020016040519081016040528093929190818152602001838380828437600081840152601f19601f820116905080830192505050505050509192919290505050612f0b565b6040518082815260200191505060405180910390f35b3480156110f357600080fd5b506110fc612fd2565b005b34801561110a57600080fd5b506111376004803603602081101561112157600080fd5b81019080803590602001909291905050506130cc565b005b6111f26004803603602081101561114f57600080fd5b810190808035906020019064010000000081111561116c57600080fd5b82018360208201111561117e57600080fd5b803590602001918460018302840111640100000000831117156111a057600080fd5b91908080601f016020809104026020016040519081016040528093929190818152602001838380828437600081840152601f19601f820116905080830192505050505050509192919290505050613132565b005b34801561120057600080fd5b506112096132d8565b6040518082815260200191505060405180910390f35b34801561122b57600080fd5b506112586004803603602081101561124257600080fd5b81019080803590602001909291905050506132e2565b005b34801561126657600080fd5b5061126f6133e5565b6040518082815260200191505060405180910390f35b34801561129157600080fd5b5061129a61342e565b005b3480156112a857600080fd5b506112b161351d565b6040518080602001828103825283818151815260200191508051906020019080838360005b838110156112f15780820151818401526020810190506112d6565b50505050905090810190601f16801561131e5780820380516001836020036101000a031916815260200191505b509250505060405180910390f35b34801561133857600080fd5b5061137b6004803603602081101561134f57600080fd5b81019080803573ffffffffffffffffffffffffffffffffffffffff169060200190929190505050613657565b6040518082815260200191505060405180910390f35b34801561139d57600080fd5b506113a661369f565b005b3480156113b457600080fd5b5061146e600480360360208110156113cb57600080fd5b81019080803590602001906401000000008111156113e857600080fd5b8201836020820111156113fa57600080fd5b8035906020019184600183028401116401000000008311171561141c57600080fd5b91908080601f016020809104026020016040519081016040528093929190818152602001838380828437600081840152601f19601f82011690508083019250505050505050919291929050505061376c565b6040518080602001828103825283818151815260200191508051906020019080838360005b838110156114ae578082015181840152602081019050611493565b50505050905090810190601f1680156114db5780820380516001836020036101000a031916815260200191505b509250505060405180910390f35b3480156114f557600080fd5b506114fe61388f565b604051808273ffffffffffffffffffffffffffffffffffffffff1673ffffffffffffffffffffffffffffffffffffffff16815260200191505060405180910390f35b6116b06004803603606081101561155657600080fd5b81019080803573ffffffffffffffffffffffffffffffffffffffff1690602001909291908035906020019064010000000081111561159357600080fd5b8201836020820111156115a557600080fd5b803590602001918460018302840111640100000000831117156115c757600080fd5b91908080601f016020809104026020016040519081016040528093929190818152602001838380828437600081840152601f19601f8201169050808301925050505050505091929192908035906020019064010000000081111561162a57600080fd5b82018360208201111561163c57600080fd5b8035906020019184600183028401116401000000008311171561165e57600080fd5b91908080601f016020809104026020016040519081016040528093929190818152602001838380828437600081840152601f19601f8201169050808301925050505050505091929192905050506138b5565b005b3480156116be57600080fd5b506116c7613aec565b6040518080602001828103825283818151815260200191508051906020019080838360005b838110156117075780820151818401526020810190506116ec565b50505050905090810190601f1680156117345780820380516001836020036101000a031916815260200191505b509250505060405180910390f35b34801561174e57600080fd5b506118086004803603602081101561176557600080fd5b810190808035906020019064010000000081111561178257600080fd5b82018360208201111561179457600080fd5b803590602001918460018302840111640100000000831117156117b657600080fd5b91908080601f016020809104026020016040519081016040528093929190818152602001838380828437600081840152601f19601f820116905080830192505050505050509192919290505050613b25565b6040518082815260200191505060405180910390f35b34801561182a57600080fd5b506118576004803603602081101561184157600080fd5b8101908080359060200190929190505050613bb0565b005b34801561186557600080fd5b5061186e613c16565b6040518082815260200191505060405180910390f35b34801561189057600080fd5b506118dd600480360360408110156118a757600080fd5b81019080803573ffffffffffffffffffffffffffffffffffffffff16906020019092919080359060200190929190505050613c5d565b604051808215151515815260200191505060405180910390f35b34801561190357600080fd5b506119506004803603604081101561191a57600080fd5b81019080803573ffffffffffffffffffffffffffffffffffffffff16906020019092919080359060200190929190505050613d02565b604051808215151515815260200191505060405180910390f35b34801561197657600080fd5b5061197f613d19565b6040518082815260200191505060405180910390f35b3480156119a157600080fd5b506119aa613d23565b6040518082815260200191505060405180910390f35b3480156119cc57600080fd5b506119d5613d69565b6040518082815260200191505060405180910390f35b3480156119f757600080fd5b50611a2460048036036020811015611a0e57600080fd5b8101908080359060200190929190505050613d8d565b005b348015611a3257600080fd5b50611a3b613df3565b6040518082815260200191505060405180910390f35b348015611a5d57600080fd5b50611b1760048036036020811015611a7457600080fd5b8101908080359060200190640100000000811115611a9157600080fd5b820183602082011115611aa357600080fd5b80359060200191846001830284011164010000000083111715611ac557600080fd5b91908080601f016020809104026020016040519081016040528093929190818152602001838380828437600081840152601f19601f820116905080830192505050505050509192919290505050613e00565b6040518082815260200191505060405180910390f35b611c8760048036036060811015611b4357600080fd5b810190808035906020019092919080359060200190640100000000811115611b6a57600080fd5b820183602082011115611b7c57600080fd5b80359060200191846001830284011164010000000083111715611b9e57600080fd5b91908080601f016020809104026020016040519081016040528093929190818152602001838380828437600081840152601f19601f82011690508083019250505050505050919291929080359060200190640100000000811115611c0157600080fd5b820183602082011115611c1357600080fd5b80359060200191846001830284011164010000000083111715611c3557600080fd5b91908080601f016020809104026020016040519081016040528093929190818152602001838380828437600081840152601f19601f820116905080830192505050505050509192919290505050613e8b565b005b348015611c9557600080fd5b50611cf860048036036040811015611cac57600080fd5b81019080803573ffffffffffffffffffffffffffffffffffffffff169060200190929190803573ffffffffffffffffffffffffffffffffffffffff1690602001909291905050506140e7565b6040518082815260200191505060405180910390f35b348015611d1a57600080fd5b50611d2361416e565b6040518080602001828103825283818151815260200191508051906020019060200280838360005b83811015611d66578082015181840152602081019050611d4b565b505050509050019250505060405180910390f35b348015611d8657600080fd5b50611d8f614203565b6040518082815260200191505060405180910390f35b348015611db157600080fd5b50611dba61429f565b6040518082815260200191505060405180910390f35b348015611ddc57600080fd5b50611e1f60048036036020811015611df357600080fd5b81019080803573ffffffffffffffffffffffffffffffffffffffff1690602001909291905050506142a9565b005b611f7160048036036040811015611e3757600080fd5b8101908080359060200190640100000000811115611e5457600080fd5b820183602082011115611e6657600080fd5b80359060200191846001830284011164010000000083111715611e8857600080fd5b91908080601f016020809104026020016040519081016040528093929190818152602001838380828437600081840152601f19601f82011690508083019250505050505050919291929080359060200190640100000000811115611eeb57600080fd5b820183602082011115611efd57600080fd5b80359060200191846001830284011164010000000083111715611f1f57600080fd5b91908080601f016020809104026020016040519081016040528093929190818152602001838380828437600081840152601f19601f820116905080830192505050505050509192919290505050614401565b005b348015611f7f57600080fd5b50611fac60048036036020811015611f9657600080fd5b810190808035906020019092919050505061470a565b005b600060046000600a846040518082805190602001908083835b602083101515611fec5780518252602082019150602081019050602083039250611fc7565b6001836020036101000a038019825116818451168082178552505050505050905001915050908152602001604051809103902054815260200190815260200160002060000160009054906101000a900473ffffffffffffffffffffffffffffffffffffffff169050919050565b6040805190810160405280600981526020017f636f696e756e696f6e000000000000000000000000000000000000000000000081525081565b600360009054906101000a900473ffffffffffffffffffffffffffffffffffffffff1673ffffffffffffffffffffffffffffffffffffffff163373ffffffffffffffffffffffffffffffffffffffff161415156120ee57600080fd5b8060198190555050565b6000612105338484614770565b6001905092915050565b6000601754905090565b6001600281111561212657fe5b601b60009054906101000a900460ff16600281111561214157fe5b14151561214d57600080fd5b601c60010154601460003373ffffffffffffffffffffffffffffffffffffffff1673ffffffffffffffffffffffffffffffffffffffff1681526020019081526020016000205414151561219f57600080fd5b600160156000601c60030154815260200190815260200160002060003373ffffffffffffffffffffffffffffffffffffffff1673ffffffffffffffffffffffffffffffffffffffff16815260200190815260200160002060006101000a81548160ff0219169083151502179055506001601c600201600082825401925050819055506000601460003373ffffffffffffffffffffffffffffffffffffffff1673ffffffffffffffffffffffffffffffffffffffff16815260200190815260200160002081905550565b600360009054906101000a900473ffffffffffffffffffffffffffffffffffffffff1673ffffffffffffffffffffffffffffffffffffffff163373ffffffffffffffffffffffffffffffffffffffff161415156122c457600080fd5b8060108190555050565b6000600254905090565b600360009054906101000a900473ffffffffffffffffffffffffffffffffffffffff1673ffffffffffffffffffffffffffffffffffffffff163373ffffffffffffffffffffffffffffffffffffffff1614151561233457600080fd5b8060168190555050565b6060600560003373ffffffffffffffffffffffffffffffffffffffff1673ffffffffffffffffffffffffffffffffffffffff1681526020019081526020016000208054806020026020016040519081016040528092919081815260200182805480156123c957602002820191906000526020600020905b8154815260200190600101908083116123b5575b5050505050905090565b6000601354905090565b60606000828051906020012060019004905060046000600b600084815260200190815260200160002060003373ffffffffffffffffffffffffffffffffffffffff1673ffffffffffffffffffffffffffffffffffffffff1681526020019081526020016000205481526020019081526020016000206001018054600181600116156101000203166002900480601f0160208091040260200160405190810160405280929190818152602001828054600181600116156101000203166002900480156124e95780601f106124be576101008083540402835291602001916124e9565b820191906000526020600020905b8154815290600101906020018083116124cc57829003601f168201915b5050505050915050919050565b60006125038484846148d3565b61259c843361259785600160008a73ffffffffffffffffffffffffffffffffffffffff1673ffffffffffffffffffffffffffffffffffffffff16815260200190815260200160002060003373ffffffffffffffffffffffffffffffffffffffff1673ffffffffffffffffffffffffffffffffffffffff16815260200190815260200160002054614a9f90919063ffffffff16565b614770565b600190509392505050565b60606006826040518082805190602001908083835b6020831015156125e157805182526020820191506020810190506020830392506125bc565b6001836020036101000a038019825116818451168082178552505050505050905001915050908152602001604051809103902080548060200260200160405190810160405280929190818152602001828054801561265e57602002820191906000526020600020905b81548152602001906001019080831161264a575b50505050509050919050565b6000600c60003373ffffffffffffffffffffffffffffffffffffffff1673ffffffffffffffffffffffffffffffffffffffff168152602001908152602001600020600060046000858051906020012060019004815260200190815260200160002060000160009054906101000a900473ffffffffffffffffffffffffffffffffffffffff1673ffffffffffffffffffffffffffffffffffffffff1673ffffffffffffffffffffffffffffffffffffffff168152602001908152602001600020549050919050565b600360009054906101000a900473ffffffffffffffffffffffffffffffffffffffff1673ffffffffffffffffffffffffffffffffffffffff163373ffffffffffffffffffffffffffffffffffffffff1614151561278d57600080fd5b8060188190555050565b600043905090565b601281565b600360009054906101000a900473ffffffffffffffffffffffffffffffffffffffff1673ffffffffffffffffffffffffffffffffffffffff163373ffffffffffffffffffffffffffffffffffffffff1614151561280057600080fd5b8060128190555050565b60006128a533846128a085600160003373ffffffffffffffffffffffffffffffffffffffff1673ffffffffffffffffffffffffffffffffffffffff16815260200190815260200160002060008973ffffffffffffffffffffffffffffffffffffffff1673ffffffffffffffffffffffffffffffffffffffff16815260200190815260200160002054614ab890919063ffffffff16565b614770565b6001905092915050565b6060600760008381526020019081526020016000208054600181600116156101000203166002900480601f0160208091040260200160405190810160405280929190818152602001828054600181600116156101000203166002900480156129585780601f1061292d57610100808354040283529160200191612958565b820191906000526020600020905b81548152906001019060200180831161293b57829003601f168201915b50505050509050919050565b606060046000600a846040518082805190602001908083835b6020831015156129a2578051825260208201915060208101905060208303925061297d565b6001836020036101000a03801982511681845116808217855250505050505090500191505090815260200160405180910390205481526020019081526020016000206005018054600181600116156101000203166002900480601f016020809104026020016040519081016040528092919081815260200182805460018160011615610100020316600290048015612a7b5780601f10612a5057610100808354040283529160200191612a7b565b820191906000526020600020905b815481529060010190602001808311612a5e57829003601f168201915b50505050509050919050565b6001151560156000601c60030154815260200190815260200160002060003373ffffffffffffffffffffffffffffffffffffffff1673ffffffffffffffffffffffffffffffffffffffff16815260200190815260200160002060009054906101000a900460ff161515141515612afc57600080fd5b600280811115612b0857fe5b601b60009054906101000a900460ff166002811115612b2357fe5b141515612b2f57600080fd5b601c60010154601460003373ffffffffffffffffffffffffffffffffffffffff1673ffffffffffffffffffffffffffffffffffffffff16815260200190815260200160002054141515612b8157600080fd5b6000151560156000601c60030154815260200190815260200160002060003373ffffffffffffffffffffffffffffffffffffffff1673ffffffffffffffffffffffffffffffffffffffff16815260200190815260200160002060009054906101000a905050503373ffffffffffffffffffffffffffffffffffffffff166108fc612c1e601c60020154601c60010154614ad690919063ffffffff16565b9081150290604051600060405180830381858888f19350505050158015612c49573d6000803e3d6000fd5b50565b6000601c60010154905090565b6060600460008381526020019081526020016000206001018054600181600116156101000203166002900480601f016020809104026020016040519081016040528092919081815260200182805460018160011615610100020316600290048015612d055780601f10612cda57610100808354040283529160200191612d05565b820191906000526020600020905b815481529060010190602001808311612ce857829003601f168201915b50505050509050919050565b6000601254905090565b600081805190602001206001900490506000600460008381526020019081526020016000206003015414151515612d5157600080fd5b3373ffffffffffffffffffffffffffffffffffffffff166004600083815260200190815260200160002060000160009054906101000a900473ffffffffffffffffffffffffffffffffffffffff1673ffffffffffffffffffffffffffffffffffffffff16141515612dc157600080fd5b3373ffffffffffffffffffffffffffffffffffffffff166108fc60046000848152602001908152602001600020600401549081150290604051600060405180830381858888f19350505050158015612e1d573d6000803e3d6000fd5b5060006004600083815260200190815260200160002060040181905550600060046000838152602001908152602001600020600301819055506020604051908101604052806000815250600460008381526020019081526020016000206005019080519060200190612e90929190614f4f565b505050565b600360009054906101000a900473ffffffffffffffffffffffffffffffffffffffff1673ffffffffffffffffffffffffffffffffffffffff163373ffffffffffffffffffffffffffffffffffffffff16141515612ef157600080fd5b80600f8190555050565b6000612f0633613657565b905090565b6000600c600060046000858051906020012060019004815260200190815260200160002060000160009054906101000a900473ffffffffffffffffffffffffffffffffffffffff1673ffffffffffffffffffffffffffffffffffffffff1673ffffffffffffffffffffffffffffffffffffffff16815260200190815260200160002060003373ffffffffffffffffffffffffffffffffffffffff1673ffffffffffffffffffffffffffffffffffffffff168152602001908152602001600020549050919050565b600360009054906101000a900473ffffffffffffffffffffffffffffffffffffffff1673ffffffffffffffffffffffffffffffffffffffff163373ffffffffffffffffffffffffffffffffffffffff1614151561302e57600080fd5b601954601854601c6000015401014311151561304957600080fd5b60028081111561305557fe5b601b60009054906101000a900460ff16600281111561307057fe5b14151561307c57600080fd5b6000601c600201819055506001601c6003016000828254019250508190555060165443016017819055506000601b60006101000a81548160ff021916908360028111156130c557fe5b0217905550565b600360009054906101000a900473ffffffffffffffffffffffffffffffffffffffff1673ffffffffffffffffffffffffffffffffffffffff163373ffffffffffffffffffffffffffffffffffffffff1614151561312857600080fd5b8060118190555050565b60008180519060200120600190049050600060046000838152602001908152602001600020600301541415151561316857600080fd5b346004600083815260200190815260200160002060040154600460008481526020019081526020016000206003015403101515156131a557600080fd5b6000600f54348115156131b457fe5b0490506000349050818103905080600460008581526020019081526020016000206004016000828254019250508190555080600c60003373ffffffffffffffffffffffffffffffffffffffff1673ffffffffffffffffffffffffffffffffffffffff16815260200190815260200160002060006004600087815260200190815260200160002060000160009054906101000a900473ffffffffffffffffffffffffffffffffffffffff1673ffffffffffffffffffffffffffffffffffffffff1673ffffffffffffffffffffffffffffffffffffffff168152602001908152602001600020600082825401925050819055506132b9600283614ad690919063ffffffff16565b6013600082825401925050819055506132d23383614af1565b50505050565b6000601154905090565b6000601460003373ffffffffffffffffffffffffffffffffffffffff1673ffffffffffffffffffffffffffffffffffffffff1681526020019081526020016000205414151561333057600080fd5b60165460175403431115151561334557600080fd5b6000600281111561335257fe5b601b60009054906101000a900460ff16600281111561336d57fe5b14151561337957600080fd5b601a5461338533613657565b1015151561339257600080fd5b61339e33601a54614c45565b80601460003373ffffffffffffffffffffffffffffffffffffffff1673ffffffffffffffffffffffffffffffffffffffff1681526020019081526020016000208190555050565b60006002808111156133f357fe5b601b60009054906101000a900460ff16600281111561340e57fe5b141561341d576000905061342b565b601954601854601754010190505b90565b600360009054906101000a900473ffffffffffffffffffffffffffffffffffffffff1673ffffffffffffffffffffffffffffffffffffffff163373ffffffffffffffffffffffffffffffffffffffff1614151561348a57600080fd5b6000600281111561349757fe5b601b60009054906101000a900460ff1660028111156134b257fe5b1415156134be57600080fd5b60175443101515156134cf57600080fd5b601354601c600101819055506001601b60006101000a81548160ff021916908360028111156134fa57fe5b02179055506000601381905550601754601c600001819055506000601781905550565b606060028081111561352b57fe5b601b60009054906101000a900460ff16600281111561354657fe5b1415613589576040805190810160405280602081526020017f6a657578206665726d65203a2072656375706572657220766f73206761696e738152509050613654565b6001600281111561359657fe5b601b60009054906101000a900460ff1660028111156135b157fe5b141561361b57606060405190810160405280602181526020017f6a657578207465726d696e65203a206465636c6172657220766f73206761696e81526020017f73000000000000000000000000000000000000000000000000000000000000008152509050613654565b6040805190810160405280600d81526020017f6a65757820656e20636f7572730000000000000000000000000000000000000081525090505b90565b60008060008373ffffffffffffffffffffffffffffffffffffffff1673ffffffffffffffffffffffffffffffffffffffff168152602001908152602001600020549050919050565b600360009054906101000a900473ffffffffffffffffffffffffffffffffffffffff1673ffffffffffffffffffffffffffffffffffffffff163373ffffffffffffffffffffffffffffffffffffffff161415156136fb57600080fd5b6001600281111561370857fe5b601b60009054906101000a900460ff16600281111561372357fe5b14151561372f57600080fd5b601854601c60000154014311151561374657600080fd5b6002601b60006101000a81548160ff0219169083600281111561376557fe5b0217905550565b606060046000600a846040518082805190602001908083835b6020831015156137aa5780518252602082019150602081019050602083039250613785565b6001836020036101000a03801982511681845116808217855250505050505090500191505090815260200160405180910390205481526020019081526020016000206002018054600181600116156101000203166002900480601f0160208091040260200160405190810160405280929190818152602001828054600181600116156101000203166002900480156138835780601f1061385857610100808354040283529160200191613883565b820191906000526020600020905b81548152906001019060200180831161386657829003601f168201915b50505050509050919050565b600360009054906101000a900473ffffffffffffffffffffffffffffffffffffffff1681565b346011541415156138c557600080fd5b60008180519060200120600190049050600073ffffffffffffffffffffffffffffffffffffffff166004600083815260200190815260200160002060000160009054906101000a900473ffffffffffffffffffffffffffffffffffffffff1673ffffffffffffffffffffffffffffffffffffffff1614151561394657600080fd5b3373ffffffffffffffffffffffffffffffffffffffff166009846040518082805190602001908083835b6020831015156139955780518252602082019150602081019050602083039250613970565b6001836020036101000a038019825116818451168082178552505050505050905001915050908152602001604051809103902060009054906101000a900473ffffffffffffffffffffffffffffffffffffffff1673ffffffffffffffffffffffffffffffffffffffff16141515613a0b57600080fd5b60008380519060200120600190049050600560008673ffffffffffffffffffffffffffffffffffffffff1673ffffffffffffffffffffffffffffffffffffffff168152602001908152602001600020819080600181540180825580915050906001820390600052602060002001600090919290919091505550336004600084815260200190815260200160002060000160006101000a81548173ffffffffffffffffffffffffffffffffffffffff021916908373ffffffffffffffffffffffffffffffffffffffff160217905550613ae583858385614d99565b5050505050565b6040805190810160405280600581526020017f554e494f4e00000000000000000000000000000000000000000000000000000081525081565b600060046000600a846040518082805190602001908083835b602083101515613b635780518252602082019150602081019050602083039250613b3e565b6001836020036101000a0380198251168184511680821785525050505050509050019150509081526020016040518091039020548152602001908152602001600020600401549050919050565b600360009054906101000a900473ffffffffffffffffffffffffffffffffffffffff1673ffffffffffffffffffffffffffffffffffffffff163373ffffffffffffffffffffffffffffffffffffffff16141515613c0c57600080fd5b80601a8190555050565b6000601460003373ffffffffffffffffffffffffffffffffffffffff1673ffffffffffffffffffffffffffffffffffffffff16815260200190815260200160002054905090565b6000613cf83384613cf385600160003373ffffffffffffffffffffffffffffffffffffffff1673ffffffffffffffffffffffffffffffffffffffff16815260200190815260200160002060008973ffffffffffffffffffffffffffffffffffffffff1673ffffffffffffffffffffffffffffffffffffffff16815260200190815260200160002054614a9f90919063ffffffff16565b614770565b6001905092915050565b6000613d0f3384846148d3565b6001905092915050565b6000601a54905090565b600060016002811115613d3257fe5b601b60009054906101000a900460ff166002811115613d4d57fe5b1415613d5c5760009050613d66565b6018546017540190505b90565b60006016546017541015613d805760009050613d8a565b6016546017540390505b90565b600360009054906101000a900473ffffffffffffffffffffffffffffffffffffffff1673ffffffffffffffffffffffffffffffffffffffff163373ffffffffffffffffffffffffffffffffffffffff16141515613de957600080fd5b80600d8190555050565b6000601c60020154905090565b600060046000600a846040518082805190602001908083835b602083101515613e3e5780518252602082019150602081019050602083039250613e19565b6001836020036101000a0380198251168184511680821785525050505050509050019150509081526020016040518091039020548152602001908152602001600020600301549050919050565b60125434141515613e9b57600080fd5b600e5483111515613eab57600080fd5b600d5483101515613ebb57600080fd5b600082805190602001206001900490503373ffffffffffffffffffffffffffffffffffffffff166004600083815260200190815260200160002060000160009054906101000a900473ffffffffffffffffffffffffffffffffffffffff1673ffffffffffffffffffffffffffffffffffffffff16141515613f3b57600080fd5b60006004600083815260200190815260200160002060030154141515613f6057600080fd5b83600460008381526020019081526020016000206003018190555081600460008381526020019081526020016000206005019080519060200190613fa5929190614f4f565b507fdc9d3a39aef8f13151f130d0bb7d4d7b099f9ac3fc92b57e3811a478eaf81b59600460008381526020019081526020016000206002018460405180806020018060200183810383528581815460018160011615610100020316600290048152602001915080546001816001161561010002031660029004801561406b5780601f106140405761010080835404028352916020019161406b565b820191906000526020600020905b81548152906001019060200180831161404e57829003601f168201915b5050838103825284818151815260200191508051906020019080838360005b838110156140a557808201518184015260208101905061408a565b50505050905090810190601f1680156140d25780820380516001836020036101000a031916815260200191505b5094505050505060405180910390a150505050565b6000600160008473ffffffffffffffffffffffffffffffffffffffff1673ffffffffffffffffffffffffffffffffffffffff16815260200190815260200160002060008373ffffffffffffffffffffffffffffffffffffffff1673ffffffffffffffffffffffffffffffffffffffff16815260200190815260200160002054905092915050565b6060600860003373ffffffffffffffffffffffffffffffffffffffff1673ffffffffffffffffffffffffffffffffffffffff1681526020019081526020016000208054806020026020016040519081016040528092919081815260200182805480156141f957602002820191906000526020600020905b8154815260200190600101908083116141e5575b5050505050905090565b600080151560156000601c60030154815260200190815260200160002060003373ffffffffffffffffffffffffffffffffffffffff1673ffffffffffffffffffffffffffffffffffffffff16815260200190815260200160002060009054906101000a900460ff161515141561427c576000905061429c565b614299601c60020154601c60010154614ad690919063ffffffff16565b90505b90565b6000601054905090565b600360009054906101000a900473ffffffffffffffffffffffffffffffffffffffff1673ffffffffffffffffffffffffffffffffffffffff163373ffffffffffffffffffffffffffffffffffffffff1614151561430557600080fd5b600073ffffffffffffffffffffffffffffffffffffffff168173ffffffffffffffffffffffffffffffffffffffff161415151561434157600080fd5b8073ffffffffffffffffffffffffffffffffffffffff16600360009054906101000a900473ffffffffffffffffffffffffffffffffffffffff1673ffffffffffffffffffffffffffffffffffffffff167f8be0079c531659141344cd1fd0a4f28419497f9722a3daafe3b4186f6b6457e060405160405180910390a380600360006101000a81548173ffffffffffffffffffffffffffffffffffffffff021916908373ffffffffffffffffffffffffffffffffffffffff16021790555050565b3460105414151561441157600080fd5b60008280519060200120600190049050600073ffffffffffffffffffffffffffffffffffffffff166009846040518082805190602001908083835b602083101515614471578051825260208201915060208101905060208303925061444c565b6001836020036101000a038019825116818451168082178552505050505050905001915050908152602001604051809103902060009054906101000a900473ffffffffffffffffffffffffffffffffffffffff1673ffffffffffffffffffffffffffffffffffffffff161415156144e757600080fd5b60008280519060200120600190049050600073ffffffffffffffffffffffffffffffffffffffff166004600083815260200190815260200160002060000160009054906101000a900473ffffffffffffffffffffffffffffffffffffffff1673ffffffffffffffffffffffffffffffffffffffff1614151561456857600080fd5b336004600083815260200190815260200160002060000160006101000a81548173ffffffffffffffffffffffffffffffffffffffff021916908373ffffffffffffffffffffffffffffffffffffffff160217905550836007600084815260200190815260200160002090805190602001906145e4929190614f4f565b50336009856040518082805190602001908083835b60208310151561461e57805182526020820191506020810190506020830392506145f9565b6001836020036101000a038019825116818451168082178552505050505050905001915050908152602001604051809103902060006101000a81548173ffffffffffffffffffffffffffffffffffffffff021916908373ffffffffffffffffffffffffffffffffffffffff160217905550600860003373ffffffffffffffffffffffffffffffffffffffff1673ffffffffffffffffffffffffffffffffffffffff16815260200190815260200160002082908060018154018082558091505090600182039060005260206000200160009091929091909150555061470483858484614d99565b50505050565b600360009054906101000a900473ffffffffffffffffffffffffffffffffffffffff1673ffffffffffffffffffffffffffffffffffffffff163373ffffffffffffffffffffffffffffffffffffffff1614151561476657600080fd5b80600e8190555050565b600073ffffffffffffffffffffffffffffffffffffffff168273ffffffffffffffffffffffffffffffffffffffff16141515156147ac57600080fd5b600073ffffffffffffffffffffffffffffffffffffffff168373ffffffffffffffffffffffffffffffffffffffff16141515156147e857600080fd5b80600160008573ffffffffffffffffffffffffffffffffffffffff1673ffffffffffffffffffffffffffffffffffffffff16815260200190815260200160002060008473ffffffffffffffffffffffffffffffffffffffff1673ffffffffffffffffffffffffffffffffffffffff168152602001908152602001600020819055508173ffffffffffffffffffffffffffffffffffffffff168373ffffffffffffffffffffffffffffffffffffffff167f8c5be1e5ebec7d5bd14f71427d1e84f3dd0314c0f7b2291e5b200ac8c7c3b925836040518082815260200191505060405180910390a3505050565b600073ffffffffffffffffffffffffffffffffffffffff168273ffffffffffffffffffffffffffffffffffffffff161415151561490f57600080fd5b614960816000808673ffffffffffffffffffffffffffffffffffffffff1673ffffffffffffffffffffffffffffffffffffffff16815260200190815260200160002054614a9f90919063ffffffff16565b6000808573ffffffffffffffffffffffffffffffffffffffff1673ffffffffffffffffffffffffffffffffffffffff168152602001908152602001600020819055506149f3816000808573ffffffffffffffffffffffffffffffffffffffff1673ffffffffffffffffffffffffffffffffffffffff16815260200190815260200160002054614ab890919063ffffffff16565b6000808473ffffffffffffffffffffffffffffffffffffffff1673ffffffffffffffffffffffffffffffffffffffff168152602001908152602001600020819055508173ffffffffffffffffffffffffffffffffffffffff168373ffffffffffffffffffffffffffffffffffffffff167fddf252ad1be2c89b69c2b068fc378daa952ba7f163c4a11628f55a4df523b3ef836040518082815260200191505060405180910390a3505050565b6000828211151515614aad57fe5b818303905092915050565b6000808284019050838110151515614acc57fe5b8091505092915050565b6000808284811515614ae457fe5b0490508091505092915050565b600073ffffffffffffffffffffffffffffffffffffffff168273ffffffffffffffffffffffffffffffffffffffff1614151515614b2d57600080fd5b614b4281600254614ab890919063ffffffff16565b600281905550614b99816000808573ffffffffffffffffffffffffffffffffffffffff1673ffffffffffffffffffffffffffffffffffffffff16815260200190815260200160002054614ab890919063ffffffff16565b6000808473ffffffffffffffffffffffffffffffffffffffff1673ffffffffffffffffffffffffffffffffffffffff168152602001908152602001600020819055508173ffffffffffffffffffffffffffffffffffffffff16600073ffffffffffffffffffffffffffffffffffffffff167fddf252ad1be2c89b69c2b068fc378daa952ba7f163c4a11628f55a4df523b3ef836040518082815260200191505060405180910390a35050565b600073ffffffffffffffffffffffffffffffffffffffff168273ffffffffffffffffffffffffffffffffffffffff1614151515614c8157600080fd5b614c9681600254614a9f90919063ffffffff16565b600281905550614ced816000808573ffffffffffffffffffffffffffffffffffffffff1673ffffffffffffffffffffffffffffffffffffffff16815260200190815260200160002054614a9f90919063ffffffff16565b6000808473ffffffffffffffffffffffffffffffffffffffff1673ffffffffffffffffffffffffffffffffffffffff16815260200190815260200160002081905550600073ffffffffffffffffffffffffffffffffffffffff168273ffffffffffffffffffffffffffffffffffffffff167fddf252ad1be2c89b69c2b068fc378daa952ba7f163c4a11628f55a4df523b3ef836040518082815260200191505060405180910390a35050565b83600460008381526020019081526020016000206001019080519060200190614dc3929190614f4f565b5082600460008381526020019081526020016000206002019080519060200190614dee929190614f4f565b506006836040518082805190602001908083835b602083101515614e275780518252602082019150602081019050602083039250614e02565b6001836020036101000a038019825116818451168082178552505050505050905001915050908152602001604051809103902081908060018154018082558091505090600182039060005260206000200160009091929091909150555080600a856040518082805190602001908083835b602083101515614ebd5780518252602082019150602081019050602083039250614e98565b6001836020036101000a03801982511681845116808217855250505050505090500191505090815260200160405180910390208190555080600b600084815260200190815260200160002060003373ffffffffffffffffffffffffffffffffffffffff1673ffffffffffffffffffffffffffffffffffffffff1681526020019081526020016000208190555050505050565b828054600181600116156101000203166002900490600052602060002090601f016020900481019282601f10614f9057805160ff1916838001178555614fbe565b82800160010185558215614fbe579182015b82811115614fbd578251825591602001919060010190614fa2565b5b509050614fcb9190614fcf565b5090565b614ff191905b80821115614fed576000816000905550600101614fd5565b5090565b9056fea165627a7a72305820af0f268348c897b5a83e23b728ad4db1c058ac9d99b9dfc83c33b4eeeb25f64a0029",
  "source": "pragma solidity ^0.5.0;\n\nimport \"./Cagnottes.sol\";\n\ncontract Lottery is Cagnottes{\n\nmapping (address => uint) private prediction ;\nmapping (uint => mapping (address => bool)) private win ;\n\nenum LotteryState { Started, Finished, Pending }\n\n// bloc d'arret du jeux\nuint private blockStop;\n// bloc de prediction\nuint private blockEnd;\n// bloc de fin de declaration de victoire\nuint private blockSave;\n// bloc de fin de recuperation de ses gains\nuint private blockWithdraw;\n// prix en token du jeux\nuint private PRICE_LOTTERY_TOKEN;\n\nLotteryState private state;\n\nstruct resultat\n{\n  uint blockFin;\n  uint cagnotte;\n  uint nbGagnants;\n  uint numCagnotte;\n}\n\nresultat lastResult;\n\nconstructor() public\n{\n  state = LotteryState.Pending;\n  blockStop = 1;\n  blockWithdraw = 1;\n  blockSave = 1;\n  PRICE_LOTTERY_TOKEN = 1;\n  // pour les tests\n  _mint(msg.sender, 10);\n}\n\nfunction initLottery() public onlyOwner\n{\n  require(block.number > lastResult.blockFin + blockSave + blockWithdraw);\n  require(state == LotteryState.Pending);\n  lastResult.nbGagnants = 0;\n  lastResult.numCagnotte += 1;\n  blockEnd = block.number + blockStop;\n  state = LotteryState.Started;\n}\n\nfunction play(uint _prediction) public\n{\n require(prediction[msg.sender] == 0);\n require(block.number <= blockEnd - blockStop);\n require(state == LotteryState.Started);\n require(balanceOf(msg.sender) >= PRICE_LOTTERY_TOKEN);\n  _burn(msg.sender,PRICE_LOTTERY_TOKEN);\n  prediction[msg.sender] = _prediction;\n}\n\nfunction endGame() public onlyOwner\n{\n  require(state == LotteryState.Started);\n  require(block.number >= blockEnd);\n  lastResult.cagnotte = LOTTERY_CAGNOTTE;\n  state = LotteryState.Finished;\n  LOTTERY_CAGNOTTE = 0;\n  lastResult.blockFin = blockEnd;\n  blockEnd = 0;\n}\n\nfunction closeGame() public onlyOwner\n{\n  require(state == LotteryState.Finished);\n  require(block.number > lastResult.blockFin + blockSave);\n  state = LotteryState.Pending;\n}\n\nfunction saveWin() public\n{\n  require(state == LotteryState.Finished);\n  require(prediction[msg.sender] == lastResult.cagnotte);\n  win[lastResult.numCagnotte][msg.sender] = true;\n  lastResult.nbGagnants += 1;\n  prediction[msg.sender] = 0;\n}\n\nfunction withdrawGains() public\n{\n  require(win[lastResult.numCagnotte][msg.sender] == true);\n  require(state == LotteryState.Pending);\n  require(prediction[msg.sender] == lastResult.cagnotte);\n  win[lastResult.numCagnotte][msg.sender] == false;\n  msg.sender.transfer(uint(lastResult.cagnotte.div(lastResult.nbGagnants)));\n}\n\nfunction getStateGame() public view returns (string memory)\n{\n  if(state == LotteryState.Pending){\n    return \"jeux ferme : recuperer vos gains\";\n  }\n  else if(state == LotteryState.Finished){\n    return \"jeux termine : declarer vos gains\";\n  }\n  else{\n    return \"jeux en cours\";\n  }\n}\n\nfunction getPrixLottery() public view returns (uint)\n{\n  return PRICE_LOTTERY_TOKEN;\n}\n\nfunction getEndGame() public view returns (uint)\n{\n  return blockEnd;\n}\n\nfunction getSuperCagnotte() public view returns (uint)\n{\n  return LOTTERY_CAGNOTTE;\n}\n\nfunction getPrediction() public view returns (uint)\n{\n  return prediction[msg.sender];\n}\n\nfunction getBlockStop() public view returns (uint)\n{\n  if (blockEnd < blockStop)\n  {\n  return 0;\n  }\n  else return blockEnd - blockStop;\n\n}\n\nfunction modifierBlockStop(uint _stop) public onlyOwner\n{\n  blockStop = _stop;\n}\n\nfunction getCagnotte() public view returns (uint)\n{\n  return lastResult.cagnotte;\n}\n\nfunction getBlock() public view returns (uint)\n{\n  return block.number;\n}\n\nfunction getGains() public view returns (uint)\n{\n  if (win[lastResult.numCagnotte][msg.sender] == false)\n  {\n  return 0;\n  }\n  else return uint(lastResult.cagnotte.div(lastResult.nbGagnants));\n\n}\n\nfunction getSolde() public view returns (uint)\n{\n  return balanceOf(msg.sender);\n}\n\nfunction getNbGagnants() public view returns (uint)\n{\n  return lastResult.nbGagnants;\n}\n\nfunction getWithdrawBlock() public view returns (uint)\n{\n  if (state == LotteryState.Pending)\n  {\n  return 0;\n  }\n  else return blockEnd + blockSave + blockWithdraw;\n}\n\nfunction getSaveBlock() public view returns (uint)\n{\n  if (state == LotteryState.Finished)\n  {\n  return 0;\n  }\n  return blockEnd + blockSave;\n}\n\nfunction modifierBlockSave(uint _save) public onlyOwner\n{\n  blockSave = _save;\n}\n\nfunction modifierBlockWithdraw(uint _withdraw) public onlyOwner\n{\n  blockWithdraw = _withdraw;\n}\n\nfunction modifierPriceTicket(uint _price) public onlyOwner\n{\n  PRICE_LOTTERY_TOKEN = _price;\n}\n\n\n}\n",
  "sourcePath": "/Users/germaindacunha/Documents/GitHub/Alyra/project/Ether-Union/Ether-Union-BackEnd/contracts/Lottery.sol",
  "compiler": {
    "name": "solc",
    "version": "0.5.0+commit.1d4f565a.Emscripten.clang"
  },
  "schemaVersion": "3.0.9",
  "updatedAt": "2019-05-18T18:47:54.334Z",
  "devdoc": {
    "methods": {
      "allowance(address,address)": {
        "details": "Function to check the amount of tokens that an owner allowed to a spender.",
        "params": {
          "owner": "address The address which owns the funds.",
          "spender": "address The address which will spend the funds."
        },
        "return": "A uint256 specifying the amount of tokens still available for the spender."
      },
      "approve(address,uint256)": {
        "details": "Approve the passed address to spend the specified amount of tokens on behalf of msg.sender. Beware that changing an allowance with this method brings the risk that someone may use both the old and the new allowance by unfortunate transaction ordering. One possible solution to mitigate this race condition is to first reduce the spender's allowance to 0 and set the desired value afterwards: https://github.com/ethereum/EIPs/issues/20#issuecomment-263524729",
        "params": {
          "spender": "The address which will spend the funds.",
          "value": "The amount of tokens to be spent."
        }
      },
      "balanceOf(address)": {
        "details": "Gets the balance of the specified address.",
        "params": {
          "owner": "The address to query the balance of."
        },
        "return": "A uint256 representing the amount owned by the passed address."
      },
      "decreaseAllowance(address,uint256)": {
        "details": "Decrease the amount of tokens that an owner allowed to a spender. approve should be called when _allowed[msg.sender][spender] == 0. To decrement allowed value is better to use this function to avoid 2 calls (and wait until the first transaction is mined) From MonolithDAO Token.sol Emits an Approval event.",
        "params": {
          "spender": "The address which will spend the funds.",
          "subtractedValue": "The amount of tokens to decrease the allowance by."
        }
      },
      "increaseAllowance(address,uint256)": {
        "details": "Increase the amount of tokens that an owner allowed to a spender. approve should be called when _allowed[msg.sender][spender] == 0. To increment allowed value is better to use this function to avoid 2 calls (and wait until the first transaction is mined) From MonolithDAO Token.sol Emits an Approval event.",
        "params": {
          "addedValue": "The amount of tokens to increase the allowance by.",
          "spender": "The address which will spend the funds."
        }
      },
      "totalSupply()": {
        "details": "Total number of tokens in existence"
      },
      "transfer(address,uint256)": {
        "details": "Transfer token to a specified address",
        "params": {
          "to": "The address to transfer to.",
          "value": "The amount to be transferred."
        }
      },
      "transferFrom(address,address,uint256)": {
        "details": "Transfer tokens from one address to another. Note that while this function emits an Approval event, this is not required as per the specification, and other compliant implementations may not emit the event.",
        "params": {
          "from": "address The address which you want to send tokens from",
          "to": "address The address which you want to transfer to",
          "value": "uint256 the amount of tokens to be transferred"
        }
      },
      "transferOwnership(address)": {
        "details": "Allows the current owner to transfer control of the contract to a newOwner.",
        "params": {
          "newOwner": "The address to transfer ownership to."
        }
      }
    }
  },
  "userdoc": {
    "methods": {}
  }
}