{
  "contractName": "Lottery",
  "abi": [
    {
      "constant": true,
      "inputs": [
        {
          "name": "_pseudo",
          "type": "string"
        }
      ],
      "name": "getAddresse",
      "outputs": [
        {
          "name": "",
          "type": "address"
        }
      ],
      "payable": false,
      "stateMutability": "view",
      "type": "function"
    },
    {
      "constant": true,
      "inputs": [],
      "name": "name",
      "outputs": [
        {
          "name": "",
          "type": "string"
        }
      ],
      "payable": false,
      "stateMutability": "view",
      "type": "function"
    },
    {
      "constant": false,
      "inputs": [
        {
          "name": "spender",
          "type": "address"
        },
        {
          "name": "value",
          "type": "uint256"
        }
      ],
      "name": "approve",
      "outputs": [
        {
          "name": "",
          "type": "bool"
        }
      ],
      "payable": false,
      "stateMutability": "nonpayable",
      "type": "function"
    },
    {
      "constant": false,
      "inputs": [
        {
          "name": "_priceGroup",
          "type": "uint256"
        }
      ],
      "name": "modifierPriceGroup",
      "outputs": [],
      "payable": false,
      "stateMutability": "nonpayable",
      "type": "function"
    },
    {
      "constant": true,
      "inputs": [],
      "name": "totalSupply",
      "outputs": [
        {
          "name": "",
          "type": "uint256"
        }
      ],
      "payable": false,
      "stateMutability": "view",
      "type": "function"
    },
    {
      "constant": true,
      "inputs": [],
      "name": "getGroupesPerAddress",
      "outputs": [
        {
          "name": "",
          "type": "uint256[]"
        }
      ],
      "payable": false,
      "stateMutability": "view",
      "type": "function"
    },
    {
      "constant": true,
      "inputs": [
        {
          "name": "_groupe",
          "type": "string"
        }
      ],
      "name": "getPseudoInGroup",
      "outputs": [
        {
          "name": "",
          "type": "string"
        }
      ],
      "payable": false,
      "stateMutability": "view",
      "type": "function"
    },
    {
      "constant": false,
      "inputs": [
        {
          "name": "from",
          "type": "address"
        },
        {
          "name": "to",
          "type": "address"
        },
        {
          "name": "value",
          "type": "uint256"
        }
      ],
      "name": "transferFrom",
      "outputs": [
        {
          "name": "",
          "type": "bool"
        }
      ],
      "payable": false,
      "stateMutability": "nonpayable",
      "type": "function"
    },
    {
      "constant": false,
      "inputs": [
        {
          "name": "_montant",
          "type": "uint256"
        },
        {
          "name": "_pseudo",
          "type": "string"
        },
        {
          "name": "_contratCible",
          "type": "address"
        },
        {
          "name": "_description",
          "type": "string"
        }
      ],
      "name": "demander",
      "outputs": [],
      "payable": true,
      "stateMutability": "payable",
      "type": "function"
    },
    {
      "constant": true,
      "inputs": [
        {
          "name": "_groupe",
          "type": "string"
        }
      ],
      "name": "getMembres",
      "outputs": [
        {
          "name": "",
          "type": "uint256[]"
        }
      ],
      "payable": false,
      "stateMutability": "view",
      "type": "function"
    },
    {
      "constant": true,
      "inputs": [
        {
          "name": "_pseudo",
          "type": "string"
        }
      ],
      "name": "getDonnations",
      "outputs": [
        {
          "name": "",
          "type": "uint256"
        }
      ],
      "payable": false,
      "stateMutability": "view",
      "type": "function"
    },
    {
      "constant": true,
      "inputs": [],
      "name": "decimals",
      "outputs": [
        {
          "name": "",
          "type": "uint32"
        }
      ],
      "payable": false,
      "stateMutability": "view",
      "type": "function"
    },
    {
      "constant": false,
      "inputs": [
        {
          "name": "_priceChannel",
          "type": "uint256"
        }
      ],
      "name": "modifierPriceChannel",
      "outputs": [],
      "payable": false,
      "stateMutability": "nonpayable",
      "type": "function"
    },
    {
      "constant": false,
      "inputs": [
        {
          "name": "spender",
          "type": "address"
        },
        {
          "name": "addedValue",
          "type": "uint256"
        }
      ],
      "name": "increaseAllowance",
      "outputs": [
        {
          "name": "",
          "type": "bool"
        }
      ],
      "payable": false,
      "stateMutability": "nonpayable",
      "type": "function"
    },
    {
      "constant": true,
      "inputs": [
        {
          "name": "_ID",
          "type": "uint256"
        }
      ],
      "name": "getNomGroupe",
      "outputs": [
        {
          "name": "",
          "type": "string"
        }
      ],
      "payable": false,
      "stateMutability": "view",
      "type": "function"
    },
    {
      "constant": true,
      "inputs": [
        {
          "name": "_pseudo",
          "type": "string"
        }
      ],
      "name": "getDescription",
      "outputs": [
        {
          "name": "",
          "type": "string"
        }
      ],
      "payable": false,
      "stateMutability": "view",
      "type": "function"
    },
    {
      "constant": true,
      "inputs": [
        {
          "name": "_ID",
          "type": "uint256"
        }
      ],
      "name": "getNomMembre",
      "outputs": [
        {
          "name": "",
          "type": "string"
        }
      ],
      "payable": false,
      "stateMutability": "view",
      "type": "function"
    },
    {
      "constant": true,
      "inputs": [],
      "name": "getPriceChannel",
      "outputs": [
        {
          "name": "",
          "type": "uint256"
        }
      ],
      "payable": false,
      "stateMutability": "view",
      "type": "function"
    },
    {
      "constant": false,
      "inputs": [
        {
          "name": "_pseudo",
          "type": "string"
        }
      ],
      "name": "fermetureCanal",
      "outputs": [],
      "payable": false,
      "stateMutability": "nonpayable",
      "type": "function"
    },
    {
      "constant": false,
      "inputs": [
        {
          "name": "_priceRatio",
          "type": "uint256"
        }
      ],
      "name": "modifierCharges",
      "outputs": [],
      "payable": false,
      "stateMutability": "nonpayable",
      "type": "function"
    },
    {
      "constant": true,
      "inputs": [
        {
          "name": "_pseudo",
          "type": "string"
        }
      ],
      "name": "getReceptions",
      "outputs": [
        {
          "name": "",
          "type": "uint256"
        }
      ],
      "payable": false,
      "stateMutability": "view",
      "type": "function"
    },
    {
      "constant": false,
      "inputs": [
        {
          "name": "_priceMember",
          "type": "uint256"
        }
      ],
      "name": "modifierPriceMember",
      "outputs": [],
      "payable": false,
      "stateMutability": "nonpayable",
      "type": "function"
    },
    {
      "constant": false,
      "inputs": [
        {
          "name": "_pseudo",
          "type": "string"
        }
      ],
      "name": "payerCanal",
      "outputs": [],
      "payable": true,
      "stateMutability": "payable",
      "type": "function"
    },
    {
      "constant": true,
      "inputs": [],
      "name": "getPriceMember",
      "outputs": [
        {
          "name": "",
          "type": "uint256"
        }
      ],
      "payable": false,
      "stateMutability": "view",
      "type": "function"
    },
    {
      "constant": true,
      "inputs": [
        {
          "name": "owner",
          "type": "address"
        }
      ],
      "name": "balanceOf",
      "outputs": [
        {
          "name": "",
          "type": "uint256"
        }
      ],
      "payable": false,
      "stateMutability": "view",
      "type": "function"
    },
    {
      "constant": true,
      "inputs": [
        {
          "name": "_pseudo",
          "type": "string"
        }
      ],
      "name": "getGroupe",
      "outputs": [
        {
          "name": "",
          "type": "string"
        }
      ],
      "payable": false,
      "stateMutability": "view",
      "type": "function"
    },
    {
      "constant": true,
      "inputs": [],
      "name": "owner",
      "outputs": [
        {
          "name": "",
          "type": "address"
        }
      ],
      "payable": false,
      "stateMutability": "view",
      "type": "function"
    },
    {
      "constant": false,
      "inputs": [
        {
          "name": "_membre",
          "type": "address"
        },
        {
          "name": "_groupe",
          "type": "string"
        },
        {
          "name": "_pseudo",
          "type": "string"
        }
      ],
      "name": "ajouterMembre",
      "outputs": [],
      "payable": true,
      "stateMutability": "payable",
      "type": "function"
    },
    {
      "constant": true,
      "inputs": [],
      "name": "symbol",
      "outputs": [
        {
          "name": "",
          "type": "string"
        }
      ],
      "payable": false,
      "stateMutability": "view",
      "type": "function"
    },
    {
      "constant": true,
      "inputs": [
        {
          "name": "_pseudo",
          "type": "string"
        }
      ],
      "name": "getEncours",
      "outputs": [
        {
          "name": "",
          "type": "uint256"
        }
      ],
      "payable": false,
      "stateMutability": "view",
      "type": "function"
    },
    {
      "constant": false,
      "inputs": [
        {
          "name": "spender",
          "type": "address"
        },
        {
          "name": "subtractedValue",
          "type": "uint256"
        }
      ],
      "name": "decreaseAllowance",
      "outputs": [
        {
          "name": "",
          "type": "bool"
        }
      ],
      "payable": false,
      "stateMutability": "nonpayable",
      "type": "function"
    },
    {
      "constant": false,
      "inputs": [
        {
          "name": "to",
          "type": "address"
        },
        {
          "name": "value",
          "type": "uint256"
        }
      ],
      "name": "transfer",
      "outputs": [
        {
          "name": "",
          "type": "bool"
        }
      ],
      "payable": false,
      "stateMutability": "nonpayable",
      "type": "function"
    },
    {
      "constant": false,
      "inputs": [
        {
          "name": "_maxAmount",
          "type": "uint256"
        }
      ],
      "name": "modifierMaxAmount",
      "outputs": [],
      "payable": false,
      "stateMutability": "nonpayable",
      "type": "function"
    },
    {
      "constant": true,
      "inputs": [
        {
          "name": "_pseudo",
          "type": "string"
        }
      ],
      "name": "getMontant",
      "outputs": [
        {
          "name": "",
          "type": "uint256"
        }
      ],
      "payable": false,
      "stateMutability": "view",
      "type": "function"
    },
    {
      "constant": true,
      "inputs": [
        {
          "name": "owner",
          "type": "address"
        },
        {
          "name": "spender",
          "type": "address"
        }
      ],
      "name": "allowance",
      "outputs": [
        {
          "name": "",
          "type": "uint256"
        }
      ],
      "payable": false,
      "stateMutability": "view",
      "type": "function"
    },
    {
      "constant": true,
      "inputs": [],
      "name": "getOwnedGroupe",
      "outputs": [
        {
          "name": "",
          "type": "uint256[]"
        }
      ],
      "payable": false,
      "stateMutability": "view",
      "type": "function"
    },
    {
      "constant": true,
      "inputs": [
        {
          "name": "_pseudo",
          "type": "string"
        }
      ],
      "name": "getContratCible",
      "outputs": [
        {
          "name": "",
          "type": "address"
        }
      ],
      "payable": false,
      "stateMutability": "view",
      "type": "function"
    },
    {
      "constant": true,
      "inputs": [],
      "name": "getPriceGroup",
      "outputs": [
        {
          "name": "",
          "type": "uint256"
        }
      ],
      "payable": false,
      "stateMutability": "view",
      "type": "function"
    },
    {
      "constant": false,
      "inputs": [
        {
          "name": "newOwner",
          "type": "address"
        }
      ],
      "name": "transferOwnership",
      "outputs": [],
      "payable": false,
      "stateMutability": "nonpayable",
      "type": "function"
    },
    {
      "constant": false,
      "inputs": [
        {
          "name": "_nom",
          "type": "string"
        },
        {
          "name": "_pseudo",
          "type": "string"
        }
      ],
      "name": "creerGroupe",
      "outputs": [],
      "payable": true,
      "stateMutability": "payable",
      "type": "function"
    },
    {
      "constant": false,
      "inputs": [
        {
          "name": "_minAmount",
          "type": "uint256"
        }
      ],
      "name": "modifierMinAmount",
      "outputs": [],
      "payable": false,
      "stateMutability": "nonpayable",
      "type": "function"
    },
    {
      "inputs": [],
      "payable": false,
      "stateMutability": "nonpayable",
      "type": "constructor"
    },
    {
      "anonymous": false,
      "inputs": [
        {
          "indexed": false,
          "name": "groupe",
          "type": "string"
        },
        {
          "indexed": false,
          "name": "pseudo",
          "type": "string"
        }
      ],
      "name": "nouvelleDemamnde",
      "type": "event"
    },
    {
      "anonymous": false,
      "inputs": [
        {
          "indexed": true,
          "name": "previousOwner",
          "type": "address"
        },
        {
          "indexed": true,
          "name": "newOwner",
          "type": "address"
        }
      ],
      "name": "OwnershipTransferred",
      "type": "event"
    },
    {
      "anonymous": false,
      "inputs": [
        {
          "indexed": true,
          "name": "from",
          "type": "address"
        },
        {
          "indexed": true,
          "name": "to",
          "type": "address"
        },
        {
          "indexed": false,
          "name": "value",
          "type": "uint256"
        }
      ],
      "name": "Transfer",
      "type": "event"
    },
    {
      "anonymous": false,
      "inputs": [
        {
          "indexed": true,
          "name": "owner",
          "type": "address"
        },
        {
          "indexed": true,
          "name": "spender",
          "type": "address"
        },
        {
          "indexed": false,
          "name": "value",
          "type": "uint256"
        }
      ],
      "name": "Approval",
      "type": "event"
    },
    {
      "constant": false,
      "inputs": [
        {
          "name": "_price",
          "type": "uint256"
        },
        {
          "name": "_blockEnd",
          "type": "uint256"
        },
        {
          "name": "_blockEnd",
          "type": "uint256"
        }
      ],
      "name": "initierLottery",
      "outputs": [],
      "payable": false,
      "stateMutability": "nonpayable",
      "type": "function"
    },
    {
      "constant": false,
      "inputs": [
        {
          "name": "_prediction",
          "type": "uint256"
        }
      ],
      "name": "play",
      "outputs": [],
      "payable": false,
      "stateMutability": "nonpayable",
      "type": "function"
    },
    {
      "constant": false,
      "inputs": [],
      "name": "endGame",
      "outputs": [],
      "payable": false,
      "stateMutability": "nonpayable",
      "type": "function"
    },
    {
      "constant": false,
      "inputs": [],
      "name": "soldeGame",
      "outputs": [],
      "payable": false,
      "stateMutability": "nonpayable",
      "type": "function"
    },
    {
      "constant": false,
      "inputs": [],
      "name": "withdrawGains",
      "outputs": [],
      "payable": false,
      "stateMutability": "nonpayable",
      "type": "function"
    },
    {
      "constant": true,
      "inputs": [],
      "name": "getPrixLottery",
      "outputs": [
        {
          "name": "",
          "type": "uint256"
        }
      ],
      "payable": false,
      "stateMutability": "view",
      "type": "function"
    },
    {
      "constant": true,
      "inputs": [],
      "name": "getEndGame",
      "outputs": [
        {
          "name": "",
          "type": "uint256"
        }
      ],
      "payable": false,
      "stateMutability": "view",
      "type": "function"
    },
    {
      "constant": true,
      "inputs": [],
      "name": "getSuperCagnotte",
      "outputs": [
        {
          "name": "",
          "type": "uint256"
        }
      ],
      "payable": false,
      "stateMutability": "view",
      "type": "function"
    },
    {
      "constant": true,
      "inputs": [],
      "name": "getBlockStop",
      "outputs": [
        {
          "name": "",
          "type": "uint256"
        }
      ],
      "payable": false,
      "stateMutability": "view",
      "type": "function"
    },
    {
      "constant": false,
      "inputs": [
        {
          "name": "_stop",
          "type": "uint256"
        }
      ],
      "name": "modifierBlockStop",
      "outputs": [
        {
          "name": "",
          "type": "uint256"
        }
      ],
      "payable": false,
      "stateMutability": "nonpayable",
      "type": "function"
    },
    {
      "constant": true,
      "inputs": [
        {
          "name": "_stop",
          "type": "uint256"
        }
      ],
      "name": "getNumCagnotte",
      "outputs": [
        {
          "name": "",
          "type": "uint256"
        }
      ],
      "payable": false,
      "stateMutability": "view",
      "type": "function"
    },
    {
      "constant": false,
      "inputs": [
        {
          "name": "_pool",
          "type": "uint256"
        }
      ],
      "name": "modifierPoolEnd",
      "outputs": [
        {
          "name": "",
          "type": "uint256"
        }
      ],
      "payable": false,
      "stateMutability": "nonpayable",
      "type": "function"
    },
    {
      "constant": true,
      "inputs": [
        {
          "name": "_pool",
          "type": "uint256"
        }
      ],
      "name": "getPoolEnd",
      "outputs": [
        {
          "name": "",
          "type": "uint256"
        }
      ],
      "payable": false,
      "stateMutability": "view",
      "type": "function"
    },
    {
      "constant": true,
      "inputs": [],
      "name": "getCagnotte",
      "outputs": [
        {
          "name": "",
          "type": "uint256"
        }
      ],
      "payable": false,
      "stateMutability": "view",
      "type": "function"
    },
    {
      "constant": true,
      "inputs": [],
      "name": "getBlock",
      "outputs": [
        {
          "name": "",
          "type": "uint256"
        }
      ],
      "payable": false,
      "stateMutability": "view",
      "type": "function"
    },
    {
      "constant": true,
      "inputs": [],
      "name": "getGains",
      "outputs": [
        {
          "name": "",
          "type": "uint256"
        }
      ],
      "payable": false,
      "stateMutability": "view",
      "type": "function"
    },
    {
      "constant": true,
      "inputs": [],
      "name": "getSolde",
      "outputs": [
        {
          "name": "",
          "type": "uint256"
        }
      ],
      "payable": false,
      "stateMutability": "view",
      "type": "function"
    },
    {
      "constant": true,
      "inputs": [],
      "name": "getNbGagnants",
      "outputs": [
        {
          "name": "",
          "type": "uint256"
        }
      ],
      "payable": false,
      "stateMutability": "view",
      "type": "function"
    },
    {
      "constant": true,
      "inputs": [],
      "name": "getNbGagnants",
      "outputs": [
        {
          "name": "",
          "type": "uint256"
        }
      ],
      "payable": false,
      "stateMutability": "view",
      "type": "function"
    }
  ],
  "bytecode": "0x608060405234801561001057600080fd5b5033600360006101000a81548173ffffffffffffffffffffffffffffffffffffffff021916908373ffffffffffffffffffffffffffffffffffffffff160217905550678ac7230489e80000600d8190555062989680600e819055506064600f81905550620186a06010819055506127106011819055506103e86012819055506002601d60006101000a81548160ff021916908360028111156100ae57fe5b02179055506064601981905550600a601c819055506153a580620000d36000396000f3fe6080604052600436106102be576000357c0100000000000000000000000000000000000000000000000000000000900463ffffffff168062afc9e2146102c357806306fdde03146103cb578063095ea7b31461045b5780630bcb257f146104ce57806317503266146104f957806318160ddd146105345780631b4b26fd1461055f5780631e0afe571461059a5780631e63f293146106065780632055bd081461063157806323b872dd14610772578063283a2b461461080557806329c77347146109815780632a51becf14610a9e5780632e97766d14610b7a578063313ce56714610ba5578063370c29f914610bdc5780633950935114610c175780634152299714610c8a57806345de2ca014610d3e578063479359bc14610e7f578063483f021914610eba5780634b20d5d514610ed15780634b7b03cf14610efc5780634c95b44814610fb05780634dc8872914610fdb57806351266706146110a357806355e5ae04146110de57806357430264146111095780635f093553146111e5578063639f84991461122057806367cb92db146112db5780636898f82b146113065780636cbc2ded1461134157806370a08231146113585780637aede272146113bd57806389760011146114fe5780638da5cb5b146115155780638f3333411461156c57806395d89b41146116de5780639d05e9ab1461176e578063a457c2d71461184a578063a9059cbb146118bd578063aee5b78914611930578063b6e91ae41461195b578063bcc21cf614611986578063beaf3b0d146119b1578063d458be7b146119ec578063d74b10a514611a17578063dd62ed3e14611af3578063e09c813614611b78578063e7637a7d14611be4578063e7ac022d14611cec578063e971cee414611d17578063ecb6976814611d42578063f2fde38b14611d6d578063f4343df414611dbe578063f483977214611f10578063f85ba57414611f4b575b600080fd5b3480156102cf57600080fd5b50610389600480360360208110156102e657600080fd5b810190808035906020019064010000000081111561030357600080fd5b82018360208201111561031557600080fd5b8035906020019184600183028401116401000000008311171561033757600080fd5b91908080601f016020809104026020016040519081016040528093929190818152602001838380828437600081840152601f19601f820116905080830192505050505050509192919290505050611f90565b604051808273ffffffffffffffffffffffffffffffffffffffff1673ffffffffffffffffffffffffffffffffffffffff16815260200191505060405180910390f35b3480156103d757600080fd5b506103e061203b565b6040518080602001828103825283818151815260200191508051906020019080838360005b83811015610420578082015181840152602081019050610405565b50505050905090810190601f16801561044d5780820380516001836020036101000a031916815260200191505b509250505060405180910390f35b34801561046757600080fd5b506104b46004803603604081101561047e57600080fd5b81019080803573ffffffffffffffffffffffffffffffffffffffff16906020019092919080359060200190929190505050612074565b604051808215151515815260200191505060405180910390f35b3480156104da57600080fd5b506104e361208b565b6040518082815260200191505060405180910390f35b34801561050557600080fd5b506105326004803603602081101561051c57600080fd5b8101908080359060200190929190505050612095565b005b34801561054057600080fd5b506105496120fb565b6040518082815260200191505060405180910390f35b34801561056b57600080fd5b506105986004803603602081101561058257600080fd5b8101908080359060200190929190505050612105565b005b3480156105a657600080fd5b506105af61216b565b6040518080602001828103825283818151815260200191508051906020019060200280838360005b838110156105f25780820151818401526020810190506105d7565b505050509050019250505060405180910390f35b34801561061257600080fd5b5061061b612200565b6040518082815260200191505060405180910390f35b34801561063d57600080fd5b506106f76004803603602081101561065457600080fd5b810190808035906020019064010000000081111561067157600080fd5b82018360208201111561068357600080fd5b803590602001918460018302840111640100000000831117156106a557600080fd5b91908080601f016020809104026020016040519081016040528093929190818152602001838380828437600081840152601f19601f82011690508083019250505050505050919291929050505061220a565b6040518080602001828103825283818151815260200191508051906020019080838360005b8381101561073757808201518184015260208101905061071c565b50505050905090810190601f1680156107645780820380516001836020036101000a031916815260200191505b509250505060405180910390f35b34801561077e57600080fd5b506107eb6004803603606081101561079557600080fd5b81019080803573ffffffffffffffffffffffffffffffffffffffff169060200190929190803573ffffffffffffffffffffffffffffffffffffffff16906020019092919080359060200190929190505050612323565b604051808215151515815260200191505060405180910390f35b61097f6004803603608081101561081b57600080fd5b81019080803590602001909291908035906020019064010000000081111561084257600080fd5b82018360208201111561085457600080fd5b8035906020019184600183028401116401000000008311171561087657600080fd5b91908080601f016020809104026020016040519081016040528093929190818152602001838380828437600081840152601f19601f820116905080830192505050505050509192919290803573ffffffffffffffffffffffffffffffffffffffff169060200190929190803590602001906401000000008111156108f957600080fd5b82018360208201111561090b57600080fd5b8035906020019184600183028401116401000000008311171561092d57600080fd5b91908080601f016020809104026020016040519081016040528093929190818152602001838380828437600081840152601f19601f8201169050808301925050505050505091929192905050506123d4565b005b34801561098d57600080fd5b50610a47600480360360208110156109a457600080fd5b81019080803590602001906401000000008111156109c157600080fd5b8201836020820111156109d357600080fd5b803590602001918460018302840111640100000000831117156109f557600080fd5b91908080601f016020809104026020016040519081016040528093929190818152602001838380828437600081840152601f19601f820116905080830192505050505050509192919290505050612686565b6040518080602001828103825283818151815260200191508051906020019060200280838360005b83811015610a8a578082015181840152602081019050610a6f565b505050509050019250505060405180910390f35b348015610aaa57600080fd5b50610b6460048036036020811015610ac157600080fd5b8101908080359060200190640100000000811115610ade57600080fd5b820183602082011115610af057600080fd5b80359060200191846001830284011164010000000083111715610b1257600080fd5b91908080601f016020809104026020016040519081016040528093929190818152602001838380828437600081840152601f19601f820116905080830192505050505050509192919290505050612749565b6040518082815260200191505060405180910390f35b348015610b8657600080fd5b50610b8f612810565b6040518082815260200191505060405180910390f35b348015610bb157600080fd5b50610bba612818565b604051808263ffffffff1663ffffffff16815260200191505060405180910390f35b348015610be857600080fd5b50610c1560048036036020811015610bff57600080fd5b810190808035906020019092919050505061281d565b005b348015610c2357600080fd5b50610c7060048036036040811015610c3a57600080fd5b81019080803573ffffffffffffffffffffffffffffffffffffffff16906020019092919080359060200190929190505050612883565b604051808215151515815260200191505060405180910390f35b348015610c9657600080fd5b50610cc360048036036020811015610cad57600080fd5b8101908080359060200190929190505050612928565b6040518080602001828103825283818151815260200191508051906020019080838360005b83811015610d03578082015181840152602081019050610ce8565b50505050905090810190601f168015610d305780820380516001836020036101000a031916815260200191505b509250505060405180910390f35b348015610d4a57600080fd5b50610e0460048036036020811015610d6157600080fd5b8101908080359060200190640100000000811115610d7e57600080fd5b820183602082011115610d9057600080fd5b80359060200191846001830284011164010000000083111715610db257600080fd5b91908080601f016020809104026020016040519081016040528093929190818152602001838380828437600081840152601f19601f8201169050808301925050505050505091929192905050506129dd565b6040518080602001828103825283818151815260200191508051906020019080838360005b83811015610e44578082015181840152602081019050610e29565b50505050905090810190601f168015610e715780820380516001836020036101000a031916815260200191505b509250505060405180910390f35b348015610e8b57600080fd5b50610eb860048036036020811015610ea257600080fd5b8101908080359060200190929190505050612b00565b005b348015610ec657600080fd5b50610ecf612b66565b005b348015610edd57600080fd5b50610ee6612ccc565b6040518082815260200191505060405180910390f35b348015610f0857600080fd5b50610f3560048036036020811015610f1f57600080fd5b8101908080359060200190929190505050612cd9565b6040518080602001828103825283818151815260200191508051906020019080838360005b83811015610f75578082015181840152602081019050610f5a565b50505050905090810190601f168015610fa25780820380516001836020036101000a031916815260200191505b509250505060405180910390f35b348015610fbc57600080fd5b50610fc5612d91565b6040518082815260200191505060405180910390f35b348015610fe757600080fd5b506110a160048036036020811015610ffe57600080fd5b810190808035906020019064010000000081111561101b57600080fd5b82018360208201111561102d57600080fd5b8035906020019184600183028401116401000000008311171561104f57600080fd5b91908080601f016020809104026020016040519081016040528093929190818152602001838380828437600081840152601f19601f820116905080830192505050505050509192919290505050612d9b565b005b3480156110af57600080fd5b506110dc600480360360208110156110c657600080fd5b8101908080359060200190929190505050612f6b565b005b3480156110ea57600080fd5b506110f3612fd1565b6040518082815260200191505060405180910390f35b34801561111557600080fd5b506111cf6004803603602081101561112c57600080fd5b810190808035906020019064010000000081111561114957600080fd5b82018360208201111561115b57600080fd5b8035906020019184600183028401116401000000008311171561117d57600080fd5b91908080601f016020809104026020016040519081016040528093929190818152602001838380828437600081840152601f19601f820116905080830192505050505050509192919290505050612fe1565b6040518082815260200191505060405180910390f35b3480156111f157600080fd5b5061121e6004803603602081101561120857600080fd5b81019080803590602001909291905050506130a8565b005b6112d96004803603602081101561123657600080fd5b810190808035906020019064010000000081111561125357600080fd5b82018360208201111561126557600080fd5b8035906020019184600183028401116401000000008311171561128757600080fd5b91908080601f016020809104026020016040519081016040528093929190818152602001838380828437600081840152601f19601f82011690508083019250505050505050919291929050505061310e565b005b3480156112e757600080fd5b506112f06132c4565b6040518082815260200191505060405180910390f35b34801561131257600080fd5b5061133f6004803603602081101561132957600080fd5b81019080803590602001909291905050506132ce565b005b34801561134d57600080fd5b5061135661349b565b005b34801561136457600080fd5b506113a76004803603602081101561137b57600080fd5b81019080803573ffffffffffffffffffffffffffffffffffffffff169060200190929190505050613996565b6040518082815260200191505060405180910390f35b3480156113c957600080fd5b50611483600480360360208110156113e057600080fd5b81019080803590602001906401000000008111156113fd57600080fd5b82018360208201111561140f57600080fd5b8035906020019184600183028401116401000000008311171561143157600080fd5b91908080601f016020809104026020016040519081016040528093929190818152602001838380828437600081840152601f19601f8201169050808301925050505050505091929192905050506139de565b6040518080602001828103825283818151815260200191508051906020019080838360005b838110156114c35780820151818401526020810190506114a8565b50505050905090810190601f1680156114f05780820380516001836020036101000a031916815260200191505b509250505060405180910390f35b34801561150a57600080fd5b50611513613b01565b005b34801561152157600080fd5b5061152a613ceb565b604051808273ffffffffffffffffffffffffffffffffffffffff1673ffffffffffffffffffffffffffffffffffffffff16815260200191505060405180910390f35b6116dc6004803603606081101561158257600080fd5b81019080803573ffffffffffffffffffffffffffffffffffffffff169060200190929190803590602001906401000000008111156115bf57600080fd5b8201836020820111156115d157600080fd5b803590602001918460018302840111640100000000831117156115f357600080fd5b91908080601f016020809104026020016040519081016040528093929190818152602001838380828437600081840152601f19601f8201169050808301925050505050505091929192908035906020019064010000000081111561165657600080fd5b82018360208201111561166857600080fd5b8035906020019184600183028401116401000000008311171561168a57600080fd5b91908080601f016020809104026020016040519081016040528093929190818152602001838380828437600081840152601f19601f820116905080830192505050505050509192919290505050613d11565b005b3480156116ea57600080fd5b506116f3613f48565b6040518080602001828103825283818151815260200191508051906020019080838360005b83811015611733578082015181840152602081019050611718565b50505050905090810190601f1680156117605780820380516001836020036101000a031916815260200191505b509250505060405180910390f35b34801561177a57600080fd5b506118346004803603602081101561179157600080fd5b81019080803590602001906401000000008111156117ae57600080fd5b8201836020820111156117c057600080fd5b803590602001918460018302840111640100000000831117156117e257600080fd5b91908080601f016020809104026020016040519081016040528093929190818152602001838380828437600081840152601f19601f820116905080830192505050505050509192919290505050613f81565b6040518082815260200191505060405180910390f35b34801561185657600080fd5b506118a36004803603604081101561186d57600080fd5b81019080803573ffffffffffffffffffffffffffffffffffffffff1690602001909291908035906020019092919050505061400c565b604051808215151515815260200191505060405180910390f35b3480156118c957600080fd5b50611916600480360360408110156118e057600080fd5b81019080803573ffffffffffffffffffffffffffffffffffffffff169060200190929190803590602001909291905050506140b1565b604051808215151515815260200191505060405180910390f35b34801561193c57600080fd5b506119456140c8565b6040518082815260200191505060405180910390f35b34801561196757600080fd5b5061197061412e565b6040518082815260200191505060405180910390f35b34801561199257600080fd5b5061199b614138565b6040518082815260200191505060405180910390f35b3480156119bd57600080fd5b506119ea600480360360208110156119d457600080fd5b810190808035906020019092919050505061417d565b005b3480156119f857600080fd5b50611a016141e3565b6040518082815260200191505060405180910390f35b348015611a2357600080fd5b50611add60048036036020811015611a3a57600080fd5b8101908080359060200190640100000000811115611a5757600080fd5b820183602082011115611a6957600080fd5b80359060200191846001830284011164010000000083111715611a8b57600080fd5b91908080601f016020809104026020016040519081016040528093929190818152602001838380828437600081840152601f19601f8201169050808301925050505050505091929192905050506141f0565b6040518082815260200191505060405180910390f35b348015611aff57600080fd5b50611b6260048036036040811015611b1657600080fd5b81019080803573ffffffffffffffffffffffffffffffffffffffff169060200190929190803573ffffffffffffffffffffffffffffffffffffffff16906020019092919050505061427b565b6040518082815260200191505060405180910390f35b348015611b8457600080fd5b50611b8d614302565b6040518080602001828103825283818151815260200191508051906020019060200280838360005b83811015611bd0578082015181840152602081019050611bb5565b505050509050019250505060405180910390f35b348015611bf057600080fd5b50611caa60048036036020811015611c0757600080fd5b8101908080359060200190640100000000811115611c2457600080fd5b820183602082011115611c3657600080fd5b80359060200191846001830284011164010000000083111715611c5857600080fd5b91908080601f016020809104026020016040519081016040528093929190818152602001838380828437600081840152601f19601f820116905080830192505050505050509192919290505050614397565b604051808273ffffffffffffffffffffffffffffffffffffffff1673ffffffffffffffffffffffffffffffffffffffff16815260200191505060405180910390f35b348015611cf857600080fd5b50611d01614442565b6040518082815260200191505060405180910390f35b348015611d2357600080fd5b50611d2c614489565b6040518082815260200191505060405180910390f35b348015611d4e57600080fd5b50611d57614493565b6040518082815260200191505060405180910390f35b348015611d7957600080fd5b50611dbc60048036036020811015611d9057600080fd5b81019080803573ffffffffffffffffffffffffffffffffffffffff1690602001909291905050506144a0565b005b611f0e60048036036040811015611dd457600080fd5b8101908080359060200190640100000000811115611df157600080fd5b820183602082011115611e0357600080fd5b80359060200191846001830284011164010000000083111715611e2557600080fd5b91908080601f016020809104026020016040519081016040528093929190818152602001838380828437600081840152601f19601f82011690508083019250505050505050919291929080359060200190640100000000811115611e8857600080fd5b820183602082011115611e9a57600080fd5b80359060200191846001830284011164010000000083111715611ebc57600080fd5b91908080601f016020809104026020016040519081016040528093929190818152602001838380828437600081840152601f19601f8201169050808301925050505050505091929192905050506145f8565b005b348015611f1c57600080fd5b50611f4960048036036020811015611f3357600080fd5b8101908080359060200190929190505050614901565b005b348015611f5757600080fd5b50611f8e60048036036040811015611f6e57600080fd5b810190808035906020019092919080359060200190929190505050614967565b005b600060046000600a846040518082805190602001908083835b602083101515611fce5780518252602082019150602081019050602083039250611fa9565b6001836020036101000a038019825116818451168082178552505050505050905001915050908152602001604051809103902054815260200190815260200160002060000160009054906101000a900473ffffffffffffffffffffffffffffffffffffffff169050919050565b6040805190810160405280600981526020017f636f696e756e696f6e000000000000000000000000000000000000000000000081525081565b6000612081338484614a4e565b6001905092915050565b6000601a54905090565b600360009054906101000a900473ffffffffffffffffffffffffffffffffffffffff1673ffffffffffffffffffffffffffffffffffffffff163373ffffffffffffffffffffffffffffffffffffffff161415156120f157600080fd5b8060108190555050565b6000600254905090565b600360009054906101000a900473ffffffffffffffffffffffffffffffffffffffff1673ffffffffffffffffffffffffffffffffffffffff163373ffffffffffffffffffffffffffffffffffffffff1614151561216157600080fd5b8060198190555050565b6060600560003373ffffffffffffffffffffffffffffffffffffffff1673ffffffffffffffffffffffffffffffffffffffff1681526020019081526020016000208054806020026020016040519081016040528092919081815260200182805480156121f657602002820191906000526020600020905b8154815260200190600101908083116121e2575b5050505050905090565b6000601354905090565b60606000828051906020012060019004905060046000600b600084815260200190815260200160002060003373ffffffffffffffffffffffffffffffffffffffff1673ffffffffffffffffffffffffffffffffffffffff1681526020019081526020016000205481526020019081526020016000206001018054600181600116156101000203166002900480601f0160208091040260200160405190810160405280929190818152602001828054600181600116156101000203166002900480156123165780601f106122eb57610100808354040283529160200191612316565b820191906000526020600020905b8154815290600101906020018083116122f957829003601f168201915b5050505050915050919050565b6000612330848484614bb1565b6123c984336123c485600160008a73ffffffffffffffffffffffffffffffffffffffff1673ffffffffffffffffffffffffffffffffffffffff16815260200190815260200160002060003373ffffffffffffffffffffffffffffffffffffffff1673ffffffffffffffffffffffffffffffffffffffff16815260200190815260200160002054614d7d90919063ffffffff16565b614a4e565b600190509392505050565b601254341415156123e457600080fd5b600e54841115156123f457600080fd5b600d548410151561240457600080fd5b600083805190602001206001900490503373ffffffffffffffffffffffffffffffffffffffff166004600083815260200190815260200160002060000160009054906101000a900473ffffffffffffffffffffffffffffffffffffffff1673ffffffffffffffffffffffffffffffffffffffff1614151561248457600080fd5b600060046000838152602001908152602001600020600301541415156124a957600080fd5b846004600083815260200190815260200160002060030181905550826004600083815260200190815260200160002060050160006101000a81548173ffffffffffffffffffffffffffffffffffffffff021916908373ffffffffffffffffffffffffffffffffffffffff160217905550816004600083815260200190815260200160002060060190805190602001906125439291906152d4565b507fdc9d3a39aef8f13151f130d0bb7d4d7b099f9ac3fc92b57e3811a478eaf81b5960046000838152602001908152602001600020600201856040518080602001806020018381038352858181546001816001161561010002031660029004815260200191508054600181600116156101000203166002900480156126095780601f106125de57610100808354040283529160200191612609565b820191906000526020600020905b8154815290600101906020018083116125ec57829003601f168201915b5050838103825284818151815260200191508051906020019080838360005b83811015612643578082015181840152602081019050612628565b50505050905090810190601f1680156126705780820380516001836020036101000a031916815260200191505b5094505050505060405180910390a15050505050565b60606006826040518082805190602001908083835b6020831015156126c0578051825260208201915060208101905060208303925061269b565b6001836020036101000a038019825116818451168082178552505050505050905001915050908152602001604051809103902080548060200260200160405190810160405280929190818152602001828054801561273d57602002820191906000526020600020905b815481526020019060010190808311612729575b50505050509050919050565b6000600c60003373ffffffffffffffffffffffffffffffffffffffff1673ffffffffffffffffffffffffffffffffffffffff168152602001908152602001600020600060046000858051906020012060019004815260200190815260200160002060000160009054906101000a900473ffffffffffffffffffffffffffffffffffffffff1673ffffffffffffffffffffffffffffffffffffffff1673ffffffffffffffffffffffffffffffffffffffff168152602001908152602001600020549050919050565b600043905090565b601281565b600360009054906101000a900473ffffffffffffffffffffffffffffffffffffffff1673ffffffffffffffffffffffffffffffffffffffff163373ffffffffffffffffffffffffffffffffffffffff1614151561287957600080fd5b8060128190555050565b600061291e338461291985600160003373ffffffffffffffffffffffffffffffffffffffff1673ffffffffffffffffffffffffffffffffffffffff16815260200190815260200160002060008973ffffffffffffffffffffffffffffffffffffffff1673ffffffffffffffffffffffffffffffffffffffff16815260200190815260200160002054614d9690919063ffffffff16565b614a4e565b6001905092915050565b6060600760008381526020019081526020016000208054600181600116156101000203166002900480601f0160208091040260200160405190810160405280929190818152602001828054600181600116156101000203166002900480156129d15780601f106129a6576101008083540402835291602001916129d1565b820191906000526020600020905b8154815290600101906020018083116129b457829003601f168201915b50505050509050919050565b606060046000600a846040518082805190602001908083835b602083101515612a1b57805182526020820191506020810190506020830392506129f6565b6001836020036101000a03801982511681845116808217855250505050505090500191505090815260200160405180910390205481526020019081526020016000206006018054600181600116156101000203166002900480601f016020809104026020016040519081016040528092919081815260200182805460018160011615610100020316600290048015612af45780601f10612ac957610100808354040283529160200191612af4565b820191906000526020600020905b815481529060010190602001808311612ad757829003601f168201915b50505050509050919050565b600360009054906101000a900473ffffffffffffffffffffffffffffffffffffffff1673ffffffffffffffffffffffffffffffffffffffff163373ffffffffffffffffffffffffffffffffffffffff16141515612b5c57600080fd5b80601c8190555050565b6000601560003373ffffffffffffffffffffffffffffffffffffffff1673ffffffffffffffffffffffffffffffffffffffff16815260200190815260200160002054111515612bb457600080fd5b6000601560003373ffffffffffffffffffffffffffffffffffffffff1673ffffffffffffffffffffffffffffffffffffffff1681526020019081526020016000205490506000601560003373ffffffffffffffffffffffffffffffffffffffff1673ffffffffffffffffffffffffffffffffffffffff168152602001908152602001600020819055503373ffffffffffffffffffffffffffffffffffffffff166108fc829081150290604051600060405180830381858888f19350505050158015612c83573d6000803e3d6000fd5b506000601660003373ffffffffffffffffffffffffffffffffffffffff1673ffffffffffffffffffffffffffffffffffffffff1681526020019081526020016000208190555050565b6000601e60010154905090565b6060600460008381526020019081526020016000206001018054600181600116156101000203166002900480601f016020809104026020016040519081016040528092919081815260200182805460018160011615610100020316600290048015612d855780601f10612d5a57610100808354040283529160200191612d85565b820191906000526020600020905b815481529060010190602001808311612d6857829003601f168201915b50505050509050919050565b6000601254905090565b600081805190602001206001900490506000600460008381526020019081526020016000206003015414151515612dd157600080fd5b3373ffffffffffffffffffffffffffffffffffffffff166004600083815260200190815260200160002060000160009054906101000a900473ffffffffffffffffffffffffffffffffffffffff1673ffffffffffffffffffffffffffffffffffffffff16141515612e4157600080fd5b3373ffffffffffffffffffffffffffffffffffffffff166108fc60046000848152602001908152602001600020600401549081150290604051600060405180830381858888f19350505050158015612e9d573d6000803e3d6000fd5b50600060046000838152602001908152602001600020600401819055506000600460008381526020019081526020016000206003018190555060006004600083815260200190815260200160002060050160006101000a81548173ffffffffffffffffffffffffffffffffffffffff021916908373ffffffffffffffffffffffffffffffffffffffff1602179055506020604051908101604052806000815250600460008381526020019081526020016000206006019080519060200190612f669291906152d4565b505050565b600360009054906101000a900473ffffffffffffffffffffffffffffffffffffffff1673ffffffffffffffffffffffffffffffffffffffff163373ffffffffffffffffffffffffffffffffffffffff16141515612fc757600080fd5b80600f8190555050565b6000612fdc33613996565b905090565b6000600c600060046000858051906020012060019004815260200190815260200160002060000160009054906101000a900473ffffffffffffffffffffffffffffffffffffffff1673ffffffffffffffffffffffffffffffffffffffff1673ffffffffffffffffffffffffffffffffffffffff16815260200190815260200160002060003373ffffffffffffffffffffffffffffffffffffffff1673ffffffffffffffffffffffffffffffffffffffff168152602001908152602001600020549050919050565b600360009054906101000a900473ffffffffffffffffffffffffffffffffffffffff1673ffffffffffffffffffffffffffffffffffffffff163373ffffffffffffffffffffffffffffffffffffffff1614151561310457600080fd5b8060118190555050565b6012543411151561311e57600080fd5b60008180519060200120600190049050600060046000838152602001908152602001600020600301541415151561315457600080fd5b3460046000838152602001908152602001600020600401546004600084815260200190815260200160002060030154031015151561319157600080fd5b6000600f54348115156131a057fe5b0490506000349050818103905080600460008581526020019081526020016000206004016000828254019250508190555080600c60003373ffffffffffffffffffffffffffffffffffffffff1673ffffffffffffffffffffffffffffffffffffffff16815260200190815260200160002060006004600087815260200190815260200160002060000160009054906101000a900473ffffffffffffffffffffffffffffffffffffffff1673ffffffffffffffffffffffffffffffffffffffff1673ffffffffffffffffffffffffffffffffffffffff168152602001908152602001600020600082825401925050819055506132a5600283614db490919063ffffffff16565b6013600082825401925050819055506132be3383614dcf565b50505050565b6000601154905090565b601954601a5403431015156132e257600080fd5b600060028111156132ef57fe5b601d60009054906101000a900460ff16600281111561330a57fe5b14151561331657600080fd5b601b5461332233613996565b1015151561332f57600080fd5b61333b33601b54614f23565b601460003373ffffffffffffffffffffffffffffffffffffffff1673ffffffffffffffffffffffffffffffffffffffff1681526020019081526020016000208190806001815401808255809150509060018203906000526020600020016000909192909190915055506000601660003373ffffffffffffffffffffffffffffffffffffffff1673ffffffffffffffffffffffffffffffffffffffff1681526020019081526020016000205414156134985760173390806001815401808255809150509060018203906000526020600020016000909192909190916101000a81548173ffffffffffffffffffffffffffffffffffffffff021916908373ffffffffffffffffffffffffffffffffffffffff160217905550506001601660003373ffffffffffffffffffffffffffffffffffffffff1673ffffffffffffffffffffffffffffffffffffffff168152602001908152602001600020819055505b50565b600360009054906101000a900473ffffffffffffffffffffffffffffffffffffffff1673ffffffffffffffffffffffffffffffffffffffff163373ffffffffffffffffffffffffffffffffffffffff161415156134f757600080fd5b6000600281111561350457fe5b601d60009054906101000a900460ff16600281111561351f57fe5b14151561352b57600080fd5b601a544311151561353b57600080fd5b6000601c54601780549050111561355657601c54905061355f565b60178054905090505b60008090505b818110156138b8576000601c546014600060178581548110151561358557fe5b9060005260206000200160009054906101000a900473ffffffffffffffffffffffffffffffffffffffff1673ffffffffffffffffffffffffffffffffffffffff1673ffffffffffffffffffffffffffffffffffffffff1681526020019081526020016000208054905011156135fe57601c54905061367d565b6014600060178481548110151561361157fe5b9060005260206000200160009054906101000a900473ffffffffffffffffffffffffffffffffffffffff1673ffffffffffffffffffffffffffffffffffffffff1673ffffffffffffffffffffffffffffffffffffffff1681526020019081526020016000208054905090505b60008090505b8181101561386d57601354601460006017868154811015156136a157fe5b9060005260206000200160009054906101000a900473ffffffffffffffffffffffffffffffffffffffff1673ffffffffffffffffffffffffffffffffffffffff1673ffffffffffffffffffffffffffffffffffffffff1681526020019081526020016000208281548110151561371357fe5b90600052602060002001541480156137bb575060006014600060178681548110151561373b57fe5b9060005260206000200160009054906101000a900473ffffffffffffffffffffffffffffffffffffffff1673ffffffffffffffffffffffffffffffffffffffff1673ffffffffffffffffffffffffffffffffffffffff168152602001908152602001600020828154811015156137ad57fe5b906000526020600020015414155b156138605760186017848154811015156137d157fe5b9060005260206000200160009054906101000a900473ffffffffffffffffffffffffffffffffffffffff1690806001815401808255809150509060018203906000526020600020016000909192909190916101000a81548173ffffffffffffffffffffffffffffffffffffffff021916908373ffffffffffffffffffffffffffffffffffffffff160217905550505b8080600101915050613683565b5060178281548110151561387d57fe5b9060005260206000200160006101000a81549073ffffffffffffffffffffffffffffffffffffffff0219169055508080600101915050613565565b506000601780549050141561391b57600060188054905011156138f6576138ef601880549050601354614db490919063ffffffff16565b6013819055505b6001601d60006101000a81548160ff0219169083600281111561391557fe5b02179055505b3373ffffffffffffffffffffffffffffffffffffffff166108fc6013549081150290604051600060405180830381858888f19350505050158015613963573d6000803e3d6000fd5b506001601e60000160008282540192505081905550601354601e60010181905550601880549050601e6002018190555050565b60008060008373ffffffffffffffffffffffffffffffffffffffff1673ffffffffffffffffffffffffffffffffffffffff168152602001908152602001600020549050919050565b606060046000600a846040518082805190602001908083835b602083101515613a1c57805182526020820191506020810190506020830392506139f7565b6001836020036101000a03801982511681845116808217855250505050505090500191505090815260200160405180910390205481526020019081526020016000206002018054600181600116156101000203166002900480601f016020809104026020016040519081016040528092919081815260200182805460018160011615610100020316600290048015613af55780601f10613aca57610100808354040283529160200191613af5565b820191906000526020600020905b815481529060010190602001808311613ad857829003601f168201915b50505050509050919050565b600360009054906101000a900473ffffffffffffffffffffffffffffffffffffffff1673ffffffffffffffffffffffffffffffffffffffff163373ffffffffffffffffffffffffffffffffffffffff16141515613b5d57600080fd5b60016002811115613b6a57fe5b601d60009054906101000a900460ff166002811115613b8557fe5b141515613b9157600080fd5b6000601880549050111515613ba557600080fd5b6000600a6018805490501115613bbe57600a9050613bc7565b60188054905090505b60008090505b81811015613cac57613c6260135460156000601885815481101515613bee57fe5b9060005260206000200160009054906101000a900473ffffffffffffffffffffffffffffffffffffffff1673ffffffffffffffffffffffffffffffffffffffff1673ffffffffffffffffffffffffffffffffffffffff16815260200190815260200160002054614d9690919063ffffffff16565b50601881815481101515613c7257fe5b9060005260206000200160006101000a81549073ffffffffffffffffffffffffffffffffffffffff02191690558080600101915050613bcd565b5060006018805490501415613ce85760006013819055506002601d60006101000a81548160ff02191690836002811115613ce257fe5b02179055505b50565b600360009054906101000a900473ffffffffffffffffffffffffffffffffffffffff1681565b34601154141515613d2157600080fd5b60008180519060200120600190049050600073ffffffffffffffffffffffffffffffffffffffff166004600083815260200190815260200160002060000160009054906101000a900473ffffffffffffffffffffffffffffffffffffffff1673ffffffffffffffffffffffffffffffffffffffff16141515613da257600080fd5b3373ffffffffffffffffffffffffffffffffffffffff166009846040518082805190602001908083835b602083101515613df15780518252602082019150602081019050602083039250613dcc565b6001836020036101000a038019825116818451168082178552505050505050905001915050908152602001604051809103902060009054906101000a900473ffffffffffffffffffffffffffffffffffffffff1673ffffffffffffffffffffffffffffffffffffffff16141515613e6757600080fd5b60008380519060200120600190049050600560008673ffffffffffffffffffffffffffffffffffffffff1673ffffffffffffffffffffffffffffffffffffffff168152602001908152602001600020819080600181540180825580915050906001820390600052602060002001600090919290919091505550336004600084815260200190815260200160002060000160006101000a81548173ffffffffffffffffffffffffffffffffffffffff021916908373ffffffffffffffffffffffffffffffffffffffff160217905550613f4183858385614fca565b5050505050565b6040805190810160405280600581526020017f554e494f4e00000000000000000000000000000000000000000000000000000081525081565b600060046000600a846040518082805190602001908083835b602083101515613fbf5780518252602082019150602081019050602083039250613f9a565b6001836020036101000a0380198251168184511680821785525050505050509050019150509081526020016040518091039020548152602001908152602001600020600401549050919050565b60006140a733846140a285600160003373ffffffffffffffffffffffffffffffffffffffff1673ffffffffffffffffffffffffffffffffffffffff16815260200190815260200160002060008973ffffffffffffffffffffffffffffffffffffffff1673ffffffffffffffffffffffffffffffffffffffff16815260200190815260200160002054614d7d90919063ffffffff16565b614a4e565b6001905092915050565b60006140be338484614bb1565b6001905092915050565b6000600360009054906101000a900473ffffffffffffffffffffffffffffffffffffffff1673ffffffffffffffffffffffffffffffffffffffff163373ffffffffffffffffffffffffffffffffffffffff1614151561412657600080fd5b601c54905090565b6000601b54905090565b600060028081111561414657fe5b601d60009054906101000a900460ff16600281111561416157fe5b1415614170576000905061417a565b601954601a540390505b90565b600360009054906101000a900473ffffffffffffffffffffffffffffffffffffffff1673ffffffffffffffffffffffffffffffffffffffff163373ffffffffffffffffffffffffffffffffffffffff161415156141d957600080fd5b80600d8190555050565b6000601e60020154905090565b600060046000600a846040518082805190602001908083835b60208310151561422e5780518252602082019150602081019050602083039250614209565b6001836020036101000a0380198251168184511680821785525050505050509050019150509081526020016040518091039020548152602001908152602001600020600301549050919050565b6000600160008473ffffffffffffffffffffffffffffffffffffffff1673ffffffffffffffffffffffffffffffffffffffff16815260200190815260200160002060008373ffffffffffffffffffffffffffffffffffffffff1673ffffffffffffffffffffffffffffffffffffffff16815260200190815260200160002054905092915050565b6060600860003373ffffffffffffffffffffffffffffffffffffffff1673ffffffffffffffffffffffffffffffffffffffff16815260200190815260200160002080548060200260200160405190810160405280929190818152602001828054801561438d57602002820191906000526020600020905b815481526020019060010190808311614379575b5050505050905090565b600060046000600a846040518082805190602001908083835b6020831015156143d557805182526020820191506020810190506020830392506143b0565b6001836020036101000a038019825116818451168082178552505050505050905001915050908152602001604051809103902054815260200190815260200160002060050160009054906101000a900473ffffffffffffffffffffffffffffffffffffffff169050919050565b6000601560003373ffffffffffffffffffffffffffffffffffffffff1673ffffffffffffffffffffffffffffffffffffffff16815260200190815260200160002054905090565b6000601054905090565b6000601e60000154905090565b600360009054906101000a900473ffffffffffffffffffffffffffffffffffffffff1673ffffffffffffffffffffffffffffffffffffffff163373ffffffffffffffffffffffffffffffffffffffff161415156144fc57600080fd5b600073ffffffffffffffffffffffffffffffffffffffff168173ffffffffffffffffffffffffffffffffffffffff161415151561453857600080fd5b8073ffffffffffffffffffffffffffffffffffffffff16600360009054906101000a900473ffffffffffffffffffffffffffffffffffffffff1673ffffffffffffffffffffffffffffffffffffffff167f8be0079c531659141344cd1fd0a4f28419497f9722a3daafe3b4186f6b6457e060405160405180910390a380600360006101000a81548173ffffffffffffffffffffffffffffffffffffffff021916908373ffffffffffffffffffffffffffffffffffffffff16021790555050565b3460105414151561460857600080fd5b60008280519060200120600190049050600073ffffffffffffffffffffffffffffffffffffffff166009846040518082805190602001908083835b6020831015156146685780518252602082019150602081019050602083039250614643565b6001836020036101000a038019825116818451168082178552505050505050905001915050908152602001604051809103902060009054906101000a900473ffffffffffffffffffffffffffffffffffffffff1673ffffffffffffffffffffffffffffffffffffffff161415156146de57600080fd5b60008280519060200120600190049050600073ffffffffffffffffffffffffffffffffffffffff166004600083815260200190815260200160002060000160009054906101000a900473ffffffffffffffffffffffffffffffffffffffff1673ffffffffffffffffffffffffffffffffffffffff1614151561475f57600080fd5b336004600083815260200190815260200160002060000160006101000a81548173ffffffffffffffffffffffffffffffffffffffff021916908373ffffffffffffffffffffffffffffffffffffffff160217905550836007600084815260200190815260200160002090805190602001906147db9291906152d4565b50336009856040518082805190602001908083835b60208310151561481557805182526020820191506020810190506020830392506147f0565b6001836020036101000a038019825116818451168082178552505050505050905001915050908152602001604051809103902060006101000a81548173ffffffffffffffffffffffffffffffffffffffff021916908373ffffffffffffffffffffffffffffffffffffffff160217905550600860003373ffffffffffffffffffffffffffffffffffffffff1673ffffffffffffffffffffffffffffffffffffffff1681526020019081526020016000208290806001815401808255809150509060018203906000526020600020016000909192909190915055506148fb83858484614fca565b50505050565b600360009054906101000a900473ffffffffffffffffffffffffffffffffffffffff1673ffffffffffffffffffffffffffffffffffffffff163373ffffffffffffffffffffffffffffffffffffffff1614151561495d57600080fd5b80600e8190555050565b600360009054906101000a900473ffffffffffffffffffffffffffffffffffffffff1673ffffffffffffffffffffffffffffffffffffffff163373ffffffffffffffffffffffffffffffffffffffff161415156149c357600080fd5b601954601a5403431015156149d757600080fd5b6002808111156149e357fe5b601d60009054906101000a900460ff1660028111156149fe57fe5b141515614a0a57600080fd5b8043101515614a1857600080fd5b80601a8190555081601b819055506000601d60006101000a81548160ff02191690836002811115614a4557fe5b02179055505050565b600073ffffffffffffffffffffffffffffffffffffffff168273ffffffffffffffffffffffffffffffffffffffff1614151515614a8a57600080fd5b600073ffffffffffffffffffffffffffffffffffffffff168373ffffffffffffffffffffffffffffffffffffffff1614151515614ac657600080fd5b80600160008573ffffffffffffffffffffffffffffffffffffffff1673ffffffffffffffffffffffffffffffffffffffff16815260200190815260200160002060008473ffffffffffffffffffffffffffffffffffffffff1673ffffffffffffffffffffffffffffffffffffffff168152602001908152602001600020819055508173ffffffffffffffffffffffffffffffffffffffff168373ffffffffffffffffffffffffffffffffffffffff167f8c5be1e5ebec7d5bd14f71427d1e84f3dd0314c0f7b2291e5b200ac8c7c3b925836040518082815260200191505060405180910390a3505050565b600073ffffffffffffffffffffffffffffffffffffffff168273ffffffffffffffffffffffffffffffffffffffff1614151515614bed57600080fd5b614c3e816000808673ffffffffffffffffffffffffffffffffffffffff1673ffffffffffffffffffffffffffffffffffffffff16815260200190815260200160002054614d7d90919063ffffffff16565b6000808573ffffffffffffffffffffffffffffffffffffffff1673ffffffffffffffffffffffffffffffffffffffff16815260200190815260200160002081905550614cd1816000808573ffffffffffffffffffffffffffffffffffffffff1673ffffffffffffffffffffffffffffffffffffffff16815260200190815260200160002054614d9690919063ffffffff16565b6000808473ffffffffffffffffffffffffffffffffffffffff1673ffffffffffffffffffffffffffffffffffffffff168152602001908152602001600020819055508173ffffffffffffffffffffffffffffffffffffffff168373ffffffffffffffffffffffffffffffffffffffff167fddf252ad1be2c89b69c2b068fc378daa952ba7f163c4a11628f55a4df523b3ef836040518082815260200191505060405180910390a3505050565b6000828211151515614d8b57fe5b818303905092915050565b6000808284019050838110151515614daa57fe5b8091505092915050565b6000808284811515614dc257fe5b0490508091505092915050565b600073ffffffffffffffffffffffffffffffffffffffff168273ffffffffffffffffffffffffffffffffffffffff1614151515614e0b57600080fd5b614e2081600254614d9690919063ffffffff16565b600281905550614e77816000808573ffffffffffffffffffffffffffffffffffffffff1673ffffffffffffffffffffffffffffffffffffffff16815260200190815260200160002054614d9690919063ffffffff16565b6000808473ffffffffffffffffffffffffffffffffffffffff1673ffffffffffffffffffffffffffffffffffffffff168152602001908152602001600020819055508173ffffffffffffffffffffffffffffffffffffffff16600073ffffffffffffffffffffffffffffffffffffffff167fddf252ad1be2c89b69c2b068fc378daa952ba7f163c4a11628f55a4df523b3ef836040518082815260200191505060405180910390a35050565b614f2d8282615180565b614fc68233614fc184600160008873ffffffffffffffffffffffffffffffffffffffff1673ffffffffffffffffffffffffffffffffffffffff16815260200190815260200160002060003373ffffffffffffffffffffffffffffffffffffffff1673ffffffffffffffffffffffffffffffffffffffff16815260200190815260200160002054614d7d90919063ffffffff16565b614a4e565b5050565b83600460008381526020019081526020016000206001019080519060200190614ff49291906152d4565b508260046000838152602001908152602001600020600201908051906020019061501f9291906152d4565b506006836040518082805190602001908083835b6020831015156150585780518252602082019150602081019050602083039250615033565b6001836020036101000a038019825116818451168082178552505050505050905001915050908152602001604051809103902081908060018154018082558091505090600182039060005260206000200160009091929091909150555080600a856040518082805190602001908083835b6020831015156150ee57805182526020820191506020810190506020830392506150c9565b6001836020036101000a03801982511681845116808217855250505050505090500191505090815260200160405180910390208190555080600b600084815260200190815260200160002060003373ffffffffffffffffffffffffffffffffffffffff1673ffffffffffffffffffffffffffffffffffffffff1681526020019081526020016000208190555050505050565b600073ffffffffffffffffffffffffffffffffffffffff168273ffffffffffffffffffffffffffffffffffffffff16141515156151bc57600080fd5b6151d181600254614d7d90919063ffffffff16565b600281905550615228816000808573ffffffffffffffffffffffffffffffffffffffff1673ffffffffffffffffffffffffffffffffffffffff16815260200190815260200160002054614d7d90919063ffffffff16565b6000808473ffffffffffffffffffffffffffffffffffffffff1673ffffffffffffffffffffffffffffffffffffffff16815260200190815260200160002081905550600073ffffffffffffffffffffffffffffffffffffffff168273ffffffffffffffffffffffffffffffffffffffff167fddf252ad1be2c89b69c2b068fc378daa952ba7f163c4a11628f55a4df523b3ef836040518082815260200191505060405180910390a35050565b828054600181600116156101000203166002900490600052602060002090601f016020900481019282601f1061531557805160ff1916838001178555615343565b82800160010185558215615343579182015b82811115615342578251825591602001919060010190615327565b5b5090506153509190615354565b5090565b61537691905b8082111561537257600081600090555060010161535a565b5090565b9056fea165627a7a723058200cfc1e6ead11d5bf746cb173f2ab4244a3aa0d935bfe529da2350f2598f5ff5e0029",
  "source": "pragma solidity ^0.5.0;\n\nimport \"./Cagnottes.sol\";\n\ncontract Lottery is Cagnottes{\n\nmapping (address => uint[]) private prediction ;\nmapping (address => uint) private gains;\nmapping (address => uint) private isPlayer;\n\nenum LotteryState { Started, Finished, Pending }\n\naddress[] private players;\naddress[] private winners;\n\nuint private blockStop;\nuint private blockEnd;\nuint private PRICE_LOTTERY_TOKEN;\nuint private POOL_ENDGAME;\n\nLotteryState private state;\n\nstruct resultat\n{\n  uint numCagnotte;\n  uint cagnotte;\n  uint nbGagnants;\n}\n\nresultat lastResult;\n\nconstructor() public\n{\n  state = LotteryState.Pending;\n  blockStop = 100;\n  POOL_ENDGAME = 10;\n}\n\nfunction initierLottery(uint _price, uint _blockEnd) public onlyOwner\n{\n  require(block.number < blockEnd - blockStop);\n  require(state == LotteryState.Pending);\n  require(block.number < _blockEnd);\n  blockEnd = _blockEnd;\n  PRICE_LOTTERY_TOKEN = _price;\n  state = LotteryState.Started;\n}\n\nfunction play(uint _prediction) public\n{\n  require(block.number < blockEnd - blockStop);\n  require(state == LotteryState.Started);\n  require(balanceOf(msg.sender) >= PRICE_LOTTERY_TOKEN);\n  _burnFrom(msg.sender,PRICE_LOTTERY_TOKEN);\n  prediction[msg.sender].push(_prediction);\n  if (isPlayer[msg.sender] == 0)\n  {\n    players.push(msg.sender);\n    isPlayer[msg.sender] = 1;\n  }\n}\n\nfunction endGame() public onlyOwner\n{\n  require(state == LotteryState.Started);\n  require(block.number > blockEnd);\n  uint length;\n  if (players.length > POOL_ENDGAME)\n  {\n    length = POOL_ENDGAME;\n  }\n  else {\n    length = players.length;\n  }\n  for (uint i=0; i< length; i++)\n  {\n    uint length2;\n    if (prediction[players[i]].length > POOL_ENDGAME)\n    {\n      length2 = POOL_ENDGAME;\n    }\n    else {\n      length2 = prediction[players[i]].length;\n    }\n    for (uint j=0; j< length2; j++)\n    {\n      if (prediction[players[i]][j] == LOTTERY_CAGNOTTE && prediction[players[i]][j] != 0)\n      {\n        winners.push(players[i]);\n      }\n    }\n    delete players[i];\n  }\n  if (players.length == 0)\n  {\n    if (winners.length > 0)\n    {\n    LOTTERY_CAGNOTTE = uint(LOTTERY_CAGNOTTE.div(winners.length));\n    }\n    state = LotteryState.Finished;\n  }\n  msg.sender.transfer(LOTTERY_CAGNOTTE);\n  lastResult.numCagnotte += 1;\n  lastResult.cagnotte = LOTTERY_CAGNOTTE;\n  lastResult.nbGagnants = winners.length;\n}\n\nfunction soldeGame() public onlyOwner\n{\n  require(state == LotteryState.Finished);\n  require(winners.length>0);\n  uint length;\n  if (winners.length > 10)\n  {\n    length = 10;\n  }\n  else {\n    length = winners.length;\n  }\n  for (uint i=0; i< length; i++)\n  {\n    gains[winners[i]].add(LOTTERY_CAGNOTTE);\n    delete winners[i];\n  }\n  if (winners.length == 0)\n  {\n    LOTTERY_CAGNOTTE = 0;\n    state = LotteryState.Pending;\n  }\n}\n\nfunction withdrawGains() public\n{\n  require(gains[msg.sender]> 0);\n  uint MyGains = gains[msg.sender];\n  gains[msg.sender] = 0;\n  msg.sender.transfer(MyGains);\n  isPlayer[msg.sender] = 0;\n}\n\nfunction getPrixLottery() public view returns (uint)\n{\n  return PRICE_LOTTERY_TOKEN;\n}\n\nfunction getEndGame() public view returns (uint)\n{\n  return blockEnd;\n}\n\nfunction getSuperCagnotte() public view returns (uint)\n{\n  return LOTTERY_CAGNOTTE;\n}\n\nfunction getBlockStop() public view returns (uint)\n{\n  if (state == LotteryState.Pending)\n  {\n  return 0;\n  }\n  else return blockEnd - blockStop;\n\n}\n\nfunction modifierBlockStop(uint _stop) public onlyOwner\n{\n  blockStop = _stop;\n}\n\nfunction getNumCagnotte() public view returns (uint)\n{\n  return lastResult.numCagnotte;\n}\n\nfunction modifierPoolEnd(uint _pool) public onlyOwner\n{\n  POOL_ENDGAME = _pool;\n}\n\nfunction getPoolEnd() public onlyOwner view returns (uint)\n{\n  return POOL_ENDGAME;\n}\n\nfunction getCagnotte() public view returns (uint)\n{\n  return lastResult.cagnotte;\n}\n\nfunction getBlock() public view returns (uint)\n{\n  return block.number;\n}\n\nfunction getGains() public view returns (uint)\n{\n  return gains[msg.sender];\n}\n\nfunction getSolde() public view returns (uint)\n{\n  return balanceOf(msg.sender);\n}\n\nfunction getNbGagnants() public view returns (uint)\n{\n  return lastResult.nbGagnants;\n}\n\n}\n",
  "sourcePath": "/Users/germaindacunha/Documents/GitHub/Alyra/project/Ether-Union/Ether-Union-BackEnd/contracts/Lottery.sol",
  "compiler": {
    "name": "solc",
    "version": "0.5.0+commit.1d4f565a.Emscripten.clang"
  },
  "schemaVersion": "3.0.9",
  "updatedAt": "2019-05-17T20:07:34.798Z",
  "devdoc": {
    "methods": {
      "allowance(address,address)": {
        "details": "Function to check the amount of tokens that an owner allowed to a spender.",
        "params": {
          "owner": "address The address which owns the funds.",
          "spender": "address The address which will spend the funds."
        },
        "return": "A uint256 specifying the amount of tokens still available for the spender."
      },
      "approve(address,uint256)": {
        "details": "Approve the passed address to spend the specified amount of tokens on behalf of msg.sender. Beware that changing an allowance with this method brings the risk that someone may use both the old and the new allowance by unfortunate transaction ordering. One possible solution to mitigate this race condition is to first reduce the spender's allowance to 0 and set the desired value afterwards: https://github.com/ethereum/EIPs/issues/20#issuecomment-263524729",
        "params": {
          "spender": "The address which will spend the funds.",
          "value": "The amount of tokens to be spent."
        }
      },
      "balanceOf(address)": {
        "details": "Gets the balance of the specified address.",
        "params": {
          "owner": "The address to query the balance of."
        },
        "return": "A uint256 representing the amount owned by the passed address."
      },
      "decreaseAllowance(address,uint256)": {
        "details": "Decrease the amount of tokens that an owner allowed to a spender. approve should be called when _allowed[msg.sender][spender] == 0. To decrement allowed value is better to use this function to avoid 2 calls (and wait until the first transaction is mined) From MonolithDAO Token.sol Emits an Approval event.",
        "params": {
          "spender": "The address which will spend the funds.",
          "subtractedValue": "The amount of tokens to decrease the allowance by."
        }
      },
      "increaseAllowance(address,uint256)": {
        "details": "Increase the amount of tokens that an owner allowed to a spender. approve should be called when _allowed[msg.sender][spender] == 0. To increment allowed value is better to use this function to avoid 2 calls (and wait until the first transaction is mined) From MonolithDAO Token.sol Emits an Approval event.",
        "params": {
          "addedValue": "The amount of tokens to increase the allowance by.",
          "spender": "The address which will spend the funds."
        }
      },
      "totalSupply()": {
        "details": "Total number of tokens in existence"
      },
      "transfer(address,uint256)": {
        "details": "Transfer token to a specified address",
        "params": {
          "to": "The address to transfer to.",
          "value": "The amount to be transferred."
        }
      },
      "transferFrom(address,address,uint256)": {
        "details": "Transfer tokens from one address to another. Note that while this function emits an Approval event, this is not required as per the specification, and other compliant implementations may not emit the event.",
        "params": {
          "from": "address The address which you want to send tokens from",
          "to": "address The address which you want to transfer to",
          "value": "uint256 the amount of tokens to be transferred"
        }
      },
      "transferOwnership(address)": {
        "details": "Allows the current owner to transfer control of the contract to a newOwner.",
        "params": {
          "newOwner": "The address to transfer ownership to."
        }
      }
    }
  },
  "userdoc": {
    "methods": {}
  }
}