{
  "contractName": "Cartes",
  "abi": [
    {
      "constant": false,
      "inputs": [
        {
          "name": "s",
          "type": "string"
        }
      ],
      "name": "ajouterCarte",
      "outputs": [],
      "payable": false,
      "stateMutability": "nonpayable",
      "type": "function"
    },
    {
      "constant": true,
      "inputs": [
        {
          "name": "ind",
          "type": "uint256"
        }
      ],
      "name": "recuperer",
      "outputs": [
        {
          "name": "",
          "type": "string"
        }
      ],
      "payable": false,
      "stateMutability": "view",
      "type": "function"
    },
    {
      "constant": true,
      "inputs": [],
      "name": "toutRecuperer",
      "outputs": [
        {
          "name": "",
          "type": "string[]"
        }
      ],
      "payable": false,
      "stateMutability": "view",
      "type": "function"
    }
  ],
  "bytecode": "0x608060405234801561001057600080fd5b50610695806100206000396000f3fe608060405260043610610057576000357c0100000000000000000000000000000000000000000000000000000000900463ffffffff1680638439b3f91461005c578063c54f054414610087578063c69d3bb1146100b0575b600080fd5b34801561006857600080fd5b506100716100ed565b60405161007e9190610526565b60405180910390f35b34801561009357600080fd5b506100ae60048036036100a991908101906103e2565b6101d6565b005b3480156100bc57600080fd5b506100d760048036036100d29190810190610423565b610218565b6040516100e49190610548565b60405180910390f35b60606000805480602002602001604051908101604052809291908181526020016000905b828210156101cd578382906000526020600020018054600181600116156101000203166002900480601f0160208091040260200160405190810160405280929190818152602001828054600181600116156101000203166002900480156101b95780601f1061018e576101008083540402835291602001916101b9565b820191906000526020600020905b81548152906001019060200180831161019c57829003601f168201915b505050505081526020019060010190610111565b50505050905090565b60008190806001815401808255809150509060018203906000526020600020016000909192909190915090805190602001906102139291906102d3565b505050565b606060008281548110151561022957fe5b906000526020600020018054600181600116156101000203166002900480601f0160208091040260200160405190810160405280929190818152602001828054600181600116156101000203166002900480156102c75780601f1061029c576101008083540402835291602001916102c7565b820191906000526020600020905b8154815290600101906020018083116102aa57829003601f168201915b50505050509050919050565b828054600181600116156101000203166002900490600052602060002090601f016020900481019282601f1061031457805160ff1916838001178555610342565b82800160010185558215610342579182015b82811115610341578251825591602001919060010190610326565b5b50905061034f9190610353565b5090565b61037591905b80821115610371576000816000905550600101610359565b5090565b90565b600082601f830112151561038b57600080fd5b813561039e61039982610597565b61056a565b915080825260208301602083018583830111156103ba57600080fd5b6103c5838284610608565b50505092915050565b60006103da82356105fe565b905092915050565b6000602082840312156103f457600080fd5b600082013567ffffffffffffffff81111561040e57600080fd5b61041a84828501610378565b91505092915050565b60006020828403121561043557600080fd5b6000610443848285016103ce565b91505092915050565b6000610457826105d0565b80845260208401935083602082028501610470856105c3565b60005b848110156104a957838303885261048b8383516104f0565b9250610496826105f1565b9150602088019750600181019050610473565b508196508694505050505092915050565b60006104c5826105e6565b8084526104d9816020860160208601610617565b6104e28161064a565b602085010191505092915050565b60006104fb826105db565b80845261050f816020860160208601610617565b6105188161064a565b602085010191505092915050565b60006020820190508181036000830152610540818461044c565b905092915050565b6000602082019050818103600083015261056281846104ba565b905092915050565b6000604051905081810181811067ffffffffffffffff8211171561058d57600080fd5b8060405250919050565b600067ffffffffffffffff8211156105ae57600080fd5b601f19601f8301169050602081019050919050565b6000602082019050919050565b600081519050919050565b600081519050919050565b600081519050919050565b6000602082019050919050565b6000819050919050565b82818337600083830152505050565b60005b8381101561063557808201518184015260208101905061061a565b83811115610644576000848401525b50505050565b6000601f19601f830116905091905056fea265627a7a723058206760d3e5b8a8a705f8c265e35522549441184b5c9738134c41b176134b7a8bff6c6578706572696d656e74616cf50037",
  "source": "pragma solidity ^0.5.0;\npragma experimental ABIEncoderV2;\ncontract Cartes {\n   string[] cartes;\n\n   function ajouterCarte(string memory s) public {\n       cartes.push(s);\n   }\n\n   function recuperer(uint ind) view public returns (string memory) {\n       return cartes[ind];\n   }\n\n   function toutRecuperer() public view returns (string[] memory) {\n       return cartes;\n   }\n}\n",
  "sourcePath": "/Users/germaindacunha/Desktop/Alyra/semaine5/exercice5.3.4/truffle/contracts/jeuCarte.sol",
  "compiler": {
    "name": "solc",
    "version": "0.5.0+commit.1d4f565a.Emscripten.clang"
  },
  "schemaVersion": "3.0.2",
  "updatedAt": "2019-02-19T10:33:30.927Z",
  "devdoc": {
    "methods": {}
  },
  "userdoc": {
    "methods": {}
  }
}