{
  "contractName": "jeuCarte",
  "abi": [
    {
      "inputs": [],
      "payable": false,
      "stateMutability": "nonpayable",
      "type": "constructor"
    },
    {
      "constant": false,
      "inputs": [
        {
          "name": "s",
          "type": "string"
        }
      ],
      "name": "ajouterCarte",
      "outputs": [],
      "payable": false,
      "stateMutability": "nonpayable",
      "type": "function"
    },
    {
      "constant": true,
      "inputs": [
        {
          "name": "ID",
          "type": "uint256"
        }
      ],
      "name": "recupererCarte",
      "outputs": [
        {
          "name": "",
          "type": "string"
        }
      ],
      "payable": false,
      "stateMutability": "view",
      "type": "function"
    },
    {
      "constant": true,
      "inputs": [],
      "name": "listCartes",
      "outputs": [
        {
          "name": "",
          "type": "uint256[]"
        }
      ],
      "payable": false,
      "stateMutability": "view",
      "type": "function"
    }
  ],
  "bytecode": "0x608060405234801561001057600080fd5b5060006001819055506105fb806100286000396000f3fe608060405260043610610057576000357c0100000000000000000000000000000000000000000000000000000000900463ffffffff168063088a82e61461005c5780634138f66714610087578063c54f0544146100c4575b600080fd5b34801561006857600080fd5b506100716100ed565b60405161007e919061048d565b60405180910390f35b34801561009357600080fd5b506100ae60048036036100a991908101906103c4565b610145565b6040516100bb91906104af565b60405180910390f35b3480156100d057600080fd5b506100eb60048036036100e69190810190610383565b610200565b005b6060600280548060200260200160405190810160405280929190818152602001828054801561013b57602002820191906000526020600020905b815481526020019060010190808311610127575b5050505050905090565b606060008281548110151561015657fe5b906000526020600020018054600181600116156101000203166002900480601f0160208091040260200160405190810160405280929190818152602001828054600181600116156101000203166002900480156101f45780601f106101c9576101008083540402835291602001916101f4565b820191906000526020600020905b8154815290600101906020018083116101d757829003601f168201915b50505050509050919050565b600081908060018154018082558091505090600182039060005260206000200160009091929091909150908051906020019061023d929190610274565b5050600154600260015481548110151561025357fe5b90600052602060002001819055506001806000828254019250508190555050565b828054600181600116156101000203166002900490600052602060002090601f016020900481019282601f106102b557805160ff19168380011785556102e3565b828001600101855582156102e3579182015b828111156102e25782518255916020019190600101906102c7565b5b5090506102f091906102f4565b5090565b61031691905b808211156103125760008160009055506001016102fa565b5090565b90565b600082601f830112151561032c57600080fd5b813561033f61033a826104fe565b6104d1565b9150808252602083016020830185838301111561035b57600080fd5b61036683828461056e565b50505092915050565b600061037b8235610564565b905092915050565b60006020828403121561039557600080fd5b600082013567ffffffffffffffff8111156103af57600080fd5b6103bb84828501610319565b91505092915050565b6000602082840312156103d657600080fd5b60006103e48482850161036f565b91505092915050565b60006103f882610537565b80845260208401935061040a8361052a565b60005b8281101561043c5761042086835161047e565b6104298261054d565b915060208601955060018101905061040d565b50849250505092915050565b600061045382610542565b80845261046781602086016020860161057d565b610470816105b0565b602085010191505092915050565b6104878161055a565b82525050565b600060208201905081810360008301526104a781846103ed565b905092915050565b600060208201905081810360008301526104c98184610448565b905092915050565b6000604051905081810181811067ffffffffffffffff821117156104f457600080fd5b8060405250919050565b600067ffffffffffffffff82111561051557600080fd5b601f19601f8301169050602081019050919050565b6000602082019050919050565b600081519050919050565b600081519050919050565b6000602082019050919050565b6000819050919050565b6000819050919050565b82818337600083830152505050565b60005b8381101561059b578082015181840152602081019050610580565b838111156105aa576000848401525b50505050565b6000601f19601f830116905091905056fea265627a7a7230582049a07a1fd23780ceb672e0c6b9dcef334b56a7f0c8e0ce1f1e5e61b69295c22b6c6578706572696d656e74616cf50037",
  "source": "pragma solidity ^0.5.0;\npragma experimental ABIEncoderV2;\ncontract jeuCarte {\n   string[] cartes;\n   uint i;\n   uint[] IDs;\n\n   constructor() public {\n    i = 0;\n    }\n   function ajouterCarte(string memory s) public {\n       cartes.push(s);\n       IDs[i]=i;\n       i += 1;\n   }\n\n   function recupererCarte(uint ID) view public returns (string memory) {\n       return cartes[ID];\n   }\n\n   function listCartes() public view returns (uint[] memory) {\n       return IDs;\n   }\n\n}\n",
  "sourcePath": "/Users/germaindacunha/Desktop/Alyra/semaine5/exercice5.3.4/truffle/contracts/jeuCarte.sol",
  "compiler": {
    "name": "solc",
    "version": "0.5.0+commit.1d4f565a.Emscripten.clang"
  },
  "schemaVersion": "3.0.2",
  "updatedAt": "2019-02-16T15:48:52.781Z",
  "devdoc": {
    "methods": {}
  },
  "userdoc": {
    "methods": {}
  }
}