{
  "contractName": "Cagnottes",
  "abi": [
    {
      "constant": true,
      "inputs": [],
      "name": "mintingFinished",
      "outputs": [
        {
          "name": "",
          "type": "bool"
        }
      ],
      "payable": false,
      "stateMutability": "view",
      "type": "function"
    },
    {
      "constant": true,
      "inputs": [],
      "name": "name",
      "outputs": [
        {
          "name": "",
          "type": "string"
        }
      ],
      "payable": false,
      "stateMutability": "view",
      "type": "function"
    },
    {
      "constant": true,
      "inputs": [
        {
          "name": "",
          "type": "uint256"
        }
      ],
      "name": "mappChannel",
      "outputs": [
        {
          "name": "demandeur",
          "type": "address"
        },
        {
          "name": "montant",
          "type": "uint256"
        },
        {
          "name": "blocFermeture",
          "type": "uint256"
        },
        {
          "name": "dernierNonce",
          "type": "uint256"
        },
        {
          "name": "etat",
          "type": "uint8"
        },
        {
          "name": "groupe",
          "type": "uint256"
        }
      ],
      "payable": false,
      "stateMutability": "view",
      "type": "function"
    },
    {
      "constant": false,
      "inputs": [
        {
          "name": "_spender",
          "type": "address"
        },
        {
          "name": "_value",
          "type": "uint256"
        }
      ],
      "name": "approve",
      "outputs": [
        {
          "name": "",
          "type": "bool"
        }
      ],
      "payable": false,
      "stateMutability": "nonpayable",
      "type": "function"
    },
    {
      "constant": false,
      "inputs": [
        {
          "name": "newSaleAgnet",
          "type": "address"
        }
      ],
      "name": "setSaleAgent",
      "outputs": [],
      "payable": false,
      "stateMutability": "nonpayable",
      "type": "function"
    },
    {
      "constant": true,
      "inputs": [],
      "name": "totalSupply",
      "outputs": [
        {
          "name": "",
          "type": "uint256"
        }
      ],
      "payable": false,
      "stateMutability": "view",
      "type": "function"
    },
    {
      "constant": false,
      "inputs": [
        {
          "name": "_from",
          "type": "address"
        },
        {
          "name": "_to",
          "type": "address"
        },
        {
          "name": "_value",
          "type": "uint256"
        }
      ],
      "name": "transferFrom",
      "outputs": [
        {
          "name": "",
          "type": "bool"
        }
      ],
      "payable": false,
      "stateMutability": "nonpayable",
      "type": "function"
    },
    {
      "constant": true,
      "inputs": [],
      "name": "myGimicoin",
      "outputs": [
        {
          "name": "",
          "type": "address"
        }
      ],
      "payable": false,
      "stateMutability": "view",
      "type": "function"
    },
    {
      "constant": true,
      "inputs": [],
      "name": "decimals",
      "outputs": [
        {
          "name": "",
          "type": "uint32"
        }
      ],
      "payable": false,
      "stateMutability": "view",
      "type": "function"
    },
    {
      "constant": false,
      "inputs": [
        {
          "name": "_to",
          "type": "address"
        },
        {
          "name": "_amount",
          "type": "uint256"
        }
      ],
      "name": "mint",
      "outputs": [
        {
          "name": "",
          "type": "bool"
        }
      ],
      "payable": false,
      "stateMutability": "nonpayable",
      "type": "function"
    },
    {
      "constant": false,
      "inputs": [
        {
          "name": "_spender",
          "type": "address"
        },
        {
          "name": "_subtractedValue",
          "type": "uint256"
        }
      ],
      "name": "decreaseApproval",
      "outputs": [
        {
          "name": "success",
          "type": "bool"
        }
      ],
      "payable": false,
      "stateMutability": "nonpayable",
      "type": "function"
    },
    {
      "constant": true,
      "inputs": [
        {
          "name": "",
          "type": "uint256"
        },
        {
          "name": "",
          "type": "uint256"
        }
      ],
      "name": "mappGroupeAdmin",
      "outputs": [
        {
          "name": "",
          "type": "address"
        }
      ],
      "payable": false,
      "stateMutability": "view",
      "type": "function"
    },
    {
      "constant": true,
      "inputs": [
        {
          "name": "_owner",
          "type": "address"
        }
      ],
      "name": "balanceOf",
      "outputs": [
        {
          "name": "balance",
          "type": "uint256"
        }
      ],
      "payable": false,
      "stateMutability": "view",
      "type": "function"
    },
    {
      "constant": false,
      "inputs": [],
      "name": "finishMinting",
      "outputs": [
        {
          "name": "",
          "type": "bool"
        }
      ],
      "payable": false,
      "stateMutability": "nonpayable",
      "type": "function"
    },
    {
      "constant": true,
      "inputs": [],
      "name": "owner",
      "outputs": [
        {
          "name": "",
          "type": "address"
        }
      ],
      "payable": false,
      "stateMutability": "view",
      "type": "function"
    },
    {
      "constant": true,
      "inputs": [],
      "name": "symbol",
      "outputs": [
        {
          "name": "",
          "type": "string"
        }
      ],
      "payable": false,
      "stateMutability": "view",
      "type": "function"
    },
    {
      "constant": false,
      "inputs": [
        {
          "name": "_to",
          "type": "address"
        },
        {
          "name": "_value",
          "type": "uint256"
        }
      ],
      "name": "transfer",
      "outputs": [
        {
          "name": "",
          "type": "bool"
        }
      ],
      "payable": false,
      "stateMutability": "nonpayable",
      "type": "function"
    },
    {
      "constant": true,
      "inputs": [],
      "name": "saleAgent",
      "outputs": [
        {
          "name": "",
          "type": "address"
        }
      ],
      "payable": false,
      "stateMutability": "view",
      "type": "function"
    },
    {
      "constant": true,
      "inputs": [
        {
          "name": "",
          "type": "uint256"
        },
        {
          "name": "",
          "type": "uint256"
        }
      ],
      "name": "mappGroupe",
      "outputs": [
        {
          "name": "",
          "type": "address"
        }
      ],
      "payable": false,
      "stateMutability": "view",
      "type": "function"
    },
    {
      "constant": false,
      "inputs": [
        {
          "name": "_spender",
          "type": "address"
        },
        {
          "name": "_addedValue",
          "type": "uint256"
        }
      ],
      "name": "increaseApproval",
      "outputs": [
        {
          "name": "success",
          "type": "bool"
        }
      ],
      "payable": false,
      "stateMutability": "nonpayable",
      "type": "function"
    },
    {
      "constant": true,
      "inputs": [
        {
          "name": "_owner",
          "type": "address"
        },
        {
          "name": "_spender",
          "type": "address"
        }
      ],
      "name": "allowance",
      "outputs": [
        {
          "name": "remaining",
          "type": "uint256"
        }
      ],
      "payable": false,
      "stateMutability": "view",
      "type": "function"
    },
    {
      "constant": false,
      "inputs": [
        {
          "name": "newOwner",
          "type": "address"
        }
      ],
      "name": "transferOwnership",
      "outputs": [],
      "payable": false,
      "stateMutability": "nonpayable",
      "type": "function"
    },
    {
      "inputs": [],
      "payable": false,
      "stateMutability": "nonpayable",
      "type": "constructor"
    },
    {
      "anonymous": false,
      "inputs": [
        {
          "indexed": false,
          "name": "groupe",
          "type": "uint256"
        },
        {
          "indexed": false,
          "name": "montant",
          "type": "uint256"
        },
        {
          "indexed": false,
          "name": "delai",
          "type": "uint256"
        },
        {
          "indexed": false,
          "name": "pseudo",
          "type": "string"
        },
        {
          "indexed": false,
          "name": "description",
          "type": "string"
        }
      ],
      "name": "creationCanal",
      "type": "event"
    },
    {
      "anonymous": false,
      "inputs": [
        {
          "indexed": true,
          "name": "to",
          "type": "address"
        },
        {
          "indexed": false,
          "name": "amount",
          "type": "uint256"
        }
      ],
      "name": "Mint",
      "type": "event"
    },
    {
      "anonymous": false,
      "inputs": [],
      "name": "MintFinished",
      "type": "event"
    },
    {
      "anonymous": false,
      "inputs": [
        {
          "indexed": true,
          "name": "previousOwner",
          "type": "address"
        },
        {
          "indexed": true,
          "name": "newOwner",
          "type": "address"
        }
      ],
      "name": "OwnershipTransferred",
      "type": "event"
    },
    {
      "anonymous": false,
      "inputs": [
        {
          "indexed": true,
          "name": "owner",
          "type": "address"
        },
        {
          "indexed": true,
          "name": "spender",
          "type": "address"
        },
        {
          "indexed": false,
          "name": "value",
          "type": "uint256"
        }
      ],
      "name": "Approval",
      "type": "event"
    },
    {
      "anonymous": false,
      "inputs": [
        {
          "indexed": true,
          "name": "from",
          "type": "address"
        },
        {
          "indexed": true,
          "name": "to",
          "type": "address"
        },
        {
          "indexed": false,
          "name": "value",
          "type": "uint256"
        }
      ],
      "name": "Transfer",
      "type": "event"
    },
    {
      "constant": false,
      "inputs": [],
      "name": "creerGroupe",
      "outputs": [],
      "payable": false,
      "stateMutability": "nonpayable",
      "type": "function"
    },
    {
      "constant": false,
      "inputs": [
        {
          "name": "_groupe",
          "type": "uint256"
        },
        {
          "name": "_montant",
          "type": "uint256"
        },
        {
          "name": "_delai",
          "type": "uint256"
        },
        {
          "name": "_pseudo",
          "type": "string"
        },
        {
          "name": "_description",
          "type": "string"
        }
      ],
      "name": "creerCanal",
      "outputs": [],
      "payable": false,
      "stateMutability": "nonpayable",
      "type": "function"
    },
    {
      "constant": false,
      "inputs": [
        {
          "name": "_groupe",
          "type": "uint256"
        },
        {
          "name": "_channelID",
          "type": "uint256"
        },
        {
          "name": "_pseudo",
          "type": "string"
        }
      ],
      "name": "payerCanal",
      "outputs": [],
      "payable": true,
      "stateMutability": "payable",
      "type": "function"
    },
    {
      "constant": false,
      "inputs": [
        {
          "name": "_tokenID",
          "type": "uint256"
        },
        {
          "name": "_nonce",
          "type": "uint256"
        },
        {
          "name": "",
          "type": "uint256"
        }
      ],
      "name": "fermetureCanal",
      "outputs": [],
      "payable": false,
      "stateMutability": "nonpayable",
      "type": "function"
    },
    {
      "constant": false,
      "inputs": [
        {
          "name": "_pseudo",
          "type": "string"
        }
      ],
      "name": "creerPseudo",
      "outputs": [],
      "payable": false,
      "stateMutability": "nonpayable",
      "type": "function"
    },
    {
      "constant": false,
      "inputs": [
        {
          "name": "_membre",
          "type": "address"
        },
        {
          "name": "_groupe",
          "type": "uint256"
        }
      ],
      "name": "ajouterMembre",
      "outputs": [],
      "payable": false,
      "stateMutability": "nonpayable",
      "type": "function"
    },
    {
      "constant": false,
      "inputs": [
        {
          "name": "_membre",
          "type": "address"
        },
        {
          "name": "_groupe",
          "type": "uint256"
        }
      ],
      "name": "ajouterAdmin",
      "outputs": [],
      "payable": false,
      "stateMutability": "nonpayable",
      "type": "function"
    }
  ],
  "bytecode": "0x60806040526000600360146101000a81548160ff0219169083151502179055506014600c556032600d556032600e553480156200003b57600080fd5b5033600360006101000a81548173ffffffffffffffffffffffffffffffffffffffff021916908373ffffffffffffffffffffffffffffffffffffffff16021790555062000087620000eb565b604051809103906000f080158015620000a4573d6000803e3d6000fd5b50600560006101000a81548173ffffffffffffffffffffffffffffffffffffffff021916908373ffffffffffffffffffffffffffffffffffffffff160217905550620000fc565b604051611ab9806200300783390190565b612efb806200010c6000396000f3fe608060405260043610610175576000357c0100000000000000000000000000000000000000000000000000000000900463ffffffff16806305d2035b1461017a57806306fdde03146101a957806308a0aead14610239578063095ea7b3146102e557806314133a7c1461035857806318160ddd146103a957806323b872dd146103d4578063247e00f81461046757806330451431146104be578063313ce567146105195780633a53cf2e1461055057806340c10f1914610567578063528d4425146105da57806360712564146106a257806366188463146107715780636d4a6882146107e457806370a08231146108695780637d64bcb4146108ce5780638da5cb5b146108fd57806395d89b4114610954578063a9059cbb146109e4578063b1d6a2f014610a57578063d509b85f14610aae578063d73dd62314610b33578063d8bce69314610ba6578063dd62ed3e14610c01578063e44febb814610c86578063f10bf83214610e03578063f2fde38b14610e52575b600080fd5b34801561018657600080fd5b5061018f610ea3565b604051808215151515815260200191505060405180910390f35b3480156101b557600080fd5b506101be610eb6565b6040518080602001828103825283818151815260200191508051906020019080838360005b838110156101fe5780820151818401526020810190506101e3565b50505050905090810190601f16801561022b5780820380516001836020036101000a031916815260200191505b509250505060405180910390f35b34801561024557600080fd5b506102726004803603602081101561025c57600080fd5b8101908080359060200190929190505050610eef565b604051808773ffffffffffffffffffffffffffffffffffffffff1673ffffffffffffffffffffffffffffffffffffffff1681526020018681526020018581526020018481526020018360018111156102c657fe5b60ff168152602001828152602001965050505050505060405180910390f35b3480156102f157600080fd5b5061033e6004803603604081101561030857600080fd5b81019080803573ffffffffffffffffffffffffffffffffffffffff16906020019092919080359060200190929190505050610f58565b604051808215151515815260200191505060405180910390f35b34801561036457600080fd5b506103a76004803603602081101561037b57600080fd5b81019080803573ffffffffffffffffffffffffffffffffffffffff16906020019092919050505061104a565b005b3480156103b557600080fd5b506103be611142565b6040518082815260200191505060405180910390f35b3480156103e057600080fd5b5061044d600480360360608110156103f757600080fd5b81019080803573ffffffffffffffffffffffffffffffffffffffff169060200190929190803573ffffffffffffffffffffffffffffffffffffffff16906020019092919080359060200190929190505050611148565b604051808215151515815260200191505060405180910390f35b34801561047357600080fd5b5061047c611507565b604051808273ffffffffffffffffffffffffffffffffffffffff1673ffffffffffffffffffffffffffffffffffffffff16815260200191505060405180910390f35b3480156104ca57600080fd5b50610517600480360360408110156104e157600080fd5b81019080803573ffffffffffffffffffffffffffffffffffffffff1690602001909291908035906020019092919050505061152d565b005b34801561052557600080fd5b5061052e611685565b604051808263ffffffff1663ffffffff16815260200191505060405180910390f35b34801561055c57600080fd5b5061056561168a565b005b34801561057357600080fd5b506105c06004803603604081101561058a57600080fd5b81019080803573ffffffffffffffffffffffffffffffffffffffff1690602001909291908035906020019092919050505061178f565b604051808215151515815260200191505060405180910390f35b3480156105e657600080fd5b506106a0600480360360208110156105fd57600080fd5b810190808035906020019064010000000081111561061a57600080fd5b82018360208201111561062c57600080fd5b8035906020019184600183028401116401000000008311171561064e57600080fd5b91908080601f016020809104026020016040519081016040528093929190818152602001838380828437600081840152601f19601f82011690508083019250505050505050919291929050505061190e565b005b61076f600480360360608110156106b857600080fd5b810190808035906020019092919080359060200190929190803590602001906401000000008111156106e957600080fd5b8201836020820111156106fb57600080fd5b8035906020019184600183028401116401000000008311171561071d57600080fd5b91908080601f016020809104026020016040519081016040528093929190818152602001838380828437600081840152601f19601f820116905080830192505050505050509192919290505050611a81565b005b34801561077d57600080fd5b506107ca6004803603604081101561079457600080fd5b81019080803573ffffffffffffffffffffffffffffffffffffffff16906020019092919080359060200190929190505050611dca565b604051808215151515815260200191505060405180910390f35b3480156107f057600080fd5b506108276004803603604081101561080757600080fd5b81019080803590602001909291908035906020019092919050505061205b565b604051808273ffffffffffffffffffffffffffffffffffffffff1673ffffffffffffffffffffffffffffffffffffffff16815260200191505060405180910390f35b34801561087557600080fd5b506108b86004803603602081101561088c57600080fd5b81019080803573ffffffffffffffffffffffffffffffffffffffff1690602001909291905050506120a8565b6040518082815260200191505060405180910390f35b3480156108da57600080fd5b506108e36120f1565b604051808215151515815260200191505060405180910390f35b34801561090957600080fd5b5061091261220e565b604051808273ffffffffffffffffffffffffffffffffffffffff1673ffffffffffffffffffffffffffffffffffffffff16815260200191505060405180910390f35b34801561096057600080fd5b50610969612234565b6040518080602001828103825283818151815260200191508051906020019080838360005b838110156109a957808201518184015260208101905061098e565b50505050905090810190601f1680156109d65780820380516001836020036101000a031916815260200191505b509250505060405180910390f35b3480156109f057600080fd5b50610a3d60048036036040811015610a0757600080fd5b81019080803573ffffffffffffffffffffffffffffffffffffffff1690602001909291908035906020019092919050505061226d565b604051808215151515815260200191505060405180910390f35b348015610a6357600080fd5b50610a6c612491565b604051808273ffffffffffffffffffffffffffffffffffffffff1673ffffffffffffffffffffffffffffffffffffffff16815260200191505060405180910390f35b348015610aba57600080fd5b50610af160048036036040811015610ad157600080fd5b8101908080359060200190929190803590602001909291905050506124b7565b604051808273ffffffffffffffffffffffffffffffffffffffff1673ffffffffffffffffffffffffffffffffffffffff16815260200191505060405180910390f35b348015610b3f57600080fd5b50610b8c60048036036040811015610b5657600080fd5b81019080803573ffffffffffffffffffffffffffffffffffffffff16906020019092919080359060200190929190505050612504565b604051808215151515815260200191505060405180910390f35b348015610bb257600080fd5b50610bff60048036036040811015610bc957600080fd5b81019080803573ffffffffffffffffffffffffffffffffffffffff16906020019092919080359060200190929190505050612700565b005b348015610c0d57600080fd5b50610c7060048036036040811015610c2457600080fd5b81019080803573ffffffffffffffffffffffffffffffffffffffff169060200190929190803573ffffffffffffffffffffffffffffffffffffffff169060200190929190505050612858565b6040518082815260200191505060405180910390f35b348015610c9257600080fd5b50610e01600480360360a0811015610ca957600080fd5b8101908080359060200190929190803590602001909291908035906020019092919080359060200190640100000000811115610ce457600080fd5b820183602082011115610cf657600080fd5b80359060200191846001830284011164010000000083111715610d1857600080fd5b91908080601f016020809104026020016040519081016040528093929190818152602001838380828437600081840152601f19601f82011690508083019250505050505050919291929080359060200190640100000000811115610d7b57600080fd5b820183602082011115610d8d57600080fd5b80359060200191846001830284011164010000000083111715610daf57600080fd5b91908080601f016020809104026020016040519081016040528093929190818152602001838380828437600081840152601f19601f8201169050808301925050505050505091929192905050506128df565b005b348015610e0f57600080fd5b50610e5060048036036060811015610e2657600080fd5b81019080803590602001909291908035906020019092919080359060200190929190505050612c97565b005b348015610e5e57600080fd5b50610ea160048036036020811015610e7557600080fd5b81019080803573ffffffffffffffffffffffffffffffffffffffff169060200190929190505050612d40565b005b600360149054906101000a900460ff1681565b6040805190810160405280600881526020017f67696d69636f696e00000000000000000000000000000000000000000000000081525081565b60066020528060005260406000206000915090508060000160009054906101000a900473ffffffffffffffffffffffffffffffffffffffff16908060010154908060020154908060030154908060040160009054906101000a900460ff16908060050154905086565b600081600260003373ffffffffffffffffffffffffffffffffffffffff1673ffffffffffffffffffffffffffffffffffffffff16815260200190815260200160002060008573ffffffffffffffffffffffffffffffffffffffff1673ffffffffffffffffffffffffffffffffffffffff168152602001908152602001600020819055508273ffffffffffffffffffffffffffffffffffffffff163373ffffffffffffffffffffffffffffffffffffffff167f8c5be1e5ebec7d5bd14f71427d1e84f3dd0314c0f7b2291e5b200ac8c7c3b925846040518082815260200191505060405180910390a36001905092915050565b600460009054906101000a900473ffffffffffffffffffffffffffffffffffffffff1673ffffffffffffffffffffffffffffffffffffffff163373ffffffffffffffffffffffffffffffffffffffff1614806110f35750600360009054906101000a900473ffffffffffffffffffffffffffffffffffffffff1673ffffffffffffffffffffffffffffffffffffffff163373ffffffffffffffffffffffffffffffffffffffff16145b15156110fe57600080fd5b80600460006101000a81548173ffffffffffffffffffffffffffffffffffffffff021916908373ffffffffffffffffffffffffffffffffffffffff16021790555050565b60005481565b60008073ffffffffffffffffffffffffffffffffffffffff168373ffffffffffffffffffffffffffffffffffffffff161415151561118557600080fd5b600160008573ffffffffffffffffffffffffffffffffffffffff1673ffffffffffffffffffffffffffffffffffffffff1681526020019081526020016000205482111515156111d357600080fd5b600260008573ffffffffffffffffffffffffffffffffffffffff1673ffffffffffffffffffffffffffffffffffffffff16815260200190815260200160002060003373ffffffffffffffffffffffffffffffffffffffff1673ffffffffffffffffffffffffffffffffffffffff16815260200190815260200160002054821115151561125e57600080fd5b6112b082600160008773ffffffffffffffffffffffffffffffffffffffff1673ffffffffffffffffffffffffffffffffffffffff16815260200190815260200160002054612e9890919063ffffffff16565b600160008673ffffffffffffffffffffffffffffffffffffffff1673ffffffffffffffffffffffffffffffffffffffff1681526020019081526020016000208190555061134582600160008673ffffffffffffffffffffffffffffffffffffffff1673ffffffffffffffffffffffffffffffffffffffff16815260200190815260200160002054612eb190919063ffffffff16565b600160008573ffffffffffffffffffffffffffffffffffffffff1673ffffffffffffffffffffffffffffffffffffffff1681526020019081526020016000208190555061141782600260008773ffffffffffffffffffffffffffffffffffffffff1673ffffffffffffffffffffffffffffffffffffffff16815260200190815260200160002060003373ffffffffffffffffffffffffffffffffffffffff1673ffffffffffffffffffffffffffffffffffffffff16815260200190815260200160002054612e9890919063ffffffff16565b600260008673ffffffffffffffffffffffffffffffffffffffff1673ffffffffffffffffffffffffffffffffffffffff16815260200190815260200160002060003373ffffffffffffffffffffffffffffffffffffffff1673ffffffffffffffffffffffffffffffffffffffff168152602001908152602001600020819055508273ffffffffffffffffffffffffffffffffffffffff168473ffffffffffffffffffffffffffffffffffffffff167fddf252ad1be2c89b69c2b068fc378daa952ba7f163c4a11628f55a4df523b3ef846040518082815260200191505060405180910390a3600190509392505050565b600560009054906101000a900473ffffffffffffffffffffffffffffffffffffffff1681565b600c54600760008381526020019081526020016000208054905010151561155357600080fd5b60008090505b6008600083815260200190815260200160002080549050811015611680573373ffffffffffffffffffffffffffffffffffffffff1660086000848152602001908152602001600020828154811015156115ae57fe5b9060005260206000200160009054906101000a900473ffffffffffffffffffffffffffffffffffffffff1673ffffffffffffffffffffffffffffffffffffffff1614156116735760076000600b5481526020019081526020016000208390806001815401808255809150509060018203906000526020600020016000909192909190916101000a81548173ffffffffffffffffffffffffffffffffffffffff021916908373ffffffffffffffffffffffffffffffffffffffff16021790555050611680565b8080600101915050611559565b505050565b601281565b6001600b6000828254019250508190555060076000600b5481526020019081526020016000203390806001815401808255809150509060018203906000526020600020016000909192909190916101000a81548173ffffffffffffffffffffffffffffffffffffffff021916908373ffffffffffffffffffffffffffffffffffffffff1602179055505060086000600b5481526020019081526020016000203390806001815401808255809150509060018203906000526020600020016000909192909190916101000a81548173ffffffffffffffffffffffffffffffffffffffff021916908373ffffffffffffffffffffffffffffffffffffffff16021790555050565b6000600460009054906101000a900473ffffffffffffffffffffffffffffffffffffffff1673ffffffffffffffffffffffffffffffffffffffff163373ffffffffffffffffffffffffffffffffffffffff161480156117fb5750600360149054906101000a900460ff16155b151561180657600080fd5b61181b82600054612eb190919063ffffffff16565b60008190555061187382600160008673ffffffffffffffffffffffffffffffffffffffff1673ffffffffffffffffffffffffffffffffffffffff16815260200190815260200160002054612eb190919063ffffffff16565b600160008573ffffffffffffffffffffffffffffffffffffffff1673ffffffffffffffffffffffffffffffffffffffff168152602001908152602001600020819055508273ffffffffffffffffffffffffffffffffffffffff167f0f6798a560793a54c3bcfe86a93cde1e73087d944c0ea20544137d4121396885836040518082815260200191505060405180910390a26001905092915050565b600073ffffffffffffffffffffffffffffffffffffffff166009826040518082805190602001908083835b60208310151561195e5780518252602082019150602081019050602083039250611939565b6001836020036101000a038019825116818451168082178552505050505050905001915050908152602001604051809103902060009054906101000a900473ffffffffffffffffffffffffffffffffffffffff1673ffffffffffffffffffffffffffffffffffffffff161415156119d457600080fd5b336009826040518082805190602001908083835b602083101515611a0d57805182526020820191506020810190506020830392506119e8565b6001836020036101000a038019825116818451168082178552505050505050905001915050908152602001604051809103902060006101000a81548173ffffffffffffffffffffffffffffffffffffffff021916908373ffffffffffffffffffffffffffffffffffffffff16021790555050565b3373ffffffffffffffffffffffffffffffffffffffff166009826040518082805190602001908083835b602083101515611ad05780518252602082019150602081019050602083039250611aab565b6001836020036101000a038019825116818451168082178552505050505050905001915050908152602001604051809103902060009054906101000a900473ffffffffffffffffffffffffffffffffffffffff1673ffffffffffffffffffffffffffffffffffffffff16141515611b4657600080fd5b60008090505b6007600085815260200190815260200160002080549050811015611dc4573373ffffffffffffffffffffffffffffffffffffffff166007600086815260200190815260200160002082815481101515611ba157fe5b9060005260206000200160009054906101000a900473ffffffffffffffffffffffffffffffffffffffff1673ffffffffffffffffffffffffffffffffffffffff161415611db75760006001811115611bf557fe5b6006600085815260200190815260200160002060040160009054906101000a900460ff166001811115611c2457fe5b141515611c3057600080fd5b836006600085815260200190815260200160002060050154141515611c5457600080fd5b34600660008581526020019081526020016000206001015410151515611c7957600080fd5b600560009054906101000a900473ffffffffffffffffffffffffffffffffffffffff1673ffffffffffffffffffffffffffffffffffffffff166340c10f1933346040518363ffffffff167c0100000000000000000000000000000000000000000000000000000000028152600401808373ffffffffffffffffffffffffffffffffffffffff1673ffffffffffffffffffffffffffffffffffffffff16815260200182815260200192505050602060405180830381600087803b158015611d3e57600080fd5b505af1158015611d52573d6000803e3d6000fd5b505050506040513d6020811015611d6857600080fd5b81019080805190602001909291905050505060016006600085815260200190815260200160002060040160006101000a81548160ff02191690836001811115611dad57fe5b0217905550611dc4565b8080600101915050611b4c565b50505050565b600080600260003373ffffffffffffffffffffffffffffffffffffffff1673ffffffffffffffffffffffffffffffffffffffff16815260200190815260200160002060008573ffffffffffffffffffffffffffffffffffffffff1673ffffffffffffffffffffffffffffffffffffffff16815260200190815260200160002054905080831115611edb576000600260003373ffffffffffffffffffffffffffffffffffffffff1673ffffffffffffffffffffffffffffffffffffffff16815260200190815260200160002060008673ffffffffffffffffffffffffffffffffffffffff1673ffffffffffffffffffffffffffffffffffffffff16815260200190815260200160002081905550611f6f565b611eee8382612e9890919063ffffffff16565b600260003373ffffffffffffffffffffffffffffffffffffffff1673ffffffffffffffffffffffffffffffffffffffff16815260200190815260200160002060008673ffffffffffffffffffffffffffffffffffffffff1673ffffffffffffffffffffffffffffffffffffffff168152602001908152602001600020819055505b8373ffffffffffffffffffffffffffffffffffffffff163373ffffffffffffffffffffffffffffffffffffffff167f8c5be1e5ebec7d5bd14f71427d1e84f3dd0314c0f7b2291e5b200ac8c7c3b925600260003373ffffffffffffffffffffffffffffffffffffffff1673ffffffffffffffffffffffffffffffffffffffff16815260200190815260200160002060008873ffffffffffffffffffffffffffffffffffffffff1673ffffffffffffffffffffffffffffffffffffffff168152602001908152602001600020546040518082815260200191505060405180910390a3600191505092915050565b60086020528160005260406000208181548110151561207657fe5b906000526020600020016000915091509054906101000a900473ffffffffffffffffffffffffffffffffffffffff1681565b6000600160008373ffffffffffffffffffffffffffffffffffffffff1673ffffffffffffffffffffffffffffffffffffffff168152602001908152602001600020549050919050565b6000600460009054906101000a900473ffffffffffffffffffffffffffffffffffffffff1673ffffffffffffffffffffffffffffffffffffffff163373ffffffffffffffffffffffffffffffffffffffff16148061219c5750600360009054906101000a900473ffffffffffffffffffffffffffffffffffffffff1673ffffffffffffffffffffffffffffffffffffffff163373ffffffffffffffffffffffffffffffffffffffff16145b80156121b55750600360149054906101000a900460ff16155b15156121c057600080fd5b6001600360146101000a81548160ff0219169083151502179055507fae5184fba832cb2b1f702aca6117b8d265eaf03ad33eb133f19dde0f5920fa0860405160405180910390a16001905090565b600360009054906101000a900473ffffffffffffffffffffffffffffffffffffffff1681565b6040805190810160405280600381526020017f474d43000000000000000000000000000000000000000000000000000000000081525081565b60008073ffffffffffffffffffffffffffffffffffffffff168373ffffffffffffffffffffffffffffffffffffffff16141515156122aa57600080fd5b600160003373ffffffffffffffffffffffffffffffffffffffff1673ffffffffffffffffffffffffffffffffffffffff1681526020019081526020016000205482111515156122f857600080fd5b61234a82600160003373ffffffffffffffffffffffffffffffffffffffff1673ffffffffffffffffffffffffffffffffffffffff16815260200190815260200160002054612e9890919063ffffffff16565b600160003373ffffffffffffffffffffffffffffffffffffffff1673ffffffffffffffffffffffffffffffffffffffff168152602001908152602001600020819055506123df82600160008673ffffffffffffffffffffffffffffffffffffffff1673ffffffffffffffffffffffffffffffffffffffff16815260200190815260200160002054612eb190919063ffffffff16565b600160008573ffffffffffffffffffffffffffffffffffffffff1673ffffffffffffffffffffffffffffffffffffffff168152602001908152602001600020819055508273ffffffffffffffffffffffffffffffffffffffff163373ffffffffffffffffffffffffffffffffffffffff167fddf252ad1be2c89b69c2b068fc378daa952ba7f163c4a11628f55a4df523b3ef846040518082815260200191505060405180910390a36001905092915050565b600460009054906101000a900473ffffffffffffffffffffffffffffffffffffffff1681565b6007602052816000526040600020818154811015156124d257fe5b906000526020600020016000915091509054906101000a900473ffffffffffffffffffffffffffffffffffffffff1681565b600061259582600260003373ffffffffffffffffffffffffffffffffffffffff1673ffffffffffffffffffffffffffffffffffffffff16815260200190815260200160002060008673ffffffffffffffffffffffffffffffffffffffff1673ffffffffffffffffffffffffffffffffffffffff16815260200190815260200160002054612eb190919063ffffffff16565b600260003373ffffffffffffffffffffffffffffffffffffffff1673ffffffffffffffffffffffffffffffffffffffff16815260200190815260200160002060008573ffffffffffffffffffffffffffffffffffffffff1673ffffffffffffffffffffffffffffffffffffffff168152602001908152602001600020819055508273ffffffffffffffffffffffffffffffffffffffff163373ffffffffffffffffffffffffffffffffffffffff167f8c5be1e5ebec7d5bd14f71427d1e84f3dd0314c0f7b2291e5b200ac8c7c3b925600260003373ffffffffffffffffffffffffffffffffffffffff1673ffffffffffffffffffffffffffffffffffffffff16815260200190815260200160002060008773ffffffffffffffffffffffffffffffffffffffff1673ffffffffffffffffffffffffffffffffffffffff168152602001908152602001600020546040518082815260200191505060405180910390a36001905092915050565b600c54600760008381526020019081526020016000208054905010151561272657600080fd5b60008090505b6008600083815260200190815260200160002080549050811015612853573373ffffffffffffffffffffffffffffffffffffffff16600860008481526020019081526020016000208281548110151561278157fe5b9060005260206000200160009054906101000a900473ffffffffffffffffffffffffffffffffffffffff1673ffffffffffffffffffffffffffffffffffffffff1614156128465760086000600b5481526020019081526020016000208390806001815401808255809150509060018203906000526020600020016000909192909190916101000a81548173ffffffffffffffffffffffffffffffffffffffff021916908373ffffffffffffffffffffffffffffffffffffffff16021790555050612853565b808060010191505061272c565b505050565b6000600260008473ffffffffffffffffffffffffffffffffffffffff1673ffffffffffffffffffffffffffffffffffffffff16815260200190815260200160002060008373ffffffffffffffffffffffffffffffffffffffff1673ffffffffffffffffffffffffffffffffffffffff16815260200190815260200160002054905092915050565b3373ffffffffffffffffffffffffffffffffffffffff166009836040518082805190602001908083835b60208310151561292e5780518252602082019150602081019050602083039250612909565b6001836020036101000a038019825116818451168082178552505050505050905001915050908152602001604051809103902060009054906101000a900473ffffffffffffffffffffffffffffffffffffffff1673ffffffffffffffffffffffffffffffffffffffff161415156129a457600080fd5b60008090505b6007600087815260200190815260200160002080549050811015612c8f573373ffffffffffffffffffffffffffffffffffffffff1660076000888152602001908152602001600020828154811015156129ff57fe5b9060005260206000200160009054906101000a900473ffffffffffffffffffffffffffffffffffffffff1673ffffffffffffffffffffffffffffffffffffffff161415612c82576000838051906020012060019004905085600660008381526020019081526020016000206001018190555060006006600083815260200190815260200160002060040160006101000a81548160ff02191690836001811115612aa457fe5b0217905550844301600660008381526020019081526020016000206002018190555060016006600083815260200190815260200160002060030160008282540192505081905550866006600083815260200190815260200160002060050181905550336006600083815260200190815260200160002060000160006101000a81548173ffffffffffffffffffffffffffffffffffffffff021916908373ffffffffffffffffffffffffffffffffffffffff1602179055507f8a64cb423c19586f872218c2192f95ec24a6dfac196870d9ba713b117ee8032c8787878787604051808681526020018581526020018481526020018060200180602001838103835285818151815260200191508051906020019080838360005b83811015612bd7578082015181840152602081019050612bbc565b50505050905090810190601f168015612c045780820380516001836020036101000a031916815260200191505b50838103825284818151815260200191508051906020019080838360005b83811015612c3d578082015181840152602081019050612c22565b50505050905090810190601f168015612c6a5780820380516001836020036101000a031916815260200191505b5097505050505050505060405180910390a150612c8f565b80806001019150506129aa565b505050505050565b60006001811115612ca457fe5b6006600085815260200190815260200160002060040160009054906101000a900460ff166001811115612cd357fe5b141515612cdf57600080fd5b816006600085815260200190815260200160002060030154101515612d0357600080fd5b60016006600085815260200190815260200160002060040160006101000a81548160ff02191690836001811115612d3657fe5b0217905550505050565b600360009054906101000a900473ffffffffffffffffffffffffffffffffffffffff1673ffffffffffffffffffffffffffffffffffffffff163373ffffffffffffffffffffffffffffffffffffffff16141515612d9c57600080fd5b600073ffffffffffffffffffffffffffffffffffffffff168173ffffffffffffffffffffffffffffffffffffffff1614151515612dd857600080fd5b8073ffffffffffffffffffffffffffffffffffffffff16600360009054906101000a900473ffffffffffffffffffffffffffffffffffffffff1673ffffffffffffffffffffffffffffffffffffffff167f8be0079c531659141344cd1fd0a4f28419497f9722a3daafe3b4186f6b6457e060405160405180910390a380600360006101000a81548173ffffffffffffffffffffffffffffffffffffffff021916908373ffffffffffffffffffffffffffffffffffffffff16021790555050565b6000828211151515612ea657fe5b818303905092915050565b6000808284019050838110151515612ec557fe5b809150509291505056fea165627a7a7230582057da8f989940135c65b434f0192f201840ad39e28a38af845aef37649c848a3c002960806040526000600360146101000a81548160ff02191690831515021790555033600360006101000a81548173ffffffffffffffffffffffffffffffffffffffff021916908373ffffffffffffffffffffffffffffffffffffffff160217905550611a4a8061006f6000396000f3fe6080604052600436106100fc576000357c0100000000000000000000000000000000000000000000000000000000900463ffffffff16806305d2035b1461010157806306fdde0314610130578063095ea7b3146101c057806314133a7c1461023357806318160ddd1461028457806323b872dd146102af578063313ce5671461034257806340c10f191461037957806366188463146103ec57806370a082311461045f5780637d64bcb4146104c45780638da5cb5b146104f357806395d89b411461054a578063a9059cbb146105da578063b1d6a2f01461064d578063d73dd623146106a4578063dd62ed3e14610717578063f2fde38b1461079c575b600080fd5b34801561010d57600080fd5b506101166107ed565b604051808215151515815260200191505060405180910390f35b34801561013c57600080fd5b50610145610800565b6040518080602001828103825283818151815260200191508051906020019080838360005b8381101561018557808201518184015260208101905061016a565b50505050905090810190601f1680156101b25780820380516001836020036101000a031916815260200191505b509250505060405180910390f35b3480156101cc57600080fd5b50610219600480360360408110156101e357600080fd5b81019080803573ffffffffffffffffffffffffffffffffffffffff16906020019092919080359060200190929190505050610839565b604051808215151515815260200191505060405180910390f35b34801561023f57600080fd5b506102826004803603602081101561025657600080fd5b81019080803573ffffffffffffffffffffffffffffffffffffffff16906020019092919050505061092b565b005b34801561029057600080fd5b50610299610a23565b6040518082815260200191505060405180910390f35b3480156102bb57600080fd5b50610328600480360360608110156102d257600080fd5b81019080803573ffffffffffffffffffffffffffffffffffffffff169060200190929190803573ffffffffffffffffffffffffffffffffffffffff16906020019092919080359060200190929190505050610a29565b604051808215151515815260200191505060405180910390f35b34801561034e57600080fd5b50610357610de8565b604051808263ffffffff1663ffffffff16815260200191505060405180910390f35b34801561038557600080fd5b506103d26004803603604081101561039c57600080fd5b81019080803573ffffffffffffffffffffffffffffffffffffffff16906020019092919080359060200190929190505050610ded565b604051808215151515815260200191505060405180910390f35b3480156103f857600080fd5b506104456004803603604081101561040f57600080fd5b81019080803573ffffffffffffffffffffffffffffffffffffffff16906020019092919080359060200190929190505050610f6c565b604051808215151515815260200191505060405180910390f35b34801561046b57600080fd5b506104ae6004803603602081101561048257600080fd5b81019080803573ffffffffffffffffffffffffffffffffffffffff1690602001909291905050506111fd565b6040518082815260200191505060405180910390f35b3480156104d057600080fd5b506104d9611246565b604051808215151515815260200191505060405180910390f35b3480156104ff57600080fd5b50610508611363565b604051808273ffffffffffffffffffffffffffffffffffffffff1673ffffffffffffffffffffffffffffffffffffffff16815260200191505060405180910390f35b34801561055657600080fd5b5061055f611389565b6040518080602001828103825283818151815260200191508051906020019080838360005b8381101561059f578082015181840152602081019050610584565b50505050905090810190601f1680156105cc5780820380516001836020036101000a031916815260200191505b509250505060405180910390f35b3480156105e657600080fd5b50610633600480360360408110156105fd57600080fd5b81019080803573ffffffffffffffffffffffffffffffffffffffff169060200190929190803590602001909291905050506113c2565b604051808215151515815260200191505060405180910390f35b34801561065957600080fd5b506106626115e6565b604051808273ffffffffffffffffffffffffffffffffffffffff1673ffffffffffffffffffffffffffffffffffffffff16815260200191505060405180910390f35b3480156106b057600080fd5b506106fd600480360360408110156106c757600080fd5b81019080803573ffffffffffffffffffffffffffffffffffffffff1690602001909291908035906020019092919050505061160c565b604051808215151515815260200191505060405180910390f35b34801561072357600080fd5b506107866004803603604081101561073a57600080fd5b81019080803573ffffffffffffffffffffffffffffffffffffffff169060200190929190803573ffffffffffffffffffffffffffffffffffffffff169060200190929190505050611808565b6040518082815260200191505060405180910390f35b3480156107a857600080fd5b506107eb600480360360208110156107bf57600080fd5b81019080803573ffffffffffffffffffffffffffffffffffffffff16906020019092919050505061188f565b005b600360149054906101000a900460ff1681565b6040805190810160405280600881526020017f67696d69636f696e00000000000000000000000000000000000000000000000081525081565b600081600260003373ffffffffffffffffffffffffffffffffffffffff1673ffffffffffffffffffffffffffffffffffffffff16815260200190815260200160002060008573ffffffffffffffffffffffffffffffffffffffff1673ffffffffffffffffffffffffffffffffffffffff168152602001908152602001600020819055508273ffffffffffffffffffffffffffffffffffffffff163373ffffffffffffffffffffffffffffffffffffffff167f8c5be1e5ebec7d5bd14f71427d1e84f3dd0314c0f7b2291e5b200ac8c7c3b925846040518082815260200191505060405180910390a36001905092915050565b600460009054906101000a900473ffffffffffffffffffffffffffffffffffffffff1673ffffffffffffffffffffffffffffffffffffffff163373ffffffffffffffffffffffffffffffffffffffff1614806109d45750600360009054906101000a900473ffffffffffffffffffffffffffffffffffffffff1673ffffffffffffffffffffffffffffffffffffffff163373ffffffffffffffffffffffffffffffffffffffff16145b15156109df57600080fd5b80600460006101000a81548173ffffffffffffffffffffffffffffffffffffffff021916908373ffffffffffffffffffffffffffffffffffffffff16021790555050565b60005481565b60008073ffffffffffffffffffffffffffffffffffffffff168373ffffffffffffffffffffffffffffffffffffffff1614151515610a6657600080fd5b600160008573ffffffffffffffffffffffffffffffffffffffff1673ffffffffffffffffffffffffffffffffffffffff168152602001908152602001600020548211151515610ab457600080fd5b600260008573ffffffffffffffffffffffffffffffffffffffff1673ffffffffffffffffffffffffffffffffffffffff16815260200190815260200160002060003373ffffffffffffffffffffffffffffffffffffffff1673ffffffffffffffffffffffffffffffffffffffff168152602001908152602001600020548211151515610b3f57600080fd5b610b9182600160008773ffffffffffffffffffffffffffffffffffffffff1673ffffffffffffffffffffffffffffffffffffffff168152602001908152602001600020546119e790919063ffffffff16565b600160008673ffffffffffffffffffffffffffffffffffffffff1673ffffffffffffffffffffffffffffffffffffffff16815260200190815260200160002081905550610c2682600160008673ffffffffffffffffffffffffffffffffffffffff1673ffffffffffffffffffffffffffffffffffffffff16815260200190815260200160002054611a0090919063ffffffff16565b600160008573ffffffffffffffffffffffffffffffffffffffff1673ffffffffffffffffffffffffffffffffffffffff16815260200190815260200160002081905550610cf882600260008773ffffffffffffffffffffffffffffffffffffffff1673ffffffffffffffffffffffffffffffffffffffff16815260200190815260200160002060003373ffffffffffffffffffffffffffffffffffffffff1673ffffffffffffffffffffffffffffffffffffffff168152602001908152602001600020546119e790919063ffffffff16565b600260008673ffffffffffffffffffffffffffffffffffffffff1673ffffffffffffffffffffffffffffffffffffffff16815260200190815260200160002060003373ffffffffffffffffffffffffffffffffffffffff1673ffffffffffffffffffffffffffffffffffffffff168152602001908152602001600020819055508273ffffffffffffffffffffffffffffffffffffffff168473ffffffffffffffffffffffffffffffffffffffff167fddf252ad1be2c89b69c2b068fc378daa952ba7f163c4a11628f55a4df523b3ef846040518082815260200191505060405180910390a3600190509392505050565b601281565b6000600460009054906101000a900473ffffffffffffffffffffffffffffffffffffffff1673ffffffffffffffffffffffffffffffffffffffff163373ffffffffffffffffffffffffffffffffffffffff16148015610e595750600360149054906101000a900460ff16155b1515610e6457600080fd5b610e7982600054611a0090919063ffffffff16565b600081905550610ed182600160008673ffffffffffffffffffffffffffffffffffffffff1673ffffffffffffffffffffffffffffffffffffffff16815260200190815260200160002054611a0090919063ffffffff16565b600160008573ffffffffffffffffffffffffffffffffffffffff1673ffffffffffffffffffffffffffffffffffffffff168152602001908152602001600020819055508273ffffffffffffffffffffffffffffffffffffffff167f0f6798a560793a54c3bcfe86a93cde1e73087d944c0ea20544137d4121396885836040518082815260200191505060405180910390a26001905092915050565b600080600260003373ffffffffffffffffffffffffffffffffffffffff1673ffffffffffffffffffffffffffffffffffffffff16815260200190815260200160002060008573ffffffffffffffffffffffffffffffffffffffff1673ffffffffffffffffffffffffffffffffffffffff1681526020019081526020016000205490508083111561107d576000600260003373ffffffffffffffffffffffffffffffffffffffff1673ffffffffffffffffffffffffffffffffffffffff16815260200190815260200160002060008673ffffffffffffffffffffffffffffffffffffffff1673ffffffffffffffffffffffffffffffffffffffff16815260200190815260200160002081905550611111565b61109083826119e790919063ffffffff16565b600260003373ffffffffffffffffffffffffffffffffffffffff1673ffffffffffffffffffffffffffffffffffffffff16815260200190815260200160002060008673ffffffffffffffffffffffffffffffffffffffff1673ffffffffffffffffffffffffffffffffffffffff168152602001908152602001600020819055505b8373ffffffffffffffffffffffffffffffffffffffff163373ffffffffffffffffffffffffffffffffffffffff167f8c5be1e5ebec7d5bd14f71427d1e84f3dd0314c0f7b2291e5b200ac8c7c3b925600260003373ffffffffffffffffffffffffffffffffffffffff1673ffffffffffffffffffffffffffffffffffffffff16815260200190815260200160002060008873ffffffffffffffffffffffffffffffffffffffff1673ffffffffffffffffffffffffffffffffffffffff168152602001908152602001600020546040518082815260200191505060405180910390a3600191505092915050565b6000600160008373ffffffffffffffffffffffffffffffffffffffff1673ffffffffffffffffffffffffffffffffffffffff168152602001908152602001600020549050919050565b6000600460009054906101000a900473ffffffffffffffffffffffffffffffffffffffff1673ffffffffffffffffffffffffffffffffffffffff163373ffffffffffffffffffffffffffffffffffffffff1614806112f15750600360009054906101000a900473ffffffffffffffffffffffffffffffffffffffff1673ffffffffffffffffffffffffffffffffffffffff163373ffffffffffffffffffffffffffffffffffffffff16145b801561130a5750600360149054906101000a900460ff16155b151561131557600080fd5b6001600360146101000a81548160ff0219169083151502179055507fae5184fba832cb2b1f702aca6117b8d265eaf03ad33eb133f19dde0f5920fa0860405160405180910390a16001905090565b600360009054906101000a900473ffffffffffffffffffffffffffffffffffffffff1681565b6040805190810160405280600381526020017f474d43000000000000000000000000000000000000000000000000000000000081525081565b60008073ffffffffffffffffffffffffffffffffffffffff168373ffffffffffffffffffffffffffffffffffffffff16141515156113ff57600080fd5b600160003373ffffffffffffffffffffffffffffffffffffffff1673ffffffffffffffffffffffffffffffffffffffff16815260200190815260200160002054821115151561144d57600080fd5b61149f82600160003373ffffffffffffffffffffffffffffffffffffffff1673ffffffffffffffffffffffffffffffffffffffff168152602001908152602001600020546119e790919063ffffffff16565b600160003373ffffffffffffffffffffffffffffffffffffffff1673ffffffffffffffffffffffffffffffffffffffff1681526020019081526020016000208190555061153482600160008673ffffffffffffffffffffffffffffffffffffffff1673ffffffffffffffffffffffffffffffffffffffff16815260200190815260200160002054611a0090919063ffffffff16565b600160008573ffffffffffffffffffffffffffffffffffffffff1673ffffffffffffffffffffffffffffffffffffffff168152602001908152602001600020819055508273ffffffffffffffffffffffffffffffffffffffff163373ffffffffffffffffffffffffffffffffffffffff167fddf252ad1be2c89b69c2b068fc378daa952ba7f163c4a11628f55a4df523b3ef846040518082815260200191505060405180910390a36001905092915050565b600460009054906101000a900473ffffffffffffffffffffffffffffffffffffffff1681565b600061169d82600260003373ffffffffffffffffffffffffffffffffffffffff1673ffffffffffffffffffffffffffffffffffffffff16815260200190815260200160002060008673ffffffffffffffffffffffffffffffffffffffff1673ffffffffffffffffffffffffffffffffffffffff16815260200190815260200160002054611a0090919063ffffffff16565b600260003373ffffffffffffffffffffffffffffffffffffffff1673ffffffffffffffffffffffffffffffffffffffff16815260200190815260200160002060008573ffffffffffffffffffffffffffffffffffffffff1673ffffffffffffffffffffffffffffffffffffffff168152602001908152602001600020819055508273ffffffffffffffffffffffffffffffffffffffff163373ffffffffffffffffffffffffffffffffffffffff167f8c5be1e5ebec7d5bd14f71427d1e84f3dd0314c0f7b2291e5b200ac8c7c3b925600260003373ffffffffffffffffffffffffffffffffffffffff1673ffffffffffffffffffffffffffffffffffffffff16815260200190815260200160002060008773ffffffffffffffffffffffffffffffffffffffff1673ffffffffffffffffffffffffffffffffffffffff168152602001908152602001600020546040518082815260200191505060405180910390a36001905092915050565b6000600260008473ffffffffffffffffffffffffffffffffffffffff1673ffffffffffffffffffffffffffffffffffffffff16815260200190815260200160002060008373ffffffffffffffffffffffffffffffffffffffff1673ffffffffffffffffffffffffffffffffffffffff16815260200190815260200160002054905092915050565b600360009054906101000a900473ffffffffffffffffffffffffffffffffffffffff1673ffffffffffffffffffffffffffffffffffffffff163373ffffffffffffffffffffffffffffffffffffffff161415156118eb57600080fd5b600073ffffffffffffffffffffffffffffffffffffffff168173ffffffffffffffffffffffffffffffffffffffff161415151561192757600080fd5b8073ffffffffffffffffffffffffffffffffffffffff16600360009054906101000a900473ffffffffffffffffffffffffffffffffffffffff1673ffffffffffffffffffffffffffffffffffffffff167f8be0079c531659141344cd1fd0a4f28419497f9722a3daafe3b4186f6b6457e060405160405180910390a380600360006101000a81548173ffffffffffffffffffffffffffffffffffffffff021916908373ffffffffffffffffffffffffffffffffffffffff16021790555050565b60008282111515156119f557fe5b818303905092915050565b6000808284019050838110151515611a1457fe5b809150509291505056fea165627a7a72305820e482692a7bd45a6d8f7745a7be940ff36d4db05d7718a183e5f26152bba057690029",
  "source": "pragma solidity ^0.5.0;\n\nimport \"./Gimicoin.sol\";\n\ncontract Cagnottes is Gimicoin  {\n\nevent creationCanal(uint groupe, uint montant, uint delai, string pseudo,string description);\n\nGimicoin public myGimicoin;\n\nmapping (uint => channel) public mappChannel;\nmapping (uint => address[]) public mappGroupe;\nmapping (uint => address[]) public mappGroupeAdmin;\nmapping (string => address) private mappPseudo;\nmapping (address => statistiques[]) private mappStatistiques;\n\nenum EtatCanal {ACTIF, FERME}\n\nuint IDGroupe;\nuint MAX_MEMBRE = 20;\nuint MAX_DELAI = 50;\nuint MAX_AMOUNT = 50;\n\nstruct channel\n{\n  address demandeur;\n  uint montant;\n  uint blocFermeture;\n  uint dernierNonce;\n  EtatCanal etat;\n  uint groupe;\n}\n\nstruct statistiques\n{\n  address partie;\n  uint dette;\n}\n\n\nconstructor() public\n{\nmyGimicoin = new Gimicoin();\n}\n\nfunction creerGroupe() public\n{\n  IDGroupe += 1;\n  mappGroupe[IDGroupe].push(msg.sender);\n  mappGroupeAdmin[IDGroupe].push(msg.sender);\n}\n\nfunction creerCanal(uint _groupe, uint _montant, uint _delai, string memory _pseudo, string memory _description) public\n{\n    require(mappPseudo[_pseudo]==msg.sender);\n    for (uint i=0;i<mappGroupe[_groupe].length;i++){\n      if (mappGroupe[_groupe][i] == msg.sender)\n      {\n        uint channelID = uint(keccak256(bytes(_pseudo)));\n        mappChannel[channelID].montant=_montant;\n        mappChannel[channelID].etat=EtatCanal.ACTIF;\n        mappChannel[channelID].blocFermeture=block.number+_delai;\n        mappChannel[channelID].dernierNonce += 1;\n        mappChannel[channelID].groupe = _groupe;\n        mappChannel[channelID].demandeur = msg.sender;\n        emit creationCanal(_groupe,_montant,_delai,_pseudo,_description);\n        break;\n      }\n  }\n}\n\nfunction payerCanal(uint _groupe, uint _channelID, string memory _pseudo) payable public\n{\n    require(mappPseudo[_pseudo]==msg.sender);\n    for (uint i=0;i<mappGroupe[_groupe].length;i++){\n      if (mappGroupe[_groupe][i] == msg.sender)\n      {\n      require(mappChannel[_channelID].etat==EtatCanal.ACTIF);\n      require(mappChannel[_channelID].groupe==_groupe);\n      require(mappChannel[_channelID].montant>=msg.value);\n      myGimicoin.mint(msg.sender,msg.value);\n      mappChannel[_channelID].etat=EtatCanal.FERME;\n      break;\n      }\n  }\n}\n\nfunction fermetureCanal(uint _tokenID, uint _nonce, uint) public {\n  require(mappChannel[_tokenID].etat==EtatCanal.ACTIF);\n  require(mappChannel[_tokenID].dernierNonce < _nonce);\n  mappChannel[_tokenID].etat=EtatCanal.FERME;\n}\n\nfunction creerPseudo(string memory _pseudo) public\n{\nrequire(mappPseudo[_pseudo]==address(0));\nmappPseudo[_pseudo]=msg.sender;\n}\n\nfunction ajouterMembre(address _membre, uint _groupe) public\n{\nrequire(mappGroupe[_groupe].length<MAX_MEMBRE);\n  for (uint i=0;i<mappGroupeAdmin[_groupe].length;i++){\n      if (mappGroupeAdmin[_groupe][i] == msg.sender)\n      {\n        mappGroupe[IDGroupe].push(_membre);\n        break;\n      }\n  }\n}\n\nfunction ajouterAdmin(address _membre, uint _groupe) public\n{\nrequire(mappGroupe[_groupe].length<MAX_MEMBRE);\n  for (uint i=0;i<mappGroupeAdmin[_groupe].length;i++){\n      if (mappGroupeAdmin[_groupe][i] == msg.sender)\n      {\n        mappGroupeAdmin[IDGroupe].push(_membre);\n        break;\n      }\n  }\n}\n\n}\n",
  "sourcePath": "/Users/germaindacunha/Desktop/Alyra/project/myProject/contracts/Cagnottes.sol",
  "compiler": {
    "name": "solc",
    "version": "0.5.0+commit.1d4f565a.Emscripten.clang"
  },
  "schemaVersion": "3.0.2",
  "updatedAt": "2019-03-21T16:40:07.730Z",
  "devdoc": {
    "methods": {
      "allowance(address,address)": {
        "details": "Function to check the amount of tokens that an owner allowed to a spender.",
        "params": {
          "_owner": "address The address which owns the funds.",
          "_spender": "address The address which will spend the funds."
        },
        "return": "A uint256 specifying the amount of tokens still available for the spender."
      },
      "approve(address,uint256)": {
        "details": "Approve the passed address to spend the specified amount of tokens on behalf of msg.sender.  * Beware that changing an allowance with this method brings the risk that someone may use both the old and the new allowance by unfortunate transaction ordering. One possible solution to mitigate this race condition is to first reduce the spender's allowance to 0 and set the desired value afterwards: https://github.com/ethereum/EIPs/issues/20#issuecomment-263524729",
        "params": {
          "_spender": "The address which will spend the funds.",
          "_value": "The amount of tokens to be spent."
        }
      },
      "balanceOf(address)": {
        "details": "Gets the balance of the specified address.",
        "params": {
          "_owner": "The address to query the the balance of."
        },
        "return": "An uint256 representing the amount owned by the passed address."
      },
      "finishMinting()": {
        "details": "Function to stop minting new tokens.",
        "return": "True if the operation was successful."
      },
      "transfer(address,uint256)": {
        "details": "transfer token for a specified address",
        "params": {
          "_to": "The address to transfer to.",
          "_value": "The amount to be transferred."
        }
      },
      "transferFrom(address,address,uint256)": {
        "details": "Transfer tokens from one address to another",
        "params": {
          "_from": "address The address which you want to send tokens from",
          "_to": "address The address which you want to transfer to",
          "_value": "uint256 the amount of tokens to be transferred"
        }
      },
      "transferOwnership(address)": {
        "details": "Allows the current owner to transfer control of the contract to a newOwner.",
        "params": {
          "newOwner": "The address to transfer ownership to."
        }
      }
    }
  },
  "userdoc": {
    "methods": {
      "increaseApproval(address,uint256)": {
        "notice": "approve should be called when allowed[_spender] == 0. To increment allowed value is better to use this function to avoid 2 calls (and wait until the first transaction is mined) * From MonolithDAO Token.sol"
      }
    }
  }
}