{
  "contractName": "Cagnottes",
  "abi": [
    {
      "constant": true,
      "inputs": [],
      "name": "mintingFinished",
      "outputs": [
        {
          "name": "",
          "type": "bool"
        }
      ],
      "payable": false,
      "stateMutability": "view",
      "type": "function"
    },
    {
      "constant": true,
      "inputs": [],
      "name": "name",
      "outputs": [
        {
          "name": "",
          "type": "string"
        }
      ],
      "payable": false,
      "stateMutability": "view",
      "type": "function"
    },
    {
      "constant": true,
      "inputs": [
        {
          "name": "",
          "type": "uint256"
        }
      ],
      "name": "mappChannel",
      "outputs": [
        {
          "name": "demandeur",
          "type": "address"
        },
        {
          "name": "montant",
          "type": "uint256"
        },
        {
          "name": "blocFermeture",
          "type": "uint256"
        },
        {
          "name": "etat",
          "type": "uint8"
        },
        {
          "name": "groupe",
          "type": "uint256"
        },
        {
          "name": "enCours",
          "type": "uint256"
        }
      ],
      "payable": false,
      "stateMutability": "view",
      "type": "function"
    },
    {
      "constant": false,
      "inputs": [
        {
          "name": "_spender",
          "type": "address"
        },
        {
          "name": "_value",
          "type": "uint256"
        }
      ],
      "name": "approve",
      "outputs": [
        {
          "name": "",
          "type": "bool"
        }
      ],
      "payable": false,
      "stateMutability": "nonpayable",
      "type": "function"
    },
    {
      "constant": false,
      "inputs": [
        {
          "name": "newSaleAgnet",
          "type": "address"
        }
      ],
      "name": "setSaleAgent",
      "outputs": [],
      "payable": false,
      "stateMutability": "nonpayable",
      "type": "function"
    },
    {
      "constant": true,
      "inputs": [],
      "name": "totalSupply",
      "outputs": [
        {
          "name": "",
          "type": "uint256"
        }
      ],
      "payable": false,
      "stateMutability": "view",
      "type": "function"
    },
    {
      "constant": false,
      "inputs": [
        {
          "name": "_from",
          "type": "address"
        },
        {
          "name": "_to",
          "type": "address"
        },
        {
          "name": "_value",
          "type": "uint256"
        }
      ],
      "name": "transferFrom",
      "outputs": [
        {
          "name": "",
          "type": "bool"
        }
      ],
      "payable": false,
      "stateMutability": "nonpayable",
      "type": "function"
    },
    {
      "constant": true,
      "inputs": [],
      "name": "myGimicoin",
      "outputs": [
        {
          "name": "",
          "type": "address"
        }
      ],
      "payable": false,
      "stateMutability": "view",
      "type": "function"
    },
    {
      "constant": true,
      "inputs": [],
      "name": "decimals",
      "outputs": [
        {
          "name": "",
          "type": "uint32"
        }
      ],
      "payable": false,
      "stateMutability": "view",
      "type": "function"
    },
    {
      "constant": false,
      "inputs": [
        {
          "name": "_to",
          "type": "address"
        },
        {
          "name": "_amount",
          "type": "uint256"
        }
      ],
      "name": "mint",
      "outputs": [
        {
          "name": "",
          "type": "bool"
        }
      ],
      "payable": false,
      "stateMutability": "nonpayable",
      "type": "function"
    },
    {
      "constant": false,
      "inputs": [
        {
          "name": "_spender",
          "type": "address"
        },
        {
          "name": "_subtractedValue",
          "type": "uint256"
        }
      ],
      "name": "decreaseApproval",
      "outputs": [
        {
          "name": "success",
          "type": "bool"
        }
      ],
      "payable": false,
      "stateMutability": "nonpayable",
      "type": "function"
    },
    {
      "constant": true,
      "inputs": [
        {
          "name": "",
          "type": "uint256"
        },
        {
          "name": "",
          "type": "uint256"
        }
      ],
      "name": "mappGroupeAdmin",
      "outputs": [
        {
          "name": "",
          "type": "address"
        }
      ],
      "payable": false,
      "stateMutability": "view",
      "type": "function"
    },
    {
      "constant": true,
      "inputs": [
        {
          "name": "_owner",
          "type": "address"
        }
      ],
      "name": "balanceOf",
      "outputs": [
        {
          "name": "balance",
          "type": "uint256"
        }
      ],
      "payable": false,
      "stateMutability": "view",
      "type": "function"
    },
    {
      "constant": false,
      "inputs": [],
      "name": "finishMinting",
      "outputs": [
        {
          "name": "",
          "type": "bool"
        }
      ],
      "payable": false,
      "stateMutability": "nonpayable",
      "type": "function"
    },
    {
      "constant": true,
      "inputs": [],
      "name": "owner",
      "outputs": [
        {
          "name": "",
          "type": "address"
        }
      ],
      "payable": false,
      "stateMutability": "view",
      "type": "function"
    },
    {
      "constant": true,
      "inputs": [],
      "name": "symbol",
      "outputs": [
        {
          "name": "",
          "type": "string"
        }
      ],
      "payable": false,
      "stateMutability": "view",
      "type": "function"
    },
    {
      "constant": false,
      "inputs": [
        {
          "name": "_to",
          "type": "address"
        },
        {
          "name": "_value",
          "type": "uint256"
        }
      ],
      "name": "transfer",
      "outputs": [
        {
          "name": "",
          "type": "bool"
        }
      ],
      "payable": false,
      "stateMutability": "nonpayable",
      "type": "function"
    },
    {
      "constant": true,
      "inputs": [],
      "name": "saleAgent",
      "outputs": [
        {
          "name": "",
          "type": "address"
        }
      ],
      "payable": false,
      "stateMutability": "view",
      "type": "function"
    },
    {
      "constant": true,
      "inputs": [
        {
          "name": "",
          "type": "uint256"
        },
        {
          "name": "",
          "type": "uint256"
        }
      ],
      "name": "mappGroupe",
      "outputs": [
        {
          "name": "",
          "type": "address"
        }
      ],
      "payable": false,
      "stateMutability": "view",
      "type": "function"
    },
    {
      "constant": false,
      "inputs": [
        {
          "name": "_spender",
          "type": "address"
        },
        {
          "name": "_addedValue",
          "type": "uint256"
        }
      ],
      "name": "increaseApproval",
      "outputs": [
        {
          "name": "success",
          "type": "bool"
        }
      ],
      "payable": false,
      "stateMutability": "nonpayable",
      "type": "function"
    },
    {
      "constant": true,
      "inputs": [
        {
          "name": "_owner",
          "type": "address"
        },
        {
          "name": "_spender",
          "type": "address"
        }
      ],
      "name": "allowance",
      "outputs": [
        {
          "name": "remaining",
          "type": "uint256"
        }
      ],
      "payable": false,
      "stateMutability": "view",
      "type": "function"
    },
    {
      "constant": false,
      "inputs": [
        {
          "name": "newOwner",
          "type": "address"
        }
      ],
      "name": "transferOwnership",
      "outputs": [],
      "payable": false,
      "stateMutability": "nonpayable",
      "type": "function"
    },
    {
      "constant": true,
      "inputs": [
        {
          "name": "",
          "type": "uint256"
        },
        {
          "name": "",
          "type": "uint256"
        }
      ],
      "name": "mappChannels",
      "outputs": [
        {
          "name": "",
          "type": "uint256"
        }
      ],
      "payable": false,
      "stateMutability": "view",
      "type": "function"
    },
    {
      "inputs": [],
      "payable": false,
      "stateMutability": "nonpayable",
      "type": "constructor"
    },
    {
      "anonymous": false,
      "inputs": [
        {
          "indexed": false,
          "name": "groupe",
          "type": "uint256"
        },
        {
          "indexed": false,
          "name": "montant",
          "type": "uint256"
        },
        {
          "indexed": false,
          "name": "delai",
          "type": "uint256"
        },
        {
          "indexed": false,
          "name": "pseudo",
          "type": "string"
        },
        {
          "indexed": false,
          "name": "description",
          "type": "string"
        }
      ],
      "name": "creationCanal",
      "type": "event"
    },
    {
      "anonymous": false,
      "inputs": [
        {
          "indexed": true,
          "name": "to",
          "type": "address"
        },
        {
          "indexed": false,
          "name": "amount",
          "type": "uint256"
        }
      ],
      "name": "Mint",
      "type": "event"
    },
    {
      "anonymous": false,
      "inputs": [],
      "name": "MintFinished",
      "type": "event"
    },
    {
      "anonymous": false,
      "inputs": [
        {
          "indexed": true,
          "name": "previousOwner",
          "type": "address"
        },
        {
          "indexed": true,
          "name": "newOwner",
          "type": "address"
        }
      ],
      "name": "OwnershipTransferred",
      "type": "event"
    },
    {
      "anonymous": false,
      "inputs": [
        {
          "indexed": true,
          "name": "owner",
          "type": "address"
        },
        {
          "indexed": true,
          "name": "spender",
          "type": "address"
        },
        {
          "indexed": false,
          "name": "value",
          "type": "uint256"
        }
      ],
      "name": "Approval",
      "type": "event"
    },
    {
      "anonymous": false,
      "inputs": [
        {
          "indexed": true,
          "name": "from",
          "type": "address"
        },
        {
          "indexed": true,
          "name": "to",
          "type": "address"
        },
        {
          "indexed": false,
          "name": "value",
          "type": "uint256"
        }
      ],
      "name": "Transfer",
      "type": "event"
    },
    {
      "constant": false,
      "inputs": [],
      "name": "creerGroupe",
      "outputs": [],
      "payable": false,
      "stateMutability": "nonpayable",
      "type": "function"
    },
    {
      "constant": false,
      "inputs": [
        {
          "name": "_groupe",
          "type": "uint256"
        },
        {
          "name": "_montant",
          "type": "uint256"
        },
        {
          "name": "_delai",
          "type": "uint256"
        },
        {
          "name": "_pseudo",
          "type": "string"
        },
        {
          "name": "_description",
          "type": "string"
        }
      ],
      "name": "creerCanal",
      "outputs": [],
      "payable": false,
      "stateMutability": "nonpayable",
      "type": "function"
    },
    {
      "constant": false,
      "inputs": [
        {
          "name": "_groupe",
          "type": "uint256"
        },
        {
          "name": "_channelID",
          "type": "uint256"
        },
        {
          "name": "_pseudo",
          "type": "string"
        }
      ],
      "name": "payerCanal",
      "outputs": [],
      "payable": true,
      "stateMutability": "payable",
      "type": "function"
    },
    {
      "constant": false,
      "inputs": [
        {
          "name": "_channelID",
          "type": "uint256"
        }
      ],
      "name": "fermetureCanal",
      "outputs": [],
      "payable": false,
      "stateMutability": "nonpayable",
      "type": "function"
    },
    {
      "constant": false,
      "inputs": [
        {
          "name": "_pseudo",
          "type": "string"
        }
      ],
      "name": "creerPseudo",
      "outputs": [],
      "payable": false,
      "stateMutability": "nonpayable",
      "type": "function"
    },
    {
      "constant": false,
      "inputs": [
        {
          "name": "_membre",
          "type": "address"
        },
        {
          "name": "_groupe",
          "type": "uint256"
        }
      ],
      "name": "ajouterMembre",
      "outputs": [],
      "payable": false,
      "stateMutability": "nonpayable",
      "type": "function"
    },
    {
      "constant": false,
      "inputs": [
        {
          "name": "_membre",
          "type": "address"
        },
        {
          "name": "_groupe",
          "type": "uint256"
        }
      ],
      "name": "ajouterAdmin",
      "outputs": [],
      "payable": false,
      "stateMutability": "nonpayable",
      "type": "function"
    }
  ],
  "bytecode": "0x60806040526000600360146101000a81548160ff0219169083151502179055506028600c556032600d556032600e553480156200003b57600080fd5b5033600360006101000a81548173ffffffffffffffffffffffffffffffffffffffff021916908373ffffffffffffffffffffffffffffffffffffffff16021790555062000087620000eb565b604051809103906000f080158015620000a4573d6000803e3d6000fd5b50600560006101000a81548173ffffffffffffffffffffffffffffffffffffffff021916908373ffffffffffffffffffffffffffffffffffffffff160217905550620000fc565b604051611ab980620032aa83390190565b61319e806200010c6000396000f3fe608060405260043610610180576000357c0100000000000000000000000000000000000000000000000000000000900463ffffffff16806305d2035b1461018557806306fdde03146101b457806308a0aead14610244578063095ea7b3146102f057806314133a7c1461036357806318160ddd146103b457806323b872dd146103df578063247e00f81461047257806330451431146104c9578063313ce567146105245780633a53cf2e1461055b57806340c10f19146105725780634d9bded6146105e5578063528d44251461062057806360712564146106e857806366188463146107b75780636d4a68821461082a57806370a08231146108af5780637d64bcb4146109145780638da5cb5b1461094357806395d89b411461099a578063a9059cbb14610a2a578063b1d6a2f014610a9d578063d509b85f14610af4578063d73dd62314610b79578063d8bce69314610bec578063dd62ed3e14610c47578063e44febb814610ccc578063f2fde38b14610e49578063fec2c84d14610e9a575b600080fd5b34801561019157600080fd5b5061019a610ef3565b604051808215151515815260200191505060405180910390f35b3480156101c057600080fd5b506101c9610f06565b6040518080602001828103825283818151815260200191508051906020019080838360005b838110156102095780820151818401526020810190506101ee565b50505050905090810190601f1680156102365780820380516001836020036101000a031916815260200191505b509250505060405180910390f35b34801561025057600080fd5b5061027d6004803603602081101561026757600080fd5b8101908080359060200190929190505050610f3f565b604051808773ffffffffffffffffffffffffffffffffffffffff1673ffffffffffffffffffffffffffffffffffffffff1681526020018681526020018581526020018460018111156102cb57fe5b60ff168152602001838152602001828152602001965050505050505060405180910390f35b3480156102fc57600080fd5b506103496004803603604081101561031357600080fd5b81019080803573ffffffffffffffffffffffffffffffffffffffff16906020019092919080359060200190929190505050610fa8565b604051808215151515815260200191505060405180910390f35b34801561036f57600080fd5b506103b26004803603602081101561038657600080fd5b81019080803573ffffffffffffffffffffffffffffffffffffffff16906020019092919050505061109a565b005b3480156103c057600080fd5b506103c9611192565b6040518082815260200191505060405180910390f35b3480156103eb57600080fd5b506104586004803603606081101561040257600080fd5b81019080803573ffffffffffffffffffffffffffffffffffffffff169060200190929190803573ffffffffffffffffffffffffffffffffffffffff16906020019092919080359060200190929190505050611198565b604051808215151515815260200191505060405180910390f35b34801561047e57600080fd5b50610487611557565b604051808273ffffffffffffffffffffffffffffffffffffffff1673ffffffffffffffffffffffffffffffffffffffff16815260200191505060405180910390f35b3480156104d557600080fd5b50610522600480360360408110156104ec57600080fd5b81019080803573ffffffffffffffffffffffffffffffffffffffff1690602001909291908035906020019092919050505061157d565b005b34801561053057600080fd5b506105396116d5565b604051808263ffffffff1663ffffffff16815260200191505060405180910390f35b34801561056757600080fd5b506105706116da565b005b34801561057e57600080fd5b506105cb6004803603604081101561059557600080fd5b81019080803573ffffffffffffffffffffffffffffffffffffffff169060200190929190803590602001909291905050506117df565b604051808215151515815260200191505060405180910390f35b3480156105f157600080fd5b5061061e6004803603602081101561060857600080fd5b810190808035906020019092919050505061195e565b005b34801561062c57600080fd5b506106e66004803603602081101561064357600080fd5b810190808035906020019064010000000081111561066057600080fd5b82018360208201111561067257600080fd5b8035906020019184600183028401116401000000008311171561069457600080fd5b91908080601f016020809104026020016040519081016040528093929190818152602001838380828437600081840152601f19601f820116905080830192505050505050509192919290505050611ad3565b005b6107b5600480360360608110156106fe57600080fd5b8101908080359060200190929190803590602001909291908035906020019064010000000081111561072f57600080fd5b82018360208201111561074157600080fd5b8035906020019184600183028401116401000000008311171561076357600080fd5b91908080601f016020809104026020016040519081016040528093929190818152602001838380828437600081840152601f19601f820116905080830192505050505050509192919290505050611c46565b005b3480156107c357600080fd5b50610810600480360360408110156107da57600080fd5b81019080803573ffffffffffffffffffffffffffffffffffffffff16906020019092919080359060200190929190505050611fda565b604051808215151515815260200191505060405180910390f35b34801561083657600080fd5b5061086d6004803603604081101561084d57600080fd5b81019080803590602001909291908035906020019092919050505061226b565b604051808273ffffffffffffffffffffffffffffffffffffffff1673ffffffffffffffffffffffffffffffffffffffff16815260200191505060405180910390f35b3480156108bb57600080fd5b506108fe600480360360208110156108d257600080fd5b81019080803573ffffffffffffffffffffffffffffffffffffffff1690602001909291905050506122b8565b6040518082815260200191505060405180910390f35b34801561092057600080fd5b50610929612301565b604051808215151515815260200191505060405180910390f35b34801561094f57600080fd5b5061095861241e565b604051808273ffffffffffffffffffffffffffffffffffffffff1673ffffffffffffffffffffffffffffffffffffffff16815260200191505060405180910390f35b3480156109a657600080fd5b506109af612444565b6040518080602001828103825283818151815260200191508051906020019080838360005b838110156109ef5780820151818401526020810190506109d4565b50505050905090810190601f168015610a1c5780820380516001836020036101000a031916815260200191505b509250505060405180910390f35b348015610a3657600080fd5b50610a8360048036036040811015610a4d57600080fd5b81019080803573ffffffffffffffffffffffffffffffffffffffff1690602001909291908035906020019092919050505061247d565b604051808215151515815260200191505060405180910390f35b348015610aa957600080fd5b50610ab26126a1565b604051808273ffffffffffffffffffffffffffffffffffffffff1673ffffffffffffffffffffffffffffffffffffffff16815260200191505060405180910390f35b348015610b0057600080fd5b50610b3760048036036040811015610b1757600080fd5b8101908080359060200190929190803590602001909291905050506126c7565b604051808273ffffffffffffffffffffffffffffffffffffffff1673ffffffffffffffffffffffffffffffffffffffff16815260200191505060405180910390f35b348015610b8557600080fd5b50610bd260048036036040811015610b9c57600080fd5b81019080803573ffffffffffffffffffffffffffffffffffffffff16906020019092919080359060200190929190505050612714565b604051808215151515815260200191505060405180910390f35b348015610bf857600080fd5b50610c4560048036036040811015610c0f57600080fd5b81019080803573ffffffffffffffffffffffffffffffffffffffff16906020019092919080359060200190929190505050612910565b005b348015610c5357600080fd5b50610cb660048036036040811015610c6a57600080fd5b81019080803573ffffffffffffffffffffffffffffffffffffffff169060200190929190803573ffffffffffffffffffffffffffffffffffffffff169060200190929190505050612af7565b6040518082815260200191505060405180910390f35b348015610cd857600080fd5b50610e47600480360360a0811015610cef57600080fd5b8101908080359060200190929190803590602001909291908035906020019092919080359060200190640100000000811115610d2a57600080fd5b820183602082011115610d3c57600080fd5b80359060200191846001830284011164010000000083111715610d5e57600080fd5b91908080601f016020809104026020016040519081016040528093929190818152602001838380828437600081840152601f19601f82011690508083019250505050505050919291929080359060200190640100000000811115610dc157600080fd5b820183602082011115610dd357600080fd5b80359060200191846001830284011164010000000083111715610df557600080fd5b91908080601f016020809104026020016040519081016040528093929190818152602001838380828437600081840152601f19601f820116905080830192505050505050509192919290505050612b7e565b005b348015610e5557600080fd5b50610e9860048036036020811015610e6c57600080fd5b81019080803573ffffffffffffffffffffffffffffffffffffffff169060200190929190505050612fb3565b005b348015610ea657600080fd5b50610edd60048036036040811015610ebd57600080fd5b81019080803590602001909291908035906020019092919050505061310b565b6040518082815260200191505060405180910390f35b600360149054906101000a900460ff1681565b6040805190810160405280600881526020017f67696d69636f696e00000000000000000000000000000000000000000000000081525081565b60066020528060005260406000206000915090508060000160009054906101000a900473ffffffffffffffffffffffffffffffffffffffff16908060010154908060020154908060030160009054906101000a900460ff16908060040154908060050154905086565b600081600260003373ffffffffffffffffffffffffffffffffffffffff1673ffffffffffffffffffffffffffffffffffffffff16815260200190815260200160002060008573ffffffffffffffffffffffffffffffffffffffff1673ffffffffffffffffffffffffffffffffffffffff168152602001908152602001600020819055508273ffffffffffffffffffffffffffffffffffffffff163373ffffffffffffffffffffffffffffffffffffffff167f8c5be1e5ebec7d5bd14f71427d1e84f3dd0314c0f7b2291e5b200ac8c7c3b925846040518082815260200191505060405180910390a36001905092915050565b600460009054906101000a900473ffffffffffffffffffffffffffffffffffffffff1673ffffffffffffffffffffffffffffffffffffffff163373ffffffffffffffffffffffffffffffffffffffff1614806111435750600360009054906101000a900473ffffffffffffffffffffffffffffffffffffffff1673ffffffffffffffffffffffffffffffffffffffff163373ffffffffffffffffffffffffffffffffffffffff16145b151561114e57600080fd5b80600460006101000a81548173ffffffffffffffffffffffffffffffffffffffff021916908373ffffffffffffffffffffffffffffffffffffffff16021790555050565b60005481565b60008073ffffffffffffffffffffffffffffffffffffffff168373ffffffffffffffffffffffffffffffffffffffff16141515156111d557600080fd5b600160008573ffffffffffffffffffffffffffffffffffffffff1673ffffffffffffffffffffffffffffffffffffffff16815260200190815260200160002054821115151561122357600080fd5b600260008573ffffffffffffffffffffffffffffffffffffffff1673ffffffffffffffffffffffffffffffffffffffff16815260200190815260200160002060003373ffffffffffffffffffffffffffffffffffffffff1673ffffffffffffffffffffffffffffffffffffffff1681526020019081526020016000205482111515156112ae57600080fd5b61130082600160008773ffffffffffffffffffffffffffffffffffffffff1673ffffffffffffffffffffffffffffffffffffffff1681526020019081526020016000205461313b90919063ffffffff16565b600160008673ffffffffffffffffffffffffffffffffffffffff1673ffffffffffffffffffffffffffffffffffffffff1681526020019081526020016000208190555061139582600160008673ffffffffffffffffffffffffffffffffffffffff1673ffffffffffffffffffffffffffffffffffffffff1681526020019081526020016000205461315490919063ffffffff16565b600160008573ffffffffffffffffffffffffffffffffffffffff1673ffffffffffffffffffffffffffffffffffffffff1681526020019081526020016000208190555061146782600260008773ffffffffffffffffffffffffffffffffffffffff1673ffffffffffffffffffffffffffffffffffffffff16815260200190815260200160002060003373ffffffffffffffffffffffffffffffffffffffff1673ffffffffffffffffffffffffffffffffffffffff1681526020019081526020016000205461313b90919063ffffffff16565b600260008673ffffffffffffffffffffffffffffffffffffffff1673ffffffffffffffffffffffffffffffffffffffff16815260200190815260200160002060003373ffffffffffffffffffffffffffffffffffffffff1673ffffffffffffffffffffffffffffffffffffffff168152602001908152602001600020819055508273ffffffffffffffffffffffffffffffffffffffff168473ffffffffffffffffffffffffffffffffffffffff167fddf252ad1be2c89b69c2b068fc378daa952ba7f163c4a11628f55a4df523b3ef846040518082815260200191505060405180910390a3600190509392505050565b600560009054906101000a900473ffffffffffffffffffffffffffffffffffffffff1681565b600c5460076000838152602001908152602001600020805490501015156115a357600080fd5b60008090505b60086000838152602001908152602001600020805490508110156116d0573373ffffffffffffffffffffffffffffffffffffffff1660086000848152602001908152602001600020828154811015156115fe57fe5b9060005260206000200160009054906101000a900473ffffffffffffffffffffffffffffffffffffffff1673ffffffffffffffffffffffffffffffffffffffff1614156116c35760076000600b5481526020019081526020016000208390806001815401808255809150509060018203906000526020600020016000909192909190916101000a81548173ffffffffffffffffffffffffffffffffffffffff021916908373ffffffffffffffffffffffffffffffffffffffff160217905550506116d0565b80806001019150506115a9565b505050565b601281565b6001600b6000828254019250508190555060076000600b5481526020019081526020016000203390806001815401808255809150509060018203906000526020600020016000909192909190916101000a81548173ffffffffffffffffffffffffffffffffffffffff021916908373ffffffffffffffffffffffffffffffffffffffff1602179055505060086000600b5481526020019081526020016000203390806001815401808255809150509060018203906000526020600020016000909192909190916101000a81548173ffffffffffffffffffffffffffffffffffffffff021916908373ffffffffffffffffffffffffffffffffffffffff16021790555050565b6000600460009054906101000a900473ffffffffffffffffffffffffffffffffffffffff1673ffffffffffffffffffffffffffffffffffffffff163373ffffffffffffffffffffffffffffffffffffffff1614801561184b5750600360149054906101000a900460ff16155b151561185657600080fd5b61186b8260005461315490919063ffffffff16565b6000819055506118c382600160008673ffffffffffffffffffffffffffffffffffffffff1673ffffffffffffffffffffffffffffffffffffffff1681526020019081526020016000205461315490919063ffffffff16565b600160008573ffffffffffffffffffffffffffffffffffffffff1673ffffffffffffffffffffffffffffffffffffffff168152602001908152602001600020819055508273ffffffffffffffffffffffffffffffffffffffff167f0f6798a560793a54c3bcfe86a93cde1e73087d944c0ea20544137d4121396885836040518082815260200191505060405180910390a26001905092915050565b4360066000838152602001908152602001600020600201541115151561198357600080fd5b6000600181111561199057fe5b6006600083815260200190815260200160002060030160009054906101000a900460ff1660018111156119bf57fe5b1415156119cb57600080fd5b3373ffffffffffffffffffffffffffffffffffffffff166006600083815260200190815260200160002060000160009054906101000a900473ffffffffffffffffffffffffffffffffffffffff1673ffffffffffffffffffffffffffffffffffffffff16141515611a3b57600080fd5b3373ffffffffffffffffffffffffffffffffffffffff166108fc60066000848152602001908152602001600020600501549081150290604051600060405180830381858888f19350505050158015611a97573d6000803e3d6000fd5b5060016006600083815260200190815260200160002060030160006101000a81548160ff02191690836001811115611acb57fe5b021790555050565b600073ffffffffffffffffffffffffffffffffffffffff166009826040518082805190602001908083835b602083101515611b235780518252602082019150602081019050602083039250611afe565b6001836020036101000a038019825116818451168082178552505050505050905001915050908152602001604051809103902060009054906101000a900473ffffffffffffffffffffffffffffffffffffffff1673ffffffffffffffffffffffffffffffffffffffff16141515611b9957600080fd5b336009826040518082805190602001908083835b602083101515611bd25780518252602082019150602081019050602083039250611bad565b6001836020036101000a038019825116818451168082178552505050505050905001915050908152602001604051809103902060006101000a81548173ffffffffffffffffffffffffffffffffffffffff021916908373ffffffffffffffffffffffffffffffffffffffff16021790555050565b600080600090505b600a600086815260200190815260200160002080549050811015611cb45783600a600087815260200190815260200160002082815481101515611c8d57fe5b90600052602060002001541415611ca75760019150611cb4565b8080600101915050611c4e565b5060006001811115611cc257fe5b6006600085815260200190815260200160002060030160009054906101000a900460ff166001811115611cf157fe5b141515611cfd57600080fd5b43600660008581526020019081526020016000206002015410151515611d2257600080fd5b60011515811515141515611d3557600080fd5b3373ffffffffffffffffffffffffffffffffffffffff166009836040518082805190602001908083835b602083101515611d845780518252602082019150602081019050602083039250611d5f565b6001836020036101000a038019825116818451168082178552505050505050905001915050908152602001604051809103902060009054906101000a900473ffffffffffffffffffffffffffffffffffffffff1673ffffffffffffffffffffffffffffffffffffffff16141515611dfa57600080fd5b60008090505b6007600086815260200190815260200160002080549050811015611fd3573373ffffffffffffffffffffffffffffffffffffffff166007600087815260200190815260200160002082815481101515611e5557fe5b9060005260206000200160009054906101000a900473ffffffffffffffffffffffffffffffffffffffff1673ffffffffffffffffffffffffffffffffffffffff161415611fc657346006600086815260200190815260200160002060050160008282540192505081905550600560009054906101000a900473ffffffffffffffffffffffffffffffffffffffff1673ffffffffffffffffffffffffffffffffffffffff166340c10f1933346040518363ffffffff167c0100000000000000000000000000000000000000000000000000000000028152600401808373ffffffffffffffffffffffffffffffffffffffff1673ffffffffffffffffffffffffffffffffffffffff16815260200182815260200192505050602060405180830381600087803b158015611f8557600080fd5b505af1158015611f99573d6000803e3d6000fd5b505050506040513d6020811015611faf57600080fd5b810190808051906020019092919050505050611fd3565b8080600101915050611e00565b5050505050565b600080600260003373ffffffffffffffffffffffffffffffffffffffff1673ffffffffffffffffffffffffffffffffffffffff16815260200190815260200160002060008573ffffffffffffffffffffffffffffffffffffffff1673ffffffffffffffffffffffffffffffffffffffff168152602001908152602001600020549050808311156120eb576000600260003373ffffffffffffffffffffffffffffffffffffffff1673ffffffffffffffffffffffffffffffffffffffff16815260200190815260200160002060008673ffffffffffffffffffffffffffffffffffffffff1673ffffffffffffffffffffffffffffffffffffffff1681526020019081526020016000208190555061217f565b6120fe838261313b90919063ffffffff16565b600260003373ffffffffffffffffffffffffffffffffffffffff1673ffffffffffffffffffffffffffffffffffffffff16815260200190815260200160002060008673ffffffffffffffffffffffffffffffffffffffff1673ffffffffffffffffffffffffffffffffffffffff168152602001908152602001600020819055505b8373ffffffffffffffffffffffffffffffffffffffff163373ffffffffffffffffffffffffffffffffffffffff167f8c5be1e5ebec7d5bd14f71427d1e84f3dd0314c0f7b2291e5b200ac8c7c3b925600260003373ffffffffffffffffffffffffffffffffffffffff1673ffffffffffffffffffffffffffffffffffffffff16815260200190815260200160002060008873ffffffffffffffffffffffffffffffffffffffff1673ffffffffffffffffffffffffffffffffffffffff168152602001908152602001600020546040518082815260200191505060405180910390a3600191505092915050565b60086020528160005260406000208181548110151561228657fe5b906000526020600020016000915091509054906101000a900473ffffffffffffffffffffffffffffffffffffffff1681565b6000600160008373ffffffffffffffffffffffffffffffffffffffff1673ffffffffffffffffffffffffffffffffffffffff168152602001908152602001600020549050919050565b6000600460009054906101000a900473ffffffffffffffffffffffffffffffffffffffff1673ffffffffffffffffffffffffffffffffffffffff163373ffffffffffffffffffffffffffffffffffffffff1614806123ac5750600360009054906101000a900473ffffffffffffffffffffffffffffffffffffffff1673ffffffffffffffffffffffffffffffffffffffff163373ffffffffffffffffffffffffffffffffffffffff16145b80156123c55750600360149054906101000a900460ff16155b15156123d057600080fd5b6001600360146101000a81548160ff0219169083151502179055507fae5184fba832cb2b1f702aca6117b8d265eaf03ad33eb133f19dde0f5920fa0860405160405180910390a16001905090565b600360009054906101000a900473ffffffffffffffffffffffffffffffffffffffff1681565b6040805190810160405280600381526020017f474d43000000000000000000000000000000000000000000000000000000000081525081565b60008073ffffffffffffffffffffffffffffffffffffffff168373ffffffffffffffffffffffffffffffffffffffff16141515156124ba57600080fd5b600160003373ffffffffffffffffffffffffffffffffffffffff1673ffffffffffffffffffffffffffffffffffffffff16815260200190815260200160002054821115151561250857600080fd5b61255a82600160003373ffffffffffffffffffffffffffffffffffffffff1673ffffffffffffffffffffffffffffffffffffffff1681526020019081526020016000205461313b90919063ffffffff16565b600160003373ffffffffffffffffffffffffffffffffffffffff1673ffffffffffffffffffffffffffffffffffffffff168152602001908152602001600020819055506125ef82600160008673ffffffffffffffffffffffffffffffffffffffff1673ffffffffffffffffffffffffffffffffffffffff1681526020019081526020016000205461315490919063ffffffff16565b600160008573ffffffffffffffffffffffffffffffffffffffff1673ffffffffffffffffffffffffffffffffffffffff168152602001908152602001600020819055508273ffffffffffffffffffffffffffffffffffffffff163373ffffffffffffffffffffffffffffffffffffffff167fddf252ad1be2c89b69c2b068fc378daa952ba7f163c4a11628f55a4df523b3ef846040518082815260200191505060405180910390a36001905092915050565b600460009054906101000a900473ffffffffffffffffffffffffffffffffffffffff1681565b6007602052816000526040600020818154811015156126e257fe5b906000526020600020016000915091509054906101000a900473ffffffffffffffffffffffffffffffffffffffff1681565b60006127a582600260003373ffffffffffffffffffffffffffffffffffffffff1673ffffffffffffffffffffffffffffffffffffffff16815260200190815260200160002060008673ffffffffffffffffffffffffffffffffffffffff1673ffffffffffffffffffffffffffffffffffffffff1681526020019081526020016000205461315490919063ffffffff16565b600260003373ffffffffffffffffffffffffffffffffffffffff1673ffffffffffffffffffffffffffffffffffffffff16815260200190815260200160002060008573ffffffffffffffffffffffffffffffffffffffff1673ffffffffffffffffffffffffffffffffffffffff168152602001908152602001600020819055508273ffffffffffffffffffffffffffffffffffffffff163373ffffffffffffffffffffffffffffffffffffffff167f8c5be1e5ebec7d5bd14f71427d1e84f3dd0314c0f7b2291e5b200ac8c7c3b925600260003373ffffffffffffffffffffffffffffffffffffffff1673ffffffffffffffffffffffffffffffffffffffff16815260200190815260200160002060008773ffffffffffffffffffffffffffffffffffffffff1673ffffffffffffffffffffffffffffffffffffffff168152602001908152602001600020546040518082815260200191505060405180910390a36001905092915050565b60008090505b6008600083815260200190815260200160002080549050811015612af2573373ffffffffffffffffffffffffffffffffffffffff16600860008481526020019081526020016000208281548110151561296b57fe5b9060005260206000200160009054906101000a900473ffffffffffffffffffffffffffffffffffffffff1673ffffffffffffffffffffffffffffffffffffffff161415612ae55760008090505b6007600084815260200190815260200160002080549050811015612adf578373ffffffffffffffffffffffffffffffffffffffff166007600085815260200190815260200160002082815481101515612a0d57fe5b9060005260206000200160009054906101000a900473ffffffffffffffffffffffffffffffffffffffff1673ffffffffffffffffffffffffffffffffffffffff161415612ad25760086000600b5481526020019081526020016000208490806001815401808255809150509060018203906000526020600020016000909192909190916101000a81548173ffffffffffffffffffffffffffffffffffffffff021916908373ffffffffffffffffffffffffffffffffffffffff16021790555050612adf565b80806001019150506129b8565b50612af2565b8080600101915050612916565b505050565b6000600260008473ffffffffffffffffffffffffffffffffffffffff1673ffffffffffffffffffffffffffffffffffffffff16815260200190815260200160002060008373ffffffffffffffffffffffffffffffffffffffff1673ffffffffffffffffffffffffffffffffffffffff16815260200190815260200160002054905092915050565b3373ffffffffffffffffffffffffffffffffffffffff166009836040518082805190602001908083835b602083101515612bcd5780518252602082019150602081019050602083039250612ba8565b6001836020036101000a038019825116818451168082178552505050505050905001915050908152602001604051809103902060009054906101000a900473ffffffffffffffffffffffffffffffffffffffff1673ffffffffffffffffffffffffffffffffffffffff16141515612c4357600080fd5b60008090505b6007600087815260200190815260200160002080549050811015612fab573373ffffffffffffffffffffffffffffffffffffffff166007600088815260200190815260200160002082815481101515612c9e57fe5b9060005260206000200160009054906101000a900473ffffffffffffffffffffffffffffffffffffffff1673ffffffffffffffffffffffffffffffffffffffff161415612f9e576000838051906020012060019004905060006001811115612d0257fe5b6006600083815260200190815260200160002060030160009054906101000a900460ff166001811115612d3157fe5b14151515612d3e57600080fd5b8560066000838152602001908152602001600020600101819055506000600660008381526020019081526020016000206005018190555060006006600083815260200190815260200160002060030160006101000a81548160ff02191690836001811115612da857fe5b02179055508443016006600083815260200190815260200160002060020181905550866006600083815260200190815260200160002060040181905550336006600083815260200190815260200160002060000160006101000a81548173ffffffffffffffffffffffffffffffffffffffff021916908373ffffffffffffffffffffffffffffffffffffffff160217905550600a60008881526020019081526020016000208190806001815401808255809150509060018203906000526020600020016000909192909190915055507f8a64cb423c19586f872218c2192f95ec24a6dfac196870d9ba713b117ee8032c8787878787604051808681526020018581526020018481526020018060200180602001838103835285818151815260200191508051906020019080838360005b83811015612ef3578082015181840152602081019050612ed8565b50505050905090810190601f168015612f205780820380516001836020036101000a031916815260200191505b50838103825284818151815260200191508051906020019080838360005b83811015612f59578082015181840152602081019050612f3e565b50505050905090810190601f168015612f865780820380516001836020036101000a031916815260200191505b5097505050505050505060405180910390a150612fab565b8080600101915050612c49565b505050505050565b600360009054906101000a900473ffffffffffffffffffffffffffffffffffffffff1673ffffffffffffffffffffffffffffffffffffffff163373ffffffffffffffffffffffffffffffffffffffff1614151561300f57600080fd5b600073ffffffffffffffffffffffffffffffffffffffff168173ffffffffffffffffffffffffffffffffffffffff161415151561304b57600080fd5b8073ffffffffffffffffffffffffffffffffffffffff16600360009054906101000a900473ffffffffffffffffffffffffffffffffffffffff1673ffffffffffffffffffffffffffffffffffffffff167f8be0079c531659141344cd1fd0a4f28419497f9722a3daafe3b4186f6b6457e060405160405180910390a380600360006101000a81548173ffffffffffffffffffffffffffffffffffffffff021916908373ffffffffffffffffffffffffffffffffffffffff16021790555050565b600a6020528160005260406000208181548110151561312657fe5b90600052602060002001600091509150505481565b600082821115151561314957fe5b818303905092915050565b600080828401905083811015151561316857fe5b809150509291505056fea165627a7a72305820971657768097f66bc560667dee9aeb5639f4eb451be8578c2f0dd5d0ed97a4e4002960806040526000600360146101000a81548160ff02191690831515021790555033600360006101000a81548173ffffffffffffffffffffffffffffffffffffffff021916908373ffffffffffffffffffffffffffffffffffffffff160217905550611a4a8061006f6000396000f3fe6080604052600436106100fc576000357c0100000000000000000000000000000000000000000000000000000000900463ffffffff16806305d2035b1461010157806306fdde0314610130578063095ea7b3146101c057806314133a7c1461023357806318160ddd1461028457806323b872dd146102af578063313ce5671461034257806340c10f191461037957806366188463146103ec57806370a082311461045f5780637d64bcb4146104c45780638da5cb5b146104f357806395d89b411461054a578063a9059cbb146105da578063b1d6a2f01461064d578063d73dd623146106a4578063dd62ed3e14610717578063f2fde38b1461079c575b600080fd5b34801561010d57600080fd5b506101166107ed565b604051808215151515815260200191505060405180910390f35b34801561013c57600080fd5b50610145610800565b6040518080602001828103825283818151815260200191508051906020019080838360005b8381101561018557808201518184015260208101905061016a565b50505050905090810190601f1680156101b25780820380516001836020036101000a031916815260200191505b509250505060405180910390f35b3480156101cc57600080fd5b50610219600480360360408110156101e357600080fd5b81019080803573ffffffffffffffffffffffffffffffffffffffff16906020019092919080359060200190929190505050610839565b604051808215151515815260200191505060405180910390f35b34801561023f57600080fd5b506102826004803603602081101561025657600080fd5b81019080803573ffffffffffffffffffffffffffffffffffffffff16906020019092919050505061092b565b005b34801561029057600080fd5b50610299610a23565b6040518082815260200191505060405180910390f35b3480156102bb57600080fd5b50610328600480360360608110156102d257600080fd5b81019080803573ffffffffffffffffffffffffffffffffffffffff169060200190929190803573ffffffffffffffffffffffffffffffffffffffff16906020019092919080359060200190929190505050610a29565b604051808215151515815260200191505060405180910390f35b34801561034e57600080fd5b50610357610de8565b604051808263ffffffff1663ffffffff16815260200191505060405180910390f35b34801561038557600080fd5b506103d26004803603604081101561039c57600080fd5b81019080803573ffffffffffffffffffffffffffffffffffffffff16906020019092919080359060200190929190505050610ded565b604051808215151515815260200191505060405180910390f35b3480156103f857600080fd5b506104456004803603604081101561040f57600080fd5b81019080803573ffffffffffffffffffffffffffffffffffffffff16906020019092919080359060200190929190505050610f6c565b604051808215151515815260200191505060405180910390f35b34801561046b57600080fd5b506104ae6004803603602081101561048257600080fd5b81019080803573ffffffffffffffffffffffffffffffffffffffff1690602001909291905050506111fd565b6040518082815260200191505060405180910390f35b3480156104d057600080fd5b506104d9611246565b604051808215151515815260200191505060405180910390f35b3480156104ff57600080fd5b50610508611363565b604051808273ffffffffffffffffffffffffffffffffffffffff1673ffffffffffffffffffffffffffffffffffffffff16815260200191505060405180910390f35b34801561055657600080fd5b5061055f611389565b6040518080602001828103825283818151815260200191508051906020019080838360005b8381101561059f578082015181840152602081019050610584565b50505050905090810190601f1680156105cc5780820380516001836020036101000a031916815260200191505b509250505060405180910390f35b3480156105e657600080fd5b50610633600480360360408110156105fd57600080fd5b81019080803573ffffffffffffffffffffffffffffffffffffffff169060200190929190803590602001909291905050506113c2565b604051808215151515815260200191505060405180910390f35b34801561065957600080fd5b506106626115e6565b604051808273ffffffffffffffffffffffffffffffffffffffff1673ffffffffffffffffffffffffffffffffffffffff16815260200191505060405180910390f35b3480156106b057600080fd5b506106fd600480360360408110156106c757600080fd5b81019080803573ffffffffffffffffffffffffffffffffffffffff1690602001909291908035906020019092919050505061160c565b604051808215151515815260200191505060405180910390f35b34801561072357600080fd5b506107866004803603604081101561073a57600080fd5b81019080803573ffffffffffffffffffffffffffffffffffffffff169060200190929190803573ffffffffffffffffffffffffffffffffffffffff169060200190929190505050611808565b6040518082815260200191505060405180910390f35b3480156107a857600080fd5b506107eb600480360360208110156107bf57600080fd5b81019080803573ffffffffffffffffffffffffffffffffffffffff16906020019092919050505061188f565b005b600360149054906101000a900460ff1681565b6040805190810160405280600881526020017f67696d69636f696e00000000000000000000000000000000000000000000000081525081565b600081600260003373ffffffffffffffffffffffffffffffffffffffff1673ffffffffffffffffffffffffffffffffffffffff16815260200190815260200160002060008573ffffffffffffffffffffffffffffffffffffffff1673ffffffffffffffffffffffffffffffffffffffff168152602001908152602001600020819055508273ffffffffffffffffffffffffffffffffffffffff163373ffffffffffffffffffffffffffffffffffffffff167f8c5be1e5ebec7d5bd14f71427d1e84f3dd0314c0f7b2291e5b200ac8c7c3b925846040518082815260200191505060405180910390a36001905092915050565b600460009054906101000a900473ffffffffffffffffffffffffffffffffffffffff1673ffffffffffffffffffffffffffffffffffffffff163373ffffffffffffffffffffffffffffffffffffffff1614806109d45750600360009054906101000a900473ffffffffffffffffffffffffffffffffffffffff1673ffffffffffffffffffffffffffffffffffffffff163373ffffffffffffffffffffffffffffffffffffffff16145b15156109df57600080fd5b80600460006101000a81548173ffffffffffffffffffffffffffffffffffffffff021916908373ffffffffffffffffffffffffffffffffffffffff16021790555050565b60005481565b60008073ffffffffffffffffffffffffffffffffffffffff168373ffffffffffffffffffffffffffffffffffffffff1614151515610a6657600080fd5b600160008573ffffffffffffffffffffffffffffffffffffffff1673ffffffffffffffffffffffffffffffffffffffff168152602001908152602001600020548211151515610ab457600080fd5b600260008573ffffffffffffffffffffffffffffffffffffffff1673ffffffffffffffffffffffffffffffffffffffff16815260200190815260200160002060003373ffffffffffffffffffffffffffffffffffffffff1673ffffffffffffffffffffffffffffffffffffffff168152602001908152602001600020548211151515610b3f57600080fd5b610b9182600160008773ffffffffffffffffffffffffffffffffffffffff1673ffffffffffffffffffffffffffffffffffffffff168152602001908152602001600020546119e790919063ffffffff16565b600160008673ffffffffffffffffffffffffffffffffffffffff1673ffffffffffffffffffffffffffffffffffffffff16815260200190815260200160002081905550610c2682600160008673ffffffffffffffffffffffffffffffffffffffff1673ffffffffffffffffffffffffffffffffffffffff16815260200190815260200160002054611a0090919063ffffffff16565b600160008573ffffffffffffffffffffffffffffffffffffffff1673ffffffffffffffffffffffffffffffffffffffff16815260200190815260200160002081905550610cf882600260008773ffffffffffffffffffffffffffffffffffffffff1673ffffffffffffffffffffffffffffffffffffffff16815260200190815260200160002060003373ffffffffffffffffffffffffffffffffffffffff1673ffffffffffffffffffffffffffffffffffffffff168152602001908152602001600020546119e790919063ffffffff16565b600260008673ffffffffffffffffffffffffffffffffffffffff1673ffffffffffffffffffffffffffffffffffffffff16815260200190815260200160002060003373ffffffffffffffffffffffffffffffffffffffff1673ffffffffffffffffffffffffffffffffffffffff168152602001908152602001600020819055508273ffffffffffffffffffffffffffffffffffffffff168473ffffffffffffffffffffffffffffffffffffffff167fddf252ad1be2c89b69c2b068fc378daa952ba7f163c4a11628f55a4df523b3ef846040518082815260200191505060405180910390a3600190509392505050565b601281565b6000600460009054906101000a900473ffffffffffffffffffffffffffffffffffffffff1673ffffffffffffffffffffffffffffffffffffffff163373ffffffffffffffffffffffffffffffffffffffff16148015610e595750600360149054906101000a900460ff16155b1515610e6457600080fd5b610e7982600054611a0090919063ffffffff16565b600081905550610ed182600160008673ffffffffffffffffffffffffffffffffffffffff1673ffffffffffffffffffffffffffffffffffffffff16815260200190815260200160002054611a0090919063ffffffff16565b600160008573ffffffffffffffffffffffffffffffffffffffff1673ffffffffffffffffffffffffffffffffffffffff168152602001908152602001600020819055508273ffffffffffffffffffffffffffffffffffffffff167f0f6798a560793a54c3bcfe86a93cde1e73087d944c0ea20544137d4121396885836040518082815260200191505060405180910390a26001905092915050565b600080600260003373ffffffffffffffffffffffffffffffffffffffff1673ffffffffffffffffffffffffffffffffffffffff16815260200190815260200160002060008573ffffffffffffffffffffffffffffffffffffffff1673ffffffffffffffffffffffffffffffffffffffff1681526020019081526020016000205490508083111561107d576000600260003373ffffffffffffffffffffffffffffffffffffffff1673ffffffffffffffffffffffffffffffffffffffff16815260200190815260200160002060008673ffffffffffffffffffffffffffffffffffffffff1673ffffffffffffffffffffffffffffffffffffffff16815260200190815260200160002081905550611111565b61109083826119e790919063ffffffff16565b600260003373ffffffffffffffffffffffffffffffffffffffff1673ffffffffffffffffffffffffffffffffffffffff16815260200190815260200160002060008673ffffffffffffffffffffffffffffffffffffffff1673ffffffffffffffffffffffffffffffffffffffff168152602001908152602001600020819055505b8373ffffffffffffffffffffffffffffffffffffffff163373ffffffffffffffffffffffffffffffffffffffff167f8c5be1e5ebec7d5bd14f71427d1e84f3dd0314c0f7b2291e5b200ac8c7c3b925600260003373ffffffffffffffffffffffffffffffffffffffff1673ffffffffffffffffffffffffffffffffffffffff16815260200190815260200160002060008873ffffffffffffffffffffffffffffffffffffffff1673ffffffffffffffffffffffffffffffffffffffff168152602001908152602001600020546040518082815260200191505060405180910390a3600191505092915050565b6000600160008373ffffffffffffffffffffffffffffffffffffffff1673ffffffffffffffffffffffffffffffffffffffff168152602001908152602001600020549050919050565b6000600460009054906101000a900473ffffffffffffffffffffffffffffffffffffffff1673ffffffffffffffffffffffffffffffffffffffff163373ffffffffffffffffffffffffffffffffffffffff1614806112f15750600360009054906101000a900473ffffffffffffffffffffffffffffffffffffffff1673ffffffffffffffffffffffffffffffffffffffff163373ffffffffffffffffffffffffffffffffffffffff16145b801561130a5750600360149054906101000a900460ff16155b151561131557600080fd5b6001600360146101000a81548160ff0219169083151502179055507fae5184fba832cb2b1f702aca6117b8d265eaf03ad33eb133f19dde0f5920fa0860405160405180910390a16001905090565b600360009054906101000a900473ffffffffffffffffffffffffffffffffffffffff1681565b6040805190810160405280600381526020017f474d43000000000000000000000000000000000000000000000000000000000081525081565b60008073ffffffffffffffffffffffffffffffffffffffff168373ffffffffffffffffffffffffffffffffffffffff16141515156113ff57600080fd5b600160003373ffffffffffffffffffffffffffffffffffffffff1673ffffffffffffffffffffffffffffffffffffffff16815260200190815260200160002054821115151561144d57600080fd5b61149f82600160003373ffffffffffffffffffffffffffffffffffffffff1673ffffffffffffffffffffffffffffffffffffffff168152602001908152602001600020546119e790919063ffffffff16565b600160003373ffffffffffffffffffffffffffffffffffffffff1673ffffffffffffffffffffffffffffffffffffffff1681526020019081526020016000208190555061153482600160008673ffffffffffffffffffffffffffffffffffffffff1673ffffffffffffffffffffffffffffffffffffffff16815260200190815260200160002054611a0090919063ffffffff16565b600160008573ffffffffffffffffffffffffffffffffffffffff1673ffffffffffffffffffffffffffffffffffffffff168152602001908152602001600020819055508273ffffffffffffffffffffffffffffffffffffffff163373ffffffffffffffffffffffffffffffffffffffff167fddf252ad1be2c89b69c2b068fc378daa952ba7f163c4a11628f55a4df523b3ef846040518082815260200191505060405180910390a36001905092915050565b600460009054906101000a900473ffffffffffffffffffffffffffffffffffffffff1681565b600061169d82600260003373ffffffffffffffffffffffffffffffffffffffff1673ffffffffffffffffffffffffffffffffffffffff16815260200190815260200160002060008673ffffffffffffffffffffffffffffffffffffffff1673ffffffffffffffffffffffffffffffffffffffff16815260200190815260200160002054611a0090919063ffffffff16565b600260003373ffffffffffffffffffffffffffffffffffffffff1673ffffffffffffffffffffffffffffffffffffffff16815260200190815260200160002060008573ffffffffffffffffffffffffffffffffffffffff1673ffffffffffffffffffffffffffffffffffffffff168152602001908152602001600020819055508273ffffffffffffffffffffffffffffffffffffffff163373ffffffffffffffffffffffffffffffffffffffff167f8c5be1e5ebec7d5bd14f71427d1e84f3dd0314c0f7b2291e5b200ac8c7c3b925600260003373ffffffffffffffffffffffffffffffffffffffff1673ffffffffffffffffffffffffffffffffffffffff16815260200190815260200160002060008773ffffffffffffffffffffffffffffffffffffffff1673ffffffffffffffffffffffffffffffffffffffff168152602001908152602001600020546040518082815260200191505060405180910390a36001905092915050565b6000600260008473ffffffffffffffffffffffffffffffffffffffff1673ffffffffffffffffffffffffffffffffffffffff16815260200190815260200160002060008373ffffffffffffffffffffffffffffffffffffffff1673ffffffffffffffffffffffffffffffffffffffff16815260200190815260200160002054905092915050565b600360009054906101000a900473ffffffffffffffffffffffffffffffffffffffff1673ffffffffffffffffffffffffffffffffffffffff163373ffffffffffffffffffffffffffffffffffffffff161415156118eb57600080fd5b600073ffffffffffffffffffffffffffffffffffffffff168173ffffffffffffffffffffffffffffffffffffffff161415151561192757600080fd5b8073ffffffffffffffffffffffffffffffffffffffff16600360009054906101000a900473ffffffffffffffffffffffffffffffffffffffff1673ffffffffffffffffffffffffffffffffffffffff167f8be0079c531659141344cd1fd0a4f28419497f9722a3daafe3b4186f6b6457e060405160405180910390a380600360006101000a81548173ffffffffffffffffffffffffffffffffffffffff021916908373ffffffffffffffffffffffffffffffffffffffff16021790555050565b60008282111515156119f557fe5b818303905092915050565b6000808284019050838110151515611a1457fe5b809150509291505056fea165627a7a72305820e482692a7bd45a6d8f7745a7be940ff36d4db05d7718a183e5f26152bba057690029",
  "source": "pragma solidity ^0.5.0;\n\nimport \"./Gimicoin.sol\";\n\ncontract Cagnottes is Gimicoin  {\n\nevent creationCanal(uint groupe, uint montant, uint delai, string pseudo, string description);\n\nGimicoin public myGimicoin;\n\nmapping (uint => channel) public mappChannel;\nmapping (uint => address[]) public mappGroupe;\nmapping (uint => address[]) public mappGroupeAdmin;\nmapping (string => address) private mappPseudo;\nmapping (uint => uint[]) public mappChannels;\n\nenum EtatCanal {ACTIF, FERME}\n\nuint IDGroupe;\nuint MAX_MEMBRE = 40;\nuint MAX_DELAI = 50;\nuint MAX_AMOUNT = 50;\n\nstruct channel\n{\n  address demandeur;\n  uint montant;\n  uint blocFermeture;\n  EtatCanal etat;\n  uint groupe;\n  uint enCours;\n}\n\nconstructor() public\n{\nmyGimicoin = new Gimicoin();\n}\n\nfunction creerGroupe() public\n{\n  IDGroupe += 1;\n  mappGroupe[IDGroupe].push(msg.sender);\n  mappGroupeAdmin[IDGroupe].push(msg.sender);\n}\n\nfunction creerCanal(uint _groupe, uint _montant, uint _delai, string memory _pseudo, string memory _description) public\n{\n    require(mappPseudo[_pseudo]==msg.sender);\n    for (uint i=0;i<mappGroupe[_groupe].length;i++){\n      if (mappGroupe[_groupe][i] == msg.sender)\n      {\n        uint channelID = uint(keccak256(bytes(_pseudo)));\n        require(mappChannel[channelID].etat!=EtatCanal.ACTIF);\n        mappChannel[channelID].montant=_montant;\n        mappChannel[channelID].enCours=0;\n        mappChannel[channelID].etat=EtatCanal.ACTIF;\n        mappChannel[channelID].blocFermeture=block.number+_delai;\n        mappChannel[channelID].groupe = _groupe;\n        mappChannel[channelID].demandeur = msg.sender;\n        mappChannels[_groupe].push(channelID);\n        emit creationCanal(_groupe,_montant,_delai,_pseudo,_description);\n        break;\n      }\n  }\n}\n\nfunction payerCanal(uint _groupe, uint _channelID, string memory _pseudo) payable public\n{\n  bool goodChannel;\n  for (uint j=0;j<mappChannels[_groupe].length;j++){\n    if (mappChannels[_groupe][j] == _channelID)\n    {\n    goodChannel=true;\n    break;\n    }\n  }\n  require(mappChannel[_channelID].etat==EtatCanal.ACTIF);\n  require(mappChannel[_channelID].blocFermeture>=block.number);\n  require(goodChannel==true);\n  require(mappPseudo[_pseudo]==msg.sender);\n  for (uint i=0;i<mappGroupe[_groupe].length;i++){\n      if (mappGroupe[_groupe][i] == msg.sender)\n      {\n      mappChannel[_channelID].enCours+=msg.value;\n      myGimicoin.mint(msg.sender,msg.value);\n      break;\n      }\n  }\n}\n\nfunction fermetureCanal(uint _channelID) public {\n  require(mappChannel[_channelID].blocFermeture<=block.number);\n  require(mappChannel[_channelID].etat==EtatCanal.ACTIF);\n  require(mappChannel[_channelID].demandeur==msg.sender);\n  msg.sender.transfer(mappChannel[_channelID].enCours);\n  mappChannel[_channelID].etat=EtatCanal.FERME;\n}\n\nfunction creerPseudo(string memory _pseudo) public\n{\nrequire(mappPseudo[_pseudo]==address(0));\nmappPseudo[_pseudo]=msg.sender;\n}\n\nfunction ajouterMembre(address _membre, uint _groupe) public\n{\nrequire(mappGroupe[_groupe].length<MAX_MEMBRE);\n  for (uint i=0;i<mappGroupeAdmin[_groupe].length;i++){\n      if (mappGroupeAdmin[_groupe][i] == msg.sender)\n      {\n        mappGroupe[IDGroupe].push(_membre);\n        break;\n      }\n  }\n}\n\nfunction ajouterAdmin(address _membre, uint _groupe) public\n{\n  for (uint j=0;j<mappGroupeAdmin[_groupe].length;j++){\n      if (mappGroupeAdmin[_groupe][j] == msg.sender)\n      {\n        for (uint i=0;i<mappGroupe[_groupe].length;i++){\n            if (mappGroupe[_groupe][i] == _membre)\n            {\n              mappGroupeAdmin[IDGroupe].push(_membre);\n              break;\n            }\n        }\n        break;\n      }\n  }\n}\n\n}\n",
  "sourcePath": "/Users/germaindacunha/Desktop/Alyra/project/myProject/contracts/Cagnottes.sol",
  "compiler": {
    "name": "solc",
    "version": "0.5.0+commit.1d4f565a.Emscripten.clang"
  },
  "schemaVersion": "3.0.2",
  "updatedAt": "2019-03-21T18:09:54.042Z",
  "devdoc": {
    "methods": {
      "allowance(address,address)": {
        "details": "Function to check the amount of tokens that an owner allowed to a spender.",
        "params": {
          "_owner": "address The address which owns the funds.",
          "_spender": "address The address which will spend the funds."
        },
        "return": "A uint256 specifying the amount of tokens still available for the spender."
      },
      "approve(address,uint256)": {
        "details": "Approve the passed address to spend the specified amount of tokens on behalf of msg.sender.  * Beware that changing an allowance with this method brings the risk that someone may use both the old and the new allowance by unfortunate transaction ordering. One possible solution to mitigate this race condition is to first reduce the spender's allowance to 0 and set the desired value afterwards: https://github.com/ethereum/EIPs/issues/20#issuecomment-263524729",
        "params": {
          "_spender": "The address which will spend the funds.",
          "_value": "The amount of tokens to be spent."
        }
      },
      "balanceOf(address)": {
        "details": "Gets the balance of the specified address.",
        "params": {
          "_owner": "The address to query the the balance of."
        },
        "return": "An uint256 representing the amount owned by the passed address."
      },
      "finishMinting()": {
        "details": "Function to stop minting new tokens.",
        "return": "True if the operation was successful."
      },
      "transfer(address,uint256)": {
        "details": "transfer token for a specified address",
        "params": {
          "_to": "The address to transfer to.",
          "_value": "The amount to be transferred."
        }
      },
      "transferFrom(address,address,uint256)": {
        "details": "Transfer tokens from one address to another",
        "params": {
          "_from": "address The address which you want to send tokens from",
          "_to": "address The address which you want to transfer to",
          "_value": "uint256 the amount of tokens to be transferred"
        }
      },
      "transferOwnership(address)": {
        "details": "Allows the current owner to transfer control of the contract to a newOwner.",
        "params": {
          "newOwner": "The address to transfer ownership to."
        }
      }
    }
  },
  "userdoc": {
    "methods": {
      "increaseApproval(address,uint256)": {
        "notice": "approve should be called when allowed[_spender] == 0. To increment allowed value is better to use this function to avoid 2 calls (and wait until the first transaction is mined) * From MonolithDAO Token.sol"
      }
    }
  }
}